{
	"contracts/nftMarket.sol": {
		"NFTMarket": {
			"abi": [
				{
					"inputs": [
						{
							"internalType": "uint256",
							"name": "_id",
							"type": "uint256"
						}
					],
					"name": "buyKitty",
					"outputs": [],
					"stateMutability": "nonpayable",
					"type": "function"
				},
				{
					"inputs": [
						{
							"internalType": "string",
							"name": "_name",
							"type": "string"
						}
					],
					"name": "createKitty",
					"outputs": [],
					"stateMutability": "nonpayable",
					"type": "function"
				},
				{
					"inputs": [
						{
							"internalType": "uint256",
							"name": "",
							"type": "uint256"
						}
					],
					"name": "kitties",
					"outputs": [
						{
							"internalType": "uint256",
							"name": "id",
							"type": "uint256"
						},
						{
							"internalType": "string",
							"name": "name",
							"type": "string"
						},
						{
							"internalType": "address",
							"name": "owner",
							"type": "address"
						}
					],
					"stateMutability": "view",
					"type": "function"
				},
				{
					"inputs": [],
					"name": "viewKitty",
					"outputs": [
						{
							"components": [
								{
									"internalType": "uint256",
									"name": "id",
									"type": "uint256"
								},
								{
									"internalType": "string",
									"name": "name",
									"type": "string"
								},
								{
									"internalType": "address",
									"name": "owner",
									"type": "address"
								}
							],
							"internalType": "struct NFTMarket.Kitty[]",
							"name": "",
							"type": "tuple[]"
						}
					],
					"stateMutability": "view",
					"type": "function"
				}
			],
			"devdoc": {
				"kind": "dev",
				"methods": {},
				"version": 1
			},
			"evm": {
				"assembly": "    /* \"contracts/nftMarket.sol\":80:1342  contract NFTMarket is Ownable {... */\n  mstore(0x40, 0x80)\n    /* \"contracts/nftMarket.sol\":301:320  1000000000000000000 */\n  0x0de0b6b3a7640000\n    /* \"contracts/nftMarket.sol\":280:320  uint private price = 1000000000000000000 */\n  0x03\n  sstore\n    /* \"contracts/nftMarket.sol\":364:406  0xd9145CCE52D386f254917e481eB44e9943F39138 */\n  0xd9145cce52d386f254917e481eb44e9943f39138\n    /* \"contracts/nftMarket.sol\":334:406  address private bankAddress = 0xd9145CCE52D386f254917e481eB44e9943F39138 */\n  0x04\n  exp(0x0100, 0x00)\n  dup2\n  sload\n  dup2\n  0xffffffffffffffffffffffffffffffffffffffff\n  mul\n  not\n  and\n  swap1\n  dup4\n  0xffffffffffffffffffffffffffffffffffffffff\n  and\n  mul\n  or\n  swap1\n  sstore\n  pop\n    /* \"contracts/nftMarket.sol\":80:1342  contract NFTMarket is Ownable {... */\n  callvalue\n  dup1\n  iszero\n  tag_1\n  jumpi\n  0x00\n  dup1\n  revert\ntag_1:\n  pop\n    /* \"contracts/ownable.sol\":337:347  msg.sender */\n  caller\n    /* \"contracts/ownable.sol\":329:334  owner */\n  0x00\n  dup1\n    /* \"contracts/ownable.sol\":329:347  owner = msg.sender */\n  0x0100\n  exp\n  dup2\n  sload\n  dup2\n  0xffffffffffffffffffffffffffffffffffffffff\n  mul\n  not\n  and\n  swap1\n  dup4\n  0xffffffffffffffffffffffffffffffffffffffff\n  and\n  mul\n  or\n  swap1\n  sstore\n  pop\n    /* \"contracts/nftMarket.sol\":80:1342  contract NFTMarket is Ownable {... */\n  dataSize(sub_0)\n  dup1\n  dataOffset(sub_0)\n  0x00\n  codecopy\n  0x00\n  return\nstop\n\nsub_0: assembly {\n        /* \"contracts/nftMarket.sol\":80:1342  contract NFTMarket is Ownable {... */\n      mstore(0x40, 0x80)\n      callvalue\n      dup1\n      iszero\n      tag_1\n      jumpi\n      0x00\n      dup1\n      revert\n    tag_1:\n      pop\n      jumpi(tag_2, lt(calldatasize, 0x04))\n      shr(0xe0, calldataload(0x00))\n      dup1\n      0x0c3fddef\n      eq\n      tag_3\n      jumpi\n      dup1\n      0x35844dad\n      eq\n      tag_4\n      jumpi\n      dup1\n      0x8cc51eda\n      eq\n      tag_5\n      jumpi\n      dup1\n      0xae5310f6\n      eq\n      tag_6\n      jumpi\n    tag_2:\n      0x00\n      dup1\n      revert\n        /* \"contracts/nftMarket.sol\":749:838  function viewKitty() view external returns(Kitty[] memory){... */\n    tag_3:\n      tag_7\n      tag_8\n      jump\t// in\n    tag_7:\n      mload(0x40)\n      tag_9\n      swap2\n      swap1\n      tag_10\n      jump\t// in\n    tag_9:\n      mload(0x40)\n      dup1\n      swap2\n      sub\n      swap1\n      return\n        /* \"contracts/nftMarket.sol\":417:718  function createKitty(string memory _name) external onlyOwner {... */\n    tag_4:\n      tag_11\n      0x04\n      dup1\n      calldatasize\n      sub\n      dup2\n      add\n      swap1\n      tag_12\n      swap2\n      swap1\n      tag_13\n      jump\t// in\n    tag_12:\n      tag_14\n      jump\t// in\n    tag_11:\n      stop\n        /* \"contracts/nftMarket.sol\":202:224  Kitty[] public kitties */\n    tag_5:\n      tag_15\n      0x04\n      dup1\n      calldatasize\n      sub\n      dup2\n      add\n      swap1\n      tag_16\n      swap2\n      swap1\n      tag_17\n      jump\t// in\n    tag_16:\n      tag_18\n      jump\t// in\n    tag_15:\n      mload(0x40)\n      tag_19\n      swap4\n      swap3\n      swap2\n      swap1\n      tag_20\n      jump\t// in\n    tag_19:\n      mload(0x40)\n      dup1\n      swap2\n      sub\n      swap1\n      return\n        /* \"contracts/nftMarket.sol\":1012:1340  function buyKitty(uint256 _id) external{... */\n    tag_6:\n      tag_21\n      0x04\n      dup1\n      calldatasize\n      sub\n      dup2\n      add\n      swap1\n      tag_22\n      swap2\n      swap1\n      tag_17\n      jump\t// in\n    tag_22:\n      tag_23\n      jump\t// in\n    tag_21:\n      stop\n        /* \"contracts/nftMarket.sol\":749:838  function viewKitty() view external returns(Kitty[] memory){... */\n    tag_8:\n        /* \"contracts/nftMarket.sol\":792:806  Kitty[] memory */\n      0x60\n        /* \"contracts/nftMarket.sol\":824:831  kitties */\n      0x01\n        /* \"contracts/nftMarket.sol\":817:831  return kitties */\n      dup1\n      sload\n      dup1\n      0x20\n      mul\n      0x20\n      add\n      mload(0x40)\n      swap1\n      dup2\n      add\n      0x40\n      mstore\n      dup1\n      swap3\n      swap2\n      swap1\n      dup2\n      dup2\n      mstore\n      0x20\n      add\n      0x00\n      swap1\n    tag_25:\n      dup3\n      dup3\n      lt\n      iszero\n      tag_26\n      jumpi\n      dup4\n      dup3\n      swap1\n      0x00\n      mstore\n      keccak256(0x00, 0x20)\n      swap1\n      0x03\n      mul\n      add\n      mload(0x40)\n      dup1\n      0x60\n      add\n      0x40\n      mstore\n      swap1\n      dup2\n      0x00\n      dup3\n      add\n      sload\n      dup2\n      mstore\n      0x20\n      add\n      0x01\n      dup3\n      add\n      dup1\n      sload\n      tag_28\n      swap1\n      tag_29\n      jump\t// in\n    tag_28:\n      dup1\n      0x1f\n      add\n      0x20\n      dup1\n      swap2\n      div\n      mul\n      0x20\n      add\n      mload(0x40)\n      swap1\n      dup2\n      add\n      0x40\n      mstore\n      dup1\n      swap3\n      swap2\n      swap1\n      dup2\n      dup2\n      mstore\n      0x20\n      add\n      dup3\n      dup1\n      sload\n      tag_30\n      swap1\n      tag_29\n      jump\t// in\n    tag_30:\n      dup1\n      iszero\n      tag_31\n      jumpi\n      dup1\n      0x1f\n      lt\n      tag_32\n      jumpi\n      0x0100\n      dup1\n      dup4\n      sload\n      div\n      mul\n      dup4\n      mstore\n      swap2\n      0x20\n      add\n      swap2\n      jump(tag_31)\n    tag_32:\n      dup3\n      add\n      swap2\n      swap1\n      0x00\n      mstore\n      keccak256(0x00, 0x20)\n      swap1\n    tag_33:\n      dup2\n      sload\n      dup2\n      mstore\n      swap1\n      0x01\n      add\n      swap1\n      0x20\n      add\n      dup1\n      dup4\n      gt\n      tag_33\n      jumpi\n      dup3\n      swap1\n      sub\n      0x1f\n      and\n      dup3\n      add\n      swap2\n    tag_31:\n      pop\n      pop\n      pop\n      pop\n      pop\n      dup2\n      mstore\n      0x20\n      add\n      0x02\n      dup3\n      add\n      0x00\n      swap1\n      sload\n      swap1\n      0x0100\n      exp\n      swap1\n      div\n      0xffffffffffffffffffffffffffffffffffffffff\n      and\n      0xffffffffffffffffffffffffffffffffffffffff\n      and\n      0xffffffffffffffffffffffffffffffffffffffff\n      and\n      dup2\n      mstore\n      pop\n      pop\n      dup2\n      mstore\n      0x20\n      add\n      swap1\n      0x01\n      add\n      swap1\n      jump(tag_25)\n    tag_26:\n      pop\n      pop\n      pop\n      pop\n      swap1\n      pop\n        /* \"contracts/nftMarket.sol\":749:838  function viewKitty() view external returns(Kitty[] memory){... */\n      swap1\n      jump\t// out\n        /* \"contracts/nftMarket.sol\":417:718  function createKitty(string memory _name) external onlyOwner {... */\n    tag_14:\n        /* \"contracts/ownable.sol\":201:206  owner */\n      0x00\n      dup1\n      sload\n      swap1\n      0x0100\n      exp\n      swap1\n      div\n      0xffffffffffffffffffffffffffffffffffffffff\n      and\n        /* \"contracts/ownable.sol\":187:206  msg.sender == owner */\n      0xffffffffffffffffffffffffffffffffffffffff\n      and\n        /* \"contracts/ownable.sol\":187:197  msg.sender */\n      caller\n        /* \"contracts/ownable.sol\":187:206  msg.sender == owner */\n      0xffffffffffffffffffffffffffffffffffffffff\n      and\n      eq\n        /* \"contracts/ownable.sol\":179:228  require(msg.sender == owner, \"You Are Not Owner\") */\n      tag_35\n      jumpi\n      mload(0x40)\n      0x08c379a000000000000000000000000000000000000000000000000000000000\n      dup2\n      mstore\n      0x04\n      add\n      tag_36\n      swap1\n      tag_37\n      jump\t// in\n    tag_36:\n      mload(0x40)\n      dup1\n      swap2\n      sub\n      swap1\n      revert\n    tag_35:\n        /* \"contracts/nftMarket.sol\":614:635  Kitty memory newKitty */\n      0x00\n        /* \"contracts/nftMarket.sol\":638:679  Kitty(kitties.length , _name, address(0)) */\n      mload(0x40)\n      dup1\n      0x60\n      add\n      0x40\n      mstore\n      dup1\n        /* \"contracts/nftMarket.sol\":644:651  kitties */\n      0x01\n        /* \"contracts/nftMarket.sol\":644:658  kitties.length */\n      dup1\n      sload\n      swap1\n      pop\n        /* \"contracts/nftMarket.sol\":638:679  Kitty(kitties.length , _name, address(0)) */\n      dup2\n      mstore\n      0x20\n      add\n        /* \"contracts/nftMarket.sol\":661:666  _name */\n      dup4\n        /* \"contracts/nftMarket.sol\":638:679  Kitty(kitties.length , _name, address(0)) */\n      dup2\n      mstore\n      0x20\n      add\n        /* \"contracts/nftMarket.sol\":676:677  0 */\n      0x00\n        /* \"contracts/nftMarket.sol\":638:679  Kitty(kitties.length , _name, address(0)) */\n      0xffffffffffffffffffffffffffffffffffffffff\n      and\n      dup2\n      mstore\n      pop\n        /* \"contracts/nftMarket.sol\":614:679  Kitty memory newKitty = Kitty(kitties.length , _name, address(0)) */\n      swap1\n      pop\n        /* \"contracts/nftMarket.sol\":689:696  kitties */\n      0x01\n        /* \"contracts/nftMarket.sol\":702:710  newKitty */\n      dup2\n        /* \"contracts/nftMarket.sol\":689:711  kitties.push(newKitty) */\n      swap1\n      dup1\n      0x01\n      dup2\n      sload\n      add\n      dup1\n      dup3\n      sstore\n      dup1\n      swap2\n      pop\n      pop\n      0x01\n      swap1\n      sub\n      swap1\n      0x00\n      mstore\n      keccak256(0x00, 0x20)\n      swap1\n      0x03\n      mul\n      add\n      0x00\n      swap1\n      swap2\n      swap1\n      swap2\n      swap1\n      swap2\n      pop\n      0x00\n      dup3\n      add\n      mload\n      dup2\n      0x00\n      add\n      sstore\n      0x20\n      dup3\n      add\n      mload\n      dup2\n      0x01\n      add\n      swap1\n      dup2\n      tag_40\n      swap2\n      swap1\n      tag_41\n      jump\t// in\n    tag_40:\n      pop\n      0x40\n      dup3\n      add\n      mload\n      dup2\n      0x02\n      add\n      exp(0x0100, 0x00)\n      dup2\n      sload\n      dup2\n      0xffffffffffffffffffffffffffffffffffffffff\n      mul\n      not\n      and\n      swap1\n      dup4\n      0xffffffffffffffffffffffffffffffffffffffff\n      and\n      mul\n      or\n      swap1\n      sstore\n      pop\n      pop\n      pop\n        /* \"contracts/nftMarket.sol\":478:718  {... */\n      pop\n        /* \"contracts/nftMarket.sol\":417:718  function createKitty(string memory _name) external onlyOwner {... */\n      pop\n      jump\t// out\n        /* \"contracts/nftMarket.sol\":202:224  Kitty[] public kitties */\n    tag_18:\n      0x01\n      dup2\n      dup2\n      sload\n      dup2\n      lt\n      tag_42\n      jumpi\n      0x00\n      dup1\n      revert\n    tag_42:\n      swap1\n      0x00\n      mstore\n      keccak256(0x00, 0x20)\n      swap1\n      0x03\n      mul\n      add\n      0x00\n      swap2\n      pop\n      swap1\n      pop\n      dup1\n      0x00\n      add\n      sload\n      swap1\n      dup1\n      0x01\n      add\n      dup1\n      sload\n      tag_44\n      swap1\n      tag_29\n      jump\t// in\n    tag_44:\n      dup1\n      0x1f\n      add\n      0x20\n      dup1\n      swap2\n      div\n      mul\n      0x20\n      add\n      mload(0x40)\n      swap1\n      dup2\n      add\n      0x40\n      mstore\n      dup1\n      swap3\n      swap2\n      swap1\n      dup2\n      dup2\n      mstore\n      0x20\n      add\n      dup3\n      dup1\n      sload\n      tag_45\n      swap1\n      tag_29\n      jump\t// in\n    tag_45:\n      dup1\n      iszero\n      tag_46\n      jumpi\n      dup1\n      0x1f\n      lt\n      tag_47\n      jumpi\n      0x0100\n      dup1\n      dup4\n      sload\n      div\n      mul\n      dup4\n      mstore\n      swap2\n      0x20\n      add\n      swap2\n      jump(tag_46)\n    tag_47:\n      dup3\n      add\n      swap2\n      swap1\n      0x00\n      mstore\n      keccak256(0x00, 0x20)\n      swap1\n    tag_48:\n      dup2\n      sload\n      dup2\n      mstore\n      swap1\n      0x01\n      add\n      swap1\n      0x20\n      add\n      dup1\n      dup4\n      gt\n      tag_48\n      jumpi\n      dup3\n      swap1\n      sub\n      0x1f\n      and\n      dup3\n      add\n      swap2\n    tag_46:\n      pop\n      pop\n      pop\n      pop\n      pop\n      swap1\n      dup1\n      0x02\n      add\n      0x00\n      swap1\n      sload\n      swap1\n      0x0100\n      exp\n      swap1\n      div\n      0xffffffffffffffffffffffffffffffffffffffff\n      and\n      swap1\n      pop\n      dup4\n      jump\t// out\n        /* \"contracts/nftMarket.sol\":1012:1340  function buyKitty(uint256 _id) external{... */\n    tag_23:\n        /* \"contracts/nftMarket.sol\":1159:1160  0 */\n      0x00\n        /* \"contracts/nftMarket.sol\":1129:1161  kitties[_id].owner == address(0) */\n      0xffffffffffffffffffffffffffffffffffffffff\n      and\n        /* \"contracts/nftMarket.sol\":1129:1136  kitties */\n      0x01\n        /* \"contracts/nftMarket.sol\":1137:1140  _id */\n      dup3\n        /* \"contracts/nftMarket.sol\":1129:1141  kitties[_id] */\n      dup2\n      sload\n      dup2\n      lt\n      tag_50\n      jumpi\n      tag_51\n      tag_52\n      jump\t// in\n    tag_51:\n    tag_50:\n      swap1\n      0x00\n      mstore\n      keccak256(0x00, 0x20)\n      swap1\n      0x03\n      mul\n      add\n        /* \"contracts/nftMarket.sol\":1129:1147  kitties[_id].owner */\n      0x02\n      add\n      0x00\n      swap1\n      sload\n      swap1\n      0x0100\n      exp\n      swap1\n      div\n      0xffffffffffffffffffffffffffffffffffffffff\n      and\n        /* \"contracts/nftMarket.sol\":1129:1161  kitties[_id].owner == address(0) */\n      0xffffffffffffffffffffffffffffffffffffffff\n      and\n      eq\n        /* \"contracts/nftMarket.sol\":1121:1184  require(kitties[_id].owner == address(0), \"Kitty not for sale\") */\n      tag_54\n      jumpi\n      mload(0x40)\n      0x08c379a000000000000000000000000000000000000000000000000000000000\n      dup2\n      mstore\n      0x04\n      add\n      tag_55\n      swap1\n      tag_56\n      jump\t// in\n    tag_55:\n      mload(0x40)\n      dup1\n      swap2\n      sub\n      swap1\n      revert\n    tag_54:\n        /* \"contracts/nftMarket.sol\":1194:1207  ownedKittyies */\n      0x02\n        /* \"contracts/nftMarket.sol\":1194:1219  ownedKittyies[msg.sender] */\n      0x00\n        /* \"contracts/nftMarket.sol\":1208:1218  msg.sender */\n      caller\n        /* \"contracts/nftMarket.sol\":1194:1219  ownedKittyies[msg.sender] */\n      0xffffffffffffffffffffffffffffffffffffffff\n      and\n      0xffffffffffffffffffffffffffffffffffffffff\n      and\n      dup2\n      mstore\n      0x20\n      add\n      swap1\n      dup2\n      mstore\n      0x20\n      add\n      0x00\n      keccak256\n        /* \"contracts/nftMarket.sol\":1225:1228  _id */\n      dup2\n        /* \"contracts/nftMarket.sol\":1194:1229  ownedKittyies[msg.sender].push(_id) */\n      swap1\n      dup1\n      0x01\n      dup2\n      sload\n      add\n      dup1\n      dup3\n      sstore\n      dup1\n      swap2\n      pop\n      pop\n      0x01\n      swap1\n      sub\n      swap1\n      0x00\n      mstore\n      keccak256(0x00, 0x20)\n      add\n      0x00\n      swap1\n      swap2\n      swap1\n      swap2\n      swap1\n      swap2\n      pop\n      sstore\n        /* \"contracts/nftMarket.sol\":1323:1333  msg.sender */\n      caller\n        /* \"contracts/nftMarket.sol\":1302:1309  kitties */\n      0x01\n        /* \"contracts/nftMarket.sol\":1310:1313  _id */\n      dup3\n        /* \"contracts/nftMarket.sol\":1302:1314  kitties[_id] */\n      dup2\n      sload\n      dup2\n      lt\n      tag_58\n      jumpi\n      tag_59\n      tag_52\n      jump\t// in\n    tag_59:\n    tag_58:\n      swap1\n      0x00\n      mstore\n      keccak256(0x00, 0x20)\n      swap1\n      0x03\n      mul\n      add\n        /* \"contracts/nftMarket.sol\":1302:1320  kitties[_id].owner */\n      0x02\n      add\n      0x00\n        /* \"contracts/nftMarket.sol\":1302:1333  kitties[_id].owner = msg.sender */\n      0x0100\n      exp\n      dup2\n      sload\n      dup2\n      0xffffffffffffffffffffffffffffffffffffffff\n      mul\n      not\n      and\n      swap1\n      dup4\n      0xffffffffffffffffffffffffffffffffffffffff\n      and\n      mul\n      or\n      swap1\n      sstore\n      pop\n        /* \"contracts/nftMarket.sol\":1012:1340  function buyKitty(uint256 _id) external{... */\n      pop\n      jump\t// out\n        /* \"#utility.yul\":7:142   */\n    tag_61:\n        /* \"#utility.yul\":95:101   */\n      0x00\n        /* \"#utility.yul\":129:134   */\n      dup2\n        /* \"#utility.yul\":123:135   */\n      mload\n        /* \"#utility.yul\":113:135   */\n      swap1\n      pop\n        /* \"#utility.yul\":7:142   */\n      swap2\n      swap1\n      pop\n      jump\t// out\n        /* \"#utility.yul\":148:353   */\n    tag_62:\n        /* \"#utility.yul\":268:279   */\n      0x00\n        /* \"#utility.yul\":302:308   */\n      dup3\n        /* \"#utility.yul\":297:300   */\n      dup3\n        /* \"#utility.yul\":290:309   */\n      mstore\n        /* \"#utility.yul\":342:346   */\n      0x20\n        /* \"#utility.yul\":337:340   */\n      dup3\n        /* \"#utility.yul\":333:347   */\n      add\n        /* \"#utility.yul\":318:347   */\n      swap1\n      pop\n        /* \"#utility.yul\":148:353   */\n      swap3\n      swap2\n      pop\n      pop\n      jump\t// out\n        /* \"#utility.yul\":359:512   */\n    tag_63:\n        /* \"#utility.yul\":447:451   */\n      0x00\n        /* \"#utility.yul\":470:473   */\n      dup2\n        /* \"#utility.yul\":462:473   */\n      swap1\n      pop\n        /* \"#utility.yul\":500:504   */\n      0x20\n        /* \"#utility.yul\":495:498   */\n      dup3\n        /* \"#utility.yul\":491:505   */\n      add\n        /* \"#utility.yul\":483:505   */\n      swap1\n      pop\n        /* \"#utility.yul\":359:512   */\n      swap2\n      swap1\n      pop\n      jump\t// out\n        /* \"#utility.yul\":518:595   */\n    tag_64:\n        /* \"#utility.yul\":555:562   */\n      0x00\n        /* \"#utility.yul\":584:589   */\n      dup2\n        /* \"#utility.yul\":573:589   */\n      swap1\n      pop\n        /* \"#utility.yul\":518:595   */\n      swap2\n      swap1\n      pop\n      jump\t// out\n        /* \"#utility.yul\":601:709   */\n    tag_65:\n        /* \"#utility.yul\":678:702   */\n      tag_122\n        /* \"#utility.yul\":696:701   */\n      dup2\n        /* \"#utility.yul\":678:702   */\n      tag_64\n      jump\t// in\n    tag_122:\n        /* \"#utility.yul\":673:676   */\n      dup3\n        /* \"#utility.yul\":666:703   */\n      mstore\n        /* \"#utility.yul\":601:709   */\n      pop\n      pop\n      jump\t// out\n        /* \"#utility.yul\":715:814   */\n    tag_66:\n        /* \"#utility.yul\":767:773   */\n      0x00\n        /* \"#utility.yul\":801:806   */\n      dup2\n        /* \"#utility.yul\":795:807   */\n      mload\n        /* \"#utility.yul\":785:807   */\n      swap1\n      pop\n        /* \"#utility.yul\":715:814   */\n      swap2\n      swap1\n      pop\n      jump\t// out\n        /* \"#utility.yul\":820:979   */\n    tag_67:\n        /* \"#utility.yul\":894:905   */\n      0x00\n        /* \"#utility.yul\":928:934   */\n      dup3\n        /* \"#utility.yul\":923:926   */\n      dup3\n        /* \"#utility.yul\":916:935   */\n      mstore\n        /* \"#utility.yul\":968:972   */\n      0x20\n        /* \"#utility.yul\":963:966   */\n      dup3\n        /* \"#utility.yul\":959:973   */\n      add\n        /* \"#utility.yul\":944:973   */\n      swap1\n      pop\n        /* \"#utility.yul\":820:979   */\n      swap3\n      swap2\n      pop\n      pop\n      jump\t// out\n        /* \"#utility.yul\":985:1292   */\n    tag_68:\n        /* \"#utility.yul\":1053:1054   */\n      0x00\n        /* \"#utility.yul\":1063:1176   */\n    tag_126:\n        /* \"#utility.yul\":1077:1083   */\n      dup4\n        /* \"#utility.yul\":1074:1075   */\n      dup2\n        /* \"#utility.yul\":1071:1084   */\n      lt\n        /* \"#utility.yul\":1063:1176   */\n      iszero\n      tag_128\n      jumpi\n        /* \"#utility.yul\":1162:1163   */\n      dup1\n        /* \"#utility.yul\":1157:1160   */\n      dup3\n        /* \"#utility.yul\":1153:1164   */\n      add\n        /* \"#utility.yul\":1147:1165   */\n      mload\n        /* \"#utility.yul\":1143:1144   */\n      dup2\n        /* \"#utility.yul\":1138:1141   */\n      dup5\n        /* \"#utility.yul\":1134:1145   */\n      add\n        /* \"#utility.yul\":1127:1166   */\n      mstore\n        /* \"#utility.yul\":1099:1101   */\n      0x20\n        /* \"#utility.yul\":1096:1097   */\n      dup2\n        /* \"#utility.yul\":1092:1102   */\n      add\n        /* \"#utility.yul\":1087:1102   */\n      swap1\n      pop\n        /* \"#utility.yul\":1063:1176   */\n      jump(tag_126)\n    tag_128:\n        /* \"#utility.yul\":1194:1200   */\n      dup4\n        /* \"#utility.yul\":1191:1192   */\n      dup2\n        /* \"#utility.yul\":1188:1201   */\n      gt\n        /* \"#utility.yul\":1185:1286   */\n      iszero\n      tag_129\n      jumpi\n        /* \"#utility.yul\":1274:1275   */\n      0x00\n        /* \"#utility.yul\":1265:1271   */\n      dup5\n        /* \"#utility.yul\":1260:1263   */\n      dup5\n        /* \"#utility.yul\":1256:1272   */\n      add\n        /* \"#utility.yul\":1249:1276   */\n      mstore\n        /* \"#utility.yul\":1185:1286   */\n    tag_129:\n        /* \"#utility.yul\":1034:1292   */\n      pop\n        /* \"#utility.yul\":985:1292   */\n      pop\n      pop\n      pop\n      jump\t// out\n        /* \"#utility.yul\":1298:1400   */\n    tag_69:\n        /* \"#utility.yul\":1339:1345   */\n      0x00\n        /* \"#utility.yul\":1390:1392   */\n      0x1f\n        /* \"#utility.yul\":1386:1393   */\n      not\n        /* \"#utility.yul\":1381:1383   */\n      0x1f\n        /* \"#utility.yul\":1374:1379   */\n      dup4\n        /* \"#utility.yul\":1370:1384   */\n      add\n        /* \"#utility.yul\":1366:1394   */\n      and\n        /* \"#utility.yul\":1356:1394   */\n      swap1\n      pop\n        /* \"#utility.yul\":1298:1400   */\n      swap2\n      swap1\n      pop\n      jump\t// out\n        /* \"#utility.yul\":1406:1750   */\n    tag_70:\n        /* \"#utility.yul\":1484:1487   */\n      0x00\n        /* \"#utility.yul\":1512:1551   */\n      tag_132\n        /* \"#utility.yul\":1545:1550   */\n      dup3\n        /* \"#utility.yul\":1512:1551   */\n      tag_66\n      jump\t// in\n    tag_132:\n        /* \"#utility.yul\":1567:1628   */\n      tag_133\n        /* \"#utility.yul\":1621:1627   */\n      dup2\n        /* \"#utility.yul\":1616:1619   */\n      dup6\n        /* \"#utility.yul\":1567:1628   */\n      tag_67\n      jump\t// in\n    tag_133:\n        /* \"#utility.yul\":1560:1628   */\n      swap4\n      pop\n        /* \"#utility.yul\":1637:1689   */\n      tag_134\n        /* \"#utility.yul\":1682:1688   */\n      dup2\n        /* \"#utility.yul\":1677:1680   */\n      dup6\n        /* \"#utility.yul\":1670:1674   */\n      0x20\n        /* \"#utility.yul\":1663:1668   */\n      dup7\n        /* \"#utility.yul\":1659:1675   */\n      add\n        /* \"#utility.yul\":1637:1689   */\n      tag_68\n      jump\t// in\n    tag_134:\n        /* \"#utility.yul\":1714:1743   */\n      tag_135\n        /* \"#utility.yul\":1736:1742   */\n      dup2\n        /* \"#utility.yul\":1714:1743   */\n      tag_69\n      jump\t// in\n    tag_135:\n        /* \"#utility.yul\":1709:1712   */\n      dup5\n        /* \"#utility.yul\":1705:1744   */\n      add\n        /* \"#utility.yul\":1698:1744   */\n      swap2\n      pop\n        /* \"#utility.yul\":1488:1750   */\n      pop\n        /* \"#utility.yul\":1406:1750   */\n      swap3\n      swap2\n      pop\n      pop\n      jump\t// out\n        /* \"#utility.yul\":1756:1882   */\n    tag_71:\n        /* \"#utility.yul\":1793:1800   */\n      0x00\n        /* \"#utility.yul\":1833:1875   */\n      0xffffffffffffffffffffffffffffffffffffffff\n        /* \"#utility.yul\":1826:1831   */\n      dup3\n        /* \"#utility.yul\":1822:1876   */\n      and\n        /* \"#utility.yul\":1811:1876   */\n      swap1\n      pop\n        /* \"#utility.yul\":1756:1882   */\n      swap2\n      swap1\n      pop\n      jump\t// out\n        /* \"#utility.yul\":1888:1984   */\n    tag_72:\n        /* \"#utility.yul\":1925:1932   */\n      0x00\n        /* \"#utility.yul\":1954:1978   */\n      tag_138\n        /* \"#utility.yul\":1972:1977   */\n      dup3\n        /* \"#utility.yul\":1954:1978   */\n      tag_71\n      jump\t// in\n    tag_138:\n        /* \"#utility.yul\":1943:1978   */\n      swap1\n      pop\n        /* \"#utility.yul\":1888:1984   */\n      swap2\n      swap1\n      pop\n      jump\t// out\n        /* \"#utility.yul\":1990:2098   */\n    tag_73:\n        /* \"#utility.yul\":2067:2091   */\n      tag_140\n        /* \"#utility.yul\":2085:2090   */\n      dup2\n        /* \"#utility.yul\":2067:2091   */\n      tag_72\n      jump\t// in\n    tag_140:\n        /* \"#utility.yul\":2062:2065   */\n      dup3\n        /* \"#utility.yul\":2055:2092   */\n      mstore\n        /* \"#utility.yul\":1990:2098   */\n      pop\n      pop\n      jump\t// out\n        /* \"#utility.yul\":2160:2921   */\n    tag_74:\n        /* \"#utility.yul\":2261:2264   */\n      0x00\n        /* \"#utility.yul\":2297:2301   */\n      0x60\n        /* \"#utility.yul\":2292:2295   */\n      dup4\n        /* \"#utility.yul\":2288:2302   */\n      add\n        /* \"#utility.yul\":2382:2386   */\n      0x00\n        /* \"#utility.yul\":2375:2380   */\n      dup4\n        /* \"#utility.yul\":2371:2387   */\n      add\n        /* \"#utility.yul\":2365:2388   */\n      mload\n        /* \"#utility.yul\":2401:2464   */\n      tag_142\n        /* \"#utility.yul\":2458:2462   */\n      0x00\n        /* \"#utility.yul\":2453:2456   */\n      dup7\n        /* \"#utility.yul\":2449:2463   */\n      add\n        /* \"#utility.yul\":2435:2447   */\n      dup3\n        /* \"#utility.yul\":2401:2464   */\n      tag_65\n      jump\t// in\n    tag_142:\n        /* \"#utility.yul\":2312:2474   */\n      pop\n        /* \"#utility.yul\":2556:2560   */\n      0x20\n        /* \"#utility.yul\":2549:2554   */\n      dup4\n        /* \"#utility.yul\":2545:2561   */\n      add\n        /* \"#utility.yul\":2539:2562   */\n      mload\n        /* \"#utility.yul\":2609:2612   */\n      dup5\n        /* \"#utility.yul\":2603:2607   */\n      dup3\n        /* \"#utility.yul\":2599:2613   */\n      sub\n        /* \"#utility.yul\":2592:2596   */\n      0x20\n        /* \"#utility.yul\":2587:2590   */\n      dup7\n        /* \"#utility.yul\":2583:2597   */\n      add\n        /* \"#utility.yul\":2576:2614   */\n      mstore\n        /* \"#utility.yul\":2635:2708   */\n      tag_143\n        /* \"#utility.yul\":2703:2707   */\n      dup3\n        /* \"#utility.yul\":2689:2701   */\n      dup3\n        /* \"#utility.yul\":2635:2708   */\n      tag_70\n      jump\t// in\n    tag_143:\n        /* \"#utility.yul\":2627:2708   */\n      swap2\n      pop\n        /* \"#utility.yul\":2484:2719   */\n      pop\n        /* \"#utility.yul\":2802:2806   */\n      0x40\n        /* \"#utility.yul\":2795:2800   */\n      dup4\n        /* \"#utility.yul\":2791:2807   */\n      add\n        /* \"#utility.yul\":2785:2808   */\n      mload\n        /* \"#utility.yul\":2821:2884   */\n      tag_144\n        /* \"#utility.yul\":2878:2882   */\n      0x40\n        /* \"#utility.yul\":2873:2876   */\n      dup7\n        /* \"#utility.yul\":2869:2883   */\n      add\n        /* \"#utility.yul\":2855:2867   */\n      dup3\n        /* \"#utility.yul\":2821:2884   */\n      tag_73\n      jump\t// in\n    tag_144:\n        /* \"#utility.yul\":2729:2894   */\n      pop\n        /* \"#utility.yul\":2911:2915   */\n      dup1\n        /* \"#utility.yul\":2904:2915   */\n      swap2\n      pop\n        /* \"#utility.yul\":2266:2921   */\n      pop\n        /* \"#utility.yul\":2160:2921   */\n      swap3\n      swap2\n      pop\n      pop\n      jump\t// out\n        /* \"#utility.yul\":2927:3167   */\n    tag_75:\n        /* \"#utility.yul\":3038:3048   */\n      0x00\n        /* \"#utility.yul\":3073:3161   */\n      tag_146\n        /* \"#utility.yul\":3157:3160   */\n      dup4\n        /* \"#utility.yul\":3149:3155   */\n      dup4\n        /* \"#utility.yul\":3073:3161   */\n      tag_74\n      jump\t// in\n    tag_146:\n        /* \"#utility.yul\":3059:3161   */\n      swap1\n      pop\n        /* \"#utility.yul\":2927:3167   */\n      swap3\n      swap2\n      pop\n      pop\n      jump\t// out\n        /* \"#utility.yul\":3173:3307   */\n    tag_76:\n        /* \"#utility.yul\":3264:3268   */\n      0x00\n        /* \"#utility.yul\":3296:3300   */\n      0x20\n        /* \"#utility.yul\":3291:3294   */\n      dup3\n        /* \"#utility.yul\":3287:3301   */\n      add\n        /* \"#utility.yul\":3279:3301   */\n      swap1\n      pop\n        /* \"#utility.yul\":3173:3307   */\n      swap2\n      swap1\n      pop\n      jump\t// out\n        /* \"#utility.yul\":3373:4452   */\n    tag_77:\n        /* \"#utility.yul\":3534:3537   */\n      0x00\n        /* \"#utility.yul\":3563:3638   */\n      tag_149\n        /* \"#utility.yul\":3632:3637   */\n      dup3\n        /* \"#utility.yul\":3563:3638   */\n      tag_61\n      jump\t// in\n    tag_149:\n        /* \"#utility.yul\":3654:3761   */\n      tag_150\n        /* \"#utility.yul\":3754:3760   */\n      dup2\n        /* \"#utility.yul\":3749:3752   */\n      dup6\n        /* \"#utility.yul\":3654:3761   */\n      tag_62\n      jump\t// in\n    tag_150:\n        /* \"#utility.yul\":3647:3761   */\n      swap4\n      pop\n        /* \"#utility.yul\":3787:3790   */\n      dup4\n        /* \"#utility.yul\":3832:3836   */\n      0x20\n        /* \"#utility.yul\":3824:3830   */\n      dup3\n        /* \"#utility.yul\":3820:3837   */\n      mul\n        /* \"#utility.yul\":3815:3818   */\n      dup6\n        /* \"#utility.yul\":3811:3838   */\n      add\n        /* \"#utility.yul\":3862:3939   */\n      tag_151\n        /* \"#utility.yul\":3933:3938   */\n      dup6\n        /* \"#utility.yul\":3862:3939   */\n      tag_63\n      jump\t// in\n    tag_151:\n        /* \"#utility.yul\":3962:3969   */\n      dup1\n        /* \"#utility.yul\":3993:3994   */\n      0x00\n        /* \"#utility.yul\":3978:4407   */\n    tag_152:\n        /* \"#utility.yul\":4003:4009   */\n      dup6\n        /* \"#utility.yul\":4000:4001   */\n      dup2\n        /* \"#utility.yul\":3997:4010   */\n      lt\n        /* \"#utility.yul\":3978:4407   */\n      iszero\n      tag_154\n      jumpi\n        /* \"#utility.yul\":4074:4083   */\n      dup5\n        /* \"#utility.yul\":4068:4072   */\n      dup5\n        /* \"#utility.yul\":4064:4084   */\n      sub\n        /* \"#utility.yul\":4059:4062   */\n      dup10\n        /* \"#utility.yul\":4052:4085   */\n      mstore\n        /* \"#utility.yul\":4125:4131   */\n      dup2\n        /* \"#utility.yul\":4119:4132   */\n      mload\n        /* \"#utility.yul\":4153:4259   */\n      tag_155\n        /* \"#utility.yul\":4254:4258   */\n      dup6\n        /* \"#utility.yul\":4239:4252   */\n      dup3\n        /* \"#utility.yul\":4153:4259   */\n      tag_75\n      jump\t// in\n    tag_155:\n        /* \"#utility.yul\":4145:4259   */\n      swap5\n      pop\n        /* \"#utility.yul\":4282:4363   */\n      tag_156\n        /* \"#utility.yul\":4356:4362   */\n      dup4\n        /* \"#utility.yul\":4282:4363   */\n      tag_76\n      jump\t// in\n    tag_156:\n        /* \"#utility.yul\":4272:4363   */\n      swap3\n      pop\n        /* \"#utility.yul\":4392:4396   */\n      0x20\n        /* \"#utility.yul\":4387:4390   */\n      dup11\n        /* \"#utility.yul\":4383:4397   */\n      add\n        /* \"#utility.yul\":4376:4397   */\n      swap10\n      pop\n        /* \"#utility.yul\":4038:4407   */\n      pop\n        /* \"#utility.yul\":4025:4026   */\n      0x01\n        /* \"#utility.yul\":4022:4023   */\n      dup2\n        /* \"#utility.yul\":4018:4027   */\n      add\n        /* \"#utility.yul\":4013:4027   */\n      swap1\n      pop\n        /* \"#utility.yul\":3978:4407   */\n      jump(tag_152)\n    tag_154:\n        /* \"#utility.yul\":3982:3996   */\n      pop\n        /* \"#utility.yul\":4423:4427   */\n      dup3\n        /* \"#utility.yul\":4416:4427   */\n      swap8\n      pop\n        /* \"#utility.yul\":4443:4446   */\n      dup8\n        /* \"#utility.yul\":4436:4446   */\n      swap6\n      pop\n        /* \"#utility.yul\":3539:4452   */\n      pop\n      pop\n      pop\n      pop\n      pop\n        /* \"#utility.yul\":3373:4452   */\n      swap3\n      swap2\n      pop\n      pop\n      jump\t// out\n        /* \"#utility.yul\":4458:4915   */\n    tag_10:\n        /* \"#utility.yul\":4643:4647   */\n      0x00\n        /* \"#utility.yul\":4681:4683   */\n      0x20\n        /* \"#utility.yul\":4670:4679   */\n      dup3\n        /* \"#utility.yul\":4666:4684   */\n      add\n        /* \"#utility.yul\":4658:4684   */\n      swap1\n      pop\n        /* \"#utility.yul\":4730:4739   */\n      dup2\n        /* \"#utility.yul\":4724:4728   */\n      dup2\n        /* \"#utility.yul\":4720:4740   */\n      sub\n        /* \"#utility.yul\":4716:4717   */\n      0x00\n        /* \"#utility.yul\":4705:4714   */\n      dup4\n        /* \"#utility.yul\":4701:4718   */\n      add\n        /* \"#utility.yul\":4694:4741   */\n      mstore\n        /* \"#utility.yul\":4758:4908   */\n      tag_158\n        /* \"#utility.yul\":4903:4907   */\n      dup2\n        /* \"#utility.yul\":4894:4900   */\n      dup5\n        /* \"#utility.yul\":4758:4908   */\n      tag_77\n      jump\t// in\n    tag_158:\n        /* \"#utility.yul\":4750:4908   */\n      swap1\n      pop\n        /* \"#utility.yul\":4458:4915   */\n      swap3\n      swap2\n      pop\n      pop\n      jump\t// out\n        /* \"#utility.yul\":4921:4996   */\n    tag_78:\n        /* \"#utility.yul\":4954:4960   */\n      0x00\n        /* \"#utility.yul\":4987:4989   */\n      0x40\n        /* \"#utility.yul\":4981:4990   */\n      mload\n        /* \"#utility.yul\":4971:4990   */\n      swap1\n      pop\n        /* \"#utility.yul\":4921:4996   */\n      swap1\n      jump\t// out\n        /* \"#utility.yul\":5002:5119   */\n    tag_79:\n        /* \"#utility.yul\":5111:5112   */\n      0x00\n        /* \"#utility.yul\":5108:5109   */\n      dup1\n        /* \"#utility.yul\":5101:5113   */\n      revert\n        /* \"#utility.yul\":5125:5242   */\n    tag_80:\n        /* \"#utility.yul\":5234:5235   */\n      0x00\n        /* \"#utility.yul\":5231:5232   */\n      dup1\n        /* \"#utility.yul\":5224:5236   */\n      revert\n        /* \"#utility.yul\":5248:5365   */\n    tag_81:\n        /* \"#utility.yul\":5357:5358   */\n      0x00\n        /* \"#utility.yul\":5354:5355   */\n      dup1\n        /* \"#utility.yul\":5347:5359   */\n      revert\n        /* \"#utility.yul\":5371:5488   */\n    tag_82:\n        /* \"#utility.yul\":5480:5481   */\n      0x00\n        /* \"#utility.yul\":5477:5478   */\n      dup1\n        /* \"#utility.yul\":5470:5482   */\n      revert\n        /* \"#utility.yul\":5494:5674   */\n    tag_83:\n        /* \"#utility.yul\":5542:5619   */\n      0x4e487b7100000000000000000000000000000000000000000000000000000000\n        /* \"#utility.yul\":5539:5540   */\n      0x00\n        /* \"#utility.yul\":5532:5620   */\n      mstore\n        /* \"#utility.yul\":5639:5643   */\n      0x41\n        /* \"#utility.yul\":5636:5637   */\n      0x04\n        /* \"#utility.yul\":5629:5644   */\n      mstore\n        /* \"#utility.yul\":5663:5667   */\n      0x24\n        /* \"#utility.yul\":5660:5661   */\n      0x00\n        /* \"#utility.yul\":5653:5668   */\n      revert\n        /* \"#utility.yul\":5680:5961   */\n    tag_84:\n        /* \"#utility.yul\":5763:5790   */\n      tag_166\n        /* \"#utility.yul\":5785:5789   */\n      dup3\n        /* \"#utility.yul\":5763:5790   */\n      tag_69\n      jump\t// in\n    tag_166:\n        /* \"#utility.yul\":5755:5761   */\n      dup2\n        /* \"#utility.yul\":5751:5791   */\n      add\n        /* \"#utility.yul\":5893:5899   */\n      dup2\n        /* \"#utility.yul\":5881:5891   */\n      dup2\n        /* \"#utility.yul\":5878:5900   */\n      lt\n        /* \"#utility.yul\":5857:5875   */\n      0xffffffffffffffff\n        /* \"#utility.yul\":5845:5855   */\n      dup3\n        /* \"#utility.yul\":5842:5876   */\n      gt\n        /* \"#utility.yul\":5839:5901   */\n      or\n        /* \"#utility.yul\":5836:5924   */\n      iszero\n      tag_167\n      jumpi\n        /* \"#utility.yul\":5904:5922   */\n      tag_168\n      tag_83\n      jump\t// in\n    tag_168:\n        /* \"#utility.yul\":5836:5924   */\n    tag_167:\n        /* \"#utility.yul\":5944:5954   */\n      dup1\n        /* \"#utility.yul\":5940:5942   */\n      0x40\n        /* \"#utility.yul\":5933:5955   */\n      mstore\n        /* \"#utility.yul\":5723:5961   */\n      pop\n        /* \"#utility.yul\":5680:5961   */\n      pop\n      pop\n      jump\t// out\n        /* \"#utility.yul\":5967:6096   */\n    tag_85:\n        /* \"#utility.yul\":6001:6007   */\n      0x00\n        /* \"#utility.yul\":6028:6048   */\n      tag_170\n      tag_78\n      jump\t// in\n    tag_170:\n        /* \"#utility.yul\":6018:6048   */\n      swap1\n      pop\n        /* \"#utility.yul\":6057:6090   */\n      tag_171\n        /* \"#utility.yul\":6085:6089   */\n      dup3\n        /* \"#utility.yul\":6077:6083   */\n      dup3\n        /* \"#utility.yul\":6057:6090   */\n      tag_84\n      jump\t// in\n    tag_171:\n        /* \"#utility.yul\":5967:6096   */\n      swap2\n      swap1\n      pop\n      jump\t// out\n        /* \"#utility.yul\":6102:6410   */\n    tag_86:\n        /* \"#utility.yul\":6164:6168   */\n      0x00\n        /* \"#utility.yul\":6254:6272   */\n      0xffffffffffffffff\n        /* \"#utility.yul\":6246:6252   */\n      dup3\n        /* \"#utility.yul\":6243:6273   */\n      gt\n        /* \"#utility.yul\":6240:6296   */\n      iszero\n      tag_173\n      jumpi\n        /* \"#utility.yul\":6276:6294   */\n      tag_174\n      tag_83\n      jump\t// in\n    tag_174:\n        /* \"#utility.yul\":6240:6296   */\n    tag_173:\n        /* \"#utility.yul\":6314:6343   */\n      tag_175\n        /* \"#utility.yul\":6336:6342   */\n      dup3\n        /* \"#utility.yul\":6314:6343   */\n      tag_69\n      jump\t// in\n    tag_175:\n        /* \"#utility.yul\":6306:6343   */\n      swap1\n      pop\n        /* \"#utility.yul\":6398:6402   */\n      0x20\n        /* \"#utility.yul\":6392:6396   */\n      dup2\n        /* \"#utility.yul\":6388:6403   */\n      add\n        /* \"#utility.yul\":6380:6403   */\n      swap1\n      pop\n        /* \"#utility.yul\":6102:6410   */\n      swap2\n      swap1\n      pop\n      jump\t// out\n        /* \"#utility.yul\":6416:6570   */\n    tag_87:\n        /* \"#utility.yul\":6500:6506   */\n      dup3\n        /* \"#utility.yul\":6495:6498   */\n      dup2\n        /* \"#utility.yul\":6490:6493   */\n      dup4\n        /* \"#utility.yul\":6477:6507   */\n      calldatacopy\n        /* \"#utility.yul\":6562:6563   */\n      0x00\n        /* \"#utility.yul\":6553:6559   */\n      dup4\n        /* \"#utility.yul\":6548:6551   */\n      dup4\n        /* \"#utility.yul\":6544:6560   */\n      add\n        /* \"#utility.yul\":6537:6564   */\n      mstore\n        /* \"#utility.yul\":6416:6570   */\n      pop\n      pop\n      pop\n      jump\t// out\n        /* \"#utility.yul\":6576:6988   */\n    tag_88:\n        /* \"#utility.yul\":6654:6659   */\n      0x00\n        /* \"#utility.yul\":6679:6745   */\n      tag_178\n        /* \"#utility.yul\":6695:6744   */\n      tag_179\n        /* \"#utility.yul\":6737:6743   */\n      dup5\n        /* \"#utility.yul\":6695:6744   */\n      tag_86\n      jump\t// in\n    tag_179:\n        /* \"#utility.yul\":6679:6745   */\n      tag_85\n      jump\t// in\n    tag_178:\n        /* \"#utility.yul\":6670:6745   */\n      swap1\n      pop\n        /* \"#utility.yul\":6768:6774   */\n      dup3\n        /* \"#utility.yul\":6761:6766   */\n      dup2\n        /* \"#utility.yul\":6754:6775   */\n      mstore\n        /* \"#utility.yul\":6806:6810   */\n      0x20\n        /* \"#utility.yul\":6799:6804   */\n      dup2\n        /* \"#utility.yul\":6795:6811   */\n      add\n        /* \"#utility.yul\":6844:6847   */\n      dup5\n        /* \"#utility.yul\":6835:6841   */\n      dup5\n        /* \"#utility.yul\":6830:6833   */\n      dup5\n        /* \"#utility.yul\":6826:6842   */\n      add\n        /* \"#utility.yul\":6823:6848   */\n      gt\n        /* \"#utility.yul\":6820:6932   */\n      iszero\n      tag_180\n      jumpi\n        /* \"#utility.yul\":6851:6930   */\n      tag_181\n      tag_82\n      jump\t// in\n    tag_181:\n        /* \"#utility.yul\":6820:6932   */\n    tag_180:\n        /* \"#utility.yul\":6941:6982   */\n      tag_182\n        /* \"#utility.yul\":6975:6981   */\n      dup5\n        /* \"#utility.yul\":6970:6973   */\n      dup3\n        /* \"#utility.yul\":6965:6968   */\n      dup6\n        /* \"#utility.yul\":6941:6982   */\n      tag_87\n      jump\t// in\n    tag_182:\n        /* \"#utility.yul\":6660:6988   */\n      pop\n        /* \"#utility.yul\":6576:6988   */\n      swap4\n      swap3\n      pop\n      pop\n      pop\n      jump\t// out\n        /* \"#utility.yul\":7008:7348   */\n    tag_89:\n        /* \"#utility.yul\":7064:7069   */\n      0x00\n        /* \"#utility.yul\":7113:7116   */\n      dup3\n        /* \"#utility.yul\":7106:7110   */\n      0x1f\n        /* \"#utility.yul\":7098:7104   */\n      dup4\n        /* \"#utility.yul\":7094:7111   */\n      add\n        /* \"#utility.yul\":7090:7117   */\n      slt\n        /* \"#utility.yul\":7080:7202   */\n      tag_184\n      jumpi\n        /* \"#utility.yul\":7121:7200   */\n      tag_185\n      tag_81\n      jump\t// in\n    tag_185:\n        /* \"#utility.yul\":7080:7202   */\n    tag_184:\n        /* \"#utility.yul\":7238:7244   */\n      dup2\n        /* \"#utility.yul\":7225:7245   */\n      calldataload\n        /* \"#utility.yul\":7263:7342   */\n      tag_186\n        /* \"#utility.yul\":7338:7341   */\n      dup5\n        /* \"#utility.yul\":7330:7336   */\n      dup3\n        /* \"#utility.yul\":7323:7327   */\n      0x20\n        /* \"#utility.yul\":7315:7321   */\n      dup7\n        /* \"#utility.yul\":7311:7328   */\n      add\n        /* \"#utility.yul\":7263:7342   */\n      tag_88\n      jump\t// in\n    tag_186:\n        /* \"#utility.yul\":7254:7342   */\n      swap2\n      pop\n        /* \"#utility.yul\":7070:7348   */\n      pop\n        /* \"#utility.yul\":7008:7348   */\n      swap3\n      swap2\n      pop\n      pop\n      jump\t// out\n        /* \"#utility.yul\":7354:7863   */\n    tag_13:\n        /* \"#utility.yul\":7423:7429   */\n      0x00\n        /* \"#utility.yul\":7472:7474   */\n      0x20\n        /* \"#utility.yul\":7460:7469   */\n      dup3\n        /* \"#utility.yul\":7451:7458   */\n      dup5\n        /* \"#utility.yul\":7447:7470   */\n      sub\n        /* \"#utility.yul\":7443:7475   */\n      slt\n        /* \"#utility.yul\":7440:7559   */\n      iszero\n      tag_188\n      jumpi\n        /* \"#utility.yul\":7478:7557   */\n      tag_189\n      tag_79\n      jump\t// in\n    tag_189:\n        /* \"#utility.yul\":7440:7559   */\n    tag_188:\n        /* \"#utility.yul\":7626:7627   */\n      0x00\n        /* \"#utility.yul\":7615:7624   */\n      dup3\n        /* \"#utility.yul\":7611:7628   */\n      add\n        /* \"#utility.yul\":7598:7629   */\n      calldataload\n        /* \"#utility.yul\":7656:7674   */\n      0xffffffffffffffff\n        /* \"#utility.yul\":7648:7654   */\n      dup2\n        /* \"#utility.yul\":7645:7675   */\n      gt\n        /* \"#utility.yul\":7642:7759   */\n      iszero\n      tag_190\n      jumpi\n        /* \"#utility.yul\":7678:7757   */\n      tag_191\n      tag_80\n      jump\t// in\n    tag_191:\n        /* \"#utility.yul\":7642:7759   */\n    tag_190:\n        /* \"#utility.yul\":7783:7846   */\n      tag_192\n        /* \"#utility.yul\":7838:7845   */\n      dup5\n        /* \"#utility.yul\":7829:7835   */\n      dup3\n        /* \"#utility.yul\":7818:7827   */\n      dup6\n        /* \"#utility.yul\":7814:7836   */\n      add\n        /* \"#utility.yul\":7783:7846   */\n      tag_89\n      jump\t// in\n    tag_192:\n        /* \"#utility.yul\":7773:7846   */\n      swap2\n      pop\n        /* \"#utility.yul\":7569:7856   */\n      pop\n        /* \"#utility.yul\":7354:7863   */\n      swap3\n      swap2\n      pop\n      pop\n      jump\t// out\n        /* \"#utility.yul\":7869:7991   */\n    tag_90:\n        /* \"#utility.yul\":7942:7966   */\n      tag_194\n        /* \"#utility.yul\":7960:7965   */\n      dup2\n        /* \"#utility.yul\":7942:7966   */\n      tag_64\n      jump\t// in\n    tag_194:\n        /* \"#utility.yul\":7935:7940   */\n      dup2\n        /* \"#utility.yul\":7932:7967   */\n      eq\n        /* \"#utility.yul\":7922:7985   */\n      tag_195\n      jumpi\n        /* \"#utility.yul\":7981:7982   */\n      0x00\n        /* \"#utility.yul\":7978:7979   */\n      dup1\n        /* \"#utility.yul\":7971:7983   */\n      revert\n        /* \"#utility.yul\":7922:7985   */\n    tag_195:\n        /* \"#utility.yul\":7869:7991   */\n      pop\n      jump\t// out\n        /* \"#utility.yul\":7997:8136   */\n    tag_91:\n        /* \"#utility.yul\":8043:8048   */\n      0x00\n        /* \"#utility.yul\":8081:8087   */\n      dup2\n        /* \"#utility.yul\":8068:8088   */\n      calldataload\n        /* \"#utility.yul\":8059:8088   */\n      swap1\n      pop\n        /* \"#utility.yul\":8097:8130   */\n      tag_197\n        /* \"#utility.yul\":8124:8129   */\n      dup2\n        /* \"#utility.yul\":8097:8130   */\n      tag_90\n      jump\t// in\n    tag_197:\n        /* \"#utility.yul\":7997:8136   */\n      swap3\n      swap2\n      pop\n      pop\n      jump\t// out\n        /* \"#utility.yul\":8142:8471   */\n    tag_17:\n        /* \"#utility.yul\":8201:8207   */\n      0x00\n        /* \"#utility.yul\":8250:8252   */\n      0x20\n        /* \"#utility.yul\":8238:8247   */\n      dup3\n        /* \"#utility.yul\":8229:8236   */\n      dup5\n        /* \"#utility.yul\":8225:8248   */\n      sub\n        /* \"#utility.yul\":8221:8253   */\n      slt\n        /* \"#utility.yul\":8218:8337   */\n      iszero\n      tag_199\n      jumpi\n        /* \"#utility.yul\":8256:8335   */\n      tag_200\n      tag_79\n      jump\t// in\n    tag_200:\n        /* \"#utility.yul\":8218:8337   */\n    tag_199:\n        /* \"#utility.yul\":8376:8377   */\n      0x00\n        /* \"#utility.yul\":8401:8454   */\n      tag_201\n        /* \"#utility.yul\":8446:8453   */\n      dup5\n        /* \"#utility.yul\":8437:8443   */\n      dup3\n        /* \"#utility.yul\":8426:8435   */\n      dup6\n        /* \"#utility.yul\":8422:8444   */\n      add\n        /* \"#utility.yul\":8401:8454   */\n      tag_91\n      jump\t// in\n    tag_201:\n        /* \"#utility.yul\":8391:8454   */\n      swap2\n      pop\n        /* \"#utility.yul\":8347:8464   */\n      pop\n        /* \"#utility.yul\":8142:8471   */\n      swap3\n      swap2\n      pop\n      pop\n      jump\t// out\n        /* \"#utility.yul\":8477:8595   */\n    tag_92:\n        /* \"#utility.yul\":8564:8588   */\n      tag_203\n        /* \"#utility.yul\":8582:8587   */\n      dup2\n        /* \"#utility.yul\":8564:8588   */\n      tag_64\n      jump\t// in\n    tag_203:\n        /* \"#utility.yul\":8559:8562   */\n      dup3\n        /* \"#utility.yul\":8552:8589   */\n      mstore\n        /* \"#utility.yul\":8477:8595   */\n      pop\n      pop\n      jump\t// out\n        /* \"#utility.yul\":8601:8770   */\n    tag_93:\n        /* \"#utility.yul\":8685:8696   */\n      0x00\n        /* \"#utility.yul\":8719:8725   */\n      dup3\n        /* \"#utility.yul\":8714:8717   */\n      dup3\n        /* \"#utility.yul\":8707:8726   */\n      mstore\n        /* \"#utility.yul\":8759:8763   */\n      0x20\n        /* \"#utility.yul\":8754:8757   */\n      dup3\n        /* \"#utility.yul\":8750:8764   */\n      add\n        /* \"#utility.yul\":8735:8764   */\n      swap1\n      pop\n        /* \"#utility.yul\":8601:8770   */\n      swap3\n      swap2\n      pop\n      pop\n      jump\t// out\n        /* \"#utility.yul\":8776:9140   */\n    tag_94:\n        /* \"#utility.yul\":8864:8867   */\n      0x00\n        /* \"#utility.yul\":8892:8931   */\n      tag_206\n        /* \"#utility.yul\":8925:8930   */\n      dup3\n        /* \"#utility.yul\":8892:8931   */\n      tag_66\n      jump\t// in\n    tag_206:\n        /* \"#utility.yul\":8947:9018   */\n      tag_207\n        /* \"#utility.yul\":9011:9017   */\n      dup2\n        /* \"#utility.yul\":9006:9009   */\n      dup6\n        /* \"#utility.yul\":8947:9018   */\n      tag_93\n      jump\t// in\n    tag_207:\n        /* \"#utility.yul\":8940:9018   */\n      swap4\n      pop\n        /* \"#utility.yul\":9027:9079   */\n      tag_208\n        /* \"#utility.yul\":9072:9078   */\n      dup2\n        /* \"#utility.yul\":9067:9070   */\n      dup6\n        /* \"#utility.yul\":9060:9064   */\n      0x20\n        /* \"#utility.yul\":9053:9058   */\n      dup7\n        /* \"#utility.yul\":9049:9065   */\n      add\n        /* \"#utility.yul\":9027:9079   */\n      tag_68\n      jump\t// in\n    tag_208:\n        /* \"#utility.yul\":9104:9133   */\n      tag_209\n        /* \"#utility.yul\":9126:9132   */\n      dup2\n        /* \"#utility.yul\":9104:9133   */\n      tag_69\n      jump\t// in\n    tag_209:\n        /* \"#utility.yul\":9099:9102   */\n      dup5\n        /* \"#utility.yul\":9095:9134   */\n      add\n        /* \"#utility.yul\":9088:9134   */\n      swap2\n      pop\n        /* \"#utility.yul\":8868:9140   */\n      pop\n        /* \"#utility.yul\":8776:9140   */\n      swap3\n      swap2\n      pop\n      pop\n      jump\t// out\n        /* \"#utility.yul\":9146:9264   */\n    tag_95:\n        /* \"#utility.yul\":9233:9257   */\n      tag_211\n        /* \"#utility.yul\":9251:9256   */\n      dup2\n        /* \"#utility.yul\":9233:9257   */\n      tag_72\n      jump\t// in\n    tag_211:\n        /* \"#utility.yul\":9228:9231   */\n      dup3\n        /* \"#utility.yul\":9221:9258   */\n      mstore\n        /* \"#utility.yul\":9146:9264   */\n      pop\n      pop\n      jump\t// out\n        /* \"#utility.yul\":9270:9803   */\n    tag_20:\n        /* \"#utility.yul\":9439:9443   */\n      0x00\n        /* \"#utility.yul\":9477:9479   */\n      0x60\n        /* \"#utility.yul\":9466:9475   */\n      dup3\n        /* \"#utility.yul\":9462:9480   */\n      add\n        /* \"#utility.yul\":9454:9480   */\n      swap1\n      pop\n        /* \"#utility.yul\":9490:9561   */\n      tag_213\n        /* \"#utility.yul\":9558:9559   */\n      0x00\n        /* \"#utility.yul\":9547:9556   */\n      dup4\n        /* \"#utility.yul\":9543:9560   */\n      add\n        /* \"#utility.yul\":9534:9540   */\n      dup7\n        /* \"#utility.yul\":9490:9561   */\n      tag_92\n      jump\t// in\n    tag_213:\n        /* \"#utility.yul\":9608:9617   */\n      dup2\n        /* \"#utility.yul\":9602:9606   */\n      dup2\n        /* \"#utility.yul\":9598:9618   */\n      sub\n        /* \"#utility.yul\":9593:9595   */\n      0x20\n        /* \"#utility.yul\":9582:9591   */\n      dup4\n        /* \"#utility.yul\":9578:9596   */\n      add\n        /* \"#utility.yul\":9571:9619   */\n      mstore\n        /* \"#utility.yul\":9636:9714   */\n      tag_214\n        /* \"#utility.yul\":9709:9713   */\n      dup2\n        /* \"#utility.yul\":9700:9706   */\n      dup6\n        /* \"#utility.yul\":9636:9714   */\n      tag_94\n      jump\t// in\n    tag_214:\n        /* \"#utility.yul\":9628:9714   */\n      swap1\n      pop\n        /* \"#utility.yul\":9724:9796   */\n      tag_215\n        /* \"#utility.yul\":9792:9794   */\n      0x40\n        /* \"#utility.yul\":9781:9790   */\n      dup4\n        /* \"#utility.yul\":9777:9795   */\n      add\n        /* \"#utility.yul\":9768:9774   */\n      dup5\n        /* \"#utility.yul\":9724:9796   */\n      tag_95\n      jump\t// in\n    tag_215:\n        /* \"#utility.yul\":9270:9803   */\n      swap5\n      swap4\n      pop\n      pop\n      pop\n      pop\n      jump\t// out\n        /* \"#utility.yul\":9809:9989   */\n    tag_96:\n        /* \"#utility.yul\":9857:9934   */\n      0x4e487b7100000000000000000000000000000000000000000000000000000000\n        /* \"#utility.yul\":9854:9855   */\n      0x00\n        /* \"#utility.yul\":9847:9935   */\n      mstore\n        /* \"#utility.yul\":9954:9958   */\n      0x22\n        /* \"#utility.yul\":9951:9952   */\n      0x04\n        /* \"#utility.yul\":9944:9959   */\n      mstore\n        /* \"#utility.yul\":9978:9982   */\n      0x24\n        /* \"#utility.yul\":9975:9976   */\n      0x00\n        /* \"#utility.yul\":9968:9983   */\n      revert\n        /* \"#utility.yul\":9995:10315   */\n    tag_29:\n        /* \"#utility.yul\":10039:10045   */\n      0x00\n        /* \"#utility.yul\":10076:10077   */\n      0x02\n        /* \"#utility.yul\":10070:10074   */\n      dup3\n        /* \"#utility.yul\":10066:10078   */\n      div\n        /* \"#utility.yul\":10056:10078   */\n      swap1\n      pop\n        /* \"#utility.yul\":10123:10124   */\n      0x01\n        /* \"#utility.yul\":10117:10121   */\n      dup3\n        /* \"#utility.yul\":10113:10125   */\n      and\n        /* \"#utility.yul\":10144:10162   */\n      dup1\n        /* \"#utility.yul\":10134:10215   */\n      tag_218\n      jumpi\n        /* \"#utility.yul\":10200:10204   */\n      0x7f\n        /* \"#utility.yul\":10192:10198   */\n      dup3\n        /* \"#utility.yul\":10188:10205   */\n      and\n        /* \"#utility.yul\":10178:10205   */\n      swap2\n      pop\n        /* \"#utility.yul\":10134:10215   */\n    tag_218:\n        /* \"#utility.yul\":10262:10264   */\n      0x20\n        /* \"#utility.yul\":10254:10260   */\n      dup3\n        /* \"#utility.yul\":10251:10265   */\n      lt\n        /* \"#utility.yul\":10231:10249   */\n      dup2\n        /* \"#utility.yul\":10228:10266   */\n      sub\n        /* \"#utility.yul\":10225:10309   */\n      tag_219\n      jumpi\n        /* \"#utility.yul\":10281:10299   */\n      tag_220\n      tag_96\n      jump\t// in\n    tag_220:\n        /* \"#utility.yul\":10225:10309   */\n    tag_219:\n        /* \"#utility.yul\":10046:10315   */\n      pop\n        /* \"#utility.yul\":9995:10315   */\n      swap2\n      swap1\n      pop\n      jump\t// out\n        /* \"#utility.yul\":10321:10488   */\n    tag_97:\n        /* \"#utility.yul\":10461:10480   */\n      0x596f7520417265204e6f74204f776e6572000000000000000000000000000000\n        /* \"#utility.yul\":10457:10458   */\n      0x00\n        /* \"#utility.yul\":10449:10455   */\n      dup3\n        /* \"#utility.yul\":10445:10459   */\n      add\n        /* \"#utility.yul\":10438:10481   */\n      mstore\n        /* \"#utility.yul\":10321:10488   */\n      pop\n      jump\t// out\n        /* \"#utility.yul\":10494:10860   */\n    tag_98:\n        /* \"#utility.yul\":10636:10639   */\n      0x00\n        /* \"#utility.yul\":10657:10724   */\n      tag_223\n        /* \"#utility.yul\":10721:10723   */\n      0x11\n        /* \"#utility.yul\":10716:10719   */\n      dup4\n        /* \"#utility.yul\":10657:10724   */\n      tag_93\n      jump\t// in\n    tag_223:\n        /* \"#utility.yul\":10650:10724   */\n      swap2\n      pop\n        /* \"#utility.yul\":10733:10826   */\n      tag_224\n        /* \"#utility.yul\":10822:10825   */\n      dup3\n        /* \"#utility.yul\":10733:10826   */\n      tag_97\n      jump\t// in\n    tag_224:\n        /* \"#utility.yul\":10851:10853   */\n      0x20\n        /* \"#utility.yul\":10846:10849   */\n      dup3\n        /* \"#utility.yul\":10842:10854   */\n      add\n        /* \"#utility.yul\":10835:10854   */\n      swap1\n      pop\n        /* \"#utility.yul\":10494:10860   */\n      swap2\n      swap1\n      pop\n      jump\t// out\n        /* \"#utility.yul\":10866:11285   */\n    tag_37:\n        /* \"#utility.yul\":11032:11036   */\n      0x00\n        /* \"#utility.yul\":11070:11072   */\n      0x20\n        /* \"#utility.yul\":11059:11068   */\n      dup3\n        /* \"#utility.yul\":11055:11073   */\n      add\n        /* \"#utility.yul\":11047:11073   */\n      swap1\n      pop\n        /* \"#utility.yul\":11119:11128   */\n      dup2\n        /* \"#utility.yul\":11113:11117   */\n      dup2\n        /* \"#utility.yul\":11109:11129   */\n      sub\n        /* \"#utility.yul\":11105:11106   */\n      0x00\n        /* \"#utility.yul\":11094:11103   */\n      dup4\n        /* \"#utility.yul\":11090:11107   */\n      add\n        /* \"#utility.yul\":11083:11130   */\n      mstore\n        /* \"#utility.yul\":11147:11278   */\n      tag_226\n        /* \"#utility.yul\":11273:11277   */\n      dup2\n        /* \"#utility.yul\":11147:11278   */\n      tag_98\n      jump\t// in\n    tag_226:\n        /* \"#utility.yul\":11139:11278   */\n      swap1\n      pop\n        /* \"#utility.yul\":10866:11285   */\n      swap2\n      swap1\n      pop\n      jump\t// out\n        /* \"#utility.yul\":11291:11432   */\n    tag_99:\n        /* \"#utility.yul\":11340:11344   */\n      0x00\n        /* \"#utility.yul\":11363:11366   */\n      dup2\n        /* \"#utility.yul\":11355:11366   */\n      swap1\n      pop\n        /* \"#utility.yul\":11386:11389   */\n      dup2\n        /* \"#utility.yul\":11383:11384   */\n      0x00\n        /* \"#utility.yul\":11376:11390   */\n      mstore\n        /* \"#utility.yul\":11420:11424   */\n      0x20\n        /* \"#utility.yul\":11417:11418   */\n      0x00\n        /* \"#utility.yul\":11407:11425   */\n      keccak256\n        /* \"#utility.yul\":11399:11425   */\n      swap1\n      pop\n        /* \"#utility.yul\":11291:11432   */\n      swap2\n      swap1\n      pop\n      jump\t// out\n        /* \"#utility.yul\":11438:11531   */\n    tag_100:\n        /* \"#utility.yul\":11475:11481   */\n      0x00\n        /* \"#utility.yul\":11522:11524   */\n      0x20\n        /* \"#utility.yul\":11517:11519   */\n      0x1f\n        /* \"#utility.yul\":11510:11515   */\n      dup4\n        /* \"#utility.yul\":11506:11520   */\n      add\n        /* \"#utility.yul\":11502:11525   */\n      div\n        /* \"#utility.yul\":11492:11525   */\n      swap1\n      pop\n        /* \"#utility.yul\":11438:11531   */\n      swap2\n      swap1\n      pop\n      jump\t// out\n        /* \"#utility.yul\":11537:11644   */\n    tag_101:\n        /* \"#utility.yul\":11581:11589   */\n      0x00\n        /* \"#utility.yul\":11631:11636   */\n      dup3\n        /* \"#utility.yul\":11625:11629   */\n      dup3\n        /* \"#utility.yul\":11621:11637   */\n      shl\n        /* \"#utility.yul\":11600:11637   */\n      swap1\n      pop\n        /* \"#utility.yul\":11537:11644   */\n      swap3\n      swap2\n      pop\n      pop\n      jump\t// out\n        /* \"#utility.yul\":11650:12043   */\n    tag_102:\n        /* \"#utility.yul\":11719:11725   */\n      0x00\n        /* \"#utility.yul\":11769:11770   */\n      0x08\n        /* \"#utility.yul\":11757:11767   */\n      dup4\n        /* \"#utility.yul\":11753:11771   */\n      mul\n        /* \"#utility.yul\":11792:11889   */\n      tag_231\n        /* \"#utility.yul\":11822:11888   */\n      0xffffffffffffffffffffffffffffffffffffffffffffffffffffffffffffffff\n        /* \"#utility.yul\":11811:11820   */\n      dup3\n        /* \"#utility.yul\":11792:11889   */\n      tag_101\n      jump\t// in\n    tag_231:\n        /* \"#utility.yul\":11910:11949   */\n      tag_232\n        /* \"#utility.yul\":11940:11948   */\n      dup7\n        /* \"#utility.yul\":11929:11938   */\n      dup4\n        /* \"#utility.yul\":11910:11949   */\n      tag_101\n      jump\t// in\n    tag_232:\n        /* \"#utility.yul\":11898:11949   */\n      swap6\n      pop\n        /* \"#utility.yul\":11982:11986   */\n      dup1\n        /* \"#utility.yul\":11978:11987   */\n      not\n        /* \"#utility.yul\":11971:11976   */\n      dup5\n        /* \"#utility.yul\":11967:11988   */\n      and\n        /* \"#utility.yul\":11958:11988   */\n      swap4\n      pop\n        /* \"#utility.yul\":12031:12035   */\n      dup1\n        /* \"#utility.yul\":12021:12029   */\n      dup7\n        /* \"#utility.yul\":12017:12036   */\n      and\n        /* \"#utility.yul\":12010:12015   */\n      dup5\n        /* \"#utility.yul\":12007:12037   */\n      or\n        /* \"#utility.yul\":11997:12037   */\n      swap3\n      pop\n        /* \"#utility.yul\":11726:12043   */\n      pop\n      pop\n        /* \"#utility.yul\":11650:12043   */\n      swap4\n      swap3\n      pop\n      pop\n      pop\n      jump\t// out\n        /* \"#utility.yul\":12049:12109   */\n    tag_103:\n        /* \"#utility.yul\":12077:12080   */\n      0x00\n        /* \"#utility.yul\":12098:12103   */\n      dup2\n        /* \"#utility.yul\":12091:12103   */\n      swap1\n      pop\n        /* \"#utility.yul\":12049:12109   */\n      swap2\n      swap1\n      pop\n      jump\t// out\n        /* \"#utility.yul\":12115:12257   */\n    tag_104:\n        /* \"#utility.yul\":12165:12174   */\n      0x00\n        /* \"#utility.yul\":12198:12251   */\n      tag_235\n        /* \"#utility.yul\":12216:12250   */\n      tag_236\n        /* \"#utility.yul\":12225:12249   */\n      tag_237\n        /* \"#utility.yul\":12243:12248   */\n      dup5\n        /* \"#utility.yul\":12225:12249   */\n      tag_64\n      jump\t// in\n    tag_237:\n        /* \"#utility.yul\":12216:12250   */\n      tag_103\n      jump\t// in\n    tag_236:\n        /* \"#utility.yul\":12198:12251   */\n      tag_64\n      jump\t// in\n    tag_235:\n        /* \"#utility.yul\":12185:12251   */\n      swap1\n      pop\n        /* \"#utility.yul\":12115:12257   */\n      swap2\n      swap1\n      pop\n      jump\t// out\n        /* \"#utility.yul\":12263:12338   */\n    tag_105:\n        /* \"#utility.yul\":12306:12309   */\n      0x00\n        /* \"#utility.yul\":12327:12332   */\n      dup2\n        /* \"#utility.yul\":12320:12332   */\n      swap1\n      pop\n        /* \"#utility.yul\":12263:12338   */\n      swap2\n      swap1\n      pop\n      jump\t// out\n        /* \"#utility.yul\":12344:12613   */\n    tag_106:\n        /* \"#utility.yul\":12454:12493   */\n      tag_240\n        /* \"#utility.yul\":12485:12492   */\n      dup4\n        /* \"#utility.yul\":12454:12493   */\n      tag_104\n      jump\t// in\n    tag_240:\n        /* \"#utility.yul\":12515:12606   */\n      tag_241\n        /* \"#utility.yul\":12564:12605   */\n      tag_242\n        /* \"#utility.yul\":12588:12604   */\n      dup3\n        /* \"#utility.yul\":12564:12605   */\n      tag_105\n      jump\t// in\n    tag_242:\n        /* \"#utility.yul\":12556:12562   */\n      dup5\n        /* \"#utility.yul\":12549:12553   */\n      dup5\n        /* \"#utility.yul\":12543:12554   */\n      sload\n        /* \"#utility.yul\":12515:12606   */\n      tag_102\n      jump\t// in\n    tag_241:\n        /* \"#utility.yul\":12509:12513   */\n      dup3\n        /* \"#utility.yul\":12502:12607   */\n      sstore\n        /* \"#utility.yul\":12420:12613   */\n      pop\n        /* \"#utility.yul\":12344:12613   */\n      pop\n      pop\n      pop\n      jump\t// out\n        /* \"#utility.yul\":12619:12692   */\n    tag_107:\n        /* \"#utility.yul\":12664:12667   */\n      0x00\n        /* \"#utility.yul\":12619:12692   */\n      swap1\n      jump\t// out\n        /* \"#utility.yul\":12698:12887   */\n    tag_108:\n        /* \"#utility.yul\":12775:12807   */\n      tag_245\n      tag_107\n      jump\t// in\n    tag_245:\n        /* \"#utility.yul\":12816:12881   */\n      tag_246\n        /* \"#utility.yul\":12874:12880   */\n      dup2\n        /* \"#utility.yul\":12866:12872   */\n      dup5\n        /* \"#utility.yul\":12860:12864   */\n      dup5\n        /* \"#utility.yul\":12816:12881   */\n      tag_106\n      jump\t// in\n    tag_246:\n        /* \"#utility.yul\":12751:12887   */\n      pop\n        /* \"#utility.yul\":12698:12887   */\n      pop\n      pop\n      jump\t// out\n        /* \"#utility.yul\":12893:13079   */\n    tag_109:\n        /* \"#utility.yul\":12953:13073   */\n    tag_248:\n        /* \"#utility.yul\":12970:12973   */\n      dup2\n        /* \"#utility.yul\":12963:12968   */\n      dup2\n        /* \"#utility.yul\":12960:12974   */\n      lt\n        /* \"#utility.yul\":12953:13073   */\n      iszero\n      tag_250\n      jumpi\n        /* \"#utility.yul\":13024:13063   */\n      tag_251\n        /* \"#utility.yul\":13061:13062   */\n      0x00\n        /* \"#utility.yul\":13054:13059   */\n      dup3\n        /* \"#utility.yul\":13024:13063   */\n      tag_108\n      jump\t// in\n    tag_251:\n        /* \"#utility.yul\":12997:12998   */\n      0x01\n        /* \"#utility.yul\":12990:12995   */\n      dup2\n        /* \"#utility.yul\":12986:12999   */\n      add\n        /* \"#utility.yul\":12977:12999   */\n      swap1\n      pop\n        /* \"#utility.yul\":12953:13073   */\n      jump(tag_248)\n    tag_250:\n        /* \"#utility.yul\":12893:13079   */\n      pop\n      pop\n      jump\t// out\n        /* \"#utility.yul\":13085:13628   */\n    tag_110:\n        /* \"#utility.yul\":13186:13188   */\n      0x1f\n        /* \"#utility.yul\":13181:13184   */\n      dup3\n        /* \"#utility.yul\":13178:13189   */\n      gt\n        /* \"#utility.yul\":13175:13621   */\n      iszero\n      tag_253\n      jumpi\n        /* \"#utility.yul\":13220:13258   */\n      tag_254\n        /* \"#utility.yul\":13252:13257   */\n      dup2\n        /* \"#utility.yul\":13220:13258   */\n      tag_99\n      jump\t// in\n    tag_254:\n        /* \"#utility.yul\":13304:13333   */\n      tag_255\n        /* \"#utility.yul\":13322:13332   */\n      dup5\n        /* \"#utility.yul\":13304:13333   */\n      tag_100\n      jump\t// in\n    tag_255:\n        /* \"#utility.yul\":13294:13302   */\n      dup2\n        /* \"#utility.yul\":13290:13334   */\n      add\n        /* \"#utility.yul\":13487:13489   */\n      0x20\n        /* \"#utility.yul\":13475:13485   */\n      dup6\n        /* \"#utility.yul\":13472:13490   */\n      lt\n        /* \"#utility.yul\":13469:13518   */\n      iszero\n      tag_256\n      jumpi\n        /* \"#utility.yul\":13508:13516   */\n      dup2\n        /* \"#utility.yul\":13493:13516   */\n      swap1\n      pop\n        /* \"#utility.yul\":13469:13518   */\n    tag_256:\n        /* \"#utility.yul\":13531:13611   */\n      tag_257\n        /* \"#utility.yul\":13587:13609   */\n      tag_258\n        /* \"#utility.yul\":13605:13608   */\n      dup6\n        /* \"#utility.yul\":13587:13609   */\n      tag_100\n      jump\t// in\n    tag_258:\n        /* \"#utility.yul\":13577:13585   */\n      dup4\n        /* \"#utility.yul\":13573:13610   */\n      add\n        /* \"#utility.yul\":13560:13571   */\n      dup3\n        /* \"#utility.yul\":13531:13611   */\n      tag_109\n      jump\t// in\n    tag_257:\n        /* \"#utility.yul\":13190:13621   */\n      pop\n      pop\n        /* \"#utility.yul\":13175:13621   */\n    tag_253:\n        /* \"#utility.yul\":13085:13628   */\n      pop\n      pop\n      pop\n      jump\t// out\n        /* \"#utility.yul\":13634:13751   */\n    tag_111:\n        /* \"#utility.yul\":13688:13696   */\n      0x00\n        /* \"#utility.yul\":13738:13743   */\n      dup3\n        /* \"#utility.yul\":13732:13736   */\n      dup3\n        /* \"#utility.yul\":13728:13744   */\n      shr\n        /* \"#utility.yul\":13707:13744   */\n      swap1\n      pop\n        /* \"#utility.yul\":13634:13751   */\n      swap3\n      swap2\n      pop\n      pop\n      jump\t// out\n        /* \"#utility.yul\":13757:13926   */\n    tag_112:\n        /* \"#utility.yul\":13801:13807   */\n      0x00\n        /* \"#utility.yul\":13834:13885   */\n      tag_261\n        /* \"#utility.yul\":13882:13883   */\n      0x00\n        /* \"#utility.yul\":13878:13884   */\n      not\n        /* \"#utility.yul\":13870:13875   */\n      dup5\n        /* \"#utility.yul\":13867:13868   */\n      0x08\n        /* \"#utility.yul\":13863:13876   */\n      mul\n        /* \"#utility.yul\":13834:13885   */\n      tag_111\n      jump\t// in\n    tag_261:\n        /* \"#utility.yul\":13830:13886   */\n      not\n        /* \"#utility.yul\":13915:13919   */\n      dup1\n        /* \"#utility.yul\":13909:13913   */\n      dup4\n        /* \"#utility.yul\":13905:13920   */\n      and\n        /* \"#utility.yul\":13895:13920   */\n      swap2\n      pop\n        /* \"#utility.yul\":13808:13926   */\n      pop\n        /* \"#utility.yul\":13757:13926   */\n      swap3\n      swap2\n      pop\n      pop\n      jump\t// out\n        /* \"#utility.yul\":13931:14226   */\n    tag_113:\n        /* \"#utility.yul\":14007:14011   */\n      0x00\n        /* \"#utility.yul\":14153:14182   */\n      tag_263\n        /* \"#utility.yul\":14178:14181   */\n      dup4\n        /* \"#utility.yul\":14172:14176   */\n      dup4\n        /* \"#utility.yul\":14153:14182   */\n      tag_112\n      jump\t// in\n    tag_263:\n        /* \"#utility.yul\":14145:14182   */\n      swap2\n      pop\n        /* \"#utility.yul\":14215:14218   */\n      dup3\n        /* \"#utility.yul\":14212:14213   */\n      0x02\n        /* \"#utility.yul\":14208:14219   */\n      mul\n        /* \"#utility.yul\":14202:14206   */\n      dup3\n        /* \"#utility.yul\":14199:14220   */\n      or\n        /* \"#utility.yul\":14191:14220   */\n      swap1\n      pop\n        /* \"#utility.yul\":13931:14226   */\n      swap3\n      swap2\n      pop\n      pop\n      jump\t// out\n        /* \"#utility.yul\":14231:15626   */\n    tag_41:\n        /* \"#utility.yul\":14348:14385   */\n      tag_265\n        /* \"#utility.yul\":14381:14384   */\n      dup3\n        /* \"#utility.yul\":14348:14385   */\n      tag_66\n      jump\t// in\n    tag_265:\n        /* \"#utility.yul\":14450:14468   */\n      0xffffffffffffffff\n        /* \"#utility.yul\":14442:14448   */\n      dup2\n        /* \"#utility.yul\":14439:14469   */\n      gt\n        /* \"#utility.yul\":14436:14492   */\n      iszero\n      tag_266\n      jumpi\n        /* \"#utility.yul\":14472:14490   */\n      tag_267\n      tag_83\n      jump\t// in\n    tag_267:\n        /* \"#utility.yul\":14436:14492   */\n    tag_266:\n        /* \"#utility.yul\":14516:14554   */\n      tag_268\n        /* \"#utility.yul\":14548:14552   */\n      dup3\n        /* \"#utility.yul\":14542:14553   */\n      sload\n        /* \"#utility.yul\":14516:14554   */\n      tag_29\n      jump\t// in\n    tag_268:\n        /* \"#utility.yul\":14601:14668   */\n      tag_269\n        /* \"#utility.yul\":14661:14667   */\n      dup3\n        /* \"#utility.yul\":14653:14659   */\n      dup3\n        /* \"#utility.yul\":14647:14651   */\n      dup6\n        /* \"#utility.yul\":14601:14668   */\n      tag_110\n      jump\t// in\n    tag_269:\n        /* \"#utility.yul\":14695:14696   */\n      0x00\n        /* \"#utility.yul\":14719:14723   */\n      0x20\n        /* \"#utility.yul\":14706:14723   */\n      swap1\n      pop\n        /* \"#utility.yul\":14751:14753   */\n      0x1f\n        /* \"#utility.yul\":14743:14749   */\n      dup4\n        /* \"#utility.yul\":14740:14754   */\n      gt\n        /* \"#utility.yul\":14768:14769   */\n      0x01\n        /* \"#utility.yul\":14763:15381   */\n      dup2\n      eq\n      tag_271\n      jumpi\n        /* \"#utility.yul\":15425:15426   */\n      0x00\n        /* \"#utility.yul\":15442:15448   */\n      dup5\n        /* \"#utility.yul\":15439:15516   */\n      iszero\n      tag_272\n      jumpi\n        /* \"#utility.yul\":15491:15500   */\n      dup3\n        /* \"#utility.yul\":15486:15489   */\n      dup8\n        /* \"#utility.yul\":15482:15501   */\n      add\n        /* \"#utility.yul\":15476:15502   */\n      mload\n        /* \"#utility.yul\":15467:15502   */\n      swap1\n      pop\n        /* \"#utility.yul\":15439:15516   */\n    tag_272:\n        /* \"#utility.yul\":15542:15609   */\n      tag_273\n        /* \"#utility.yul\":15602:15608   */\n      dup6\n        /* \"#utility.yul\":15595:15600   */\n      dup3\n        /* \"#utility.yul\":15542:15609   */\n      tag_113\n      jump\t// in\n    tag_273:\n        /* \"#utility.yul\":15536:15540   */\n      dup7\n        /* \"#utility.yul\":15529:15610   */\n      sstore\n        /* \"#utility.yul\":15398:15620   */\n      pop\n        /* \"#utility.yul\":14733:15620   */\n      jump(tag_270)\n        /* \"#utility.yul\":14763:15381   */\n    tag_271:\n        /* \"#utility.yul\":14815:14819   */\n      0x1f\n        /* \"#utility.yul\":14811:14820   */\n      not\n        /* \"#utility.yul\":14803:14809   */\n      dup5\n        /* \"#utility.yul\":14799:14821   */\n      and\n        /* \"#utility.yul\":14849:14886   */\n      tag_274\n        /* \"#utility.yul\":14881:14885   */\n      dup7\n        /* \"#utility.yul\":14849:14886   */\n      tag_99\n      jump\t// in\n    tag_274:\n        /* \"#utility.yul\":14908:14909   */\n      0x00\n        /* \"#utility.yul\":14922:15130   */\n    tag_275:\n        /* \"#utility.yul\":14936:14943   */\n      dup3\n        /* \"#utility.yul\":14933:14934   */\n      dup2\n        /* \"#utility.yul\":14930:14944   */\n      lt\n        /* \"#utility.yul\":14922:15130   */\n      iszero\n      tag_277\n      jumpi\n        /* \"#utility.yul\":15015:15024   */\n      dup5\n        /* \"#utility.yul\":15010:15013   */\n      dup10\n        /* \"#utility.yul\":15006:15025   */\n      add\n        /* \"#utility.yul\":15000:15026   */\n      mload\n        /* \"#utility.yul\":14992:14998   */\n      dup3\n        /* \"#utility.yul\":14985:15027   */\n      sstore\n        /* \"#utility.yul\":15066:15067   */\n      0x01\n        /* \"#utility.yul\":15058:15064   */\n      dup3\n        /* \"#utility.yul\":15054:15068   */\n      add\n        /* \"#utility.yul\":15044:15068   */\n      swap2\n      pop\n        /* \"#utility.yul\":15113:15115   */\n      0x20\n        /* \"#utility.yul\":15102:15111   */\n      dup6\n        /* \"#utility.yul\":15098:15116   */\n      add\n        /* \"#utility.yul\":15085:15116   */\n      swap5\n      pop\n        /* \"#utility.yul\":14959:14963   */\n      0x20\n        /* \"#utility.yul\":14956:14957   */\n      dup2\n        /* \"#utility.yul\":14952:14964   */\n      add\n        /* \"#utility.yul\":14947:14964   */\n      swap1\n      pop\n        /* \"#utility.yul\":14922:15130   */\n      jump(tag_275)\n    tag_277:\n        /* \"#utility.yul\":15158:15164   */\n      dup7\n        /* \"#utility.yul\":15149:15156   */\n      dup4\n        /* \"#utility.yul\":15146:15165   */\n      lt\n        /* \"#utility.yul\":15143:15322   */\n      iszero\n      tag_278\n      jumpi\n        /* \"#utility.yul\":15216:15225   */\n      dup5\n        /* \"#utility.yul\":15211:15214   */\n      dup10\n        /* \"#utility.yul\":15207:15226   */\n      add\n        /* \"#utility.yul\":15201:15227   */\n      mload\n        /* \"#utility.yul\":15259:15307   */\n      tag_279\n        /* \"#utility.yul\":15301:15305   */\n      0x1f\n        /* \"#utility.yul\":15293:15299   */\n      dup10\n        /* \"#utility.yul\":15289:15306   */\n      and\n        /* \"#utility.yul\":15278:15287   */\n      dup3\n        /* \"#utility.yul\":15259:15307   */\n      tag_112\n      jump\t// in\n    tag_279:\n        /* \"#utility.yul\":15251:15257   */\n      dup4\n        /* \"#utility.yul\":15244:15308   */\n      sstore\n        /* \"#utility.yul\":15166:15322   */\n      pop\n        /* \"#utility.yul\":15143:15322   */\n    tag_278:\n        /* \"#utility.yul\":15368:15369   */\n      0x01\n        /* \"#utility.yul\":15364:15365   */\n      0x02\n        /* \"#utility.yul\":15356:15362   */\n      dup9\n        /* \"#utility.yul\":15352:15366   */\n      mul\n        /* \"#utility.yul\":15348:15370   */\n      add\n        /* \"#utility.yul\":15342:15346   */\n      dup9\n        /* \"#utility.yul\":15335:15371   */\n      sstore\n        /* \"#utility.yul\":14770:15381   */\n      pop\n      pop\n      pop\n        /* \"#utility.yul\":14733:15620   */\n    tag_270:\n      pop\n        /* \"#utility.yul\":14323:15626   */\n      pop\n      pop\n      pop\n        /* \"#utility.yul\":14231:15626   */\n      pop\n      pop\n      jump\t// out\n        /* \"#utility.yul\":15632:15812   */\n    tag_52:\n        /* \"#utility.yul\":15680:15757   */\n      0x4e487b7100000000000000000000000000000000000000000000000000000000\n        /* \"#utility.yul\":15677:15678   */\n      0x00\n        /* \"#utility.yul\":15670:15758   */\n      mstore\n        /* \"#utility.yul\":15777:15781   */\n      0x32\n        /* \"#utility.yul\":15774:15775   */\n      0x04\n        /* \"#utility.yul\":15767:15782   */\n      mstore\n        /* \"#utility.yul\":15801:15805   */\n      0x24\n        /* \"#utility.yul\":15798:15799   */\n      0x00\n        /* \"#utility.yul\":15791:15806   */\n      revert\n        /* \"#utility.yul\":15818:15986   */\n    tag_114:\n        /* \"#utility.yul\":15958:15978   */\n      0x4b69747479206e6f7420666f722073616c650000000000000000000000000000\n        /* \"#utility.yul\":15954:15955   */\n      0x00\n        /* \"#utility.yul\":15946:15952   */\n      dup3\n        /* \"#utility.yul\":15942:15956   */\n      add\n        /* \"#utility.yul\":15935:15979   */\n      mstore\n        /* \"#utility.yul\":15818:15986   */\n      pop\n      jump\t// out\n        /* \"#utility.yul\":15992:16358   */\n    tag_115:\n        /* \"#utility.yul\":16134:16137   */\n      0x00\n        /* \"#utility.yul\":16155:16222   */\n      tag_283\n        /* \"#utility.yul\":16219:16221   */\n      0x12\n        /* \"#utility.yul\":16214:16217   */\n      dup4\n        /* \"#utility.yul\":16155:16222   */\n      tag_93\n      jump\t// in\n    tag_283:\n        /* \"#utility.yul\":16148:16222   */\n      swap2\n      pop\n        /* \"#utility.yul\":16231:16324   */\n      tag_284\n        /* \"#utility.yul\":16320:16323   */\n      dup3\n        /* \"#utility.yul\":16231:16324   */\n      tag_114\n      jump\t// in\n    tag_284:\n        /* \"#utility.yul\":16349:16351   */\n      0x20\n        /* \"#utility.yul\":16344:16347   */\n      dup3\n        /* \"#utility.yul\":16340:16352   */\n      add\n        /* \"#utility.yul\":16333:16352   */\n      swap1\n      pop\n        /* \"#utility.yul\":15992:16358   */\n      swap2\n      swap1\n      pop\n      jump\t// out\n        /* \"#utility.yul\":16364:16783   */\n    tag_56:\n        /* \"#utility.yul\":16530:16534   */\n      0x00\n        /* \"#utility.yul\":16568:16570   */\n      0x20\n        /* \"#utility.yul\":16557:16566   */\n      dup3\n        /* \"#utility.yul\":16553:16571   */\n      add\n        /* \"#utility.yul\":16545:16571   */\n      swap1\n      pop\n        /* \"#utility.yul\":16617:16626   */\n      dup2\n        /* \"#utility.yul\":16611:16615   */\n      dup2\n        /* \"#utility.yul\":16607:16627   */\n      sub\n        /* \"#utility.yul\":16603:16604   */\n      0x00\n        /* \"#utility.yul\":16592:16601   */\n      dup4\n        /* \"#utility.yul\":16588:16605   */\n      add\n        /* \"#utility.yul\":16581:16628   */\n      mstore\n        /* \"#utility.yul\":16645:16776   */\n      tag_286\n        /* \"#utility.yul\":16771:16775   */\n      dup2\n        /* \"#utility.yul\":16645:16776   */\n      tag_115\n      jump\t// in\n    tag_286:\n        /* \"#utility.yul\":16637:16776   */\n      swap1\n      pop\n        /* \"#utility.yul\":16364:16783   */\n      swap2\n      swap1\n      pop\n      jump\t// out\n\n    auxdata: 0xa26469706673582212200d92ff20133774b1c93a3973aacf211e4d70c5bf5f9930de28f061c75d70cf6064736f6c634300080f0033\n}\n",
				"bytecode": {
					"linkReferences": {},
					"object": "6080604052670de0b6b3a764000060035573d9145cce52d386f254917e481eb44e9943f39138600460006101000a81548173ffffffffffffffffffffffffffffffffffffffff021916908373ffffffffffffffffffffffffffffffffffffffff16021790555034801561007157600080fd5b50336000806101000a81548173ffffffffffffffffffffffffffffffffffffffff021916908373ffffffffffffffffffffffffffffffffffffffff160217905550610ec2806100c16000396000f3fe608060405234801561001057600080fd5b506004361061004c5760003560e01c80630c3fddef1461005157806335844dad1461006f5780638cc51eda1461008b578063ae5310f6146100bd575b600080fd5b6100596100d9565b60405161006691906107f4565b60405180910390f35b6100896004803603810190610084919061095f565b61022a565b005b6100a560048036038101906100a091906109d4565b61038c565b6040516100b493929190610a69565b60405180910390f35b6100d760048036038101906100d291906109d4565b61046e565b005b60606001805480602002602001604051908101604052809291908181526020016000905b8282101561022157838290600052602060002090600302016040518060600160405290816000820154815260200160018201805461013a90610ad6565b80601f016020809104026020016040519081016040528092919081815260200182805461016690610ad6565b80156101b35780601f10610188576101008083540402835291602001916101b3565b820191906000526020600020905b81548152906001019060200180831161019657829003601f168201915b505050505081526020016002820160009054906101000a900473ffffffffffffffffffffffffffffffffffffffff1673ffffffffffffffffffffffffffffffffffffffff1673ffffffffffffffffffffffffffffffffffffffff1681525050815260200190600101906100fd565b50505050905090565b60008054906101000a900473ffffffffffffffffffffffffffffffffffffffff1673ffffffffffffffffffffffffffffffffffffffff163373ffffffffffffffffffffffffffffffffffffffff16146102b8576040517f08c379a00000000000000000000000000000000000000000000000000000000081526004016102af90610b53565b60405180910390fd5b600060405180606001604052806001805490508152602001838152602001600073ffffffffffffffffffffffffffffffffffffffff168152509050600181908060018154018082558091505060019003906000526020600020906003020160009091909190915060008201518160000155602082015181600101908161033e9190610d1f565b5060408201518160020160006101000a81548173ffffffffffffffffffffffffffffffffffffffff021916908373ffffffffffffffffffffffffffffffffffffffff16021790555050505050565b6001818154811061039c57600080fd5b90600052602060002090600302016000915090508060000154908060010180546103c590610ad6565b80601f01602080910402602001604051908101604052809291908181526020018280546103f190610ad6565b801561043e5780601f106104135761010080835404028352916020019161043e565b820191906000526020600020905b81548152906001019060200180831161042157829003601f168201915b5050505050908060020160009054906101000a900473ffffffffffffffffffffffffffffffffffffffff16905083565b600073ffffffffffffffffffffffffffffffffffffffff166001828154811061049a57610499610df1565b5b906000526020600020906003020160020160009054906101000a900473ffffffffffffffffffffffffffffffffffffffff1673ffffffffffffffffffffffffffffffffffffffff1614610522576040517f08c379a000000000000000000000000000000000000000000000000000000000815260040161051990610e6c565b60405180910390fd5b600260003373ffffffffffffffffffffffffffffffffffffffff1673ffffffffffffffffffffffffffffffffffffffff168152602001908152602001600020819080600181540180825580915050600190039060005260206000200160009091909190915055336001828154811061059d5761059c610df1565b5b906000526020600020906003020160020160006101000a81548173ffffffffffffffffffffffffffffffffffffffff021916908373ffffffffffffffffffffffffffffffffffffffff16021790555050565b600081519050919050565b600082825260208201905092915050565b6000819050602082019050919050565b6000819050919050565b61062e8161061b565b82525050565b600081519050919050565b600082825260208201905092915050565b60005b8381101561066e578082015181840152602081019050610653565b8381111561067d576000848401525b50505050565b6000601f19601f8301169050919050565b600061069f82610634565b6106a9818561063f565b93506106b9818560208601610650565b6106c281610683565b840191505092915050565b600073ffffffffffffffffffffffffffffffffffffffff82169050919050565b60006106f8826106cd565b9050919050565b610708816106ed565b82525050565b60006060830160008301516107266000860182610625565b506020830151848203602086015261073e8282610694565b915050604083015161075360408601826106ff565b508091505092915050565b600061076a838361070e565b905092915050565b6000602082019050919050565b600061078a826105ef565b61079481856105fa565b9350836020820285016107a68561060b565b8060005b858110156107e257848403895281516107c3858261075e565b94506107ce83610772565b925060208a019950506001810190506107aa565b50829750879550505050505092915050565b6000602082019050818103600083015261080e818461077f565b905092915050565b6000604051905090565b600080fd5b600080fd5b600080fd5b600080fd5b7f4e487b7100000000000000000000000000000000000000000000000000000000600052604160045260246000fd5b61086c82610683565b810181811067ffffffffffffffff8211171561088b5761088a610834565b5b80604052505050565b600061089e610816565b90506108aa8282610863565b919050565b600067ffffffffffffffff8211156108ca576108c9610834565b5b6108d382610683565b9050602081019050919050565b82818337600083830152505050565b60006109026108fd846108af565b610894565b90508281526020810184848401111561091e5761091d61082f565b5b6109298482856108e0565b509392505050565b600082601f8301126109465761094561082a565b5b81356109568482602086016108ef565b91505092915050565b60006020828403121561097557610974610820565b5b600082013567ffffffffffffffff81111561099357610992610825565b5b61099f84828501610931565b91505092915050565b6109b18161061b565b81146109bc57600080fd5b50565b6000813590506109ce816109a8565b92915050565b6000602082840312156109ea576109e9610820565b5b60006109f8848285016109bf565b91505092915050565b610a0a8161061b565b82525050565b600082825260208201905092915050565b6000610a2c82610634565b610a368185610a10565b9350610a46818560208601610650565b610a4f81610683565b840191505092915050565b610a63816106ed565b82525050565b6000606082019050610a7e6000830186610a01565b8181036020830152610a908185610a21565b9050610a9f6040830184610a5a565b949350505050565b7f4e487b7100000000000000000000000000000000000000000000000000000000600052602260045260246000fd5b60006002820490506001821680610aee57607f821691505b602082108103610b0157610b00610aa7565b5b50919050565b7f596f7520417265204e6f74204f776e6572000000000000000000000000000000600082015250565b6000610b3d601183610a10565b9150610b4882610b07565b602082019050919050565b60006020820190508181036000830152610b6c81610b30565b9050919050565b60008190508160005260206000209050919050565b60006020601f8301049050919050565b600082821b905092915050565b600060088302610bd57fffffffffffffffffffffffffffffffffffffffffffffffffffffffffffffffff82610b98565b610bdf8683610b98565b95508019841693508086168417925050509392505050565b6000819050919050565b6000610c1c610c17610c128461061b565b610bf7565b61061b565b9050919050565b6000819050919050565b610c3683610c01565b610c4a610c4282610c23565b848454610ba5565b825550505050565b600090565b610c5f610c52565b610c6a818484610c2d565b505050565b5b81811015610c8e57610c83600082610c57565b600181019050610c70565b5050565b601f821115610cd357610ca481610b73565b610cad84610b88565b81016020851015610cbc578190505b610cd0610cc885610b88565b830182610c6f565b50505b505050565b600082821c905092915050565b6000610cf660001984600802610cd8565b1980831691505092915050565b6000610d0f8383610ce5565b9150826002028217905092915050565b610d2882610634565b67ffffffffffffffff811115610d4157610d40610834565b5b610d4b8254610ad6565b610d56828285610c92565b600060209050601f831160018114610d895760008415610d77578287015190505b610d818582610d03565b865550610de9565b601f198416610d9786610b73565b60005b82811015610dbf57848901518255600182019150602085019450602081019050610d9a565b86831015610ddc5784890151610dd8601f891682610ce5565b8355505b6001600288020188555050505b505050505050565b7f4e487b7100000000000000000000000000000000000000000000000000000000600052603260045260246000fd5b7f4b69747479206e6f7420666f722073616c650000000000000000000000000000600082015250565b6000610e56601283610a10565b9150610e6182610e20565b602082019050919050565b60006020820190508181036000830152610e8581610e49565b905091905056fea26469706673582212200d92ff20133774b1c93a3973aacf211e4d70c5bf5f9930de28f061c75d70cf6064736f6c634300080f0033",
					"opcodes": "PUSH1 0x80 PUSH1 0x40 MSTORE PUSH8 0xDE0B6B3A7640000 PUSH1 0x3 SSTORE PUSH20 0xD9145CCE52D386F254917E481EB44E9943F39138 PUSH1 0x4 PUSH1 0x0 PUSH2 0x100 EXP DUP2 SLOAD DUP2 PUSH20 0xFFFFFFFFFFFFFFFFFFFFFFFFFFFFFFFFFFFFFFFF MUL NOT AND SWAP1 DUP4 PUSH20 0xFFFFFFFFFFFFFFFFFFFFFFFFFFFFFFFFFFFFFFFF AND MUL OR SWAP1 SSTORE POP CALLVALUE DUP1 ISZERO PUSH2 0x71 JUMPI PUSH1 0x0 DUP1 REVERT JUMPDEST POP CALLER PUSH1 0x0 DUP1 PUSH2 0x100 EXP DUP2 SLOAD DUP2 PUSH20 0xFFFFFFFFFFFFFFFFFFFFFFFFFFFFFFFFFFFFFFFF MUL NOT AND SWAP1 DUP4 PUSH20 0xFFFFFFFFFFFFFFFFFFFFFFFFFFFFFFFFFFFFFFFF AND MUL OR SWAP1 SSTORE POP PUSH2 0xEC2 DUP1 PUSH2 0xC1 PUSH1 0x0 CODECOPY PUSH1 0x0 RETURN INVALID PUSH1 0x80 PUSH1 0x40 MSTORE CALLVALUE DUP1 ISZERO PUSH2 0x10 JUMPI PUSH1 0x0 DUP1 REVERT JUMPDEST POP PUSH1 0x4 CALLDATASIZE LT PUSH2 0x4C JUMPI PUSH1 0x0 CALLDATALOAD PUSH1 0xE0 SHR DUP1 PUSH4 0xC3FDDEF EQ PUSH2 0x51 JUMPI DUP1 PUSH4 0x35844DAD EQ PUSH2 0x6F JUMPI DUP1 PUSH4 0x8CC51EDA EQ PUSH2 0x8B JUMPI DUP1 PUSH4 0xAE5310F6 EQ PUSH2 0xBD JUMPI JUMPDEST PUSH1 0x0 DUP1 REVERT JUMPDEST PUSH2 0x59 PUSH2 0xD9 JUMP JUMPDEST PUSH1 0x40 MLOAD PUSH2 0x66 SWAP2 SWAP1 PUSH2 0x7F4 JUMP JUMPDEST PUSH1 0x40 MLOAD DUP1 SWAP2 SUB SWAP1 RETURN JUMPDEST PUSH2 0x89 PUSH1 0x4 DUP1 CALLDATASIZE SUB DUP2 ADD SWAP1 PUSH2 0x84 SWAP2 SWAP1 PUSH2 0x95F JUMP JUMPDEST PUSH2 0x22A JUMP JUMPDEST STOP JUMPDEST PUSH2 0xA5 PUSH1 0x4 DUP1 CALLDATASIZE SUB DUP2 ADD SWAP1 PUSH2 0xA0 SWAP2 SWAP1 PUSH2 0x9D4 JUMP JUMPDEST PUSH2 0x38C JUMP JUMPDEST PUSH1 0x40 MLOAD PUSH2 0xB4 SWAP4 SWAP3 SWAP2 SWAP1 PUSH2 0xA69 JUMP JUMPDEST PUSH1 0x40 MLOAD DUP1 SWAP2 SUB SWAP1 RETURN JUMPDEST PUSH2 0xD7 PUSH1 0x4 DUP1 CALLDATASIZE SUB DUP2 ADD SWAP1 PUSH2 0xD2 SWAP2 SWAP1 PUSH2 0x9D4 JUMP JUMPDEST PUSH2 0x46E JUMP JUMPDEST STOP JUMPDEST PUSH1 0x60 PUSH1 0x1 DUP1 SLOAD DUP1 PUSH1 0x20 MUL PUSH1 0x20 ADD PUSH1 0x40 MLOAD SWAP1 DUP2 ADD PUSH1 0x40 MSTORE DUP1 SWAP3 SWAP2 SWAP1 DUP2 DUP2 MSTORE PUSH1 0x20 ADD PUSH1 0x0 SWAP1 JUMPDEST DUP3 DUP3 LT ISZERO PUSH2 0x221 JUMPI DUP4 DUP3 SWAP1 PUSH1 0x0 MSTORE PUSH1 0x20 PUSH1 0x0 KECCAK256 SWAP1 PUSH1 0x3 MUL ADD PUSH1 0x40 MLOAD DUP1 PUSH1 0x60 ADD PUSH1 0x40 MSTORE SWAP1 DUP2 PUSH1 0x0 DUP3 ADD SLOAD DUP2 MSTORE PUSH1 0x20 ADD PUSH1 0x1 DUP3 ADD DUP1 SLOAD PUSH2 0x13A SWAP1 PUSH2 0xAD6 JUMP JUMPDEST DUP1 PUSH1 0x1F ADD PUSH1 0x20 DUP1 SWAP2 DIV MUL PUSH1 0x20 ADD PUSH1 0x40 MLOAD SWAP1 DUP2 ADD PUSH1 0x40 MSTORE DUP1 SWAP3 SWAP2 SWAP1 DUP2 DUP2 MSTORE PUSH1 0x20 ADD DUP3 DUP1 SLOAD PUSH2 0x166 SWAP1 PUSH2 0xAD6 JUMP JUMPDEST DUP1 ISZERO PUSH2 0x1B3 JUMPI DUP1 PUSH1 0x1F LT PUSH2 0x188 JUMPI PUSH2 0x100 DUP1 DUP4 SLOAD DIV MUL DUP4 MSTORE SWAP2 PUSH1 0x20 ADD SWAP2 PUSH2 0x1B3 JUMP JUMPDEST DUP3 ADD SWAP2 SWAP1 PUSH1 0x0 MSTORE PUSH1 0x20 PUSH1 0x0 KECCAK256 SWAP1 JUMPDEST DUP2 SLOAD DUP2 MSTORE SWAP1 PUSH1 0x1 ADD SWAP1 PUSH1 0x20 ADD DUP1 DUP4 GT PUSH2 0x196 JUMPI DUP3 SWAP1 SUB PUSH1 0x1F AND DUP3 ADD SWAP2 JUMPDEST POP POP POP POP POP DUP2 MSTORE PUSH1 0x20 ADD PUSH1 0x2 DUP3 ADD PUSH1 0x0 SWAP1 SLOAD SWAP1 PUSH2 0x100 EXP SWAP1 DIV PUSH20 0xFFFFFFFFFFFFFFFFFFFFFFFFFFFFFFFFFFFFFFFF AND PUSH20 0xFFFFFFFFFFFFFFFFFFFFFFFFFFFFFFFFFFFFFFFF AND PUSH20 0xFFFFFFFFFFFFFFFFFFFFFFFFFFFFFFFFFFFFFFFF AND DUP2 MSTORE POP POP DUP2 MSTORE PUSH1 0x20 ADD SWAP1 PUSH1 0x1 ADD SWAP1 PUSH2 0xFD JUMP JUMPDEST POP POP POP POP SWAP1 POP SWAP1 JUMP JUMPDEST PUSH1 0x0 DUP1 SLOAD SWAP1 PUSH2 0x100 EXP SWAP1 DIV PUSH20 0xFFFFFFFFFFFFFFFFFFFFFFFFFFFFFFFFFFFFFFFF AND PUSH20 0xFFFFFFFFFFFFFFFFFFFFFFFFFFFFFFFFFFFFFFFF AND CALLER PUSH20 0xFFFFFFFFFFFFFFFFFFFFFFFFFFFFFFFFFFFFFFFF AND EQ PUSH2 0x2B8 JUMPI PUSH1 0x40 MLOAD PUSH32 0x8C379A000000000000000000000000000000000000000000000000000000000 DUP2 MSTORE PUSH1 0x4 ADD PUSH2 0x2AF SWAP1 PUSH2 0xB53 JUMP JUMPDEST PUSH1 0x40 MLOAD DUP1 SWAP2 SUB SWAP1 REVERT JUMPDEST PUSH1 0x0 PUSH1 0x40 MLOAD DUP1 PUSH1 0x60 ADD PUSH1 0x40 MSTORE DUP1 PUSH1 0x1 DUP1 SLOAD SWAP1 POP DUP2 MSTORE PUSH1 0x20 ADD DUP4 DUP2 MSTORE PUSH1 0x20 ADD PUSH1 0x0 PUSH20 0xFFFFFFFFFFFFFFFFFFFFFFFFFFFFFFFFFFFFFFFF AND DUP2 MSTORE POP SWAP1 POP PUSH1 0x1 DUP2 SWAP1 DUP1 PUSH1 0x1 DUP2 SLOAD ADD DUP1 DUP3 SSTORE DUP1 SWAP2 POP POP PUSH1 0x1 SWAP1 SUB SWAP1 PUSH1 0x0 MSTORE PUSH1 0x20 PUSH1 0x0 KECCAK256 SWAP1 PUSH1 0x3 MUL ADD PUSH1 0x0 SWAP1 SWAP2 SWAP1 SWAP2 SWAP1 SWAP2 POP PUSH1 0x0 DUP3 ADD MLOAD DUP2 PUSH1 0x0 ADD SSTORE PUSH1 0x20 DUP3 ADD MLOAD DUP2 PUSH1 0x1 ADD SWAP1 DUP2 PUSH2 0x33E SWAP2 SWAP1 PUSH2 0xD1F JUMP JUMPDEST POP PUSH1 0x40 DUP3 ADD MLOAD DUP2 PUSH1 0x2 ADD PUSH1 0x0 PUSH2 0x100 EXP DUP2 SLOAD DUP2 PUSH20 0xFFFFFFFFFFFFFFFFFFFFFFFFFFFFFFFFFFFFFFFF MUL NOT AND SWAP1 DUP4 PUSH20 0xFFFFFFFFFFFFFFFFFFFFFFFFFFFFFFFFFFFFFFFF AND MUL OR SWAP1 SSTORE POP POP POP POP POP JUMP JUMPDEST PUSH1 0x1 DUP2 DUP2 SLOAD DUP2 LT PUSH2 0x39C JUMPI PUSH1 0x0 DUP1 REVERT JUMPDEST SWAP1 PUSH1 0x0 MSTORE PUSH1 0x20 PUSH1 0x0 KECCAK256 SWAP1 PUSH1 0x3 MUL ADD PUSH1 0x0 SWAP2 POP SWAP1 POP DUP1 PUSH1 0x0 ADD SLOAD SWAP1 DUP1 PUSH1 0x1 ADD DUP1 SLOAD PUSH2 0x3C5 SWAP1 PUSH2 0xAD6 JUMP JUMPDEST DUP1 PUSH1 0x1F ADD PUSH1 0x20 DUP1 SWAP2 DIV MUL PUSH1 0x20 ADD PUSH1 0x40 MLOAD SWAP1 DUP2 ADD PUSH1 0x40 MSTORE DUP1 SWAP3 SWAP2 SWAP1 DUP2 DUP2 MSTORE PUSH1 0x20 ADD DUP3 DUP1 SLOAD PUSH2 0x3F1 SWAP1 PUSH2 0xAD6 JUMP JUMPDEST DUP1 ISZERO PUSH2 0x43E JUMPI DUP1 PUSH1 0x1F LT PUSH2 0x413 JUMPI PUSH2 0x100 DUP1 DUP4 SLOAD DIV MUL DUP4 MSTORE SWAP2 PUSH1 0x20 ADD SWAP2 PUSH2 0x43E JUMP JUMPDEST DUP3 ADD SWAP2 SWAP1 PUSH1 0x0 MSTORE PUSH1 0x20 PUSH1 0x0 KECCAK256 SWAP1 JUMPDEST DUP2 SLOAD DUP2 MSTORE SWAP1 PUSH1 0x1 ADD SWAP1 PUSH1 0x20 ADD DUP1 DUP4 GT PUSH2 0x421 JUMPI DUP3 SWAP1 SUB PUSH1 0x1F AND DUP3 ADD SWAP2 JUMPDEST POP POP POP POP POP SWAP1 DUP1 PUSH1 0x2 ADD PUSH1 0x0 SWAP1 SLOAD SWAP1 PUSH2 0x100 EXP SWAP1 DIV PUSH20 0xFFFFFFFFFFFFFFFFFFFFFFFFFFFFFFFFFFFFFFFF AND SWAP1 POP DUP4 JUMP JUMPDEST PUSH1 0x0 PUSH20 0xFFFFFFFFFFFFFFFFFFFFFFFFFFFFFFFFFFFFFFFF AND PUSH1 0x1 DUP3 DUP2 SLOAD DUP2 LT PUSH2 0x49A JUMPI PUSH2 0x499 PUSH2 0xDF1 JUMP JUMPDEST JUMPDEST SWAP1 PUSH1 0x0 MSTORE PUSH1 0x20 PUSH1 0x0 KECCAK256 SWAP1 PUSH1 0x3 MUL ADD PUSH1 0x2 ADD PUSH1 0x0 SWAP1 SLOAD SWAP1 PUSH2 0x100 EXP SWAP1 DIV PUSH20 0xFFFFFFFFFFFFFFFFFFFFFFFFFFFFFFFFFFFFFFFF AND PUSH20 0xFFFFFFFFFFFFFFFFFFFFFFFFFFFFFFFFFFFFFFFF AND EQ PUSH2 0x522 JUMPI PUSH1 0x40 MLOAD PUSH32 0x8C379A000000000000000000000000000000000000000000000000000000000 DUP2 MSTORE PUSH1 0x4 ADD PUSH2 0x519 SWAP1 PUSH2 0xE6C JUMP JUMPDEST PUSH1 0x40 MLOAD DUP1 SWAP2 SUB SWAP1 REVERT JUMPDEST PUSH1 0x2 PUSH1 0x0 CALLER PUSH20 0xFFFFFFFFFFFFFFFFFFFFFFFFFFFFFFFFFFFFFFFF AND PUSH20 0xFFFFFFFFFFFFFFFFFFFFFFFFFFFFFFFFFFFFFFFF AND DUP2 MSTORE PUSH1 0x20 ADD SWAP1 DUP2 MSTORE PUSH1 0x20 ADD PUSH1 0x0 KECCAK256 DUP2 SWAP1 DUP1 PUSH1 0x1 DUP2 SLOAD ADD DUP1 DUP3 SSTORE DUP1 SWAP2 POP POP PUSH1 0x1 SWAP1 SUB SWAP1 PUSH1 0x0 MSTORE PUSH1 0x20 PUSH1 0x0 KECCAK256 ADD PUSH1 0x0 SWAP1 SWAP2 SWAP1 SWAP2 SWAP1 SWAP2 POP SSTORE CALLER PUSH1 0x1 DUP3 DUP2 SLOAD DUP2 LT PUSH2 0x59D JUMPI PUSH2 0x59C PUSH2 0xDF1 JUMP JUMPDEST JUMPDEST SWAP1 PUSH1 0x0 MSTORE PUSH1 0x20 PUSH1 0x0 KECCAK256 SWAP1 PUSH1 0x3 MUL ADD PUSH1 0x2 ADD PUSH1 0x0 PUSH2 0x100 EXP DUP2 SLOAD DUP2 PUSH20 0xFFFFFFFFFFFFFFFFFFFFFFFFFFFFFFFFFFFFFFFF MUL NOT AND SWAP1 DUP4 PUSH20 0xFFFFFFFFFFFFFFFFFFFFFFFFFFFFFFFFFFFFFFFF AND MUL OR SWAP1 SSTORE POP POP JUMP JUMPDEST PUSH1 0x0 DUP2 MLOAD SWAP1 POP SWAP2 SWAP1 POP JUMP JUMPDEST PUSH1 0x0 DUP3 DUP3 MSTORE PUSH1 0x20 DUP3 ADD SWAP1 POP SWAP3 SWAP2 POP POP JUMP JUMPDEST PUSH1 0x0 DUP2 SWAP1 POP PUSH1 0x20 DUP3 ADD SWAP1 POP SWAP2 SWAP1 POP JUMP JUMPDEST PUSH1 0x0 DUP2 SWAP1 POP SWAP2 SWAP1 POP JUMP JUMPDEST PUSH2 0x62E DUP2 PUSH2 0x61B JUMP JUMPDEST DUP3 MSTORE POP POP JUMP JUMPDEST PUSH1 0x0 DUP2 MLOAD SWAP1 POP SWAP2 SWAP1 POP JUMP JUMPDEST PUSH1 0x0 DUP3 DUP3 MSTORE PUSH1 0x20 DUP3 ADD SWAP1 POP SWAP3 SWAP2 POP POP JUMP JUMPDEST PUSH1 0x0 JUMPDEST DUP4 DUP2 LT ISZERO PUSH2 0x66E JUMPI DUP1 DUP3 ADD MLOAD DUP2 DUP5 ADD MSTORE PUSH1 0x20 DUP2 ADD SWAP1 POP PUSH2 0x653 JUMP JUMPDEST DUP4 DUP2 GT ISZERO PUSH2 0x67D JUMPI PUSH1 0x0 DUP5 DUP5 ADD MSTORE JUMPDEST POP POP POP POP JUMP JUMPDEST PUSH1 0x0 PUSH1 0x1F NOT PUSH1 0x1F DUP4 ADD AND SWAP1 POP SWAP2 SWAP1 POP JUMP JUMPDEST PUSH1 0x0 PUSH2 0x69F DUP3 PUSH2 0x634 JUMP JUMPDEST PUSH2 0x6A9 DUP2 DUP6 PUSH2 0x63F JUMP JUMPDEST SWAP4 POP PUSH2 0x6B9 DUP2 DUP6 PUSH1 0x20 DUP7 ADD PUSH2 0x650 JUMP JUMPDEST PUSH2 0x6C2 DUP2 PUSH2 0x683 JUMP JUMPDEST DUP5 ADD SWAP2 POP POP SWAP3 SWAP2 POP POP JUMP JUMPDEST PUSH1 0x0 PUSH20 0xFFFFFFFFFFFFFFFFFFFFFFFFFFFFFFFFFFFFFFFF DUP3 AND SWAP1 POP SWAP2 SWAP1 POP JUMP JUMPDEST PUSH1 0x0 PUSH2 0x6F8 DUP3 PUSH2 0x6CD JUMP JUMPDEST SWAP1 POP SWAP2 SWAP1 POP JUMP JUMPDEST PUSH2 0x708 DUP2 PUSH2 0x6ED JUMP JUMPDEST DUP3 MSTORE POP POP JUMP JUMPDEST PUSH1 0x0 PUSH1 0x60 DUP4 ADD PUSH1 0x0 DUP4 ADD MLOAD PUSH2 0x726 PUSH1 0x0 DUP7 ADD DUP3 PUSH2 0x625 JUMP JUMPDEST POP PUSH1 0x20 DUP4 ADD MLOAD DUP5 DUP3 SUB PUSH1 0x20 DUP7 ADD MSTORE PUSH2 0x73E DUP3 DUP3 PUSH2 0x694 JUMP JUMPDEST SWAP2 POP POP PUSH1 0x40 DUP4 ADD MLOAD PUSH2 0x753 PUSH1 0x40 DUP7 ADD DUP3 PUSH2 0x6FF JUMP JUMPDEST POP DUP1 SWAP2 POP POP SWAP3 SWAP2 POP POP JUMP JUMPDEST PUSH1 0x0 PUSH2 0x76A DUP4 DUP4 PUSH2 0x70E JUMP JUMPDEST SWAP1 POP SWAP3 SWAP2 POP POP JUMP JUMPDEST PUSH1 0x0 PUSH1 0x20 DUP3 ADD SWAP1 POP SWAP2 SWAP1 POP JUMP JUMPDEST PUSH1 0x0 PUSH2 0x78A DUP3 PUSH2 0x5EF JUMP JUMPDEST PUSH2 0x794 DUP2 DUP6 PUSH2 0x5FA JUMP JUMPDEST SWAP4 POP DUP4 PUSH1 0x20 DUP3 MUL DUP6 ADD PUSH2 0x7A6 DUP6 PUSH2 0x60B JUMP JUMPDEST DUP1 PUSH1 0x0 JUMPDEST DUP6 DUP2 LT ISZERO PUSH2 0x7E2 JUMPI DUP5 DUP5 SUB DUP10 MSTORE DUP2 MLOAD PUSH2 0x7C3 DUP6 DUP3 PUSH2 0x75E JUMP JUMPDEST SWAP5 POP PUSH2 0x7CE DUP4 PUSH2 0x772 JUMP JUMPDEST SWAP3 POP PUSH1 0x20 DUP11 ADD SWAP10 POP POP PUSH1 0x1 DUP2 ADD SWAP1 POP PUSH2 0x7AA JUMP JUMPDEST POP DUP3 SWAP8 POP DUP8 SWAP6 POP POP POP POP POP POP SWAP3 SWAP2 POP POP JUMP JUMPDEST PUSH1 0x0 PUSH1 0x20 DUP3 ADD SWAP1 POP DUP2 DUP2 SUB PUSH1 0x0 DUP4 ADD MSTORE PUSH2 0x80E DUP2 DUP5 PUSH2 0x77F JUMP JUMPDEST SWAP1 POP SWAP3 SWAP2 POP POP JUMP JUMPDEST PUSH1 0x0 PUSH1 0x40 MLOAD SWAP1 POP SWAP1 JUMP JUMPDEST PUSH1 0x0 DUP1 REVERT JUMPDEST PUSH1 0x0 DUP1 REVERT JUMPDEST PUSH1 0x0 DUP1 REVERT JUMPDEST PUSH1 0x0 DUP1 REVERT JUMPDEST PUSH32 0x4E487B7100000000000000000000000000000000000000000000000000000000 PUSH1 0x0 MSTORE PUSH1 0x41 PUSH1 0x4 MSTORE PUSH1 0x24 PUSH1 0x0 REVERT JUMPDEST PUSH2 0x86C DUP3 PUSH2 0x683 JUMP JUMPDEST DUP2 ADD DUP2 DUP2 LT PUSH8 0xFFFFFFFFFFFFFFFF DUP3 GT OR ISZERO PUSH2 0x88B JUMPI PUSH2 0x88A PUSH2 0x834 JUMP JUMPDEST JUMPDEST DUP1 PUSH1 0x40 MSTORE POP POP POP JUMP JUMPDEST PUSH1 0x0 PUSH2 0x89E PUSH2 0x816 JUMP JUMPDEST SWAP1 POP PUSH2 0x8AA DUP3 DUP3 PUSH2 0x863 JUMP JUMPDEST SWAP2 SWAP1 POP JUMP JUMPDEST PUSH1 0x0 PUSH8 0xFFFFFFFFFFFFFFFF DUP3 GT ISZERO PUSH2 0x8CA JUMPI PUSH2 0x8C9 PUSH2 0x834 JUMP JUMPDEST JUMPDEST PUSH2 0x8D3 DUP3 PUSH2 0x683 JUMP JUMPDEST SWAP1 POP PUSH1 0x20 DUP2 ADD SWAP1 POP SWAP2 SWAP1 POP JUMP JUMPDEST DUP3 DUP2 DUP4 CALLDATACOPY PUSH1 0x0 DUP4 DUP4 ADD MSTORE POP POP POP JUMP JUMPDEST PUSH1 0x0 PUSH2 0x902 PUSH2 0x8FD DUP5 PUSH2 0x8AF JUMP JUMPDEST PUSH2 0x894 JUMP JUMPDEST SWAP1 POP DUP3 DUP2 MSTORE PUSH1 0x20 DUP2 ADD DUP5 DUP5 DUP5 ADD GT ISZERO PUSH2 0x91E JUMPI PUSH2 0x91D PUSH2 0x82F JUMP JUMPDEST JUMPDEST PUSH2 0x929 DUP5 DUP3 DUP6 PUSH2 0x8E0 JUMP JUMPDEST POP SWAP4 SWAP3 POP POP POP JUMP JUMPDEST PUSH1 0x0 DUP3 PUSH1 0x1F DUP4 ADD SLT PUSH2 0x946 JUMPI PUSH2 0x945 PUSH2 0x82A JUMP JUMPDEST JUMPDEST DUP2 CALLDATALOAD PUSH2 0x956 DUP5 DUP3 PUSH1 0x20 DUP7 ADD PUSH2 0x8EF JUMP JUMPDEST SWAP2 POP POP SWAP3 SWAP2 POP POP JUMP JUMPDEST PUSH1 0x0 PUSH1 0x20 DUP3 DUP5 SUB SLT ISZERO PUSH2 0x975 JUMPI PUSH2 0x974 PUSH2 0x820 JUMP JUMPDEST JUMPDEST PUSH1 0x0 DUP3 ADD CALLDATALOAD PUSH8 0xFFFFFFFFFFFFFFFF DUP2 GT ISZERO PUSH2 0x993 JUMPI PUSH2 0x992 PUSH2 0x825 JUMP JUMPDEST JUMPDEST PUSH2 0x99F DUP5 DUP3 DUP6 ADD PUSH2 0x931 JUMP JUMPDEST SWAP2 POP POP SWAP3 SWAP2 POP POP JUMP JUMPDEST PUSH2 0x9B1 DUP2 PUSH2 0x61B JUMP JUMPDEST DUP2 EQ PUSH2 0x9BC JUMPI PUSH1 0x0 DUP1 REVERT JUMPDEST POP JUMP JUMPDEST PUSH1 0x0 DUP2 CALLDATALOAD SWAP1 POP PUSH2 0x9CE DUP2 PUSH2 0x9A8 JUMP JUMPDEST SWAP3 SWAP2 POP POP JUMP JUMPDEST PUSH1 0x0 PUSH1 0x20 DUP3 DUP5 SUB SLT ISZERO PUSH2 0x9EA JUMPI PUSH2 0x9E9 PUSH2 0x820 JUMP JUMPDEST JUMPDEST PUSH1 0x0 PUSH2 0x9F8 DUP5 DUP3 DUP6 ADD PUSH2 0x9BF JUMP JUMPDEST SWAP2 POP POP SWAP3 SWAP2 POP POP JUMP JUMPDEST PUSH2 0xA0A DUP2 PUSH2 0x61B JUMP JUMPDEST DUP3 MSTORE POP POP JUMP JUMPDEST PUSH1 0x0 DUP3 DUP3 MSTORE PUSH1 0x20 DUP3 ADD SWAP1 POP SWAP3 SWAP2 POP POP JUMP JUMPDEST PUSH1 0x0 PUSH2 0xA2C DUP3 PUSH2 0x634 JUMP JUMPDEST PUSH2 0xA36 DUP2 DUP6 PUSH2 0xA10 JUMP JUMPDEST SWAP4 POP PUSH2 0xA46 DUP2 DUP6 PUSH1 0x20 DUP7 ADD PUSH2 0x650 JUMP JUMPDEST PUSH2 0xA4F DUP2 PUSH2 0x683 JUMP JUMPDEST DUP5 ADD SWAP2 POP POP SWAP3 SWAP2 POP POP JUMP JUMPDEST PUSH2 0xA63 DUP2 PUSH2 0x6ED JUMP JUMPDEST DUP3 MSTORE POP POP JUMP JUMPDEST PUSH1 0x0 PUSH1 0x60 DUP3 ADD SWAP1 POP PUSH2 0xA7E PUSH1 0x0 DUP4 ADD DUP7 PUSH2 0xA01 JUMP JUMPDEST DUP2 DUP2 SUB PUSH1 0x20 DUP4 ADD MSTORE PUSH2 0xA90 DUP2 DUP6 PUSH2 0xA21 JUMP JUMPDEST SWAP1 POP PUSH2 0xA9F PUSH1 0x40 DUP4 ADD DUP5 PUSH2 0xA5A JUMP JUMPDEST SWAP5 SWAP4 POP POP POP POP JUMP JUMPDEST PUSH32 0x4E487B7100000000000000000000000000000000000000000000000000000000 PUSH1 0x0 MSTORE PUSH1 0x22 PUSH1 0x4 MSTORE PUSH1 0x24 PUSH1 0x0 REVERT JUMPDEST PUSH1 0x0 PUSH1 0x2 DUP3 DIV SWAP1 POP PUSH1 0x1 DUP3 AND DUP1 PUSH2 0xAEE JUMPI PUSH1 0x7F DUP3 AND SWAP2 POP JUMPDEST PUSH1 0x20 DUP3 LT DUP2 SUB PUSH2 0xB01 JUMPI PUSH2 0xB00 PUSH2 0xAA7 JUMP JUMPDEST JUMPDEST POP SWAP2 SWAP1 POP JUMP JUMPDEST PUSH32 0x596F7520417265204E6F74204F776E6572000000000000000000000000000000 PUSH1 0x0 DUP3 ADD MSTORE POP JUMP JUMPDEST PUSH1 0x0 PUSH2 0xB3D PUSH1 0x11 DUP4 PUSH2 0xA10 JUMP JUMPDEST SWAP2 POP PUSH2 0xB48 DUP3 PUSH2 0xB07 JUMP JUMPDEST PUSH1 0x20 DUP3 ADD SWAP1 POP SWAP2 SWAP1 POP JUMP JUMPDEST PUSH1 0x0 PUSH1 0x20 DUP3 ADD SWAP1 POP DUP2 DUP2 SUB PUSH1 0x0 DUP4 ADD MSTORE PUSH2 0xB6C DUP2 PUSH2 0xB30 JUMP JUMPDEST SWAP1 POP SWAP2 SWAP1 POP JUMP JUMPDEST PUSH1 0x0 DUP2 SWAP1 POP DUP2 PUSH1 0x0 MSTORE PUSH1 0x20 PUSH1 0x0 KECCAK256 SWAP1 POP SWAP2 SWAP1 POP JUMP JUMPDEST PUSH1 0x0 PUSH1 0x20 PUSH1 0x1F DUP4 ADD DIV SWAP1 POP SWAP2 SWAP1 POP JUMP JUMPDEST PUSH1 0x0 DUP3 DUP3 SHL SWAP1 POP SWAP3 SWAP2 POP POP JUMP JUMPDEST PUSH1 0x0 PUSH1 0x8 DUP4 MUL PUSH2 0xBD5 PUSH32 0xFFFFFFFFFFFFFFFFFFFFFFFFFFFFFFFFFFFFFFFFFFFFFFFFFFFFFFFFFFFFFFFF DUP3 PUSH2 0xB98 JUMP JUMPDEST PUSH2 0xBDF DUP7 DUP4 PUSH2 0xB98 JUMP JUMPDEST SWAP6 POP DUP1 NOT DUP5 AND SWAP4 POP DUP1 DUP7 AND DUP5 OR SWAP3 POP POP POP SWAP4 SWAP3 POP POP POP JUMP JUMPDEST PUSH1 0x0 DUP2 SWAP1 POP SWAP2 SWAP1 POP JUMP JUMPDEST PUSH1 0x0 PUSH2 0xC1C PUSH2 0xC17 PUSH2 0xC12 DUP5 PUSH2 0x61B JUMP JUMPDEST PUSH2 0xBF7 JUMP JUMPDEST PUSH2 0x61B JUMP JUMPDEST SWAP1 POP SWAP2 SWAP1 POP JUMP JUMPDEST PUSH1 0x0 DUP2 SWAP1 POP SWAP2 SWAP1 POP JUMP JUMPDEST PUSH2 0xC36 DUP4 PUSH2 0xC01 JUMP JUMPDEST PUSH2 0xC4A PUSH2 0xC42 DUP3 PUSH2 0xC23 JUMP JUMPDEST DUP5 DUP5 SLOAD PUSH2 0xBA5 JUMP JUMPDEST DUP3 SSTORE POP POP POP POP JUMP JUMPDEST PUSH1 0x0 SWAP1 JUMP JUMPDEST PUSH2 0xC5F PUSH2 0xC52 JUMP JUMPDEST PUSH2 0xC6A DUP2 DUP5 DUP5 PUSH2 0xC2D JUMP JUMPDEST POP POP POP JUMP JUMPDEST JUMPDEST DUP2 DUP2 LT ISZERO PUSH2 0xC8E JUMPI PUSH2 0xC83 PUSH1 0x0 DUP3 PUSH2 0xC57 JUMP JUMPDEST PUSH1 0x1 DUP2 ADD SWAP1 POP PUSH2 0xC70 JUMP JUMPDEST POP POP JUMP JUMPDEST PUSH1 0x1F DUP3 GT ISZERO PUSH2 0xCD3 JUMPI PUSH2 0xCA4 DUP2 PUSH2 0xB73 JUMP JUMPDEST PUSH2 0xCAD DUP5 PUSH2 0xB88 JUMP JUMPDEST DUP2 ADD PUSH1 0x20 DUP6 LT ISZERO PUSH2 0xCBC JUMPI DUP2 SWAP1 POP JUMPDEST PUSH2 0xCD0 PUSH2 0xCC8 DUP6 PUSH2 0xB88 JUMP JUMPDEST DUP4 ADD DUP3 PUSH2 0xC6F JUMP JUMPDEST POP POP JUMPDEST POP POP POP JUMP JUMPDEST PUSH1 0x0 DUP3 DUP3 SHR SWAP1 POP SWAP3 SWAP2 POP POP JUMP JUMPDEST PUSH1 0x0 PUSH2 0xCF6 PUSH1 0x0 NOT DUP5 PUSH1 0x8 MUL PUSH2 0xCD8 JUMP JUMPDEST NOT DUP1 DUP4 AND SWAP2 POP POP SWAP3 SWAP2 POP POP JUMP JUMPDEST PUSH1 0x0 PUSH2 0xD0F DUP4 DUP4 PUSH2 0xCE5 JUMP JUMPDEST SWAP2 POP DUP3 PUSH1 0x2 MUL DUP3 OR SWAP1 POP SWAP3 SWAP2 POP POP JUMP JUMPDEST PUSH2 0xD28 DUP3 PUSH2 0x634 JUMP JUMPDEST PUSH8 0xFFFFFFFFFFFFFFFF DUP2 GT ISZERO PUSH2 0xD41 JUMPI PUSH2 0xD40 PUSH2 0x834 JUMP JUMPDEST JUMPDEST PUSH2 0xD4B DUP3 SLOAD PUSH2 0xAD6 JUMP JUMPDEST PUSH2 0xD56 DUP3 DUP3 DUP6 PUSH2 0xC92 JUMP JUMPDEST PUSH1 0x0 PUSH1 0x20 SWAP1 POP PUSH1 0x1F DUP4 GT PUSH1 0x1 DUP2 EQ PUSH2 0xD89 JUMPI PUSH1 0x0 DUP5 ISZERO PUSH2 0xD77 JUMPI DUP3 DUP8 ADD MLOAD SWAP1 POP JUMPDEST PUSH2 0xD81 DUP6 DUP3 PUSH2 0xD03 JUMP JUMPDEST DUP7 SSTORE POP PUSH2 0xDE9 JUMP JUMPDEST PUSH1 0x1F NOT DUP5 AND PUSH2 0xD97 DUP7 PUSH2 0xB73 JUMP JUMPDEST PUSH1 0x0 JUMPDEST DUP3 DUP2 LT ISZERO PUSH2 0xDBF JUMPI DUP5 DUP10 ADD MLOAD DUP3 SSTORE PUSH1 0x1 DUP3 ADD SWAP2 POP PUSH1 0x20 DUP6 ADD SWAP5 POP PUSH1 0x20 DUP2 ADD SWAP1 POP PUSH2 0xD9A JUMP JUMPDEST DUP7 DUP4 LT ISZERO PUSH2 0xDDC JUMPI DUP5 DUP10 ADD MLOAD PUSH2 0xDD8 PUSH1 0x1F DUP10 AND DUP3 PUSH2 0xCE5 JUMP JUMPDEST DUP4 SSTORE POP JUMPDEST PUSH1 0x1 PUSH1 0x2 DUP9 MUL ADD DUP9 SSTORE POP POP POP JUMPDEST POP POP POP POP POP POP JUMP JUMPDEST PUSH32 0x4E487B7100000000000000000000000000000000000000000000000000000000 PUSH1 0x0 MSTORE PUSH1 0x32 PUSH1 0x4 MSTORE PUSH1 0x24 PUSH1 0x0 REVERT JUMPDEST PUSH32 0x4B69747479206E6F7420666F722073616C650000000000000000000000000000 PUSH1 0x0 DUP3 ADD MSTORE POP JUMP JUMPDEST PUSH1 0x0 PUSH2 0xE56 PUSH1 0x12 DUP4 PUSH2 0xA10 JUMP JUMPDEST SWAP2 POP PUSH2 0xE61 DUP3 PUSH2 0xE20 JUMP JUMPDEST PUSH1 0x20 DUP3 ADD SWAP1 POP SWAP2 SWAP1 POP JUMP JUMPDEST PUSH1 0x0 PUSH1 0x20 DUP3 ADD SWAP1 POP DUP2 DUP2 SUB PUSH1 0x0 DUP4 ADD MSTORE PUSH2 0xE85 DUP2 PUSH2 0xE49 JUMP JUMPDEST SWAP1 POP SWAP2 SWAP1 POP JUMP INVALID LOG2 PUSH5 0x6970667358 0x22 SLT KECCAK256 0xD SWAP3 SELFDESTRUCT KECCAK256 SGT CALLDATACOPY PUSH21 0xB1C93A3973AACF211E4D70C5BF5F9930DE28F061C7 0x5D PUSH17 0xCF6064736F6C634300080F003300000000 "
				},
				"gasEstimates": {
					"creation": {
						"codeDepositCost": "755600",
						"executionCost": "71431",
						"totalCost": "827031"
					},
					"external": {
						"buyKitty(uint256)": "77793",
						"createKitty(string)": "infinite",
						"kitties(uint256)": "infinite",
						"viewKitty()": "infinite"
					}
				},
				"methodIdentifiers": {
					"buyKitty(uint256)": "ae5310f6",
					"createKitty(string)": "35844dad",
					"kitties(uint256)": "8cc51eda",
					"viewKitty()": "0c3fddef"
				}
			},
			"storageLayout": {
				"storage": [
					{
						"astId": 103,
						"contract": "contracts/nftMarket.sol:NFTMarket",
						"label": "owner",
						"offset": 0,
						"slot": "0",
						"type": "t_address"
					},
					{
						"astId": 15,
						"contract": "contracts/nftMarket.sol:NFTMarket",
						"label": "kitties",
						"offset": 0,
						"slot": "1",
						"type": "t_array(t_struct(Kitty)11_storage)dyn_storage"
					},
					{
						"astId": 20,
						"contract": "contracts/nftMarket.sol:NFTMarket",
						"label": "ownedKittyies",
						"offset": 0,
						"slot": "2",
						"type": "t_mapping(t_address,t_array(t_uint256)dyn_storage)"
					},
					{
						"astId": 23,
						"contract": "contracts/nftMarket.sol:NFTMarket",
						"label": "price",
						"offset": 0,
						"slot": "3",
						"type": "t_uint256"
					},
					{
						"astId": 26,
						"contract": "contracts/nftMarket.sol:NFTMarket",
						"label": "bankAddress",
						"offset": 0,
						"slot": "4",
						"type": "t_address"
					}
				],
				"types": {
					"t_address": {
						"encoding": "inplace",
						"label": "address",
						"numberOfBytes": "20"
					},
					"t_array(t_struct(Kitty)11_storage)dyn_storage": {
						"base": "t_struct(Kitty)11_storage",
						"encoding": "dynamic_array",
						"label": "struct NFTMarket.Kitty[]",
						"numberOfBytes": "32"
					},
					"t_array(t_uint256)dyn_storage": {
						"base": "t_uint256",
						"encoding": "dynamic_array",
						"label": "uint256[]",
						"numberOfBytes": "32"
					},
					"t_mapping(t_address,t_array(t_uint256)dyn_storage)": {
						"encoding": "mapping",
						"key": "t_address",
						"label": "mapping(address => uint256[])",
						"numberOfBytes": "32",
						"value": "t_array(t_uint256)dyn_storage"
					},
					"t_string_storage": {
						"encoding": "bytes",
						"label": "string",
						"numberOfBytes": "32"
					},
					"t_struct(Kitty)11_storage": {
						"encoding": "inplace",
						"label": "struct NFTMarket.Kitty",
						"members": [
							{
								"astId": 6,
								"contract": "contracts/nftMarket.sol:NFTMarket",
								"label": "id",
								"offset": 0,
								"slot": "0",
								"type": "t_uint256"
							},
							{
								"astId": 8,
								"contract": "contracts/nftMarket.sol:NFTMarket",
								"label": "name",
								"offset": 0,
								"slot": "1",
								"type": "t_string_storage"
							},
							{
								"astId": 10,
								"contract": "contracts/nftMarket.sol:NFTMarket",
								"label": "owner",
								"offset": 0,
								"slot": "2",
								"type": "t_address"
							}
						],
						"numberOfBytes": "96"
					},
					"t_uint256": {
						"encoding": "inplace",
						"label": "uint256",
						"numberOfBytes": "32"
					}
				}
			},
			"userdoc": {
				"kind": "user",
				"methods": {},
				"version": 1
			}
		}
	}
}