{
	"contracts/example.sol": {
		"B": {
			"abi": [
				{
					"inputs": [
						{
							"internalType": "string",
							"name": "_msg",
							"type": "string"
						}
					],
					"stateMutability": "nonpayable",
					"type": "constructor"
				},
				{
					"inputs": [],
					"name": "helloB",
					"outputs": [
						{
							"internalType": "string",
							"name": "",
							"type": "string"
						}
					],
					"stateMutability": "pure",
					"type": "function"
				},
				{
					"inputs": [],
					"name": "msgB",
					"outputs": [
						{
							"internalType": "string",
							"name": "",
							"type": "string"
						}
					],
					"stateMutability": "view",
					"type": "function"
				},
				{
					"inputs": [],
					"name": "print",
					"outputs": [
						{
							"internalType": "string",
							"name": "",
							"type": "string"
						}
					],
					"stateMutability": "view",
					"type": "function"
				}
			],
			"devdoc": {
				"kind": "dev",
				"methods": {},
				"version": 1
			},
			"evm": {
				"assembly": "    /* \"contracts/example.sol\":399:698  contract B {... */\n  mstore(0x40, 0x80)\n    /* \"contracts/example.sol\":416:446  string public msgB = \"hello B\" */\n  mload(0x40)\n  dup1\n  0x40\n  add\n  0x40\n  mstore\n  dup1\n  0x07\n  dup2\n  mstore\n  0x20\n  add\n  0x68656c6c6f204200000000000000000000000000000000000000000000000000\n  dup2\n  mstore\n  pop\n  0x00\n  swap1\n  dup2\n  tag_1\n  swap2\n  swap1\n  tag_2\n  jump\t// in\ntag_1:\n  pop\n    /* \"contracts/example.sol\":453:512  constructor(string memory _msg){... */\n  callvalue\n  dup1\n  iszero\n  tag_3\n  jumpi\n  0x00\n  dup1\n  revert\ntag_3:\n  pop\n  mload(0x40)\n  sub(codesize, bytecodeSize)\n  dup1\n  bytecodeSize\n  dup4\n  codecopy\n  dup2\n  dup2\n  add\n  0x40\n  mstore\n  dup2\n  add\n  swap1\n  tag_4\n  swap2\n  swap1\n  tag_5\n  jump\t// in\ntag_4:\n    /* \"contracts/example.sol\":501:505  _msg */\n  dup1\n    /* \"contracts/example.sol\":494:498  msgB */\n  0x00\n    /* \"contracts/example.sol\":494:505  msgB = _msg */\n  swap1\n  dup2\n  tag_8\n  swap2\n  swap1\n  tag_2\n  jump\t// in\ntag_8:\n  pop\n    /* \"contracts/example.sol\":453:512  constructor(string memory _msg){... */\n  pop\n    /* \"contracts/example.sol\":399:698  contract B {... */\n  jump(tag_9)\n    /* \"#utility.yul\":7:106   */\ntag_10:\n    /* \"#utility.yul\":59:65   */\n  0x00\n    /* \"#utility.yul\":93:98   */\n  dup2\n    /* \"#utility.yul\":87:99   */\n  mload\n    /* \"#utility.yul\":77:99   */\n  swap1\n  pop\n    /* \"#utility.yul\":7:106   */\n  swap2\n  swap1\n  pop\n  jump\t// out\n    /* \"#utility.yul\":112:292   */\ntag_11:\n    /* \"#utility.yul\":160:237   */\n  0x4e487b7100000000000000000000000000000000000000000000000000000000\n    /* \"#utility.yul\":157:158   */\n  0x00\n    /* \"#utility.yul\":150:238   */\n  mstore\n    /* \"#utility.yul\":257:261   */\n  0x41\n    /* \"#utility.yul\":254:255   */\n  0x04\n    /* \"#utility.yul\":247:262   */\n  mstore\n    /* \"#utility.yul\":281:285   */\n  0x24\n    /* \"#utility.yul\":278:279   */\n  0x00\n    /* \"#utility.yul\":271:286   */\n  revert\n    /* \"#utility.yul\":298:478   */\ntag_12:\n    /* \"#utility.yul\":346:423   */\n  0x4e487b7100000000000000000000000000000000000000000000000000000000\n    /* \"#utility.yul\":343:344   */\n  0x00\n    /* \"#utility.yul\":336:424   */\n  mstore\n    /* \"#utility.yul\":443:447   */\n  0x22\n    /* \"#utility.yul\":440:441   */\n  0x04\n    /* \"#utility.yul\":433:448   */\n  mstore\n    /* \"#utility.yul\":467:471   */\n  0x24\n    /* \"#utility.yul\":464:465   */\n  0x00\n    /* \"#utility.yul\":457:472   */\n  revert\n    /* \"#utility.yul\":484:804   */\ntag_13:\n    /* \"#utility.yul\":528:534   */\n  0x00\n    /* \"#utility.yul\":565:566   */\n  0x02\n    /* \"#utility.yul\":559:563   */\n  dup3\n    /* \"#utility.yul\":555:567   */\n  div\n    /* \"#utility.yul\":545:567   */\n  swap1\n  pop\n    /* \"#utility.yul\":612:613   */\n  0x01\n    /* \"#utility.yul\":606:610   */\n  dup3\n    /* \"#utility.yul\":602:614   */\n  and\n    /* \"#utility.yul\":633:651   */\n  dup1\n    /* \"#utility.yul\":623:704   */\n  tag_47\n  jumpi\n    /* \"#utility.yul\":689:693   */\n  0x7f\n    /* \"#utility.yul\":681:687   */\n  dup3\n    /* \"#utility.yul\":677:694   */\n  and\n    /* \"#utility.yul\":667:694   */\n  swap2\n  pop\n    /* \"#utility.yul\":623:704   */\ntag_47:\n    /* \"#utility.yul\":751:753   */\n  0x20\n    /* \"#utility.yul\":743:749   */\n  dup3\n    /* \"#utility.yul\":740:754   */\n  lt\n    /* \"#utility.yul\":720:738   */\n  dup2\n    /* \"#utility.yul\":717:755   */\n  sub\n    /* \"#utility.yul\":714:798   */\n  tag_48\n  jumpi\n    /* \"#utility.yul\":770:788   */\n  tag_49\n  tag_12\n  jump\t// in\ntag_49:\n    /* \"#utility.yul\":714:798   */\ntag_48:\n    /* \"#utility.yul\":535:804   */\n  pop\n    /* \"#utility.yul\":484:804   */\n  swap2\n  swap1\n  pop\n  jump\t// out\n    /* \"#utility.yul\":810:951   */\ntag_14:\n    /* \"#utility.yul\":859:863   */\n  0x00\n    /* \"#utility.yul\":882:885   */\n  dup2\n    /* \"#utility.yul\":874:885   */\n  swap1\n  pop\n    /* \"#utility.yul\":905:908   */\n  dup2\n    /* \"#utility.yul\":902:903   */\n  0x00\n    /* \"#utility.yul\":895:909   */\n  mstore\n    /* \"#utility.yul\":939:943   */\n  0x20\n    /* \"#utility.yul\":936:937   */\n  0x00\n    /* \"#utility.yul\":926:944   */\n  keccak256\n    /* \"#utility.yul\":918:944   */\n  swap1\n  pop\n    /* \"#utility.yul\":810:951   */\n  swap2\n  swap1\n  pop\n  jump\t// out\n    /* \"#utility.yul\":957:1050   */\ntag_15:\n    /* \"#utility.yul\":994:1000   */\n  0x00\n    /* \"#utility.yul\":1041:1043   */\n  0x20\n    /* \"#utility.yul\":1036:1038   */\n  0x1f\n    /* \"#utility.yul\":1029:1034   */\n  dup4\n    /* \"#utility.yul\":1025:1039   */\n  add\n    /* \"#utility.yul\":1021:1044   */\n  div\n    /* \"#utility.yul\":1011:1044   */\n  swap1\n  pop\n    /* \"#utility.yul\":957:1050   */\n  swap2\n  swap1\n  pop\n  jump\t// out\n    /* \"#utility.yul\":1056:1163   */\ntag_16:\n    /* \"#utility.yul\":1100:1108   */\n  0x00\n    /* \"#utility.yul\":1150:1155   */\n  dup3\n    /* \"#utility.yul\":1144:1148   */\n  dup3\n    /* \"#utility.yul\":1140:1156   */\n  shl\n    /* \"#utility.yul\":1119:1156   */\n  swap1\n  pop\n    /* \"#utility.yul\":1056:1163   */\n  swap3\n  swap2\n  pop\n  pop\n  jump\t// out\n    /* \"#utility.yul\":1169:1562   */\ntag_17:\n    /* \"#utility.yul\":1238:1244   */\n  0x00\n    /* \"#utility.yul\":1288:1289   */\n  0x08\n    /* \"#utility.yul\":1276:1286   */\n  dup4\n    /* \"#utility.yul\":1272:1290   */\n  mul\n    /* \"#utility.yul\":1311:1408   */\n  tag_54\n    /* \"#utility.yul\":1341:1407   */\n  0xffffffffffffffffffffffffffffffffffffffffffffffffffffffffffffffff\n    /* \"#utility.yul\":1330:1339   */\n  dup3\n    /* \"#utility.yul\":1311:1408   */\n  tag_16\n  jump\t// in\ntag_54:\n    /* \"#utility.yul\":1429:1468   */\n  tag_55\n    /* \"#utility.yul\":1459:1467   */\n  dup7\n    /* \"#utility.yul\":1448:1457   */\n  dup4\n    /* \"#utility.yul\":1429:1468   */\n  tag_16\n  jump\t// in\ntag_55:\n    /* \"#utility.yul\":1417:1468   */\n  swap6\n  pop\n    /* \"#utility.yul\":1501:1505   */\n  dup1\n    /* \"#utility.yul\":1497:1506   */\n  not\n    /* \"#utility.yul\":1490:1495   */\n  dup5\n    /* \"#utility.yul\":1486:1507   */\n  and\n    /* \"#utility.yul\":1477:1507   */\n  swap4\n  pop\n    /* \"#utility.yul\":1550:1554   */\n  dup1\n    /* \"#utility.yul\":1540:1548   */\n  dup7\n    /* \"#utility.yul\":1536:1555   */\n  and\n    /* \"#utility.yul\":1529:1534   */\n  dup5\n    /* \"#utility.yul\":1526:1556   */\n  or\n    /* \"#utility.yul\":1516:1556   */\n  swap3\n  pop\n    /* \"#utility.yul\":1245:1562   */\n  pop\n  pop\n    /* \"#utility.yul\":1169:1562   */\n  swap4\n  swap3\n  pop\n  pop\n  pop\n  jump\t// out\n    /* \"#utility.yul\":1568:1645   */\ntag_18:\n    /* \"#utility.yul\":1605:1612   */\n  0x00\n    /* \"#utility.yul\":1634:1639   */\n  dup2\n    /* \"#utility.yul\":1623:1639   */\n  swap1\n  pop\n    /* \"#utility.yul\":1568:1645   */\n  swap2\n  swap1\n  pop\n  jump\t// out\n    /* \"#utility.yul\":1651:1711   */\ntag_19:\n    /* \"#utility.yul\":1679:1682   */\n  0x00\n    /* \"#utility.yul\":1700:1705   */\n  dup2\n    /* \"#utility.yul\":1693:1705   */\n  swap1\n  pop\n    /* \"#utility.yul\":1651:1711   */\n  swap2\n  swap1\n  pop\n  jump\t// out\n    /* \"#utility.yul\":1717:1859   */\ntag_20:\n    /* \"#utility.yul\":1767:1776   */\n  0x00\n    /* \"#utility.yul\":1800:1853   */\n  tag_59\n    /* \"#utility.yul\":1818:1852   */\n  tag_60\n    /* \"#utility.yul\":1827:1851   */\n  tag_61\n    /* \"#utility.yul\":1845:1850   */\n  dup5\n    /* \"#utility.yul\":1827:1851   */\n  tag_18\n  jump\t// in\ntag_61:\n    /* \"#utility.yul\":1818:1852   */\n  tag_19\n  jump\t// in\ntag_60:\n    /* \"#utility.yul\":1800:1853   */\n  tag_18\n  jump\t// in\ntag_59:\n    /* \"#utility.yul\":1787:1853   */\n  swap1\n  pop\n    /* \"#utility.yul\":1717:1859   */\n  swap2\n  swap1\n  pop\n  jump\t// out\n    /* \"#utility.yul\":1865:1940   */\ntag_21:\n    /* \"#utility.yul\":1908:1911   */\n  0x00\n    /* \"#utility.yul\":1929:1934   */\n  dup2\n    /* \"#utility.yul\":1922:1934   */\n  swap1\n  pop\n    /* \"#utility.yul\":1865:1940   */\n  swap2\n  swap1\n  pop\n  jump\t// out\n    /* \"#utility.yul\":1946:2215   */\ntag_22:\n    /* \"#utility.yul\":2056:2095   */\n  tag_64\n    /* \"#utility.yul\":2087:2094   */\n  dup4\n    /* \"#utility.yul\":2056:2095   */\n  tag_20\n  jump\t// in\ntag_64:\n    /* \"#utility.yul\":2117:2208   */\n  tag_65\n    /* \"#utility.yul\":2166:2207   */\n  tag_66\n    /* \"#utility.yul\":2190:2206   */\n  dup3\n    /* \"#utility.yul\":2166:2207   */\n  tag_21\n  jump\t// in\ntag_66:\n    /* \"#utility.yul\":2158:2164   */\n  dup5\n    /* \"#utility.yul\":2151:2155   */\n  dup5\n    /* \"#utility.yul\":2145:2156   */\n  sload\n    /* \"#utility.yul\":2117:2208   */\n  tag_17\n  jump\t// in\ntag_65:\n    /* \"#utility.yul\":2111:2115   */\n  dup3\n    /* \"#utility.yul\":2104:2209   */\n  sstore\n    /* \"#utility.yul\":2022:2215   */\n  pop\n    /* \"#utility.yul\":1946:2215   */\n  pop\n  pop\n  pop\n  jump\t// out\n    /* \"#utility.yul\":2221:2294   */\ntag_23:\n    /* \"#utility.yul\":2266:2269   */\n  0x00\n    /* \"#utility.yul\":2221:2294   */\n  swap1\n  jump\t// out\n    /* \"#utility.yul\":2300:2489   */\ntag_24:\n    /* \"#utility.yul\":2377:2409   */\n  tag_69\n  tag_23\n  jump\t// in\ntag_69:\n    /* \"#utility.yul\":2418:2483   */\n  tag_70\n    /* \"#utility.yul\":2476:2482   */\n  dup2\n    /* \"#utility.yul\":2468:2474   */\n  dup5\n    /* \"#utility.yul\":2462:2466   */\n  dup5\n    /* \"#utility.yul\":2418:2483   */\n  tag_22\n  jump\t// in\ntag_70:\n    /* \"#utility.yul\":2353:2489   */\n  pop\n    /* \"#utility.yul\":2300:2489   */\n  pop\n  pop\n  jump\t// out\n    /* \"#utility.yul\":2495:2681   */\ntag_25:\n    /* \"#utility.yul\":2555:2675   */\ntag_72:\n    /* \"#utility.yul\":2572:2575   */\n  dup2\n    /* \"#utility.yul\":2565:2570   */\n  dup2\n    /* \"#utility.yul\":2562:2576   */\n  lt\n    /* \"#utility.yul\":2555:2675   */\n  iszero\n  tag_74\n  jumpi\n    /* \"#utility.yul\":2626:2665   */\n  tag_75\n    /* \"#utility.yul\":2663:2664   */\n  0x00\n    /* \"#utility.yul\":2656:2661   */\n  dup3\n    /* \"#utility.yul\":2626:2665   */\n  tag_24\n  jump\t// in\ntag_75:\n    /* \"#utility.yul\":2599:2600   */\n  0x01\n    /* \"#utility.yul\":2592:2597   */\n  dup2\n    /* \"#utility.yul\":2588:2601   */\n  add\n    /* \"#utility.yul\":2579:2601   */\n  swap1\n  pop\n    /* \"#utility.yul\":2555:2675   */\n  jump(tag_72)\ntag_74:\n    /* \"#utility.yul\":2495:2681   */\n  pop\n  pop\n  jump\t// out\n    /* \"#utility.yul\":2687:3230   */\ntag_26:\n    /* \"#utility.yul\":2788:2790   */\n  0x1f\n    /* \"#utility.yul\":2783:2786   */\n  dup3\n    /* \"#utility.yul\":2780:2791   */\n  gt\n    /* \"#utility.yul\":2777:3223   */\n  iszero\n  tag_77\n  jumpi\n    /* \"#utility.yul\":2822:2860   */\n  tag_78\n    /* \"#utility.yul\":2854:2859   */\n  dup2\n    /* \"#utility.yul\":2822:2860   */\n  tag_14\n  jump\t// in\ntag_78:\n    /* \"#utility.yul\":2906:2935   */\n  tag_79\n    /* \"#utility.yul\":2924:2934   */\n  dup5\n    /* \"#utility.yul\":2906:2935   */\n  tag_15\n  jump\t// in\ntag_79:\n    /* \"#utility.yul\":2896:2904   */\n  dup2\n    /* \"#utility.yul\":2892:2936   */\n  add\n    /* \"#utility.yul\":3089:3091   */\n  0x20\n    /* \"#utility.yul\":3077:3087   */\n  dup6\n    /* \"#utility.yul\":3074:3092   */\n  lt\n    /* \"#utility.yul\":3071:3120   */\n  iszero\n  tag_80\n  jumpi\n    /* \"#utility.yul\":3110:3118   */\n  dup2\n    /* \"#utility.yul\":3095:3118   */\n  swap1\n  pop\n    /* \"#utility.yul\":3071:3120   */\ntag_80:\n    /* \"#utility.yul\":3133:3213   */\n  tag_81\n    /* \"#utility.yul\":3189:3211   */\n  tag_82\n    /* \"#utility.yul\":3207:3210   */\n  dup6\n    /* \"#utility.yul\":3189:3211   */\n  tag_15\n  jump\t// in\ntag_82:\n    /* \"#utility.yul\":3179:3187   */\n  dup4\n    /* \"#utility.yul\":3175:3212   */\n  add\n    /* \"#utility.yul\":3162:3173   */\n  dup3\n    /* \"#utility.yul\":3133:3213   */\n  tag_25\n  jump\t// in\ntag_81:\n    /* \"#utility.yul\":2792:3223   */\n  pop\n  pop\n    /* \"#utility.yul\":2777:3223   */\ntag_77:\n    /* \"#utility.yul\":2687:3230   */\n  pop\n  pop\n  pop\n  jump\t// out\n    /* \"#utility.yul\":3236:3353   */\ntag_27:\n    /* \"#utility.yul\":3290:3298   */\n  0x00\n    /* \"#utility.yul\":3340:3345   */\n  dup3\n    /* \"#utility.yul\":3334:3338   */\n  dup3\n    /* \"#utility.yul\":3330:3346   */\n  shr\n    /* \"#utility.yul\":3309:3346   */\n  swap1\n  pop\n    /* \"#utility.yul\":3236:3353   */\n  swap3\n  swap2\n  pop\n  pop\n  jump\t// out\n    /* \"#utility.yul\":3359:3528   */\ntag_28:\n    /* \"#utility.yul\":3403:3409   */\n  0x00\n    /* \"#utility.yul\":3436:3487   */\n  tag_85\n    /* \"#utility.yul\":3484:3485   */\n  0x00\n    /* \"#utility.yul\":3480:3486   */\n  not\n    /* \"#utility.yul\":3472:3477   */\n  dup5\n    /* \"#utility.yul\":3469:3470   */\n  0x08\n    /* \"#utility.yul\":3465:3478   */\n  mul\n    /* \"#utility.yul\":3436:3487   */\n  tag_27\n  jump\t// in\ntag_85:\n    /* \"#utility.yul\":3432:3488   */\n  not\n    /* \"#utility.yul\":3517:3521   */\n  dup1\n    /* \"#utility.yul\":3511:3515   */\n  dup4\n    /* \"#utility.yul\":3507:3522   */\n  and\n    /* \"#utility.yul\":3497:3522   */\n  swap2\n  pop\n    /* \"#utility.yul\":3410:3528   */\n  pop\n    /* \"#utility.yul\":3359:3528   */\n  swap3\n  swap2\n  pop\n  pop\n  jump\t// out\n    /* \"#utility.yul\":3533:3828   */\ntag_29:\n    /* \"#utility.yul\":3609:3613   */\n  0x00\n    /* \"#utility.yul\":3755:3784   */\n  tag_87\n    /* \"#utility.yul\":3780:3783   */\n  dup4\n    /* \"#utility.yul\":3774:3778   */\n  dup4\n    /* \"#utility.yul\":3755:3784   */\n  tag_28\n  jump\t// in\ntag_87:\n    /* \"#utility.yul\":3747:3784   */\n  swap2\n  pop\n    /* \"#utility.yul\":3817:3820   */\n  dup3\n    /* \"#utility.yul\":3814:3815   */\n  0x02\n    /* \"#utility.yul\":3810:3821   */\n  mul\n    /* \"#utility.yul\":3804:3808   */\n  dup3\n    /* \"#utility.yul\":3801:3822   */\n  or\n    /* \"#utility.yul\":3793:3822   */\n  swap1\n  pop\n    /* \"#utility.yul\":3533:3828   */\n  swap3\n  swap2\n  pop\n  pop\n  jump\t// out\n    /* \"#utility.yul\":3833:5228   */\ntag_2:\n    /* \"#utility.yul\":3950:3987   */\n  tag_89\n    /* \"#utility.yul\":3983:3986   */\n  dup3\n    /* \"#utility.yul\":3950:3987   */\n  tag_10\n  jump\t// in\ntag_89:\n    /* \"#utility.yul\":4052:4070   */\n  0xffffffffffffffff\n    /* \"#utility.yul\":4044:4050   */\n  dup2\n    /* \"#utility.yul\":4041:4071   */\n  gt\n    /* \"#utility.yul\":4038:4094   */\n  iszero\n  tag_90\n  jumpi\n    /* \"#utility.yul\":4074:4092   */\n  tag_91\n  tag_11\n  jump\t// in\ntag_91:\n    /* \"#utility.yul\":4038:4094   */\ntag_90:\n    /* \"#utility.yul\":4118:4156   */\n  tag_92\n    /* \"#utility.yul\":4150:4154   */\n  dup3\n    /* \"#utility.yul\":4144:4155   */\n  sload\n    /* \"#utility.yul\":4118:4156   */\n  tag_13\n  jump\t// in\ntag_92:\n    /* \"#utility.yul\":4203:4270   */\n  tag_93\n    /* \"#utility.yul\":4263:4269   */\n  dup3\n    /* \"#utility.yul\":4255:4261   */\n  dup3\n    /* \"#utility.yul\":4249:4253   */\n  dup6\n    /* \"#utility.yul\":4203:4270   */\n  tag_26\n  jump\t// in\ntag_93:\n    /* \"#utility.yul\":4297:4298   */\n  0x00\n    /* \"#utility.yul\":4321:4325   */\n  0x20\n    /* \"#utility.yul\":4308:4325   */\n  swap1\n  pop\n    /* \"#utility.yul\":4353:4355   */\n  0x1f\n    /* \"#utility.yul\":4345:4351   */\n  dup4\n    /* \"#utility.yul\":4342:4356   */\n  gt\n    /* \"#utility.yul\":4370:4371   */\n  0x01\n    /* \"#utility.yul\":4365:4983   */\n  dup2\n  eq\n  tag_95\n  jumpi\n    /* \"#utility.yul\":5027:5028   */\n  0x00\n    /* \"#utility.yul\":5044:5050   */\n  dup5\n    /* \"#utility.yul\":5041:5118   */\n  iszero\n  tag_96\n  jumpi\n    /* \"#utility.yul\":5093:5102   */\n  dup3\n    /* \"#utility.yul\":5088:5091   */\n  dup8\n    /* \"#utility.yul\":5084:5103   */\n  add\n    /* \"#utility.yul\":5078:5104   */\n  mload\n    /* \"#utility.yul\":5069:5104   */\n  swap1\n  pop\n    /* \"#utility.yul\":5041:5118   */\ntag_96:\n    /* \"#utility.yul\":5144:5211   */\n  tag_97\n    /* \"#utility.yul\":5204:5210   */\n  dup6\n    /* \"#utility.yul\":5197:5202   */\n  dup3\n    /* \"#utility.yul\":5144:5211   */\n  tag_29\n  jump\t// in\ntag_97:\n    /* \"#utility.yul\":5138:5142   */\n  dup7\n    /* \"#utility.yul\":5131:5212   */\n  sstore\n    /* \"#utility.yul\":5000:5222   */\n  pop\n    /* \"#utility.yul\":4335:5222   */\n  jump(tag_94)\n    /* \"#utility.yul\":4365:4983   */\ntag_95:\n    /* \"#utility.yul\":4417:4421   */\n  0x1f\n    /* \"#utility.yul\":4413:4422   */\n  not\n    /* \"#utility.yul\":4405:4411   */\n  dup5\n    /* \"#utility.yul\":4401:4423   */\n  and\n    /* \"#utility.yul\":4451:4488   */\n  tag_98\n    /* \"#utility.yul\":4483:4487   */\n  dup7\n    /* \"#utility.yul\":4451:4488   */\n  tag_14\n  jump\t// in\ntag_98:\n    /* \"#utility.yul\":4510:4511   */\n  0x00\n    /* \"#utility.yul\":4524:4732   */\ntag_99:\n    /* \"#utility.yul\":4538:4545   */\n  dup3\n    /* \"#utility.yul\":4535:4536   */\n  dup2\n    /* \"#utility.yul\":4532:4546   */\n  lt\n    /* \"#utility.yul\":4524:4732   */\n  iszero\n  tag_101\n  jumpi\n    /* \"#utility.yul\":4617:4626   */\n  dup5\n    /* \"#utility.yul\":4612:4615   */\n  dup10\n    /* \"#utility.yul\":4608:4627   */\n  add\n    /* \"#utility.yul\":4602:4628   */\n  mload\n    /* \"#utility.yul\":4594:4600   */\n  dup3\n    /* \"#utility.yul\":4587:4629   */\n  sstore\n    /* \"#utility.yul\":4668:4669   */\n  0x01\n    /* \"#utility.yul\":4660:4666   */\n  dup3\n    /* \"#utility.yul\":4656:4670   */\n  add\n    /* \"#utility.yul\":4646:4670   */\n  swap2\n  pop\n    /* \"#utility.yul\":4715:4717   */\n  0x20\n    /* \"#utility.yul\":4704:4713   */\n  dup6\n    /* \"#utility.yul\":4700:4718   */\n  add\n    /* \"#utility.yul\":4687:4718   */\n  swap5\n  pop\n    /* \"#utility.yul\":4561:4565   */\n  0x20\n    /* \"#utility.yul\":4558:4559   */\n  dup2\n    /* \"#utility.yul\":4554:4566   */\n  add\n    /* \"#utility.yul\":4549:4566   */\n  swap1\n  pop\n    /* \"#utility.yul\":4524:4732   */\n  jump(tag_99)\ntag_101:\n    /* \"#utility.yul\":4760:4766   */\n  dup7\n    /* \"#utility.yul\":4751:4758   */\n  dup4\n    /* \"#utility.yul\":4748:4767   */\n  lt\n    /* \"#utility.yul\":4745:4924   */\n  iszero\n  tag_102\n  jumpi\n    /* \"#utility.yul\":4818:4827   */\n  dup5\n    /* \"#utility.yul\":4813:4816   */\n  dup10\n    /* \"#utility.yul\":4809:4828   */\n  add\n    /* \"#utility.yul\":4803:4829   */\n  mload\n    /* \"#utility.yul\":4861:4909   */\n  tag_103\n    /* \"#utility.yul\":4903:4907   */\n  0x1f\n    /* \"#utility.yul\":4895:4901   */\n  dup10\n    /* \"#utility.yul\":4891:4908   */\n  and\n    /* \"#utility.yul\":4880:4889   */\n  dup3\n    /* \"#utility.yul\":4861:4909   */\n  tag_28\n  jump\t// in\ntag_103:\n    /* \"#utility.yul\":4853:4859   */\n  dup4\n    /* \"#utility.yul\":4846:4910   */\n  sstore\n    /* \"#utility.yul\":4768:4924   */\n  pop\n    /* \"#utility.yul\":4745:4924   */\ntag_102:\n    /* \"#utility.yul\":4970:4971   */\n  0x01\n    /* \"#utility.yul\":4966:4967   */\n  0x02\n    /* \"#utility.yul\":4958:4964   */\n  dup9\n    /* \"#utility.yul\":4954:4968   */\n  mul\n    /* \"#utility.yul\":4950:4972   */\n  add\n    /* \"#utility.yul\":4944:4948   */\n  dup9\n    /* \"#utility.yul\":4937:4973   */\n  sstore\n    /* \"#utility.yul\":4372:4983   */\n  pop\n  pop\n  pop\n    /* \"#utility.yul\":4335:5222   */\ntag_94:\n  pop\n    /* \"#utility.yul\":3925:5228   */\n  pop\n  pop\n  pop\n    /* \"#utility.yul\":3833:5228   */\n  pop\n  pop\n  jump\t// out\n    /* \"#utility.yul\":5234:5309   */\ntag_30:\n    /* \"#utility.yul\":5267:5273   */\n  0x00\n    /* \"#utility.yul\":5300:5302   */\n  0x40\n    /* \"#utility.yul\":5294:5303   */\n  mload\n    /* \"#utility.yul\":5284:5303   */\n  swap1\n  pop\n    /* \"#utility.yul\":5234:5309   */\n  swap1\n  jump\t// out\n    /* \"#utility.yul\":5315:5432   */\ntag_31:\n    /* \"#utility.yul\":5424:5425   */\n  0x00\n    /* \"#utility.yul\":5421:5422   */\n  dup1\n    /* \"#utility.yul\":5414:5426   */\n  revert\n    /* \"#utility.yul\":5438:5555   */\ntag_32:\n    /* \"#utility.yul\":5547:5548   */\n  0x00\n    /* \"#utility.yul\":5544:5545   */\n  dup1\n    /* \"#utility.yul\":5537:5549   */\n  revert\n    /* \"#utility.yul\":5561:5678   */\ntag_33:\n    /* \"#utility.yul\":5670:5671   */\n  0x00\n    /* \"#utility.yul\":5667:5668   */\n  dup1\n    /* \"#utility.yul\":5660:5672   */\n  revert\n    /* \"#utility.yul\":5684:5801   */\ntag_34:\n    /* \"#utility.yul\":5793:5794   */\n  0x00\n    /* \"#utility.yul\":5790:5791   */\n  dup1\n    /* \"#utility.yul\":5783:5795   */\n  revert\n    /* \"#utility.yul\":5807:5909   */\ntag_35:\n    /* \"#utility.yul\":5848:5854   */\n  0x00\n    /* \"#utility.yul\":5899:5901   */\n  0x1f\n    /* \"#utility.yul\":5895:5902   */\n  not\n    /* \"#utility.yul\":5890:5892   */\n  0x1f\n    /* \"#utility.yul\":5883:5888   */\n  dup4\n    /* \"#utility.yul\":5879:5893   */\n  add\n    /* \"#utility.yul\":5875:5903   */\n  and\n    /* \"#utility.yul\":5865:5903   */\n  swap1\n  pop\n    /* \"#utility.yul\":5807:5909   */\n  swap2\n  swap1\n  pop\n  jump\t// out\n    /* \"#utility.yul\":5915:6196   */\ntag_36:\n    /* \"#utility.yul\":5998:6025   */\n  tag_111\n    /* \"#utility.yul\":6020:6024   */\n  dup3\n    /* \"#utility.yul\":5998:6025   */\n  tag_35\n  jump\t// in\ntag_111:\n    /* \"#utility.yul\":5990:5996   */\n  dup2\n    /* \"#utility.yul\":5986:6026   */\n  add\n    /* \"#utility.yul\":6128:6134   */\n  dup2\n    /* \"#utility.yul\":6116:6126   */\n  dup2\n    /* \"#utility.yul\":6113:6135   */\n  lt\n    /* \"#utility.yul\":6092:6110   */\n  0xffffffffffffffff\n    /* \"#utility.yul\":6080:6090   */\n  dup3\n    /* \"#utility.yul\":6077:6111   */\n  gt\n    /* \"#utility.yul\":6074:6136   */\n  or\n    /* \"#utility.yul\":6071:6159   */\n  iszero\n  tag_112\n  jumpi\n    /* \"#utility.yul\":6139:6157   */\n  tag_113\n  tag_11\n  jump\t// in\ntag_113:\n    /* \"#utility.yul\":6071:6159   */\ntag_112:\n    /* \"#utility.yul\":6179:6189   */\n  dup1\n    /* \"#utility.yul\":6175:6177   */\n  0x40\n    /* \"#utility.yul\":6168:6190   */\n  mstore\n    /* \"#utility.yul\":5958:6196   */\n  pop\n    /* \"#utility.yul\":5915:6196   */\n  pop\n  pop\n  jump\t// out\n    /* \"#utility.yul\":6202:6331   */\ntag_37:\n    /* \"#utility.yul\":6236:6242   */\n  0x00\n    /* \"#utility.yul\":6263:6283   */\n  tag_115\n  tag_30\n  jump\t// in\ntag_115:\n    /* \"#utility.yul\":6253:6283   */\n  swap1\n  pop\n    /* \"#utility.yul\":6292:6325   */\n  tag_116\n    /* \"#utility.yul\":6320:6324   */\n  dup3\n    /* \"#utility.yul\":6312:6318   */\n  dup3\n    /* \"#utility.yul\":6292:6325   */\n  tag_36\n  jump\t// in\ntag_116:\n    /* \"#utility.yul\":6202:6331   */\n  swap2\n  swap1\n  pop\n  jump\t// out\n    /* \"#utility.yul\":6337:6645   */\ntag_38:\n    /* \"#utility.yul\":6399:6403   */\n  0x00\n    /* \"#utility.yul\":6489:6507   */\n  0xffffffffffffffff\n    /* \"#utility.yul\":6481:6487   */\n  dup3\n    /* \"#utility.yul\":6478:6508   */\n  gt\n    /* \"#utility.yul\":6475:6531   */\n  iszero\n  tag_118\n  jumpi\n    /* \"#utility.yul\":6511:6529   */\n  tag_119\n  tag_11\n  jump\t// in\ntag_119:\n    /* \"#utility.yul\":6475:6531   */\ntag_118:\n    /* \"#utility.yul\":6549:6578   */\n  tag_120\n    /* \"#utility.yul\":6571:6577   */\n  dup3\n    /* \"#utility.yul\":6549:6578   */\n  tag_35\n  jump\t// in\ntag_120:\n    /* \"#utility.yul\":6541:6578   */\n  swap1\n  pop\n    /* \"#utility.yul\":6633:6637   */\n  0x20\n    /* \"#utility.yul\":6627:6631   */\n  dup2\n    /* \"#utility.yul\":6623:6638   */\n  add\n    /* \"#utility.yul\":6615:6638   */\n  swap1\n  pop\n    /* \"#utility.yul\":6337:6645   */\n  swap2\n  swap1\n  pop\n  jump\t// out\n    /* \"#utility.yul\":6651:6958   */\ntag_39:\n    /* \"#utility.yul\":6719:6720   */\n  0x00\n    /* \"#utility.yul\":6729:6842   */\ntag_122:\n    /* \"#utility.yul\":6743:6749   */\n  dup4\n    /* \"#utility.yul\":6740:6741   */\n  dup2\n    /* \"#utility.yul\":6737:6750   */\n  lt\n    /* \"#utility.yul\":6729:6842   */\n  iszero\n  tag_124\n  jumpi\n    /* \"#utility.yul\":6828:6829   */\n  dup1\n    /* \"#utility.yul\":6823:6826   */\n  dup3\n    /* \"#utility.yul\":6819:6830   */\n  add\n    /* \"#utility.yul\":6813:6831   */\n  mload\n    /* \"#utility.yul\":6809:6810   */\n  dup2\n    /* \"#utility.yul\":6804:6807   */\n  dup5\n    /* \"#utility.yul\":6800:6811   */\n  add\n    /* \"#utility.yul\":6793:6832   */\n  mstore\n    /* \"#utility.yul\":6765:6767   */\n  0x20\n    /* \"#utility.yul\":6762:6763   */\n  dup2\n    /* \"#utility.yul\":6758:6768   */\n  add\n    /* \"#utility.yul\":6753:6768   */\n  swap1\n  pop\n    /* \"#utility.yul\":6729:6842   */\n  jump(tag_122)\ntag_124:\n    /* \"#utility.yul\":6860:6866   */\n  dup4\n    /* \"#utility.yul\":6857:6858   */\n  dup2\n    /* \"#utility.yul\":6854:6867   */\n  gt\n    /* \"#utility.yul\":6851:6952   */\n  iszero\n  tag_125\n  jumpi\n    /* \"#utility.yul\":6940:6941   */\n  0x00\n    /* \"#utility.yul\":6931:6937   */\n  dup5\n    /* \"#utility.yul\":6926:6929   */\n  dup5\n    /* \"#utility.yul\":6922:6938   */\n  add\n    /* \"#utility.yul\":6915:6942   */\n  mstore\n    /* \"#utility.yul\":6851:6952   */\ntag_125:\n    /* \"#utility.yul\":6700:6958   */\n  pop\n    /* \"#utility.yul\":6651:6958   */\n  pop\n  pop\n  pop\n  jump\t// out\n    /* \"#utility.yul\":6964:7385   */\ntag_40:\n    /* \"#utility.yul\":7053:7058   */\n  0x00\n    /* \"#utility.yul\":7078:7144   */\n  tag_127\n    /* \"#utility.yul\":7094:7143   */\n  tag_128\n    /* \"#utility.yul\":7136:7142   */\n  dup5\n    /* \"#utility.yul\":7094:7143   */\n  tag_38\n  jump\t// in\ntag_128:\n    /* \"#utility.yul\":7078:7144   */\n  tag_37\n  jump\t// in\ntag_127:\n    /* \"#utility.yul\":7069:7144   */\n  swap1\n  pop\n    /* \"#utility.yul\":7167:7173   */\n  dup3\n    /* \"#utility.yul\":7160:7165   */\n  dup2\n    /* \"#utility.yul\":7153:7174   */\n  mstore\n    /* \"#utility.yul\":7205:7209   */\n  0x20\n    /* \"#utility.yul\":7198:7203   */\n  dup2\n    /* \"#utility.yul\":7194:7210   */\n  add\n    /* \"#utility.yul\":7243:7246   */\n  dup5\n    /* \"#utility.yul\":7234:7240   */\n  dup5\n    /* \"#utility.yul\":7229:7232   */\n  dup5\n    /* \"#utility.yul\":7225:7241   */\n  add\n    /* \"#utility.yul\":7222:7247   */\n  gt\n    /* \"#utility.yul\":7219:7331   */\n  iszero\n  tag_129\n  jumpi\n    /* \"#utility.yul\":7250:7329   */\n  tag_130\n  tag_34\n  jump\t// in\ntag_130:\n    /* \"#utility.yul\":7219:7331   */\ntag_129:\n    /* \"#utility.yul\":7340:7379   */\n  tag_131\n    /* \"#utility.yul\":7372:7378   */\n  dup5\n    /* \"#utility.yul\":7367:7370   */\n  dup3\n    /* \"#utility.yul\":7362:7365   */\n  dup6\n    /* \"#utility.yul\":7340:7379   */\n  tag_39\n  jump\t// in\ntag_131:\n    /* \"#utility.yul\":7059:7385   */\n  pop\n    /* \"#utility.yul\":6964:7385   */\n  swap4\n  swap3\n  pop\n  pop\n  pop\n  jump\t// out\n    /* \"#utility.yul\":7405:7760   */\ntag_41:\n    /* \"#utility.yul\":7472:7477   */\n  0x00\n    /* \"#utility.yul\":7521:7524   */\n  dup3\n    /* \"#utility.yul\":7514:7518   */\n  0x1f\n    /* \"#utility.yul\":7506:7512   */\n  dup4\n    /* \"#utility.yul\":7502:7519   */\n  add\n    /* \"#utility.yul\":7498:7525   */\n  slt\n    /* \"#utility.yul\":7488:7610   */\n  tag_133\n  jumpi\n    /* \"#utility.yul\":7529:7608   */\n  tag_134\n  tag_33\n  jump\t// in\ntag_134:\n    /* \"#utility.yul\":7488:7610   */\ntag_133:\n    /* \"#utility.yul\":7639:7645   */\n  dup2\n    /* \"#utility.yul\":7633:7646   */\n  mload\n    /* \"#utility.yul\":7664:7754   */\n  tag_135\n    /* \"#utility.yul\":7750:7753   */\n  dup5\n    /* \"#utility.yul\":7742:7748   */\n  dup3\n    /* \"#utility.yul\":7735:7739   */\n  0x20\n    /* \"#utility.yul\":7727:7733   */\n  dup7\n    /* \"#utility.yul\":7723:7740   */\n  add\n    /* \"#utility.yul\":7664:7754   */\n  tag_40\n  jump\t// in\ntag_135:\n    /* \"#utility.yul\":7655:7754   */\n  swap2\n  pop\n    /* \"#utility.yul\":7478:7760   */\n  pop\n    /* \"#utility.yul\":7405:7760   */\n  swap3\n  swap2\n  pop\n  pop\n  jump\t// out\n    /* \"#utility.yul\":7766:8290   */\ntag_5:\n    /* \"#utility.yul\":7846:7852   */\n  0x00\n    /* \"#utility.yul\":7895:7897   */\n  0x20\n    /* \"#utility.yul\":7883:7892   */\n  dup3\n    /* \"#utility.yul\":7874:7881   */\n  dup5\n    /* \"#utility.yul\":7870:7893   */\n  sub\n    /* \"#utility.yul\":7866:7898   */\n  slt\n    /* \"#utility.yul\":7863:7982   */\n  iszero\n  tag_137\n  jumpi\n    /* \"#utility.yul\":7901:7980   */\n  tag_138\n  tag_31\n  jump\t// in\ntag_138:\n    /* \"#utility.yul\":7863:7982   */\ntag_137:\n    /* \"#utility.yul\":8042:8043   */\n  0x00\n    /* \"#utility.yul\":8031:8040   */\n  dup3\n    /* \"#utility.yul\":8027:8044   */\n  add\n    /* \"#utility.yul\":8021:8045   */\n  mload\n    /* \"#utility.yul\":8072:8090   */\n  0xffffffffffffffff\n    /* \"#utility.yul\":8064:8070   */\n  dup2\n    /* \"#utility.yul\":8061:8091   */\n  gt\n    /* \"#utility.yul\":8058:8175   */\n  iszero\n  tag_139\n  jumpi\n    /* \"#utility.yul\":8094:8173   */\n  tag_140\n  tag_32\n  jump\t// in\ntag_140:\n    /* \"#utility.yul\":8058:8175   */\ntag_139:\n    /* \"#utility.yul\":8199:8273   */\n  tag_141\n    /* \"#utility.yul\":8265:8272   */\n  dup5\n    /* \"#utility.yul\":8256:8262   */\n  dup3\n    /* \"#utility.yul\":8245:8254   */\n  dup6\n    /* \"#utility.yul\":8241:8263   */\n  add\n    /* \"#utility.yul\":8199:8273   */\n  tag_41\n  jump\t// in\ntag_141:\n    /* \"#utility.yul\":8189:8273   */\n  swap2\n  pop\n    /* \"#utility.yul\":7992:8283   */\n  pop\n    /* \"#utility.yul\":7766:8290   */\n  swap3\n  swap2\n  pop\n  pop\n  jump\t// out\n    /* \"contracts/example.sol\":399:698  contract B {... */\ntag_9:\n  dataSize(sub_0)\n  dup1\n  dataOffset(sub_0)\n  0x00\n  codecopy\n  0x00\n  return\nstop\n\nsub_0: assembly {\n        /* \"contracts/example.sol\":399:698  contract B {... */\n      mstore(0x40, 0x80)\n      callvalue\n      dup1\n      iszero\n      tag_1\n      jumpi\n      0x00\n      dup1\n      revert\n    tag_1:\n      pop\n      jumpi(tag_2, lt(calldatasize, 0x04))\n      shr(0xe0, calldataload(0x00))\n      dup1\n      0x0c22c5ea\n      eq\n      tag_3\n      jumpi\n      dup1\n      0x13bdfacd\n      eq\n      tag_4\n      jumpi\n      dup1\n      0x599a2364\n      eq\n      tag_5\n      jumpi\n    tag_2:\n      0x00\n      dup1\n      revert\n        /* \"contracts/example.sol\":416:446  string public msgB = \"hello B\" */\n    tag_3:\n      tag_6\n      tag_7\n      jump\t// in\n    tag_6:\n      mload(0x40)\n      tag_8\n      swap2\n      swap1\n      tag_9\n      jump\t// in\n    tag_8:\n      mload(0x40)\n      dup1\n      swap2\n      sub\n      swap1\n      return\n        /* \"contracts/example.sol\":518:605  function print() public virtual view returns(string memory){... */\n    tag_4:\n      tag_10\n      tag_11\n      jump\t// in\n    tag_10:\n      mload(0x40)\n      tag_12\n      swap2\n      swap1\n      tag_9\n      jump\t// in\n    tag_12:\n      mload(0x40)\n      dup1\n      swap2\n      sub\n      swap1\n      return\n        /* \"contracts/example.sol\":611:696  function helloB() public pure returns(string memory){... */\n    tag_5:\n      tag_13\n      tag_14\n      jump\t// in\n    tag_13:\n      mload(0x40)\n      tag_15\n      swap2\n      swap1\n      tag_9\n      jump\t// in\n    tag_15:\n      mload(0x40)\n      dup1\n      swap2\n      sub\n      swap1\n      return\n        /* \"contracts/example.sol\":416:446  string public msgB = \"hello B\" */\n    tag_7:\n      0x00\n      dup1\n      sload\n      tag_16\n      swap1\n      tag_17\n      jump\t// in\n    tag_16:\n      dup1\n      0x1f\n      add\n      0x20\n      dup1\n      swap2\n      div\n      mul\n      0x20\n      add\n      mload(0x40)\n      swap1\n      dup2\n      add\n      0x40\n      mstore\n      dup1\n      swap3\n      swap2\n      swap1\n      dup2\n      dup2\n      mstore\n      0x20\n      add\n      dup3\n      dup1\n      sload\n      tag_18\n      swap1\n      tag_17\n      jump\t// in\n    tag_18:\n      dup1\n      iszero\n      tag_19\n      jumpi\n      dup1\n      0x1f\n      lt\n      tag_20\n      jumpi\n      0x0100\n      dup1\n      dup4\n      sload\n      div\n      mul\n      dup4\n      mstore\n      swap2\n      0x20\n      add\n      swap2\n      jump(tag_19)\n    tag_20:\n      dup3\n      add\n      swap2\n      swap1\n      0x00\n      mstore\n      keccak256(0x00, 0x20)\n      swap1\n    tag_21:\n      dup2\n      sload\n      dup2\n      mstore\n      swap1\n      0x01\n      add\n      swap1\n      0x20\n      add\n      dup1\n      dup4\n      gt\n      tag_21\n      jumpi\n      dup3\n      swap1\n      sub\n      0x1f\n      and\n      dup3\n      add\n      swap2\n    tag_19:\n      pop\n      pop\n      pop\n      pop\n      pop\n      dup2\n      jump\t// out\n        /* \"contracts/example.sol\":518:605  function print() public virtual view returns(string memory){... */\n    tag_11:\n        /* \"contracts/example.sol\":563:576  string memory */\n      0x60\n        /* \"contracts/example.sol\":594:598  msgB */\n      0x00\n        /* \"contracts/example.sol\":587:598  return msgB */\n      dup1\n      sload\n      tag_23\n      swap1\n      tag_17\n      jump\t// in\n    tag_23:\n      dup1\n      0x1f\n      add\n      0x20\n      dup1\n      swap2\n      div\n      mul\n      0x20\n      add\n      mload(0x40)\n      swap1\n      dup2\n      add\n      0x40\n      mstore\n      dup1\n      swap3\n      swap2\n      swap1\n      dup2\n      dup2\n      mstore\n      0x20\n      add\n      dup3\n      dup1\n      sload\n      tag_24\n      swap1\n      tag_17\n      jump\t// in\n    tag_24:\n      dup1\n      iszero\n      tag_25\n      jumpi\n      dup1\n      0x1f\n      lt\n      tag_26\n      jumpi\n      0x0100\n      dup1\n      dup4\n      sload\n      div\n      mul\n      dup4\n      mstore\n      swap2\n      0x20\n      add\n      swap2\n      jump(tag_25)\n    tag_26:\n      dup3\n      add\n      swap2\n      swap1\n      0x00\n      mstore\n      keccak256(0x00, 0x20)\n      swap1\n    tag_27:\n      dup2\n      sload\n      dup2\n      mstore\n      swap1\n      0x01\n      add\n      swap1\n      0x20\n      add\n      dup1\n      dup4\n      gt\n      tag_27\n      jumpi\n      dup3\n      swap1\n      sub\n      0x1f\n      and\n      dup3\n      add\n      swap2\n    tag_25:\n      pop\n      pop\n      pop\n      pop\n      pop\n      swap1\n      pop\n        /* \"contracts/example.sol\":518:605  function print() public virtual view returns(string memory){... */\n      swap1\n      jump\t// out\n        /* \"contracts/example.sol\":611:696  function helloB() public pure returns(string memory){... */\n    tag_14:\n        /* \"contracts/example.sol\":649:662  string memory */\n      0x60\n        /* \"contracts/example.sol\":673:689  return \"Hello B\" */\n      mload(0x40)\n      dup1\n      0x40\n      add\n      0x40\n      mstore\n      dup1\n      0x07\n      dup2\n      mstore\n      0x20\n      add\n      0x48656c6c6f204200000000000000000000000000000000000000000000000000\n      dup2\n      mstore\n      pop\n      swap1\n      pop\n        /* \"contracts/example.sol\":611:696  function helloB() public pure returns(string memory){... */\n      swap1\n      jump\t// out\n        /* \"#utility.yul\":7:106   */\n    tag_29:\n        /* \"#utility.yul\":59:65   */\n      0x00\n        /* \"#utility.yul\":93:98   */\n      dup2\n        /* \"#utility.yul\":87:99   */\n      mload\n        /* \"#utility.yul\":77:99   */\n      swap1\n      pop\n        /* \"#utility.yul\":7:106   */\n      swap2\n      swap1\n      pop\n      jump\t// out\n        /* \"#utility.yul\":112:281   */\n    tag_30:\n        /* \"#utility.yul\":196:207   */\n      0x00\n        /* \"#utility.yul\":230:236   */\n      dup3\n        /* \"#utility.yul\":225:228   */\n      dup3\n        /* \"#utility.yul\":218:237   */\n      mstore\n        /* \"#utility.yul\":270:274   */\n      0x20\n        /* \"#utility.yul\":265:268   */\n      dup3\n        /* \"#utility.yul\":261:275   */\n      add\n        /* \"#utility.yul\":246:275   */\n      swap1\n      pop\n        /* \"#utility.yul\":112:281   */\n      swap3\n      swap2\n      pop\n      pop\n      jump\t// out\n        /* \"#utility.yul\":287:594   */\n    tag_31:\n        /* \"#utility.yul\":355:356   */\n      0x00\n        /* \"#utility.yul\":365:478   */\n    tag_39:\n        /* \"#utility.yul\":379:385   */\n      dup4\n        /* \"#utility.yul\":376:377   */\n      dup2\n        /* \"#utility.yul\":373:386   */\n      lt\n        /* \"#utility.yul\":365:478   */\n      iszero\n      tag_41\n      jumpi\n        /* \"#utility.yul\":464:465   */\n      dup1\n        /* \"#utility.yul\":459:462   */\n      dup3\n        /* \"#utility.yul\":455:466   */\n      add\n        /* \"#utility.yul\":449:467   */\n      mload\n        /* \"#utility.yul\":445:446   */\n      dup2\n        /* \"#utility.yul\":440:443   */\n      dup5\n        /* \"#utility.yul\":436:447   */\n      add\n        /* \"#utility.yul\":429:468   */\n      mstore\n        /* \"#utility.yul\":401:403   */\n      0x20\n        /* \"#utility.yul\":398:399   */\n      dup2\n        /* \"#utility.yul\":394:404   */\n      add\n        /* \"#utility.yul\":389:404   */\n      swap1\n      pop\n        /* \"#utility.yul\":365:478   */\n      jump(tag_39)\n    tag_41:\n        /* \"#utility.yul\":496:502   */\n      dup4\n        /* \"#utility.yul\":493:494   */\n      dup2\n        /* \"#utility.yul\":490:503   */\n      gt\n        /* \"#utility.yul\":487:588   */\n      iszero\n      tag_42\n      jumpi\n        /* \"#utility.yul\":576:577   */\n      0x00\n        /* \"#utility.yul\":567:573   */\n      dup5\n        /* \"#utility.yul\":562:565   */\n      dup5\n        /* \"#utility.yul\":558:574   */\n      add\n        /* \"#utility.yul\":551:578   */\n      mstore\n        /* \"#utility.yul\":487:588   */\n    tag_42:\n        /* \"#utility.yul\":336:594   */\n      pop\n        /* \"#utility.yul\":287:594   */\n      pop\n      pop\n      pop\n      jump\t// out\n        /* \"#utility.yul\":600:702   */\n    tag_32:\n        /* \"#utility.yul\":641:647   */\n      0x00\n        /* \"#utility.yul\":692:694   */\n      0x1f\n        /* \"#utility.yul\":688:695   */\n      not\n        /* \"#utility.yul\":683:685   */\n      0x1f\n        /* \"#utility.yul\":676:681   */\n      dup4\n        /* \"#utility.yul\":672:686   */\n      add\n        /* \"#utility.yul\":668:696   */\n      and\n        /* \"#utility.yul\":658:696   */\n      swap1\n      pop\n        /* \"#utility.yul\":600:702   */\n      swap2\n      swap1\n      pop\n      jump\t// out\n        /* \"#utility.yul\":708:1072   */\n    tag_33:\n        /* \"#utility.yul\":796:799   */\n      0x00\n        /* \"#utility.yul\":824:863   */\n      tag_45\n        /* \"#utility.yul\":857:862   */\n      dup3\n        /* \"#utility.yul\":824:863   */\n      tag_29\n      jump\t// in\n    tag_45:\n        /* \"#utility.yul\":879:950   */\n      tag_46\n        /* \"#utility.yul\":943:949   */\n      dup2\n        /* \"#utility.yul\":938:941   */\n      dup6\n        /* \"#utility.yul\":879:950   */\n      tag_30\n      jump\t// in\n    tag_46:\n        /* \"#utility.yul\":872:950   */\n      swap4\n      pop\n        /* \"#utility.yul\":959:1011   */\n      tag_47\n        /* \"#utility.yul\":1004:1010   */\n      dup2\n        /* \"#utility.yul\":999:1002   */\n      dup6\n        /* \"#utility.yul\":992:996   */\n      0x20\n        /* \"#utility.yul\":985:990   */\n      dup7\n        /* \"#utility.yul\":981:997   */\n      add\n        /* \"#utility.yul\":959:1011   */\n      tag_31\n      jump\t// in\n    tag_47:\n        /* \"#utility.yul\":1036:1065   */\n      tag_48\n        /* \"#utility.yul\":1058:1064   */\n      dup2\n        /* \"#utility.yul\":1036:1065   */\n      tag_32\n      jump\t// in\n    tag_48:\n        /* \"#utility.yul\":1031:1034   */\n      dup5\n        /* \"#utility.yul\":1027:1066   */\n      add\n        /* \"#utility.yul\":1020:1066   */\n      swap2\n      pop\n        /* \"#utility.yul\":800:1072   */\n      pop\n        /* \"#utility.yul\":708:1072   */\n      swap3\n      swap2\n      pop\n      pop\n      jump\t// out\n        /* \"#utility.yul\":1078:1391   */\n    tag_9:\n        /* \"#utility.yul\":1191:1195   */\n      0x00\n        /* \"#utility.yul\":1229:1231   */\n      0x20\n        /* \"#utility.yul\":1218:1227   */\n      dup3\n        /* \"#utility.yul\":1214:1232   */\n      add\n        /* \"#utility.yul\":1206:1232   */\n      swap1\n      pop\n        /* \"#utility.yul\":1278:1287   */\n      dup2\n        /* \"#utility.yul\":1272:1276   */\n      dup2\n        /* \"#utility.yul\":1268:1288   */\n      sub\n        /* \"#utility.yul\":1264:1265   */\n      0x00\n        /* \"#utility.yul\":1253:1262   */\n      dup4\n        /* \"#utility.yul\":1249:1266   */\n      add\n        /* \"#utility.yul\":1242:1289   */\n      mstore\n        /* \"#utility.yul\":1306:1384   */\n      tag_50\n        /* \"#utility.yul\":1379:1383   */\n      dup2\n        /* \"#utility.yul\":1370:1376   */\n      dup5\n        /* \"#utility.yul\":1306:1384   */\n      tag_33\n      jump\t// in\n    tag_50:\n        /* \"#utility.yul\":1298:1384   */\n      swap1\n      pop\n        /* \"#utility.yul\":1078:1391   */\n      swap3\n      swap2\n      pop\n      pop\n      jump\t// out\n        /* \"#utility.yul\":1397:1577   */\n    tag_34:\n        /* \"#utility.yul\":1445:1522   */\n      0x4e487b7100000000000000000000000000000000000000000000000000000000\n        /* \"#utility.yul\":1442:1443   */\n      0x00\n        /* \"#utility.yul\":1435:1523   */\n      mstore\n        /* \"#utility.yul\":1542:1546   */\n      0x22\n        /* \"#utility.yul\":1539:1540   */\n      0x04\n        /* \"#utility.yul\":1532:1547   */\n      mstore\n        /* \"#utility.yul\":1566:1570   */\n      0x24\n        /* \"#utility.yul\":1563:1564   */\n      0x00\n        /* \"#utility.yul\":1556:1571   */\n      revert\n        /* \"#utility.yul\":1583:1903   */\n    tag_17:\n        /* \"#utility.yul\":1627:1633   */\n      0x00\n        /* \"#utility.yul\":1664:1665   */\n      0x02\n        /* \"#utility.yul\":1658:1662   */\n      dup3\n        /* \"#utility.yul\":1654:1666   */\n      div\n        /* \"#utility.yul\":1644:1666   */\n      swap1\n      pop\n        /* \"#utility.yul\":1711:1712   */\n      0x01\n        /* \"#utility.yul\":1705:1709   */\n      dup3\n        /* \"#utility.yul\":1701:1713   */\n      and\n        /* \"#utility.yul\":1732:1750   */\n      dup1\n        /* \"#utility.yul\":1722:1803   */\n      tag_53\n      jumpi\n        /* \"#utility.yul\":1788:1792   */\n      0x7f\n        /* \"#utility.yul\":1780:1786   */\n      dup3\n        /* \"#utility.yul\":1776:1793   */\n      and\n        /* \"#utility.yul\":1766:1793   */\n      swap2\n      pop\n        /* \"#utility.yul\":1722:1803   */\n    tag_53:\n        /* \"#utility.yul\":1850:1852   */\n      0x20\n        /* \"#utility.yul\":1842:1848   */\n      dup3\n        /* \"#utility.yul\":1839:1853   */\n      lt\n        /* \"#utility.yul\":1819:1837   */\n      dup2\n        /* \"#utility.yul\":1816:1854   */\n      sub\n        /* \"#utility.yul\":1813:1897   */\n      tag_54\n      jumpi\n        /* \"#utility.yul\":1869:1887   */\n      tag_55\n      tag_34\n      jump\t// in\n    tag_55:\n        /* \"#utility.yul\":1813:1897   */\n    tag_54:\n        /* \"#utility.yul\":1634:1903   */\n      pop\n        /* \"#utility.yul\":1583:1903   */\n      swap2\n      swap1\n      pop\n      jump\t// out\n\n    auxdata: 0xa2646970667358221220a7e7948609c2d786f3cc537108c90c9bc742335c1b61d6262017858caa69319c64736f6c634300080f0033\n}\n",
				"bytecode": {
					"linkReferences": {},
					"object": "60806040526040518060400160405280600781526020017f68656c6c6f204200000000000000000000000000000000000000000000000000815250600090816200004a919062000311565b503480156200005857600080fd5b50604051620009153803806200091583398181016040528101906200007e919062000566565b80600090816200008f919062000311565b5050620005b7565b600081519050919050565b7f4e487b7100000000000000000000000000000000000000000000000000000000600052604160045260246000fd5b7f4e487b7100000000000000000000000000000000000000000000000000000000600052602260045260246000fd5b600060028204905060018216806200011957607f821691505b6020821081036200012f576200012e620000d1565b5b50919050565b60008190508160005260206000209050919050565b60006020601f8301049050919050565b600082821b905092915050565b600060088302620001997fffffffffffffffffffffffffffffffffffffffffffffffffffffffffffffffff826200015a565b620001a586836200015a565b95508019841693508086168417925050509392505050565b6000819050919050565b6000819050919050565b6000620001f2620001ec620001e684620001bd565b620001c7565b620001bd565b9050919050565b6000819050919050565b6200020e83620001d1565b620002266200021d82620001f9565b84845462000167565b825550505050565b600090565b6200023d6200022e565b6200024a81848462000203565b505050565b5b8181101562000272576200026660008262000233565b60018101905062000250565b5050565b601f821115620002c1576200028b8162000135565b62000296846200014a565b81016020851015620002a6578190505b620002be620002b5856200014a565b8301826200024f565b50505b505050565b600082821c905092915050565b6000620002e660001984600802620002c6565b1980831691505092915050565b6000620003018383620002d3565b9150826002028217905092915050565b6200031c8262000097565b67ffffffffffffffff811115620003385762000337620000a2565b5b62000344825462000100565b6200035182828562000276565b600060209050601f83116001811462000389576000841562000374578287015190505b620003808582620002f3565b865550620003f0565b601f198416620003998662000135565b60005b82811015620003c3578489015182556001820191506020850194506020810190506200039c565b86831015620003e35784890151620003df601f891682620002d3565b8355505b6001600288020188555050505b505050505050565b6000604051905090565b600080fd5b600080fd5b600080fd5b600080fd5b6000601f19601f8301169050919050565b620004328262000416565b810181811067ffffffffffffffff82111715620004545762000453620000a2565b5b80604052505050565b600062000469620003f8565b905062000477828262000427565b919050565b600067ffffffffffffffff8211156200049a5762000499620000a2565b5b620004a58262000416565b9050602081019050919050565b60005b83811015620004d2578082015181840152602081019050620004b5565b83811115620004e2576000848401525b50505050565b6000620004ff620004f9846200047c565b6200045d565b9050828152602081018484840111156200051e576200051d62000411565b5b6200052b848285620004b2565b509392505050565b600082601f8301126200054b576200054a6200040c565b5b81516200055d848260208601620004e8565b91505092915050565b6000602082840312156200057f576200057e62000402565b5b600082015167ffffffffffffffff811115620005a0576200059f62000407565b5b620005ae8482850162000533565b91505092915050565b61034e80620005c76000396000f3fe608060405234801561001057600080fd5b50600436106100415760003560e01c80630c22c5ea1461004657806313bdfacd14610064578063599a236414610082575b600080fd5b61004e6100a0565b60405161005b9190610296565b60405180910390f35b61006c61012e565b6040516100799190610296565b60405180910390f35b61008a6101c0565b6040516100979190610296565b60405180910390f35b600080546100ad906102e7565b80601f01602080910402602001604051908101604052809291908181526020018280546100d9906102e7565b80156101265780601f106100fb57610100808354040283529160200191610126565b820191906000526020600020905b81548152906001019060200180831161010957829003601f168201915b505050505081565b60606000805461013d906102e7565b80601f0160208091040260200160405190810160405280929190818152602001828054610169906102e7565b80156101b65780601f1061018b576101008083540402835291602001916101b6565b820191906000526020600020905b81548152906001019060200180831161019957829003601f168201915b5050505050905090565b60606040518060400160405280600781526020017f48656c6c6f204200000000000000000000000000000000000000000000000000815250905090565b600081519050919050565b600082825260208201905092915050565b60005b8381101561023757808201518184015260208101905061021c565b83811115610246576000848401525b50505050565b6000601f19601f8301169050919050565b6000610268826101fd565b6102728185610208565b9350610282818560208601610219565b61028b8161024c565b840191505092915050565b600060208201905081810360008301526102b0818461025d565b905092915050565b7f4e487b7100000000000000000000000000000000000000000000000000000000600052602260045260246000fd5b600060028204905060018216806102ff57607f821691505b602082108103610312576103116102b8565b5b5091905056fea2646970667358221220a7e7948609c2d786f3cc537108c90c9bc742335c1b61d6262017858caa69319c64736f6c634300080f0033",
					"opcodes": "PUSH1 0x80 PUSH1 0x40 MSTORE PUSH1 0x40 MLOAD DUP1 PUSH1 0x40 ADD PUSH1 0x40 MSTORE DUP1 PUSH1 0x7 DUP2 MSTORE PUSH1 0x20 ADD PUSH32 0x68656C6C6F204200000000000000000000000000000000000000000000000000 DUP2 MSTORE POP PUSH1 0x0 SWAP1 DUP2 PUSH3 0x4A SWAP2 SWAP1 PUSH3 0x311 JUMP JUMPDEST POP CALLVALUE DUP1 ISZERO PUSH3 0x58 JUMPI PUSH1 0x0 DUP1 REVERT JUMPDEST POP PUSH1 0x40 MLOAD PUSH3 0x915 CODESIZE SUB DUP1 PUSH3 0x915 DUP4 CODECOPY DUP2 DUP2 ADD PUSH1 0x40 MSTORE DUP2 ADD SWAP1 PUSH3 0x7E SWAP2 SWAP1 PUSH3 0x566 JUMP JUMPDEST DUP1 PUSH1 0x0 SWAP1 DUP2 PUSH3 0x8F SWAP2 SWAP1 PUSH3 0x311 JUMP JUMPDEST POP POP PUSH3 0x5B7 JUMP JUMPDEST PUSH1 0x0 DUP2 MLOAD SWAP1 POP SWAP2 SWAP1 POP JUMP JUMPDEST PUSH32 0x4E487B7100000000000000000000000000000000000000000000000000000000 PUSH1 0x0 MSTORE PUSH1 0x41 PUSH1 0x4 MSTORE PUSH1 0x24 PUSH1 0x0 REVERT JUMPDEST PUSH32 0x4E487B7100000000000000000000000000000000000000000000000000000000 PUSH1 0x0 MSTORE PUSH1 0x22 PUSH1 0x4 MSTORE PUSH1 0x24 PUSH1 0x0 REVERT JUMPDEST PUSH1 0x0 PUSH1 0x2 DUP3 DIV SWAP1 POP PUSH1 0x1 DUP3 AND DUP1 PUSH3 0x119 JUMPI PUSH1 0x7F DUP3 AND SWAP2 POP JUMPDEST PUSH1 0x20 DUP3 LT DUP2 SUB PUSH3 0x12F JUMPI PUSH3 0x12E PUSH3 0xD1 JUMP JUMPDEST JUMPDEST POP SWAP2 SWAP1 POP JUMP JUMPDEST PUSH1 0x0 DUP2 SWAP1 POP DUP2 PUSH1 0x0 MSTORE PUSH1 0x20 PUSH1 0x0 KECCAK256 SWAP1 POP SWAP2 SWAP1 POP JUMP JUMPDEST PUSH1 0x0 PUSH1 0x20 PUSH1 0x1F DUP4 ADD DIV SWAP1 POP SWAP2 SWAP1 POP JUMP JUMPDEST PUSH1 0x0 DUP3 DUP3 SHL SWAP1 POP SWAP3 SWAP2 POP POP JUMP JUMPDEST PUSH1 0x0 PUSH1 0x8 DUP4 MUL PUSH3 0x199 PUSH32 0xFFFFFFFFFFFFFFFFFFFFFFFFFFFFFFFFFFFFFFFFFFFFFFFFFFFFFFFFFFFFFFFF DUP3 PUSH3 0x15A JUMP JUMPDEST PUSH3 0x1A5 DUP7 DUP4 PUSH3 0x15A JUMP JUMPDEST SWAP6 POP DUP1 NOT DUP5 AND SWAP4 POP DUP1 DUP7 AND DUP5 OR SWAP3 POP POP POP SWAP4 SWAP3 POP POP POP JUMP JUMPDEST PUSH1 0x0 DUP2 SWAP1 POP SWAP2 SWAP1 POP JUMP JUMPDEST PUSH1 0x0 DUP2 SWAP1 POP SWAP2 SWAP1 POP JUMP JUMPDEST PUSH1 0x0 PUSH3 0x1F2 PUSH3 0x1EC PUSH3 0x1E6 DUP5 PUSH3 0x1BD JUMP JUMPDEST PUSH3 0x1C7 JUMP JUMPDEST PUSH3 0x1BD JUMP JUMPDEST SWAP1 POP SWAP2 SWAP1 POP JUMP JUMPDEST PUSH1 0x0 DUP2 SWAP1 POP SWAP2 SWAP1 POP JUMP JUMPDEST PUSH3 0x20E DUP4 PUSH3 0x1D1 JUMP JUMPDEST PUSH3 0x226 PUSH3 0x21D DUP3 PUSH3 0x1F9 JUMP JUMPDEST DUP5 DUP5 SLOAD PUSH3 0x167 JUMP JUMPDEST DUP3 SSTORE POP POP POP POP JUMP JUMPDEST PUSH1 0x0 SWAP1 JUMP JUMPDEST PUSH3 0x23D PUSH3 0x22E JUMP JUMPDEST PUSH3 0x24A DUP2 DUP5 DUP5 PUSH3 0x203 JUMP JUMPDEST POP POP POP JUMP JUMPDEST JUMPDEST DUP2 DUP2 LT ISZERO PUSH3 0x272 JUMPI PUSH3 0x266 PUSH1 0x0 DUP3 PUSH3 0x233 JUMP JUMPDEST PUSH1 0x1 DUP2 ADD SWAP1 POP PUSH3 0x250 JUMP JUMPDEST POP POP JUMP JUMPDEST PUSH1 0x1F DUP3 GT ISZERO PUSH3 0x2C1 JUMPI PUSH3 0x28B DUP2 PUSH3 0x135 JUMP JUMPDEST PUSH3 0x296 DUP5 PUSH3 0x14A JUMP JUMPDEST DUP2 ADD PUSH1 0x20 DUP6 LT ISZERO PUSH3 0x2A6 JUMPI DUP2 SWAP1 POP JUMPDEST PUSH3 0x2BE PUSH3 0x2B5 DUP6 PUSH3 0x14A JUMP JUMPDEST DUP4 ADD DUP3 PUSH3 0x24F JUMP JUMPDEST POP POP JUMPDEST POP POP POP JUMP JUMPDEST PUSH1 0x0 DUP3 DUP3 SHR SWAP1 POP SWAP3 SWAP2 POP POP JUMP JUMPDEST PUSH1 0x0 PUSH3 0x2E6 PUSH1 0x0 NOT DUP5 PUSH1 0x8 MUL PUSH3 0x2C6 JUMP JUMPDEST NOT DUP1 DUP4 AND SWAP2 POP POP SWAP3 SWAP2 POP POP JUMP JUMPDEST PUSH1 0x0 PUSH3 0x301 DUP4 DUP4 PUSH3 0x2D3 JUMP JUMPDEST SWAP2 POP DUP3 PUSH1 0x2 MUL DUP3 OR SWAP1 POP SWAP3 SWAP2 POP POP JUMP JUMPDEST PUSH3 0x31C DUP3 PUSH3 0x97 JUMP JUMPDEST PUSH8 0xFFFFFFFFFFFFFFFF DUP2 GT ISZERO PUSH3 0x338 JUMPI PUSH3 0x337 PUSH3 0xA2 JUMP JUMPDEST JUMPDEST PUSH3 0x344 DUP3 SLOAD PUSH3 0x100 JUMP JUMPDEST PUSH3 0x351 DUP3 DUP3 DUP6 PUSH3 0x276 JUMP JUMPDEST PUSH1 0x0 PUSH1 0x20 SWAP1 POP PUSH1 0x1F DUP4 GT PUSH1 0x1 DUP2 EQ PUSH3 0x389 JUMPI PUSH1 0x0 DUP5 ISZERO PUSH3 0x374 JUMPI DUP3 DUP8 ADD MLOAD SWAP1 POP JUMPDEST PUSH3 0x380 DUP6 DUP3 PUSH3 0x2F3 JUMP JUMPDEST DUP7 SSTORE POP PUSH3 0x3F0 JUMP JUMPDEST PUSH1 0x1F NOT DUP5 AND PUSH3 0x399 DUP7 PUSH3 0x135 JUMP JUMPDEST PUSH1 0x0 JUMPDEST DUP3 DUP2 LT ISZERO PUSH3 0x3C3 JUMPI DUP5 DUP10 ADD MLOAD DUP3 SSTORE PUSH1 0x1 DUP3 ADD SWAP2 POP PUSH1 0x20 DUP6 ADD SWAP5 POP PUSH1 0x20 DUP2 ADD SWAP1 POP PUSH3 0x39C JUMP JUMPDEST DUP7 DUP4 LT ISZERO PUSH3 0x3E3 JUMPI DUP5 DUP10 ADD MLOAD PUSH3 0x3DF PUSH1 0x1F DUP10 AND DUP3 PUSH3 0x2D3 JUMP JUMPDEST DUP4 SSTORE POP JUMPDEST PUSH1 0x1 PUSH1 0x2 DUP9 MUL ADD DUP9 SSTORE POP POP POP JUMPDEST POP POP POP POP POP POP JUMP JUMPDEST PUSH1 0x0 PUSH1 0x40 MLOAD SWAP1 POP SWAP1 JUMP JUMPDEST PUSH1 0x0 DUP1 REVERT JUMPDEST PUSH1 0x0 DUP1 REVERT JUMPDEST PUSH1 0x0 DUP1 REVERT JUMPDEST PUSH1 0x0 DUP1 REVERT JUMPDEST PUSH1 0x0 PUSH1 0x1F NOT PUSH1 0x1F DUP4 ADD AND SWAP1 POP SWAP2 SWAP1 POP JUMP JUMPDEST PUSH3 0x432 DUP3 PUSH3 0x416 JUMP JUMPDEST DUP2 ADD DUP2 DUP2 LT PUSH8 0xFFFFFFFFFFFFFFFF DUP3 GT OR ISZERO PUSH3 0x454 JUMPI PUSH3 0x453 PUSH3 0xA2 JUMP JUMPDEST JUMPDEST DUP1 PUSH1 0x40 MSTORE POP POP POP JUMP JUMPDEST PUSH1 0x0 PUSH3 0x469 PUSH3 0x3F8 JUMP JUMPDEST SWAP1 POP PUSH3 0x477 DUP3 DUP3 PUSH3 0x427 JUMP JUMPDEST SWAP2 SWAP1 POP JUMP JUMPDEST PUSH1 0x0 PUSH8 0xFFFFFFFFFFFFFFFF DUP3 GT ISZERO PUSH3 0x49A JUMPI PUSH3 0x499 PUSH3 0xA2 JUMP JUMPDEST JUMPDEST PUSH3 0x4A5 DUP3 PUSH3 0x416 JUMP JUMPDEST SWAP1 POP PUSH1 0x20 DUP2 ADD SWAP1 POP SWAP2 SWAP1 POP JUMP JUMPDEST PUSH1 0x0 JUMPDEST DUP4 DUP2 LT ISZERO PUSH3 0x4D2 JUMPI DUP1 DUP3 ADD MLOAD DUP2 DUP5 ADD MSTORE PUSH1 0x20 DUP2 ADD SWAP1 POP PUSH3 0x4B5 JUMP JUMPDEST DUP4 DUP2 GT ISZERO PUSH3 0x4E2 JUMPI PUSH1 0x0 DUP5 DUP5 ADD MSTORE JUMPDEST POP POP POP POP JUMP JUMPDEST PUSH1 0x0 PUSH3 0x4FF PUSH3 0x4F9 DUP5 PUSH3 0x47C JUMP JUMPDEST PUSH3 0x45D JUMP JUMPDEST SWAP1 POP DUP3 DUP2 MSTORE PUSH1 0x20 DUP2 ADD DUP5 DUP5 DUP5 ADD GT ISZERO PUSH3 0x51E JUMPI PUSH3 0x51D PUSH3 0x411 JUMP JUMPDEST JUMPDEST PUSH3 0x52B DUP5 DUP3 DUP6 PUSH3 0x4B2 JUMP JUMPDEST POP SWAP4 SWAP3 POP POP POP JUMP JUMPDEST PUSH1 0x0 DUP3 PUSH1 0x1F DUP4 ADD SLT PUSH3 0x54B JUMPI PUSH3 0x54A PUSH3 0x40C JUMP JUMPDEST JUMPDEST DUP2 MLOAD PUSH3 0x55D DUP5 DUP3 PUSH1 0x20 DUP7 ADD PUSH3 0x4E8 JUMP JUMPDEST SWAP2 POP POP SWAP3 SWAP2 POP POP JUMP JUMPDEST PUSH1 0x0 PUSH1 0x20 DUP3 DUP5 SUB SLT ISZERO PUSH3 0x57F JUMPI PUSH3 0x57E PUSH3 0x402 JUMP JUMPDEST JUMPDEST PUSH1 0x0 DUP3 ADD MLOAD PUSH8 0xFFFFFFFFFFFFFFFF DUP2 GT ISZERO PUSH3 0x5A0 JUMPI PUSH3 0x59F PUSH3 0x407 JUMP JUMPDEST JUMPDEST PUSH3 0x5AE DUP5 DUP3 DUP6 ADD PUSH3 0x533 JUMP JUMPDEST SWAP2 POP POP SWAP3 SWAP2 POP POP JUMP JUMPDEST PUSH2 0x34E DUP1 PUSH3 0x5C7 PUSH1 0x0 CODECOPY PUSH1 0x0 RETURN INVALID PUSH1 0x80 PUSH1 0x40 MSTORE CALLVALUE DUP1 ISZERO PUSH2 0x10 JUMPI PUSH1 0x0 DUP1 REVERT JUMPDEST POP PUSH1 0x4 CALLDATASIZE LT PUSH2 0x41 JUMPI PUSH1 0x0 CALLDATALOAD PUSH1 0xE0 SHR DUP1 PUSH4 0xC22C5EA EQ PUSH2 0x46 JUMPI DUP1 PUSH4 0x13BDFACD EQ PUSH2 0x64 JUMPI DUP1 PUSH4 0x599A2364 EQ PUSH2 0x82 JUMPI JUMPDEST PUSH1 0x0 DUP1 REVERT JUMPDEST PUSH2 0x4E PUSH2 0xA0 JUMP JUMPDEST PUSH1 0x40 MLOAD PUSH2 0x5B SWAP2 SWAP1 PUSH2 0x296 JUMP JUMPDEST PUSH1 0x40 MLOAD DUP1 SWAP2 SUB SWAP1 RETURN JUMPDEST PUSH2 0x6C PUSH2 0x12E JUMP JUMPDEST PUSH1 0x40 MLOAD PUSH2 0x79 SWAP2 SWAP1 PUSH2 0x296 JUMP JUMPDEST PUSH1 0x40 MLOAD DUP1 SWAP2 SUB SWAP1 RETURN JUMPDEST PUSH2 0x8A PUSH2 0x1C0 JUMP JUMPDEST PUSH1 0x40 MLOAD PUSH2 0x97 SWAP2 SWAP1 PUSH2 0x296 JUMP JUMPDEST PUSH1 0x40 MLOAD DUP1 SWAP2 SUB SWAP1 RETURN JUMPDEST PUSH1 0x0 DUP1 SLOAD PUSH2 0xAD SWAP1 PUSH2 0x2E7 JUMP JUMPDEST DUP1 PUSH1 0x1F ADD PUSH1 0x20 DUP1 SWAP2 DIV MUL PUSH1 0x20 ADD PUSH1 0x40 MLOAD SWAP1 DUP2 ADD PUSH1 0x40 MSTORE DUP1 SWAP3 SWAP2 SWAP1 DUP2 DUP2 MSTORE PUSH1 0x20 ADD DUP3 DUP1 SLOAD PUSH2 0xD9 SWAP1 PUSH2 0x2E7 JUMP JUMPDEST DUP1 ISZERO PUSH2 0x126 JUMPI DUP1 PUSH1 0x1F LT PUSH2 0xFB JUMPI PUSH2 0x100 DUP1 DUP4 SLOAD DIV MUL DUP4 MSTORE SWAP2 PUSH1 0x20 ADD SWAP2 PUSH2 0x126 JUMP JUMPDEST DUP3 ADD SWAP2 SWAP1 PUSH1 0x0 MSTORE PUSH1 0x20 PUSH1 0x0 KECCAK256 SWAP1 JUMPDEST DUP2 SLOAD DUP2 MSTORE SWAP1 PUSH1 0x1 ADD SWAP1 PUSH1 0x20 ADD DUP1 DUP4 GT PUSH2 0x109 JUMPI DUP3 SWAP1 SUB PUSH1 0x1F AND DUP3 ADD SWAP2 JUMPDEST POP POP POP POP POP DUP2 JUMP JUMPDEST PUSH1 0x60 PUSH1 0x0 DUP1 SLOAD PUSH2 0x13D SWAP1 PUSH2 0x2E7 JUMP JUMPDEST DUP1 PUSH1 0x1F ADD PUSH1 0x20 DUP1 SWAP2 DIV MUL PUSH1 0x20 ADD PUSH1 0x40 MLOAD SWAP1 DUP2 ADD PUSH1 0x40 MSTORE DUP1 SWAP3 SWAP2 SWAP1 DUP2 DUP2 MSTORE PUSH1 0x20 ADD DUP3 DUP1 SLOAD PUSH2 0x169 SWAP1 PUSH2 0x2E7 JUMP JUMPDEST DUP1 ISZERO PUSH2 0x1B6 JUMPI DUP1 PUSH1 0x1F LT PUSH2 0x18B JUMPI PUSH2 0x100 DUP1 DUP4 SLOAD DIV MUL DUP4 MSTORE SWAP2 PUSH1 0x20 ADD SWAP2 PUSH2 0x1B6 JUMP JUMPDEST DUP3 ADD SWAP2 SWAP1 PUSH1 0x0 MSTORE PUSH1 0x20 PUSH1 0x0 KECCAK256 SWAP1 JUMPDEST DUP2 SLOAD DUP2 MSTORE SWAP1 PUSH1 0x1 ADD SWAP1 PUSH1 0x20 ADD DUP1 DUP4 GT PUSH2 0x199 JUMPI DUP3 SWAP1 SUB PUSH1 0x1F AND DUP3 ADD SWAP2 JUMPDEST POP POP POP POP POP SWAP1 POP SWAP1 JUMP JUMPDEST PUSH1 0x60 PUSH1 0x40 MLOAD DUP1 PUSH1 0x40 ADD PUSH1 0x40 MSTORE DUP1 PUSH1 0x7 DUP2 MSTORE PUSH1 0x20 ADD PUSH32 0x48656C6C6F204200000000000000000000000000000000000000000000000000 DUP2 MSTORE POP SWAP1 POP SWAP1 JUMP JUMPDEST PUSH1 0x0 DUP2 MLOAD SWAP1 POP SWAP2 SWAP1 POP JUMP JUMPDEST PUSH1 0x0 DUP3 DUP3 MSTORE PUSH1 0x20 DUP3 ADD SWAP1 POP SWAP3 SWAP2 POP POP JUMP JUMPDEST PUSH1 0x0 JUMPDEST DUP4 DUP2 LT ISZERO PUSH2 0x237 JUMPI DUP1 DUP3 ADD MLOAD DUP2 DUP5 ADD MSTORE PUSH1 0x20 DUP2 ADD SWAP1 POP PUSH2 0x21C JUMP JUMPDEST DUP4 DUP2 GT ISZERO PUSH2 0x246 JUMPI PUSH1 0x0 DUP5 DUP5 ADD MSTORE JUMPDEST POP POP POP POP JUMP JUMPDEST PUSH1 0x0 PUSH1 0x1F NOT PUSH1 0x1F DUP4 ADD AND SWAP1 POP SWAP2 SWAP1 POP JUMP JUMPDEST PUSH1 0x0 PUSH2 0x268 DUP3 PUSH2 0x1FD JUMP JUMPDEST PUSH2 0x272 DUP2 DUP6 PUSH2 0x208 JUMP JUMPDEST SWAP4 POP PUSH2 0x282 DUP2 DUP6 PUSH1 0x20 DUP7 ADD PUSH2 0x219 JUMP JUMPDEST PUSH2 0x28B DUP2 PUSH2 0x24C JUMP JUMPDEST DUP5 ADD SWAP2 POP POP SWAP3 SWAP2 POP POP JUMP JUMPDEST PUSH1 0x0 PUSH1 0x20 DUP3 ADD SWAP1 POP DUP2 DUP2 SUB PUSH1 0x0 DUP4 ADD MSTORE PUSH2 0x2B0 DUP2 DUP5 PUSH2 0x25D JUMP JUMPDEST SWAP1 POP SWAP3 SWAP2 POP POP JUMP JUMPDEST PUSH32 0x4E487B7100000000000000000000000000000000000000000000000000000000 PUSH1 0x0 MSTORE PUSH1 0x22 PUSH1 0x4 MSTORE PUSH1 0x24 PUSH1 0x0 REVERT JUMPDEST PUSH1 0x0 PUSH1 0x2 DUP3 DIV SWAP1 POP PUSH1 0x1 DUP3 AND DUP1 PUSH2 0x2FF JUMPI PUSH1 0x7F DUP3 AND SWAP2 POP JUMPDEST PUSH1 0x20 DUP3 LT DUP2 SUB PUSH2 0x312 JUMPI PUSH2 0x311 PUSH2 0x2B8 JUMP JUMPDEST JUMPDEST POP SWAP2 SWAP1 POP JUMP INVALID LOG2 PUSH5 0x6970667358 0x22 SLT KECCAK256 0xA7 0xE7 SWAP5 DUP7 MULMOD 0xC2 0xD7 DUP7 RETURN 0xCC MSTORE8 PUSH18 0x8C90C9BC742335C1B61D6262017858CAA69 BALANCE SWAP13 PUSH5 0x736F6C6343 STOP ADDMOD 0xF STOP CALLER "
				},
				"gasEstimates": {
					"creation": {
						"codeDepositCost": "169200",
						"executionCost": "infinite",
						"totalCost": "infinite"
					},
					"external": {
						"helloB()": "infinite",
						"msgB()": "infinite",
						"print()": "infinite"
					}
				},
				"methodIdentifiers": {
					"helloB()": "599a2364",
					"msgB()": "0c22c5ea",
					"print()": "13bdfacd"
				}
			},
			"storageLayout": {
				"storage": [
					{
						"astId": 34,
						"contract": "contracts/example.sol:B",
						"label": "msgB",
						"offset": 0,
						"slot": "0",
						"type": "t_string_storage"
					}
				],
				"types": {
					"t_string_storage": {
						"encoding": "bytes",
						"label": "string",
						"numberOfBytes": "32"
					}
				}
			},
			"userdoc": {
				"kind": "user",
				"methods": {},
				"version": 1
			}
		}
	}
}