{
	"contracts/example.sol": {
		"C": {
			"abi": [
				{
					"inputs": [
						{
							"internalType": "string",
							"name": "_msg",
							"type": "string"
						}
					],
					"stateMutability": "nonpayable",
					"type": "constructor"
				},
				{
					"inputs": [
						{
							"internalType": "string",
							"name": "_msg",
							"type": "string"
						}
					],
					"name": "changeMsgB",
					"outputs": [],
					"stateMutability": "nonpayable",
					"type": "function"
				},
				{
					"inputs": [],
					"name": "helloA",
					"outputs": [
						{
							"internalType": "string",
							"name": "",
							"type": "string"
						}
					],
					"stateMutability": "pure",
					"type": "function"
				},
				{
					"inputs": [],
					"name": "helloB",
					"outputs": [
						{
							"internalType": "string",
							"name": "",
							"type": "string"
						}
					],
					"stateMutability": "pure",
					"type": "function"
				},
				{
					"inputs": [],
					"name": "msgA",
					"outputs": [
						{
							"internalType": "string",
							"name": "",
							"type": "string"
						}
					],
					"stateMutability": "view",
					"type": "function"
				},
				{
					"inputs": [],
					"name": "msgB",
					"outputs": [
						{
							"internalType": "string",
							"name": "",
							"type": "string"
						}
					],
					"stateMutability": "view",
					"type": "function"
				},
				{
					"inputs": [],
					"name": "print",
					"outputs": [
						{
							"internalType": "string",
							"name": "",
							"type": "string"
						}
					],
					"stateMutability": "view",
					"type": "function"
				}
			],
			"devdoc": {
				"kind": "dev",
				"methods": {},
				"version": 1
			},
			"evm": {
				"assembly": "    /* \"contracts/example.sol\":871:1292  contract C is A, B{... */\n  mstore(0x40, 0x80)\n    /* \"contracts/example.sol\":72:102  string public msgA = \"hello A\" */\n  mload(0x40)\n  dup1\n  0x40\n  add\n  0x40\n  mstore\n  dup1\n  0x07\n  dup2\n  mstore\n  0x20\n  add\n  0x68656c6c6f204100000000000000000000000000000000000000000000000000\n  dup2\n  mstore\n  pop\n  0x00\n  swap1\n  dup2\n  tag_1\n  swap2\n  swap1\n  tag_2\n  jump\t// in\ntag_1:\n  pop\n    /* \"contracts/example.sol\":416:446  string public msgB = \"hello B\" */\n  mload(0x40)\n  dup1\n  0x40\n  add\n  0x40\n  mstore\n  dup1\n  0x07\n  dup2\n  mstore\n  0x20\n  add\n  0x68656c6c6f204200000000000000000000000000000000000000000000000000\n  dup2\n  mstore\n  pop\n  0x01\n  swap1\n  dup2\n  tag_3\n  swap2\n  swap1\n  tag_2\n  jump\t// in\ntag_3:\n  pop\n    /* \"contracts/example.sol\":896:957  constructor(string memory _msg) A(_msg) B(\"MessageB\"){... */\n  callvalue\n  dup1\n  iszero\n  tag_4\n  jumpi\n  0x00\n  dup1\n  revert\ntag_4:\n  pop\n  mload(0x40)\n  sub(codesize, bytecodeSize)\n  dup1\n  bytecodeSize\n  dup4\n  codecopy\n  dup2\n  dup2\n  add\n  0x40\n  mstore\n  dup2\n  add\n  swap1\n  tag_5\n  swap2\n  swap1\n  tag_6\n  jump\t// in\ntag_5:\n    /* \"contracts/example.sol\":453:512  constructor(string memory _msg){... */\n  mload(0x40)\n  dup1\n  0x40\n  add\n  0x40\n  mstore\n  dup1\n  0x08\n  dup2\n  mstore\n  0x20\n  add\n  0x4d65737361676542000000000000000000000000000000000000000000000000\n  dup2\n  mstore\n  pop\n    /* \"contracts/example.sol\":930:934  _msg */\n  dup2\n    /* \"contracts/example.sol\":157:161  _msg */\n  dup1\n    /* \"contracts/example.sol\":150:154  msgA */\n  0x00\n    /* \"contracts/example.sol\":150:161  msgA = _msg */\n  swap1\n  dup2\n  tag_11\n  swap2\n  swap1\n  tag_2\n  jump\t// in\ntag_11:\n  pop\n    /* \"contracts/example.sol\":109:168  constructor(string memory _msg){... */\n  pop\n    /* \"contracts/example.sol\":501:505  _msg */\n  dup1\n    /* \"contracts/example.sol\":494:498  msgB */\n  0x01\n    /* \"contracts/example.sol\":494:505  msgB = _msg */\n  swap1\n  dup2\n  tag_13\n  swap2\n  swap1\n  tag_2\n  jump\t// in\ntag_13:\n  pop\n    /* \"contracts/example.sol\":453:512  constructor(string memory _msg){... */\n  pop\n    /* \"contracts/example.sol\":896:957  constructor(string memory _msg) A(_msg) B(\"MessageB\"){... */\n  pop\n    /* \"contracts/example.sol\":871:1292  contract C is A, B{... */\n  jump(tag_15)\n    /* \"#utility.yul\":7:106   */\ntag_16:\n    /* \"#utility.yul\":59:65   */\n  0x00\n    /* \"#utility.yul\":93:98   */\n  dup2\n    /* \"#utility.yul\":87:99   */\n  mload\n    /* \"#utility.yul\":77:99   */\n  swap1\n  pop\n    /* \"#utility.yul\":7:106   */\n  swap2\n  swap1\n  pop\n  jump\t// out\n    /* \"#utility.yul\":112:292   */\ntag_17:\n    /* \"#utility.yul\":160:237   */\n  0x4e487b7100000000000000000000000000000000000000000000000000000000\n    /* \"#utility.yul\":157:158   */\n  0x00\n    /* \"#utility.yul\":150:238   */\n  mstore\n    /* \"#utility.yul\":257:261   */\n  0x41\n    /* \"#utility.yul\":254:255   */\n  0x04\n    /* \"#utility.yul\":247:262   */\n  mstore\n    /* \"#utility.yul\":281:285   */\n  0x24\n    /* \"#utility.yul\":278:279   */\n  0x00\n    /* \"#utility.yul\":271:286   */\n  revert\n    /* \"#utility.yul\":298:478   */\ntag_18:\n    /* \"#utility.yul\":346:423   */\n  0x4e487b7100000000000000000000000000000000000000000000000000000000\n    /* \"#utility.yul\":343:344   */\n  0x00\n    /* \"#utility.yul\":336:424   */\n  mstore\n    /* \"#utility.yul\":443:447   */\n  0x22\n    /* \"#utility.yul\":440:441   */\n  0x04\n    /* \"#utility.yul\":433:448   */\n  mstore\n    /* \"#utility.yul\":467:471   */\n  0x24\n    /* \"#utility.yul\":464:465   */\n  0x00\n    /* \"#utility.yul\":457:472   */\n  revert\n    /* \"#utility.yul\":484:804   */\ntag_19:\n    /* \"#utility.yul\":528:534   */\n  0x00\n    /* \"#utility.yul\":565:566   */\n  0x02\n    /* \"#utility.yul\":559:563   */\n  dup3\n    /* \"#utility.yul\":555:567   */\n  div\n    /* \"#utility.yul\":545:567   */\n  swap1\n  pop\n    /* \"#utility.yul\":612:613   */\n  0x01\n    /* \"#utility.yul\":606:610   */\n  dup3\n    /* \"#utility.yul\":602:614   */\n  and\n    /* \"#utility.yul\":633:651   */\n  dup1\n    /* \"#utility.yul\":623:704   */\n  tag_53\n  jumpi\n    /* \"#utility.yul\":689:693   */\n  0x7f\n    /* \"#utility.yul\":681:687   */\n  dup3\n    /* \"#utility.yul\":677:694   */\n  and\n    /* \"#utility.yul\":667:694   */\n  swap2\n  pop\n    /* \"#utility.yul\":623:704   */\ntag_53:\n    /* \"#utility.yul\":751:753   */\n  0x20\n    /* \"#utility.yul\":743:749   */\n  dup3\n    /* \"#utility.yul\":740:754   */\n  lt\n    /* \"#utility.yul\":720:738   */\n  dup2\n    /* \"#utility.yul\":717:755   */\n  sub\n    /* \"#utility.yul\":714:798   */\n  tag_54\n  jumpi\n    /* \"#utility.yul\":770:788   */\n  tag_55\n  tag_18\n  jump\t// in\ntag_55:\n    /* \"#utility.yul\":714:798   */\ntag_54:\n    /* \"#utility.yul\":535:804   */\n  pop\n    /* \"#utility.yul\":484:804   */\n  swap2\n  swap1\n  pop\n  jump\t// out\n    /* \"#utility.yul\":810:951   */\ntag_20:\n    /* \"#utility.yul\":859:863   */\n  0x00\n    /* \"#utility.yul\":882:885   */\n  dup2\n    /* \"#utility.yul\":874:885   */\n  swap1\n  pop\n    /* \"#utility.yul\":905:908   */\n  dup2\n    /* \"#utility.yul\":902:903   */\n  0x00\n    /* \"#utility.yul\":895:909   */\n  mstore\n    /* \"#utility.yul\":939:943   */\n  0x20\n    /* \"#utility.yul\":936:937   */\n  0x00\n    /* \"#utility.yul\":926:944   */\n  keccak256\n    /* \"#utility.yul\":918:944   */\n  swap1\n  pop\n    /* \"#utility.yul\":810:951   */\n  swap2\n  swap1\n  pop\n  jump\t// out\n    /* \"#utility.yul\":957:1050   */\ntag_21:\n    /* \"#utility.yul\":994:1000   */\n  0x00\n    /* \"#utility.yul\":1041:1043   */\n  0x20\n    /* \"#utility.yul\":1036:1038   */\n  0x1f\n    /* \"#utility.yul\":1029:1034   */\n  dup4\n    /* \"#utility.yul\":1025:1039   */\n  add\n    /* \"#utility.yul\":1021:1044   */\n  div\n    /* \"#utility.yul\":1011:1044   */\n  swap1\n  pop\n    /* \"#utility.yul\":957:1050   */\n  swap2\n  swap1\n  pop\n  jump\t// out\n    /* \"#utility.yul\":1056:1163   */\ntag_22:\n    /* \"#utility.yul\":1100:1108   */\n  0x00\n    /* \"#utility.yul\":1150:1155   */\n  dup3\n    /* \"#utility.yul\":1144:1148   */\n  dup3\n    /* \"#utility.yul\":1140:1156   */\n  shl\n    /* \"#utility.yul\":1119:1156   */\n  swap1\n  pop\n    /* \"#utility.yul\":1056:1163   */\n  swap3\n  swap2\n  pop\n  pop\n  jump\t// out\n    /* \"#utility.yul\":1169:1562   */\ntag_23:\n    /* \"#utility.yul\":1238:1244   */\n  0x00\n    /* \"#utility.yul\":1288:1289   */\n  0x08\n    /* \"#utility.yul\":1276:1286   */\n  dup4\n    /* \"#utility.yul\":1272:1290   */\n  mul\n    /* \"#utility.yul\":1311:1408   */\n  tag_60\n    /* \"#utility.yul\":1341:1407   */\n  0xffffffffffffffffffffffffffffffffffffffffffffffffffffffffffffffff\n    /* \"#utility.yul\":1330:1339   */\n  dup3\n    /* \"#utility.yul\":1311:1408   */\n  tag_22\n  jump\t// in\ntag_60:\n    /* \"#utility.yul\":1429:1468   */\n  tag_61\n    /* \"#utility.yul\":1459:1467   */\n  dup7\n    /* \"#utility.yul\":1448:1457   */\n  dup4\n    /* \"#utility.yul\":1429:1468   */\n  tag_22\n  jump\t// in\ntag_61:\n    /* \"#utility.yul\":1417:1468   */\n  swap6\n  pop\n    /* \"#utility.yul\":1501:1505   */\n  dup1\n    /* \"#utility.yul\":1497:1506   */\n  not\n    /* \"#utility.yul\":1490:1495   */\n  dup5\n    /* \"#utility.yul\":1486:1507   */\n  and\n    /* \"#utility.yul\":1477:1507   */\n  swap4\n  pop\n    /* \"#utility.yul\":1550:1554   */\n  dup1\n    /* \"#utility.yul\":1540:1548   */\n  dup7\n    /* \"#utility.yul\":1536:1555   */\n  and\n    /* \"#utility.yul\":1529:1534   */\n  dup5\n    /* \"#utility.yul\":1526:1556   */\n  or\n    /* \"#utility.yul\":1516:1556   */\n  swap3\n  pop\n    /* \"#utility.yul\":1245:1562   */\n  pop\n  pop\n    /* \"#utility.yul\":1169:1562   */\n  swap4\n  swap3\n  pop\n  pop\n  pop\n  jump\t// out\n    /* \"#utility.yul\":1568:1645   */\ntag_24:\n    /* \"#utility.yul\":1605:1612   */\n  0x00\n    /* \"#utility.yul\":1634:1639   */\n  dup2\n    /* \"#utility.yul\":1623:1639   */\n  swap1\n  pop\n    /* \"#utility.yul\":1568:1645   */\n  swap2\n  swap1\n  pop\n  jump\t// out\n    /* \"#utility.yul\":1651:1711   */\ntag_25:\n    /* \"#utility.yul\":1679:1682   */\n  0x00\n    /* \"#utility.yul\":1700:1705   */\n  dup2\n    /* \"#utility.yul\":1693:1705   */\n  swap1\n  pop\n    /* \"#utility.yul\":1651:1711   */\n  swap2\n  swap1\n  pop\n  jump\t// out\n    /* \"#utility.yul\":1717:1859   */\ntag_26:\n    /* \"#utility.yul\":1767:1776   */\n  0x00\n    /* \"#utility.yul\":1800:1853   */\n  tag_65\n    /* \"#utility.yul\":1818:1852   */\n  tag_66\n    /* \"#utility.yul\":1827:1851   */\n  tag_67\n    /* \"#utility.yul\":1845:1850   */\n  dup5\n    /* \"#utility.yul\":1827:1851   */\n  tag_24\n  jump\t// in\ntag_67:\n    /* \"#utility.yul\":1818:1852   */\n  tag_25\n  jump\t// in\ntag_66:\n    /* \"#utility.yul\":1800:1853   */\n  tag_24\n  jump\t// in\ntag_65:\n    /* \"#utility.yul\":1787:1853   */\n  swap1\n  pop\n    /* \"#utility.yul\":1717:1859   */\n  swap2\n  swap1\n  pop\n  jump\t// out\n    /* \"#utility.yul\":1865:1940   */\ntag_27:\n    /* \"#utility.yul\":1908:1911   */\n  0x00\n    /* \"#utility.yul\":1929:1934   */\n  dup2\n    /* \"#utility.yul\":1922:1934   */\n  swap1\n  pop\n    /* \"#utility.yul\":1865:1940   */\n  swap2\n  swap1\n  pop\n  jump\t// out\n    /* \"#utility.yul\":1946:2215   */\ntag_28:\n    /* \"#utility.yul\":2056:2095   */\n  tag_70\n    /* \"#utility.yul\":2087:2094   */\n  dup4\n    /* \"#utility.yul\":2056:2095   */\n  tag_26\n  jump\t// in\ntag_70:\n    /* \"#utility.yul\":2117:2208   */\n  tag_71\n    /* \"#utility.yul\":2166:2207   */\n  tag_72\n    /* \"#utility.yul\":2190:2206   */\n  dup3\n    /* \"#utility.yul\":2166:2207   */\n  tag_27\n  jump\t// in\ntag_72:\n    /* \"#utility.yul\":2158:2164   */\n  dup5\n    /* \"#utility.yul\":2151:2155   */\n  dup5\n    /* \"#utility.yul\":2145:2156   */\n  sload\n    /* \"#utility.yul\":2117:2208   */\n  tag_23\n  jump\t// in\ntag_71:\n    /* \"#utility.yul\":2111:2115   */\n  dup3\n    /* \"#utility.yul\":2104:2209   */\n  sstore\n    /* \"#utility.yul\":2022:2215   */\n  pop\n    /* \"#utility.yul\":1946:2215   */\n  pop\n  pop\n  pop\n  jump\t// out\n    /* \"#utility.yul\":2221:2294   */\ntag_29:\n    /* \"#utility.yul\":2266:2269   */\n  0x00\n    /* \"#utility.yul\":2221:2294   */\n  swap1\n  jump\t// out\n    /* \"#utility.yul\":2300:2489   */\ntag_30:\n    /* \"#utility.yul\":2377:2409   */\n  tag_75\n  tag_29\n  jump\t// in\ntag_75:\n    /* \"#utility.yul\":2418:2483   */\n  tag_76\n    /* \"#utility.yul\":2476:2482   */\n  dup2\n    /* \"#utility.yul\":2468:2474   */\n  dup5\n    /* \"#utility.yul\":2462:2466   */\n  dup5\n    /* \"#utility.yul\":2418:2483   */\n  tag_28\n  jump\t// in\ntag_76:\n    /* \"#utility.yul\":2353:2489   */\n  pop\n    /* \"#utility.yul\":2300:2489   */\n  pop\n  pop\n  jump\t// out\n    /* \"#utility.yul\":2495:2681   */\ntag_31:\n    /* \"#utility.yul\":2555:2675   */\ntag_78:\n    /* \"#utility.yul\":2572:2575   */\n  dup2\n    /* \"#utility.yul\":2565:2570   */\n  dup2\n    /* \"#utility.yul\":2562:2576   */\n  lt\n    /* \"#utility.yul\":2555:2675   */\n  iszero\n  tag_80\n  jumpi\n    /* \"#utility.yul\":2626:2665   */\n  tag_81\n    /* \"#utility.yul\":2663:2664   */\n  0x00\n    /* \"#utility.yul\":2656:2661   */\n  dup3\n    /* \"#utility.yul\":2626:2665   */\n  tag_30\n  jump\t// in\ntag_81:\n    /* \"#utility.yul\":2599:2600   */\n  0x01\n    /* \"#utility.yul\":2592:2597   */\n  dup2\n    /* \"#utility.yul\":2588:2601   */\n  add\n    /* \"#utility.yul\":2579:2601   */\n  swap1\n  pop\n    /* \"#utility.yul\":2555:2675   */\n  jump(tag_78)\ntag_80:\n    /* \"#utility.yul\":2495:2681   */\n  pop\n  pop\n  jump\t// out\n    /* \"#utility.yul\":2687:3230   */\ntag_32:\n    /* \"#utility.yul\":2788:2790   */\n  0x1f\n    /* \"#utility.yul\":2783:2786   */\n  dup3\n    /* \"#utility.yul\":2780:2791   */\n  gt\n    /* \"#utility.yul\":2777:3223   */\n  iszero\n  tag_83\n  jumpi\n    /* \"#utility.yul\":2822:2860   */\n  tag_84\n    /* \"#utility.yul\":2854:2859   */\n  dup2\n    /* \"#utility.yul\":2822:2860   */\n  tag_20\n  jump\t// in\ntag_84:\n    /* \"#utility.yul\":2906:2935   */\n  tag_85\n    /* \"#utility.yul\":2924:2934   */\n  dup5\n    /* \"#utility.yul\":2906:2935   */\n  tag_21\n  jump\t// in\ntag_85:\n    /* \"#utility.yul\":2896:2904   */\n  dup2\n    /* \"#utility.yul\":2892:2936   */\n  add\n    /* \"#utility.yul\":3089:3091   */\n  0x20\n    /* \"#utility.yul\":3077:3087   */\n  dup6\n    /* \"#utility.yul\":3074:3092   */\n  lt\n    /* \"#utility.yul\":3071:3120   */\n  iszero\n  tag_86\n  jumpi\n    /* \"#utility.yul\":3110:3118   */\n  dup2\n    /* \"#utility.yul\":3095:3118   */\n  swap1\n  pop\n    /* \"#utility.yul\":3071:3120   */\ntag_86:\n    /* \"#utility.yul\":3133:3213   */\n  tag_87\n    /* \"#utility.yul\":3189:3211   */\n  tag_88\n    /* \"#utility.yul\":3207:3210   */\n  dup6\n    /* \"#utility.yul\":3189:3211   */\n  tag_21\n  jump\t// in\ntag_88:\n    /* \"#utility.yul\":3179:3187   */\n  dup4\n    /* \"#utility.yul\":3175:3212   */\n  add\n    /* \"#utility.yul\":3162:3173   */\n  dup3\n    /* \"#utility.yul\":3133:3213   */\n  tag_31\n  jump\t// in\ntag_87:\n    /* \"#utility.yul\":2792:3223   */\n  pop\n  pop\n    /* \"#utility.yul\":2777:3223   */\ntag_83:\n    /* \"#utility.yul\":2687:3230   */\n  pop\n  pop\n  pop\n  jump\t// out\n    /* \"#utility.yul\":3236:3353   */\ntag_33:\n    /* \"#utility.yul\":3290:3298   */\n  0x00\n    /* \"#utility.yul\":3340:3345   */\n  dup3\n    /* \"#utility.yul\":3334:3338   */\n  dup3\n    /* \"#utility.yul\":3330:3346   */\n  shr\n    /* \"#utility.yul\":3309:3346   */\n  swap1\n  pop\n    /* \"#utility.yul\":3236:3353   */\n  swap3\n  swap2\n  pop\n  pop\n  jump\t// out\n    /* \"#utility.yul\":3359:3528   */\ntag_34:\n    /* \"#utility.yul\":3403:3409   */\n  0x00\n    /* \"#utility.yul\":3436:3487   */\n  tag_91\n    /* \"#utility.yul\":3484:3485   */\n  0x00\n    /* \"#utility.yul\":3480:3486   */\n  not\n    /* \"#utility.yul\":3472:3477   */\n  dup5\n    /* \"#utility.yul\":3469:3470   */\n  0x08\n    /* \"#utility.yul\":3465:3478   */\n  mul\n    /* \"#utility.yul\":3436:3487   */\n  tag_33\n  jump\t// in\ntag_91:\n    /* \"#utility.yul\":3432:3488   */\n  not\n    /* \"#utility.yul\":3517:3521   */\n  dup1\n    /* \"#utility.yul\":3511:3515   */\n  dup4\n    /* \"#utility.yul\":3507:3522   */\n  and\n    /* \"#utility.yul\":3497:3522   */\n  swap2\n  pop\n    /* \"#utility.yul\":3410:3528   */\n  pop\n    /* \"#utility.yul\":3359:3528   */\n  swap3\n  swap2\n  pop\n  pop\n  jump\t// out\n    /* \"#utility.yul\":3533:3828   */\ntag_35:\n    /* \"#utility.yul\":3609:3613   */\n  0x00\n    /* \"#utility.yul\":3755:3784   */\n  tag_93\n    /* \"#utility.yul\":3780:3783   */\n  dup4\n    /* \"#utility.yul\":3774:3778   */\n  dup4\n    /* \"#utility.yul\":3755:3784   */\n  tag_34\n  jump\t// in\ntag_93:\n    /* \"#utility.yul\":3747:3784   */\n  swap2\n  pop\n    /* \"#utility.yul\":3817:3820   */\n  dup3\n    /* \"#utility.yul\":3814:3815   */\n  0x02\n    /* \"#utility.yul\":3810:3821   */\n  mul\n    /* \"#utility.yul\":3804:3808   */\n  dup3\n    /* \"#utility.yul\":3801:3822   */\n  or\n    /* \"#utility.yul\":3793:3822   */\n  swap1\n  pop\n    /* \"#utility.yul\":3533:3828   */\n  swap3\n  swap2\n  pop\n  pop\n  jump\t// out\n    /* \"#utility.yul\":3833:5228   */\ntag_2:\n    /* \"#utility.yul\":3950:3987   */\n  tag_95\n    /* \"#utility.yul\":3983:3986   */\n  dup3\n    /* \"#utility.yul\":3950:3987   */\n  tag_16\n  jump\t// in\ntag_95:\n    /* \"#utility.yul\":4052:4070   */\n  0xffffffffffffffff\n    /* \"#utility.yul\":4044:4050   */\n  dup2\n    /* \"#utility.yul\":4041:4071   */\n  gt\n    /* \"#utility.yul\":4038:4094   */\n  iszero\n  tag_96\n  jumpi\n    /* \"#utility.yul\":4074:4092   */\n  tag_97\n  tag_17\n  jump\t// in\ntag_97:\n    /* \"#utility.yul\":4038:4094   */\ntag_96:\n    /* \"#utility.yul\":4118:4156   */\n  tag_98\n    /* \"#utility.yul\":4150:4154   */\n  dup3\n    /* \"#utility.yul\":4144:4155   */\n  sload\n    /* \"#utility.yul\":4118:4156   */\n  tag_19\n  jump\t// in\ntag_98:\n    /* \"#utility.yul\":4203:4270   */\n  tag_99\n    /* \"#utility.yul\":4263:4269   */\n  dup3\n    /* \"#utility.yul\":4255:4261   */\n  dup3\n    /* \"#utility.yul\":4249:4253   */\n  dup6\n    /* \"#utility.yul\":4203:4270   */\n  tag_32\n  jump\t// in\ntag_99:\n    /* \"#utility.yul\":4297:4298   */\n  0x00\n    /* \"#utility.yul\":4321:4325   */\n  0x20\n    /* \"#utility.yul\":4308:4325   */\n  swap1\n  pop\n    /* \"#utility.yul\":4353:4355   */\n  0x1f\n    /* \"#utility.yul\":4345:4351   */\n  dup4\n    /* \"#utility.yul\":4342:4356   */\n  gt\n    /* \"#utility.yul\":4370:4371   */\n  0x01\n    /* \"#utility.yul\":4365:4983   */\n  dup2\n  eq\n  tag_101\n  jumpi\n    /* \"#utility.yul\":5027:5028   */\n  0x00\n    /* \"#utility.yul\":5044:5050   */\n  dup5\n    /* \"#utility.yul\":5041:5118   */\n  iszero\n  tag_102\n  jumpi\n    /* \"#utility.yul\":5093:5102   */\n  dup3\n    /* \"#utility.yul\":5088:5091   */\n  dup8\n    /* \"#utility.yul\":5084:5103   */\n  add\n    /* \"#utility.yul\":5078:5104   */\n  mload\n    /* \"#utility.yul\":5069:5104   */\n  swap1\n  pop\n    /* \"#utility.yul\":5041:5118   */\ntag_102:\n    /* \"#utility.yul\":5144:5211   */\n  tag_103\n    /* \"#utility.yul\":5204:5210   */\n  dup6\n    /* \"#utility.yul\":5197:5202   */\n  dup3\n    /* \"#utility.yul\":5144:5211   */\n  tag_35\n  jump\t// in\ntag_103:\n    /* \"#utility.yul\":5138:5142   */\n  dup7\n    /* \"#utility.yul\":5131:5212   */\n  sstore\n    /* \"#utility.yul\":5000:5222   */\n  pop\n    /* \"#utility.yul\":4335:5222   */\n  jump(tag_100)\n    /* \"#utility.yul\":4365:4983   */\ntag_101:\n    /* \"#utility.yul\":4417:4421   */\n  0x1f\n    /* \"#utility.yul\":4413:4422   */\n  not\n    /* \"#utility.yul\":4405:4411   */\n  dup5\n    /* \"#utility.yul\":4401:4423   */\n  and\n    /* \"#utility.yul\":4451:4488   */\n  tag_104\n    /* \"#utility.yul\":4483:4487   */\n  dup7\n    /* \"#utility.yul\":4451:4488   */\n  tag_20\n  jump\t// in\ntag_104:\n    /* \"#utility.yul\":4510:4511   */\n  0x00\n    /* \"#utility.yul\":4524:4732   */\ntag_105:\n    /* \"#utility.yul\":4538:4545   */\n  dup3\n    /* \"#utility.yul\":4535:4536   */\n  dup2\n    /* \"#utility.yul\":4532:4546   */\n  lt\n    /* \"#utility.yul\":4524:4732   */\n  iszero\n  tag_107\n  jumpi\n    /* \"#utility.yul\":4617:4626   */\n  dup5\n    /* \"#utility.yul\":4612:4615   */\n  dup10\n    /* \"#utility.yul\":4608:4627   */\n  add\n    /* \"#utility.yul\":4602:4628   */\n  mload\n    /* \"#utility.yul\":4594:4600   */\n  dup3\n    /* \"#utility.yul\":4587:4629   */\n  sstore\n    /* \"#utility.yul\":4668:4669   */\n  0x01\n    /* \"#utility.yul\":4660:4666   */\n  dup3\n    /* \"#utility.yul\":4656:4670   */\n  add\n    /* \"#utility.yul\":4646:4670   */\n  swap2\n  pop\n    /* \"#utility.yul\":4715:4717   */\n  0x20\n    /* \"#utility.yul\":4704:4713   */\n  dup6\n    /* \"#utility.yul\":4700:4718   */\n  add\n    /* \"#utility.yul\":4687:4718   */\n  swap5\n  pop\n    /* \"#utility.yul\":4561:4565   */\n  0x20\n    /* \"#utility.yul\":4558:4559   */\n  dup2\n    /* \"#utility.yul\":4554:4566   */\n  add\n    /* \"#utility.yul\":4549:4566   */\n  swap1\n  pop\n    /* \"#utility.yul\":4524:4732   */\n  jump(tag_105)\ntag_107:\n    /* \"#utility.yul\":4760:4766   */\n  dup7\n    /* \"#utility.yul\":4751:4758   */\n  dup4\n    /* \"#utility.yul\":4748:4767   */\n  lt\n    /* \"#utility.yul\":4745:4924   */\n  iszero\n  tag_108\n  jumpi\n    /* \"#utility.yul\":4818:4827   */\n  dup5\n    /* \"#utility.yul\":4813:4816   */\n  dup10\n    /* \"#utility.yul\":4809:4828   */\n  add\n    /* \"#utility.yul\":4803:4829   */\n  mload\n    /* \"#utility.yul\":4861:4909   */\n  tag_109\n    /* \"#utility.yul\":4903:4907   */\n  0x1f\n    /* \"#utility.yul\":4895:4901   */\n  dup10\n    /* \"#utility.yul\":4891:4908   */\n  and\n    /* \"#utility.yul\":4880:4889   */\n  dup3\n    /* \"#utility.yul\":4861:4909   */\n  tag_34\n  jump\t// in\ntag_109:\n    /* \"#utility.yul\":4853:4859   */\n  dup4\n    /* \"#utility.yul\":4846:4910   */\n  sstore\n    /* \"#utility.yul\":4768:4924   */\n  pop\n    /* \"#utility.yul\":4745:4924   */\ntag_108:\n    /* \"#utility.yul\":4970:4971   */\n  0x01\n    /* \"#utility.yul\":4966:4967   */\n  0x02\n    /* \"#utility.yul\":4958:4964   */\n  dup9\n    /* \"#utility.yul\":4954:4968   */\n  mul\n    /* \"#utility.yul\":4950:4972   */\n  add\n    /* \"#utility.yul\":4944:4948   */\n  dup9\n    /* \"#utility.yul\":4937:4973   */\n  sstore\n    /* \"#utility.yul\":4372:4983   */\n  pop\n  pop\n  pop\n    /* \"#utility.yul\":4335:5222   */\ntag_100:\n  pop\n    /* \"#utility.yul\":3925:5228   */\n  pop\n  pop\n  pop\n    /* \"#utility.yul\":3833:5228   */\n  pop\n  pop\n  jump\t// out\n    /* \"#utility.yul\":5234:5309   */\ntag_36:\n    /* \"#utility.yul\":5267:5273   */\n  0x00\n    /* \"#utility.yul\":5300:5302   */\n  0x40\n    /* \"#utility.yul\":5294:5303   */\n  mload\n    /* \"#utility.yul\":5284:5303   */\n  swap1\n  pop\n    /* \"#utility.yul\":5234:5309   */\n  swap1\n  jump\t// out\n    /* \"#utility.yul\":5315:5432   */\ntag_37:\n    /* \"#utility.yul\":5424:5425   */\n  0x00\n    /* \"#utility.yul\":5421:5422   */\n  dup1\n    /* \"#utility.yul\":5414:5426   */\n  revert\n    /* \"#utility.yul\":5438:5555   */\ntag_38:\n    /* \"#utility.yul\":5547:5548   */\n  0x00\n    /* \"#utility.yul\":5544:5545   */\n  dup1\n    /* \"#utility.yul\":5537:5549   */\n  revert\n    /* \"#utility.yul\":5561:5678   */\ntag_39:\n    /* \"#utility.yul\":5670:5671   */\n  0x00\n    /* \"#utility.yul\":5667:5668   */\n  dup1\n    /* \"#utility.yul\":5660:5672   */\n  revert\n    /* \"#utility.yul\":5684:5801   */\ntag_40:\n    /* \"#utility.yul\":5793:5794   */\n  0x00\n    /* \"#utility.yul\":5790:5791   */\n  dup1\n    /* \"#utility.yul\":5783:5795   */\n  revert\n    /* \"#utility.yul\":5807:5909   */\ntag_41:\n    /* \"#utility.yul\":5848:5854   */\n  0x00\n    /* \"#utility.yul\":5899:5901   */\n  0x1f\n    /* \"#utility.yul\":5895:5902   */\n  not\n    /* \"#utility.yul\":5890:5892   */\n  0x1f\n    /* \"#utility.yul\":5883:5888   */\n  dup4\n    /* \"#utility.yul\":5879:5893   */\n  add\n    /* \"#utility.yul\":5875:5903   */\n  and\n    /* \"#utility.yul\":5865:5903   */\n  swap1\n  pop\n    /* \"#utility.yul\":5807:5909   */\n  swap2\n  swap1\n  pop\n  jump\t// out\n    /* \"#utility.yul\":5915:6196   */\ntag_42:\n    /* \"#utility.yul\":5998:6025   */\n  tag_117\n    /* \"#utility.yul\":6020:6024   */\n  dup3\n    /* \"#utility.yul\":5998:6025   */\n  tag_41\n  jump\t// in\ntag_117:\n    /* \"#utility.yul\":5990:5996   */\n  dup2\n    /* \"#utility.yul\":5986:6026   */\n  add\n    /* \"#utility.yul\":6128:6134   */\n  dup2\n    /* \"#utility.yul\":6116:6126   */\n  dup2\n    /* \"#utility.yul\":6113:6135   */\n  lt\n    /* \"#utility.yul\":6092:6110   */\n  0xffffffffffffffff\n    /* \"#utility.yul\":6080:6090   */\n  dup3\n    /* \"#utility.yul\":6077:6111   */\n  gt\n    /* \"#utility.yul\":6074:6136   */\n  or\n    /* \"#utility.yul\":6071:6159   */\n  iszero\n  tag_118\n  jumpi\n    /* \"#utility.yul\":6139:6157   */\n  tag_119\n  tag_17\n  jump\t// in\ntag_119:\n    /* \"#utility.yul\":6071:6159   */\ntag_118:\n    /* \"#utility.yul\":6179:6189   */\n  dup1\n    /* \"#utility.yul\":6175:6177   */\n  0x40\n    /* \"#utility.yul\":6168:6190   */\n  mstore\n    /* \"#utility.yul\":5958:6196   */\n  pop\n    /* \"#utility.yul\":5915:6196   */\n  pop\n  pop\n  jump\t// out\n    /* \"#utility.yul\":6202:6331   */\ntag_43:\n    /* \"#utility.yul\":6236:6242   */\n  0x00\n    /* \"#utility.yul\":6263:6283   */\n  tag_121\n  tag_36\n  jump\t// in\ntag_121:\n    /* \"#utility.yul\":6253:6283   */\n  swap1\n  pop\n    /* \"#utility.yul\":6292:6325   */\n  tag_122\n    /* \"#utility.yul\":6320:6324   */\n  dup3\n    /* \"#utility.yul\":6312:6318   */\n  dup3\n    /* \"#utility.yul\":6292:6325   */\n  tag_42\n  jump\t// in\ntag_122:\n    /* \"#utility.yul\":6202:6331   */\n  swap2\n  swap1\n  pop\n  jump\t// out\n    /* \"#utility.yul\":6337:6645   */\ntag_44:\n    /* \"#utility.yul\":6399:6403   */\n  0x00\n    /* \"#utility.yul\":6489:6507   */\n  0xffffffffffffffff\n    /* \"#utility.yul\":6481:6487   */\n  dup3\n    /* \"#utility.yul\":6478:6508   */\n  gt\n    /* \"#utility.yul\":6475:6531   */\n  iszero\n  tag_124\n  jumpi\n    /* \"#utility.yul\":6511:6529   */\n  tag_125\n  tag_17\n  jump\t// in\ntag_125:\n    /* \"#utility.yul\":6475:6531   */\ntag_124:\n    /* \"#utility.yul\":6549:6578   */\n  tag_126\n    /* \"#utility.yul\":6571:6577   */\n  dup3\n    /* \"#utility.yul\":6549:6578   */\n  tag_41\n  jump\t// in\ntag_126:\n    /* \"#utility.yul\":6541:6578   */\n  swap1\n  pop\n    /* \"#utility.yul\":6633:6637   */\n  0x20\n    /* \"#utility.yul\":6627:6631   */\n  dup2\n    /* \"#utility.yul\":6623:6638   */\n  add\n    /* \"#utility.yul\":6615:6638   */\n  swap1\n  pop\n    /* \"#utility.yul\":6337:6645   */\n  swap2\n  swap1\n  pop\n  jump\t// out\n    /* \"#utility.yul\":6651:6958   */\ntag_45:\n    /* \"#utility.yul\":6719:6720   */\n  0x00\n    /* \"#utility.yul\":6729:6842   */\ntag_128:\n    /* \"#utility.yul\":6743:6749   */\n  dup4\n    /* \"#utility.yul\":6740:6741   */\n  dup2\n    /* \"#utility.yul\":6737:6750   */\n  lt\n    /* \"#utility.yul\":6729:6842   */\n  iszero\n  tag_130\n  jumpi\n    /* \"#utility.yul\":6828:6829   */\n  dup1\n    /* \"#utility.yul\":6823:6826   */\n  dup3\n    /* \"#utility.yul\":6819:6830   */\n  add\n    /* \"#utility.yul\":6813:6831   */\n  mload\n    /* \"#utility.yul\":6809:6810   */\n  dup2\n    /* \"#utility.yul\":6804:6807   */\n  dup5\n    /* \"#utility.yul\":6800:6811   */\n  add\n    /* \"#utility.yul\":6793:6832   */\n  mstore\n    /* \"#utility.yul\":6765:6767   */\n  0x20\n    /* \"#utility.yul\":6762:6763   */\n  dup2\n    /* \"#utility.yul\":6758:6768   */\n  add\n    /* \"#utility.yul\":6753:6768   */\n  swap1\n  pop\n    /* \"#utility.yul\":6729:6842   */\n  jump(tag_128)\ntag_130:\n    /* \"#utility.yul\":6860:6866   */\n  dup4\n    /* \"#utility.yul\":6857:6858   */\n  dup2\n    /* \"#utility.yul\":6854:6867   */\n  gt\n    /* \"#utility.yul\":6851:6952   */\n  iszero\n  tag_131\n  jumpi\n    /* \"#utility.yul\":6940:6941   */\n  0x00\n    /* \"#utility.yul\":6931:6937   */\n  dup5\n    /* \"#utility.yul\":6926:6929   */\n  dup5\n    /* \"#utility.yul\":6922:6938   */\n  add\n    /* \"#utility.yul\":6915:6942   */\n  mstore\n    /* \"#utility.yul\":6851:6952   */\ntag_131:\n    /* \"#utility.yul\":6700:6958   */\n  pop\n    /* \"#utility.yul\":6651:6958   */\n  pop\n  pop\n  pop\n  jump\t// out\n    /* \"#utility.yul\":6964:7385   */\ntag_46:\n    /* \"#utility.yul\":7053:7058   */\n  0x00\n    /* \"#utility.yul\":7078:7144   */\n  tag_133\n    /* \"#utility.yul\":7094:7143   */\n  tag_134\n    /* \"#utility.yul\":7136:7142   */\n  dup5\n    /* \"#utility.yul\":7094:7143   */\n  tag_44\n  jump\t// in\ntag_134:\n    /* \"#utility.yul\":7078:7144   */\n  tag_43\n  jump\t// in\ntag_133:\n    /* \"#utility.yul\":7069:7144   */\n  swap1\n  pop\n    /* \"#utility.yul\":7167:7173   */\n  dup3\n    /* \"#utility.yul\":7160:7165   */\n  dup2\n    /* \"#utility.yul\":7153:7174   */\n  mstore\n    /* \"#utility.yul\":7205:7209   */\n  0x20\n    /* \"#utility.yul\":7198:7203   */\n  dup2\n    /* \"#utility.yul\":7194:7210   */\n  add\n    /* \"#utility.yul\":7243:7246   */\n  dup5\n    /* \"#utility.yul\":7234:7240   */\n  dup5\n    /* \"#utility.yul\":7229:7232   */\n  dup5\n    /* \"#utility.yul\":7225:7241   */\n  add\n    /* \"#utility.yul\":7222:7247   */\n  gt\n    /* \"#utility.yul\":7219:7331   */\n  iszero\n  tag_135\n  jumpi\n    /* \"#utility.yul\":7250:7329   */\n  tag_136\n  tag_40\n  jump\t// in\ntag_136:\n    /* \"#utility.yul\":7219:7331   */\ntag_135:\n    /* \"#utility.yul\":7340:7379   */\n  tag_137\n    /* \"#utility.yul\":7372:7378   */\n  dup5\n    /* \"#utility.yul\":7367:7370   */\n  dup3\n    /* \"#utility.yul\":7362:7365   */\n  dup6\n    /* \"#utility.yul\":7340:7379   */\n  tag_45\n  jump\t// in\ntag_137:\n    /* \"#utility.yul\":7059:7385   */\n  pop\n    /* \"#utility.yul\":6964:7385   */\n  swap4\n  swap3\n  pop\n  pop\n  pop\n  jump\t// out\n    /* \"#utility.yul\":7405:7760   */\ntag_47:\n    /* \"#utility.yul\":7472:7477   */\n  0x00\n    /* \"#utility.yul\":7521:7524   */\n  dup3\n    /* \"#utility.yul\":7514:7518   */\n  0x1f\n    /* \"#utility.yul\":7506:7512   */\n  dup4\n    /* \"#utility.yul\":7502:7519   */\n  add\n    /* \"#utility.yul\":7498:7525   */\n  slt\n    /* \"#utility.yul\":7488:7610   */\n  tag_139\n  jumpi\n    /* \"#utility.yul\":7529:7608   */\n  tag_140\n  tag_39\n  jump\t// in\ntag_140:\n    /* \"#utility.yul\":7488:7610   */\ntag_139:\n    /* \"#utility.yul\":7639:7645   */\n  dup2\n    /* \"#utility.yul\":7633:7646   */\n  mload\n    /* \"#utility.yul\":7664:7754   */\n  tag_141\n    /* \"#utility.yul\":7750:7753   */\n  dup5\n    /* \"#utility.yul\":7742:7748   */\n  dup3\n    /* \"#utility.yul\":7735:7739   */\n  0x20\n    /* \"#utility.yul\":7727:7733   */\n  dup7\n    /* \"#utility.yul\":7723:7740   */\n  add\n    /* \"#utility.yul\":7664:7754   */\n  tag_46\n  jump\t// in\ntag_141:\n    /* \"#utility.yul\":7655:7754   */\n  swap2\n  pop\n    /* \"#utility.yul\":7478:7760   */\n  pop\n    /* \"#utility.yul\":7405:7760   */\n  swap3\n  swap2\n  pop\n  pop\n  jump\t// out\n    /* \"#utility.yul\":7766:8290   */\ntag_6:\n    /* \"#utility.yul\":7846:7852   */\n  0x00\n    /* \"#utility.yul\":7895:7897   */\n  0x20\n    /* \"#utility.yul\":7883:7892   */\n  dup3\n    /* \"#utility.yul\":7874:7881   */\n  dup5\n    /* \"#utility.yul\":7870:7893   */\n  sub\n    /* \"#utility.yul\":7866:7898   */\n  slt\n    /* \"#utility.yul\":7863:7982   */\n  iszero\n  tag_143\n  jumpi\n    /* \"#utility.yul\":7901:7980   */\n  tag_144\n  tag_37\n  jump\t// in\ntag_144:\n    /* \"#utility.yul\":7863:7982   */\ntag_143:\n    /* \"#utility.yul\":8042:8043   */\n  0x00\n    /* \"#utility.yul\":8031:8040   */\n  dup3\n    /* \"#utility.yul\":8027:8044   */\n  add\n    /* \"#utility.yul\":8021:8045   */\n  mload\n    /* \"#utility.yul\":8072:8090   */\n  0xffffffffffffffff\n    /* \"#utility.yul\":8064:8070   */\n  dup2\n    /* \"#utility.yul\":8061:8091   */\n  gt\n    /* \"#utility.yul\":8058:8175   */\n  iszero\n  tag_145\n  jumpi\n    /* \"#utility.yul\":8094:8173   */\n  tag_146\n  tag_38\n  jump\t// in\ntag_146:\n    /* \"#utility.yul\":8058:8175   */\ntag_145:\n    /* \"#utility.yul\":8199:8273   */\n  tag_147\n    /* \"#utility.yul\":8265:8272   */\n  dup5\n    /* \"#utility.yul\":8256:8262   */\n  dup3\n    /* \"#utility.yul\":8245:8254   */\n  dup6\n    /* \"#utility.yul\":8241:8263   */\n  add\n    /* \"#utility.yul\":8199:8273   */\n  tag_47\n  jump\t// in\ntag_147:\n    /* \"#utility.yul\":8189:8273   */\n  swap2\n  pop\n    /* \"#utility.yul\":7992:8283   */\n  pop\n    /* \"#utility.yul\":7766:8290   */\n  swap3\n  swap2\n  pop\n  pop\n  jump\t// out\n    /* \"contracts/example.sol\":871:1292  contract C is A, B{... */\ntag_15:\n  dataSize(sub_0)\n  dup1\n  dataOffset(sub_0)\n  0x00\n  codecopy\n  0x00\n  return\nstop\n\nsub_0: assembly {\n        /* \"contracts/example.sol\":871:1292  contract C is A, B{... */\n      mstore(0x40, 0x80)\n      callvalue\n      dup1\n      iszero\n      tag_1\n      jumpi\n      0x00\n      dup1\n      revert\n    tag_1:\n      pop\n      jumpi(tag_2, lt(calldatasize, 0x04))\n      shr(0xe0, calldataload(0x00))\n      dup1\n      0x0c22c5ea\n      eq\n      tag_3\n      jumpi\n      dup1\n      0x13bdfacd\n      eq\n      tag_4\n      jumpi\n      dup1\n      0x39034642\n      eq\n      tag_5\n      jumpi\n      dup1\n      0x599a2364\n      eq\n      tag_6\n      jumpi\n      dup1\n      0x6d0fd33a\n      eq\n      tag_7\n      jumpi\n      dup1\n      0xf0a7ef65\n      eq\n      tag_8\n      jumpi\n    tag_2:\n      0x00\n      dup1\n      revert\n        /* \"contracts/example.sol\":416:446  string public msgB = \"hello B\" */\n    tag_3:\n      tag_9\n      tag_10\n      jump\t// in\n    tag_9:\n      mload(0x40)\n      tag_11\n      swap2\n      swap1\n      tag_12\n      jump\t// in\n    tag_11:\n      mload(0x40)\n      dup1\n      swap2\n      sub\n      swap1\n      return\n        /* \"contracts/example.sol\":1004:1146  function print() public override(A,B) view returns(string memory){... */\n    tag_4:\n      tag_13\n      tag_14\n      jump\t// in\n    tag_13:\n      mload(0x40)\n      tag_15\n      swap2\n      swap1\n      tag_12\n      jump\t// in\n    tag_15:\n      mload(0x40)\n      dup1\n      swap2\n      sub\n      swap1\n      return\n        /* \"contracts/example.sol\":310:395  function helloA() public pure returns(string memory){... */\n    tag_5:\n      tag_16\n      tag_17\n      jump\t// in\n    tag_16:\n      mload(0x40)\n      tag_18\n      swap2\n      swap1\n      tag_12\n      jump\t// in\n    tag_18:\n      mload(0x40)\n      dup1\n      swap2\n      sub\n      swap1\n      return\n        /* \"contracts/example.sol\":611:696  function helloB() public pure returns(string memory){... */\n    tag_6:\n      tag_19\n      tag_20\n      jump\t// in\n    tag_19:\n      mload(0x40)\n      tag_21\n      swap2\n      swap1\n      tag_12\n      jump\t// in\n    tag_21:\n      mload(0x40)\n      dup1\n      swap2\n      sub\n      swap1\n      return\n        /* \"contracts/example.sol\":1217:1290  function changeMsgB(string memory _msg)public{... */\n    tag_7:\n      tag_22\n      0x04\n      dup1\n      calldatasize\n      sub\n      dup2\n      add\n      swap1\n      tag_23\n      swap2\n      swap1\n      tag_24\n      jump\t// in\n    tag_23:\n      tag_25\n      jump\t// in\n    tag_22:\n      stop\n        /* \"contracts/example.sol\":72:102  string public msgA = \"hello A\" */\n    tag_8:\n      tag_26\n      tag_27\n      jump\t// in\n    tag_26:\n      mload(0x40)\n      tag_28\n      swap2\n      swap1\n      tag_12\n      jump\t// in\n    tag_28:\n      mload(0x40)\n      dup1\n      swap2\n      sub\n      swap1\n      return\n        /* \"contracts/example.sol\":416:446  string public msgB = \"hello B\" */\n    tag_10:\n      0x01\n      dup1\n      sload\n      tag_29\n      swap1\n      tag_30\n      jump\t// in\n    tag_29:\n      dup1\n      0x1f\n      add\n      0x20\n      dup1\n      swap2\n      div\n      mul\n      0x20\n      add\n      mload(0x40)\n      swap1\n      dup2\n      add\n      0x40\n      mstore\n      dup1\n      swap3\n      swap2\n      swap1\n      dup2\n      dup2\n      mstore\n      0x20\n      add\n      dup3\n      dup1\n      sload\n      tag_31\n      swap1\n      tag_30\n      jump\t// in\n    tag_31:\n      dup1\n      iszero\n      tag_32\n      jumpi\n      dup1\n      0x1f\n      lt\n      tag_33\n      jumpi\n      0x0100\n      dup1\n      dup4\n      sload\n      div\n      mul\n      dup4\n      mstore\n      swap2\n      0x20\n      add\n      swap2\n      jump(tag_32)\n    tag_33:\n      dup3\n      add\n      swap2\n      swap1\n      0x00\n      mstore\n      keccak256(0x00, 0x20)\n      swap1\n    tag_34:\n      dup2\n      sload\n      dup2\n      mstore\n      swap1\n      0x01\n      add\n      swap1\n      0x20\n      add\n      dup1\n      dup4\n      gt\n      tag_34\n      jumpi\n      dup3\n      swap1\n      sub\n      0x1f\n      and\n      dup3\n      add\n      swap2\n    tag_32:\n      pop\n      pop\n      pop\n      pop\n      pop\n      dup2\n      jump\t// out\n        /* \"contracts/example.sol\":1004:1146  function print() public override(A,B) view returns(string memory){... */\n    tag_14:\n        /* \"contracts/example.sol\":1055:1068  string memory */\n      0x60\n        /* \"contracts/example.sol\":1121:1134  super.print() */\n      tag_36\n        /* \"contracts/example.sol\":1121:1132  super.print */\n      tag_37\n        /* \"contracts/example.sol\":1121:1134  super.print() */\n      jump\t// in\n    tag_36:\n        /* \"contracts/example.sol\":1114:1134  return super.print() */\n      swap1\n      pop\n        /* \"contracts/example.sol\":1004:1146  function print() public override(A,B) view returns(string memory){... */\n      swap1\n      jump\t// out\n        /* \"contracts/example.sol\":310:395  function helloA() public pure returns(string memory){... */\n    tag_17:\n        /* \"contracts/example.sol\":348:361  string memory */\n      0x60\n        /* \"contracts/example.sol\":372:388  return \"Hello A\" */\n      mload(0x40)\n      dup1\n      0x40\n      add\n      0x40\n      mstore\n      dup1\n      0x07\n      dup2\n      mstore\n      0x20\n      add\n      0x48656c6c6f204100000000000000000000000000000000000000000000000000\n      dup2\n      mstore\n      pop\n      swap1\n      pop\n        /* \"contracts/example.sol\":310:395  function helloA() public pure returns(string memory){... */\n      swap1\n      jump\t// out\n        /* \"contracts/example.sol\":611:696  function helloB() public pure returns(string memory){... */\n    tag_20:\n        /* \"contracts/example.sol\":649:662  string memory */\n      0x60\n        /* \"contracts/example.sol\":673:689  return \"Hello B\" */\n      mload(0x40)\n      dup1\n      0x40\n      add\n      0x40\n      mstore\n      dup1\n      0x07\n      dup2\n      mstore\n      0x20\n      add\n      0x48656c6c6f204200000000000000000000000000000000000000000000000000\n      dup2\n      mstore\n      pop\n      swap1\n      pop\n        /* \"contracts/example.sol\":611:696  function helloB() public pure returns(string memory){... */\n      swap1\n      jump\t// out\n        /* \"contracts/example.sol\":1217:1290  function changeMsgB(string memory _msg)public{... */\n    tag_25:\n        /* \"contracts/example.sol\":1279:1283  _msg */\n      dup1\n        /* \"contracts/example.sol\":1272:1276  msgB */\n      0x01\n        /* \"contracts/example.sol\":1272:1283  msgB = _msg */\n      swap1\n      dup2\n      tag_41\n      swap2\n      swap1\n      tag_42\n      jump\t// in\n    tag_41:\n      pop\n        /* \"contracts/example.sol\":1217:1290  function changeMsgB(string memory _msg)public{... */\n      pop\n      jump\t// out\n        /* \"contracts/example.sol\":72:102  string public msgA = \"hello A\" */\n    tag_27:\n      0x00\n      dup1\n      sload\n      tag_43\n      swap1\n      tag_30\n      jump\t// in\n    tag_43:\n      dup1\n      0x1f\n      add\n      0x20\n      dup1\n      swap2\n      div\n      mul\n      0x20\n      add\n      mload(0x40)\n      swap1\n      dup2\n      add\n      0x40\n      mstore\n      dup1\n      swap3\n      swap2\n      swap1\n      dup2\n      dup2\n      mstore\n      0x20\n      add\n      dup3\n      dup1\n      sload\n      tag_44\n      swap1\n      tag_30\n      jump\t// in\n    tag_44:\n      dup1\n      iszero\n      tag_45\n      jumpi\n      dup1\n      0x1f\n      lt\n      tag_46\n      jumpi\n      0x0100\n      dup1\n      dup4\n      sload\n      div\n      mul\n      dup4\n      mstore\n      swap2\n      0x20\n      add\n      swap2\n      jump(tag_45)\n    tag_46:\n      dup3\n      add\n      swap2\n      swap1\n      0x00\n      mstore\n      keccak256(0x00, 0x20)\n      swap1\n    tag_47:\n      dup2\n      sload\n      dup2\n      mstore\n      swap1\n      0x01\n      add\n      swap1\n      0x20\n      add\n      dup1\n      dup4\n      gt\n      tag_47\n      jumpi\n      dup3\n      swap1\n      sub\n      0x1f\n      and\n      dup3\n      add\n      swap2\n    tag_45:\n      pop\n      pop\n      pop\n      pop\n      pop\n      dup2\n      jump\t// out\n        /* \"contracts/example.sol\":518:605  function print() public virtual view returns(string memory){... */\n    tag_37:\n        /* \"contracts/example.sol\":563:576  string memory */\n      0x60\n        /* \"contracts/example.sol\":594:598  msgB */\n      0x01\n        /* \"contracts/example.sol\":587:598  return msgB */\n      dup1\n      sload\n      tag_49\n      swap1\n      tag_30\n      jump\t// in\n    tag_49:\n      dup1\n      0x1f\n      add\n      0x20\n      dup1\n      swap2\n      div\n      mul\n      0x20\n      add\n      mload(0x40)\n      swap1\n      dup2\n      add\n      0x40\n      mstore\n      dup1\n      swap3\n      swap2\n      swap1\n      dup2\n      dup2\n      mstore\n      0x20\n      add\n      dup3\n      dup1\n      sload\n      tag_50\n      swap1\n      tag_30\n      jump\t// in\n    tag_50:\n      dup1\n      iszero\n      tag_51\n      jumpi\n      dup1\n      0x1f\n      lt\n      tag_52\n      jumpi\n      0x0100\n      dup1\n      dup4\n      sload\n      div\n      mul\n      dup4\n      mstore\n      swap2\n      0x20\n      add\n      swap2\n      jump(tag_51)\n    tag_52:\n      dup3\n      add\n      swap2\n      swap1\n      0x00\n      mstore\n      keccak256(0x00, 0x20)\n      swap1\n    tag_53:\n      dup2\n      sload\n      dup2\n      mstore\n      swap1\n      0x01\n      add\n      swap1\n      0x20\n      add\n      dup1\n      dup4\n      gt\n      tag_53\n      jumpi\n      dup3\n      swap1\n      sub\n      0x1f\n      and\n      dup3\n      add\n      swap2\n    tag_51:\n      pop\n      pop\n      pop\n      pop\n      pop\n      swap1\n      pop\n        /* \"contracts/example.sol\":518:605  function print() public virtual view returns(string memory){... */\n      swap1\n      jump\t// out\n        /* \"#utility.yul\":7:106   */\n    tag_54:\n        /* \"#utility.yul\":59:65   */\n      0x00\n        /* \"#utility.yul\":93:98   */\n      dup2\n        /* \"#utility.yul\":87:99   */\n      mload\n        /* \"#utility.yul\":77:99   */\n      swap1\n      pop\n        /* \"#utility.yul\":7:106   */\n      swap2\n      swap1\n      pop\n      jump\t// out\n        /* \"#utility.yul\":112:281   */\n    tag_55:\n        /* \"#utility.yul\":196:207   */\n      0x00\n        /* \"#utility.yul\":230:236   */\n      dup3\n        /* \"#utility.yul\":225:228   */\n      dup3\n        /* \"#utility.yul\":218:237   */\n      mstore\n        /* \"#utility.yul\":270:274   */\n      0x20\n        /* \"#utility.yul\":265:268   */\n      dup3\n        /* \"#utility.yul\":261:275   */\n      add\n        /* \"#utility.yul\":246:275   */\n      swap1\n      pop\n        /* \"#utility.yul\":112:281   */\n      swap3\n      swap2\n      pop\n      pop\n      jump\t// out\n        /* \"#utility.yul\":287:594   */\n    tag_56:\n        /* \"#utility.yul\":355:356   */\n      0x00\n        /* \"#utility.yul\":365:478   */\n    tag_92:\n        /* \"#utility.yul\":379:385   */\n      dup4\n        /* \"#utility.yul\":376:377   */\n      dup2\n        /* \"#utility.yul\":373:386   */\n      lt\n        /* \"#utility.yul\":365:478   */\n      iszero\n      tag_94\n      jumpi\n        /* \"#utility.yul\":464:465   */\n      dup1\n        /* \"#utility.yul\":459:462   */\n      dup3\n        /* \"#utility.yul\":455:466   */\n      add\n        /* \"#utility.yul\":449:467   */\n      mload\n        /* \"#utility.yul\":445:446   */\n      dup2\n        /* \"#utility.yul\":440:443   */\n      dup5\n        /* \"#utility.yul\":436:447   */\n      add\n        /* \"#utility.yul\":429:468   */\n      mstore\n        /* \"#utility.yul\":401:403   */\n      0x20\n        /* \"#utility.yul\":398:399   */\n      dup2\n        /* \"#utility.yul\":394:404   */\n      add\n        /* \"#utility.yul\":389:404   */\n      swap1\n      pop\n        /* \"#utility.yul\":365:478   */\n      jump(tag_92)\n    tag_94:\n        /* \"#utility.yul\":496:502   */\n      dup4\n        /* \"#utility.yul\":493:494   */\n      dup2\n        /* \"#utility.yul\":490:503   */\n      gt\n        /* \"#utility.yul\":487:588   */\n      iszero\n      tag_95\n      jumpi\n        /* \"#utility.yul\":576:577   */\n      0x00\n        /* \"#utility.yul\":567:573   */\n      dup5\n        /* \"#utility.yul\":562:565   */\n      dup5\n        /* \"#utility.yul\":558:574   */\n      add\n        /* \"#utility.yul\":551:578   */\n      mstore\n        /* \"#utility.yul\":487:588   */\n    tag_95:\n        /* \"#utility.yul\":336:594   */\n      pop\n        /* \"#utility.yul\":287:594   */\n      pop\n      pop\n      pop\n      jump\t// out\n        /* \"#utility.yul\":600:702   */\n    tag_57:\n        /* \"#utility.yul\":641:647   */\n      0x00\n        /* \"#utility.yul\":692:694   */\n      0x1f\n        /* \"#utility.yul\":688:695   */\n      not\n        /* \"#utility.yul\":683:685   */\n      0x1f\n        /* \"#utility.yul\":676:681   */\n      dup4\n        /* \"#utility.yul\":672:686   */\n      add\n        /* \"#utility.yul\":668:696   */\n      and\n        /* \"#utility.yul\":658:696   */\n      swap1\n      pop\n        /* \"#utility.yul\":600:702   */\n      swap2\n      swap1\n      pop\n      jump\t// out\n        /* \"#utility.yul\":708:1072   */\n    tag_58:\n        /* \"#utility.yul\":796:799   */\n      0x00\n        /* \"#utility.yul\":824:863   */\n      tag_98\n        /* \"#utility.yul\":857:862   */\n      dup3\n        /* \"#utility.yul\":824:863   */\n      tag_54\n      jump\t// in\n    tag_98:\n        /* \"#utility.yul\":879:950   */\n      tag_99\n        /* \"#utility.yul\":943:949   */\n      dup2\n        /* \"#utility.yul\":938:941   */\n      dup6\n        /* \"#utility.yul\":879:950   */\n      tag_55\n      jump\t// in\n    tag_99:\n        /* \"#utility.yul\":872:950   */\n      swap4\n      pop\n        /* \"#utility.yul\":959:1011   */\n      tag_100\n        /* \"#utility.yul\":1004:1010   */\n      dup2\n        /* \"#utility.yul\":999:1002   */\n      dup6\n        /* \"#utility.yul\":992:996   */\n      0x20\n        /* \"#utility.yul\":985:990   */\n      dup7\n        /* \"#utility.yul\":981:997   */\n      add\n        /* \"#utility.yul\":959:1011   */\n      tag_56\n      jump\t// in\n    tag_100:\n        /* \"#utility.yul\":1036:1065   */\n      tag_101\n        /* \"#utility.yul\":1058:1064   */\n      dup2\n        /* \"#utility.yul\":1036:1065   */\n      tag_57\n      jump\t// in\n    tag_101:\n        /* \"#utility.yul\":1031:1034   */\n      dup5\n        /* \"#utility.yul\":1027:1066   */\n      add\n        /* \"#utility.yul\":1020:1066   */\n      swap2\n      pop\n        /* \"#utility.yul\":800:1072   */\n      pop\n        /* \"#utility.yul\":708:1072   */\n      swap3\n      swap2\n      pop\n      pop\n      jump\t// out\n        /* \"#utility.yul\":1078:1391   */\n    tag_12:\n        /* \"#utility.yul\":1191:1195   */\n      0x00\n        /* \"#utility.yul\":1229:1231   */\n      0x20\n        /* \"#utility.yul\":1218:1227   */\n      dup3\n        /* \"#utility.yul\":1214:1232   */\n      add\n        /* \"#utility.yul\":1206:1232   */\n      swap1\n      pop\n        /* \"#utility.yul\":1278:1287   */\n      dup2\n        /* \"#utility.yul\":1272:1276   */\n      dup2\n        /* \"#utility.yul\":1268:1288   */\n      sub\n        /* \"#utility.yul\":1264:1265   */\n      0x00\n        /* \"#utility.yul\":1253:1262   */\n      dup4\n        /* \"#utility.yul\":1249:1266   */\n      add\n        /* \"#utility.yul\":1242:1289   */\n      mstore\n        /* \"#utility.yul\":1306:1384   */\n      tag_103\n        /* \"#utility.yul\":1379:1383   */\n      dup2\n        /* \"#utility.yul\":1370:1376   */\n      dup5\n        /* \"#utility.yul\":1306:1384   */\n      tag_58\n      jump\t// in\n    tag_103:\n        /* \"#utility.yul\":1298:1384   */\n      swap1\n      pop\n        /* \"#utility.yul\":1078:1391   */\n      swap3\n      swap2\n      pop\n      pop\n      jump\t// out\n        /* \"#utility.yul\":1397:1472   */\n    tag_59:\n        /* \"#utility.yul\":1430:1436   */\n      0x00\n        /* \"#utility.yul\":1463:1465   */\n      0x40\n        /* \"#utility.yul\":1457:1466   */\n      mload\n        /* \"#utility.yul\":1447:1466   */\n      swap1\n      pop\n        /* \"#utility.yul\":1397:1472   */\n      swap1\n      jump\t// out\n        /* \"#utility.yul\":1478:1595   */\n    tag_60:\n        /* \"#utility.yul\":1587:1588   */\n      0x00\n        /* \"#utility.yul\":1584:1585   */\n      dup1\n        /* \"#utility.yul\":1577:1589   */\n      revert\n        /* \"#utility.yul\":1601:1718   */\n    tag_61:\n        /* \"#utility.yul\":1710:1711   */\n      0x00\n        /* \"#utility.yul\":1707:1708   */\n      dup1\n        /* \"#utility.yul\":1700:1712   */\n      revert\n        /* \"#utility.yul\":1724:1841   */\n    tag_62:\n        /* \"#utility.yul\":1833:1834   */\n      0x00\n        /* \"#utility.yul\":1830:1831   */\n      dup1\n        /* \"#utility.yul\":1823:1835   */\n      revert\n        /* \"#utility.yul\":1847:1964   */\n    tag_63:\n        /* \"#utility.yul\":1956:1957   */\n      0x00\n        /* \"#utility.yul\":1953:1954   */\n      dup1\n        /* \"#utility.yul\":1946:1958   */\n      revert\n        /* \"#utility.yul\":1970:2150   */\n    tag_64:\n        /* \"#utility.yul\":2018:2095   */\n      0x4e487b7100000000000000000000000000000000000000000000000000000000\n        /* \"#utility.yul\":2015:2016   */\n      0x00\n        /* \"#utility.yul\":2008:2096   */\n      mstore\n        /* \"#utility.yul\":2115:2119   */\n      0x41\n        /* \"#utility.yul\":2112:2113   */\n      0x04\n        /* \"#utility.yul\":2105:2120   */\n      mstore\n        /* \"#utility.yul\":2139:2143   */\n      0x24\n        /* \"#utility.yul\":2136:2137   */\n      0x00\n        /* \"#utility.yul\":2129:2144   */\n      revert\n        /* \"#utility.yul\":2156:2437   */\n    tag_65:\n        /* \"#utility.yul\":2239:2266   */\n      tag_111\n        /* \"#utility.yul\":2261:2265   */\n      dup3\n        /* \"#utility.yul\":2239:2266   */\n      tag_57\n      jump\t// in\n    tag_111:\n        /* \"#utility.yul\":2231:2237   */\n      dup2\n        /* \"#utility.yul\":2227:2267   */\n      add\n        /* \"#utility.yul\":2369:2375   */\n      dup2\n        /* \"#utility.yul\":2357:2367   */\n      dup2\n        /* \"#utility.yul\":2354:2376   */\n      lt\n        /* \"#utility.yul\":2333:2351   */\n      0xffffffffffffffff\n        /* \"#utility.yul\":2321:2331   */\n      dup3\n        /* \"#utility.yul\":2318:2352   */\n      gt\n        /* \"#utility.yul\":2315:2377   */\n      or\n        /* \"#utility.yul\":2312:2400   */\n      iszero\n      tag_112\n      jumpi\n        /* \"#utility.yul\":2380:2398   */\n      tag_113\n      tag_64\n      jump\t// in\n    tag_113:\n        /* \"#utility.yul\":2312:2400   */\n    tag_112:\n        /* \"#utility.yul\":2420:2430   */\n      dup1\n        /* \"#utility.yul\":2416:2418   */\n      0x40\n        /* \"#utility.yul\":2409:2431   */\n      mstore\n        /* \"#utility.yul\":2199:2437   */\n      pop\n        /* \"#utility.yul\":2156:2437   */\n      pop\n      pop\n      jump\t// out\n        /* \"#utility.yul\":2443:2572   */\n    tag_66:\n        /* \"#utility.yul\":2477:2483   */\n      0x00\n        /* \"#utility.yul\":2504:2524   */\n      tag_115\n      tag_59\n      jump\t// in\n    tag_115:\n        /* \"#utility.yul\":2494:2524   */\n      swap1\n      pop\n        /* \"#utility.yul\":2533:2566   */\n      tag_116\n        /* \"#utility.yul\":2561:2565   */\n      dup3\n        /* \"#utility.yul\":2553:2559   */\n      dup3\n        /* \"#utility.yul\":2533:2566   */\n      tag_65\n      jump\t// in\n    tag_116:\n        /* \"#utility.yul\":2443:2572   */\n      swap2\n      swap1\n      pop\n      jump\t// out\n        /* \"#utility.yul\":2578:2886   */\n    tag_67:\n        /* \"#utility.yul\":2640:2644   */\n      0x00\n        /* \"#utility.yul\":2730:2748   */\n      0xffffffffffffffff\n        /* \"#utility.yul\":2722:2728   */\n      dup3\n        /* \"#utility.yul\":2719:2749   */\n      gt\n        /* \"#utility.yul\":2716:2772   */\n      iszero\n      tag_118\n      jumpi\n        /* \"#utility.yul\":2752:2770   */\n      tag_119\n      tag_64\n      jump\t// in\n    tag_119:\n        /* \"#utility.yul\":2716:2772   */\n    tag_118:\n        /* \"#utility.yul\":2790:2819   */\n      tag_120\n        /* \"#utility.yul\":2812:2818   */\n      dup3\n        /* \"#utility.yul\":2790:2819   */\n      tag_57\n      jump\t// in\n    tag_120:\n        /* \"#utility.yul\":2782:2819   */\n      swap1\n      pop\n        /* \"#utility.yul\":2874:2878   */\n      0x20\n        /* \"#utility.yul\":2868:2872   */\n      dup2\n        /* \"#utility.yul\":2864:2879   */\n      add\n        /* \"#utility.yul\":2856:2879   */\n      swap1\n      pop\n        /* \"#utility.yul\":2578:2886   */\n      swap2\n      swap1\n      pop\n      jump\t// out\n        /* \"#utility.yul\":2892:3046   */\n    tag_68:\n        /* \"#utility.yul\":2976:2982   */\n      dup3\n        /* \"#utility.yul\":2971:2974   */\n      dup2\n        /* \"#utility.yul\":2966:2969   */\n      dup4\n        /* \"#utility.yul\":2953:2983   */\n      calldatacopy\n        /* \"#utility.yul\":3038:3039   */\n      0x00\n        /* \"#utility.yul\":3029:3035   */\n      dup4\n        /* \"#utility.yul\":3024:3027   */\n      dup4\n        /* \"#utility.yul\":3020:3036   */\n      add\n        /* \"#utility.yul\":3013:3040   */\n      mstore\n        /* \"#utility.yul\":2892:3046   */\n      pop\n      pop\n      pop\n      jump\t// out\n        /* \"#utility.yul\":3052:3464   */\n    tag_69:\n        /* \"#utility.yul\":3130:3135   */\n      0x00\n        /* \"#utility.yul\":3155:3221   */\n      tag_123\n        /* \"#utility.yul\":3171:3220   */\n      tag_124\n        /* \"#utility.yul\":3213:3219   */\n      dup5\n        /* \"#utility.yul\":3171:3220   */\n      tag_67\n      jump\t// in\n    tag_124:\n        /* \"#utility.yul\":3155:3221   */\n      tag_66\n      jump\t// in\n    tag_123:\n        /* \"#utility.yul\":3146:3221   */\n      swap1\n      pop\n        /* \"#utility.yul\":3244:3250   */\n      dup3\n        /* \"#utility.yul\":3237:3242   */\n      dup2\n        /* \"#utility.yul\":3230:3251   */\n      mstore\n        /* \"#utility.yul\":3282:3286   */\n      0x20\n        /* \"#utility.yul\":3275:3280   */\n      dup2\n        /* \"#utility.yul\":3271:3287   */\n      add\n        /* \"#utility.yul\":3320:3323   */\n      dup5\n        /* \"#utility.yul\":3311:3317   */\n      dup5\n        /* \"#utility.yul\":3306:3309   */\n      dup5\n        /* \"#utility.yul\":3302:3318   */\n      add\n        /* \"#utility.yul\":3299:3324   */\n      gt\n        /* \"#utility.yul\":3296:3408   */\n      iszero\n      tag_125\n      jumpi\n        /* \"#utility.yul\":3327:3406   */\n      tag_126\n      tag_63\n      jump\t// in\n    tag_126:\n        /* \"#utility.yul\":3296:3408   */\n    tag_125:\n        /* \"#utility.yul\":3417:3458   */\n      tag_127\n        /* \"#utility.yul\":3451:3457   */\n      dup5\n        /* \"#utility.yul\":3446:3449   */\n      dup3\n        /* \"#utility.yul\":3441:3444   */\n      dup6\n        /* \"#utility.yul\":3417:3458   */\n      tag_68\n      jump\t// in\n    tag_127:\n        /* \"#utility.yul\":3136:3464   */\n      pop\n        /* \"#utility.yul\":3052:3464   */\n      swap4\n      swap3\n      pop\n      pop\n      pop\n      jump\t// out\n        /* \"#utility.yul\":3484:3824   */\n    tag_70:\n        /* \"#utility.yul\":3540:3545   */\n      0x00\n        /* \"#utility.yul\":3589:3592   */\n      dup3\n        /* \"#utility.yul\":3582:3586   */\n      0x1f\n        /* \"#utility.yul\":3574:3580   */\n      dup4\n        /* \"#utility.yul\":3570:3587   */\n      add\n        /* \"#utility.yul\":3566:3593   */\n      slt\n        /* \"#utility.yul\":3556:3678   */\n      tag_129\n      jumpi\n        /* \"#utility.yul\":3597:3676   */\n      tag_130\n      tag_62\n      jump\t// in\n    tag_130:\n        /* \"#utility.yul\":3556:3678   */\n    tag_129:\n        /* \"#utility.yul\":3714:3720   */\n      dup2\n        /* \"#utility.yul\":3701:3721   */\n      calldataload\n        /* \"#utility.yul\":3739:3818   */\n      tag_131\n        /* \"#utility.yul\":3814:3817   */\n      dup5\n        /* \"#utility.yul\":3806:3812   */\n      dup3\n        /* \"#utility.yul\":3799:3803   */\n      0x20\n        /* \"#utility.yul\":3791:3797   */\n      dup7\n        /* \"#utility.yul\":3787:3804   */\n      add\n        /* \"#utility.yul\":3739:3818   */\n      tag_69\n      jump\t// in\n    tag_131:\n        /* \"#utility.yul\":3730:3818   */\n      swap2\n      pop\n        /* \"#utility.yul\":3546:3824   */\n      pop\n        /* \"#utility.yul\":3484:3824   */\n      swap3\n      swap2\n      pop\n      pop\n      jump\t// out\n        /* \"#utility.yul\":3830:4339   */\n    tag_24:\n        /* \"#utility.yul\":3899:3905   */\n      0x00\n        /* \"#utility.yul\":3948:3950   */\n      0x20\n        /* \"#utility.yul\":3936:3945   */\n      dup3\n        /* \"#utility.yul\":3927:3934   */\n      dup5\n        /* \"#utility.yul\":3923:3946   */\n      sub\n        /* \"#utility.yul\":3919:3951   */\n      slt\n        /* \"#utility.yul\":3916:4035   */\n      iszero\n      tag_133\n      jumpi\n        /* \"#utility.yul\":3954:4033   */\n      tag_134\n      tag_60\n      jump\t// in\n    tag_134:\n        /* \"#utility.yul\":3916:4035   */\n    tag_133:\n        /* \"#utility.yul\":4102:4103   */\n      0x00\n        /* \"#utility.yul\":4091:4100   */\n      dup3\n        /* \"#utility.yul\":4087:4104   */\n      add\n        /* \"#utility.yul\":4074:4105   */\n      calldataload\n        /* \"#utility.yul\":4132:4150   */\n      0xffffffffffffffff\n        /* \"#utility.yul\":4124:4130   */\n      dup2\n        /* \"#utility.yul\":4121:4151   */\n      gt\n        /* \"#utility.yul\":4118:4235   */\n      iszero\n      tag_135\n      jumpi\n        /* \"#utility.yul\":4154:4233   */\n      tag_136\n      tag_61\n      jump\t// in\n    tag_136:\n        /* \"#utility.yul\":4118:4235   */\n    tag_135:\n        /* \"#utility.yul\":4259:4322   */\n      tag_137\n        /* \"#utility.yul\":4314:4321   */\n      dup5\n        /* \"#utility.yul\":4305:4311   */\n      dup3\n        /* \"#utility.yul\":4294:4303   */\n      dup6\n        /* \"#utility.yul\":4290:4312   */\n      add\n        /* \"#utility.yul\":4259:4322   */\n      tag_70\n      jump\t// in\n    tag_137:\n        /* \"#utility.yul\":4249:4322   */\n      swap2\n      pop\n        /* \"#utility.yul\":4045:4332   */\n      pop\n        /* \"#utility.yul\":3830:4339   */\n      swap3\n      swap2\n      pop\n      pop\n      jump\t// out\n        /* \"#utility.yul\":4345:4525   */\n    tag_71:\n        /* \"#utility.yul\":4393:4470   */\n      0x4e487b7100000000000000000000000000000000000000000000000000000000\n        /* \"#utility.yul\":4390:4391   */\n      0x00\n        /* \"#utility.yul\":4383:4471   */\n      mstore\n        /* \"#utility.yul\":4490:4494   */\n      0x22\n        /* \"#utility.yul\":4487:4488   */\n      0x04\n        /* \"#utility.yul\":4480:4495   */\n      mstore\n        /* \"#utility.yul\":4514:4518   */\n      0x24\n        /* \"#utility.yul\":4511:4512   */\n      0x00\n        /* \"#utility.yul\":4504:4519   */\n      revert\n        /* \"#utility.yul\":4531:4851   */\n    tag_30:\n        /* \"#utility.yul\":4575:4581   */\n      0x00\n        /* \"#utility.yul\":4612:4613   */\n      0x02\n        /* \"#utility.yul\":4606:4610   */\n      dup3\n        /* \"#utility.yul\":4602:4614   */\n      div\n        /* \"#utility.yul\":4592:4614   */\n      swap1\n      pop\n        /* \"#utility.yul\":4659:4660   */\n      0x01\n        /* \"#utility.yul\":4653:4657   */\n      dup3\n        /* \"#utility.yul\":4649:4661   */\n      and\n        /* \"#utility.yul\":4680:4698   */\n      dup1\n        /* \"#utility.yul\":4670:4751   */\n      tag_140\n      jumpi\n        /* \"#utility.yul\":4736:4740   */\n      0x7f\n        /* \"#utility.yul\":4728:4734   */\n      dup3\n        /* \"#utility.yul\":4724:4741   */\n      and\n        /* \"#utility.yul\":4714:4741   */\n      swap2\n      pop\n        /* \"#utility.yul\":4670:4751   */\n    tag_140:\n        /* \"#utility.yul\":4798:4800   */\n      0x20\n        /* \"#utility.yul\":4790:4796   */\n      dup3\n        /* \"#utility.yul\":4787:4801   */\n      lt\n        /* \"#utility.yul\":4767:4785   */\n      dup2\n        /* \"#utility.yul\":4764:4802   */\n      sub\n        /* \"#utility.yul\":4761:4845   */\n      tag_141\n      jumpi\n        /* \"#utility.yul\":4817:4835   */\n      tag_142\n      tag_71\n      jump\t// in\n    tag_142:\n        /* \"#utility.yul\":4761:4845   */\n    tag_141:\n        /* \"#utility.yul\":4582:4851   */\n      pop\n        /* \"#utility.yul\":4531:4851   */\n      swap2\n      swap1\n      pop\n      jump\t// out\n        /* \"#utility.yul\":4857:4998   */\n    tag_72:\n        /* \"#utility.yul\":4906:4910   */\n      0x00\n        /* \"#utility.yul\":4929:4932   */\n      dup2\n        /* \"#utility.yul\":4921:4932   */\n      swap1\n      pop\n        /* \"#utility.yul\":4952:4955   */\n      dup2\n        /* \"#utility.yul\":4949:4950   */\n      0x00\n        /* \"#utility.yul\":4942:4956   */\n      mstore\n        /* \"#utility.yul\":4986:4990   */\n      0x20\n        /* \"#utility.yul\":4983:4984   */\n      0x00\n        /* \"#utility.yul\":4973:4991   */\n      keccak256\n        /* \"#utility.yul\":4965:4991   */\n      swap1\n      pop\n        /* \"#utility.yul\":4857:4998   */\n      swap2\n      swap1\n      pop\n      jump\t// out\n        /* \"#utility.yul\":5004:5097   */\n    tag_73:\n        /* \"#utility.yul\":5041:5047   */\n      0x00\n        /* \"#utility.yul\":5088:5090   */\n      0x20\n        /* \"#utility.yul\":5083:5085   */\n      0x1f\n        /* \"#utility.yul\":5076:5081   */\n      dup4\n        /* \"#utility.yul\":5072:5086   */\n      add\n        /* \"#utility.yul\":5068:5091   */\n      div\n        /* \"#utility.yul\":5058:5091   */\n      swap1\n      pop\n        /* \"#utility.yul\":5004:5097   */\n      swap2\n      swap1\n      pop\n      jump\t// out\n        /* \"#utility.yul\":5103:5210   */\n    tag_74:\n        /* \"#utility.yul\":5147:5155   */\n      0x00\n        /* \"#utility.yul\":5197:5202   */\n      dup3\n        /* \"#utility.yul\":5191:5195   */\n      dup3\n        /* \"#utility.yul\":5187:5203   */\n      shl\n        /* \"#utility.yul\":5166:5203   */\n      swap1\n      pop\n        /* \"#utility.yul\":5103:5210   */\n      swap3\n      swap2\n      pop\n      pop\n      jump\t// out\n        /* \"#utility.yul\":5216:5609   */\n    tag_75:\n        /* \"#utility.yul\":5285:5291   */\n      0x00\n        /* \"#utility.yul\":5335:5336   */\n      0x08\n        /* \"#utility.yul\":5323:5333   */\n      dup4\n        /* \"#utility.yul\":5319:5337   */\n      mul\n        /* \"#utility.yul\":5358:5455   */\n      tag_147\n        /* \"#utility.yul\":5388:5454   */\n      0xffffffffffffffffffffffffffffffffffffffffffffffffffffffffffffffff\n        /* \"#utility.yul\":5377:5386   */\n      dup3\n        /* \"#utility.yul\":5358:5455   */\n      tag_74\n      jump\t// in\n    tag_147:\n        /* \"#utility.yul\":5476:5515   */\n      tag_148\n        /* \"#utility.yul\":5506:5514   */\n      dup7\n        /* \"#utility.yul\":5495:5504   */\n      dup4\n        /* \"#utility.yul\":5476:5515   */\n      tag_74\n      jump\t// in\n    tag_148:\n        /* \"#utility.yul\":5464:5515   */\n      swap6\n      pop\n        /* \"#utility.yul\":5548:5552   */\n      dup1\n        /* \"#utility.yul\":5544:5553   */\n      not\n        /* \"#utility.yul\":5537:5542   */\n      dup5\n        /* \"#utility.yul\":5533:5554   */\n      and\n        /* \"#utility.yul\":5524:5554   */\n      swap4\n      pop\n        /* \"#utility.yul\":5597:5601   */\n      dup1\n        /* \"#utility.yul\":5587:5595   */\n      dup7\n        /* \"#utility.yul\":5583:5602   */\n      and\n        /* \"#utility.yul\":5576:5581   */\n      dup5\n        /* \"#utility.yul\":5573:5603   */\n      or\n        /* \"#utility.yul\":5563:5603   */\n      swap3\n      pop\n        /* \"#utility.yul\":5292:5609   */\n      pop\n      pop\n        /* \"#utility.yul\":5216:5609   */\n      swap4\n      swap3\n      pop\n      pop\n      pop\n      jump\t// out\n        /* \"#utility.yul\":5615:5692   */\n    tag_76:\n        /* \"#utility.yul\":5652:5659   */\n      0x00\n        /* \"#utility.yul\":5681:5686   */\n      dup2\n        /* \"#utility.yul\":5670:5686   */\n      swap1\n      pop\n        /* \"#utility.yul\":5615:5692   */\n      swap2\n      swap1\n      pop\n      jump\t// out\n        /* \"#utility.yul\":5698:5758   */\n    tag_77:\n        /* \"#utility.yul\":5726:5729   */\n      0x00\n        /* \"#utility.yul\":5747:5752   */\n      dup2\n        /* \"#utility.yul\":5740:5752   */\n      swap1\n      pop\n        /* \"#utility.yul\":5698:5758   */\n      swap2\n      swap1\n      pop\n      jump\t// out\n        /* \"#utility.yul\":5764:5906   */\n    tag_78:\n        /* \"#utility.yul\":5814:5823   */\n      0x00\n        /* \"#utility.yul\":5847:5900   */\n      tag_152\n        /* \"#utility.yul\":5865:5899   */\n      tag_153\n        /* \"#utility.yul\":5874:5898   */\n      tag_154\n        /* \"#utility.yul\":5892:5897   */\n      dup5\n        /* \"#utility.yul\":5874:5898   */\n      tag_76\n      jump\t// in\n    tag_154:\n        /* \"#utility.yul\":5865:5899   */\n      tag_77\n      jump\t// in\n    tag_153:\n        /* \"#utility.yul\":5847:5900   */\n      tag_76\n      jump\t// in\n    tag_152:\n        /* \"#utility.yul\":5834:5900   */\n      swap1\n      pop\n        /* \"#utility.yul\":5764:5906   */\n      swap2\n      swap1\n      pop\n      jump\t// out\n        /* \"#utility.yul\":5912:5987   */\n    tag_79:\n        /* \"#utility.yul\":5955:5958   */\n      0x00\n        /* \"#utility.yul\":5976:5981   */\n      dup2\n        /* \"#utility.yul\":5969:5981   */\n      swap1\n      pop\n        /* \"#utility.yul\":5912:5987   */\n      swap2\n      swap1\n      pop\n      jump\t// out\n        /* \"#utility.yul\":5993:6262   */\n    tag_80:\n        /* \"#utility.yul\":6103:6142   */\n      tag_157\n        /* \"#utility.yul\":6134:6141   */\n      dup4\n        /* \"#utility.yul\":6103:6142   */\n      tag_78\n      jump\t// in\n    tag_157:\n        /* \"#utility.yul\":6164:6255   */\n      tag_158\n        /* \"#utility.yul\":6213:6254   */\n      tag_159\n        /* \"#utility.yul\":6237:6253   */\n      dup3\n        /* \"#utility.yul\":6213:6254   */\n      tag_79\n      jump\t// in\n    tag_159:\n        /* \"#utility.yul\":6205:6211   */\n      dup5\n        /* \"#utility.yul\":6198:6202   */\n      dup5\n        /* \"#utility.yul\":6192:6203   */\n      sload\n        /* \"#utility.yul\":6164:6255   */\n      tag_75\n      jump\t// in\n    tag_158:\n        /* \"#utility.yul\":6158:6162   */\n      dup3\n        /* \"#utility.yul\":6151:6256   */\n      sstore\n        /* \"#utility.yul\":6069:6262   */\n      pop\n        /* \"#utility.yul\":5993:6262   */\n      pop\n      pop\n      pop\n      jump\t// out\n        /* \"#utility.yul\":6268:6341   */\n    tag_81:\n        /* \"#utility.yul\":6313:6316   */\n      0x00\n        /* \"#utility.yul\":6268:6341   */\n      swap1\n      jump\t// out\n        /* \"#utility.yul\":6347:6536   */\n    tag_82:\n        /* \"#utility.yul\":6424:6456   */\n      tag_162\n      tag_81\n      jump\t// in\n    tag_162:\n        /* \"#utility.yul\":6465:6530   */\n      tag_163\n        /* \"#utility.yul\":6523:6529   */\n      dup2\n        /* \"#utility.yul\":6515:6521   */\n      dup5\n        /* \"#utility.yul\":6509:6513   */\n      dup5\n        /* \"#utility.yul\":6465:6530   */\n      tag_80\n      jump\t// in\n    tag_163:\n        /* \"#utility.yul\":6400:6536   */\n      pop\n        /* \"#utility.yul\":6347:6536   */\n      pop\n      pop\n      jump\t// out\n        /* \"#utility.yul\":6542:6728   */\n    tag_83:\n        /* \"#utility.yul\":6602:6722   */\n    tag_165:\n        /* \"#utility.yul\":6619:6622   */\n      dup2\n        /* \"#utility.yul\":6612:6617   */\n      dup2\n        /* \"#utility.yul\":6609:6623   */\n      lt\n        /* \"#utility.yul\":6602:6722   */\n      iszero\n      tag_167\n      jumpi\n        /* \"#utility.yul\":6673:6712   */\n      tag_168\n        /* \"#utility.yul\":6710:6711   */\n      0x00\n        /* \"#utility.yul\":6703:6708   */\n      dup3\n        /* \"#utility.yul\":6673:6712   */\n      tag_82\n      jump\t// in\n    tag_168:\n        /* \"#utility.yul\":6646:6647   */\n      0x01\n        /* \"#utility.yul\":6639:6644   */\n      dup2\n        /* \"#utility.yul\":6635:6648   */\n      add\n        /* \"#utility.yul\":6626:6648   */\n      swap1\n      pop\n        /* \"#utility.yul\":6602:6722   */\n      jump(tag_165)\n    tag_167:\n        /* \"#utility.yul\":6542:6728   */\n      pop\n      pop\n      jump\t// out\n        /* \"#utility.yul\":6734:7277   */\n    tag_84:\n        /* \"#utility.yul\":6835:6837   */\n      0x1f\n        /* \"#utility.yul\":6830:6833   */\n      dup3\n        /* \"#utility.yul\":6827:6838   */\n      gt\n        /* \"#utility.yul\":6824:7270   */\n      iszero\n      tag_170\n      jumpi\n        /* \"#utility.yul\":6869:6907   */\n      tag_171\n        /* \"#utility.yul\":6901:6906   */\n      dup2\n        /* \"#utility.yul\":6869:6907   */\n      tag_72\n      jump\t// in\n    tag_171:\n        /* \"#utility.yul\":6953:6982   */\n      tag_172\n        /* \"#utility.yul\":6971:6981   */\n      dup5\n        /* \"#utility.yul\":6953:6982   */\n      tag_73\n      jump\t// in\n    tag_172:\n        /* \"#utility.yul\":6943:6951   */\n      dup2\n        /* \"#utility.yul\":6939:6983   */\n      add\n        /* \"#utility.yul\":7136:7138   */\n      0x20\n        /* \"#utility.yul\":7124:7134   */\n      dup6\n        /* \"#utility.yul\":7121:7139   */\n      lt\n        /* \"#utility.yul\":7118:7167   */\n      iszero\n      tag_173\n      jumpi\n        /* \"#utility.yul\":7157:7165   */\n      dup2\n        /* \"#utility.yul\":7142:7165   */\n      swap1\n      pop\n        /* \"#utility.yul\":7118:7167   */\n    tag_173:\n        /* \"#utility.yul\":7180:7260   */\n      tag_174\n        /* \"#utility.yul\":7236:7258   */\n      tag_175\n        /* \"#utility.yul\":7254:7257   */\n      dup6\n        /* \"#utility.yul\":7236:7258   */\n      tag_73\n      jump\t// in\n    tag_175:\n        /* \"#utility.yul\":7226:7234   */\n      dup4\n        /* \"#utility.yul\":7222:7259   */\n      add\n        /* \"#utility.yul\":7209:7220   */\n      dup3\n        /* \"#utility.yul\":7180:7260   */\n      tag_83\n      jump\t// in\n    tag_174:\n        /* \"#utility.yul\":6839:7270   */\n      pop\n      pop\n        /* \"#utility.yul\":6824:7270   */\n    tag_170:\n        /* \"#utility.yul\":6734:7277   */\n      pop\n      pop\n      pop\n      jump\t// out\n        /* \"#utility.yul\":7283:7400   */\n    tag_85:\n        /* \"#utility.yul\":7337:7345   */\n      0x00\n        /* \"#utility.yul\":7387:7392   */\n      dup3\n        /* \"#utility.yul\":7381:7385   */\n      dup3\n        /* \"#utility.yul\":7377:7393   */\n      shr\n        /* \"#utility.yul\":7356:7393   */\n      swap1\n      pop\n        /* \"#utility.yul\":7283:7400   */\n      swap3\n      swap2\n      pop\n      pop\n      jump\t// out\n        /* \"#utility.yul\":7406:7575   */\n    tag_86:\n        /* \"#utility.yul\":7450:7456   */\n      0x00\n        /* \"#utility.yul\":7483:7534   */\n      tag_178\n        /* \"#utility.yul\":7531:7532   */\n      0x00\n        /* \"#utility.yul\":7527:7533   */\n      not\n        /* \"#utility.yul\":7519:7524   */\n      dup5\n        /* \"#utility.yul\":7516:7517   */\n      0x08\n        /* \"#utility.yul\":7512:7525   */\n      mul\n        /* \"#utility.yul\":7483:7534   */\n      tag_85\n      jump\t// in\n    tag_178:\n        /* \"#utility.yul\":7479:7535   */\n      not\n        /* \"#utility.yul\":7564:7568   */\n      dup1\n        /* \"#utility.yul\":7558:7562   */\n      dup4\n        /* \"#utility.yul\":7554:7569   */\n      and\n        /* \"#utility.yul\":7544:7569   */\n      swap2\n      pop\n        /* \"#utility.yul\":7457:7575   */\n      pop\n        /* \"#utility.yul\":7406:7575   */\n      swap3\n      swap2\n      pop\n      pop\n      jump\t// out\n        /* \"#utility.yul\":7580:7875   */\n    tag_87:\n        /* \"#utility.yul\":7656:7660   */\n      0x00\n        /* \"#utility.yul\":7802:7831   */\n      tag_180\n        /* \"#utility.yul\":7827:7830   */\n      dup4\n        /* \"#utility.yul\":7821:7825   */\n      dup4\n        /* \"#utility.yul\":7802:7831   */\n      tag_86\n      jump\t// in\n    tag_180:\n        /* \"#utility.yul\":7794:7831   */\n      swap2\n      pop\n        /* \"#utility.yul\":7864:7867   */\n      dup3\n        /* \"#utility.yul\":7861:7862   */\n      0x02\n        /* \"#utility.yul\":7857:7868   */\n      mul\n        /* \"#utility.yul\":7851:7855   */\n      dup3\n        /* \"#utility.yul\":7848:7869   */\n      or\n        /* \"#utility.yul\":7840:7869   */\n      swap1\n      pop\n        /* \"#utility.yul\":7580:7875   */\n      swap3\n      swap2\n      pop\n      pop\n      jump\t// out\n        /* \"#utility.yul\":7880:9275   */\n    tag_42:\n        /* \"#utility.yul\":7997:8034   */\n      tag_182\n        /* \"#utility.yul\":8030:8033   */\n      dup3\n        /* \"#utility.yul\":7997:8034   */\n      tag_54\n      jump\t// in\n    tag_182:\n        /* \"#utility.yul\":8099:8117   */\n      0xffffffffffffffff\n        /* \"#utility.yul\":8091:8097   */\n      dup2\n        /* \"#utility.yul\":8088:8118   */\n      gt\n        /* \"#utility.yul\":8085:8141   */\n      iszero\n      tag_183\n      jumpi\n        /* \"#utility.yul\":8121:8139   */\n      tag_184\n      tag_64\n      jump\t// in\n    tag_184:\n        /* \"#utility.yul\":8085:8141   */\n    tag_183:\n        /* \"#utility.yul\":8165:8203   */\n      tag_185\n        /* \"#utility.yul\":8197:8201   */\n      dup3\n        /* \"#utility.yul\":8191:8202   */\n      sload\n        /* \"#utility.yul\":8165:8203   */\n      tag_30\n      jump\t// in\n    tag_185:\n        /* \"#utility.yul\":8250:8317   */\n      tag_186\n        /* \"#utility.yul\":8310:8316   */\n      dup3\n        /* \"#utility.yul\":8302:8308   */\n      dup3\n        /* \"#utility.yul\":8296:8300   */\n      dup6\n        /* \"#utility.yul\":8250:8317   */\n      tag_84\n      jump\t// in\n    tag_186:\n        /* \"#utility.yul\":8344:8345   */\n      0x00\n        /* \"#utility.yul\":8368:8372   */\n      0x20\n        /* \"#utility.yul\":8355:8372   */\n      swap1\n      pop\n        /* \"#utility.yul\":8400:8402   */\n      0x1f\n        /* \"#utility.yul\":8392:8398   */\n      dup4\n        /* \"#utility.yul\":8389:8403   */\n      gt\n        /* \"#utility.yul\":8417:8418   */\n      0x01\n        /* \"#utility.yul\":8412:9030   */\n      dup2\n      eq\n      tag_188\n      jumpi\n        /* \"#utility.yul\":9074:9075   */\n      0x00\n        /* \"#utility.yul\":9091:9097   */\n      dup5\n        /* \"#utility.yul\":9088:9165   */\n      iszero\n      tag_189\n      jumpi\n        /* \"#utility.yul\":9140:9149   */\n      dup3\n        /* \"#utility.yul\":9135:9138   */\n      dup8\n        /* \"#utility.yul\":9131:9150   */\n      add\n        /* \"#utility.yul\":9125:9151   */\n      mload\n        /* \"#utility.yul\":9116:9151   */\n      swap1\n      pop\n        /* \"#utility.yul\":9088:9165   */\n    tag_189:\n        /* \"#utility.yul\":9191:9258   */\n      tag_190\n        /* \"#utility.yul\":9251:9257   */\n      dup6\n        /* \"#utility.yul\":9244:9249   */\n      dup3\n        /* \"#utility.yul\":9191:9258   */\n      tag_87\n      jump\t// in\n    tag_190:\n        /* \"#utility.yul\":9185:9189   */\n      dup7\n        /* \"#utility.yul\":9178:9259   */\n      sstore\n        /* \"#utility.yul\":9047:9269   */\n      pop\n        /* \"#utility.yul\":8382:9269   */\n      jump(tag_187)\n        /* \"#utility.yul\":8412:9030   */\n    tag_188:\n        /* \"#utility.yul\":8464:8468   */\n      0x1f\n        /* \"#utility.yul\":8460:8469   */\n      not\n        /* \"#utility.yul\":8452:8458   */\n      dup5\n        /* \"#utility.yul\":8448:8470   */\n      and\n        /* \"#utility.yul\":8498:8535   */\n      tag_191\n        /* \"#utility.yul\":8530:8534   */\n      dup7\n        /* \"#utility.yul\":8498:8535   */\n      tag_72\n      jump\t// in\n    tag_191:\n        /* \"#utility.yul\":8557:8558   */\n      0x00\n        /* \"#utility.yul\":8571:8779   */\n    tag_192:\n        /* \"#utility.yul\":8585:8592   */\n      dup3\n        /* \"#utility.yul\":8582:8583   */\n      dup2\n        /* \"#utility.yul\":8579:8593   */\n      lt\n        /* \"#utility.yul\":8571:8779   */\n      iszero\n      tag_194\n      jumpi\n        /* \"#utility.yul\":8664:8673   */\n      dup5\n        /* \"#utility.yul\":8659:8662   */\n      dup10\n        /* \"#utility.yul\":8655:8674   */\n      add\n        /* \"#utility.yul\":8649:8675   */\n      mload\n        /* \"#utility.yul\":8641:8647   */\n      dup3\n        /* \"#utility.yul\":8634:8676   */\n      sstore\n        /* \"#utility.yul\":8715:8716   */\n      0x01\n        /* \"#utility.yul\":8707:8713   */\n      dup3\n        /* \"#utility.yul\":8703:8717   */\n      add\n        /* \"#utility.yul\":8693:8717   */\n      swap2\n      pop\n        /* \"#utility.yul\":8762:8764   */\n      0x20\n        /* \"#utility.yul\":8751:8760   */\n      dup6\n        /* \"#utility.yul\":8747:8765   */\n      add\n        /* \"#utility.yul\":8734:8765   */\n      swap5\n      pop\n        /* \"#utility.yul\":8608:8612   */\n      0x20\n        /* \"#utility.yul\":8605:8606   */\n      dup2\n        /* \"#utility.yul\":8601:8613   */\n      add\n        /* \"#utility.yul\":8596:8613   */\n      swap1\n      pop\n        /* \"#utility.yul\":8571:8779   */\n      jump(tag_192)\n    tag_194:\n        /* \"#utility.yul\":8807:8813   */\n      dup7\n        /* \"#utility.yul\":8798:8805   */\n      dup4\n        /* \"#utility.yul\":8795:8814   */\n      lt\n        /* \"#utility.yul\":8792:8971   */\n      iszero\n      tag_195\n      jumpi\n        /* \"#utility.yul\":8865:8874   */\n      dup5\n        /* \"#utility.yul\":8860:8863   */\n      dup10\n        /* \"#utility.yul\":8856:8875   */\n      add\n        /* \"#utility.yul\":8850:8876   */\n      mload\n        /* \"#utility.yul\":8908:8956   */\n      tag_196\n        /* \"#utility.yul\":8950:8954   */\n      0x1f\n        /* \"#utility.yul\":8942:8948   */\n      dup10\n        /* \"#utility.yul\":8938:8955   */\n      and\n        /* \"#utility.yul\":8927:8936   */\n      dup3\n        /* \"#utility.yul\":8908:8956   */\n      tag_86\n      jump\t// in\n    tag_196:\n        /* \"#utility.yul\":8900:8906   */\n      dup4\n        /* \"#utility.yul\":8893:8957   */\n      sstore\n        /* \"#utility.yul\":8815:8971   */\n      pop\n        /* \"#utility.yul\":8792:8971   */\n    tag_195:\n        /* \"#utility.yul\":9017:9018   */\n      0x01\n        /* \"#utility.yul\":9013:9014   */\n      0x02\n        /* \"#utility.yul\":9005:9011   */\n      dup9\n        /* \"#utility.yul\":9001:9015   */\n      mul\n        /* \"#utility.yul\":8997:9019   */\n      add\n        /* \"#utility.yul\":8991:8995   */\n      dup9\n        /* \"#utility.yul\":8984:9020   */\n      sstore\n        /* \"#utility.yul\":8419:9030   */\n      pop\n      pop\n      pop\n        /* \"#utility.yul\":8382:9269   */\n    tag_187:\n      pop\n        /* \"#utility.yul\":7972:9275   */\n      pop\n      pop\n      pop\n        /* \"#utility.yul\":7880:9275   */\n      pop\n      pop\n      jump\t// out\n\n    auxdata: 0xa2646970667358221220781b587f110a7fb5046a31b0a83bcdacc08b0ca8e83586c2e924faed9d4325fa64736f6c634300080f0033\n}\n",
				"bytecode": {
					"linkReferences": {},
					"object": "60806040526040518060400160405280600781526020017f68656c6c6f204100000000000000000000000000000000000000000000000000815250600090816200004a9190620003a3565b506040518060400160405280600781526020017f68656c6c6f20420000000000000000000000000000000000000000000000000081525060019081620000919190620003a3565b503480156200009f57600080fd5b5060405162000f2738038062000f278339818101604052810190620000c59190620005f8565b6040518060400160405280600881526020017f4d657373616765420000000000000000000000000000000000000000000000008152508180600090816200010d9190620003a3565b50508060019081620001209190620003a3565b50505062000649565b600081519050919050565b7f4e487b7100000000000000000000000000000000000000000000000000000000600052604160045260246000fd5b7f4e487b7100000000000000000000000000000000000000000000000000000000600052602260045260246000fd5b60006002820490506001821680620001ab57607f821691505b602082108103620001c157620001c062000163565b5b50919050565b60008190508160005260206000209050919050565b60006020601f8301049050919050565b600082821b905092915050565b6000600883026200022b7fffffffffffffffffffffffffffffffffffffffffffffffffffffffffffffffff82620001ec565b620002378683620001ec565b95508019841693508086168417925050509392505050565b6000819050919050565b6000819050919050565b6000620002846200027e62000278846200024f565b62000259565b6200024f565b9050919050565b6000819050919050565b620002a08362000263565b620002b8620002af826200028b565b848454620001f9565b825550505050565b600090565b620002cf620002c0565b620002dc81848462000295565b505050565b5b818110156200030457620002f8600082620002c5565b600181019050620002e2565b5050565b601f82111562000353576200031d81620001c7565b6200032884620001dc565b8101602085101562000338578190505b620003506200034785620001dc565b830182620002e1565b50505b505050565b600082821c905092915050565b6000620003786000198460080262000358565b1980831691505092915050565b600062000393838362000365565b9150826002028217905092915050565b620003ae8262000129565b67ffffffffffffffff811115620003ca57620003c962000134565b5b620003d6825462000192565b620003e382828562000308565b600060209050601f8311600181146200041b576000841562000406578287015190505b62000412858262000385565b86555062000482565b601f1984166200042b86620001c7565b60005b8281101562000455578489015182556001820191506020850194506020810190506200042e565b8683101562000475578489015162000471601f89168262000365565b8355505b6001600288020188555050505b505050505050565b6000604051905090565b600080fd5b600080fd5b600080fd5b600080fd5b6000601f19601f8301169050919050565b620004c482620004a8565b810181811067ffffffffffffffff82111715620004e657620004e562000134565b5b80604052505050565b6000620004fb6200048a565b9050620005098282620004b9565b919050565b600067ffffffffffffffff8211156200052c576200052b62000134565b5b6200053782620004a8565b9050602081019050919050565b60005b838110156200056457808201518184015260208101905062000547565b8381111562000574576000848401525b50505050565b6000620005916200058b846200050e565b620004ef565b905082815260208101848484011115620005b057620005af620004a3565b5b620005bd84828562000544565b509392505050565b600082601f830112620005dd57620005dc6200049e565b5b8151620005ef8482602086016200057a565b91505092915050565b60006020828403121562000611576200061062000494565b5b600082015167ffffffffffffffff81111562000632576200063162000499565b5b6200064084828501620005c5565b91505092915050565b6108ce80620006596000396000f3fe608060405234801561001057600080fd5b50600436106100625760003560e01c80630c22c5ea1461006757806313bdfacd1461008557806339034642146100a3578063599a2364146100c15780636d0fd33a146100df578063f0a7ef65146100fb575b600080fd5b61006f610119565b60405161007c91906103fc565b60405180910390f35b61008d6101a7565b60405161009a91906103fc565b60405180910390f35b6100ab6101b6565b6040516100b891906103fc565b60405180910390f35b6100c96101f3565b6040516100d691906103fc565b60405180910390f35b6100f960048036038101906100f49190610567565b610230565b005b610103610243565b60405161011091906103fc565b60405180910390f35b60018054610126906105df565b80601f0160208091040260200160405190810160405280929190818152602001828054610152906105df565b801561019f5780601f106101745761010080835404028352916020019161019f565b820191906000526020600020905b81548152906001019060200180831161018257829003601f168201915b505050505081565b60606101b16102d1565b905090565b60606040518060400160405280600781526020017f48656c6c6f204100000000000000000000000000000000000000000000000000815250905090565b60606040518060400160405280600781526020017f48656c6c6f204200000000000000000000000000000000000000000000000000815250905090565b806001908161023f91906107c6565b5050565b60008054610250906105df565b80601f016020809104026020016040519081016040528092919081815260200182805461027c906105df565b80156102c95780601f1061029e576101008083540402835291602001916102c9565b820191906000526020600020905b8154815290600101906020018083116102ac57829003601f168201915b505050505081565b6060600180546102e0906105df565b80601f016020809104026020016040519081016040528092919081815260200182805461030c906105df565b80156103595780601f1061032e57610100808354040283529160200191610359565b820191906000526020600020905b81548152906001019060200180831161033c57829003601f168201915b5050505050905090565b600081519050919050565b600082825260208201905092915050565b60005b8381101561039d578082015181840152602081019050610382565b838111156103ac576000848401525b50505050565b6000601f19601f8301169050919050565b60006103ce82610363565b6103d8818561036e565b93506103e881856020860161037f565b6103f1816103b2565b840191505092915050565b6000602082019050818103600083015261041681846103c3565b905092915050565b6000604051905090565b600080fd5b600080fd5b600080fd5b600080fd5b7f4e487b7100000000000000000000000000000000000000000000000000000000600052604160045260246000fd5b610474826103b2565b810181811067ffffffffffffffff821117156104935761049261043c565b5b80604052505050565b60006104a661041e565b90506104b2828261046b565b919050565b600067ffffffffffffffff8211156104d2576104d161043c565b5b6104db826103b2565b9050602081019050919050565b82818337600083830152505050565b600061050a610505846104b7565b61049c565b90508281526020810184848401111561052657610525610437565b5b6105318482856104e8565b509392505050565b600082601f83011261054e5761054d610432565b5b813561055e8482602086016104f7565b91505092915050565b60006020828403121561057d5761057c610428565b5b600082013567ffffffffffffffff81111561059b5761059a61042d565b5b6105a784828501610539565b91505092915050565b7f4e487b7100000000000000000000000000000000000000000000000000000000600052602260045260246000fd5b600060028204905060018216806105f757607f821691505b60208210810361060a576106096105b0565b5b50919050565b60008190508160005260206000209050919050565b60006020601f8301049050919050565b600082821b905092915050565b6000600883026106727fffffffffffffffffffffffffffffffffffffffffffffffffffffffffffffffff82610635565b61067c8683610635565b95508019841693508086168417925050509392505050565b6000819050919050565b6000819050919050565b60006106c36106be6106b984610694565b61069e565b610694565b9050919050565b6000819050919050565b6106dd836106a8565b6106f16106e9826106ca565b848454610642565b825550505050565b600090565b6107066106f9565b6107118184846106d4565b505050565b5b818110156107355761072a6000826106fe565b600181019050610717565b5050565b601f82111561077a5761074b81610610565b61075484610625565b81016020851015610763578190505b61077761076f85610625565b830182610716565b50505b505050565b600082821c905092915050565b600061079d6000198460080261077f565b1980831691505092915050565b60006107b6838361078c565b9150826002028217905092915050565b6107cf82610363565b67ffffffffffffffff8111156107e8576107e761043c565b5b6107f282546105df565b6107fd828285610739565b600060209050601f831160018114610830576000841561081e578287015190505b61082885826107aa565b865550610890565b601f19841661083e86610610565b60005b8281101561086657848901518255600182019150602085019450602081019050610841565b86831015610883578489015161087f601f89168261078c565b8355505b6001600288020188555050505b50505050505056fea2646970667358221220781b587f110a7fb5046a31b0a83bcdacc08b0ca8e83586c2e924faed9d4325fa64736f6c634300080f0033",
					"opcodes": "PUSH1 0x80 PUSH1 0x40 MSTORE PUSH1 0x40 MLOAD DUP1 PUSH1 0x40 ADD PUSH1 0x40 MSTORE DUP1 PUSH1 0x7 DUP2 MSTORE PUSH1 0x20 ADD PUSH32 0x68656C6C6F204100000000000000000000000000000000000000000000000000 DUP2 MSTORE POP PUSH1 0x0 SWAP1 DUP2 PUSH3 0x4A SWAP2 SWAP1 PUSH3 0x3A3 JUMP JUMPDEST POP PUSH1 0x40 MLOAD DUP1 PUSH1 0x40 ADD PUSH1 0x40 MSTORE DUP1 PUSH1 0x7 DUP2 MSTORE PUSH1 0x20 ADD PUSH32 0x68656C6C6F204200000000000000000000000000000000000000000000000000 DUP2 MSTORE POP PUSH1 0x1 SWAP1 DUP2 PUSH3 0x91 SWAP2 SWAP1 PUSH3 0x3A3 JUMP JUMPDEST POP CALLVALUE DUP1 ISZERO PUSH3 0x9F JUMPI PUSH1 0x0 DUP1 REVERT JUMPDEST POP PUSH1 0x40 MLOAD PUSH3 0xF27 CODESIZE SUB DUP1 PUSH3 0xF27 DUP4 CODECOPY DUP2 DUP2 ADD PUSH1 0x40 MSTORE DUP2 ADD SWAP1 PUSH3 0xC5 SWAP2 SWAP1 PUSH3 0x5F8 JUMP JUMPDEST PUSH1 0x40 MLOAD DUP1 PUSH1 0x40 ADD PUSH1 0x40 MSTORE DUP1 PUSH1 0x8 DUP2 MSTORE PUSH1 0x20 ADD PUSH32 0x4D65737361676542000000000000000000000000000000000000000000000000 DUP2 MSTORE POP DUP2 DUP1 PUSH1 0x0 SWAP1 DUP2 PUSH3 0x10D SWAP2 SWAP1 PUSH3 0x3A3 JUMP JUMPDEST POP POP DUP1 PUSH1 0x1 SWAP1 DUP2 PUSH3 0x120 SWAP2 SWAP1 PUSH3 0x3A3 JUMP JUMPDEST POP POP POP PUSH3 0x649 JUMP JUMPDEST PUSH1 0x0 DUP2 MLOAD SWAP1 POP SWAP2 SWAP1 POP JUMP JUMPDEST PUSH32 0x4E487B7100000000000000000000000000000000000000000000000000000000 PUSH1 0x0 MSTORE PUSH1 0x41 PUSH1 0x4 MSTORE PUSH1 0x24 PUSH1 0x0 REVERT JUMPDEST PUSH32 0x4E487B7100000000000000000000000000000000000000000000000000000000 PUSH1 0x0 MSTORE PUSH1 0x22 PUSH1 0x4 MSTORE PUSH1 0x24 PUSH1 0x0 REVERT JUMPDEST PUSH1 0x0 PUSH1 0x2 DUP3 DIV SWAP1 POP PUSH1 0x1 DUP3 AND DUP1 PUSH3 0x1AB JUMPI PUSH1 0x7F DUP3 AND SWAP2 POP JUMPDEST PUSH1 0x20 DUP3 LT DUP2 SUB PUSH3 0x1C1 JUMPI PUSH3 0x1C0 PUSH3 0x163 JUMP JUMPDEST JUMPDEST POP SWAP2 SWAP1 POP JUMP JUMPDEST PUSH1 0x0 DUP2 SWAP1 POP DUP2 PUSH1 0x0 MSTORE PUSH1 0x20 PUSH1 0x0 KECCAK256 SWAP1 POP SWAP2 SWAP1 POP JUMP JUMPDEST PUSH1 0x0 PUSH1 0x20 PUSH1 0x1F DUP4 ADD DIV SWAP1 POP SWAP2 SWAP1 POP JUMP JUMPDEST PUSH1 0x0 DUP3 DUP3 SHL SWAP1 POP SWAP3 SWAP2 POP POP JUMP JUMPDEST PUSH1 0x0 PUSH1 0x8 DUP4 MUL PUSH3 0x22B PUSH32 0xFFFFFFFFFFFFFFFFFFFFFFFFFFFFFFFFFFFFFFFFFFFFFFFFFFFFFFFFFFFFFFFF DUP3 PUSH3 0x1EC JUMP JUMPDEST PUSH3 0x237 DUP7 DUP4 PUSH3 0x1EC JUMP JUMPDEST SWAP6 POP DUP1 NOT DUP5 AND SWAP4 POP DUP1 DUP7 AND DUP5 OR SWAP3 POP POP POP SWAP4 SWAP3 POP POP POP JUMP JUMPDEST PUSH1 0x0 DUP2 SWAP1 POP SWAP2 SWAP1 POP JUMP JUMPDEST PUSH1 0x0 DUP2 SWAP1 POP SWAP2 SWAP1 POP JUMP JUMPDEST PUSH1 0x0 PUSH3 0x284 PUSH3 0x27E PUSH3 0x278 DUP5 PUSH3 0x24F JUMP JUMPDEST PUSH3 0x259 JUMP JUMPDEST PUSH3 0x24F JUMP JUMPDEST SWAP1 POP SWAP2 SWAP1 POP JUMP JUMPDEST PUSH1 0x0 DUP2 SWAP1 POP SWAP2 SWAP1 POP JUMP JUMPDEST PUSH3 0x2A0 DUP4 PUSH3 0x263 JUMP JUMPDEST PUSH3 0x2B8 PUSH3 0x2AF DUP3 PUSH3 0x28B JUMP JUMPDEST DUP5 DUP5 SLOAD PUSH3 0x1F9 JUMP JUMPDEST DUP3 SSTORE POP POP POP POP JUMP JUMPDEST PUSH1 0x0 SWAP1 JUMP JUMPDEST PUSH3 0x2CF PUSH3 0x2C0 JUMP JUMPDEST PUSH3 0x2DC DUP2 DUP5 DUP5 PUSH3 0x295 JUMP JUMPDEST POP POP POP JUMP JUMPDEST JUMPDEST DUP2 DUP2 LT ISZERO PUSH3 0x304 JUMPI PUSH3 0x2F8 PUSH1 0x0 DUP3 PUSH3 0x2C5 JUMP JUMPDEST PUSH1 0x1 DUP2 ADD SWAP1 POP PUSH3 0x2E2 JUMP JUMPDEST POP POP JUMP JUMPDEST PUSH1 0x1F DUP3 GT ISZERO PUSH3 0x353 JUMPI PUSH3 0x31D DUP2 PUSH3 0x1C7 JUMP JUMPDEST PUSH3 0x328 DUP5 PUSH3 0x1DC JUMP JUMPDEST DUP2 ADD PUSH1 0x20 DUP6 LT ISZERO PUSH3 0x338 JUMPI DUP2 SWAP1 POP JUMPDEST PUSH3 0x350 PUSH3 0x347 DUP6 PUSH3 0x1DC JUMP JUMPDEST DUP4 ADD DUP3 PUSH3 0x2E1 JUMP JUMPDEST POP POP JUMPDEST POP POP POP JUMP JUMPDEST PUSH1 0x0 DUP3 DUP3 SHR SWAP1 POP SWAP3 SWAP2 POP POP JUMP JUMPDEST PUSH1 0x0 PUSH3 0x378 PUSH1 0x0 NOT DUP5 PUSH1 0x8 MUL PUSH3 0x358 JUMP JUMPDEST NOT DUP1 DUP4 AND SWAP2 POP POP SWAP3 SWAP2 POP POP JUMP JUMPDEST PUSH1 0x0 PUSH3 0x393 DUP4 DUP4 PUSH3 0x365 JUMP JUMPDEST SWAP2 POP DUP3 PUSH1 0x2 MUL DUP3 OR SWAP1 POP SWAP3 SWAP2 POP POP JUMP JUMPDEST PUSH3 0x3AE DUP3 PUSH3 0x129 JUMP JUMPDEST PUSH8 0xFFFFFFFFFFFFFFFF DUP2 GT ISZERO PUSH3 0x3CA JUMPI PUSH3 0x3C9 PUSH3 0x134 JUMP JUMPDEST JUMPDEST PUSH3 0x3D6 DUP3 SLOAD PUSH3 0x192 JUMP JUMPDEST PUSH3 0x3E3 DUP3 DUP3 DUP6 PUSH3 0x308 JUMP JUMPDEST PUSH1 0x0 PUSH1 0x20 SWAP1 POP PUSH1 0x1F DUP4 GT PUSH1 0x1 DUP2 EQ PUSH3 0x41B JUMPI PUSH1 0x0 DUP5 ISZERO PUSH3 0x406 JUMPI DUP3 DUP8 ADD MLOAD SWAP1 POP JUMPDEST PUSH3 0x412 DUP6 DUP3 PUSH3 0x385 JUMP JUMPDEST DUP7 SSTORE POP PUSH3 0x482 JUMP JUMPDEST PUSH1 0x1F NOT DUP5 AND PUSH3 0x42B DUP7 PUSH3 0x1C7 JUMP JUMPDEST PUSH1 0x0 JUMPDEST DUP3 DUP2 LT ISZERO PUSH3 0x455 JUMPI DUP5 DUP10 ADD MLOAD DUP3 SSTORE PUSH1 0x1 DUP3 ADD SWAP2 POP PUSH1 0x20 DUP6 ADD SWAP5 POP PUSH1 0x20 DUP2 ADD SWAP1 POP PUSH3 0x42E JUMP JUMPDEST DUP7 DUP4 LT ISZERO PUSH3 0x475 JUMPI DUP5 DUP10 ADD MLOAD PUSH3 0x471 PUSH1 0x1F DUP10 AND DUP3 PUSH3 0x365 JUMP JUMPDEST DUP4 SSTORE POP JUMPDEST PUSH1 0x1 PUSH1 0x2 DUP9 MUL ADD DUP9 SSTORE POP POP POP JUMPDEST POP POP POP POP POP POP JUMP JUMPDEST PUSH1 0x0 PUSH1 0x40 MLOAD SWAP1 POP SWAP1 JUMP JUMPDEST PUSH1 0x0 DUP1 REVERT JUMPDEST PUSH1 0x0 DUP1 REVERT JUMPDEST PUSH1 0x0 DUP1 REVERT JUMPDEST PUSH1 0x0 DUP1 REVERT JUMPDEST PUSH1 0x0 PUSH1 0x1F NOT PUSH1 0x1F DUP4 ADD AND SWAP1 POP SWAP2 SWAP1 POP JUMP JUMPDEST PUSH3 0x4C4 DUP3 PUSH3 0x4A8 JUMP JUMPDEST DUP2 ADD DUP2 DUP2 LT PUSH8 0xFFFFFFFFFFFFFFFF DUP3 GT OR ISZERO PUSH3 0x4E6 JUMPI PUSH3 0x4E5 PUSH3 0x134 JUMP JUMPDEST JUMPDEST DUP1 PUSH1 0x40 MSTORE POP POP POP JUMP JUMPDEST PUSH1 0x0 PUSH3 0x4FB PUSH3 0x48A JUMP JUMPDEST SWAP1 POP PUSH3 0x509 DUP3 DUP3 PUSH3 0x4B9 JUMP JUMPDEST SWAP2 SWAP1 POP JUMP JUMPDEST PUSH1 0x0 PUSH8 0xFFFFFFFFFFFFFFFF DUP3 GT ISZERO PUSH3 0x52C JUMPI PUSH3 0x52B PUSH3 0x134 JUMP JUMPDEST JUMPDEST PUSH3 0x537 DUP3 PUSH3 0x4A8 JUMP JUMPDEST SWAP1 POP PUSH1 0x20 DUP2 ADD SWAP1 POP SWAP2 SWAP1 POP JUMP JUMPDEST PUSH1 0x0 JUMPDEST DUP4 DUP2 LT ISZERO PUSH3 0x564 JUMPI DUP1 DUP3 ADD MLOAD DUP2 DUP5 ADD MSTORE PUSH1 0x20 DUP2 ADD SWAP1 POP PUSH3 0x547 JUMP JUMPDEST DUP4 DUP2 GT ISZERO PUSH3 0x574 JUMPI PUSH1 0x0 DUP5 DUP5 ADD MSTORE JUMPDEST POP POP POP POP JUMP JUMPDEST PUSH1 0x0 PUSH3 0x591 PUSH3 0x58B DUP5 PUSH3 0x50E JUMP JUMPDEST PUSH3 0x4EF JUMP JUMPDEST SWAP1 POP DUP3 DUP2 MSTORE PUSH1 0x20 DUP2 ADD DUP5 DUP5 DUP5 ADD GT ISZERO PUSH3 0x5B0 JUMPI PUSH3 0x5AF PUSH3 0x4A3 JUMP JUMPDEST JUMPDEST PUSH3 0x5BD DUP5 DUP3 DUP6 PUSH3 0x544 JUMP JUMPDEST POP SWAP4 SWAP3 POP POP POP JUMP JUMPDEST PUSH1 0x0 DUP3 PUSH1 0x1F DUP4 ADD SLT PUSH3 0x5DD JUMPI PUSH3 0x5DC PUSH3 0x49E JUMP JUMPDEST JUMPDEST DUP2 MLOAD PUSH3 0x5EF DUP5 DUP3 PUSH1 0x20 DUP7 ADD PUSH3 0x57A JUMP JUMPDEST SWAP2 POP POP SWAP3 SWAP2 POP POP JUMP JUMPDEST PUSH1 0x0 PUSH1 0x20 DUP3 DUP5 SUB SLT ISZERO PUSH3 0x611 JUMPI PUSH3 0x610 PUSH3 0x494 JUMP JUMPDEST JUMPDEST PUSH1 0x0 DUP3 ADD MLOAD PUSH8 0xFFFFFFFFFFFFFFFF DUP2 GT ISZERO PUSH3 0x632 JUMPI PUSH3 0x631 PUSH3 0x499 JUMP JUMPDEST JUMPDEST PUSH3 0x640 DUP5 DUP3 DUP6 ADD PUSH3 0x5C5 JUMP JUMPDEST SWAP2 POP POP SWAP3 SWAP2 POP POP JUMP JUMPDEST PUSH2 0x8CE DUP1 PUSH3 0x659 PUSH1 0x0 CODECOPY PUSH1 0x0 RETURN INVALID PUSH1 0x80 PUSH1 0x40 MSTORE CALLVALUE DUP1 ISZERO PUSH2 0x10 JUMPI PUSH1 0x0 DUP1 REVERT JUMPDEST POP PUSH1 0x4 CALLDATASIZE LT PUSH2 0x62 JUMPI PUSH1 0x0 CALLDATALOAD PUSH1 0xE0 SHR DUP1 PUSH4 0xC22C5EA EQ PUSH2 0x67 JUMPI DUP1 PUSH4 0x13BDFACD EQ PUSH2 0x85 JUMPI DUP1 PUSH4 0x39034642 EQ PUSH2 0xA3 JUMPI DUP1 PUSH4 0x599A2364 EQ PUSH2 0xC1 JUMPI DUP1 PUSH4 0x6D0FD33A EQ PUSH2 0xDF JUMPI DUP1 PUSH4 0xF0A7EF65 EQ PUSH2 0xFB JUMPI JUMPDEST PUSH1 0x0 DUP1 REVERT JUMPDEST PUSH2 0x6F PUSH2 0x119 JUMP JUMPDEST PUSH1 0x40 MLOAD PUSH2 0x7C SWAP2 SWAP1 PUSH2 0x3FC JUMP JUMPDEST PUSH1 0x40 MLOAD DUP1 SWAP2 SUB SWAP1 RETURN JUMPDEST PUSH2 0x8D PUSH2 0x1A7 JUMP JUMPDEST PUSH1 0x40 MLOAD PUSH2 0x9A SWAP2 SWAP1 PUSH2 0x3FC JUMP JUMPDEST PUSH1 0x40 MLOAD DUP1 SWAP2 SUB SWAP1 RETURN JUMPDEST PUSH2 0xAB PUSH2 0x1B6 JUMP JUMPDEST PUSH1 0x40 MLOAD PUSH2 0xB8 SWAP2 SWAP1 PUSH2 0x3FC JUMP JUMPDEST PUSH1 0x40 MLOAD DUP1 SWAP2 SUB SWAP1 RETURN JUMPDEST PUSH2 0xC9 PUSH2 0x1F3 JUMP JUMPDEST PUSH1 0x40 MLOAD PUSH2 0xD6 SWAP2 SWAP1 PUSH2 0x3FC JUMP JUMPDEST PUSH1 0x40 MLOAD DUP1 SWAP2 SUB SWAP1 RETURN JUMPDEST PUSH2 0xF9 PUSH1 0x4 DUP1 CALLDATASIZE SUB DUP2 ADD SWAP1 PUSH2 0xF4 SWAP2 SWAP1 PUSH2 0x567 JUMP JUMPDEST PUSH2 0x230 JUMP JUMPDEST STOP JUMPDEST PUSH2 0x103 PUSH2 0x243 JUMP JUMPDEST PUSH1 0x40 MLOAD PUSH2 0x110 SWAP2 SWAP1 PUSH2 0x3FC JUMP JUMPDEST PUSH1 0x40 MLOAD DUP1 SWAP2 SUB SWAP1 RETURN JUMPDEST PUSH1 0x1 DUP1 SLOAD PUSH2 0x126 SWAP1 PUSH2 0x5DF JUMP JUMPDEST DUP1 PUSH1 0x1F ADD PUSH1 0x20 DUP1 SWAP2 DIV MUL PUSH1 0x20 ADD PUSH1 0x40 MLOAD SWAP1 DUP2 ADD PUSH1 0x40 MSTORE DUP1 SWAP3 SWAP2 SWAP1 DUP2 DUP2 MSTORE PUSH1 0x20 ADD DUP3 DUP1 SLOAD PUSH2 0x152 SWAP1 PUSH2 0x5DF JUMP JUMPDEST DUP1 ISZERO PUSH2 0x19F JUMPI DUP1 PUSH1 0x1F LT PUSH2 0x174 JUMPI PUSH2 0x100 DUP1 DUP4 SLOAD DIV MUL DUP4 MSTORE SWAP2 PUSH1 0x20 ADD SWAP2 PUSH2 0x19F JUMP JUMPDEST DUP3 ADD SWAP2 SWAP1 PUSH1 0x0 MSTORE PUSH1 0x20 PUSH1 0x0 KECCAK256 SWAP1 JUMPDEST DUP2 SLOAD DUP2 MSTORE SWAP1 PUSH1 0x1 ADD SWAP1 PUSH1 0x20 ADD DUP1 DUP4 GT PUSH2 0x182 JUMPI DUP3 SWAP1 SUB PUSH1 0x1F AND DUP3 ADD SWAP2 JUMPDEST POP POP POP POP POP DUP2 JUMP JUMPDEST PUSH1 0x60 PUSH2 0x1B1 PUSH2 0x2D1 JUMP JUMPDEST SWAP1 POP SWAP1 JUMP JUMPDEST PUSH1 0x60 PUSH1 0x40 MLOAD DUP1 PUSH1 0x40 ADD PUSH1 0x40 MSTORE DUP1 PUSH1 0x7 DUP2 MSTORE PUSH1 0x20 ADD PUSH32 0x48656C6C6F204100000000000000000000000000000000000000000000000000 DUP2 MSTORE POP SWAP1 POP SWAP1 JUMP JUMPDEST PUSH1 0x60 PUSH1 0x40 MLOAD DUP1 PUSH1 0x40 ADD PUSH1 0x40 MSTORE DUP1 PUSH1 0x7 DUP2 MSTORE PUSH1 0x20 ADD PUSH32 0x48656C6C6F204200000000000000000000000000000000000000000000000000 DUP2 MSTORE POP SWAP1 POP SWAP1 JUMP JUMPDEST DUP1 PUSH1 0x1 SWAP1 DUP2 PUSH2 0x23F SWAP2 SWAP1 PUSH2 0x7C6 JUMP JUMPDEST POP POP JUMP JUMPDEST PUSH1 0x0 DUP1 SLOAD PUSH2 0x250 SWAP1 PUSH2 0x5DF JUMP JUMPDEST DUP1 PUSH1 0x1F ADD PUSH1 0x20 DUP1 SWAP2 DIV MUL PUSH1 0x20 ADD PUSH1 0x40 MLOAD SWAP1 DUP2 ADD PUSH1 0x40 MSTORE DUP1 SWAP3 SWAP2 SWAP1 DUP2 DUP2 MSTORE PUSH1 0x20 ADD DUP3 DUP1 SLOAD PUSH2 0x27C SWAP1 PUSH2 0x5DF JUMP JUMPDEST DUP1 ISZERO PUSH2 0x2C9 JUMPI DUP1 PUSH1 0x1F LT PUSH2 0x29E JUMPI PUSH2 0x100 DUP1 DUP4 SLOAD DIV MUL DUP4 MSTORE SWAP2 PUSH1 0x20 ADD SWAP2 PUSH2 0x2C9 JUMP JUMPDEST DUP3 ADD SWAP2 SWAP1 PUSH1 0x0 MSTORE PUSH1 0x20 PUSH1 0x0 KECCAK256 SWAP1 JUMPDEST DUP2 SLOAD DUP2 MSTORE SWAP1 PUSH1 0x1 ADD SWAP1 PUSH1 0x20 ADD DUP1 DUP4 GT PUSH2 0x2AC JUMPI DUP3 SWAP1 SUB PUSH1 0x1F AND DUP3 ADD SWAP2 JUMPDEST POP POP POP POP POP DUP2 JUMP JUMPDEST PUSH1 0x60 PUSH1 0x1 DUP1 SLOAD PUSH2 0x2E0 SWAP1 PUSH2 0x5DF JUMP JUMPDEST DUP1 PUSH1 0x1F ADD PUSH1 0x20 DUP1 SWAP2 DIV MUL PUSH1 0x20 ADD PUSH1 0x40 MLOAD SWAP1 DUP2 ADD PUSH1 0x40 MSTORE DUP1 SWAP3 SWAP2 SWAP1 DUP2 DUP2 MSTORE PUSH1 0x20 ADD DUP3 DUP1 SLOAD PUSH2 0x30C SWAP1 PUSH2 0x5DF JUMP JUMPDEST DUP1 ISZERO PUSH2 0x359 JUMPI DUP1 PUSH1 0x1F LT PUSH2 0x32E JUMPI PUSH2 0x100 DUP1 DUP4 SLOAD DIV MUL DUP4 MSTORE SWAP2 PUSH1 0x20 ADD SWAP2 PUSH2 0x359 JUMP JUMPDEST DUP3 ADD SWAP2 SWAP1 PUSH1 0x0 MSTORE PUSH1 0x20 PUSH1 0x0 KECCAK256 SWAP1 JUMPDEST DUP2 SLOAD DUP2 MSTORE SWAP1 PUSH1 0x1 ADD SWAP1 PUSH1 0x20 ADD DUP1 DUP4 GT PUSH2 0x33C JUMPI DUP3 SWAP1 SUB PUSH1 0x1F AND DUP3 ADD SWAP2 JUMPDEST POP POP POP POP POP SWAP1 POP SWAP1 JUMP JUMPDEST PUSH1 0x0 DUP2 MLOAD SWAP1 POP SWAP2 SWAP1 POP JUMP JUMPDEST PUSH1 0x0 DUP3 DUP3 MSTORE PUSH1 0x20 DUP3 ADD SWAP1 POP SWAP3 SWAP2 POP POP JUMP JUMPDEST PUSH1 0x0 JUMPDEST DUP4 DUP2 LT ISZERO PUSH2 0x39D JUMPI DUP1 DUP3 ADD MLOAD DUP2 DUP5 ADD MSTORE PUSH1 0x20 DUP2 ADD SWAP1 POP PUSH2 0x382 JUMP JUMPDEST DUP4 DUP2 GT ISZERO PUSH2 0x3AC JUMPI PUSH1 0x0 DUP5 DUP5 ADD MSTORE JUMPDEST POP POP POP POP JUMP JUMPDEST PUSH1 0x0 PUSH1 0x1F NOT PUSH1 0x1F DUP4 ADD AND SWAP1 POP SWAP2 SWAP1 POP JUMP JUMPDEST PUSH1 0x0 PUSH2 0x3CE DUP3 PUSH2 0x363 JUMP JUMPDEST PUSH2 0x3D8 DUP2 DUP6 PUSH2 0x36E JUMP JUMPDEST SWAP4 POP PUSH2 0x3E8 DUP2 DUP6 PUSH1 0x20 DUP7 ADD PUSH2 0x37F JUMP JUMPDEST PUSH2 0x3F1 DUP2 PUSH2 0x3B2 JUMP JUMPDEST DUP5 ADD SWAP2 POP POP SWAP3 SWAP2 POP POP JUMP JUMPDEST PUSH1 0x0 PUSH1 0x20 DUP3 ADD SWAP1 POP DUP2 DUP2 SUB PUSH1 0x0 DUP4 ADD MSTORE PUSH2 0x416 DUP2 DUP5 PUSH2 0x3C3 JUMP JUMPDEST SWAP1 POP SWAP3 SWAP2 POP POP JUMP JUMPDEST PUSH1 0x0 PUSH1 0x40 MLOAD SWAP1 POP SWAP1 JUMP JUMPDEST PUSH1 0x0 DUP1 REVERT JUMPDEST PUSH1 0x0 DUP1 REVERT JUMPDEST PUSH1 0x0 DUP1 REVERT JUMPDEST PUSH1 0x0 DUP1 REVERT JUMPDEST PUSH32 0x4E487B7100000000000000000000000000000000000000000000000000000000 PUSH1 0x0 MSTORE PUSH1 0x41 PUSH1 0x4 MSTORE PUSH1 0x24 PUSH1 0x0 REVERT JUMPDEST PUSH2 0x474 DUP3 PUSH2 0x3B2 JUMP JUMPDEST DUP2 ADD DUP2 DUP2 LT PUSH8 0xFFFFFFFFFFFFFFFF DUP3 GT OR ISZERO PUSH2 0x493 JUMPI PUSH2 0x492 PUSH2 0x43C JUMP JUMPDEST JUMPDEST DUP1 PUSH1 0x40 MSTORE POP POP POP JUMP JUMPDEST PUSH1 0x0 PUSH2 0x4A6 PUSH2 0x41E JUMP JUMPDEST SWAP1 POP PUSH2 0x4B2 DUP3 DUP3 PUSH2 0x46B JUMP JUMPDEST SWAP2 SWAP1 POP JUMP JUMPDEST PUSH1 0x0 PUSH8 0xFFFFFFFFFFFFFFFF DUP3 GT ISZERO PUSH2 0x4D2 JUMPI PUSH2 0x4D1 PUSH2 0x43C JUMP JUMPDEST JUMPDEST PUSH2 0x4DB DUP3 PUSH2 0x3B2 JUMP JUMPDEST SWAP1 POP PUSH1 0x20 DUP2 ADD SWAP1 POP SWAP2 SWAP1 POP JUMP JUMPDEST DUP3 DUP2 DUP4 CALLDATACOPY PUSH1 0x0 DUP4 DUP4 ADD MSTORE POP POP POP JUMP JUMPDEST PUSH1 0x0 PUSH2 0x50A PUSH2 0x505 DUP5 PUSH2 0x4B7 JUMP JUMPDEST PUSH2 0x49C JUMP JUMPDEST SWAP1 POP DUP3 DUP2 MSTORE PUSH1 0x20 DUP2 ADD DUP5 DUP5 DUP5 ADD GT ISZERO PUSH2 0x526 JUMPI PUSH2 0x525 PUSH2 0x437 JUMP JUMPDEST JUMPDEST PUSH2 0x531 DUP5 DUP3 DUP6 PUSH2 0x4E8 JUMP JUMPDEST POP SWAP4 SWAP3 POP POP POP JUMP JUMPDEST PUSH1 0x0 DUP3 PUSH1 0x1F DUP4 ADD SLT PUSH2 0x54E JUMPI PUSH2 0x54D PUSH2 0x432 JUMP JUMPDEST JUMPDEST DUP2 CALLDATALOAD PUSH2 0x55E DUP5 DUP3 PUSH1 0x20 DUP7 ADD PUSH2 0x4F7 JUMP JUMPDEST SWAP2 POP POP SWAP3 SWAP2 POP POP JUMP JUMPDEST PUSH1 0x0 PUSH1 0x20 DUP3 DUP5 SUB SLT ISZERO PUSH2 0x57D JUMPI PUSH2 0x57C PUSH2 0x428 JUMP JUMPDEST JUMPDEST PUSH1 0x0 DUP3 ADD CALLDATALOAD PUSH8 0xFFFFFFFFFFFFFFFF DUP2 GT ISZERO PUSH2 0x59B JUMPI PUSH2 0x59A PUSH2 0x42D JUMP JUMPDEST JUMPDEST PUSH2 0x5A7 DUP5 DUP3 DUP6 ADD PUSH2 0x539 JUMP JUMPDEST SWAP2 POP POP SWAP3 SWAP2 POP POP JUMP JUMPDEST PUSH32 0x4E487B7100000000000000000000000000000000000000000000000000000000 PUSH1 0x0 MSTORE PUSH1 0x22 PUSH1 0x4 MSTORE PUSH1 0x24 PUSH1 0x0 REVERT JUMPDEST PUSH1 0x0 PUSH1 0x2 DUP3 DIV SWAP1 POP PUSH1 0x1 DUP3 AND DUP1 PUSH2 0x5F7 JUMPI PUSH1 0x7F DUP3 AND SWAP2 POP JUMPDEST PUSH1 0x20 DUP3 LT DUP2 SUB PUSH2 0x60A JUMPI PUSH2 0x609 PUSH2 0x5B0 JUMP JUMPDEST JUMPDEST POP SWAP2 SWAP1 POP JUMP JUMPDEST PUSH1 0x0 DUP2 SWAP1 POP DUP2 PUSH1 0x0 MSTORE PUSH1 0x20 PUSH1 0x0 KECCAK256 SWAP1 POP SWAP2 SWAP1 POP JUMP JUMPDEST PUSH1 0x0 PUSH1 0x20 PUSH1 0x1F DUP4 ADD DIV SWAP1 POP SWAP2 SWAP1 POP JUMP JUMPDEST PUSH1 0x0 DUP3 DUP3 SHL SWAP1 POP SWAP3 SWAP2 POP POP JUMP JUMPDEST PUSH1 0x0 PUSH1 0x8 DUP4 MUL PUSH2 0x672 PUSH32 0xFFFFFFFFFFFFFFFFFFFFFFFFFFFFFFFFFFFFFFFFFFFFFFFFFFFFFFFFFFFFFFFF DUP3 PUSH2 0x635 JUMP JUMPDEST PUSH2 0x67C DUP7 DUP4 PUSH2 0x635 JUMP JUMPDEST SWAP6 POP DUP1 NOT DUP5 AND SWAP4 POP DUP1 DUP7 AND DUP5 OR SWAP3 POP POP POP SWAP4 SWAP3 POP POP POP JUMP JUMPDEST PUSH1 0x0 DUP2 SWAP1 POP SWAP2 SWAP1 POP JUMP JUMPDEST PUSH1 0x0 DUP2 SWAP1 POP SWAP2 SWAP1 POP JUMP JUMPDEST PUSH1 0x0 PUSH2 0x6C3 PUSH2 0x6BE PUSH2 0x6B9 DUP5 PUSH2 0x694 JUMP JUMPDEST PUSH2 0x69E JUMP JUMPDEST PUSH2 0x694 JUMP JUMPDEST SWAP1 POP SWAP2 SWAP1 POP JUMP JUMPDEST PUSH1 0x0 DUP2 SWAP1 POP SWAP2 SWAP1 POP JUMP JUMPDEST PUSH2 0x6DD DUP4 PUSH2 0x6A8 JUMP JUMPDEST PUSH2 0x6F1 PUSH2 0x6E9 DUP3 PUSH2 0x6CA JUMP JUMPDEST DUP5 DUP5 SLOAD PUSH2 0x642 JUMP JUMPDEST DUP3 SSTORE POP POP POP POP JUMP JUMPDEST PUSH1 0x0 SWAP1 JUMP JUMPDEST PUSH2 0x706 PUSH2 0x6F9 JUMP JUMPDEST PUSH2 0x711 DUP2 DUP5 DUP5 PUSH2 0x6D4 JUMP JUMPDEST POP POP POP JUMP JUMPDEST JUMPDEST DUP2 DUP2 LT ISZERO PUSH2 0x735 JUMPI PUSH2 0x72A PUSH1 0x0 DUP3 PUSH2 0x6FE JUMP JUMPDEST PUSH1 0x1 DUP2 ADD SWAP1 POP PUSH2 0x717 JUMP JUMPDEST POP POP JUMP JUMPDEST PUSH1 0x1F DUP3 GT ISZERO PUSH2 0x77A JUMPI PUSH2 0x74B DUP2 PUSH2 0x610 JUMP JUMPDEST PUSH2 0x754 DUP5 PUSH2 0x625 JUMP JUMPDEST DUP2 ADD PUSH1 0x20 DUP6 LT ISZERO PUSH2 0x763 JUMPI DUP2 SWAP1 POP JUMPDEST PUSH2 0x777 PUSH2 0x76F DUP6 PUSH2 0x625 JUMP JUMPDEST DUP4 ADD DUP3 PUSH2 0x716 JUMP JUMPDEST POP POP JUMPDEST POP POP POP JUMP JUMPDEST PUSH1 0x0 DUP3 DUP3 SHR SWAP1 POP SWAP3 SWAP2 POP POP JUMP JUMPDEST PUSH1 0x0 PUSH2 0x79D PUSH1 0x0 NOT DUP5 PUSH1 0x8 MUL PUSH2 0x77F JUMP JUMPDEST NOT DUP1 DUP4 AND SWAP2 POP POP SWAP3 SWAP2 POP POP JUMP JUMPDEST PUSH1 0x0 PUSH2 0x7B6 DUP4 DUP4 PUSH2 0x78C JUMP JUMPDEST SWAP2 POP DUP3 PUSH1 0x2 MUL DUP3 OR SWAP1 POP SWAP3 SWAP2 POP POP JUMP JUMPDEST PUSH2 0x7CF DUP3 PUSH2 0x363 JUMP JUMPDEST PUSH8 0xFFFFFFFFFFFFFFFF DUP2 GT ISZERO PUSH2 0x7E8 JUMPI PUSH2 0x7E7 PUSH2 0x43C JUMP JUMPDEST JUMPDEST PUSH2 0x7F2 DUP3 SLOAD PUSH2 0x5DF JUMP JUMPDEST PUSH2 0x7FD DUP3 DUP3 DUP6 PUSH2 0x739 JUMP JUMPDEST PUSH1 0x0 PUSH1 0x20 SWAP1 POP PUSH1 0x1F DUP4 GT PUSH1 0x1 DUP2 EQ PUSH2 0x830 JUMPI PUSH1 0x0 DUP5 ISZERO PUSH2 0x81E JUMPI DUP3 DUP8 ADD MLOAD SWAP1 POP JUMPDEST PUSH2 0x828 DUP6 DUP3 PUSH2 0x7AA JUMP JUMPDEST DUP7 SSTORE POP PUSH2 0x890 JUMP JUMPDEST PUSH1 0x1F NOT DUP5 AND PUSH2 0x83E DUP7 PUSH2 0x610 JUMP JUMPDEST PUSH1 0x0 JUMPDEST DUP3 DUP2 LT ISZERO PUSH2 0x866 JUMPI DUP5 DUP10 ADD MLOAD DUP3 SSTORE PUSH1 0x1 DUP3 ADD SWAP2 POP PUSH1 0x20 DUP6 ADD SWAP5 POP PUSH1 0x20 DUP2 ADD SWAP1 POP PUSH2 0x841 JUMP JUMPDEST DUP7 DUP4 LT ISZERO PUSH2 0x883 JUMPI DUP5 DUP10 ADD MLOAD PUSH2 0x87F PUSH1 0x1F DUP10 AND DUP3 PUSH2 0x78C JUMP JUMPDEST DUP4 SSTORE POP JUMPDEST PUSH1 0x1 PUSH1 0x2 DUP9 MUL ADD DUP9 SSTORE POP POP POP JUMPDEST POP POP POP POP POP POP JUMP INVALID LOG2 PUSH5 0x6970667358 0x22 SLT KECCAK256 PUSH25 0x1B587F110A7FB5046A31B0A83BCDACC08B0CA8E83586C2E924 STATICCALL 0xED SWAP14 NUMBER 0x25 STATICCALL PUSH5 0x736F6C6343 STOP ADDMOD 0xF STOP CALLER "
				},
				"gasEstimates": {
					"creation": {
						"codeDepositCost": "450800",
						"executionCost": "infinite",
						"totalCost": "infinite"
					},
					"external": {
						"changeMsgB(string)": "infinite",
						"helloA()": "infinite",
						"helloB()": "infinite",
						"msgA()": "infinite",
						"msgB()": "infinite",
						"print()": "infinite"
					}
				},
				"methodIdentifiers": {
					"changeMsgB(string)": "6d0fd33a",
					"helloA()": "39034642",
					"helloB()": "599a2364",
					"msgA()": "f0a7ef65",
					"msgB()": "0c22c5ea",
					"print()": "13bdfacd"
				}
			},
			"storageLayout": {
				"storage": [
					{
						"astId": 4,
						"contract": "contracts/example.sol:C",
						"label": "msgA",
						"offset": 0,
						"slot": "0",
						"type": "t_string_storage"
					},
					{
						"astId": 34,
						"contract": "contracts/example.sol:C",
						"label": "msgB",
						"offset": 0,
						"slot": "1",
						"type": "t_string_storage"
					}
				],
				"types": {
					"t_string_storage": {
						"encoding": "bytes",
						"label": "string",
						"numberOfBytes": "32"
					}
				}
			},
			"userdoc": {
				"kind": "user",
				"methods": {},
				"version": 1
			}
		}
	}
}