{
	"contracts/storage.sol": {
		"MyContract1": {
			"abi": [
				{
					"inputs": [],
					"name": "message",
					"outputs": [
						{
							"internalType": "string",
							"name": "",
							"type": "string"
						}
					],
					"stateMutability": "view",
					"type": "function"
				},
				{
					"inputs": [],
					"name": "number",
					"outputs": [
						{
							"internalType": "uint256",
							"name": "",
							"type": "uint256"
						}
					],
					"stateMutability": "view",
					"type": "function"
				},
				{
					"inputs": [
						{
							"internalType": "uint256",
							"name": "input",
							"type": "uint256"
						}
					],
					"name": "setNumber",
					"outputs": [],
					"stateMutability": "nonpayable",
					"type": "function"
				},
				{
					"inputs": [
						{
							"internalType": "string",
							"name": "input",
							"type": "string"
						}
					],
					"name": "setString",
					"outputs": [],
					"stateMutability": "nonpayable",
					"type": "function"
				}
			],
			"devdoc": {
				"kind": "dev",
				"methods": {},
				"version": 1
			},
			"evm": {
				"assembly": "    /* \"contracts/storage.sol\":653:1058  contract MyContract1{... */\n  mstore(0x40, 0x80)\n    /* \"contracts/storage.sol\":749:752  123 */\n  0x7b\n    /* \"contracts/storage.sol\":728:752  uint public number = 123 */\n  0x00\n  sstore\n    /* \"contracts/storage.sol\":758:795  string public message = \"Hello World\" */\n  mload(0x40)\n  dup1\n  0x40\n  add\n  0x40\n  mstore\n  dup1\n  0x0b\n  dup2\n  mstore\n  0x20\n  add\n  0x48656c6c6f20576f726c64000000000000000000000000000000000000000000\n  dup2\n  mstore\n  pop\n  0x01\n  swap1\n  dup2\n  tag_1\n  swap2\n  swap1\n  tag_2\n  jump\t// in\ntag_1:\n  pop\n    /* \"contracts/storage.sol\":653:1058  contract MyContract1{... */\n  callvalue\n  dup1\n  iszero\n  tag_3\n  jumpi\n  0x00\n  dup1\n  revert\ntag_3:\n  pop\n  jump(tag_4)\n    /* \"#utility.yul\":7:106   */\ntag_5:\n    /* \"#utility.yul\":59:65   */\n  0x00\n    /* \"#utility.yul\":93:98   */\n  dup2\n    /* \"#utility.yul\":87:99   */\n  mload\n    /* \"#utility.yul\":77:99   */\n  swap1\n  pop\n    /* \"#utility.yul\":7:106   */\n  swap2\n  swap1\n  pop\n  jump\t// out\n    /* \"#utility.yul\":112:292   */\ntag_6:\n    /* \"#utility.yul\":160:237   */\n  0x4e487b7100000000000000000000000000000000000000000000000000000000\n    /* \"#utility.yul\":157:158   */\n  0x00\n    /* \"#utility.yul\":150:238   */\n  mstore\n    /* \"#utility.yul\":257:261   */\n  0x41\n    /* \"#utility.yul\":254:255   */\n  0x04\n    /* \"#utility.yul\":247:262   */\n  mstore\n    /* \"#utility.yul\":281:285   */\n  0x24\n    /* \"#utility.yul\":278:279   */\n  0x00\n    /* \"#utility.yul\":271:286   */\n  revert\n    /* \"#utility.yul\":298:478   */\ntag_7:\n    /* \"#utility.yul\":346:423   */\n  0x4e487b7100000000000000000000000000000000000000000000000000000000\n    /* \"#utility.yul\":343:344   */\n  0x00\n    /* \"#utility.yul\":336:424   */\n  mstore\n    /* \"#utility.yul\":443:447   */\n  0x22\n    /* \"#utility.yul\":440:441   */\n  0x04\n    /* \"#utility.yul\":433:448   */\n  mstore\n    /* \"#utility.yul\":467:471   */\n  0x24\n    /* \"#utility.yul\":464:465   */\n  0x00\n    /* \"#utility.yul\":457:472   */\n  revert\n    /* \"#utility.yul\":484:804   */\ntag_8:\n    /* \"#utility.yul\":528:534   */\n  0x00\n    /* \"#utility.yul\":565:566   */\n  0x02\n    /* \"#utility.yul\":559:563   */\n  dup3\n    /* \"#utility.yul\":555:567   */\n  div\n    /* \"#utility.yul\":545:567   */\n  swap1\n  pop\n    /* \"#utility.yul\":612:613   */\n  0x01\n    /* \"#utility.yul\":606:610   */\n  dup3\n    /* \"#utility.yul\":602:614   */\n  and\n    /* \"#utility.yul\":633:651   */\n  dup1\n    /* \"#utility.yul\":623:704   */\n  tag_30\n  jumpi\n    /* \"#utility.yul\":689:693   */\n  0x7f\n    /* \"#utility.yul\":681:687   */\n  dup3\n    /* \"#utility.yul\":677:694   */\n  and\n    /* \"#utility.yul\":667:694   */\n  swap2\n  pop\n    /* \"#utility.yul\":623:704   */\ntag_30:\n    /* \"#utility.yul\":751:753   */\n  0x20\n    /* \"#utility.yul\":743:749   */\n  dup3\n    /* \"#utility.yul\":740:754   */\n  lt\n    /* \"#utility.yul\":720:738   */\n  dup2\n    /* \"#utility.yul\":717:755   */\n  sub\n    /* \"#utility.yul\":714:798   */\n  tag_31\n  jumpi\n    /* \"#utility.yul\":770:788   */\n  tag_32\n  tag_7\n  jump\t// in\ntag_32:\n    /* \"#utility.yul\":714:798   */\ntag_31:\n    /* \"#utility.yul\":535:804   */\n  pop\n    /* \"#utility.yul\":484:804   */\n  swap2\n  swap1\n  pop\n  jump\t// out\n    /* \"#utility.yul\":810:951   */\ntag_9:\n    /* \"#utility.yul\":859:863   */\n  0x00\n    /* \"#utility.yul\":882:885   */\n  dup2\n    /* \"#utility.yul\":874:885   */\n  swap1\n  pop\n    /* \"#utility.yul\":905:908   */\n  dup2\n    /* \"#utility.yul\":902:903   */\n  0x00\n    /* \"#utility.yul\":895:909   */\n  mstore\n    /* \"#utility.yul\":939:943   */\n  0x20\n    /* \"#utility.yul\":936:937   */\n  0x00\n    /* \"#utility.yul\":926:944   */\n  keccak256\n    /* \"#utility.yul\":918:944   */\n  swap1\n  pop\n    /* \"#utility.yul\":810:951   */\n  swap2\n  swap1\n  pop\n  jump\t// out\n    /* \"#utility.yul\":957:1050   */\ntag_10:\n    /* \"#utility.yul\":994:1000   */\n  0x00\n    /* \"#utility.yul\":1041:1043   */\n  0x20\n    /* \"#utility.yul\":1036:1038   */\n  0x1f\n    /* \"#utility.yul\":1029:1034   */\n  dup4\n    /* \"#utility.yul\":1025:1039   */\n  add\n    /* \"#utility.yul\":1021:1044   */\n  div\n    /* \"#utility.yul\":1011:1044   */\n  swap1\n  pop\n    /* \"#utility.yul\":957:1050   */\n  swap2\n  swap1\n  pop\n  jump\t// out\n    /* \"#utility.yul\":1056:1163   */\ntag_11:\n    /* \"#utility.yul\":1100:1108   */\n  0x00\n    /* \"#utility.yul\":1150:1155   */\n  dup3\n    /* \"#utility.yul\":1144:1148   */\n  dup3\n    /* \"#utility.yul\":1140:1156   */\n  shl\n    /* \"#utility.yul\":1119:1156   */\n  swap1\n  pop\n    /* \"#utility.yul\":1056:1163   */\n  swap3\n  swap2\n  pop\n  pop\n  jump\t// out\n    /* \"#utility.yul\":1169:1562   */\ntag_12:\n    /* \"#utility.yul\":1238:1244   */\n  0x00\n    /* \"#utility.yul\":1288:1289   */\n  0x08\n    /* \"#utility.yul\":1276:1286   */\n  dup4\n    /* \"#utility.yul\":1272:1290   */\n  mul\n    /* \"#utility.yul\":1311:1408   */\n  tag_37\n    /* \"#utility.yul\":1341:1407   */\n  0xffffffffffffffffffffffffffffffffffffffffffffffffffffffffffffffff\n    /* \"#utility.yul\":1330:1339   */\n  dup3\n    /* \"#utility.yul\":1311:1408   */\n  tag_11\n  jump\t// in\ntag_37:\n    /* \"#utility.yul\":1429:1468   */\n  tag_38\n    /* \"#utility.yul\":1459:1467   */\n  dup7\n    /* \"#utility.yul\":1448:1457   */\n  dup4\n    /* \"#utility.yul\":1429:1468   */\n  tag_11\n  jump\t// in\ntag_38:\n    /* \"#utility.yul\":1417:1468   */\n  swap6\n  pop\n    /* \"#utility.yul\":1501:1505   */\n  dup1\n    /* \"#utility.yul\":1497:1506   */\n  not\n    /* \"#utility.yul\":1490:1495   */\n  dup5\n    /* \"#utility.yul\":1486:1507   */\n  and\n    /* \"#utility.yul\":1477:1507   */\n  swap4\n  pop\n    /* \"#utility.yul\":1550:1554   */\n  dup1\n    /* \"#utility.yul\":1540:1548   */\n  dup7\n    /* \"#utility.yul\":1536:1555   */\n  and\n    /* \"#utility.yul\":1529:1534   */\n  dup5\n    /* \"#utility.yul\":1526:1556   */\n  or\n    /* \"#utility.yul\":1516:1556   */\n  swap3\n  pop\n    /* \"#utility.yul\":1245:1562   */\n  pop\n  pop\n    /* \"#utility.yul\":1169:1562   */\n  swap4\n  swap3\n  pop\n  pop\n  pop\n  jump\t// out\n    /* \"#utility.yul\":1568:1645   */\ntag_13:\n    /* \"#utility.yul\":1605:1612   */\n  0x00\n    /* \"#utility.yul\":1634:1639   */\n  dup2\n    /* \"#utility.yul\":1623:1639   */\n  swap1\n  pop\n    /* \"#utility.yul\":1568:1645   */\n  swap2\n  swap1\n  pop\n  jump\t// out\n    /* \"#utility.yul\":1651:1711   */\ntag_14:\n    /* \"#utility.yul\":1679:1682   */\n  0x00\n    /* \"#utility.yul\":1700:1705   */\n  dup2\n    /* \"#utility.yul\":1693:1705   */\n  swap1\n  pop\n    /* \"#utility.yul\":1651:1711   */\n  swap2\n  swap1\n  pop\n  jump\t// out\n    /* \"#utility.yul\":1717:1859   */\ntag_15:\n    /* \"#utility.yul\":1767:1776   */\n  0x00\n    /* \"#utility.yul\":1800:1853   */\n  tag_42\n    /* \"#utility.yul\":1818:1852   */\n  tag_43\n    /* \"#utility.yul\":1827:1851   */\n  tag_44\n    /* \"#utility.yul\":1845:1850   */\n  dup5\n    /* \"#utility.yul\":1827:1851   */\n  tag_13\n  jump\t// in\ntag_44:\n    /* \"#utility.yul\":1818:1852   */\n  tag_14\n  jump\t// in\ntag_43:\n    /* \"#utility.yul\":1800:1853   */\n  tag_13\n  jump\t// in\ntag_42:\n    /* \"#utility.yul\":1787:1853   */\n  swap1\n  pop\n    /* \"#utility.yul\":1717:1859   */\n  swap2\n  swap1\n  pop\n  jump\t// out\n    /* \"#utility.yul\":1865:1940   */\ntag_16:\n    /* \"#utility.yul\":1908:1911   */\n  0x00\n    /* \"#utility.yul\":1929:1934   */\n  dup2\n    /* \"#utility.yul\":1922:1934   */\n  swap1\n  pop\n    /* \"#utility.yul\":1865:1940   */\n  swap2\n  swap1\n  pop\n  jump\t// out\n    /* \"#utility.yul\":1946:2215   */\ntag_17:\n    /* \"#utility.yul\":2056:2095   */\n  tag_47\n    /* \"#utility.yul\":2087:2094   */\n  dup4\n    /* \"#utility.yul\":2056:2095   */\n  tag_15\n  jump\t// in\ntag_47:\n    /* \"#utility.yul\":2117:2208   */\n  tag_48\n    /* \"#utility.yul\":2166:2207   */\n  tag_49\n    /* \"#utility.yul\":2190:2206   */\n  dup3\n    /* \"#utility.yul\":2166:2207   */\n  tag_16\n  jump\t// in\ntag_49:\n    /* \"#utility.yul\":2158:2164   */\n  dup5\n    /* \"#utility.yul\":2151:2155   */\n  dup5\n    /* \"#utility.yul\":2145:2156   */\n  sload\n    /* \"#utility.yul\":2117:2208   */\n  tag_12\n  jump\t// in\ntag_48:\n    /* \"#utility.yul\":2111:2115   */\n  dup3\n    /* \"#utility.yul\":2104:2209   */\n  sstore\n    /* \"#utility.yul\":2022:2215   */\n  pop\n    /* \"#utility.yul\":1946:2215   */\n  pop\n  pop\n  pop\n  jump\t// out\n    /* \"#utility.yul\":2221:2294   */\ntag_18:\n    /* \"#utility.yul\":2266:2269   */\n  0x00\n    /* \"#utility.yul\":2221:2294   */\n  swap1\n  jump\t// out\n    /* \"#utility.yul\":2300:2489   */\ntag_19:\n    /* \"#utility.yul\":2377:2409   */\n  tag_52\n  tag_18\n  jump\t// in\ntag_52:\n    /* \"#utility.yul\":2418:2483   */\n  tag_53\n    /* \"#utility.yul\":2476:2482   */\n  dup2\n    /* \"#utility.yul\":2468:2474   */\n  dup5\n    /* \"#utility.yul\":2462:2466   */\n  dup5\n    /* \"#utility.yul\":2418:2483   */\n  tag_17\n  jump\t// in\ntag_53:\n    /* \"#utility.yul\":2353:2489   */\n  pop\n    /* \"#utility.yul\":2300:2489   */\n  pop\n  pop\n  jump\t// out\n    /* \"#utility.yul\":2495:2681   */\ntag_20:\n    /* \"#utility.yul\":2555:2675   */\ntag_55:\n    /* \"#utility.yul\":2572:2575   */\n  dup2\n    /* \"#utility.yul\":2565:2570   */\n  dup2\n    /* \"#utility.yul\":2562:2576   */\n  lt\n    /* \"#utility.yul\":2555:2675   */\n  iszero\n  tag_57\n  jumpi\n    /* \"#utility.yul\":2626:2665   */\n  tag_58\n    /* \"#utility.yul\":2663:2664   */\n  0x00\n    /* \"#utility.yul\":2656:2661   */\n  dup3\n    /* \"#utility.yul\":2626:2665   */\n  tag_19\n  jump\t// in\ntag_58:\n    /* \"#utility.yul\":2599:2600   */\n  0x01\n    /* \"#utility.yul\":2592:2597   */\n  dup2\n    /* \"#utility.yul\":2588:2601   */\n  add\n    /* \"#utility.yul\":2579:2601   */\n  swap1\n  pop\n    /* \"#utility.yul\":2555:2675   */\n  jump(tag_55)\ntag_57:\n    /* \"#utility.yul\":2495:2681   */\n  pop\n  pop\n  jump\t// out\n    /* \"#utility.yul\":2687:3230   */\ntag_21:\n    /* \"#utility.yul\":2788:2790   */\n  0x1f\n    /* \"#utility.yul\":2783:2786   */\n  dup3\n    /* \"#utility.yul\":2780:2791   */\n  gt\n    /* \"#utility.yul\":2777:3223   */\n  iszero\n  tag_60\n  jumpi\n    /* \"#utility.yul\":2822:2860   */\n  tag_61\n    /* \"#utility.yul\":2854:2859   */\n  dup2\n    /* \"#utility.yul\":2822:2860   */\n  tag_9\n  jump\t// in\ntag_61:\n    /* \"#utility.yul\":2906:2935   */\n  tag_62\n    /* \"#utility.yul\":2924:2934   */\n  dup5\n    /* \"#utility.yul\":2906:2935   */\n  tag_10\n  jump\t// in\ntag_62:\n    /* \"#utility.yul\":2896:2904   */\n  dup2\n    /* \"#utility.yul\":2892:2936   */\n  add\n    /* \"#utility.yul\":3089:3091   */\n  0x20\n    /* \"#utility.yul\":3077:3087   */\n  dup6\n    /* \"#utility.yul\":3074:3092   */\n  lt\n    /* \"#utility.yul\":3071:3120   */\n  iszero\n  tag_63\n  jumpi\n    /* \"#utility.yul\":3110:3118   */\n  dup2\n    /* \"#utility.yul\":3095:3118   */\n  swap1\n  pop\n    /* \"#utility.yul\":3071:3120   */\ntag_63:\n    /* \"#utility.yul\":3133:3213   */\n  tag_64\n    /* \"#utility.yul\":3189:3211   */\n  tag_65\n    /* \"#utility.yul\":3207:3210   */\n  dup6\n    /* \"#utility.yul\":3189:3211   */\n  tag_10\n  jump\t// in\ntag_65:\n    /* \"#utility.yul\":3179:3187   */\n  dup4\n    /* \"#utility.yul\":3175:3212   */\n  add\n    /* \"#utility.yul\":3162:3173   */\n  dup3\n    /* \"#utility.yul\":3133:3213   */\n  tag_20\n  jump\t// in\ntag_64:\n    /* \"#utility.yul\":2792:3223   */\n  pop\n  pop\n    /* \"#utility.yul\":2777:3223   */\ntag_60:\n    /* \"#utility.yul\":2687:3230   */\n  pop\n  pop\n  pop\n  jump\t// out\n    /* \"#utility.yul\":3236:3353   */\ntag_22:\n    /* \"#utility.yul\":3290:3298   */\n  0x00\n    /* \"#utility.yul\":3340:3345   */\n  dup3\n    /* \"#utility.yul\":3334:3338   */\n  dup3\n    /* \"#utility.yul\":3330:3346   */\n  shr\n    /* \"#utility.yul\":3309:3346   */\n  swap1\n  pop\n    /* \"#utility.yul\":3236:3353   */\n  swap3\n  swap2\n  pop\n  pop\n  jump\t// out\n    /* \"#utility.yul\":3359:3528   */\ntag_23:\n    /* \"#utility.yul\":3403:3409   */\n  0x00\n    /* \"#utility.yul\":3436:3487   */\n  tag_68\n    /* \"#utility.yul\":3484:3485   */\n  0x00\n    /* \"#utility.yul\":3480:3486   */\n  not\n    /* \"#utility.yul\":3472:3477   */\n  dup5\n    /* \"#utility.yul\":3469:3470   */\n  0x08\n    /* \"#utility.yul\":3465:3478   */\n  mul\n    /* \"#utility.yul\":3436:3487   */\n  tag_22\n  jump\t// in\ntag_68:\n    /* \"#utility.yul\":3432:3488   */\n  not\n    /* \"#utility.yul\":3517:3521   */\n  dup1\n    /* \"#utility.yul\":3511:3515   */\n  dup4\n    /* \"#utility.yul\":3507:3522   */\n  and\n    /* \"#utility.yul\":3497:3522   */\n  swap2\n  pop\n    /* \"#utility.yul\":3410:3528   */\n  pop\n    /* \"#utility.yul\":3359:3528   */\n  swap3\n  swap2\n  pop\n  pop\n  jump\t// out\n    /* \"#utility.yul\":3533:3828   */\ntag_24:\n    /* \"#utility.yul\":3609:3613   */\n  0x00\n    /* \"#utility.yul\":3755:3784   */\n  tag_70\n    /* \"#utility.yul\":3780:3783   */\n  dup4\n    /* \"#utility.yul\":3774:3778   */\n  dup4\n    /* \"#utility.yul\":3755:3784   */\n  tag_23\n  jump\t// in\ntag_70:\n    /* \"#utility.yul\":3747:3784   */\n  swap2\n  pop\n    /* \"#utility.yul\":3817:3820   */\n  dup3\n    /* \"#utility.yul\":3814:3815   */\n  0x02\n    /* \"#utility.yul\":3810:3821   */\n  mul\n    /* \"#utility.yul\":3804:3808   */\n  dup3\n    /* \"#utility.yul\":3801:3822   */\n  or\n    /* \"#utility.yul\":3793:3822   */\n  swap1\n  pop\n    /* \"#utility.yul\":3533:3828   */\n  swap3\n  swap2\n  pop\n  pop\n  jump\t// out\n    /* \"#utility.yul\":3833:5228   */\ntag_2:\n    /* \"#utility.yul\":3950:3987   */\n  tag_72\n    /* \"#utility.yul\":3983:3986   */\n  dup3\n    /* \"#utility.yul\":3950:3987   */\n  tag_5\n  jump\t// in\ntag_72:\n    /* \"#utility.yul\":4052:4070   */\n  0xffffffffffffffff\n    /* \"#utility.yul\":4044:4050   */\n  dup2\n    /* \"#utility.yul\":4041:4071   */\n  gt\n    /* \"#utility.yul\":4038:4094   */\n  iszero\n  tag_73\n  jumpi\n    /* \"#utility.yul\":4074:4092   */\n  tag_74\n  tag_6\n  jump\t// in\ntag_74:\n    /* \"#utility.yul\":4038:4094   */\ntag_73:\n    /* \"#utility.yul\":4118:4156   */\n  tag_75\n    /* \"#utility.yul\":4150:4154   */\n  dup3\n    /* \"#utility.yul\":4144:4155   */\n  sload\n    /* \"#utility.yul\":4118:4156   */\n  tag_8\n  jump\t// in\ntag_75:\n    /* \"#utility.yul\":4203:4270   */\n  tag_76\n    /* \"#utility.yul\":4263:4269   */\n  dup3\n    /* \"#utility.yul\":4255:4261   */\n  dup3\n    /* \"#utility.yul\":4249:4253   */\n  dup6\n    /* \"#utility.yul\":4203:4270   */\n  tag_21\n  jump\t// in\ntag_76:\n    /* \"#utility.yul\":4297:4298   */\n  0x00\n    /* \"#utility.yul\":4321:4325   */\n  0x20\n    /* \"#utility.yul\":4308:4325   */\n  swap1\n  pop\n    /* \"#utility.yul\":4353:4355   */\n  0x1f\n    /* \"#utility.yul\":4345:4351   */\n  dup4\n    /* \"#utility.yul\":4342:4356   */\n  gt\n    /* \"#utility.yul\":4370:4371   */\n  0x01\n    /* \"#utility.yul\":4365:4983   */\n  dup2\n  eq\n  tag_78\n  jumpi\n    /* \"#utility.yul\":5027:5028   */\n  0x00\n    /* \"#utility.yul\":5044:5050   */\n  dup5\n    /* \"#utility.yul\":5041:5118   */\n  iszero\n  tag_79\n  jumpi\n    /* \"#utility.yul\":5093:5102   */\n  dup3\n    /* \"#utility.yul\":5088:5091   */\n  dup8\n    /* \"#utility.yul\":5084:5103   */\n  add\n    /* \"#utility.yul\":5078:5104   */\n  mload\n    /* \"#utility.yul\":5069:5104   */\n  swap1\n  pop\n    /* \"#utility.yul\":5041:5118   */\ntag_79:\n    /* \"#utility.yul\":5144:5211   */\n  tag_80\n    /* \"#utility.yul\":5204:5210   */\n  dup6\n    /* \"#utility.yul\":5197:5202   */\n  dup3\n    /* \"#utility.yul\":5144:5211   */\n  tag_24\n  jump\t// in\ntag_80:\n    /* \"#utility.yul\":5138:5142   */\n  dup7\n    /* \"#utility.yul\":5131:5212   */\n  sstore\n    /* \"#utility.yul\":5000:5222   */\n  pop\n    /* \"#utility.yul\":4335:5222   */\n  jump(tag_77)\n    /* \"#utility.yul\":4365:4983   */\ntag_78:\n    /* \"#utility.yul\":4417:4421   */\n  0x1f\n    /* \"#utility.yul\":4413:4422   */\n  not\n    /* \"#utility.yul\":4405:4411   */\n  dup5\n    /* \"#utility.yul\":4401:4423   */\n  and\n    /* \"#utility.yul\":4451:4488   */\n  tag_81\n    /* \"#utility.yul\":4483:4487   */\n  dup7\n    /* \"#utility.yul\":4451:4488   */\n  tag_9\n  jump\t// in\ntag_81:\n    /* \"#utility.yul\":4510:4511   */\n  0x00\n    /* \"#utility.yul\":4524:4732   */\ntag_82:\n    /* \"#utility.yul\":4538:4545   */\n  dup3\n    /* \"#utility.yul\":4535:4536   */\n  dup2\n    /* \"#utility.yul\":4532:4546   */\n  lt\n    /* \"#utility.yul\":4524:4732   */\n  iszero\n  tag_84\n  jumpi\n    /* \"#utility.yul\":4617:4626   */\n  dup5\n    /* \"#utility.yul\":4612:4615   */\n  dup10\n    /* \"#utility.yul\":4608:4627   */\n  add\n    /* \"#utility.yul\":4602:4628   */\n  mload\n    /* \"#utility.yul\":4594:4600   */\n  dup3\n    /* \"#utility.yul\":4587:4629   */\n  sstore\n    /* \"#utility.yul\":4668:4669   */\n  0x01\n    /* \"#utility.yul\":4660:4666   */\n  dup3\n    /* \"#utility.yul\":4656:4670   */\n  add\n    /* \"#utility.yul\":4646:4670   */\n  swap2\n  pop\n    /* \"#utility.yul\":4715:4717   */\n  0x20\n    /* \"#utility.yul\":4704:4713   */\n  dup6\n    /* \"#utility.yul\":4700:4718   */\n  add\n    /* \"#utility.yul\":4687:4718   */\n  swap5\n  pop\n    /* \"#utility.yul\":4561:4565   */\n  0x20\n    /* \"#utility.yul\":4558:4559   */\n  dup2\n    /* \"#utility.yul\":4554:4566   */\n  add\n    /* \"#utility.yul\":4549:4566   */\n  swap1\n  pop\n    /* \"#utility.yul\":4524:4732   */\n  jump(tag_82)\ntag_84:\n    /* \"#utility.yul\":4760:4766   */\n  dup7\n    /* \"#utility.yul\":4751:4758   */\n  dup4\n    /* \"#utility.yul\":4748:4767   */\n  lt\n    /* \"#utility.yul\":4745:4924   */\n  iszero\n  tag_85\n  jumpi\n    /* \"#utility.yul\":4818:4827   */\n  dup5\n    /* \"#utility.yul\":4813:4816   */\n  dup10\n    /* \"#utility.yul\":4809:4828   */\n  add\n    /* \"#utility.yul\":4803:4829   */\n  mload\n    /* \"#utility.yul\":4861:4909   */\n  tag_86\n    /* \"#utility.yul\":4903:4907   */\n  0x1f\n    /* \"#utility.yul\":4895:4901   */\n  dup10\n    /* \"#utility.yul\":4891:4908   */\n  and\n    /* \"#utility.yul\":4880:4889   */\n  dup3\n    /* \"#utility.yul\":4861:4909   */\n  tag_23\n  jump\t// in\ntag_86:\n    /* \"#utility.yul\":4853:4859   */\n  dup4\n    /* \"#utility.yul\":4846:4910   */\n  sstore\n    /* \"#utility.yul\":4768:4924   */\n  pop\n    /* \"#utility.yul\":4745:4924   */\ntag_85:\n    /* \"#utility.yul\":4970:4971   */\n  0x01\n    /* \"#utility.yul\":4966:4967   */\n  0x02\n    /* \"#utility.yul\":4958:4964   */\n  dup9\n    /* \"#utility.yul\":4954:4968   */\n  mul\n    /* \"#utility.yul\":4950:4972   */\n  add\n    /* \"#utility.yul\":4944:4948   */\n  dup9\n    /* \"#utility.yul\":4937:4973   */\n  sstore\n    /* \"#utility.yul\":4372:4983   */\n  pop\n  pop\n  pop\n    /* \"#utility.yul\":4335:5222   */\ntag_77:\n  pop\n    /* \"#utility.yul\":3925:5228   */\n  pop\n  pop\n  pop\n    /* \"#utility.yul\":3833:5228   */\n  pop\n  pop\n  jump\t// out\n    /* \"contracts/storage.sol\":653:1058  contract MyContract1{... */\ntag_4:\n  dataSize(sub_0)\n  dup1\n  dataOffset(sub_0)\n  0x00\n  codecopy\n  0x00\n  return\nstop\n\nsub_0: assembly {\n        /* \"contracts/storage.sol\":653:1058  contract MyContract1{... */\n      mstore(0x40, 0x80)\n      callvalue\n      dup1\n      iszero\n      tag_1\n      jumpi\n      0x00\n      dup1\n      revert\n    tag_1:\n      pop\n      jumpi(tag_2, lt(calldatasize, 0x04))\n      shr(0xe0, calldataload(0x00))\n      dup1\n      0x3fb5c1cb\n      eq\n      tag_3\n      jumpi\n      dup1\n      0x7fcaf666\n      eq\n      tag_4\n      jumpi\n      dup1\n      0x8381f58a\n      eq\n      tag_5\n      jumpi\n      dup1\n      0xe21f37ce\n      eq\n      tag_6\n      jumpi\n    tag_2:\n      0x00\n      dup1\n      revert\n        /* \"contracts/storage.sol\":942:1056  function setNumber(uint input) public{... */\n    tag_3:\n      tag_7\n      0x04\n      dup1\n      calldatasize\n      sub\n      dup2\n      add\n      swap1\n      tag_8\n      swap2\n      swap1\n      tag_9\n      jump\t// in\n    tag_8:\n      tag_10\n      jump\t// in\n    tag_7:\n      stop\n        /* \"contracts/storage.sol\":802:936  function setString(string memory input)public{... */\n    tag_4:\n      tag_11\n      0x04\n      dup1\n      calldatasize\n      sub\n      dup2\n      add\n      swap1\n      tag_12\n      swap2\n      swap1\n      tag_13\n      jump\t// in\n    tag_12:\n      tag_14\n      jump\t// in\n    tag_11:\n      stop\n        /* \"contracts/storage.sol\":728:752  uint public number = 123 */\n    tag_5:\n      tag_15\n      tag_16\n      jump\t// in\n    tag_15:\n      mload(0x40)\n      tag_17\n      swap2\n      swap1\n      tag_18\n      jump\t// in\n    tag_17:\n      mload(0x40)\n      dup1\n      swap2\n      sub\n      swap1\n      return\n        /* \"contracts/storage.sol\":758:795  string public message = \"Hello World\" */\n    tag_6:\n      tag_19\n      tag_20\n      jump\t// in\n    tag_19:\n      mload(0x40)\n      tag_21\n      swap2\n      swap1\n      tag_22\n      jump\t// in\n    tag_21:\n      mload(0x40)\n      dup1\n      swap2\n      sub\n      swap1\n      return\n        /* \"contracts/storage.sol\":942:1056  function setNumber(uint input) public{... */\n    tag_10:\n        /* \"contracts/storage.sol\":989:1003  uint newNumber */\n      0x00\n        /* \"contracts/storage.sol\":1006:1011  input */\n      dup2\n        /* \"contracts/storage.sol\":989:1011  uint newNumber = input */\n      swap1\n      pop\n        /* \"contracts/storage.sol\":1040:1049  newNumber */\n      dup1\n        /* \"contracts/storage.sol\":1031:1037  number */\n      0x00\n        /* \"contracts/storage.sol\":1031:1049  number = newNumber */\n      dup2\n      swap1\n      sstore\n      pop\n        /* \"contracts/storage.sol\":979:1056  {... */\n      pop\n        /* \"contracts/storage.sol\":942:1056  function setNumber(uint input) public{... */\n      pop\n      jump\t// out\n        /* \"contracts/storage.sol\":802:936  function setString(string memory input)public{... */\n    tag_14:\n        /* \"contracts/storage.sol\":857:881  string memory newMessage */\n      0x00\n        /* \"contracts/storage.sol\":884:889  input */\n      dup2\n        /* \"contracts/storage.sol\":857:889  string memory newMessage = input */\n      swap1\n      pop\n        /* \"contracts/storage.sol\":919:929  newMessage */\n      dup1\n        /* \"contracts/storage.sol\":909:916  message */\n      0x01\n        /* \"contracts/storage.sol\":909:929  message = newMessage */\n      swap1\n      dup2\n      tag_25\n      swap2\n      swap1\n      tag_26\n      jump\t// in\n    tag_25:\n      pop\n        /* \"contracts/storage.sol\":847:936  {... */\n      pop\n        /* \"contracts/storage.sol\":802:936  function setString(string memory input)public{... */\n      pop\n      jump\t// out\n        /* \"contracts/storage.sol\":728:752  uint public number = 123 */\n    tag_16:\n      sload(0x00)\n      dup2\n      jump\t// out\n        /* \"contracts/storage.sol\":758:795  string public message = \"Hello World\" */\n    tag_20:\n      0x01\n      dup1\n      sload\n      tag_27\n      swap1\n      tag_28\n      jump\t// in\n    tag_27:\n      dup1\n      0x1f\n      add\n      0x20\n      dup1\n      swap2\n      div\n      mul\n      0x20\n      add\n      mload(0x40)\n      swap1\n      dup2\n      add\n      0x40\n      mstore\n      dup1\n      swap3\n      swap2\n      swap1\n      dup2\n      dup2\n      mstore\n      0x20\n      add\n      dup3\n      dup1\n      sload\n      tag_29\n      swap1\n      tag_28\n      jump\t// in\n    tag_29:\n      dup1\n      iszero\n      tag_30\n      jumpi\n      dup1\n      0x1f\n      lt\n      tag_31\n      jumpi\n      0x0100\n      dup1\n      dup4\n      sload\n      div\n      mul\n      dup4\n      mstore\n      swap2\n      0x20\n      add\n      swap2\n      jump(tag_30)\n    tag_31:\n      dup3\n      add\n      swap2\n      swap1\n      0x00\n      mstore\n      keccak256(0x00, 0x20)\n      swap1\n    tag_32:\n      dup2\n      sload\n      dup2\n      mstore\n      swap1\n      0x01\n      add\n      swap1\n      0x20\n      add\n      dup1\n      dup4\n      gt\n      tag_32\n      jumpi\n      dup3\n      swap1\n      sub\n      0x1f\n      and\n      dup3\n      add\n      swap2\n    tag_30:\n      pop\n      pop\n      pop\n      pop\n      pop\n      dup2\n      jump\t// out\n        /* \"#utility.yul\":7:82   */\n    tag_33:\n        /* \"#utility.yul\":40:46   */\n      0x00\n        /* \"#utility.yul\":73:75   */\n      0x40\n        /* \"#utility.yul\":67:76   */\n      mload\n        /* \"#utility.yul\":57:76   */\n      swap1\n      pop\n        /* \"#utility.yul\":7:82   */\n      swap1\n      jump\t// out\n        /* \"#utility.yul\":88:205   */\n    tag_34:\n        /* \"#utility.yul\":197:198   */\n      0x00\n        /* \"#utility.yul\":194:195   */\n      dup1\n        /* \"#utility.yul\":187:199   */\n      revert\n        /* \"#utility.yul\":211:328   */\n    tag_35:\n        /* \"#utility.yul\":320:321   */\n      0x00\n        /* \"#utility.yul\":317:318   */\n      dup1\n        /* \"#utility.yul\":310:322   */\n      revert\n        /* \"#utility.yul\":334:411   */\n    tag_36:\n        /* \"#utility.yul\":371:378   */\n      0x00\n        /* \"#utility.yul\":400:405   */\n      dup2\n        /* \"#utility.yul\":389:405   */\n      swap1\n      pop\n        /* \"#utility.yul\":334:411   */\n      swap2\n      swap1\n      pop\n      jump\t// out\n        /* \"#utility.yul\":417:539   */\n    tag_37:\n        /* \"#utility.yul\":490:514   */\n      tag_76\n        /* \"#utility.yul\":508:513   */\n      dup2\n        /* \"#utility.yul\":490:514   */\n      tag_36\n      jump\t// in\n    tag_76:\n        /* \"#utility.yul\":483:488   */\n      dup2\n        /* \"#utility.yul\":480:515   */\n      eq\n        /* \"#utility.yul\":470:533   */\n      tag_77\n      jumpi\n        /* \"#utility.yul\":529:530   */\n      0x00\n        /* \"#utility.yul\":526:527   */\n      dup1\n        /* \"#utility.yul\":519:531   */\n      revert\n        /* \"#utility.yul\":470:533   */\n    tag_77:\n        /* \"#utility.yul\":417:539   */\n      pop\n      jump\t// out\n        /* \"#utility.yul\":545:684   */\n    tag_38:\n        /* \"#utility.yul\":591:596   */\n      0x00\n        /* \"#utility.yul\":629:635   */\n      dup2\n        /* \"#utility.yul\":616:636   */\n      calldataload\n        /* \"#utility.yul\":607:636   */\n      swap1\n      pop\n        /* \"#utility.yul\":645:678   */\n      tag_79\n        /* \"#utility.yul\":672:677   */\n      dup2\n        /* \"#utility.yul\":645:678   */\n      tag_37\n      jump\t// in\n    tag_79:\n        /* \"#utility.yul\":545:684   */\n      swap3\n      swap2\n      pop\n      pop\n      jump\t// out\n        /* \"#utility.yul\":690:1019   */\n    tag_9:\n        /* \"#utility.yul\":749:755   */\n      0x00\n        /* \"#utility.yul\":798:800   */\n      0x20\n        /* \"#utility.yul\":786:795   */\n      dup3\n        /* \"#utility.yul\":777:784   */\n      dup5\n        /* \"#utility.yul\":773:796   */\n      sub\n        /* \"#utility.yul\":769:801   */\n      slt\n        /* \"#utility.yul\":766:885   */\n      iszero\n      tag_81\n      jumpi\n        /* \"#utility.yul\":804:883   */\n      tag_82\n      tag_34\n      jump\t// in\n    tag_82:\n        /* \"#utility.yul\":766:885   */\n    tag_81:\n        /* \"#utility.yul\":924:925   */\n      0x00\n        /* \"#utility.yul\":949:1002   */\n      tag_83\n        /* \"#utility.yul\":994:1001   */\n      dup5\n        /* \"#utility.yul\":985:991   */\n      dup3\n        /* \"#utility.yul\":974:983   */\n      dup6\n        /* \"#utility.yul\":970:992   */\n      add\n        /* \"#utility.yul\":949:1002   */\n      tag_38\n      jump\t// in\n    tag_83:\n        /* \"#utility.yul\":939:1002   */\n      swap2\n      pop\n        /* \"#utility.yul\":895:1012   */\n      pop\n        /* \"#utility.yul\":690:1019   */\n      swap3\n      swap2\n      pop\n      pop\n      jump\t// out\n        /* \"#utility.yul\":1025:1142   */\n    tag_39:\n        /* \"#utility.yul\":1134:1135   */\n      0x00\n        /* \"#utility.yul\":1131:1132   */\n      dup1\n        /* \"#utility.yul\":1124:1136   */\n      revert\n        /* \"#utility.yul\":1148:1265   */\n    tag_40:\n        /* \"#utility.yul\":1257:1258   */\n      0x00\n        /* \"#utility.yul\":1254:1255   */\n      dup1\n        /* \"#utility.yul\":1247:1259   */\n      revert\n        /* \"#utility.yul\":1271:1373   */\n    tag_41:\n        /* \"#utility.yul\":1312:1318   */\n      0x00\n        /* \"#utility.yul\":1363:1365   */\n      0x1f\n        /* \"#utility.yul\":1359:1366   */\n      not\n        /* \"#utility.yul\":1354:1356   */\n      0x1f\n        /* \"#utility.yul\":1347:1352   */\n      dup4\n        /* \"#utility.yul\":1343:1357   */\n      add\n        /* \"#utility.yul\":1339:1367   */\n      and\n        /* \"#utility.yul\":1329:1367   */\n      swap1\n      pop\n        /* \"#utility.yul\":1271:1373   */\n      swap2\n      swap1\n      pop\n      jump\t// out\n        /* \"#utility.yul\":1379:1559   */\n    tag_42:\n        /* \"#utility.yul\":1427:1504   */\n      0x4e487b7100000000000000000000000000000000000000000000000000000000\n        /* \"#utility.yul\":1424:1425   */\n      0x00\n        /* \"#utility.yul\":1417:1505   */\n      mstore\n        /* \"#utility.yul\":1524:1528   */\n      0x41\n        /* \"#utility.yul\":1521:1522   */\n      0x04\n        /* \"#utility.yul\":1514:1529   */\n      mstore\n        /* \"#utility.yul\":1548:1552   */\n      0x24\n        /* \"#utility.yul\":1545:1546   */\n      0x00\n        /* \"#utility.yul\":1538:1553   */\n      revert\n        /* \"#utility.yul\":1565:1846   */\n    tag_43:\n        /* \"#utility.yul\":1648:1675   */\n      tag_89\n        /* \"#utility.yul\":1670:1674   */\n      dup3\n        /* \"#utility.yul\":1648:1675   */\n      tag_41\n      jump\t// in\n    tag_89:\n        /* \"#utility.yul\":1640:1646   */\n      dup2\n        /* \"#utility.yul\":1636:1676   */\n      add\n        /* \"#utility.yul\":1778:1784   */\n      dup2\n        /* \"#utility.yul\":1766:1776   */\n      dup2\n        /* \"#utility.yul\":1763:1785   */\n      lt\n        /* \"#utility.yul\":1742:1760   */\n      0xffffffffffffffff\n        /* \"#utility.yul\":1730:1740   */\n      dup3\n        /* \"#utility.yul\":1727:1761   */\n      gt\n        /* \"#utility.yul\":1724:1786   */\n      or\n        /* \"#utility.yul\":1721:1809   */\n      iszero\n      tag_90\n      jumpi\n        /* \"#utility.yul\":1789:1807   */\n      tag_91\n      tag_42\n      jump\t// in\n    tag_91:\n        /* \"#utility.yul\":1721:1809   */\n    tag_90:\n        /* \"#utility.yul\":1829:1839   */\n      dup1\n        /* \"#utility.yul\":1825:1827   */\n      0x40\n        /* \"#utility.yul\":1818:1840   */\n      mstore\n        /* \"#utility.yul\":1608:1846   */\n      pop\n        /* \"#utility.yul\":1565:1846   */\n      pop\n      pop\n      jump\t// out\n        /* \"#utility.yul\":1852:1981   */\n    tag_44:\n        /* \"#utility.yul\":1886:1892   */\n      0x00\n        /* \"#utility.yul\":1913:1933   */\n      tag_93\n      tag_33\n      jump\t// in\n    tag_93:\n        /* \"#utility.yul\":1903:1933   */\n      swap1\n      pop\n        /* \"#utility.yul\":1942:1975   */\n      tag_94\n        /* \"#utility.yul\":1970:1974   */\n      dup3\n        /* \"#utility.yul\":1962:1968   */\n      dup3\n        /* \"#utility.yul\":1942:1975   */\n      tag_43\n      jump\t// in\n    tag_94:\n        /* \"#utility.yul\":1852:1981   */\n      swap2\n      swap1\n      pop\n      jump\t// out\n        /* \"#utility.yul\":1987:2295   */\n    tag_45:\n        /* \"#utility.yul\":2049:2053   */\n      0x00\n        /* \"#utility.yul\":2139:2157   */\n      0xffffffffffffffff\n        /* \"#utility.yul\":2131:2137   */\n      dup3\n        /* \"#utility.yul\":2128:2158   */\n      gt\n        /* \"#utility.yul\":2125:2181   */\n      iszero\n      tag_96\n      jumpi\n        /* \"#utility.yul\":2161:2179   */\n      tag_97\n      tag_42\n      jump\t// in\n    tag_97:\n        /* \"#utility.yul\":2125:2181   */\n    tag_96:\n        /* \"#utility.yul\":2199:2228   */\n      tag_98\n        /* \"#utility.yul\":2221:2227   */\n      dup3\n        /* \"#utility.yul\":2199:2228   */\n      tag_41\n      jump\t// in\n    tag_98:\n        /* \"#utility.yul\":2191:2228   */\n      swap1\n      pop\n        /* \"#utility.yul\":2283:2287   */\n      0x20\n        /* \"#utility.yul\":2277:2281   */\n      dup2\n        /* \"#utility.yul\":2273:2288   */\n      add\n        /* \"#utility.yul\":2265:2288   */\n      swap1\n      pop\n        /* \"#utility.yul\":1987:2295   */\n      swap2\n      swap1\n      pop\n      jump\t// out\n        /* \"#utility.yul\":2301:2455   */\n    tag_46:\n        /* \"#utility.yul\":2385:2391   */\n      dup3\n        /* \"#utility.yul\":2380:2383   */\n      dup2\n        /* \"#utility.yul\":2375:2378   */\n      dup4\n        /* \"#utility.yul\":2362:2392   */\n      calldatacopy\n        /* \"#utility.yul\":2447:2448   */\n      0x00\n        /* \"#utility.yul\":2438:2444   */\n      dup4\n        /* \"#utility.yul\":2433:2436   */\n      dup4\n        /* \"#utility.yul\":2429:2445   */\n      add\n        /* \"#utility.yul\":2422:2449   */\n      mstore\n        /* \"#utility.yul\":2301:2455   */\n      pop\n      pop\n      pop\n      jump\t// out\n        /* \"#utility.yul\":2461:2873   */\n    tag_47:\n        /* \"#utility.yul\":2539:2544   */\n      0x00\n        /* \"#utility.yul\":2564:2630   */\n      tag_101\n        /* \"#utility.yul\":2580:2629   */\n      tag_102\n        /* \"#utility.yul\":2622:2628   */\n      dup5\n        /* \"#utility.yul\":2580:2629   */\n      tag_45\n      jump\t// in\n    tag_102:\n        /* \"#utility.yul\":2564:2630   */\n      tag_44\n      jump\t// in\n    tag_101:\n        /* \"#utility.yul\":2555:2630   */\n      swap1\n      pop\n        /* \"#utility.yul\":2653:2659   */\n      dup3\n        /* \"#utility.yul\":2646:2651   */\n      dup2\n        /* \"#utility.yul\":2639:2660   */\n      mstore\n        /* \"#utility.yul\":2691:2695   */\n      0x20\n        /* \"#utility.yul\":2684:2689   */\n      dup2\n        /* \"#utility.yul\":2680:2696   */\n      add\n        /* \"#utility.yul\":2729:2732   */\n      dup5\n        /* \"#utility.yul\":2720:2726   */\n      dup5\n        /* \"#utility.yul\":2715:2718   */\n      dup5\n        /* \"#utility.yul\":2711:2727   */\n      add\n        /* \"#utility.yul\":2708:2733   */\n      gt\n        /* \"#utility.yul\":2705:2817   */\n      iszero\n      tag_103\n      jumpi\n        /* \"#utility.yul\":2736:2815   */\n      tag_104\n      tag_40\n      jump\t// in\n    tag_104:\n        /* \"#utility.yul\":2705:2817   */\n    tag_103:\n        /* \"#utility.yul\":2826:2867   */\n      tag_105\n        /* \"#utility.yul\":2860:2866   */\n      dup5\n        /* \"#utility.yul\":2855:2858   */\n      dup3\n        /* \"#utility.yul\":2850:2853   */\n      dup6\n        /* \"#utility.yul\":2826:2867   */\n      tag_46\n      jump\t// in\n    tag_105:\n        /* \"#utility.yul\":2545:2873   */\n      pop\n        /* \"#utility.yul\":2461:2873   */\n      swap4\n      swap3\n      pop\n      pop\n      pop\n      jump\t// out\n        /* \"#utility.yul\":2893:3233   */\n    tag_48:\n        /* \"#utility.yul\":2949:2954   */\n      0x00\n        /* \"#utility.yul\":2998:3001   */\n      dup3\n        /* \"#utility.yul\":2991:2995   */\n      0x1f\n        /* \"#utility.yul\":2983:2989   */\n      dup4\n        /* \"#utility.yul\":2979:2996   */\n      add\n        /* \"#utility.yul\":2975:3002   */\n      slt\n        /* \"#utility.yul\":2965:3087   */\n      tag_107\n      jumpi\n        /* \"#utility.yul\":3006:3085   */\n      tag_108\n      tag_39\n      jump\t// in\n    tag_108:\n        /* \"#utility.yul\":2965:3087   */\n    tag_107:\n        /* \"#utility.yul\":3123:3129   */\n      dup2\n        /* \"#utility.yul\":3110:3130   */\n      calldataload\n        /* \"#utility.yul\":3148:3227   */\n      tag_109\n        /* \"#utility.yul\":3223:3226   */\n      dup5\n        /* \"#utility.yul\":3215:3221   */\n      dup3\n        /* \"#utility.yul\":3208:3212   */\n      0x20\n        /* \"#utility.yul\":3200:3206   */\n      dup7\n        /* \"#utility.yul\":3196:3213   */\n      add\n        /* \"#utility.yul\":3148:3227   */\n      tag_47\n      jump\t// in\n    tag_109:\n        /* \"#utility.yul\":3139:3227   */\n      swap2\n      pop\n        /* \"#utility.yul\":2955:3233   */\n      pop\n        /* \"#utility.yul\":2893:3233   */\n      swap3\n      swap2\n      pop\n      pop\n      jump\t// out\n        /* \"#utility.yul\":3239:3748   */\n    tag_13:\n        /* \"#utility.yul\":3308:3314   */\n      0x00\n        /* \"#utility.yul\":3357:3359   */\n      0x20\n        /* \"#utility.yul\":3345:3354   */\n      dup3\n        /* \"#utility.yul\":3336:3343   */\n      dup5\n        /* \"#utility.yul\":3332:3355   */\n      sub\n        /* \"#utility.yul\":3328:3360   */\n      slt\n        /* \"#utility.yul\":3325:3444   */\n      iszero\n      tag_111\n      jumpi\n        /* \"#utility.yul\":3363:3442   */\n      tag_112\n      tag_34\n      jump\t// in\n    tag_112:\n        /* \"#utility.yul\":3325:3444   */\n    tag_111:\n        /* \"#utility.yul\":3511:3512   */\n      0x00\n        /* \"#utility.yul\":3500:3509   */\n      dup3\n        /* \"#utility.yul\":3496:3513   */\n      add\n        /* \"#utility.yul\":3483:3514   */\n      calldataload\n        /* \"#utility.yul\":3541:3559   */\n      0xffffffffffffffff\n        /* \"#utility.yul\":3533:3539   */\n      dup2\n        /* \"#utility.yul\":3530:3560   */\n      gt\n        /* \"#utility.yul\":3527:3644   */\n      iszero\n      tag_113\n      jumpi\n        /* \"#utility.yul\":3563:3642   */\n      tag_114\n      tag_35\n      jump\t// in\n    tag_114:\n        /* \"#utility.yul\":3527:3644   */\n    tag_113:\n        /* \"#utility.yul\":3668:3731   */\n      tag_115\n        /* \"#utility.yul\":3723:3730   */\n      dup5\n        /* \"#utility.yul\":3714:3720   */\n      dup3\n        /* \"#utility.yul\":3703:3712   */\n      dup6\n        /* \"#utility.yul\":3699:3721   */\n      add\n        /* \"#utility.yul\":3668:3731   */\n      tag_48\n      jump\t// in\n    tag_115:\n        /* \"#utility.yul\":3658:3731   */\n      swap2\n      pop\n        /* \"#utility.yul\":3454:3741   */\n      pop\n        /* \"#utility.yul\":3239:3748   */\n      swap3\n      swap2\n      pop\n      pop\n      jump\t// out\n        /* \"#utility.yul\":3754:3872   */\n    tag_49:\n        /* \"#utility.yul\":3841:3865   */\n      tag_117\n        /* \"#utility.yul\":3859:3864   */\n      dup2\n        /* \"#utility.yul\":3841:3865   */\n      tag_36\n      jump\t// in\n    tag_117:\n        /* \"#utility.yul\":3836:3839   */\n      dup3\n        /* \"#utility.yul\":3829:3866   */\n      mstore\n        /* \"#utility.yul\":3754:3872   */\n      pop\n      pop\n      jump\t// out\n        /* \"#utility.yul\":3878:4100   */\n    tag_18:\n        /* \"#utility.yul\":3971:3975   */\n      0x00\n        /* \"#utility.yul\":4009:4011   */\n      0x20\n        /* \"#utility.yul\":3998:4007   */\n      dup3\n        /* \"#utility.yul\":3994:4012   */\n      add\n        /* \"#utility.yul\":3986:4012   */\n      swap1\n      pop\n        /* \"#utility.yul\":4022:4093   */\n      tag_119\n        /* \"#utility.yul\":4090:4091   */\n      0x00\n        /* \"#utility.yul\":4079:4088   */\n      dup4\n        /* \"#utility.yul\":4075:4092   */\n      add\n        /* \"#utility.yul\":4066:4072   */\n      dup5\n        /* \"#utility.yul\":4022:4093   */\n      tag_49\n      jump\t// in\n    tag_119:\n        /* \"#utility.yul\":3878:4100   */\n      swap3\n      swap2\n      pop\n      pop\n      jump\t// out\n        /* \"#utility.yul\":4106:4205   */\n    tag_50:\n        /* \"#utility.yul\":4158:4164   */\n      0x00\n        /* \"#utility.yul\":4192:4197   */\n      dup2\n        /* \"#utility.yul\":4186:4198   */\n      mload\n        /* \"#utility.yul\":4176:4198   */\n      swap1\n      pop\n        /* \"#utility.yul\":4106:4205   */\n      swap2\n      swap1\n      pop\n      jump\t// out\n        /* \"#utility.yul\":4211:4380   */\n    tag_51:\n        /* \"#utility.yul\":4295:4306   */\n      0x00\n        /* \"#utility.yul\":4329:4335   */\n      dup3\n        /* \"#utility.yul\":4324:4327   */\n      dup3\n        /* \"#utility.yul\":4317:4336   */\n      mstore\n        /* \"#utility.yul\":4369:4373   */\n      0x20\n        /* \"#utility.yul\":4364:4367   */\n      dup3\n        /* \"#utility.yul\":4360:4374   */\n      add\n        /* \"#utility.yul\":4345:4374   */\n      swap1\n      pop\n        /* \"#utility.yul\":4211:4380   */\n      swap3\n      swap2\n      pop\n      pop\n      jump\t// out\n        /* \"#utility.yul\":4386:4693   */\n    tag_52:\n        /* \"#utility.yul\":4454:4455   */\n      0x00\n        /* \"#utility.yul\":4464:4577   */\n    tag_123:\n        /* \"#utility.yul\":4478:4484   */\n      dup4\n        /* \"#utility.yul\":4475:4476   */\n      dup2\n        /* \"#utility.yul\":4472:4485   */\n      lt\n        /* \"#utility.yul\":4464:4577   */\n      iszero\n      tag_125\n      jumpi\n        /* \"#utility.yul\":4563:4564   */\n      dup1\n        /* \"#utility.yul\":4558:4561   */\n      dup3\n        /* \"#utility.yul\":4554:4565   */\n      add\n        /* \"#utility.yul\":4548:4566   */\n      mload\n        /* \"#utility.yul\":4544:4545   */\n      dup2\n        /* \"#utility.yul\":4539:4542   */\n      dup5\n        /* \"#utility.yul\":4535:4546   */\n      add\n        /* \"#utility.yul\":4528:4567   */\n      mstore\n        /* \"#utility.yul\":4500:4502   */\n      0x20\n        /* \"#utility.yul\":4497:4498   */\n      dup2\n        /* \"#utility.yul\":4493:4503   */\n      add\n        /* \"#utility.yul\":4488:4503   */\n      swap1\n      pop\n        /* \"#utility.yul\":4464:4577   */\n      jump(tag_123)\n    tag_125:\n        /* \"#utility.yul\":4595:4601   */\n      dup4\n        /* \"#utility.yul\":4592:4593   */\n      dup2\n        /* \"#utility.yul\":4589:4602   */\n      gt\n        /* \"#utility.yul\":4586:4687   */\n      iszero\n      tag_126\n      jumpi\n        /* \"#utility.yul\":4675:4676   */\n      0x00\n        /* \"#utility.yul\":4666:4672   */\n      dup5\n        /* \"#utility.yul\":4661:4664   */\n      dup5\n        /* \"#utility.yul\":4657:4673   */\n      add\n        /* \"#utility.yul\":4650:4677   */\n      mstore\n        /* \"#utility.yul\":4586:4687   */\n    tag_126:\n        /* \"#utility.yul\":4435:4693   */\n      pop\n        /* \"#utility.yul\":4386:4693   */\n      pop\n      pop\n      pop\n      jump\t// out\n        /* \"#utility.yul\":4699:5063   */\n    tag_53:\n        /* \"#utility.yul\":4787:4790   */\n      0x00\n        /* \"#utility.yul\":4815:4854   */\n      tag_128\n        /* \"#utility.yul\":4848:4853   */\n      dup3\n        /* \"#utility.yul\":4815:4854   */\n      tag_50\n      jump\t// in\n    tag_128:\n        /* \"#utility.yul\":4870:4941   */\n      tag_129\n        /* \"#utility.yul\":4934:4940   */\n      dup2\n        /* \"#utility.yul\":4929:4932   */\n      dup6\n        /* \"#utility.yul\":4870:4941   */\n      tag_51\n      jump\t// in\n    tag_129:\n        /* \"#utility.yul\":4863:4941   */\n      swap4\n      pop\n        /* \"#utility.yul\":4950:5002   */\n      tag_130\n        /* \"#utility.yul\":4995:5001   */\n      dup2\n        /* \"#utility.yul\":4990:4993   */\n      dup6\n        /* \"#utility.yul\":4983:4987   */\n      0x20\n        /* \"#utility.yul\":4976:4981   */\n      dup7\n        /* \"#utility.yul\":4972:4988   */\n      add\n        /* \"#utility.yul\":4950:5002   */\n      tag_52\n      jump\t// in\n    tag_130:\n        /* \"#utility.yul\":5027:5056   */\n      tag_131\n        /* \"#utility.yul\":5049:5055   */\n      dup2\n        /* \"#utility.yul\":5027:5056   */\n      tag_41\n      jump\t// in\n    tag_131:\n        /* \"#utility.yul\":5022:5025   */\n      dup5\n        /* \"#utility.yul\":5018:5057   */\n      add\n        /* \"#utility.yul\":5011:5057   */\n      swap2\n      pop\n        /* \"#utility.yul\":4791:5063   */\n      pop\n        /* \"#utility.yul\":4699:5063   */\n      swap3\n      swap2\n      pop\n      pop\n      jump\t// out\n        /* \"#utility.yul\":5069:5382   */\n    tag_22:\n        /* \"#utility.yul\":5182:5186   */\n      0x00\n        /* \"#utility.yul\":5220:5222   */\n      0x20\n        /* \"#utility.yul\":5209:5218   */\n      dup3\n        /* \"#utility.yul\":5205:5223   */\n      add\n        /* \"#utility.yul\":5197:5223   */\n      swap1\n      pop\n        /* \"#utility.yul\":5269:5278   */\n      dup2\n        /* \"#utility.yul\":5263:5267   */\n      dup2\n        /* \"#utility.yul\":5259:5279   */\n      sub\n        /* \"#utility.yul\":5255:5256   */\n      0x00\n        /* \"#utility.yul\":5244:5253   */\n      dup4\n        /* \"#utility.yul\":5240:5257   */\n      add\n        /* \"#utility.yul\":5233:5280   */\n      mstore\n        /* \"#utility.yul\":5297:5375   */\n      tag_133\n        /* \"#utility.yul\":5370:5374   */\n      dup2\n        /* \"#utility.yul\":5361:5367   */\n      dup5\n        /* \"#utility.yul\":5297:5375   */\n      tag_53\n      jump\t// in\n    tag_133:\n        /* \"#utility.yul\":5289:5375   */\n      swap1\n      pop\n        /* \"#utility.yul\":5069:5382   */\n      swap3\n      swap2\n      pop\n      pop\n      jump\t// out\n        /* \"#utility.yul\":5388:5568   */\n    tag_54:\n        /* \"#utility.yul\":5436:5513   */\n      0x4e487b7100000000000000000000000000000000000000000000000000000000\n        /* \"#utility.yul\":5433:5434   */\n      0x00\n        /* \"#utility.yul\":5426:5514   */\n      mstore\n        /* \"#utility.yul\":5533:5537   */\n      0x22\n        /* \"#utility.yul\":5530:5531   */\n      0x04\n        /* \"#utility.yul\":5523:5538   */\n      mstore\n        /* \"#utility.yul\":5557:5561   */\n      0x24\n        /* \"#utility.yul\":5554:5555   */\n      0x00\n        /* \"#utility.yul\":5547:5562   */\n      revert\n        /* \"#utility.yul\":5574:5894   */\n    tag_28:\n        /* \"#utility.yul\":5618:5624   */\n      0x00\n        /* \"#utility.yul\":5655:5656   */\n      0x02\n        /* \"#utility.yul\":5649:5653   */\n      dup3\n        /* \"#utility.yul\":5645:5657   */\n      div\n        /* \"#utility.yul\":5635:5657   */\n      swap1\n      pop\n        /* \"#utility.yul\":5702:5703   */\n      0x01\n        /* \"#utility.yul\":5696:5700   */\n      dup3\n        /* \"#utility.yul\":5692:5704   */\n      and\n        /* \"#utility.yul\":5723:5741   */\n      dup1\n        /* \"#utility.yul\":5713:5794   */\n      tag_136\n      jumpi\n        /* \"#utility.yul\":5779:5783   */\n      0x7f\n        /* \"#utility.yul\":5771:5777   */\n      dup3\n        /* \"#utility.yul\":5767:5784   */\n      and\n        /* \"#utility.yul\":5757:5784   */\n      swap2\n      pop\n        /* \"#utility.yul\":5713:5794   */\n    tag_136:\n        /* \"#utility.yul\":5841:5843   */\n      0x20\n        /* \"#utility.yul\":5833:5839   */\n      dup3\n        /* \"#utility.yul\":5830:5844   */\n      lt\n        /* \"#utility.yul\":5810:5828   */\n      dup2\n        /* \"#utility.yul\":5807:5845   */\n      sub\n        /* \"#utility.yul\":5804:5888   */\n      tag_137\n      jumpi\n        /* \"#utility.yul\":5860:5878   */\n      tag_138\n      tag_54\n      jump\t// in\n    tag_138:\n        /* \"#utility.yul\":5804:5888   */\n    tag_137:\n        /* \"#utility.yul\":5625:5894   */\n      pop\n        /* \"#utility.yul\":5574:5894   */\n      swap2\n      swap1\n      pop\n      jump\t// out\n        /* \"#utility.yul\":5900:6041   */\n    tag_55:\n        /* \"#utility.yul\":5949:5953   */\n      0x00\n        /* \"#utility.yul\":5972:5975   */\n      dup2\n        /* \"#utility.yul\":5964:5975   */\n      swap1\n      pop\n        /* \"#utility.yul\":5995:5998   */\n      dup2\n        /* \"#utility.yul\":5992:5993   */\n      0x00\n        /* \"#utility.yul\":5985:5999   */\n      mstore\n        /* \"#utility.yul\":6029:6033   */\n      0x20\n        /* \"#utility.yul\":6026:6027   */\n      0x00\n        /* \"#utility.yul\":6016:6034   */\n      keccak256\n        /* \"#utility.yul\":6008:6034   */\n      swap1\n      pop\n        /* \"#utility.yul\":5900:6041   */\n      swap2\n      swap1\n      pop\n      jump\t// out\n        /* \"#utility.yul\":6047:6140   */\n    tag_56:\n        /* \"#utility.yul\":6084:6090   */\n      0x00\n        /* \"#utility.yul\":6131:6133   */\n      0x20\n        /* \"#utility.yul\":6126:6128   */\n      0x1f\n        /* \"#utility.yul\":6119:6124   */\n      dup4\n        /* \"#utility.yul\":6115:6129   */\n      add\n        /* \"#utility.yul\":6111:6134   */\n      div\n        /* \"#utility.yul\":6101:6134   */\n      swap1\n      pop\n        /* \"#utility.yul\":6047:6140   */\n      swap2\n      swap1\n      pop\n      jump\t// out\n        /* \"#utility.yul\":6146:6253   */\n    tag_57:\n        /* \"#utility.yul\":6190:6198   */\n      0x00\n        /* \"#utility.yul\":6240:6245   */\n      dup3\n        /* \"#utility.yul\":6234:6238   */\n      dup3\n        /* \"#utility.yul\":6230:6246   */\n      shl\n        /* \"#utility.yul\":6209:6246   */\n      swap1\n      pop\n        /* \"#utility.yul\":6146:6253   */\n      swap3\n      swap2\n      pop\n      pop\n      jump\t// out\n        /* \"#utility.yul\":6259:6652   */\n    tag_58:\n        /* \"#utility.yul\":6328:6334   */\n      0x00\n        /* \"#utility.yul\":6378:6379   */\n      0x08\n        /* \"#utility.yul\":6366:6376   */\n      dup4\n        /* \"#utility.yul\":6362:6380   */\n      mul\n        /* \"#utility.yul\":6401:6498   */\n      tag_143\n        /* \"#utility.yul\":6431:6497   */\n      0xffffffffffffffffffffffffffffffffffffffffffffffffffffffffffffffff\n        /* \"#utility.yul\":6420:6429   */\n      dup3\n        /* \"#utility.yul\":6401:6498   */\n      tag_57\n      jump\t// in\n    tag_143:\n        /* \"#utility.yul\":6519:6558   */\n      tag_144\n        /* \"#utility.yul\":6549:6557   */\n      dup7\n        /* \"#utility.yul\":6538:6547   */\n      dup4\n        /* \"#utility.yul\":6519:6558   */\n      tag_57\n      jump\t// in\n    tag_144:\n        /* \"#utility.yul\":6507:6558   */\n      swap6\n      pop\n        /* \"#utility.yul\":6591:6595   */\n      dup1\n        /* \"#utility.yul\":6587:6596   */\n      not\n        /* \"#utility.yul\":6580:6585   */\n      dup5\n        /* \"#utility.yul\":6576:6597   */\n      and\n        /* \"#utility.yul\":6567:6597   */\n      swap4\n      pop\n        /* \"#utility.yul\":6640:6644   */\n      dup1\n        /* \"#utility.yul\":6630:6638   */\n      dup7\n        /* \"#utility.yul\":6626:6645   */\n      and\n        /* \"#utility.yul\":6619:6624   */\n      dup5\n        /* \"#utility.yul\":6616:6646   */\n      or\n        /* \"#utility.yul\":6606:6646   */\n      swap3\n      pop\n        /* \"#utility.yul\":6335:6652   */\n      pop\n      pop\n        /* \"#utility.yul\":6259:6652   */\n      swap4\n      swap3\n      pop\n      pop\n      pop\n      jump\t// out\n        /* \"#utility.yul\":6658:6718   */\n    tag_59:\n        /* \"#utility.yul\":6686:6689   */\n      0x00\n        /* \"#utility.yul\":6707:6712   */\n      dup2\n        /* \"#utility.yul\":6700:6712   */\n      swap1\n      pop\n        /* \"#utility.yul\":6658:6718   */\n      swap2\n      swap1\n      pop\n      jump\t// out\n        /* \"#utility.yul\":6724:6866   */\n    tag_60:\n        /* \"#utility.yul\":6774:6783   */\n      0x00\n        /* \"#utility.yul\":6807:6860   */\n      tag_147\n        /* \"#utility.yul\":6825:6859   */\n      tag_148\n        /* \"#utility.yul\":6834:6858   */\n      tag_149\n        /* \"#utility.yul\":6852:6857   */\n      dup5\n        /* \"#utility.yul\":6834:6858   */\n      tag_36\n      jump\t// in\n    tag_149:\n        /* \"#utility.yul\":6825:6859   */\n      tag_59\n      jump\t// in\n    tag_148:\n        /* \"#utility.yul\":6807:6860   */\n      tag_36\n      jump\t// in\n    tag_147:\n        /* \"#utility.yul\":6794:6860   */\n      swap1\n      pop\n        /* \"#utility.yul\":6724:6866   */\n      swap2\n      swap1\n      pop\n      jump\t// out\n        /* \"#utility.yul\":6872:6947   */\n    tag_61:\n        /* \"#utility.yul\":6915:6918   */\n      0x00\n        /* \"#utility.yul\":6936:6941   */\n      dup2\n        /* \"#utility.yul\":6929:6941   */\n      swap1\n      pop\n        /* \"#utility.yul\":6872:6947   */\n      swap2\n      swap1\n      pop\n      jump\t// out\n        /* \"#utility.yul\":6953:7222   */\n    tag_62:\n        /* \"#utility.yul\":7063:7102   */\n      tag_152\n        /* \"#utility.yul\":7094:7101   */\n      dup4\n        /* \"#utility.yul\":7063:7102   */\n      tag_60\n      jump\t// in\n    tag_152:\n        /* \"#utility.yul\":7124:7215   */\n      tag_153\n        /* \"#utility.yul\":7173:7214   */\n      tag_154\n        /* \"#utility.yul\":7197:7213   */\n      dup3\n        /* \"#utility.yul\":7173:7214   */\n      tag_61\n      jump\t// in\n    tag_154:\n        /* \"#utility.yul\":7165:7171   */\n      dup5\n        /* \"#utility.yul\":7158:7162   */\n      dup5\n        /* \"#utility.yul\":7152:7163   */\n      sload\n        /* \"#utility.yul\":7124:7215   */\n      tag_58\n      jump\t// in\n    tag_153:\n        /* \"#utility.yul\":7118:7122   */\n      dup3\n        /* \"#utility.yul\":7111:7216   */\n      sstore\n        /* \"#utility.yul\":7029:7222   */\n      pop\n        /* \"#utility.yul\":6953:7222   */\n      pop\n      pop\n      pop\n      jump\t// out\n        /* \"#utility.yul\":7228:7301   */\n    tag_63:\n        /* \"#utility.yul\":7273:7276   */\n      0x00\n        /* \"#utility.yul\":7228:7301   */\n      swap1\n      jump\t// out\n        /* \"#utility.yul\":7307:7496   */\n    tag_64:\n        /* \"#utility.yul\":7384:7416   */\n      tag_157\n      tag_63\n      jump\t// in\n    tag_157:\n        /* \"#utility.yul\":7425:7490   */\n      tag_158\n        /* \"#utility.yul\":7483:7489   */\n      dup2\n        /* \"#utility.yul\":7475:7481   */\n      dup5\n        /* \"#utility.yul\":7469:7473   */\n      dup5\n        /* \"#utility.yul\":7425:7490   */\n      tag_62\n      jump\t// in\n    tag_158:\n        /* \"#utility.yul\":7360:7496   */\n      pop\n        /* \"#utility.yul\":7307:7496   */\n      pop\n      pop\n      jump\t// out\n        /* \"#utility.yul\":7502:7688   */\n    tag_65:\n        /* \"#utility.yul\":7562:7682   */\n    tag_160:\n        /* \"#utility.yul\":7579:7582   */\n      dup2\n        /* \"#utility.yul\":7572:7577   */\n      dup2\n        /* \"#utility.yul\":7569:7583   */\n      lt\n        /* \"#utility.yul\":7562:7682   */\n      iszero\n      tag_162\n      jumpi\n        /* \"#utility.yul\":7633:7672   */\n      tag_163\n        /* \"#utility.yul\":7670:7671   */\n      0x00\n        /* \"#utility.yul\":7663:7668   */\n      dup3\n        /* \"#utility.yul\":7633:7672   */\n      tag_64\n      jump\t// in\n    tag_163:\n        /* \"#utility.yul\":7606:7607   */\n      0x01\n        /* \"#utility.yul\":7599:7604   */\n      dup2\n        /* \"#utility.yul\":7595:7608   */\n      add\n        /* \"#utility.yul\":7586:7608   */\n      swap1\n      pop\n        /* \"#utility.yul\":7562:7682   */\n      jump(tag_160)\n    tag_162:\n        /* \"#utility.yul\":7502:7688   */\n      pop\n      pop\n      jump\t// out\n        /* \"#utility.yul\":7694:8237   */\n    tag_66:\n        /* \"#utility.yul\":7795:7797   */\n      0x1f\n        /* \"#utility.yul\":7790:7793   */\n      dup3\n        /* \"#utility.yul\":7787:7798   */\n      gt\n        /* \"#utility.yul\":7784:8230   */\n      iszero\n      tag_165\n      jumpi\n        /* \"#utility.yul\":7829:7867   */\n      tag_166\n        /* \"#utility.yul\":7861:7866   */\n      dup2\n        /* \"#utility.yul\":7829:7867   */\n      tag_55\n      jump\t// in\n    tag_166:\n        /* \"#utility.yul\":7913:7942   */\n      tag_167\n        /* \"#utility.yul\":7931:7941   */\n      dup5\n        /* \"#utility.yul\":7913:7942   */\n      tag_56\n      jump\t// in\n    tag_167:\n        /* \"#utility.yul\":7903:7911   */\n      dup2\n        /* \"#utility.yul\":7899:7943   */\n      add\n        /* \"#utility.yul\":8096:8098   */\n      0x20\n        /* \"#utility.yul\":8084:8094   */\n      dup6\n        /* \"#utility.yul\":8081:8099   */\n      lt\n        /* \"#utility.yul\":8078:8127   */\n      iszero\n      tag_168\n      jumpi\n        /* \"#utility.yul\":8117:8125   */\n      dup2\n        /* \"#utility.yul\":8102:8125   */\n      swap1\n      pop\n        /* \"#utility.yul\":8078:8127   */\n    tag_168:\n        /* \"#utility.yul\":8140:8220   */\n      tag_169\n        /* \"#utility.yul\":8196:8218   */\n      tag_170\n        /* \"#utility.yul\":8214:8217   */\n      dup6\n        /* \"#utility.yul\":8196:8218   */\n      tag_56\n      jump\t// in\n    tag_170:\n        /* \"#utility.yul\":8186:8194   */\n      dup4\n        /* \"#utility.yul\":8182:8219   */\n      add\n        /* \"#utility.yul\":8169:8180   */\n      dup3\n        /* \"#utility.yul\":8140:8220   */\n      tag_65\n      jump\t// in\n    tag_169:\n        /* \"#utility.yul\":7799:8230   */\n      pop\n      pop\n        /* \"#utility.yul\":7784:8230   */\n    tag_165:\n        /* \"#utility.yul\":7694:8237   */\n      pop\n      pop\n      pop\n      jump\t// out\n        /* \"#utility.yul\":8243:8360   */\n    tag_67:\n        /* \"#utility.yul\":8297:8305   */\n      0x00\n        /* \"#utility.yul\":8347:8352   */\n      dup3\n        /* \"#utility.yul\":8341:8345   */\n      dup3\n        /* \"#utility.yul\":8337:8353   */\n      shr\n        /* \"#utility.yul\":8316:8353   */\n      swap1\n      pop\n        /* \"#utility.yul\":8243:8360   */\n      swap3\n      swap2\n      pop\n      pop\n      jump\t// out\n        /* \"#utility.yul\":8366:8535   */\n    tag_68:\n        /* \"#utility.yul\":8410:8416   */\n      0x00\n        /* \"#utility.yul\":8443:8494   */\n      tag_173\n        /* \"#utility.yul\":8491:8492   */\n      0x00\n        /* \"#utility.yul\":8487:8493   */\n      not\n        /* \"#utility.yul\":8479:8484   */\n      dup5\n        /* \"#utility.yul\":8476:8477   */\n      0x08\n        /* \"#utility.yul\":8472:8485   */\n      mul\n        /* \"#utility.yul\":8443:8494   */\n      tag_67\n      jump\t// in\n    tag_173:\n        /* \"#utility.yul\":8439:8495   */\n      not\n        /* \"#utility.yul\":8524:8528   */\n      dup1\n        /* \"#utility.yul\":8518:8522   */\n      dup4\n        /* \"#utility.yul\":8514:8529   */\n      and\n        /* \"#utility.yul\":8504:8529   */\n      swap2\n      pop\n        /* \"#utility.yul\":8417:8535   */\n      pop\n        /* \"#utility.yul\":8366:8535   */\n      swap3\n      swap2\n      pop\n      pop\n      jump\t// out\n        /* \"#utility.yul\":8540:8835   */\n    tag_69:\n        /* \"#utility.yul\":8616:8620   */\n      0x00\n        /* \"#utility.yul\":8762:8791   */\n      tag_175\n        /* \"#utility.yul\":8787:8790   */\n      dup4\n        /* \"#utility.yul\":8781:8785   */\n      dup4\n        /* \"#utility.yul\":8762:8791   */\n      tag_68\n      jump\t// in\n    tag_175:\n        /* \"#utility.yul\":8754:8791   */\n      swap2\n      pop\n        /* \"#utility.yul\":8824:8827   */\n      dup3\n        /* \"#utility.yul\":8821:8822   */\n      0x02\n        /* \"#utility.yul\":8817:8828   */\n      mul\n        /* \"#utility.yul\":8811:8815   */\n      dup3\n        /* \"#utility.yul\":8808:8829   */\n      or\n        /* \"#utility.yul\":8800:8829   */\n      swap1\n      pop\n        /* \"#utility.yul\":8540:8835   */\n      swap3\n      swap2\n      pop\n      pop\n      jump\t// out\n        /* \"#utility.yul\":8840:10235   */\n    tag_26:\n        /* \"#utility.yul\":8957:8994   */\n      tag_177\n        /* \"#utility.yul\":8990:8993   */\n      dup3\n        /* \"#utility.yul\":8957:8994   */\n      tag_50\n      jump\t// in\n    tag_177:\n        /* \"#utility.yul\":9059:9077   */\n      0xffffffffffffffff\n        /* \"#utility.yul\":9051:9057   */\n      dup2\n        /* \"#utility.yul\":9048:9078   */\n      gt\n        /* \"#utility.yul\":9045:9101   */\n      iszero\n      tag_178\n      jumpi\n        /* \"#utility.yul\":9081:9099   */\n      tag_179\n      tag_42\n      jump\t// in\n    tag_179:\n        /* \"#utility.yul\":9045:9101   */\n    tag_178:\n        /* \"#utility.yul\":9125:9163   */\n      tag_180\n        /* \"#utility.yul\":9157:9161   */\n      dup3\n        /* \"#utility.yul\":9151:9162   */\n      sload\n        /* \"#utility.yul\":9125:9163   */\n      tag_28\n      jump\t// in\n    tag_180:\n        /* \"#utility.yul\":9210:9277   */\n      tag_181\n        /* \"#utility.yul\":9270:9276   */\n      dup3\n        /* \"#utility.yul\":9262:9268   */\n      dup3\n        /* \"#utility.yul\":9256:9260   */\n      dup6\n        /* \"#utility.yul\":9210:9277   */\n      tag_66\n      jump\t// in\n    tag_181:\n        /* \"#utility.yul\":9304:9305   */\n      0x00\n        /* \"#utility.yul\":9328:9332   */\n      0x20\n        /* \"#utility.yul\":9315:9332   */\n      swap1\n      pop\n        /* \"#utility.yul\":9360:9362   */\n      0x1f\n        /* \"#utility.yul\":9352:9358   */\n      dup4\n        /* \"#utility.yul\":9349:9363   */\n      gt\n        /* \"#utility.yul\":9377:9378   */\n      0x01\n        /* \"#utility.yul\":9372:9990   */\n      dup2\n      eq\n      tag_183\n      jumpi\n        /* \"#utility.yul\":10034:10035   */\n      0x00\n        /* \"#utility.yul\":10051:10057   */\n      dup5\n        /* \"#utility.yul\":10048:10125   */\n      iszero\n      tag_184\n      jumpi\n        /* \"#utility.yul\":10100:10109   */\n      dup3\n        /* \"#utility.yul\":10095:10098   */\n      dup8\n        /* \"#utility.yul\":10091:10110   */\n      add\n        /* \"#utility.yul\":10085:10111   */\n      mload\n        /* \"#utility.yul\":10076:10111   */\n      swap1\n      pop\n        /* \"#utility.yul\":10048:10125   */\n    tag_184:\n        /* \"#utility.yul\":10151:10218   */\n      tag_185\n        /* \"#utility.yul\":10211:10217   */\n      dup6\n        /* \"#utility.yul\":10204:10209   */\n      dup3\n        /* \"#utility.yul\":10151:10218   */\n      tag_69\n      jump\t// in\n    tag_185:\n        /* \"#utility.yul\":10145:10149   */\n      dup7\n        /* \"#utility.yul\":10138:10219   */\n      sstore\n        /* \"#utility.yul\":10007:10229   */\n      pop\n        /* \"#utility.yul\":9342:10229   */\n      jump(tag_182)\n        /* \"#utility.yul\":9372:9990   */\n    tag_183:\n        /* \"#utility.yul\":9424:9428   */\n      0x1f\n        /* \"#utility.yul\":9420:9429   */\n      not\n        /* \"#utility.yul\":9412:9418   */\n      dup5\n        /* \"#utility.yul\":9408:9430   */\n      and\n        /* \"#utility.yul\":9458:9495   */\n      tag_186\n        /* \"#utility.yul\":9490:9494   */\n      dup7\n        /* \"#utility.yul\":9458:9495   */\n      tag_55\n      jump\t// in\n    tag_186:\n        /* \"#utility.yul\":9517:9518   */\n      0x00\n        /* \"#utility.yul\":9531:9739   */\n    tag_187:\n        /* \"#utility.yul\":9545:9552   */\n      dup3\n        /* \"#utility.yul\":9542:9543   */\n      dup2\n        /* \"#utility.yul\":9539:9553   */\n      lt\n        /* \"#utility.yul\":9531:9739   */\n      iszero\n      tag_189\n      jumpi\n        /* \"#utility.yul\":9624:9633   */\n      dup5\n        /* \"#utility.yul\":9619:9622   */\n      dup10\n        /* \"#utility.yul\":9615:9634   */\n      add\n        /* \"#utility.yul\":9609:9635   */\n      mload\n        /* \"#utility.yul\":9601:9607   */\n      dup3\n        /* \"#utility.yul\":9594:9636   */\n      sstore\n        /* \"#utility.yul\":9675:9676   */\n      0x01\n        /* \"#utility.yul\":9667:9673   */\n      dup3\n        /* \"#utility.yul\":9663:9677   */\n      add\n        /* \"#utility.yul\":9653:9677   */\n      swap2\n      pop\n        /* \"#utility.yul\":9722:9724   */\n      0x20\n        /* \"#utility.yul\":9711:9720   */\n      dup6\n        /* \"#utility.yul\":9707:9725   */\n      add\n        /* \"#utility.yul\":9694:9725   */\n      swap5\n      pop\n        /* \"#utility.yul\":9568:9572   */\n      0x20\n        /* \"#utility.yul\":9565:9566   */\n      dup2\n        /* \"#utility.yul\":9561:9573   */\n      add\n        /* \"#utility.yul\":9556:9573   */\n      swap1\n      pop\n        /* \"#utility.yul\":9531:9739   */\n      jump(tag_187)\n    tag_189:\n        /* \"#utility.yul\":9767:9773   */\n      dup7\n        /* \"#utility.yul\":9758:9765   */\n      dup4\n        /* \"#utility.yul\":9755:9774   */\n      lt\n        /* \"#utility.yul\":9752:9931   */\n      iszero\n      tag_190\n      jumpi\n        /* \"#utility.yul\":9825:9834   */\n      dup5\n        /* \"#utility.yul\":9820:9823   */\n      dup10\n        /* \"#utility.yul\":9816:9835   */\n      add\n        /* \"#utility.yul\":9810:9836   */\n      mload\n        /* \"#utility.yul\":9868:9916   */\n      tag_191\n        /* \"#utility.yul\":9910:9914   */\n      0x1f\n        /* \"#utility.yul\":9902:9908   */\n      dup10\n        /* \"#utility.yul\":9898:9915   */\n      and\n        /* \"#utility.yul\":9887:9896   */\n      dup3\n        /* \"#utility.yul\":9868:9916   */\n      tag_68\n      jump\t// in\n    tag_191:\n        /* \"#utility.yul\":9860:9866   */\n      dup4\n        /* \"#utility.yul\":9853:9917   */\n      sstore\n        /* \"#utility.yul\":9775:9931   */\n      pop\n        /* \"#utility.yul\":9752:9931   */\n    tag_190:\n        /* \"#utility.yul\":9977:9978   */\n      0x01\n        /* \"#utility.yul\":9973:9974   */\n      0x02\n        /* \"#utility.yul\":9965:9971   */\n      dup9\n        /* \"#utility.yul\":9961:9975   */\n      mul\n        /* \"#utility.yul\":9957:9979   */\n      add\n        /* \"#utility.yul\":9951:9955   */\n      dup9\n        /* \"#utility.yul\":9944:9980   */\n      sstore\n        /* \"#utility.yul\":9379:9990   */\n      pop\n      pop\n      pop\n        /* \"#utility.yul\":9342:10229   */\n    tag_182:\n      pop\n        /* \"#utility.yul\":8932:10235   */\n      pop\n      pop\n      pop\n        /* \"#utility.yul\":8840:10235   */\n      pop\n      pop\n      jump\t// out\n\n    auxdata: 0xa264697066735822122007004da68ca28497f1a917dc8e17a72ac0afce3bf0b115bc28a64afbafea32c464736f6c634300080f0033\n}\n",
				"bytecode": {
					"linkReferences": {},
					"object": "6080604052607b6000556040518060400160405280600b81526020017f48656c6c6f20576f726c64000000000000000000000000000000000000000000815250600190816200004f9190620002de565b503480156200005d57600080fd5b50620003c5565b600081519050919050565b7f4e487b7100000000000000000000000000000000000000000000000000000000600052604160045260246000fd5b7f4e487b7100000000000000000000000000000000000000000000000000000000600052602260045260246000fd5b60006002820490506001821680620000e657607f821691505b602082108103620000fc57620000fb6200009e565b5b50919050565b60008190508160005260206000209050919050565b60006020601f8301049050919050565b600082821b905092915050565b600060088302620001667fffffffffffffffffffffffffffffffffffffffffffffffffffffffffffffffff8262000127565b62000172868362000127565b95508019841693508086168417925050509392505050565b6000819050919050565b6000819050919050565b6000620001bf620001b9620001b3846200018a565b62000194565b6200018a565b9050919050565b6000819050919050565b620001db836200019e565b620001f3620001ea82620001c6565b84845462000134565b825550505050565b600090565b6200020a620001fb565b62000217818484620001d0565b505050565b5b818110156200023f576200023360008262000200565b6001810190506200021d565b5050565b601f8211156200028e57620002588162000102565b620002638462000117565b8101602085101562000273578190505b6200028b620002828562000117565b8301826200021c565b50505b505050565b600082821c905092915050565b6000620002b36000198460080262000293565b1980831691505092915050565b6000620002ce8383620002a0565b9150826002028217905092915050565b620002e98262000064565b67ffffffffffffffff8111156200030557620003046200006f565b5b620003118254620000cd565b6200031e82828562000243565b600060209050601f83116001811462000356576000841562000341578287015190505b6200034d8582620002c0565b865550620003bd565b601f198416620003668662000102565b60005b82811015620003905784890151825560018201915060208501945060208101905062000369565b86831015620003b05784890151620003ac601f891682620002a0565b8355505b6001600288020188555050505b505050505050565b61077080620003d56000396000f3fe608060405234801561001057600080fd5b506004361061004c5760003560e01c80633fb5c1cb146100515780637fcaf6661461006d5780638381f58a14610089578063e21f37ce146100a7575b600080fd5b61006b600480360381019061006691906101cc565b6100c5565b005b6100876004803603810190610082919061033f565b6100d5565b005b6100916100ee565b60405161009e9190610397565b60405180910390f35b6100af6100f4565b6040516100bc919061043a565b60405180910390f35b6000819050806000819055505050565b600081905080600190816100e99190610668565b505050565b60005481565b600180546101019061048b565b80601f016020809104026020016040519081016040528092919081815260200182805461012d9061048b565b801561017a5780601f1061014f5761010080835404028352916020019161017a565b820191906000526020600020905b81548152906001019060200180831161015d57829003601f168201915b505050505081565b6000604051905090565b600080fd5b600080fd5b6000819050919050565b6101a981610196565b81146101b457600080fd5b50565b6000813590506101c6816101a0565b92915050565b6000602082840312156101e2576101e161018c565b5b60006101f0848285016101b7565b91505092915050565b600080fd5b600080fd5b6000601f19601f8301169050919050565b7f4e487b7100000000000000000000000000000000000000000000000000000000600052604160045260246000fd5b61024c82610203565b810181811067ffffffffffffffff8211171561026b5761026a610214565b5b80604052505050565b600061027e610182565b905061028a8282610243565b919050565b600067ffffffffffffffff8211156102aa576102a9610214565b5b6102b382610203565b9050602081019050919050565b82818337600083830152505050565b60006102e26102dd8461028f565b610274565b9050828152602081018484840111156102fe576102fd6101fe565b5b6103098482856102c0565b509392505050565b600082601f830112610326576103256101f9565b5b81356103368482602086016102cf565b91505092915050565b6000602082840312156103555761035461018c565b5b600082013567ffffffffffffffff81111561037357610372610191565b5b61037f84828501610311565b91505092915050565b61039181610196565b82525050565b60006020820190506103ac6000830184610388565b92915050565b600081519050919050565b600082825260208201905092915050565b60005b838110156103ec5780820151818401526020810190506103d1565b838111156103fb576000848401525b50505050565b600061040c826103b2565b61041681856103bd565b93506104268185602086016103ce565b61042f81610203565b840191505092915050565b600060208201905081810360008301526104548184610401565b905092915050565b7f4e487b7100000000000000000000000000000000000000000000000000000000600052602260045260246000fd5b600060028204905060018216806104a357607f821691505b6020821081036104b6576104b561045c565b5b50919050565b60008190508160005260206000209050919050565b60006020601f8301049050919050565b600082821b905092915050565b60006008830261051e7fffffffffffffffffffffffffffffffffffffffffffffffffffffffffffffffff826104e1565b61052886836104e1565b95508019841693508086168417925050509392505050565b6000819050919050565b600061056561056061055b84610196565b610540565b610196565b9050919050565b6000819050919050565b61057f8361054a565b61059361058b8261056c565b8484546104ee565b825550505050565b600090565b6105a861059b565b6105b3818484610576565b505050565b5b818110156105d7576105cc6000826105a0565b6001810190506105b9565b5050565b601f82111561061c576105ed816104bc565b6105f6846104d1565b81016020851015610605578190505b610619610611856104d1565b8301826105b8565b50505b505050565b600082821c905092915050565b600061063f60001984600802610621565b1980831691505092915050565b6000610658838361062e565b9150826002028217905092915050565b610671826103b2565b67ffffffffffffffff81111561068a57610689610214565b5b610694825461048b565b61069f8282856105db565b600060209050601f8311600181146106d257600084156106c0578287015190505b6106ca858261064c565b865550610732565b601f1984166106e0866104bc565b60005b82811015610708578489015182556001820191506020850194506020810190506106e3565b868310156107255784890151610721601f89168261062e565b8355505b6001600288020188555050505b50505050505056fea264697066735822122007004da68ca28497f1a917dc8e17a72ac0afce3bf0b115bc28a64afbafea32c464736f6c634300080f0033",
					"opcodes": "PUSH1 0x80 PUSH1 0x40 MSTORE PUSH1 0x7B PUSH1 0x0 SSTORE PUSH1 0x40 MLOAD DUP1 PUSH1 0x40 ADD PUSH1 0x40 MSTORE DUP1 PUSH1 0xB DUP2 MSTORE PUSH1 0x20 ADD PUSH32 0x48656C6C6F20576F726C64000000000000000000000000000000000000000000 DUP2 MSTORE POP PUSH1 0x1 SWAP1 DUP2 PUSH3 0x4F SWAP2 SWAP1 PUSH3 0x2DE JUMP JUMPDEST POP CALLVALUE DUP1 ISZERO PUSH3 0x5D JUMPI PUSH1 0x0 DUP1 REVERT JUMPDEST POP PUSH3 0x3C5 JUMP JUMPDEST PUSH1 0x0 DUP2 MLOAD SWAP1 POP SWAP2 SWAP1 POP JUMP JUMPDEST PUSH32 0x4E487B7100000000000000000000000000000000000000000000000000000000 PUSH1 0x0 MSTORE PUSH1 0x41 PUSH1 0x4 MSTORE PUSH1 0x24 PUSH1 0x0 REVERT JUMPDEST PUSH32 0x4E487B7100000000000000000000000000000000000000000000000000000000 PUSH1 0x0 MSTORE PUSH1 0x22 PUSH1 0x4 MSTORE PUSH1 0x24 PUSH1 0x0 REVERT JUMPDEST PUSH1 0x0 PUSH1 0x2 DUP3 DIV SWAP1 POP PUSH1 0x1 DUP3 AND DUP1 PUSH3 0xE6 JUMPI PUSH1 0x7F DUP3 AND SWAP2 POP JUMPDEST PUSH1 0x20 DUP3 LT DUP2 SUB PUSH3 0xFC JUMPI PUSH3 0xFB PUSH3 0x9E JUMP JUMPDEST JUMPDEST POP SWAP2 SWAP1 POP JUMP JUMPDEST PUSH1 0x0 DUP2 SWAP1 POP DUP2 PUSH1 0x0 MSTORE PUSH1 0x20 PUSH1 0x0 KECCAK256 SWAP1 POP SWAP2 SWAP1 POP JUMP JUMPDEST PUSH1 0x0 PUSH1 0x20 PUSH1 0x1F DUP4 ADD DIV SWAP1 POP SWAP2 SWAP1 POP JUMP JUMPDEST PUSH1 0x0 DUP3 DUP3 SHL SWAP1 POP SWAP3 SWAP2 POP POP JUMP JUMPDEST PUSH1 0x0 PUSH1 0x8 DUP4 MUL PUSH3 0x166 PUSH32 0xFFFFFFFFFFFFFFFFFFFFFFFFFFFFFFFFFFFFFFFFFFFFFFFFFFFFFFFFFFFFFFFF DUP3 PUSH3 0x127 JUMP JUMPDEST PUSH3 0x172 DUP7 DUP4 PUSH3 0x127 JUMP JUMPDEST SWAP6 POP DUP1 NOT DUP5 AND SWAP4 POP DUP1 DUP7 AND DUP5 OR SWAP3 POP POP POP SWAP4 SWAP3 POP POP POP JUMP JUMPDEST PUSH1 0x0 DUP2 SWAP1 POP SWAP2 SWAP1 POP JUMP JUMPDEST PUSH1 0x0 DUP2 SWAP1 POP SWAP2 SWAP1 POP JUMP JUMPDEST PUSH1 0x0 PUSH3 0x1BF PUSH3 0x1B9 PUSH3 0x1B3 DUP5 PUSH3 0x18A JUMP JUMPDEST PUSH3 0x194 JUMP JUMPDEST PUSH3 0x18A JUMP JUMPDEST SWAP1 POP SWAP2 SWAP1 POP JUMP JUMPDEST PUSH1 0x0 DUP2 SWAP1 POP SWAP2 SWAP1 POP JUMP JUMPDEST PUSH3 0x1DB DUP4 PUSH3 0x19E JUMP JUMPDEST PUSH3 0x1F3 PUSH3 0x1EA DUP3 PUSH3 0x1C6 JUMP JUMPDEST DUP5 DUP5 SLOAD PUSH3 0x134 JUMP JUMPDEST DUP3 SSTORE POP POP POP POP JUMP JUMPDEST PUSH1 0x0 SWAP1 JUMP JUMPDEST PUSH3 0x20A PUSH3 0x1FB JUMP JUMPDEST PUSH3 0x217 DUP2 DUP5 DUP5 PUSH3 0x1D0 JUMP JUMPDEST POP POP POP JUMP JUMPDEST JUMPDEST DUP2 DUP2 LT ISZERO PUSH3 0x23F JUMPI PUSH3 0x233 PUSH1 0x0 DUP3 PUSH3 0x200 JUMP JUMPDEST PUSH1 0x1 DUP2 ADD SWAP1 POP PUSH3 0x21D JUMP JUMPDEST POP POP JUMP JUMPDEST PUSH1 0x1F DUP3 GT ISZERO PUSH3 0x28E JUMPI PUSH3 0x258 DUP2 PUSH3 0x102 JUMP JUMPDEST PUSH3 0x263 DUP5 PUSH3 0x117 JUMP JUMPDEST DUP2 ADD PUSH1 0x20 DUP6 LT ISZERO PUSH3 0x273 JUMPI DUP2 SWAP1 POP JUMPDEST PUSH3 0x28B PUSH3 0x282 DUP6 PUSH3 0x117 JUMP JUMPDEST DUP4 ADD DUP3 PUSH3 0x21C JUMP JUMPDEST POP POP JUMPDEST POP POP POP JUMP JUMPDEST PUSH1 0x0 DUP3 DUP3 SHR SWAP1 POP SWAP3 SWAP2 POP POP JUMP JUMPDEST PUSH1 0x0 PUSH3 0x2B3 PUSH1 0x0 NOT DUP5 PUSH1 0x8 MUL PUSH3 0x293 JUMP JUMPDEST NOT DUP1 DUP4 AND SWAP2 POP POP SWAP3 SWAP2 POP POP JUMP JUMPDEST PUSH1 0x0 PUSH3 0x2CE DUP4 DUP4 PUSH3 0x2A0 JUMP JUMPDEST SWAP2 POP DUP3 PUSH1 0x2 MUL DUP3 OR SWAP1 POP SWAP3 SWAP2 POP POP JUMP JUMPDEST PUSH3 0x2E9 DUP3 PUSH3 0x64 JUMP JUMPDEST PUSH8 0xFFFFFFFFFFFFFFFF DUP2 GT ISZERO PUSH3 0x305 JUMPI PUSH3 0x304 PUSH3 0x6F JUMP JUMPDEST JUMPDEST PUSH3 0x311 DUP3 SLOAD PUSH3 0xCD JUMP JUMPDEST PUSH3 0x31E DUP3 DUP3 DUP6 PUSH3 0x243 JUMP JUMPDEST PUSH1 0x0 PUSH1 0x20 SWAP1 POP PUSH1 0x1F DUP4 GT PUSH1 0x1 DUP2 EQ PUSH3 0x356 JUMPI PUSH1 0x0 DUP5 ISZERO PUSH3 0x341 JUMPI DUP3 DUP8 ADD MLOAD SWAP1 POP JUMPDEST PUSH3 0x34D DUP6 DUP3 PUSH3 0x2C0 JUMP JUMPDEST DUP7 SSTORE POP PUSH3 0x3BD JUMP JUMPDEST PUSH1 0x1F NOT DUP5 AND PUSH3 0x366 DUP7 PUSH3 0x102 JUMP JUMPDEST PUSH1 0x0 JUMPDEST DUP3 DUP2 LT ISZERO PUSH3 0x390 JUMPI DUP5 DUP10 ADD MLOAD DUP3 SSTORE PUSH1 0x1 DUP3 ADD SWAP2 POP PUSH1 0x20 DUP6 ADD SWAP5 POP PUSH1 0x20 DUP2 ADD SWAP1 POP PUSH3 0x369 JUMP JUMPDEST DUP7 DUP4 LT ISZERO PUSH3 0x3B0 JUMPI DUP5 DUP10 ADD MLOAD PUSH3 0x3AC PUSH1 0x1F DUP10 AND DUP3 PUSH3 0x2A0 JUMP JUMPDEST DUP4 SSTORE POP JUMPDEST PUSH1 0x1 PUSH1 0x2 DUP9 MUL ADD DUP9 SSTORE POP POP POP JUMPDEST POP POP POP POP POP POP JUMP JUMPDEST PUSH2 0x770 DUP1 PUSH3 0x3D5 PUSH1 0x0 CODECOPY PUSH1 0x0 RETURN INVALID PUSH1 0x80 PUSH1 0x40 MSTORE CALLVALUE DUP1 ISZERO PUSH2 0x10 JUMPI PUSH1 0x0 DUP1 REVERT JUMPDEST POP PUSH1 0x4 CALLDATASIZE LT PUSH2 0x4C JUMPI PUSH1 0x0 CALLDATALOAD PUSH1 0xE0 SHR DUP1 PUSH4 0x3FB5C1CB EQ PUSH2 0x51 JUMPI DUP1 PUSH4 0x7FCAF666 EQ PUSH2 0x6D JUMPI DUP1 PUSH4 0x8381F58A EQ PUSH2 0x89 JUMPI DUP1 PUSH4 0xE21F37CE EQ PUSH2 0xA7 JUMPI JUMPDEST PUSH1 0x0 DUP1 REVERT JUMPDEST PUSH2 0x6B PUSH1 0x4 DUP1 CALLDATASIZE SUB DUP2 ADD SWAP1 PUSH2 0x66 SWAP2 SWAP1 PUSH2 0x1CC JUMP JUMPDEST PUSH2 0xC5 JUMP JUMPDEST STOP JUMPDEST PUSH2 0x87 PUSH1 0x4 DUP1 CALLDATASIZE SUB DUP2 ADD SWAP1 PUSH2 0x82 SWAP2 SWAP1 PUSH2 0x33F JUMP JUMPDEST PUSH2 0xD5 JUMP JUMPDEST STOP JUMPDEST PUSH2 0x91 PUSH2 0xEE JUMP JUMPDEST PUSH1 0x40 MLOAD PUSH2 0x9E SWAP2 SWAP1 PUSH2 0x397 JUMP JUMPDEST PUSH1 0x40 MLOAD DUP1 SWAP2 SUB SWAP1 RETURN JUMPDEST PUSH2 0xAF PUSH2 0xF4 JUMP JUMPDEST PUSH1 0x40 MLOAD PUSH2 0xBC SWAP2 SWAP1 PUSH2 0x43A JUMP JUMPDEST PUSH1 0x40 MLOAD DUP1 SWAP2 SUB SWAP1 RETURN JUMPDEST PUSH1 0x0 DUP2 SWAP1 POP DUP1 PUSH1 0x0 DUP2 SWAP1 SSTORE POP POP POP JUMP JUMPDEST PUSH1 0x0 DUP2 SWAP1 POP DUP1 PUSH1 0x1 SWAP1 DUP2 PUSH2 0xE9 SWAP2 SWAP1 PUSH2 0x668 JUMP JUMPDEST POP POP POP JUMP JUMPDEST PUSH1 0x0 SLOAD DUP2 JUMP JUMPDEST PUSH1 0x1 DUP1 SLOAD PUSH2 0x101 SWAP1 PUSH2 0x48B JUMP JUMPDEST DUP1 PUSH1 0x1F ADD PUSH1 0x20 DUP1 SWAP2 DIV MUL PUSH1 0x20 ADD PUSH1 0x40 MLOAD SWAP1 DUP2 ADD PUSH1 0x40 MSTORE DUP1 SWAP3 SWAP2 SWAP1 DUP2 DUP2 MSTORE PUSH1 0x20 ADD DUP3 DUP1 SLOAD PUSH2 0x12D SWAP1 PUSH2 0x48B JUMP JUMPDEST DUP1 ISZERO PUSH2 0x17A JUMPI DUP1 PUSH1 0x1F LT PUSH2 0x14F JUMPI PUSH2 0x100 DUP1 DUP4 SLOAD DIV MUL DUP4 MSTORE SWAP2 PUSH1 0x20 ADD SWAP2 PUSH2 0x17A JUMP JUMPDEST DUP3 ADD SWAP2 SWAP1 PUSH1 0x0 MSTORE PUSH1 0x20 PUSH1 0x0 KECCAK256 SWAP1 JUMPDEST DUP2 SLOAD DUP2 MSTORE SWAP1 PUSH1 0x1 ADD SWAP1 PUSH1 0x20 ADD DUP1 DUP4 GT PUSH2 0x15D JUMPI DUP3 SWAP1 SUB PUSH1 0x1F AND DUP3 ADD SWAP2 JUMPDEST POP POP POP POP POP DUP2 JUMP JUMPDEST PUSH1 0x0 PUSH1 0x40 MLOAD SWAP1 POP SWAP1 JUMP JUMPDEST PUSH1 0x0 DUP1 REVERT JUMPDEST PUSH1 0x0 DUP1 REVERT JUMPDEST PUSH1 0x0 DUP2 SWAP1 POP SWAP2 SWAP1 POP JUMP JUMPDEST PUSH2 0x1A9 DUP2 PUSH2 0x196 JUMP JUMPDEST DUP2 EQ PUSH2 0x1B4 JUMPI PUSH1 0x0 DUP1 REVERT JUMPDEST POP JUMP JUMPDEST PUSH1 0x0 DUP2 CALLDATALOAD SWAP1 POP PUSH2 0x1C6 DUP2 PUSH2 0x1A0 JUMP JUMPDEST SWAP3 SWAP2 POP POP JUMP JUMPDEST PUSH1 0x0 PUSH1 0x20 DUP3 DUP5 SUB SLT ISZERO PUSH2 0x1E2 JUMPI PUSH2 0x1E1 PUSH2 0x18C JUMP JUMPDEST JUMPDEST PUSH1 0x0 PUSH2 0x1F0 DUP5 DUP3 DUP6 ADD PUSH2 0x1B7 JUMP JUMPDEST SWAP2 POP POP SWAP3 SWAP2 POP POP JUMP JUMPDEST PUSH1 0x0 DUP1 REVERT JUMPDEST PUSH1 0x0 DUP1 REVERT JUMPDEST PUSH1 0x0 PUSH1 0x1F NOT PUSH1 0x1F DUP4 ADD AND SWAP1 POP SWAP2 SWAP1 POP JUMP JUMPDEST PUSH32 0x4E487B7100000000000000000000000000000000000000000000000000000000 PUSH1 0x0 MSTORE PUSH1 0x41 PUSH1 0x4 MSTORE PUSH1 0x24 PUSH1 0x0 REVERT JUMPDEST PUSH2 0x24C DUP3 PUSH2 0x203 JUMP JUMPDEST DUP2 ADD DUP2 DUP2 LT PUSH8 0xFFFFFFFFFFFFFFFF DUP3 GT OR ISZERO PUSH2 0x26B JUMPI PUSH2 0x26A PUSH2 0x214 JUMP JUMPDEST JUMPDEST DUP1 PUSH1 0x40 MSTORE POP POP POP JUMP JUMPDEST PUSH1 0x0 PUSH2 0x27E PUSH2 0x182 JUMP JUMPDEST SWAP1 POP PUSH2 0x28A DUP3 DUP3 PUSH2 0x243 JUMP JUMPDEST SWAP2 SWAP1 POP JUMP JUMPDEST PUSH1 0x0 PUSH8 0xFFFFFFFFFFFFFFFF DUP3 GT ISZERO PUSH2 0x2AA JUMPI PUSH2 0x2A9 PUSH2 0x214 JUMP JUMPDEST JUMPDEST PUSH2 0x2B3 DUP3 PUSH2 0x203 JUMP JUMPDEST SWAP1 POP PUSH1 0x20 DUP2 ADD SWAP1 POP SWAP2 SWAP1 POP JUMP JUMPDEST DUP3 DUP2 DUP4 CALLDATACOPY PUSH1 0x0 DUP4 DUP4 ADD MSTORE POP POP POP JUMP JUMPDEST PUSH1 0x0 PUSH2 0x2E2 PUSH2 0x2DD DUP5 PUSH2 0x28F JUMP JUMPDEST PUSH2 0x274 JUMP JUMPDEST SWAP1 POP DUP3 DUP2 MSTORE PUSH1 0x20 DUP2 ADD DUP5 DUP5 DUP5 ADD GT ISZERO PUSH2 0x2FE JUMPI PUSH2 0x2FD PUSH2 0x1FE JUMP JUMPDEST JUMPDEST PUSH2 0x309 DUP5 DUP3 DUP6 PUSH2 0x2C0 JUMP JUMPDEST POP SWAP4 SWAP3 POP POP POP JUMP JUMPDEST PUSH1 0x0 DUP3 PUSH1 0x1F DUP4 ADD SLT PUSH2 0x326 JUMPI PUSH2 0x325 PUSH2 0x1F9 JUMP JUMPDEST JUMPDEST DUP2 CALLDATALOAD PUSH2 0x336 DUP5 DUP3 PUSH1 0x20 DUP7 ADD PUSH2 0x2CF JUMP JUMPDEST SWAP2 POP POP SWAP3 SWAP2 POP POP JUMP JUMPDEST PUSH1 0x0 PUSH1 0x20 DUP3 DUP5 SUB SLT ISZERO PUSH2 0x355 JUMPI PUSH2 0x354 PUSH2 0x18C JUMP JUMPDEST JUMPDEST PUSH1 0x0 DUP3 ADD CALLDATALOAD PUSH8 0xFFFFFFFFFFFFFFFF DUP2 GT ISZERO PUSH2 0x373 JUMPI PUSH2 0x372 PUSH2 0x191 JUMP JUMPDEST JUMPDEST PUSH2 0x37F DUP5 DUP3 DUP6 ADD PUSH2 0x311 JUMP JUMPDEST SWAP2 POP POP SWAP3 SWAP2 POP POP JUMP JUMPDEST PUSH2 0x391 DUP2 PUSH2 0x196 JUMP JUMPDEST DUP3 MSTORE POP POP JUMP JUMPDEST PUSH1 0x0 PUSH1 0x20 DUP3 ADD SWAP1 POP PUSH2 0x3AC PUSH1 0x0 DUP4 ADD DUP5 PUSH2 0x388 JUMP JUMPDEST SWAP3 SWAP2 POP POP JUMP JUMPDEST PUSH1 0x0 DUP2 MLOAD SWAP1 POP SWAP2 SWAP1 POP JUMP JUMPDEST PUSH1 0x0 DUP3 DUP3 MSTORE PUSH1 0x20 DUP3 ADD SWAP1 POP SWAP3 SWAP2 POP POP JUMP JUMPDEST PUSH1 0x0 JUMPDEST DUP4 DUP2 LT ISZERO PUSH2 0x3EC JUMPI DUP1 DUP3 ADD MLOAD DUP2 DUP5 ADD MSTORE PUSH1 0x20 DUP2 ADD SWAP1 POP PUSH2 0x3D1 JUMP JUMPDEST DUP4 DUP2 GT ISZERO PUSH2 0x3FB JUMPI PUSH1 0x0 DUP5 DUP5 ADD MSTORE JUMPDEST POP POP POP POP JUMP JUMPDEST PUSH1 0x0 PUSH2 0x40C DUP3 PUSH2 0x3B2 JUMP JUMPDEST PUSH2 0x416 DUP2 DUP6 PUSH2 0x3BD JUMP JUMPDEST SWAP4 POP PUSH2 0x426 DUP2 DUP6 PUSH1 0x20 DUP7 ADD PUSH2 0x3CE JUMP JUMPDEST PUSH2 0x42F DUP2 PUSH2 0x203 JUMP JUMPDEST DUP5 ADD SWAP2 POP POP SWAP3 SWAP2 POP POP JUMP JUMPDEST PUSH1 0x0 PUSH1 0x20 DUP3 ADD SWAP1 POP DUP2 DUP2 SUB PUSH1 0x0 DUP4 ADD MSTORE PUSH2 0x454 DUP2 DUP5 PUSH2 0x401 JUMP JUMPDEST SWAP1 POP SWAP3 SWAP2 POP POP JUMP JUMPDEST PUSH32 0x4E487B7100000000000000000000000000000000000000000000000000000000 PUSH1 0x0 MSTORE PUSH1 0x22 PUSH1 0x4 MSTORE PUSH1 0x24 PUSH1 0x0 REVERT JUMPDEST PUSH1 0x0 PUSH1 0x2 DUP3 DIV SWAP1 POP PUSH1 0x1 DUP3 AND DUP1 PUSH2 0x4A3 JUMPI PUSH1 0x7F DUP3 AND SWAP2 POP JUMPDEST PUSH1 0x20 DUP3 LT DUP2 SUB PUSH2 0x4B6 JUMPI PUSH2 0x4B5 PUSH2 0x45C JUMP JUMPDEST JUMPDEST POP SWAP2 SWAP1 POP JUMP JUMPDEST PUSH1 0x0 DUP2 SWAP1 POP DUP2 PUSH1 0x0 MSTORE PUSH1 0x20 PUSH1 0x0 KECCAK256 SWAP1 POP SWAP2 SWAP1 POP JUMP JUMPDEST PUSH1 0x0 PUSH1 0x20 PUSH1 0x1F DUP4 ADD DIV SWAP1 POP SWAP2 SWAP1 POP JUMP JUMPDEST PUSH1 0x0 DUP3 DUP3 SHL SWAP1 POP SWAP3 SWAP2 POP POP JUMP JUMPDEST PUSH1 0x0 PUSH1 0x8 DUP4 MUL PUSH2 0x51E PUSH32 0xFFFFFFFFFFFFFFFFFFFFFFFFFFFFFFFFFFFFFFFFFFFFFFFFFFFFFFFFFFFFFFFF DUP3 PUSH2 0x4E1 JUMP JUMPDEST PUSH2 0x528 DUP7 DUP4 PUSH2 0x4E1 JUMP JUMPDEST SWAP6 POP DUP1 NOT DUP5 AND SWAP4 POP DUP1 DUP7 AND DUP5 OR SWAP3 POP POP POP SWAP4 SWAP3 POP POP POP JUMP JUMPDEST PUSH1 0x0 DUP2 SWAP1 POP SWAP2 SWAP1 POP JUMP JUMPDEST PUSH1 0x0 PUSH2 0x565 PUSH2 0x560 PUSH2 0x55B DUP5 PUSH2 0x196 JUMP JUMPDEST PUSH2 0x540 JUMP JUMPDEST PUSH2 0x196 JUMP JUMPDEST SWAP1 POP SWAP2 SWAP1 POP JUMP JUMPDEST PUSH1 0x0 DUP2 SWAP1 POP SWAP2 SWAP1 POP JUMP JUMPDEST PUSH2 0x57F DUP4 PUSH2 0x54A JUMP JUMPDEST PUSH2 0x593 PUSH2 0x58B DUP3 PUSH2 0x56C JUMP JUMPDEST DUP5 DUP5 SLOAD PUSH2 0x4EE JUMP JUMPDEST DUP3 SSTORE POP POP POP POP JUMP JUMPDEST PUSH1 0x0 SWAP1 JUMP JUMPDEST PUSH2 0x5A8 PUSH2 0x59B JUMP JUMPDEST PUSH2 0x5B3 DUP2 DUP5 DUP5 PUSH2 0x576 JUMP JUMPDEST POP POP POP JUMP JUMPDEST JUMPDEST DUP2 DUP2 LT ISZERO PUSH2 0x5D7 JUMPI PUSH2 0x5CC PUSH1 0x0 DUP3 PUSH2 0x5A0 JUMP JUMPDEST PUSH1 0x1 DUP2 ADD SWAP1 POP PUSH2 0x5B9 JUMP JUMPDEST POP POP JUMP JUMPDEST PUSH1 0x1F DUP3 GT ISZERO PUSH2 0x61C JUMPI PUSH2 0x5ED DUP2 PUSH2 0x4BC JUMP JUMPDEST PUSH2 0x5F6 DUP5 PUSH2 0x4D1 JUMP JUMPDEST DUP2 ADD PUSH1 0x20 DUP6 LT ISZERO PUSH2 0x605 JUMPI DUP2 SWAP1 POP JUMPDEST PUSH2 0x619 PUSH2 0x611 DUP6 PUSH2 0x4D1 JUMP JUMPDEST DUP4 ADD DUP3 PUSH2 0x5B8 JUMP JUMPDEST POP POP JUMPDEST POP POP POP JUMP JUMPDEST PUSH1 0x0 DUP3 DUP3 SHR SWAP1 POP SWAP3 SWAP2 POP POP JUMP JUMPDEST PUSH1 0x0 PUSH2 0x63F PUSH1 0x0 NOT DUP5 PUSH1 0x8 MUL PUSH2 0x621 JUMP JUMPDEST NOT DUP1 DUP4 AND SWAP2 POP POP SWAP3 SWAP2 POP POP JUMP JUMPDEST PUSH1 0x0 PUSH2 0x658 DUP4 DUP4 PUSH2 0x62E JUMP JUMPDEST SWAP2 POP DUP3 PUSH1 0x2 MUL DUP3 OR SWAP1 POP SWAP3 SWAP2 POP POP JUMP JUMPDEST PUSH2 0x671 DUP3 PUSH2 0x3B2 JUMP JUMPDEST PUSH8 0xFFFFFFFFFFFFFFFF DUP2 GT ISZERO PUSH2 0x68A JUMPI PUSH2 0x689 PUSH2 0x214 JUMP JUMPDEST JUMPDEST PUSH2 0x694 DUP3 SLOAD PUSH2 0x48B JUMP JUMPDEST PUSH2 0x69F DUP3 DUP3 DUP6 PUSH2 0x5DB JUMP JUMPDEST PUSH1 0x0 PUSH1 0x20 SWAP1 POP PUSH1 0x1F DUP4 GT PUSH1 0x1 DUP2 EQ PUSH2 0x6D2 JUMPI PUSH1 0x0 DUP5 ISZERO PUSH2 0x6C0 JUMPI DUP3 DUP8 ADD MLOAD SWAP1 POP JUMPDEST PUSH2 0x6CA DUP6 DUP3 PUSH2 0x64C JUMP JUMPDEST DUP7 SSTORE POP PUSH2 0x732 JUMP JUMPDEST PUSH1 0x1F NOT DUP5 AND PUSH2 0x6E0 DUP7 PUSH2 0x4BC JUMP JUMPDEST PUSH1 0x0 JUMPDEST DUP3 DUP2 LT ISZERO PUSH2 0x708 JUMPI DUP5 DUP10 ADD MLOAD DUP3 SSTORE PUSH1 0x1 DUP3 ADD SWAP2 POP PUSH1 0x20 DUP6 ADD SWAP5 POP PUSH1 0x20 DUP2 ADD SWAP1 POP PUSH2 0x6E3 JUMP JUMPDEST DUP7 DUP4 LT ISZERO PUSH2 0x725 JUMPI DUP5 DUP10 ADD MLOAD PUSH2 0x721 PUSH1 0x1F DUP10 AND DUP3 PUSH2 0x62E JUMP JUMPDEST DUP4 SSTORE POP JUMPDEST PUSH1 0x1 PUSH1 0x2 DUP9 MUL ADD DUP9 SSTORE POP POP POP JUMPDEST POP POP POP POP POP POP JUMP INVALID LOG2 PUSH5 0x6970667358 0x22 SLT KECCAK256 SMOD STOP 0x4D 0xA6 DUP13 LOG2 DUP5 SWAP8 CALL 0xA9 OR 0xDC DUP15 OR 0xA7 0x2A 0xC0 0xAF 0xCE EXTCODESIZE CREATE 0xB1 ISZERO 0xBC 0x28 0xA6 0x4A 0xFB 0xAF 0xEA ORIGIN 0xC4 PUSH5 0x736F6C6343 STOP ADDMOD 0xF STOP CALLER "
				},
				"gasEstimates": {
					"creation": {
						"codeDepositCost": "380800",
						"executionCost": "infinite",
						"totalCost": "infinite"
					},
					"external": {
						"message()": "infinite",
						"number()": "2451",
						"setNumber(uint256)": "22511",
						"setString(string)": "infinite"
					}
				},
				"methodIdentifiers": {
					"message()": "e21f37ce",
					"number()": "8381f58a",
					"setNumber(uint256)": "3fb5c1cb",
					"setString(string)": "7fcaf666"
				}
			},
			"storageLayout": {
				"storage": [
					{
						"astId": 4,
						"contract": "contracts/storage.sol:MyContract1",
						"label": "number",
						"offset": 0,
						"slot": "0",
						"type": "t_uint256"
					},
					{
						"astId": 7,
						"contract": "contracts/storage.sol:MyContract1",
						"label": "message",
						"offset": 0,
						"slot": "1",
						"type": "t_string_storage"
					}
				],
				"types": {
					"t_string_storage": {
						"encoding": "bytes",
						"label": "string",
						"numberOfBytes": "32"
					},
					"t_uint256": {
						"encoding": "inplace",
						"label": "uint256",
						"numberOfBytes": "32"
					}
				}
			},
			"userdoc": {
				"kind": "user",
				"methods": {},
				"version": 1
			}
		}
	}
}