{
	"contracts/bank.sol": {
		"Bank": {
			"abi": [
				{
					"anonymous": false,
					"inputs": [
						{
							"indexed": false,
							"internalType": "string",
							"name": "_txType",
							"type": "string"
						},
						{
							"indexed": true,
							"internalType": "address",
							"name": "_owner",
							"type": "address"
						},
						{
							"indexed": false,
							"internalType": "uint256",
							"name": "_amount",
							"type": "uint256"
						}
					],
					"name": "balanceUpdate",
					"type": "event"
				},
				{
					"inputs": [],
					"name": "deposit",
					"outputs": [],
					"stateMutability": "payable",
					"type": "function"
				},
				{
					"inputs": [],
					"name": "getBalance",
					"outputs": [
						{
							"internalType": "uint256",
							"name": "",
							"type": "uint256"
						}
					],
					"stateMutability": "view",
					"type": "function"
				},
				{
					"inputs": [
						{
							"internalType": "address",
							"name": "_to",
							"type": "address"
						},
						{
							"internalType": "uint256",
							"name": "_amount",
							"type": "uint256"
						}
					],
					"name": "transfer",
					"outputs": [],
					"stateMutability": "nonpayable",
					"type": "function"
				},
				{
					"inputs": [
						{
							"internalType": "address",
							"name": "_from",
							"type": "address"
						},
						{
							"internalType": "address",
							"name": "_to",
							"type": "address"
						},
						{
							"internalType": "uint256",
							"name": "_amount",
							"type": "uint256"
						}
					],
					"name": "transferFrom",
					"outputs": [],
					"stateMutability": "nonpayable",
					"type": "function"
				},
				{
					"inputs": [
						{
							"internalType": "uint256",
							"name": "_amount",
							"type": "uint256"
						}
					],
					"name": "withdraw",
					"outputs": [],
					"stateMutability": "nonpayable",
					"type": "function"
				}
			],
			"devdoc": {
				"kind": "dev",
				"methods": {},
				"version": 1
			},
			"evm": {
				"assembly": "    /* \"contracts/bank.sol\":753:3219  contract Bank is Ownable{... */\n  mstore(0x40, 0x80)\n  callvalue\n  dup1\n  iszero\n  tag_1\n  jumpi\n  0x00\n  dup1\n  revert\ntag_1:\n  pop\n    /* \"contracts/ownable.sol\":337:347  msg.sender */\n  caller\n    /* \"contracts/ownable.sol\":329:334  owner */\n  0x00\n  dup1\n    /* \"contracts/ownable.sol\":329:347  owner = msg.sender */\n  0x0100\n  exp\n  dup2\n  sload\n  dup2\n  0xffffffffffffffffffffffffffffffffffffffff\n  mul\n  not\n  and\n  swap1\n  dup4\n  0xffffffffffffffffffffffffffffffffffffffff\n  and\n  mul\n  or\n  swap1\n  sstore\n  pop\n    /* \"contracts/bank.sol\":753:3219  contract Bank is Ownable{... */\n  dataSize(sub_0)\n  dup1\n  dataOffset(sub_0)\n  0x00\n  codecopy\n  0x00\n  return\nstop\n\nsub_0: assembly {\n        /* \"contracts/bank.sol\":753:3219  contract Bank is Ownable{... */\n      mstore(0x40, 0x80)\n      jumpi(tag_1, lt(calldatasize, 0x04))\n      shr(0xe0, calldataload(0x00))\n      dup1\n      0x12065fe0\n      eq\n      tag_2\n      jumpi\n      dup1\n      0x23b872dd\n      eq\n      tag_3\n      jumpi\n      dup1\n      0x2e1a7d4d\n      eq\n      tag_4\n      jumpi\n      dup1\n      0xa9059cbb\n      eq\n      tag_5\n      jumpi\n      dup1\n      0xd0e30db0\n      eq\n      tag_6\n      jumpi\n    tag_1:\n      0x00\n      dup1\n      revert\n        /* \"contracts/bank.sol\":1077:1169  function getBalance() external view returns(uint){... */\n    tag_2:\n      callvalue\n      dup1\n      iszero\n      tag_7\n      jumpi\n      0x00\n      dup1\n      revert\n    tag_7:\n      pop\n      tag_8\n      tag_9\n      jump\t// in\n    tag_8:\n      mload(0x40)\n      tag_10\n      swap2\n      swap1\n      tag_11\n      jump\t// in\n    tag_10:\n      mload(0x40)\n      dup1\n      swap2\n      sub\n      swap1\n      return\n        /* \"contracts/bank.sol\":2809:3217  function transferFrom(address _from, address _to, uint _amount)external{... */\n    tag_3:\n      callvalue\n      dup1\n      iszero\n      tag_12\n      jumpi\n      0x00\n      dup1\n      revert\n    tag_12:\n      pop\n      tag_13\n      0x04\n      dup1\n      calldatasize\n      sub\n      dup2\n      add\n      swap1\n      tag_14\n      swap2\n      swap1\n      tag_15\n      jump\t// in\n    tag_14:\n      tag_16\n      jump\t// in\n    tag_13:\n      stop\n        /* \"contracts/bank.sol\":1397:2140  function withdraw(uint _amount) external {... */\n    tag_4:\n      callvalue\n      dup1\n      iszero\n      tag_17\n      jumpi\n      0x00\n      dup1\n      revert\n    tag_17:\n      pop\n      tag_18\n      0x04\n      dup1\n      calldatasize\n      sub\n      dup2\n      add\n      swap1\n      tag_19\n      swap2\n      swap1\n      tag_20\n      jump\t// in\n    tag_19:\n      tag_21\n      jump\t// in\n    tag_18:\n      stop\n        /* \"contracts/bank.sol\":2194:2541  function transfer(address _to, uint _amount) public onlyOwner balanceCheck(_amount){... */\n    tag_5:\n      callvalue\n      dup1\n      iszero\n      tag_22\n      jumpi\n      0x00\n      dup1\n      revert\n    tag_22:\n      pop\n      tag_23\n      0x04\n      dup1\n      calldatasize\n      sub\n      dup2\n      add\n      swap1\n      tag_24\n      swap2\n      swap1\n      tag_25\n      jump\t// in\n    tag_24:\n      tag_26\n      jump\t// in\n    tag_23:\n      stop\n        /* \"contracts/bank.sol\":1175:1391  function deposit() external payable onlyOwner{... */\n    tag_6:\n      tag_27\n      tag_28\n      jump\t// in\n    tag_27:\n      stop\n        /* \"contracts/bank.sol\":1077:1169  function getBalance() external view returns(uint){... */\n    tag_9:\n        /* \"contracts/bank.sol\":1121:1125  uint */\n      0x00\n        /* \"contracts/bank.sol\":1143:1150  balance */\n      0x01\n        /* \"contracts/bank.sol\":1143:1162  balance[msg.sender] */\n      0x00\n        /* \"contracts/bank.sol\":1151:1161  msg.sender */\n      caller\n        /* \"contracts/bank.sol\":1143:1162  balance[msg.sender] */\n      0xffffffffffffffffffffffffffffffffffffffff\n      and\n      0xffffffffffffffffffffffffffffffffffffffff\n      and\n      dup2\n      mstore\n      0x20\n      add\n      swap1\n      dup2\n      mstore\n      0x20\n      add\n      0x00\n      keccak256\n      sload\n        /* \"contracts/bank.sol\":1136:1162  return balance[msg.sender] */\n      swap1\n      pop\n        /* \"contracts/bank.sol\":1077:1169  function getBalance() external view returns(uint){... */\n      swap1\n      jump\t// out\n        /* \"contracts/bank.sol\":2809:3217  function transferFrom(address _from, address _to, uint _amount)external{... */\n    tag_16:\n        /* \"contracts/bank.sol\":2916:2923  _amount */\n      dup1\n        /* \"contracts/bank.sol\":2898:2905  balance */\n      0x01\n        /* \"contracts/bank.sol\":2898:2912  balance[_from] */\n      0x00\n        /* \"contracts/bank.sol\":2906:2911  _from */\n      dup6\n        /* \"contracts/bank.sol\":2898:2912  balance[_from] */\n      0xffffffffffffffffffffffffffffffffffffffff\n      and\n      0xffffffffffffffffffffffffffffffffffffffff\n      and\n      dup2\n      mstore\n      0x20\n      add\n      swap1\n      dup2\n      mstore\n      0x20\n      add\n      0x00\n      keccak256\n      sload\n        /* \"contracts/bank.sol\":2898:2923  balance[_from] >= _amount */\n      lt\n      iszero\n        /* \"contracts/bank.sol\":2890:2948  require(balance[_from] >= _amount, \"Insufficient balance\") */\n      tag_31\n      jumpi\n      mload(0x40)\n      0x08c379a000000000000000000000000000000000000000000000000000000000\n      dup2\n      mstore\n      0x04\n      add\n      tag_32\n      swap1\n      tag_33\n      jump\t// in\n    tag_32:\n      mload(0x40)\n      dup1\n      swap2\n      sub\n      swap1\n      revert\n    tag_31:\n        /* \"contracts/bank.sol\":2975:2978  _to */\n      dup2\n        /* \"contracts/bank.sol\":2966:2978  _from != _to */\n      0xffffffffffffffffffffffffffffffffffffffff\n      and\n        /* \"contracts/bank.sol\":2966:2971  _from */\n      dup4\n        /* \"contracts/bank.sol\":2966:2978  _from != _to */\n      0xffffffffffffffffffffffffffffffffffffffff\n      and\n      sub\n        /* \"contracts/bank.sol\":2958:3000  require(_from != _to, \"Invalid Recepient\") */\n      tag_34\n      jumpi\n      mload(0x40)\n      0x08c379a000000000000000000000000000000000000000000000000000000000\n      dup2\n      mstore\n      0x04\n      add\n      tag_35\n      swap1\n      tag_36\n      jump\t// in\n    tag_35:\n      mload(0x40)\n      dup1\n      swap2\n      sub\n      swap1\n      revert\n    tag_34:\n        /* \"contracts/bank.sol\":3028:3035  _amount */\n      dup1\n        /* \"contracts/bank.sol\":3010:3017  balance */\n      0x01\n        /* \"contracts/bank.sol\":3010:3024  balance[_from] */\n      0x00\n        /* \"contracts/bank.sol\":3018:3023  _from */\n      dup6\n        /* \"contracts/bank.sol\":3010:3024  balance[_from] */\n      0xffffffffffffffffffffffffffffffffffffffff\n      and\n      0xffffffffffffffffffffffffffffffffffffffff\n      and\n      dup2\n      mstore\n      0x20\n      add\n      swap1\n      dup2\n      mstore\n      0x20\n      add\n      0x00\n      keccak256\n      0x00\n        /* \"contracts/bank.sol\":3010:3035  balance[_from] -= _amount */\n      dup3\n      dup3\n      sload\n      tag_37\n      swap2\n      swap1\n      tag_38\n      jump\t// in\n    tag_37:\n      swap3\n      pop\n      pop\n      dup2\n      swap1\n      sstore\n      pop\n        /* \"contracts/bank.sol\":3061:3068  _amount */\n      dup1\n        /* \"contracts/bank.sol\":3045:3052  balance */\n      0x01\n        /* \"contracts/bank.sol\":3045:3057  balance[_to] */\n      0x00\n        /* \"contracts/bank.sol\":3053:3056  _to */\n      dup5\n        /* \"contracts/bank.sol\":3045:3057  balance[_to] */\n      0xffffffffffffffffffffffffffffffffffffffff\n      and\n      0xffffffffffffffffffffffffffffffffffffffff\n      and\n      dup2\n      mstore\n      0x20\n      add\n      swap1\n      dup2\n      mstore\n      0x20\n      add\n      0x00\n      keccak256\n      0x00\n        /* \"contracts/bank.sol\":3045:3068  balance[_to] += _amount */\n      dup3\n      dup3\n      sload\n      tag_39\n      swap2\n      swap1\n      tag_40\n      jump\t// in\n    tag_39:\n      swap3\n      pop\n      pop\n      dup2\n      swap1\n      sstore\n      pop\n        /* \"contracts/bank.sol\":3119:3124  _from */\n      dup3\n        /* \"contracts/bank.sol\":3084:3141  balanceUpdate(\"OutGoing Transfer\", _from, balance[_from]) */\n      0xffffffffffffffffffffffffffffffffffffffff\n      and\n      0x747fe8563263661fb53c6a99a1d6753bbcba100faa6979d07ead10fb9c84d050\n        /* \"contracts/bank.sol\":3126:3133  balance */\n      0x01\n        /* \"contracts/bank.sol\":3126:3140  balance[_from] */\n      0x00\n        /* \"contracts/bank.sol\":3134:3139  _from */\n      dup7\n        /* \"contracts/bank.sol\":3126:3140  balance[_from] */\n      0xffffffffffffffffffffffffffffffffffffffff\n      and\n      0xffffffffffffffffffffffffffffffffffffffff\n      and\n      dup2\n      mstore\n      0x20\n      add\n      swap1\n      dup2\n      mstore\n      0x20\n      add\n      0x00\n      keccak256\n      sload\n        /* \"contracts/bank.sol\":3084:3141  balanceUpdate(\"OutGoing Transfer\", _from, balance[_from]) */\n      mload(0x40)\n      tag_41\n      swap2\n      swap1\n      tag_42\n      jump\t// in\n    tag_41:\n      mload(0x40)\n      dup1\n      swap2\n      sub\n      swap1\n      log2\n        /* \"contracts/bank.sol\":3191:3194  _to */\n      dup2\n        /* \"contracts/bank.sol\":3156:3209  balanceUpdate(\"InComing Transfer\", _to, balance[_to]) */\n      0xffffffffffffffffffffffffffffffffffffffff\n      and\n      0x747fe8563263661fb53c6a99a1d6753bbcba100faa6979d07ead10fb9c84d050\n        /* \"contracts/bank.sol\":3196:3203  balance */\n      0x01\n        /* \"contracts/bank.sol\":3196:3208  balance[_to] */\n      0x00\n        /* \"contracts/bank.sol\":3204:3207  _to */\n      dup6\n        /* \"contracts/bank.sol\":3196:3208  balance[_to] */\n      0xffffffffffffffffffffffffffffffffffffffff\n      and\n      0xffffffffffffffffffffffffffffffffffffffff\n      and\n      dup2\n      mstore\n      0x20\n      add\n      swap1\n      dup2\n      mstore\n      0x20\n      add\n      0x00\n      keccak256\n      sload\n        /* \"contracts/bank.sol\":3156:3209  balanceUpdate(\"InComing Transfer\", _to, balance[_to]) */\n      mload(0x40)\n      tag_43\n      swap2\n      swap1\n      tag_44\n      jump\t// in\n    tag_43:\n      mload(0x40)\n      dup1\n      swap2\n      sub\n      swap1\n      log2\n        /* \"contracts/bank.sol\":2809:3217  function transferFrom(address _from, address _to, uint _amount)external{... */\n      pop\n      pop\n      pop\n      jump\t// out\n        /* \"contracts/bank.sol\":1397:2140  function withdraw(uint _amount) external {... */\n    tag_21:\n        /* \"contracts/bank.sol\":1448:1467  uint beforeWithdraw */\n      0x00\n        /* \"contracts/bank.sol\":1470:1477  balance */\n      0x01\n        /* \"contracts/bank.sol\":1470:1489  balance[msg.sender] */\n      0x00\n        /* \"contracts/bank.sol\":1478:1488  msg.sender */\n      caller\n        /* \"contracts/bank.sol\":1470:1489  balance[msg.sender] */\n      0xffffffffffffffffffffffffffffffffffffffff\n      and\n      0xffffffffffffffffffffffffffffffffffffffff\n      and\n      dup2\n      mstore\n      0x20\n      add\n      swap1\n      dup2\n      mstore\n      0x20\n      add\n      0x00\n      keccak256\n      sload\n        /* \"contracts/bank.sol\":1448:1489  uint beforeWithdraw = balance[msg.sender] */\n      swap1\n      pop\n        /* \"contracts/bank.sol\":1522:1529  _amount */\n      dup2\n        /* \"contracts/bank.sol\":1499:1506  balance */\n      0x01\n        /* \"contracts/bank.sol\":1499:1518  balance[msg.sender] */\n      0x00\n        /* \"contracts/bank.sol\":1507:1517  msg.sender */\n      caller\n        /* \"contracts/bank.sol\":1499:1518  balance[msg.sender] */\n      0xffffffffffffffffffffffffffffffffffffffff\n      and\n      0xffffffffffffffffffffffffffffffffffffffff\n      and\n      dup2\n      mstore\n      0x20\n      add\n      swap1\n      dup2\n      mstore\n      0x20\n      add\n      0x00\n      keccak256\n      0x00\n        /* \"contracts/bank.sol\":1499:1529  balance[msg.sender] -= _amount */\n      dup3\n      dup3\n      sload\n      tag_46\n      swap2\n      swap1\n      tag_38\n      jump\t// in\n    tag_46:\n      swap3\n      pop\n      pop\n      dup2\n      swap1\n      sstore\n      pop\n        /* \"contracts/bank.sol\":1836:1848  bool success */\n      0x00\n        /* \"contracts/bank.sol\":1861:1871  msg.sender */\n      caller\n        /* \"contracts/bank.sol\":1853:1877  payable(msg.sender).call */\n      0xffffffffffffffffffffffffffffffffffffffff\n      and\n        /* \"contracts/bank.sol\":1885:1892  _amount */\n      dup4\n        /* \"contracts/bank.sol\":1853:1897  payable(msg.sender).call{value: _amount}(\"\") */\n      mload(0x40)\n      tag_47\n      swap1\n      tag_48\n      jump\t// in\n    tag_47:\n      0x00\n      mload(0x40)\n      dup1\n      dup4\n      sub\n      dup2\n      dup6\n      dup8\n      gas\n      call\n      swap3\n      pop\n      pop\n      pop\n      returndatasize\n      dup1\n      0x00\n      dup2\n      eq\n      tag_51\n      jumpi\n      mload(0x40)\n      swap2\n      pop\n      and(add(returndatasize, 0x3f), not(0x1f))\n      dup3\n      add\n      0x40\n      mstore\n      returndatasize\n      dup3\n      mstore\n      returndatasize\n      0x00\n      0x20\n      dup5\n      add\n      returndatacopy\n      jump(tag_50)\n    tag_51:\n      0x60\n      swap2\n      pop\n    tag_50:\n      pop\n        /* \"contracts/bank.sol\":1835:1897  (bool success,) = payable(msg.sender).call{value: _amount}(\"\") */\n      pop\n      swap1\n      pop\n        /* \"contracts/bank.sol\":1915:1922  success */\n      dup1\n        /* \"contracts/bank.sol\":1907:1950  require(success, \"Transfer unsuccessful!!\") */\n      tag_52\n      jumpi\n      mload(0x40)\n      0x08c379a000000000000000000000000000000000000000000000000000000000\n      dup2\n      mstore\n      0x04\n      add\n      tag_53\n      swap1\n      tag_54\n      jump\t// in\n    tag_53:\n      mload(0x40)\n      dup1\n      swap2\n      sub\n      swap1\n      revert\n    tag_52:\n        /* \"contracts/bank.sol\":1960:1978  uint afterWithdraw */\n      0x00\n        /* \"contracts/bank.sol\":1981:1988  balance */\n      0x01\n        /* \"contracts/bank.sol\":1981:2000  balance[msg.sender] */\n      0x00\n        /* \"contracts/bank.sol\":1989:1999  msg.sender */\n      caller\n        /* \"contracts/bank.sol\":1981:2000  balance[msg.sender] */\n      0xffffffffffffffffffffffffffffffffffffffff\n      and\n      0xffffffffffffffffffffffffffffffffffffffff\n      and\n      dup2\n      mstore\n      0x20\n      add\n      swap1\n      dup2\n      mstore\n      0x20\n      add\n      0x00\n      keccak256\n      sload\n        /* \"contracts/bank.sol\":1960:2000  uint afterWithdraw = balance[msg.sender] */\n      swap1\n      pop\n        /* \"contracts/bank.sol\":2051:2058  _amount */\n      dup4\n        /* \"contracts/bank.sol\":2034:2048  beforeWithdraw */\n      dup4\n        /* \"contracts/bank.sol\":2034:2058  beforeWithdraw - _amount */\n      tag_55\n      swap2\n      swap1\n      tag_38\n      jump\t// in\n    tag_55:\n        /* \"contracts/bank.sol\":2017:2030  afterWithdraw */\n      dup2\n        /* \"contracts/bank.sol\":2017:2058  afterWithdraw == beforeWithdraw - _amount */\n      eq\n        /* \"contracts/bank.sol\":2010:2059  assert(afterWithdraw == beforeWithdraw - _amount) */\n      tag_56\n      jumpi\n      tag_57\n      tag_58\n      jump\t// in\n    tag_57:\n    tag_56:\n        /* \"contracts/bank.sol\":2101:2111  msg.sender */\n      caller\n        /* \"contracts/bank.sol\":2075:2133  balanceUpdate(\"Withdraw\", msg.sender, balance[msg.sender]) */\n      0xffffffffffffffffffffffffffffffffffffffff\n      and\n      0x747fe8563263661fb53c6a99a1d6753bbcba100faa6979d07ead10fb9c84d050\n        /* \"contracts/bank.sol\":2113:2120  balance */\n      0x01\n        /* \"contracts/bank.sol\":2113:2132  balance[msg.sender] */\n      0x00\n        /* \"contracts/bank.sol\":2121:2131  msg.sender */\n      caller\n        /* \"contracts/bank.sol\":2113:2132  balance[msg.sender] */\n      0xffffffffffffffffffffffffffffffffffffffff\n      and\n      0xffffffffffffffffffffffffffffffffffffffff\n      and\n      dup2\n      mstore\n      0x20\n      add\n      swap1\n      dup2\n      mstore\n      0x20\n      add\n      0x00\n      keccak256\n      sload\n        /* \"contracts/bank.sol\":2075:2133  balanceUpdate(\"Withdraw\", msg.sender, balance[msg.sender]) */\n      mload(0x40)\n      tag_59\n      swap2\n      swap1\n      tag_60\n      jump\t// in\n    tag_59:\n      mload(0x40)\n      dup1\n      swap2\n      sub\n      swap1\n      log2\n        /* \"contracts/bank.sol\":1438:2140  {... */\n      pop\n      pop\n      pop\n        /* \"contracts/bank.sol\":1397:2140  function withdraw(uint _amount) external {... */\n      pop\n      jump\t// out\n        /* \"contracts/bank.sol\":2194:2541  function transfer(address _to, uint _amount) public onlyOwner balanceCheck(_amount){... */\n    tag_26:\n        /* \"contracts/ownable.sol\":201:206  owner */\n      0x00\n      dup1\n      sload\n      swap1\n      0x0100\n      exp\n      swap1\n      div\n      0xffffffffffffffffffffffffffffffffffffffff\n      and\n        /* \"contracts/ownable.sol\":187:206  msg.sender == owner */\n      0xffffffffffffffffffffffffffffffffffffffff\n      and\n        /* \"contracts/ownable.sol\":187:197  msg.sender */\n      caller\n        /* \"contracts/ownable.sol\":187:206  msg.sender == owner */\n      0xffffffffffffffffffffffffffffffffffffffff\n      and\n      eq\n        /* \"contracts/ownable.sol\":179:228  require(msg.sender == owner, \"You Are Not Owner\") */\n      tag_62\n      jumpi\n      mload(0x40)\n      0x08c379a000000000000000000000000000000000000000000000000000000000\n      dup2\n      mstore\n      0x04\n      add\n      tag_63\n      swap1\n      tag_64\n      jump\t// in\n    tag_63:\n      mload(0x40)\n      dup1\n      swap2\n      sub\n      swap1\n      revert\n    tag_62:\n        /* \"contracts/bank.sol\":2269:2276  _amount */\n      dup1\n        /* \"contracts/bank.sol\":1037:1044  _amount */\n      dup1\n        /* \"contracts/bank.sol\":1014:1021  balance */\n      0x01\n        /* \"contracts/bank.sol\":1014:1033  balance[msg.sender] */\n      0x00\n        /* \"contracts/bank.sol\":1022:1032  msg.sender */\n      caller\n        /* \"contracts/bank.sol\":1014:1033  balance[msg.sender] */\n      0xffffffffffffffffffffffffffffffffffffffff\n      and\n      0xffffffffffffffffffffffffffffffffffffffff\n      and\n      dup2\n      mstore\n      0x20\n      add\n      swap1\n      dup2\n      mstore\n      0x20\n      add\n      0x00\n      keccak256\n      sload\n        /* \"contracts/bank.sol\":1014:1044  balance[msg.sender] >= _amount */\n      lt\n      iszero\n        /* \"contracts/bank.sol\":1006:1045  require(balance[msg.sender] >= _amount) */\n      tag_66\n      jumpi\n      0x00\n      dup1\n      revert\n    tag_66:\n        /* \"contracts/bank.sol\":2309:2312  _to */\n      dup3\n        /* \"contracts/bank.sol\":2295:2312  msg.sender != _to */\n      0xffffffffffffffffffffffffffffffffffffffff\n      and\n        /* \"contracts/bank.sol\":2295:2305  msg.sender */\n      caller\n        /* \"contracts/bank.sol\":2295:2312  msg.sender != _to */\n      0xffffffffffffffffffffffffffffffffffffffff\n      and\n      sub\n        /* \"contracts/bank.sol\":2287:2339  require(msg.sender != _to, \"Insufficient Recipient\") */\n      tag_68\n      jumpi\n      mload(0x40)\n      0x08c379a000000000000000000000000000000000000000000000000000000000\n      dup2\n      mstore\n      0x04\n      add\n      tag_69\n      swap1\n      tag_70\n      jump\t// in\n    tag_69:\n      mload(0x40)\n      dup1\n      swap2\n      sub\n      swap1\n      revert\n    tag_68:\n        /* \"contracts/bank.sol\":2349:2384  _transfer(msg.sender, _to, _amount) */\n      tag_71\n        /* \"contracts/bank.sol\":2359:2369  msg.sender */\n      caller\n        /* \"contracts/bank.sol\":2371:2374  _to */\n      dup5\n        /* \"contracts/bank.sol\":2376:2383  _amount */\n      dup5\n        /* \"contracts/bank.sol\":2349:2358  _transfer */\n      tag_72\n        /* \"contracts/bank.sol\":2349:2384  _transfer(msg.sender, _to, _amount) */\n      jump\t// in\n    tag_71:\n        /* \"contracts/bank.sol\":2434:2444  msg.sender */\n      caller\n        /* \"contracts/bank.sol\":2400:2466  balanceUpdate(\"OutGoing Trasfer\", msg.sender, balance[msg.sender]) */\n      0xffffffffffffffffffffffffffffffffffffffff\n      and\n      0x747fe8563263661fb53c6a99a1d6753bbcba100faa6979d07ead10fb9c84d050\n        /* \"contracts/bank.sol\":2446:2453  balance */\n      0x01\n        /* \"contracts/bank.sol\":2446:2465  balance[msg.sender] */\n      0x00\n        /* \"contracts/bank.sol\":2454:2464  msg.sender */\n      caller\n        /* \"contracts/bank.sol\":2446:2465  balance[msg.sender] */\n      0xffffffffffffffffffffffffffffffffffffffff\n      and\n      0xffffffffffffffffffffffffffffffffffffffff\n      and\n      dup2\n      mstore\n      0x20\n      add\n      swap1\n      dup2\n      mstore\n      0x20\n      add\n      0x00\n      keccak256\n      sload\n        /* \"contracts/bank.sol\":2400:2466  balanceUpdate(\"OutGoing Trasfer\", msg.sender, balance[msg.sender]) */\n      mload(0x40)\n      tag_73\n      swap2\n      swap1\n      tag_74\n      jump\t// in\n    tag_73:\n      mload(0x40)\n      dup1\n      swap2\n      sub\n      swap1\n      log2\n        /* \"contracts/bank.sol\":2516:2519  _to */\n      dup3\n        /* \"contracts/bank.sol\":2481:2534  balanceUpdate(\"InComing Transfer\", _to, balance[_to]) */\n      0xffffffffffffffffffffffffffffffffffffffff\n      and\n      0x747fe8563263661fb53c6a99a1d6753bbcba100faa6979d07ead10fb9c84d050\n        /* \"contracts/bank.sol\":2521:2528  balance */\n      0x01\n        /* \"contracts/bank.sol\":2521:2533  balance[_to] */\n      0x00\n        /* \"contracts/bank.sol\":2529:2532  _to */\n      dup7\n        /* \"contracts/bank.sol\":2521:2533  balance[_to] */\n      0xffffffffffffffffffffffffffffffffffffffff\n      and\n      0xffffffffffffffffffffffffffffffffffffffff\n      and\n      dup2\n      mstore\n      0x20\n      add\n      swap1\n      dup2\n      mstore\n      0x20\n      add\n      0x00\n      keccak256\n      sload\n        /* \"contracts/bank.sol\":2481:2534  balanceUpdate(\"InComing Transfer\", _to, balance[_to]) */\n      mload(0x40)\n      tag_75\n      swap2\n      swap1\n      tag_44\n      jump\t// in\n    tag_75:\n      mload(0x40)\n      dup1\n      swap2\n      sub\n      swap1\n      log2\n        /* \"contracts/ownable.sol\":238:239  _ */\n      pop\n        /* \"contracts/bank.sol\":2194:2541  function transfer(address _to, uint _amount) public onlyOwner balanceCheck(_amount){... */\n      pop\n      pop\n      jump\t// out\n        /* \"contracts/bank.sol\":1175:1391  function deposit() external payable onlyOwner{... */\n    tag_28:\n        /* \"contracts/ownable.sol\":201:206  owner */\n      0x00\n      dup1\n      sload\n      swap1\n      0x0100\n      exp\n      swap1\n      div\n      0xffffffffffffffffffffffffffffffffffffffff\n      and\n        /* \"contracts/ownable.sol\":187:206  msg.sender == owner */\n      0xffffffffffffffffffffffffffffffffffffffff\n      and\n        /* \"contracts/ownable.sol\":187:197  msg.sender */\n      caller\n        /* \"contracts/ownable.sol\":187:206  msg.sender == owner */\n      0xffffffffffffffffffffffffffffffffffffffff\n      and\n      eq\n        /* \"contracts/ownable.sol\":179:228  require(msg.sender == owner, \"You Are Not Owner\") */\n      tag_77\n      jumpi\n      mload(0x40)\n      0x08c379a000000000000000000000000000000000000000000000000000000000\n      dup2\n      mstore\n      0x04\n      add\n      tag_78\n      swap1\n      tag_64\n      jump\t// in\n    tag_78:\n      mload(0x40)\n      dup1\n      swap2\n      sub\n      swap1\n      revert\n    tag_77:\n        /* \"contracts/bank.sol\":1302:1311  msg.value */\n      callvalue\n        /* \"contracts/bank.sol\":1279:1286  balance */\n      0x01\n        /* \"contracts/bank.sol\":1279:1298  balance[msg.sender] */\n      0x00\n        /* \"contracts/bank.sol\":1287:1297  msg.sender */\n      caller\n        /* \"contracts/bank.sol\":1279:1298  balance[msg.sender] */\n      0xffffffffffffffffffffffffffffffffffffffff\n      and\n      0xffffffffffffffffffffffffffffffffffffffff\n      and\n      dup2\n      mstore\n      0x20\n      add\n      swap1\n      dup2\n      mstore\n      0x20\n      add\n      0x00\n      keccak256\n      0x00\n        /* \"contracts/bank.sol\":1279:1311  balance[msg.sender] += msg.value */\n      dup3\n      dup3\n      sload\n      tag_80\n      swap2\n      swap1\n      tag_40\n      jump\t// in\n    tag_80:\n      swap3\n      pop\n      pop\n      dup2\n      swap1\n      sstore\n      pop\n        /* \"contracts/bank.sol\":1352:1362  msg.sender */\n      caller\n        /* \"contracts/bank.sol\":1327:1384  balanceUpdate(\"Deposit\", msg.sender, balance[msg.sender]) */\n      0xffffffffffffffffffffffffffffffffffffffff\n      and\n      0x747fe8563263661fb53c6a99a1d6753bbcba100faa6979d07ead10fb9c84d050\n        /* \"contracts/bank.sol\":1364:1371  balance */\n      0x01\n        /* \"contracts/bank.sol\":1364:1383  balance[msg.sender] */\n      0x00\n        /* \"contracts/bank.sol\":1372:1382  msg.sender */\n      caller\n        /* \"contracts/bank.sol\":1364:1383  balance[msg.sender] */\n      0xffffffffffffffffffffffffffffffffffffffff\n      and\n      0xffffffffffffffffffffffffffffffffffffffff\n      and\n      dup2\n      mstore\n      0x20\n      add\n      swap1\n      dup2\n      mstore\n      0x20\n      add\n      0x00\n      keccak256\n      sload\n        /* \"contracts/bank.sol\":1327:1384  balanceUpdate(\"Deposit\", msg.sender, balance[msg.sender]) */\n      mload(0x40)\n      tag_81\n      swap2\n      swap1\n      tag_82\n      jump\t// in\n    tag_81:\n      mload(0x40)\n      dup1\n      swap2\n      sub\n      swap1\n      log2\n        /* \"contracts/bank.sol\":1175:1391  function deposit() external payable onlyOwner{... */\n      jump\t// out\n        /* \"contracts/bank.sol\":2633:2777  function _transfer(address _from, address _to, uint _amount) private {... */\n    tag_72:\n        /* \"contracts/bank.sol\":2730:2737  _amount */\n      dup1\n        /* \"contracts/bank.sol\":2712:2719  balance */\n      0x01\n        /* \"contracts/bank.sol\":2712:2726  balance[_from] */\n      0x00\n        /* \"contracts/bank.sol\":2720:2725  _from */\n      dup6\n        /* \"contracts/bank.sol\":2712:2726  balance[_from] */\n      0xffffffffffffffffffffffffffffffffffffffff\n      and\n      0xffffffffffffffffffffffffffffffffffffffff\n      and\n      dup2\n      mstore\n      0x20\n      add\n      swap1\n      dup2\n      mstore\n      0x20\n      add\n      0x00\n      keccak256\n      0x00\n        /* \"contracts/bank.sol\":2712:2737  balance[_from] -= _amount */\n      dup3\n      dup3\n      sload\n      tag_84\n      swap2\n      swap1\n      tag_38\n      jump\t// in\n    tag_84:\n      swap3\n      pop\n      pop\n      dup2\n      swap1\n      sstore\n      pop\n        /* \"contracts/bank.sol\":2763:2770  _amount */\n      dup1\n        /* \"contracts/bank.sol\":2747:2754  balance */\n      0x01\n        /* \"contracts/bank.sol\":2747:2759  balance[_to] */\n      0x00\n        /* \"contracts/bank.sol\":2755:2758  _to */\n      dup5\n        /* \"contracts/bank.sol\":2747:2759  balance[_to] */\n      0xffffffffffffffffffffffffffffffffffffffff\n      and\n      0xffffffffffffffffffffffffffffffffffffffff\n      and\n      dup2\n      mstore\n      0x20\n      add\n      swap1\n      dup2\n      mstore\n      0x20\n      add\n      0x00\n      keccak256\n      0x00\n        /* \"contracts/bank.sol\":2747:2770  balance[_to] += _amount */\n      dup3\n      dup3\n      sload\n      tag_85\n      swap2\n      swap1\n      tag_40\n      jump\t// in\n    tag_85:\n      swap3\n      pop\n      pop\n      dup2\n      swap1\n      sstore\n      pop\n        /* \"contracts/bank.sol\":2633:2777  function _transfer(address _from, address _to, uint _amount) private {... */\n      pop\n      pop\n      pop\n      jump\t// out\n        /* \"#utility.yul\":7:84   */\n    tag_86:\n        /* \"#utility.yul\":44:51   */\n      0x00\n        /* \"#utility.yul\":73:78   */\n      dup2\n        /* \"#utility.yul\":62:78   */\n      swap1\n      pop\n        /* \"#utility.yul\":7:84   */\n      swap2\n      swap1\n      pop\n      jump\t// out\n        /* \"#utility.yul\":90:208   */\n    tag_87:\n        /* \"#utility.yul\":177:201   */\n      tag_125\n        /* \"#utility.yul\":195:200   */\n      dup2\n        /* \"#utility.yul\":177:201   */\n      tag_86\n      jump\t// in\n    tag_125:\n        /* \"#utility.yul\":172:175   */\n      dup3\n        /* \"#utility.yul\":165:202   */\n      mstore\n        /* \"#utility.yul\":90:208   */\n      pop\n      pop\n      jump\t// out\n        /* \"#utility.yul\":214:436   */\n    tag_11:\n        /* \"#utility.yul\":307:311   */\n      0x00\n        /* \"#utility.yul\":345:347   */\n      0x20\n        /* \"#utility.yul\":334:343   */\n      dup3\n        /* \"#utility.yul\":330:348   */\n      add\n        /* \"#utility.yul\":322:348   */\n      swap1\n      pop\n        /* \"#utility.yul\":358:429   */\n      tag_127\n        /* \"#utility.yul\":426:427   */\n      0x00\n        /* \"#utility.yul\":415:424   */\n      dup4\n        /* \"#utility.yul\":411:428   */\n      add\n        /* \"#utility.yul\":402:408   */\n      dup5\n        /* \"#utility.yul\":358:429   */\n      tag_87\n      jump\t// in\n    tag_127:\n        /* \"#utility.yul\":214:436   */\n      swap3\n      swap2\n      pop\n      pop\n      jump\t// out\n        /* \"#utility.yul\":523:640   */\n    tag_89:\n        /* \"#utility.yul\":632:633   */\n      0x00\n        /* \"#utility.yul\":629:630   */\n      dup1\n        /* \"#utility.yul\":622:634   */\n      revert\n        /* \"#utility.yul\":769:895   */\n    tag_91:\n        /* \"#utility.yul\":806:813   */\n      0x00\n        /* \"#utility.yul\":846:888   */\n      0xffffffffffffffffffffffffffffffffffffffff\n        /* \"#utility.yul\":839:844   */\n      dup3\n        /* \"#utility.yul\":835:889   */\n      and\n        /* \"#utility.yul\":824:889   */\n      swap1\n      pop\n        /* \"#utility.yul\":769:895   */\n      swap2\n      swap1\n      pop\n      jump\t// out\n        /* \"#utility.yul\":901:997   */\n    tag_92:\n        /* \"#utility.yul\":938:945   */\n      0x00\n        /* \"#utility.yul\":967:991   */\n      tag_133\n        /* \"#utility.yul\":985:990   */\n      dup3\n        /* \"#utility.yul\":967:991   */\n      tag_91\n      jump\t// in\n    tag_133:\n        /* \"#utility.yul\":956:991   */\n      swap1\n      pop\n        /* \"#utility.yul\":901:997   */\n      swap2\n      swap1\n      pop\n      jump\t// out\n        /* \"#utility.yul\":1003:1125   */\n    tag_93:\n        /* \"#utility.yul\":1076:1100   */\n      tag_135\n        /* \"#utility.yul\":1094:1099   */\n      dup2\n        /* \"#utility.yul\":1076:1100   */\n      tag_92\n      jump\t// in\n    tag_135:\n        /* \"#utility.yul\":1069:1074   */\n      dup2\n        /* \"#utility.yul\":1066:1101   */\n      eq\n        /* \"#utility.yul\":1056:1119   */\n      tag_136\n      jumpi\n        /* \"#utility.yul\":1115:1116   */\n      0x00\n        /* \"#utility.yul\":1112:1113   */\n      dup1\n        /* \"#utility.yul\":1105:1117   */\n      revert\n        /* \"#utility.yul\":1056:1119   */\n    tag_136:\n        /* \"#utility.yul\":1003:1125   */\n      pop\n      jump\t// out\n        /* \"#utility.yul\":1131:1270   */\n    tag_94:\n        /* \"#utility.yul\":1177:1182   */\n      0x00\n        /* \"#utility.yul\":1215:1221   */\n      dup2\n        /* \"#utility.yul\":1202:1222   */\n      calldataload\n        /* \"#utility.yul\":1193:1222   */\n      swap1\n      pop\n        /* \"#utility.yul\":1231:1264   */\n      tag_138\n        /* \"#utility.yul\":1258:1263   */\n      dup2\n        /* \"#utility.yul\":1231:1264   */\n      tag_93\n      jump\t// in\n    tag_138:\n        /* \"#utility.yul\":1131:1270   */\n      swap3\n      swap2\n      pop\n      pop\n      jump\t// out\n        /* \"#utility.yul\":1276:1398   */\n    tag_95:\n        /* \"#utility.yul\":1349:1373   */\n      tag_140\n        /* \"#utility.yul\":1367:1372   */\n      dup2\n        /* \"#utility.yul\":1349:1373   */\n      tag_86\n      jump\t// in\n    tag_140:\n        /* \"#utility.yul\":1342:1347   */\n      dup2\n        /* \"#utility.yul\":1339:1374   */\n      eq\n        /* \"#utility.yul\":1329:1392   */\n      tag_141\n      jumpi\n        /* \"#utility.yul\":1388:1389   */\n      0x00\n        /* \"#utility.yul\":1385:1386   */\n      dup1\n        /* \"#utility.yul\":1378:1390   */\n      revert\n        /* \"#utility.yul\":1329:1392   */\n    tag_141:\n        /* \"#utility.yul\":1276:1398   */\n      pop\n      jump\t// out\n        /* \"#utility.yul\":1404:1543   */\n    tag_96:\n        /* \"#utility.yul\":1450:1455   */\n      0x00\n        /* \"#utility.yul\":1488:1494   */\n      dup2\n        /* \"#utility.yul\":1475:1495   */\n      calldataload\n        /* \"#utility.yul\":1466:1495   */\n      swap1\n      pop\n        /* \"#utility.yul\":1504:1537   */\n      tag_143\n        /* \"#utility.yul\":1531:1536   */\n      dup2\n        /* \"#utility.yul\":1504:1537   */\n      tag_95\n      jump\t// in\n    tag_143:\n        /* \"#utility.yul\":1404:1543   */\n      swap3\n      swap2\n      pop\n      pop\n      jump\t// out\n        /* \"#utility.yul\":1549:2168   */\n    tag_15:\n        /* \"#utility.yul\":1626:1632   */\n      0x00\n        /* \"#utility.yul\":1634:1640   */\n      dup1\n        /* \"#utility.yul\":1642:1648   */\n      0x00\n        /* \"#utility.yul\":1691:1693   */\n      0x60\n        /* \"#utility.yul\":1679:1688   */\n      dup5\n        /* \"#utility.yul\":1670:1677   */\n      dup7\n        /* \"#utility.yul\":1666:1689   */\n      sub\n        /* \"#utility.yul\":1662:1694   */\n      slt\n        /* \"#utility.yul\":1659:1778   */\n      iszero\n      tag_145\n      jumpi\n        /* \"#utility.yul\":1697:1776   */\n      tag_146\n      tag_89\n      jump\t// in\n    tag_146:\n        /* \"#utility.yul\":1659:1778   */\n    tag_145:\n        /* \"#utility.yul\":1817:1818   */\n      0x00\n        /* \"#utility.yul\":1842:1895   */\n      tag_147\n        /* \"#utility.yul\":1887:1894   */\n      dup7\n        /* \"#utility.yul\":1878:1884   */\n      dup3\n        /* \"#utility.yul\":1867:1876   */\n      dup8\n        /* \"#utility.yul\":1863:1885   */\n      add\n        /* \"#utility.yul\":1842:1895   */\n      tag_94\n      jump\t// in\n    tag_147:\n        /* \"#utility.yul\":1832:1895   */\n      swap4\n      pop\n        /* \"#utility.yul\":1788:1905   */\n      pop\n        /* \"#utility.yul\":1944:1946   */\n      0x20\n        /* \"#utility.yul\":1970:2023   */\n      tag_148\n        /* \"#utility.yul\":2015:2022   */\n      dup7\n        /* \"#utility.yul\":2006:2012   */\n      dup3\n        /* \"#utility.yul\":1995:2004   */\n      dup8\n        /* \"#utility.yul\":1991:2013   */\n      add\n        /* \"#utility.yul\":1970:2023   */\n      tag_94\n      jump\t// in\n    tag_148:\n        /* \"#utility.yul\":1960:2023   */\n      swap3\n      pop\n        /* \"#utility.yul\":1915:2033   */\n      pop\n        /* \"#utility.yul\":2072:2074   */\n      0x40\n        /* \"#utility.yul\":2098:2151   */\n      tag_149\n        /* \"#utility.yul\":2143:2150   */\n      dup7\n        /* \"#utility.yul\":2134:2140   */\n      dup3\n        /* \"#utility.yul\":2123:2132   */\n      dup8\n        /* \"#utility.yul\":2119:2141   */\n      add\n        /* \"#utility.yul\":2098:2151   */\n      tag_96\n      jump\t// in\n    tag_149:\n        /* \"#utility.yul\":2088:2151   */\n      swap2\n      pop\n        /* \"#utility.yul\":2043:2161   */\n      pop\n        /* \"#utility.yul\":1549:2168   */\n      swap3\n      pop\n      swap3\n      pop\n      swap3\n      jump\t// out\n        /* \"#utility.yul\":2174:2503   */\n    tag_20:\n        /* \"#utility.yul\":2233:2239   */\n      0x00\n        /* \"#utility.yul\":2282:2284   */\n      0x20\n        /* \"#utility.yul\":2270:2279   */\n      dup3\n        /* \"#utility.yul\":2261:2268   */\n      dup5\n        /* \"#utility.yul\":2257:2280   */\n      sub\n        /* \"#utility.yul\":2253:2285   */\n      slt\n        /* \"#utility.yul\":2250:2369   */\n      iszero\n      tag_151\n      jumpi\n        /* \"#utility.yul\":2288:2367   */\n      tag_152\n      tag_89\n      jump\t// in\n    tag_152:\n        /* \"#utility.yul\":2250:2369   */\n    tag_151:\n        /* \"#utility.yul\":2408:2409   */\n      0x00\n        /* \"#utility.yul\":2433:2486   */\n      tag_153\n        /* \"#utility.yul\":2478:2485   */\n      dup5\n        /* \"#utility.yul\":2469:2475   */\n      dup3\n        /* \"#utility.yul\":2458:2467   */\n      dup6\n        /* \"#utility.yul\":2454:2476   */\n      add\n        /* \"#utility.yul\":2433:2486   */\n      tag_96\n      jump\t// in\n    tag_153:\n        /* \"#utility.yul\":2423:2486   */\n      swap2\n      pop\n        /* \"#utility.yul\":2379:2496   */\n      pop\n        /* \"#utility.yul\":2174:2503   */\n      swap3\n      swap2\n      pop\n      pop\n      jump\t// out\n        /* \"#utility.yul\":2509:2983   */\n    tag_25:\n        /* \"#utility.yul\":2577:2583   */\n      0x00\n        /* \"#utility.yul\":2585:2591   */\n      dup1\n        /* \"#utility.yul\":2634:2636   */\n      0x40\n        /* \"#utility.yul\":2622:2631   */\n      dup4\n        /* \"#utility.yul\":2613:2620   */\n      dup6\n        /* \"#utility.yul\":2609:2632   */\n      sub\n        /* \"#utility.yul\":2605:2637   */\n      slt\n        /* \"#utility.yul\":2602:2721   */\n      iszero\n      tag_155\n      jumpi\n        /* \"#utility.yul\":2640:2719   */\n      tag_156\n      tag_89\n      jump\t// in\n    tag_156:\n        /* \"#utility.yul\":2602:2721   */\n    tag_155:\n        /* \"#utility.yul\":2760:2761   */\n      0x00\n        /* \"#utility.yul\":2785:2838   */\n      tag_157\n        /* \"#utility.yul\":2830:2837   */\n      dup6\n        /* \"#utility.yul\":2821:2827   */\n      dup3\n        /* \"#utility.yul\":2810:2819   */\n      dup7\n        /* \"#utility.yul\":2806:2828   */\n      add\n        /* \"#utility.yul\":2785:2838   */\n      tag_94\n      jump\t// in\n    tag_157:\n        /* \"#utility.yul\":2775:2838   */\n      swap3\n      pop\n        /* \"#utility.yul\":2731:2848   */\n      pop\n        /* \"#utility.yul\":2887:2889   */\n      0x20\n        /* \"#utility.yul\":2913:2966   */\n      tag_158\n        /* \"#utility.yul\":2958:2965   */\n      dup6\n        /* \"#utility.yul\":2949:2955   */\n      dup3\n        /* \"#utility.yul\":2938:2947   */\n      dup7\n        /* \"#utility.yul\":2934:2956   */\n      add\n        /* \"#utility.yul\":2913:2966   */\n      tag_96\n      jump\t// in\n    tag_158:\n        /* \"#utility.yul\":2903:2966   */\n      swap2\n      pop\n        /* \"#utility.yul\":2858:2976   */\n      pop\n        /* \"#utility.yul\":2509:2983   */\n      swap3\n      pop\n      swap3\n      swap1\n      pop\n      jump\t// out\n        /* \"#utility.yul\":2989:3158   */\n    tag_97:\n        /* \"#utility.yul\":3073:3084   */\n      0x00\n        /* \"#utility.yul\":3107:3113   */\n      dup3\n        /* \"#utility.yul\":3102:3105   */\n      dup3\n        /* \"#utility.yul\":3095:3114   */\n      mstore\n        /* \"#utility.yul\":3147:3151   */\n      0x20\n        /* \"#utility.yul\":3142:3145   */\n      dup3\n        /* \"#utility.yul\":3138:3152   */\n      add\n        /* \"#utility.yul\":3123:3152   */\n      swap1\n      pop\n        /* \"#utility.yul\":2989:3158   */\n      swap3\n      swap2\n      pop\n      pop\n      jump\t// out\n        /* \"#utility.yul\":3164:3334   */\n    tag_98:\n        /* \"#utility.yul\":3304:3326   */\n      0x496e73756666696369656e742062616c616e6365000000000000000000000000\n        /* \"#utility.yul\":3300:3301   */\n      0x00\n        /* \"#utility.yul\":3292:3298   */\n      dup3\n        /* \"#utility.yul\":3288:3302   */\n      add\n        /* \"#utility.yul\":3281:3327   */\n      mstore\n        /* \"#utility.yul\":3164:3334   */\n      pop\n      jump\t// out\n        /* \"#utility.yul\":3340:3706   */\n    tag_99:\n        /* \"#utility.yul\":3482:3485   */\n      0x00\n        /* \"#utility.yul\":3503:3570   */\n      tag_162\n        /* \"#utility.yul\":3567:3569   */\n      0x14\n        /* \"#utility.yul\":3562:3565   */\n      dup4\n        /* \"#utility.yul\":3503:3570   */\n      tag_97\n      jump\t// in\n    tag_162:\n        /* \"#utility.yul\":3496:3570   */\n      swap2\n      pop\n        /* \"#utility.yul\":3579:3672   */\n      tag_163\n        /* \"#utility.yul\":3668:3671   */\n      dup3\n        /* \"#utility.yul\":3579:3672   */\n      tag_98\n      jump\t// in\n    tag_163:\n        /* \"#utility.yul\":3697:3699   */\n      0x20\n        /* \"#utility.yul\":3692:3695   */\n      dup3\n        /* \"#utility.yul\":3688:3700   */\n      add\n        /* \"#utility.yul\":3681:3700   */\n      swap1\n      pop\n        /* \"#utility.yul\":3340:3706   */\n      swap2\n      swap1\n      pop\n      jump\t// out\n        /* \"#utility.yul\":3712:4131   */\n    tag_33:\n        /* \"#utility.yul\":3878:3882   */\n      0x00\n        /* \"#utility.yul\":3916:3918   */\n      0x20\n        /* \"#utility.yul\":3905:3914   */\n      dup3\n        /* \"#utility.yul\":3901:3919   */\n      add\n        /* \"#utility.yul\":3893:3919   */\n      swap1\n      pop\n        /* \"#utility.yul\":3965:3974   */\n      dup2\n        /* \"#utility.yul\":3959:3963   */\n      dup2\n        /* \"#utility.yul\":3955:3975   */\n      sub\n        /* \"#utility.yul\":3951:3952   */\n      0x00\n        /* \"#utility.yul\":3940:3949   */\n      dup4\n        /* \"#utility.yul\":3936:3953   */\n      add\n        /* \"#utility.yul\":3929:3976   */\n      mstore\n        /* \"#utility.yul\":3993:4124   */\n      tag_165\n        /* \"#utility.yul\":4119:4123   */\n      dup2\n        /* \"#utility.yul\":3993:4124   */\n      tag_99\n      jump\t// in\n    tag_165:\n        /* \"#utility.yul\":3985:4124   */\n      swap1\n      pop\n        /* \"#utility.yul\":3712:4131   */\n      swap2\n      swap1\n      pop\n      jump\t// out\n        /* \"#utility.yul\":4137:4304   */\n    tag_100:\n        /* \"#utility.yul\":4277:4296   */\n      0x496e76616c696420526563657069656e74000000000000000000000000000000\n        /* \"#utility.yul\":4273:4274   */\n      0x00\n        /* \"#utility.yul\":4265:4271   */\n      dup3\n        /* \"#utility.yul\":4261:4275   */\n      add\n        /* \"#utility.yul\":4254:4297   */\n      mstore\n        /* \"#utility.yul\":4137:4304   */\n      pop\n      jump\t// out\n        /* \"#utility.yul\":4310:4676   */\n    tag_101:\n        /* \"#utility.yul\":4452:4455   */\n      0x00\n        /* \"#utility.yul\":4473:4540   */\n      tag_168\n        /* \"#utility.yul\":4537:4539   */\n      0x11\n        /* \"#utility.yul\":4532:4535   */\n      dup4\n        /* \"#utility.yul\":4473:4540   */\n      tag_97\n      jump\t// in\n    tag_168:\n        /* \"#utility.yul\":4466:4540   */\n      swap2\n      pop\n        /* \"#utility.yul\":4549:4642   */\n      tag_169\n        /* \"#utility.yul\":4638:4641   */\n      dup3\n        /* \"#utility.yul\":4549:4642   */\n      tag_100\n      jump\t// in\n    tag_169:\n        /* \"#utility.yul\":4667:4669   */\n      0x20\n        /* \"#utility.yul\":4662:4665   */\n      dup3\n        /* \"#utility.yul\":4658:4670   */\n      add\n        /* \"#utility.yul\":4651:4670   */\n      swap1\n      pop\n        /* \"#utility.yul\":4310:4676   */\n      swap2\n      swap1\n      pop\n      jump\t// out\n        /* \"#utility.yul\":4682:5101   */\n    tag_36:\n        /* \"#utility.yul\":4848:4852   */\n      0x00\n        /* \"#utility.yul\":4886:4888   */\n      0x20\n        /* \"#utility.yul\":4875:4884   */\n      dup3\n        /* \"#utility.yul\":4871:4889   */\n      add\n        /* \"#utility.yul\":4863:4889   */\n      swap1\n      pop\n        /* \"#utility.yul\":4935:4944   */\n      dup2\n        /* \"#utility.yul\":4929:4933   */\n      dup2\n        /* \"#utility.yul\":4925:4945   */\n      sub\n        /* \"#utility.yul\":4921:4922   */\n      0x00\n        /* \"#utility.yul\":4910:4919   */\n      dup4\n        /* \"#utility.yul\":4906:4923   */\n      add\n        /* \"#utility.yul\":4899:4946   */\n      mstore\n        /* \"#utility.yul\":4963:5094   */\n      tag_171\n        /* \"#utility.yul\":5089:5093   */\n      dup2\n        /* \"#utility.yul\":4963:5094   */\n      tag_101\n      jump\t// in\n    tag_171:\n        /* \"#utility.yul\":4955:5094   */\n      swap1\n      pop\n        /* \"#utility.yul\":4682:5101   */\n      swap2\n      swap1\n      pop\n      jump\t// out\n        /* \"#utility.yul\":5107:5287   */\n    tag_102:\n        /* \"#utility.yul\":5155:5232   */\n      0x4e487b7100000000000000000000000000000000000000000000000000000000\n        /* \"#utility.yul\":5152:5153   */\n      0x00\n        /* \"#utility.yul\":5145:5233   */\n      mstore\n        /* \"#utility.yul\":5252:5256   */\n      0x11\n        /* \"#utility.yul\":5249:5250   */\n      0x04\n        /* \"#utility.yul\":5242:5257   */\n      mstore\n        /* \"#utility.yul\":5276:5280   */\n      0x24\n        /* \"#utility.yul\":5273:5274   */\n      0x00\n        /* \"#utility.yul\":5266:5281   */\n      revert\n        /* \"#utility.yul\":5293:5484   */\n    tag_38:\n        /* \"#utility.yul\":5333:5337   */\n      0x00\n        /* \"#utility.yul\":5353:5373   */\n      tag_174\n        /* \"#utility.yul\":5371:5372   */\n      dup3\n        /* \"#utility.yul\":5353:5373   */\n      tag_86\n      jump\t// in\n    tag_174:\n        /* \"#utility.yul\":5348:5373   */\n      swap2\n      pop\n        /* \"#utility.yul\":5387:5407   */\n      tag_175\n        /* \"#utility.yul\":5405:5406   */\n      dup4\n        /* \"#utility.yul\":5387:5407   */\n      tag_86\n      jump\t// in\n    tag_175:\n        /* \"#utility.yul\":5382:5407   */\n      swap3\n      pop\n        /* \"#utility.yul\":5426:5427   */\n      dup3\n        /* \"#utility.yul\":5423:5424   */\n      dup3\n        /* \"#utility.yul\":5420:5428   */\n      lt\n        /* \"#utility.yul\":5417:5451   */\n      iszero\n      tag_176\n      jumpi\n        /* \"#utility.yul\":5431:5449   */\n      tag_177\n      tag_102\n      jump\t// in\n    tag_177:\n        /* \"#utility.yul\":5417:5451   */\n    tag_176:\n        /* \"#utility.yul\":5476:5477   */\n      dup3\n        /* \"#utility.yul\":5473:5474   */\n      dup3\n        /* \"#utility.yul\":5469:5478   */\n      sub\n        /* \"#utility.yul\":5461:5478   */\n      swap1\n      pop\n        /* \"#utility.yul\":5293:5484   */\n      swap3\n      swap2\n      pop\n      pop\n      jump\t// out\n        /* \"#utility.yul\":5490:5795   */\n    tag_40:\n        /* \"#utility.yul\":5530:5533   */\n      0x00\n        /* \"#utility.yul\":5549:5569   */\n      tag_179\n        /* \"#utility.yul\":5567:5568   */\n      dup3\n        /* \"#utility.yul\":5549:5569   */\n      tag_86\n      jump\t// in\n    tag_179:\n        /* \"#utility.yul\":5544:5569   */\n      swap2\n      pop\n        /* \"#utility.yul\":5583:5603   */\n      tag_180\n        /* \"#utility.yul\":5601:5602   */\n      dup4\n        /* \"#utility.yul\":5583:5603   */\n      tag_86\n      jump\t// in\n    tag_180:\n        /* \"#utility.yul\":5578:5603   */\n      swap3\n      pop\n        /* \"#utility.yul\":5737:5738   */\n      dup3\n        /* \"#utility.yul\":5669:5735   */\n      0xffffffffffffffffffffffffffffffffffffffffffffffffffffffffffffffff\n        /* \"#utility.yul\":5665:5739   */\n      sub\n        /* \"#utility.yul\":5662:5663   */\n      dup3\n        /* \"#utility.yul\":5659:5740   */\n      gt\n        /* \"#utility.yul\":5656:5763   */\n      iszero\n      tag_181\n      jumpi\n        /* \"#utility.yul\":5743:5761   */\n      tag_182\n      tag_102\n      jump\t// in\n    tag_182:\n        /* \"#utility.yul\":5656:5763   */\n    tag_181:\n        /* \"#utility.yul\":5787:5788   */\n      dup3\n        /* \"#utility.yul\":5784:5785   */\n      dup3\n        /* \"#utility.yul\":5780:5789   */\n      add\n        /* \"#utility.yul\":5773:5789   */\n      swap1\n      pop\n        /* \"#utility.yul\":5490:5795   */\n      swap3\n      swap2\n      pop\n      pop\n      jump\t// out\n        /* \"#utility.yul\":5801:5968   */\n    tag_103:\n        /* \"#utility.yul\":5941:5960   */\n      0x4f7574476f696e67205472616e73666572000000000000000000000000000000\n        /* \"#utility.yul\":5937:5938   */\n      0x00\n        /* \"#utility.yul\":5929:5935   */\n      dup3\n        /* \"#utility.yul\":5925:5939   */\n      add\n        /* \"#utility.yul\":5918:5961   */\n      mstore\n        /* \"#utility.yul\":5801:5968   */\n      pop\n      jump\t// out\n        /* \"#utility.yul\":5974:6340   */\n    tag_104:\n        /* \"#utility.yul\":6116:6119   */\n      0x00\n        /* \"#utility.yul\":6137:6204   */\n      tag_185\n        /* \"#utility.yul\":6201:6203   */\n      0x11\n        /* \"#utility.yul\":6196:6199   */\n      dup4\n        /* \"#utility.yul\":6137:6204   */\n      tag_97\n      jump\t// in\n    tag_185:\n        /* \"#utility.yul\":6130:6204   */\n      swap2\n      pop\n        /* \"#utility.yul\":6213:6306   */\n      tag_186\n        /* \"#utility.yul\":6302:6305   */\n      dup3\n        /* \"#utility.yul\":6213:6306   */\n      tag_103\n      jump\t// in\n    tag_186:\n        /* \"#utility.yul\":6331:6333   */\n      0x20\n        /* \"#utility.yul\":6326:6329   */\n      dup3\n        /* \"#utility.yul\":6322:6334   */\n      add\n        /* \"#utility.yul\":6315:6334   */\n      swap1\n      pop\n        /* \"#utility.yul\":5974:6340   */\n      swap2\n      swap1\n      pop\n      jump\t// out\n        /* \"#utility.yul\":6346:6875   */\n    tag_42:\n        /* \"#utility.yul\":6540:6544   */\n      0x00\n        /* \"#utility.yul\":6578:6580   */\n      0x40\n        /* \"#utility.yul\":6567:6576   */\n      dup3\n        /* \"#utility.yul\":6563:6581   */\n      add\n        /* \"#utility.yul\":6555:6581   */\n      swap1\n      pop\n        /* \"#utility.yul\":6627:6636   */\n      dup2\n        /* \"#utility.yul\":6621:6625   */\n      dup2\n        /* \"#utility.yul\":6617:6637   */\n      sub\n        /* \"#utility.yul\":6613:6614   */\n      0x00\n        /* \"#utility.yul\":6602:6611   */\n      dup4\n        /* \"#utility.yul\":6598:6615   */\n      add\n        /* \"#utility.yul\":6591:6638   */\n      mstore\n        /* \"#utility.yul\":6655:6786   */\n      tag_188\n        /* \"#utility.yul\":6781:6785   */\n      dup2\n        /* \"#utility.yul\":6655:6786   */\n      tag_104\n      jump\t// in\n    tag_188:\n        /* \"#utility.yul\":6647:6786   */\n      swap1\n      pop\n        /* \"#utility.yul\":6796:6868   */\n      tag_189\n        /* \"#utility.yul\":6864:6866   */\n      0x20\n        /* \"#utility.yul\":6853:6862   */\n      dup4\n        /* \"#utility.yul\":6849:6867   */\n      add\n        /* \"#utility.yul\":6840:6846   */\n      dup5\n        /* \"#utility.yul\":6796:6868   */\n      tag_87\n      jump\t// in\n    tag_189:\n        /* \"#utility.yul\":6346:6875   */\n      swap3\n      swap2\n      pop\n      pop\n      jump\t// out\n        /* \"#utility.yul\":6881:7048   */\n    tag_105:\n        /* \"#utility.yul\":7021:7040   */\n      0x496e436f6d696e67205472616e73666572000000000000000000000000000000\n        /* \"#utility.yul\":7017:7018   */\n      0x00\n        /* \"#utility.yul\":7009:7015   */\n      dup3\n        /* \"#utility.yul\":7005:7019   */\n      add\n        /* \"#utility.yul\":6998:7041   */\n      mstore\n        /* \"#utility.yul\":6881:7048   */\n      pop\n      jump\t// out\n        /* \"#utility.yul\":7054:7420   */\n    tag_106:\n        /* \"#utility.yul\":7196:7199   */\n      0x00\n        /* \"#utility.yul\":7217:7284   */\n      tag_192\n        /* \"#utility.yul\":7281:7283   */\n      0x11\n        /* \"#utility.yul\":7276:7279   */\n      dup4\n        /* \"#utility.yul\":7217:7284   */\n      tag_97\n      jump\t// in\n    tag_192:\n        /* \"#utility.yul\":7210:7284   */\n      swap2\n      pop\n        /* \"#utility.yul\":7293:7386   */\n      tag_193\n        /* \"#utility.yul\":7382:7385   */\n      dup3\n        /* \"#utility.yul\":7293:7386   */\n      tag_105\n      jump\t// in\n    tag_193:\n        /* \"#utility.yul\":7411:7413   */\n      0x20\n        /* \"#utility.yul\":7406:7409   */\n      dup3\n        /* \"#utility.yul\":7402:7414   */\n      add\n        /* \"#utility.yul\":7395:7414   */\n      swap1\n      pop\n        /* \"#utility.yul\":7054:7420   */\n      swap2\n      swap1\n      pop\n      jump\t// out\n        /* \"#utility.yul\":7426:7955   */\n    tag_44:\n        /* \"#utility.yul\":7620:7624   */\n      0x00\n        /* \"#utility.yul\":7658:7660   */\n      0x40\n        /* \"#utility.yul\":7647:7656   */\n      dup3\n        /* \"#utility.yul\":7643:7661   */\n      add\n        /* \"#utility.yul\":7635:7661   */\n      swap1\n      pop\n        /* \"#utility.yul\":7707:7716   */\n      dup2\n        /* \"#utility.yul\":7701:7705   */\n      dup2\n        /* \"#utility.yul\":7697:7717   */\n      sub\n        /* \"#utility.yul\":7693:7694   */\n      0x00\n        /* \"#utility.yul\":7682:7691   */\n      dup4\n        /* \"#utility.yul\":7678:7695   */\n      add\n        /* \"#utility.yul\":7671:7718   */\n      mstore\n        /* \"#utility.yul\":7735:7866   */\n      tag_195\n        /* \"#utility.yul\":7861:7865   */\n      dup2\n        /* \"#utility.yul\":7735:7866   */\n      tag_106\n      jump\t// in\n    tag_195:\n        /* \"#utility.yul\":7727:7866   */\n      swap1\n      pop\n        /* \"#utility.yul\":7876:7948   */\n      tag_196\n        /* \"#utility.yul\":7944:7946   */\n      0x20\n        /* \"#utility.yul\":7933:7942   */\n      dup4\n        /* \"#utility.yul\":7929:7947   */\n      add\n        /* \"#utility.yul\":7920:7926   */\n      dup5\n        /* \"#utility.yul\":7876:7948   */\n      tag_87\n      jump\t// in\n    tag_196:\n        /* \"#utility.yul\":7426:7955   */\n      swap3\n      swap2\n      pop\n      pop\n      jump\t// out\n        /* \"#utility.yul\":7961:8108   */\n    tag_107:\n        /* \"#utility.yul\":8062:8073   */\n      0x00\n        /* \"#utility.yul\":8099:8102   */\n      dup2\n        /* \"#utility.yul\":8084:8102   */\n      swap1\n      pop\n        /* \"#utility.yul\":7961:8108   */\n      swap3\n      swap2\n      pop\n      pop\n      jump\t// out\n        /* \"#utility.yul\":8114:8228   */\n    tag_108:\n      pop\n      jump\t// out\n        /* \"#utility.yul\":8234:8632   */\n    tag_109:\n        /* \"#utility.yul\":8393:8396   */\n      0x00\n        /* \"#utility.yul\":8414:8497   */\n      tag_200\n        /* \"#utility.yul\":8495:8496   */\n      0x00\n        /* \"#utility.yul\":8490:8493   */\n      dup4\n        /* \"#utility.yul\":8414:8497   */\n      tag_107\n      jump\t// in\n    tag_200:\n        /* \"#utility.yul\":8407:8497   */\n      swap2\n      pop\n        /* \"#utility.yul\":8506:8599   */\n      tag_201\n        /* \"#utility.yul\":8595:8598   */\n      dup3\n        /* \"#utility.yul\":8506:8599   */\n      tag_108\n      jump\t// in\n    tag_201:\n        /* \"#utility.yul\":8624:8625   */\n      0x00\n        /* \"#utility.yul\":8619:8622   */\n      dup3\n        /* \"#utility.yul\":8615:8626   */\n      add\n        /* \"#utility.yul\":8608:8626   */\n      swap1\n      pop\n        /* \"#utility.yul\":8234:8632   */\n      swap2\n      swap1\n      pop\n      jump\t// out\n        /* \"#utility.yul\":8638:9017   */\n    tag_48:\n        /* \"#utility.yul\":8822:8825   */\n      0x00\n        /* \"#utility.yul\":8844:8991   */\n      tag_203\n        /* \"#utility.yul\":8987:8990   */\n      dup3\n        /* \"#utility.yul\":8844:8991   */\n      tag_109\n      jump\t// in\n    tag_203:\n        /* \"#utility.yul\":8837:8991   */\n      swap2\n      pop\n        /* \"#utility.yul\":9008:9011   */\n      dup2\n        /* \"#utility.yul\":9001:9011   */\n      swap1\n      pop\n        /* \"#utility.yul\":8638:9017   */\n      swap2\n      swap1\n      pop\n      jump\t// out\n        /* \"#utility.yul\":9023:9196   */\n    tag_110:\n        /* \"#utility.yul\":9163:9188   */\n      0x5472616e7366657220756e7375636365737366756c2121000000000000000000\n        /* \"#utility.yul\":9159:9160   */\n      0x00\n        /* \"#utility.yul\":9151:9157   */\n      dup3\n        /* \"#utility.yul\":9147:9161   */\n      add\n        /* \"#utility.yul\":9140:9189   */\n      mstore\n        /* \"#utility.yul\":9023:9196   */\n      pop\n      jump\t// out\n        /* \"#utility.yul\":9202:9568   */\n    tag_111:\n        /* \"#utility.yul\":9344:9347   */\n      0x00\n        /* \"#utility.yul\":9365:9432   */\n      tag_206\n        /* \"#utility.yul\":9429:9431   */\n      0x17\n        /* \"#utility.yul\":9424:9427   */\n      dup4\n        /* \"#utility.yul\":9365:9432   */\n      tag_97\n      jump\t// in\n    tag_206:\n        /* \"#utility.yul\":9358:9432   */\n      swap2\n      pop\n        /* \"#utility.yul\":9441:9534   */\n      tag_207\n        /* \"#utility.yul\":9530:9533   */\n      dup3\n        /* \"#utility.yul\":9441:9534   */\n      tag_110\n      jump\t// in\n    tag_207:\n        /* \"#utility.yul\":9559:9561   */\n      0x20\n        /* \"#utility.yul\":9554:9557   */\n      dup3\n        /* \"#utility.yul\":9550:9562   */\n      add\n        /* \"#utility.yul\":9543:9562   */\n      swap1\n      pop\n        /* \"#utility.yul\":9202:9568   */\n      swap2\n      swap1\n      pop\n      jump\t// out\n        /* \"#utility.yul\":9574:9993   */\n    tag_54:\n        /* \"#utility.yul\":9740:9744   */\n      0x00\n        /* \"#utility.yul\":9778:9780   */\n      0x20\n        /* \"#utility.yul\":9767:9776   */\n      dup3\n        /* \"#utility.yul\":9763:9781   */\n      add\n        /* \"#utility.yul\":9755:9781   */\n      swap1\n      pop\n        /* \"#utility.yul\":9827:9836   */\n      dup2\n        /* \"#utility.yul\":9821:9825   */\n      dup2\n        /* \"#utility.yul\":9817:9837   */\n      sub\n        /* \"#utility.yul\":9813:9814   */\n      0x00\n        /* \"#utility.yul\":9802:9811   */\n      dup4\n        /* \"#utility.yul\":9798:9815   */\n      add\n        /* \"#utility.yul\":9791:9838   */\n      mstore\n        /* \"#utility.yul\":9855:9986   */\n      tag_209\n        /* \"#utility.yul\":9981:9985   */\n      dup2\n        /* \"#utility.yul\":9855:9986   */\n      tag_111\n      jump\t// in\n    tag_209:\n        /* \"#utility.yul\":9847:9986   */\n      swap1\n      pop\n        /* \"#utility.yul\":9574:9993   */\n      swap2\n      swap1\n      pop\n      jump\t// out\n        /* \"#utility.yul\":9999:10179   */\n    tag_58:\n        /* \"#utility.yul\":10047:10124   */\n      0x4e487b7100000000000000000000000000000000000000000000000000000000\n        /* \"#utility.yul\":10044:10045   */\n      0x00\n        /* \"#utility.yul\":10037:10125   */\n      mstore\n        /* \"#utility.yul\":10144:10148   */\n      0x01\n        /* \"#utility.yul\":10141:10142   */\n      0x04\n        /* \"#utility.yul\":10134:10149   */\n      mstore\n        /* \"#utility.yul\":10168:10172   */\n      0x24\n        /* \"#utility.yul\":10165:10166   */\n      0x00\n        /* \"#utility.yul\":10158:10173   */\n      revert\n        /* \"#utility.yul\":10185:10343   */\n    tag_112:\n        /* \"#utility.yul\":10325:10335   */\n      0x5769746864726177000000000000000000000000000000000000000000000000\n        /* \"#utility.yul\":10321:10322   */\n      0x00\n        /* \"#utility.yul\":10313:10319   */\n      dup3\n        /* \"#utility.yul\":10309:10323   */\n      add\n        /* \"#utility.yul\":10302:10336   */\n      mstore\n        /* \"#utility.yul\":10185:10343   */\n      pop\n      jump\t// out\n        /* \"#utility.yul\":10349:10714   */\n    tag_113:\n        /* \"#utility.yul\":10491:10494   */\n      0x00\n        /* \"#utility.yul\":10512:10578   */\n      tag_213\n        /* \"#utility.yul\":10576:10577   */\n      0x08\n        /* \"#utility.yul\":10571:10574   */\n      dup4\n        /* \"#utility.yul\":10512:10578   */\n      tag_97\n      jump\t// in\n    tag_213:\n        /* \"#utility.yul\":10505:10578   */\n      swap2\n      pop\n        /* \"#utility.yul\":10587:10680   */\n      tag_214\n        /* \"#utility.yul\":10676:10679   */\n      dup3\n        /* \"#utility.yul\":10587:10680   */\n      tag_112\n      jump\t// in\n    tag_214:\n        /* \"#utility.yul\":10705:10707   */\n      0x20\n        /* \"#utility.yul\":10700:10703   */\n      dup3\n        /* \"#utility.yul\":10696:10708   */\n      add\n        /* \"#utility.yul\":10689:10708   */\n      swap1\n      pop\n        /* \"#utility.yul\":10349:10714   */\n      swap2\n      swap1\n      pop\n      jump\t// out\n        /* \"#utility.yul\":10720:11249   */\n    tag_60:\n        /* \"#utility.yul\":10914:10918   */\n      0x00\n        /* \"#utility.yul\":10952:10954   */\n      0x40\n        /* \"#utility.yul\":10941:10950   */\n      dup3\n        /* \"#utility.yul\":10937:10955   */\n      add\n        /* \"#utility.yul\":10929:10955   */\n      swap1\n      pop\n        /* \"#utility.yul\":11001:11010   */\n      dup2\n        /* \"#utility.yul\":10995:10999   */\n      dup2\n        /* \"#utility.yul\":10991:11011   */\n      sub\n        /* \"#utility.yul\":10987:10988   */\n      0x00\n        /* \"#utility.yul\":10976:10985   */\n      dup4\n        /* \"#utility.yul\":10972:10989   */\n      add\n        /* \"#utility.yul\":10965:11012   */\n      mstore\n        /* \"#utility.yul\":11029:11160   */\n      tag_216\n        /* \"#utility.yul\":11155:11159   */\n      dup2\n        /* \"#utility.yul\":11029:11160   */\n      tag_113\n      jump\t// in\n    tag_216:\n        /* \"#utility.yul\":11021:11160   */\n      swap1\n      pop\n        /* \"#utility.yul\":11170:11242   */\n      tag_217\n        /* \"#utility.yul\":11238:11240   */\n      0x20\n        /* \"#utility.yul\":11227:11236   */\n      dup4\n        /* \"#utility.yul\":11223:11241   */\n      add\n        /* \"#utility.yul\":11214:11220   */\n      dup5\n        /* \"#utility.yul\":11170:11242   */\n      tag_87\n      jump\t// in\n    tag_217:\n        /* \"#utility.yul\":10720:11249   */\n      swap3\n      swap2\n      pop\n      pop\n      jump\t// out\n        /* \"#utility.yul\":11255:11422   */\n    tag_114:\n        /* \"#utility.yul\":11395:11414   */\n      0x596f7520417265204e6f74204f776e6572000000000000000000000000000000\n        /* \"#utility.yul\":11391:11392   */\n      0x00\n        /* \"#utility.yul\":11383:11389   */\n      dup3\n        /* \"#utility.yul\":11379:11393   */\n      add\n        /* \"#utility.yul\":11372:11415   */\n      mstore\n        /* \"#utility.yul\":11255:11422   */\n      pop\n      jump\t// out\n        /* \"#utility.yul\":11428:11794   */\n    tag_115:\n        /* \"#utility.yul\":11570:11573   */\n      0x00\n        /* \"#utility.yul\":11591:11658   */\n      tag_220\n        /* \"#utility.yul\":11655:11657   */\n      0x11\n        /* \"#utility.yul\":11650:11653   */\n      dup4\n        /* \"#utility.yul\":11591:11658   */\n      tag_97\n      jump\t// in\n    tag_220:\n        /* \"#utility.yul\":11584:11658   */\n      swap2\n      pop\n        /* \"#utility.yul\":11667:11760   */\n      tag_221\n        /* \"#utility.yul\":11756:11759   */\n      dup3\n        /* \"#utility.yul\":11667:11760   */\n      tag_114\n      jump\t// in\n    tag_221:\n        /* \"#utility.yul\":11785:11787   */\n      0x20\n        /* \"#utility.yul\":11780:11783   */\n      dup3\n        /* \"#utility.yul\":11776:11788   */\n      add\n        /* \"#utility.yul\":11769:11788   */\n      swap1\n      pop\n        /* \"#utility.yul\":11428:11794   */\n      swap2\n      swap1\n      pop\n      jump\t// out\n        /* \"#utility.yul\":11800:12219   */\n    tag_64:\n        /* \"#utility.yul\":11966:11970   */\n      0x00\n        /* \"#utility.yul\":12004:12006   */\n      0x20\n        /* \"#utility.yul\":11993:12002   */\n      dup3\n        /* \"#utility.yul\":11989:12007   */\n      add\n        /* \"#utility.yul\":11981:12007   */\n      swap1\n      pop\n        /* \"#utility.yul\":12053:12062   */\n      dup2\n        /* \"#utility.yul\":12047:12051   */\n      dup2\n        /* \"#utility.yul\":12043:12063   */\n      sub\n        /* \"#utility.yul\":12039:12040   */\n      0x00\n        /* \"#utility.yul\":12028:12037   */\n      dup4\n        /* \"#utility.yul\":12024:12041   */\n      add\n        /* \"#utility.yul\":12017:12064   */\n      mstore\n        /* \"#utility.yul\":12081:12212   */\n      tag_223\n        /* \"#utility.yul\":12207:12211   */\n      dup2\n        /* \"#utility.yul\":12081:12212   */\n      tag_115\n      jump\t// in\n    tag_223:\n        /* \"#utility.yul\":12073:12212   */\n      swap1\n      pop\n        /* \"#utility.yul\":11800:12219   */\n      swap2\n      swap1\n      pop\n      jump\t// out\n        /* \"#utility.yul\":12225:12397   */\n    tag_116:\n        /* \"#utility.yul\":12365:12389   */\n      0x496e73756666696369656e7420526563697069656e7400000000000000000000\n        /* \"#utility.yul\":12361:12362   */\n      0x00\n        /* \"#utility.yul\":12353:12359   */\n      dup3\n        /* \"#utility.yul\":12349:12363   */\n      add\n        /* \"#utility.yul\":12342:12390   */\n      mstore\n        /* \"#utility.yul\":12225:12397   */\n      pop\n      jump\t// out\n        /* \"#utility.yul\":12403:12769   */\n    tag_117:\n        /* \"#utility.yul\":12545:12548   */\n      0x00\n        /* \"#utility.yul\":12566:12633   */\n      tag_226\n        /* \"#utility.yul\":12630:12632   */\n      0x16\n        /* \"#utility.yul\":12625:12628   */\n      dup4\n        /* \"#utility.yul\":12566:12633   */\n      tag_97\n      jump\t// in\n    tag_226:\n        /* \"#utility.yul\":12559:12633   */\n      swap2\n      pop\n        /* \"#utility.yul\":12642:12735   */\n      tag_227\n        /* \"#utility.yul\":12731:12734   */\n      dup3\n        /* \"#utility.yul\":12642:12735   */\n      tag_116\n      jump\t// in\n    tag_227:\n        /* \"#utility.yul\":12760:12762   */\n      0x20\n        /* \"#utility.yul\":12755:12758   */\n      dup3\n        /* \"#utility.yul\":12751:12763   */\n      add\n        /* \"#utility.yul\":12744:12763   */\n      swap1\n      pop\n        /* \"#utility.yul\":12403:12769   */\n      swap2\n      swap1\n      pop\n      jump\t// out\n        /* \"#utility.yul\":12775:13194   */\n    tag_70:\n        /* \"#utility.yul\":12941:12945   */\n      0x00\n        /* \"#utility.yul\":12979:12981   */\n      0x20\n        /* \"#utility.yul\":12968:12977   */\n      dup3\n        /* \"#utility.yul\":12964:12982   */\n      add\n        /* \"#utility.yul\":12956:12982   */\n      swap1\n      pop\n        /* \"#utility.yul\":13028:13037   */\n      dup2\n        /* \"#utility.yul\":13022:13026   */\n      dup2\n        /* \"#utility.yul\":13018:13038   */\n      sub\n        /* \"#utility.yul\":13014:13015   */\n      0x00\n        /* \"#utility.yul\":13003:13012   */\n      dup4\n        /* \"#utility.yul\":12999:13016   */\n      add\n        /* \"#utility.yul\":12992:13039   */\n      mstore\n        /* \"#utility.yul\":13056:13187   */\n      tag_229\n        /* \"#utility.yul\":13182:13186   */\n      dup2\n        /* \"#utility.yul\":13056:13187   */\n      tag_117\n      jump\t// in\n    tag_229:\n        /* \"#utility.yul\":13048:13187   */\n      swap1\n      pop\n        /* \"#utility.yul\":12775:13194   */\n      swap2\n      swap1\n      pop\n      jump\t// out\n        /* \"#utility.yul\":13200:13366   */\n    tag_118:\n        /* \"#utility.yul\":13340:13358   */\n      0x4f7574476f696e67205472617366657200000000000000000000000000000000\n        /* \"#utility.yul\":13336:13337   */\n      0x00\n        /* \"#utility.yul\":13328:13334   */\n      dup3\n        /* \"#utility.yul\":13324:13338   */\n      add\n        /* \"#utility.yul\":13317:13359   */\n      mstore\n        /* \"#utility.yul\":13200:13366   */\n      pop\n      jump\t// out\n        /* \"#utility.yul\":13372:13738   */\n    tag_119:\n        /* \"#utility.yul\":13514:13517   */\n      0x00\n        /* \"#utility.yul\":13535:13602   */\n      tag_232\n        /* \"#utility.yul\":13599:13601   */\n      0x10\n        /* \"#utility.yul\":13594:13597   */\n      dup4\n        /* \"#utility.yul\":13535:13602   */\n      tag_97\n      jump\t// in\n    tag_232:\n        /* \"#utility.yul\":13528:13602   */\n      swap2\n      pop\n        /* \"#utility.yul\":13611:13704   */\n      tag_233\n        /* \"#utility.yul\":13700:13703   */\n      dup3\n        /* \"#utility.yul\":13611:13704   */\n      tag_118\n      jump\t// in\n    tag_233:\n        /* \"#utility.yul\":13729:13731   */\n      0x20\n        /* \"#utility.yul\":13724:13727   */\n      dup3\n        /* \"#utility.yul\":13720:13732   */\n      add\n        /* \"#utility.yul\":13713:13732   */\n      swap1\n      pop\n        /* \"#utility.yul\":13372:13738   */\n      swap2\n      swap1\n      pop\n      jump\t// out\n        /* \"#utility.yul\":13744:14273   */\n    tag_74:\n        /* \"#utility.yul\":13938:13942   */\n      0x00\n        /* \"#utility.yul\":13976:13978   */\n      0x40\n        /* \"#utility.yul\":13965:13974   */\n      dup3\n        /* \"#utility.yul\":13961:13979   */\n      add\n        /* \"#utility.yul\":13953:13979   */\n      swap1\n      pop\n        /* \"#utility.yul\":14025:14034   */\n      dup2\n        /* \"#utility.yul\":14019:14023   */\n      dup2\n        /* \"#utility.yul\":14015:14035   */\n      sub\n        /* \"#utility.yul\":14011:14012   */\n      0x00\n        /* \"#utility.yul\":14000:14009   */\n      dup4\n        /* \"#utility.yul\":13996:14013   */\n      add\n        /* \"#utility.yul\":13989:14036   */\n      mstore\n        /* \"#utility.yul\":14053:14184   */\n      tag_235\n        /* \"#utility.yul\":14179:14183   */\n      dup2\n        /* \"#utility.yul\":14053:14184   */\n      tag_119\n      jump\t// in\n    tag_235:\n        /* \"#utility.yul\":14045:14184   */\n      swap1\n      pop\n        /* \"#utility.yul\":14194:14266   */\n      tag_236\n        /* \"#utility.yul\":14262:14264   */\n      0x20\n        /* \"#utility.yul\":14251:14260   */\n      dup4\n        /* \"#utility.yul\":14247:14265   */\n      add\n        /* \"#utility.yul\":14238:14244   */\n      dup5\n        /* \"#utility.yul\":14194:14266   */\n      tag_87\n      jump\t// in\n    tag_236:\n        /* \"#utility.yul\":13744:14273   */\n      swap3\n      swap2\n      pop\n      pop\n      jump\t// out\n        /* \"#utility.yul\":14279:14436   */\n    tag_120:\n        /* \"#utility.yul\":14419:14428   */\n      0x4465706f73697400000000000000000000000000000000000000000000000000\n        /* \"#utility.yul\":14415:14416   */\n      0x00\n        /* \"#utility.yul\":14407:14413   */\n      dup3\n        /* \"#utility.yul\":14403:14417   */\n      add\n        /* \"#utility.yul\":14396:14429   */\n      mstore\n        /* \"#utility.yul\":14279:14436   */\n      pop\n      jump\t// out\n        /* \"#utility.yul\":14442:14807   */\n    tag_121:\n        /* \"#utility.yul\":14584:14587   */\n      0x00\n        /* \"#utility.yul\":14605:14671   */\n      tag_239\n        /* \"#utility.yul\":14669:14670   */\n      0x07\n        /* \"#utility.yul\":14664:14667   */\n      dup4\n        /* \"#utility.yul\":14605:14671   */\n      tag_97\n      jump\t// in\n    tag_239:\n        /* \"#utility.yul\":14598:14671   */\n      swap2\n      pop\n        /* \"#utility.yul\":14680:14773   */\n      tag_240\n        /* \"#utility.yul\":14769:14772   */\n      dup3\n        /* \"#utility.yul\":14680:14773   */\n      tag_120\n      jump\t// in\n    tag_240:\n        /* \"#utility.yul\":14798:14800   */\n      0x20\n        /* \"#utility.yul\":14793:14796   */\n      dup3\n        /* \"#utility.yul\":14789:14801   */\n      add\n        /* \"#utility.yul\":14782:14801   */\n      swap1\n      pop\n        /* \"#utility.yul\":14442:14807   */\n      swap2\n      swap1\n      pop\n      jump\t// out\n        /* \"#utility.yul\":14813:15342   */\n    tag_82:\n        /* \"#utility.yul\":15007:15011   */\n      0x00\n        /* \"#utility.yul\":15045:15047   */\n      0x40\n        /* \"#utility.yul\":15034:15043   */\n      dup3\n        /* \"#utility.yul\":15030:15048   */\n      add\n        /* \"#utility.yul\":15022:15048   */\n      swap1\n      pop\n        /* \"#utility.yul\":15094:15103   */\n      dup2\n        /* \"#utility.yul\":15088:15092   */\n      dup2\n        /* \"#utility.yul\":15084:15104   */\n      sub\n        /* \"#utility.yul\":15080:15081   */\n      0x00\n        /* \"#utility.yul\":15069:15078   */\n      dup4\n        /* \"#utility.yul\":15065:15082   */\n      add\n        /* \"#utility.yul\":15058:15105   */\n      mstore\n        /* \"#utility.yul\":15122:15253   */\n      tag_242\n        /* \"#utility.yul\":15248:15252   */\n      dup2\n        /* \"#utility.yul\":15122:15253   */\n      tag_121\n      jump\t// in\n    tag_242:\n        /* \"#utility.yul\":15114:15253   */\n      swap1\n      pop\n        /* \"#utility.yul\":15263:15335   */\n      tag_243\n        /* \"#utility.yul\":15331:15333   */\n      0x20\n        /* \"#utility.yul\":15320:15329   */\n      dup4\n        /* \"#utility.yul\":15316:15334   */\n      add\n        /* \"#utility.yul\":15307:15313   */\n      dup5\n        /* \"#utility.yul\":15263:15335   */\n      tag_87\n      jump\t// in\n    tag_243:\n        /* \"#utility.yul\":14813:15342   */\n      swap3\n      swap2\n      pop\n      pop\n      jump\t// out\n\n    auxdata: 0xa2646970667358221220c34a727e5a6def90c96c5d89651a4727f5c61de02a07856789327e793093f6cb64736f6c634300080f0033\n}\n",
				"bytecode": {
					"linkReferences": {},
					"object": "608060405234801561001057600080fd5b50336000806101000a81548173ffffffffffffffffffffffffffffffffffffffff021916908373ffffffffffffffffffffffffffffffffffffffff160217905550611246806100606000396000f3fe60806040526004361061004a5760003560e01c806312065fe01461004f57806323b872dd1461007a5780632e1a7d4d146100a3578063a9059cbb146100cc578063d0e30db0146100f5575b600080fd5b34801561005b57600080fd5b506100646100ff565b6040516100719190610ae9565b60405180910390f35b34801561008657600080fd5b506100a1600480360381019061009c9190610b93565b610146565b005b3480156100af57600080fd5b506100ca60048036038101906100c59190610be6565b610401565b005b3480156100d857600080fd5b506100f360048036038101906100ee9190610c13565b610639565b005b6100fd6108ac565b005b6000600160003373ffffffffffffffffffffffffffffffffffffffff1673ffffffffffffffffffffffffffffffffffffffff16815260200190815260200160002054905090565b80600160008573ffffffffffffffffffffffffffffffffffffffff1673ffffffffffffffffffffffffffffffffffffffff1681526020019081526020016000205410156101c8576040517f08c379a00000000000000000000000000000000000000000000000000000000081526004016101bf90610cb0565b60405180910390fd5b8173ffffffffffffffffffffffffffffffffffffffff168373ffffffffffffffffffffffffffffffffffffffff1603610236576040517f08c379a000000000000000000000000000000000000000000000000000000000815260040161022d90610d1c565b60405180910390fd5b80600160008573ffffffffffffffffffffffffffffffffffffffff1673ffffffffffffffffffffffffffffffffffffffff16815260200190815260200160002060008282546102859190610d6b565b9250508190555080600160008473ffffffffffffffffffffffffffffffffffffffff1673ffffffffffffffffffffffffffffffffffffffff16815260200190815260200160002060008282546102db9190610d9f565b925050819055508273ffffffffffffffffffffffffffffffffffffffff167f747fe8563263661fb53c6a99a1d6753bbcba100faa6979d07ead10fb9c84d050600160008673ffffffffffffffffffffffffffffffffffffffff1673ffffffffffffffffffffffffffffffffffffffff168152602001908152602001600020546040516103679190610e41565b60405180910390a28173ffffffffffffffffffffffffffffffffffffffff167f747fe8563263661fb53c6a99a1d6753bbcba100faa6979d07ead10fb9c84d050600160008573ffffffffffffffffffffffffffffffffffffffff1673ffffffffffffffffffffffffffffffffffffffff168152602001908152602001600020546040516103f49190610ebb565b60405180910390a2505050565b6000600160003373ffffffffffffffffffffffffffffffffffffffff1673ffffffffffffffffffffffffffffffffffffffff16815260200190815260200160002054905081600160003373ffffffffffffffffffffffffffffffffffffffff1673ffffffffffffffffffffffffffffffffffffffff16815260200190815260200160002060008282546104949190610d6b565b9250508190555060003373ffffffffffffffffffffffffffffffffffffffff16836040516104c190610f1a565b60006040518083038185875af1925050503d80600081146104fe576040519150601f19603f3d011682016040523d82523d6000602084013e610503565b606091505b5050905080610547576040517f08c379a000000000000000000000000000000000000000000000000000000000815260040161053e90610f7b565b60405180910390fd5b6000600160003373ffffffffffffffffffffffffffffffffffffffff1673ffffffffffffffffffffffffffffffffffffffff16815260200190815260200160002054905083836105979190610d6b565b81146105a6576105a5610f9b565b5b3373ffffffffffffffffffffffffffffffffffffffff167f747fe8563263661fb53c6a99a1d6753bbcba100faa6979d07ead10fb9c84d050600160003373ffffffffffffffffffffffffffffffffffffffff1673ffffffffffffffffffffffffffffffffffffffff1681526020019081526020016000205460405161062b9190611016565b60405180910390a250505050565b60008054906101000a900473ffffffffffffffffffffffffffffffffffffffff1673ffffffffffffffffffffffffffffffffffffffff163373ffffffffffffffffffffffffffffffffffffffff16146106c7576040517f08c379a00000000000000000000000000000000000000000000000000000000081526004016106be90611090565b60405180910390fd5b8080600160003373ffffffffffffffffffffffffffffffffffffffff1673ffffffffffffffffffffffffffffffffffffffff16815260200190815260200160002054101561071457600080fd5b8273ffffffffffffffffffffffffffffffffffffffff163373ffffffffffffffffffffffffffffffffffffffff1603610782576040517f08c379a0000000000000000000000000000000000000000000000000000000008152600401610779906110fc565b60405180910390fd5b61078d338484610a1f565b3373ffffffffffffffffffffffffffffffffffffffff167f747fe8563263661fb53c6a99a1d6753bbcba100faa6979d07ead10fb9c84d050600160003373ffffffffffffffffffffffffffffffffffffffff1673ffffffffffffffffffffffffffffffffffffffff168152602001908152602001600020546040516108129190611168565b60405180910390a28273ffffffffffffffffffffffffffffffffffffffff167f747fe8563263661fb53c6a99a1d6753bbcba100faa6979d07ead10fb9c84d050600160008673ffffffffffffffffffffffffffffffffffffffff1673ffffffffffffffffffffffffffffffffffffffff1681526020019081526020016000205460405161089f9190610ebb565b60405180910390a2505050565b60008054906101000a900473ffffffffffffffffffffffffffffffffffffffff1673ffffffffffffffffffffffffffffffffffffffff163373ffffffffffffffffffffffffffffffffffffffff161461093a576040517f08c379a000000000000000000000000000000000000000000000000000000000815260040161093190611090565b60405180910390fd5b34600160003373ffffffffffffffffffffffffffffffffffffffff1673ffffffffffffffffffffffffffffffffffffffff16815260200190815260200160002060008282546109899190610d9f565b925050819055503373ffffffffffffffffffffffffffffffffffffffff167f747fe8563263661fb53c6a99a1d6753bbcba100faa6979d07ead10fb9c84d050600160003373ffffffffffffffffffffffffffffffffffffffff1673ffffffffffffffffffffffffffffffffffffffff16815260200190815260200160002054604051610a1591906111e2565b60405180910390a2565b80600160008573ffffffffffffffffffffffffffffffffffffffff1673ffffffffffffffffffffffffffffffffffffffff1681526020019081526020016000206000828254610a6e9190610d6b565b9250508190555080600160008473ffffffffffffffffffffffffffffffffffffffff1673ffffffffffffffffffffffffffffffffffffffff1681526020019081526020016000206000828254610ac49190610d9f565b92505081905550505050565b6000819050919050565b610ae381610ad0565b82525050565b6000602082019050610afe6000830184610ada565b92915050565b600080fd5b600073ffffffffffffffffffffffffffffffffffffffff82169050919050565b6000610b3482610b09565b9050919050565b610b4481610b29565b8114610b4f57600080fd5b50565b600081359050610b6181610b3b565b92915050565b610b7081610ad0565b8114610b7b57600080fd5b50565b600081359050610b8d81610b67565b92915050565b600080600060608486031215610bac57610bab610b04565b5b6000610bba86828701610b52565b9350506020610bcb86828701610b52565b9250506040610bdc86828701610b7e565b9150509250925092565b600060208284031215610bfc57610bfb610b04565b5b6000610c0a84828501610b7e565b91505092915050565b60008060408385031215610c2a57610c29610b04565b5b6000610c3885828601610b52565b9250506020610c4985828601610b7e565b9150509250929050565b600082825260208201905092915050565b7f496e73756666696369656e742062616c616e6365000000000000000000000000600082015250565b6000610c9a601483610c53565b9150610ca582610c64565b602082019050919050565b60006020820190508181036000830152610cc981610c8d565b9050919050565b7f496e76616c696420526563657069656e74000000000000000000000000000000600082015250565b6000610d06601183610c53565b9150610d1182610cd0565b602082019050919050565b60006020820190508181036000830152610d3581610cf9565b9050919050565b7f4e487b7100000000000000000000000000000000000000000000000000000000600052601160045260246000fd5b6000610d7682610ad0565b9150610d8183610ad0565b925082821015610d9457610d93610d3c565b5b828203905092915050565b6000610daa82610ad0565b9150610db583610ad0565b9250827fffffffffffffffffffffffffffffffffffffffffffffffffffffffffffffffff03821115610dea57610de9610d3c565b5b828201905092915050565b7f4f7574476f696e67205472616e73666572000000000000000000000000000000600082015250565b6000610e2b601183610c53565b9150610e3682610df5565b602082019050919050565b60006040820190508181036000830152610e5a81610e1e565b9050610e696020830184610ada565b92915050565b7f496e436f6d696e67205472616e73666572000000000000000000000000000000600082015250565b6000610ea5601183610c53565b9150610eb082610e6f565b602082019050919050565b60006040820190508181036000830152610ed481610e98565b9050610ee36020830184610ada565b92915050565b600081905092915050565b50565b6000610f04600083610ee9565b9150610f0f82610ef4565b600082019050919050565b6000610f2582610ef7565b9150819050919050565b7f5472616e7366657220756e7375636365737366756c2121000000000000000000600082015250565b6000610f65601783610c53565b9150610f7082610f2f565b602082019050919050565b60006020820190508181036000830152610f9481610f58565b9050919050565b7f4e487b7100000000000000000000000000000000000000000000000000000000600052600160045260246000fd5b7f5769746864726177000000000000000000000000000000000000000000000000600082015250565b6000611000600883610c53565b915061100b82610fca565b602082019050919050565b6000604082019050818103600083015261102f81610ff3565b905061103e6020830184610ada565b92915050565b7f596f7520417265204e6f74204f776e6572000000000000000000000000000000600082015250565b600061107a601183610c53565b915061108582611044565b602082019050919050565b600060208201905081810360008301526110a98161106d565b9050919050565b7f496e73756666696369656e7420526563697069656e7400000000000000000000600082015250565b60006110e6601683610c53565b91506110f1826110b0565b602082019050919050565b60006020820190508181036000830152611115816110d9565b9050919050565b7f4f7574476f696e67205472617366657200000000000000000000000000000000600082015250565b6000611152601083610c53565b915061115d8261111c565b602082019050919050565b6000604082019050818103600083015261118181611145565b90506111906020830184610ada565b92915050565b7f4465706f73697400000000000000000000000000000000000000000000000000600082015250565b60006111cc600783610c53565b91506111d782611196565b602082019050919050565b600060408201905081810360008301526111fb816111bf565b905061120a6020830184610ada565b9291505056fea2646970667358221220c34a727e5a6def90c96c5d89651a4727f5c61de02a07856789327e793093f6cb64736f6c634300080f0033",
					"opcodes": "PUSH1 0x80 PUSH1 0x40 MSTORE CALLVALUE DUP1 ISZERO PUSH2 0x10 JUMPI PUSH1 0x0 DUP1 REVERT JUMPDEST POP CALLER PUSH1 0x0 DUP1 PUSH2 0x100 EXP DUP2 SLOAD DUP2 PUSH20 0xFFFFFFFFFFFFFFFFFFFFFFFFFFFFFFFFFFFFFFFF MUL NOT AND SWAP1 DUP4 PUSH20 0xFFFFFFFFFFFFFFFFFFFFFFFFFFFFFFFFFFFFFFFF AND MUL OR SWAP1 SSTORE POP PUSH2 0x1246 DUP1 PUSH2 0x60 PUSH1 0x0 CODECOPY PUSH1 0x0 RETURN INVALID PUSH1 0x80 PUSH1 0x40 MSTORE PUSH1 0x4 CALLDATASIZE LT PUSH2 0x4A JUMPI PUSH1 0x0 CALLDATALOAD PUSH1 0xE0 SHR DUP1 PUSH4 0x12065FE0 EQ PUSH2 0x4F JUMPI DUP1 PUSH4 0x23B872DD EQ PUSH2 0x7A JUMPI DUP1 PUSH4 0x2E1A7D4D EQ PUSH2 0xA3 JUMPI DUP1 PUSH4 0xA9059CBB EQ PUSH2 0xCC JUMPI DUP1 PUSH4 0xD0E30DB0 EQ PUSH2 0xF5 JUMPI JUMPDEST PUSH1 0x0 DUP1 REVERT JUMPDEST CALLVALUE DUP1 ISZERO PUSH2 0x5B JUMPI PUSH1 0x0 DUP1 REVERT JUMPDEST POP PUSH2 0x64 PUSH2 0xFF JUMP JUMPDEST PUSH1 0x40 MLOAD PUSH2 0x71 SWAP2 SWAP1 PUSH2 0xAE9 JUMP JUMPDEST PUSH1 0x40 MLOAD DUP1 SWAP2 SUB SWAP1 RETURN JUMPDEST CALLVALUE DUP1 ISZERO PUSH2 0x86 JUMPI PUSH1 0x0 DUP1 REVERT JUMPDEST POP PUSH2 0xA1 PUSH1 0x4 DUP1 CALLDATASIZE SUB DUP2 ADD SWAP1 PUSH2 0x9C SWAP2 SWAP1 PUSH2 0xB93 JUMP JUMPDEST PUSH2 0x146 JUMP JUMPDEST STOP JUMPDEST CALLVALUE DUP1 ISZERO PUSH2 0xAF JUMPI PUSH1 0x0 DUP1 REVERT JUMPDEST POP PUSH2 0xCA PUSH1 0x4 DUP1 CALLDATASIZE SUB DUP2 ADD SWAP1 PUSH2 0xC5 SWAP2 SWAP1 PUSH2 0xBE6 JUMP JUMPDEST PUSH2 0x401 JUMP JUMPDEST STOP JUMPDEST CALLVALUE DUP1 ISZERO PUSH2 0xD8 JUMPI PUSH1 0x0 DUP1 REVERT JUMPDEST POP PUSH2 0xF3 PUSH1 0x4 DUP1 CALLDATASIZE SUB DUP2 ADD SWAP1 PUSH2 0xEE SWAP2 SWAP1 PUSH2 0xC13 JUMP JUMPDEST PUSH2 0x639 JUMP JUMPDEST STOP JUMPDEST PUSH2 0xFD PUSH2 0x8AC JUMP JUMPDEST STOP JUMPDEST PUSH1 0x0 PUSH1 0x1 PUSH1 0x0 CALLER PUSH20 0xFFFFFFFFFFFFFFFFFFFFFFFFFFFFFFFFFFFFFFFF AND PUSH20 0xFFFFFFFFFFFFFFFFFFFFFFFFFFFFFFFFFFFFFFFF AND DUP2 MSTORE PUSH1 0x20 ADD SWAP1 DUP2 MSTORE PUSH1 0x20 ADD PUSH1 0x0 KECCAK256 SLOAD SWAP1 POP SWAP1 JUMP JUMPDEST DUP1 PUSH1 0x1 PUSH1 0x0 DUP6 PUSH20 0xFFFFFFFFFFFFFFFFFFFFFFFFFFFFFFFFFFFFFFFF AND PUSH20 0xFFFFFFFFFFFFFFFFFFFFFFFFFFFFFFFFFFFFFFFF AND DUP2 MSTORE PUSH1 0x20 ADD SWAP1 DUP2 MSTORE PUSH1 0x20 ADD PUSH1 0x0 KECCAK256 SLOAD LT ISZERO PUSH2 0x1C8 JUMPI PUSH1 0x40 MLOAD PUSH32 0x8C379A000000000000000000000000000000000000000000000000000000000 DUP2 MSTORE PUSH1 0x4 ADD PUSH2 0x1BF SWAP1 PUSH2 0xCB0 JUMP JUMPDEST PUSH1 0x40 MLOAD DUP1 SWAP2 SUB SWAP1 REVERT JUMPDEST DUP2 PUSH20 0xFFFFFFFFFFFFFFFFFFFFFFFFFFFFFFFFFFFFFFFF AND DUP4 PUSH20 0xFFFFFFFFFFFFFFFFFFFFFFFFFFFFFFFFFFFFFFFF AND SUB PUSH2 0x236 JUMPI PUSH1 0x40 MLOAD PUSH32 0x8C379A000000000000000000000000000000000000000000000000000000000 DUP2 MSTORE PUSH1 0x4 ADD PUSH2 0x22D SWAP1 PUSH2 0xD1C JUMP JUMPDEST PUSH1 0x40 MLOAD DUP1 SWAP2 SUB SWAP1 REVERT JUMPDEST DUP1 PUSH1 0x1 PUSH1 0x0 DUP6 PUSH20 0xFFFFFFFFFFFFFFFFFFFFFFFFFFFFFFFFFFFFFFFF AND PUSH20 0xFFFFFFFFFFFFFFFFFFFFFFFFFFFFFFFFFFFFFFFF AND DUP2 MSTORE PUSH1 0x20 ADD SWAP1 DUP2 MSTORE PUSH1 0x20 ADD PUSH1 0x0 KECCAK256 PUSH1 0x0 DUP3 DUP3 SLOAD PUSH2 0x285 SWAP2 SWAP1 PUSH2 0xD6B JUMP JUMPDEST SWAP3 POP POP DUP2 SWAP1 SSTORE POP DUP1 PUSH1 0x1 PUSH1 0x0 DUP5 PUSH20 0xFFFFFFFFFFFFFFFFFFFFFFFFFFFFFFFFFFFFFFFF AND PUSH20 0xFFFFFFFFFFFFFFFFFFFFFFFFFFFFFFFFFFFFFFFF AND DUP2 MSTORE PUSH1 0x20 ADD SWAP1 DUP2 MSTORE PUSH1 0x20 ADD PUSH1 0x0 KECCAK256 PUSH1 0x0 DUP3 DUP3 SLOAD PUSH2 0x2DB SWAP2 SWAP1 PUSH2 0xD9F JUMP JUMPDEST SWAP3 POP POP DUP2 SWAP1 SSTORE POP DUP3 PUSH20 0xFFFFFFFFFFFFFFFFFFFFFFFFFFFFFFFFFFFFFFFF AND PUSH32 0x747FE8563263661FB53C6A99A1D6753BBCBA100FAA6979D07EAD10FB9C84D050 PUSH1 0x1 PUSH1 0x0 DUP7 PUSH20 0xFFFFFFFFFFFFFFFFFFFFFFFFFFFFFFFFFFFFFFFF AND PUSH20 0xFFFFFFFFFFFFFFFFFFFFFFFFFFFFFFFFFFFFFFFF AND DUP2 MSTORE PUSH1 0x20 ADD SWAP1 DUP2 MSTORE PUSH1 0x20 ADD PUSH1 0x0 KECCAK256 SLOAD PUSH1 0x40 MLOAD PUSH2 0x367 SWAP2 SWAP1 PUSH2 0xE41 JUMP JUMPDEST PUSH1 0x40 MLOAD DUP1 SWAP2 SUB SWAP1 LOG2 DUP2 PUSH20 0xFFFFFFFFFFFFFFFFFFFFFFFFFFFFFFFFFFFFFFFF AND PUSH32 0x747FE8563263661FB53C6A99A1D6753BBCBA100FAA6979D07EAD10FB9C84D050 PUSH1 0x1 PUSH1 0x0 DUP6 PUSH20 0xFFFFFFFFFFFFFFFFFFFFFFFFFFFFFFFFFFFFFFFF AND PUSH20 0xFFFFFFFFFFFFFFFFFFFFFFFFFFFFFFFFFFFFFFFF AND DUP2 MSTORE PUSH1 0x20 ADD SWAP1 DUP2 MSTORE PUSH1 0x20 ADD PUSH1 0x0 KECCAK256 SLOAD PUSH1 0x40 MLOAD PUSH2 0x3F4 SWAP2 SWAP1 PUSH2 0xEBB JUMP JUMPDEST PUSH1 0x40 MLOAD DUP1 SWAP2 SUB SWAP1 LOG2 POP POP POP JUMP JUMPDEST PUSH1 0x0 PUSH1 0x1 PUSH1 0x0 CALLER PUSH20 0xFFFFFFFFFFFFFFFFFFFFFFFFFFFFFFFFFFFFFFFF AND PUSH20 0xFFFFFFFFFFFFFFFFFFFFFFFFFFFFFFFFFFFFFFFF AND DUP2 MSTORE PUSH1 0x20 ADD SWAP1 DUP2 MSTORE PUSH1 0x20 ADD PUSH1 0x0 KECCAK256 SLOAD SWAP1 POP DUP2 PUSH1 0x1 PUSH1 0x0 CALLER PUSH20 0xFFFFFFFFFFFFFFFFFFFFFFFFFFFFFFFFFFFFFFFF AND PUSH20 0xFFFFFFFFFFFFFFFFFFFFFFFFFFFFFFFFFFFFFFFF AND DUP2 MSTORE PUSH1 0x20 ADD SWAP1 DUP2 MSTORE PUSH1 0x20 ADD PUSH1 0x0 KECCAK256 PUSH1 0x0 DUP3 DUP3 SLOAD PUSH2 0x494 SWAP2 SWAP1 PUSH2 0xD6B JUMP JUMPDEST SWAP3 POP POP DUP2 SWAP1 SSTORE POP PUSH1 0x0 CALLER PUSH20 0xFFFFFFFFFFFFFFFFFFFFFFFFFFFFFFFFFFFFFFFF AND DUP4 PUSH1 0x40 MLOAD PUSH2 0x4C1 SWAP1 PUSH2 0xF1A JUMP JUMPDEST PUSH1 0x0 PUSH1 0x40 MLOAD DUP1 DUP4 SUB DUP2 DUP6 DUP8 GAS CALL SWAP3 POP POP POP RETURNDATASIZE DUP1 PUSH1 0x0 DUP2 EQ PUSH2 0x4FE JUMPI PUSH1 0x40 MLOAD SWAP2 POP PUSH1 0x1F NOT PUSH1 0x3F RETURNDATASIZE ADD AND DUP3 ADD PUSH1 0x40 MSTORE RETURNDATASIZE DUP3 MSTORE RETURNDATASIZE PUSH1 0x0 PUSH1 0x20 DUP5 ADD RETURNDATACOPY PUSH2 0x503 JUMP JUMPDEST PUSH1 0x60 SWAP2 POP JUMPDEST POP POP SWAP1 POP DUP1 PUSH2 0x547 JUMPI PUSH1 0x40 MLOAD PUSH32 0x8C379A000000000000000000000000000000000000000000000000000000000 DUP2 MSTORE PUSH1 0x4 ADD PUSH2 0x53E SWAP1 PUSH2 0xF7B JUMP JUMPDEST PUSH1 0x40 MLOAD DUP1 SWAP2 SUB SWAP1 REVERT JUMPDEST PUSH1 0x0 PUSH1 0x1 PUSH1 0x0 CALLER PUSH20 0xFFFFFFFFFFFFFFFFFFFFFFFFFFFFFFFFFFFFFFFF AND PUSH20 0xFFFFFFFFFFFFFFFFFFFFFFFFFFFFFFFFFFFFFFFF AND DUP2 MSTORE PUSH1 0x20 ADD SWAP1 DUP2 MSTORE PUSH1 0x20 ADD PUSH1 0x0 KECCAK256 SLOAD SWAP1 POP DUP4 DUP4 PUSH2 0x597 SWAP2 SWAP1 PUSH2 0xD6B JUMP JUMPDEST DUP2 EQ PUSH2 0x5A6 JUMPI PUSH2 0x5A5 PUSH2 0xF9B JUMP JUMPDEST JUMPDEST CALLER PUSH20 0xFFFFFFFFFFFFFFFFFFFFFFFFFFFFFFFFFFFFFFFF AND PUSH32 0x747FE8563263661FB53C6A99A1D6753BBCBA100FAA6979D07EAD10FB9C84D050 PUSH1 0x1 PUSH1 0x0 CALLER PUSH20 0xFFFFFFFFFFFFFFFFFFFFFFFFFFFFFFFFFFFFFFFF AND PUSH20 0xFFFFFFFFFFFFFFFFFFFFFFFFFFFFFFFFFFFFFFFF AND DUP2 MSTORE PUSH1 0x20 ADD SWAP1 DUP2 MSTORE PUSH1 0x20 ADD PUSH1 0x0 KECCAK256 SLOAD PUSH1 0x40 MLOAD PUSH2 0x62B SWAP2 SWAP1 PUSH2 0x1016 JUMP JUMPDEST PUSH1 0x40 MLOAD DUP1 SWAP2 SUB SWAP1 LOG2 POP POP POP POP JUMP JUMPDEST PUSH1 0x0 DUP1 SLOAD SWAP1 PUSH2 0x100 EXP SWAP1 DIV PUSH20 0xFFFFFFFFFFFFFFFFFFFFFFFFFFFFFFFFFFFFFFFF AND PUSH20 0xFFFFFFFFFFFFFFFFFFFFFFFFFFFFFFFFFFFFFFFF AND CALLER PUSH20 0xFFFFFFFFFFFFFFFFFFFFFFFFFFFFFFFFFFFFFFFF AND EQ PUSH2 0x6C7 JUMPI PUSH1 0x40 MLOAD PUSH32 0x8C379A000000000000000000000000000000000000000000000000000000000 DUP2 MSTORE PUSH1 0x4 ADD PUSH2 0x6BE SWAP1 PUSH2 0x1090 JUMP JUMPDEST PUSH1 0x40 MLOAD DUP1 SWAP2 SUB SWAP1 REVERT JUMPDEST DUP1 DUP1 PUSH1 0x1 PUSH1 0x0 CALLER PUSH20 0xFFFFFFFFFFFFFFFFFFFFFFFFFFFFFFFFFFFFFFFF AND PUSH20 0xFFFFFFFFFFFFFFFFFFFFFFFFFFFFFFFFFFFFFFFF AND DUP2 MSTORE PUSH1 0x20 ADD SWAP1 DUP2 MSTORE PUSH1 0x20 ADD PUSH1 0x0 KECCAK256 SLOAD LT ISZERO PUSH2 0x714 JUMPI PUSH1 0x0 DUP1 REVERT JUMPDEST DUP3 PUSH20 0xFFFFFFFFFFFFFFFFFFFFFFFFFFFFFFFFFFFFFFFF AND CALLER PUSH20 0xFFFFFFFFFFFFFFFFFFFFFFFFFFFFFFFFFFFFFFFF AND SUB PUSH2 0x782 JUMPI PUSH1 0x40 MLOAD PUSH32 0x8C379A000000000000000000000000000000000000000000000000000000000 DUP2 MSTORE PUSH1 0x4 ADD PUSH2 0x779 SWAP1 PUSH2 0x10FC JUMP JUMPDEST PUSH1 0x40 MLOAD DUP1 SWAP2 SUB SWAP1 REVERT JUMPDEST PUSH2 0x78D CALLER DUP5 DUP5 PUSH2 0xA1F JUMP JUMPDEST CALLER PUSH20 0xFFFFFFFFFFFFFFFFFFFFFFFFFFFFFFFFFFFFFFFF AND PUSH32 0x747FE8563263661FB53C6A99A1D6753BBCBA100FAA6979D07EAD10FB9C84D050 PUSH1 0x1 PUSH1 0x0 CALLER PUSH20 0xFFFFFFFFFFFFFFFFFFFFFFFFFFFFFFFFFFFFFFFF AND PUSH20 0xFFFFFFFFFFFFFFFFFFFFFFFFFFFFFFFFFFFFFFFF AND DUP2 MSTORE PUSH1 0x20 ADD SWAP1 DUP2 MSTORE PUSH1 0x20 ADD PUSH1 0x0 KECCAK256 SLOAD PUSH1 0x40 MLOAD PUSH2 0x812 SWAP2 SWAP1 PUSH2 0x1168 JUMP JUMPDEST PUSH1 0x40 MLOAD DUP1 SWAP2 SUB SWAP1 LOG2 DUP3 PUSH20 0xFFFFFFFFFFFFFFFFFFFFFFFFFFFFFFFFFFFFFFFF AND PUSH32 0x747FE8563263661FB53C6A99A1D6753BBCBA100FAA6979D07EAD10FB9C84D050 PUSH1 0x1 PUSH1 0x0 DUP7 PUSH20 0xFFFFFFFFFFFFFFFFFFFFFFFFFFFFFFFFFFFFFFFF AND PUSH20 0xFFFFFFFFFFFFFFFFFFFFFFFFFFFFFFFFFFFFFFFF AND DUP2 MSTORE PUSH1 0x20 ADD SWAP1 DUP2 MSTORE PUSH1 0x20 ADD PUSH1 0x0 KECCAK256 SLOAD PUSH1 0x40 MLOAD PUSH2 0x89F SWAP2 SWAP1 PUSH2 0xEBB JUMP JUMPDEST PUSH1 0x40 MLOAD DUP1 SWAP2 SUB SWAP1 LOG2 POP POP POP JUMP JUMPDEST PUSH1 0x0 DUP1 SLOAD SWAP1 PUSH2 0x100 EXP SWAP1 DIV PUSH20 0xFFFFFFFFFFFFFFFFFFFFFFFFFFFFFFFFFFFFFFFF AND PUSH20 0xFFFFFFFFFFFFFFFFFFFFFFFFFFFFFFFFFFFFFFFF AND CALLER PUSH20 0xFFFFFFFFFFFFFFFFFFFFFFFFFFFFFFFFFFFFFFFF AND EQ PUSH2 0x93A JUMPI PUSH1 0x40 MLOAD PUSH32 0x8C379A000000000000000000000000000000000000000000000000000000000 DUP2 MSTORE PUSH1 0x4 ADD PUSH2 0x931 SWAP1 PUSH2 0x1090 JUMP JUMPDEST PUSH1 0x40 MLOAD DUP1 SWAP2 SUB SWAP1 REVERT JUMPDEST CALLVALUE PUSH1 0x1 PUSH1 0x0 CALLER PUSH20 0xFFFFFFFFFFFFFFFFFFFFFFFFFFFFFFFFFFFFFFFF AND PUSH20 0xFFFFFFFFFFFFFFFFFFFFFFFFFFFFFFFFFFFFFFFF AND DUP2 MSTORE PUSH1 0x20 ADD SWAP1 DUP2 MSTORE PUSH1 0x20 ADD PUSH1 0x0 KECCAK256 PUSH1 0x0 DUP3 DUP3 SLOAD PUSH2 0x989 SWAP2 SWAP1 PUSH2 0xD9F JUMP JUMPDEST SWAP3 POP POP DUP2 SWAP1 SSTORE POP CALLER PUSH20 0xFFFFFFFFFFFFFFFFFFFFFFFFFFFFFFFFFFFFFFFF AND PUSH32 0x747FE8563263661FB53C6A99A1D6753BBCBA100FAA6979D07EAD10FB9C84D050 PUSH1 0x1 PUSH1 0x0 CALLER PUSH20 0xFFFFFFFFFFFFFFFFFFFFFFFFFFFFFFFFFFFFFFFF AND PUSH20 0xFFFFFFFFFFFFFFFFFFFFFFFFFFFFFFFFFFFFFFFF AND DUP2 MSTORE PUSH1 0x20 ADD SWAP1 DUP2 MSTORE PUSH1 0x20 ADD PUSH1 0x0 KECCAK256 SLOAD PUSH1 0x40 MLOAD PUSH2 0xA15 SWAP2 SWAP1 PUSH2 0x11E2 JUMP JUMPDEST PUSH1 0x40 MLOAD DUP1 SWAP2 SUB SWAP1 LOG2 JUMP JUMPDEST DUP1 PUSH1 0x1 PUSH1 0x0 DUP6 PUSH20 0xFFFFFFFFFFFFFFFFFFFFFFFFFFFFFFFFFFFFFFFF AND PUSH20 0xFFFFFFFFFFFFFFFFFFFFFFFFFFFFFFFFFFFFFFFF AND DUP2 MSTORE PUSH1 0x20 ADD SWAP1 DUP2 MSTORE PUSH1 0x20 ADD PUSH1 0x0 KECCAK256 PUSH1 0x0 DUP3 DUP3 SLOAD PUSH2 0xA6E SWAP2 SWAP1 PUSH2 0xD6B JUMP JUMPDEST SWAP3 POP POP DUP2 SWAP1 SSTORE POP DUP1 PUSH1 0x1 PUSH1 0x0 DUP5 PUSH20 0xFFFFFFFFFFFFFFFFFFFFFFFFFFFFFFFFFFFFFFFF AND PUSH20 0xFFFFFFFFFFFFFFFFFFFFFFFFFFFFFFFFFFFFFFFF AND DUP2 MSTORE PUSH1 0x20 ADD SWAP1 DUP2 MSTORE PUSH1 0x20 ADD PUSH1 0x0 KECCAK256 PUSH1 0x0 DUP3 DUP3 SLOAD PUSH2 0xAC4 SWAP2 SWAP1 PUSH2 0xD9F JUMP JUMPDEST SWAP3 POP POP DUP2 SWAP1 SSTORE POP POP POP POP JUMP JUMPDEST PUSH1 0x0 DUP2 SWAP1 POP SWAP2 SWAP1 POP JUMP JUMPDEST PUSH2 0xAE3 DUP2 PUSH2 0xAD0 JUMP JUMPDEST DUP3 MSTORE POP POP JUMP JUMPDEST PUSH1 0x0 PUSH1 0x20 DUP3 ADD SWAP1 POP PUSH2 0xAFE PUSH1 0x0 DUP4 ADD DUP5 PUSH2 0xADA JUMP JUMPDEST SWAP3 SWAP2 POP POP JUMP JUMPDEST PUSH1 0x0 DUP1 REVERT JUMPDEST PUSH1 0x0 PUSH20 0xFFFFFFFFFFFFFFFFFFFFFFFFFFFFFFFFFFFFFFFF DUP3 AND SWAP1 POP SWAP2 SWAP1 POP JUMP JUMPDEST PUSH1 0x0 PUSH2 0xB34 DUP3 PUSH2 0xB09 JUMP JUMPDEST SWAP1 POP SWAP2 SWAP1 POP JUMP JUMPDEST PUSH2 0xB44 DUP2 PUSH2 0xB29 JUMP JUMPDEST DUP2 EQ PUSH2 0xB4F JUMPI PUSH1 0x0 DUP1 REVERT JUMPDEST POP JUMP JUMPDEST PUSH1 0x0 DUP2 CALLDATALOAD SWAP1 POP PUSH2 0xB61 DUP2 PUSH2 0xB3B JUMP JUMPDEST SWAP3 SWAP2 POP POP JUMP JUMPDEST PUSH2 0xB70 DUP2 PUSH2 0xAD0 JUMP JUMPDEST DUP2 EQ PUSH2 0xB7B JUMPI PUSH1 0x0 DUP1 REVERT JUMPDEST POP JUMP JUMPDEST PUSH1 0x0 DUP2 CALLDATALOAD SWAP1 POP PUSH2 0xB8D DUP2 PUSH2 0xB67 JUMP JUMPDEST SWAP3 SWAP2 POP POP JUMP JUMPDEST PUSH1 0x0 DUP1 PUSH1 0x0 PUSH1 0x60 DUP5 DUP7 SUB SLT ISZERO PUSH2 0xBAC JUMPI PUSH2 0xBAB PUSH2 0xB04 JUMP JUMPDEST JUMPDEST PUSH1 0x0 PUSH2 0xBBA DUP7 DUP3 DUP8 ADD PUSH2 0xB52 JUMP JUMPDEST SWAP4 POP POP PUSH1 0x20 PUSH2 0xBCB DUP7 DUP3 DUP8 ADD PUSH2 0xB52 JUMP JUMPDEST SWAP3 POP POP PUSH1 0x40 PUSH2 0xBDC DUP7 DUP3 DUP8 ADD PUSH2 0xB7E JUMP JUMPDEST SWAP2 POP POP SWAP3 POP SWAP3 POP SWAP3 JUMP JUMPDEST PUSH1 0x0 PUSH1 0x20 DUP3 DUP5 SUB SLT ISZERO PUSH2 0xBFC JUMPI PUSH2 0xBFB PUSH2 0xB04 JUMP JUMPDEST JUMPDEST PUSH1 0x0 PUSH2 0xC0A DUP5 DUP3 DUP6 ADD PUSH2 0xB7E JUMP JUMPDEST SWAP2 POP POP SWAP3 SWAP2 POP POP JUMP JUMPDEST PUSH1 0x0 DUP1 PUSH1 0x40 DUP4 DUP6 SUB SLT ISZERO PUSH2 0xC2A JUMPI PUSH2 0xC29 PUSH2 0xB04 JUMP JUMPDEST JUMPDEST PUSH1 0x0 PUSH2 0xC38 DUP6 DUP3 DUP7 ADD PUSH2 0xB52 JUMP JUMPDEST SWAP3 POP POP PUSH1 0x20 PUSH2 0xC49 DUP6 DUP3 DUP7 ADD PUSH2 0xB7E JUMP JUMPDEST SWAP2 POP POP SWAP3 POP SWAP3 SWAP1 POP JUMP JUMPDEST PUSH1 0x0 DUP3 DUP3 MSTORE PUSH1 0x20 DUP3 ADD SWAP1 POP SWAP3 SWAP2 POP POP JUMP JUMPDEST PUSH32 0x496E73756666696369656E742062616C616E6365000000000000000000000000 PUSH1 0x0 DUP3 ADD MSTORE POP JUMP JUMPDEST PUSH1 0x0 PUSH2 0xC9A PUSH1 0x14 DUP4 PUSH2 0xC53 JUMP JUMPDEST SWAP2 POP PUSH2 0xCA5 DUP3 PUSH2 0xC64 JUMP JUMPDEST PUSH1 0x20 DUP3 ADD SWAP1 POP SWAP2 SWAP1 POP JUMP JUMPDEST PUSH1 0x0 PUSH1 0x20 DUP3 ADD SWAP1 POP DUP2 DUP2 SUB PUSH1 0x0 DUP4 ADD MSTORE PUSH2 0xCC9 DUP2 PUSH2 0xC8D JUMP JUMPDEST SWAP1 POP SWAP2 SWAP1 POP JUMP JUMPDEST PUSH32 0x496E76616C696420526563657069656E74000000000000000000000000000000 PUSH1 0x0 DUP3 ADD MSTORE POP JUMP JUMPDEST PUSH1 0x0 PUSH2 0xD06 PUSH1 0x11 DUP4 PUSH2 0xC53 JUMP JUMPDEST SWAP2 POP PUSH2 0xD11 DUP3 PUSH2 0xCD0 JUMP JUMPDEST PUSH1 0x20 DUP3 ADD SWAP1 POP SWAP2 SWAP1 POP JUMP JUMPDEST PUSH1 0x0 PUSH1 0x20 DUP3 ADD SWAP1 POP DUP2 DUP2 SUB PUSH1 0x0 DUP4 ADD MSTORE PUSH2 0xD35 DUP2 PUSH2 0xCF9 JUMP JUMPDEST SWAP1 POP SWAP2 SWAP1 POP JUMP JUMPDEST PUSH32 0x4E487B7100000000000000000000000000000000000000000000000000000000 PUSH1 0x0 MSTORE PUSH1 0x11 PUSH1 0x4 MSTORE PUSH1 0x24 PUSH1 0x0 REVERT JUMPDEST PUSH1 0x0 PUSH2 0xD76 DUP3 PUSH2 0xAD0 JUMP JUMPDEST SWAP2 POP PUSH2 0xD81 DUP4 PUSH2 0xAD0 JUMP JUMPDEST SWAP3 POP DUP3 DUP3 LT ISZERO PUSH2 0xD94 JUMPI PUSH2 0xD93 PUSH2 0xD3C JUMP JUMPDEST JUMPDEST DUP3 DUP3 SUB SWAP1 POP SWAP3 SWAP2 POP POP JUMP JUMPDEST PUSH1 0x0 PUSH2 0xDAA DUP3 PUSH2 0xAD0 JUMP JUMPDEST SWAP2 POP PUSH2 0xDB5 DUP4 PUSH2 0xAD0 JUMP JUMPDEST SWAP3 POP DUP3 PUSH32 0xFFFFFFFFFFFFFFFFFFFFFFFFFFFFFFFFFFFFFFFFFFFFFFFFFFFFFFFFFFFFFFFF SUB DUP3 GT ISZERO PUSH2 0xDEA JUMPI PUSH2 0xDE9 PUSH2 0xD3C JUMP JUMPDEST JUMPDEST DUP3 DUP3 ADD SWAP1 POP SWAP3 SWAP2 POP POP JUMP JUMPDEST PUSH32 0x4F7574476F696E67205472616E73666572000000000000000000000000000000 PUSH1 0x0 DUP3 ADD MSTORE POP JUMP JUMPDEST PUSH1 0x0 PUSH2 0xE2B PUSH1 0x11 DUP4 PUSH2 0xC53 JUMP JUMPDEST SWAP2 POP PUSH2 0xE36 DUP3 PUSH2 0xDF5 JUMP JUMPDEST PUSH1 0x20 DUP3 ADD SWAP1 POP SWAP2 SWAP1 POP JUMP JUMPDEST PUSH1 0x0 PUSH1 0x40 DUP3 ADD SWAP1 POP DUP2 DUP2 SUB PUSH1 0x0 DUP4 ADD MSTORE PUSH2 0xE5A DUP2 PUSH2 0xE1E JUMP JUMPDEST SWAP1 POP PUSH2 0xE69 PUSH1 0x20 DUP4 ADD DUP5 PUSH2 0xADA JUMP JUMPDEST SWAP3 SWAP2 POP POP JUMP JUMPDEST PUSH32 0x496E436F6D696E67205472616E73666572000000000000000000000000000000 PUSH1 0x0 DUP3 ADD MSTORE POP JUMP JUMPDEST PUSH1 0x0 PUSH2 0xEA5 PUSH1 0x11 DUP4 PUSH2 0xC53 JUMP JUMPDEST SWAP2 POP PUSH2 0xEB0 DUP3 PUSH2 0xE6F JUMP JUMPDEST PUSH1 0x20 DUP3 ADD SWAP1 POP SWAP2 SWAP1 POP JUMP JUMPDEST PUSH1 0x0 PUSH1 0x40 DUP3 ADD SWAP1 POP DUP2 DUP2 SUB PUSH1 0x0 DUP4 ADD MSTORE PUSH2 0xED4 DUP2 PUSH2 0xE98 JUMP JUMPDEST SWAP1 POP PUSH2 0xEE3 PUSH1 0x20 DUP4 ADD DUP5 PUSH2 0xADA JUMP JUMPDEST SWAP3 SWAP2 POP POP JUMP JUMPDEST PUSH1 0x0 DUP2 SWAP1 POP SWAP3 SWAP2 POP POP JUMP JUMPDEST POP JUMP JUMPDEST PUSH1 0x0 PUSH2 0xF04 PUSH1 0x0 DUP4 PUSH2 0xEE9 JUMP JUMPDEST SWAP2 POP PUSH2 0xF0F DUP3 PUSH2 0xEF4 JUMP JUMPDEST PUSH1 0x0 DUP3 ADD SWAP1 POP SWAP2 SWAP1 POP JUMP JUMPDEST PUSH1 0x0 PUSH2 0xF25 DUP3 PUSH2 0xEF7 JUMP JUMPDEST SWAP2 POP DUP2 SWAP1 POP SWAP2 SWAP1 POP JUMP JUMPDEST PUSH32 0x5472616E7366657220756E7375636365737366756C2121000000000000000000 PUSH1 0x0 DUP3 ADD MSTORE POP JUMP JUMPDEST PUSH1 0x0 PUSH2 0xF65 PUSH1 0x17 DUP4 PUSH2 0xC53 JUMP JUMPDEST SWAP2 POP PUSH2 0xF70 DUP3 PUSH2 0xF2F JUMP JUMPDEST PUSH1 0x20 DUP3 ADD SWAP1 POP SWAP2 SWAP1 POP JUMP JUMPDEST PUSH1 0x0 PUSH1 0x20 DUP3 ADD SWAP1 POP DUP2 DUP2 SUB PUSH1 0x0 DUP4 ADD MSTORE PUSH2 0xF94 DUP2 PUSH2 0xF58 JUMP JUMPDEST SWAP1 POP SWAP2 SWAP1 POP JUMP JUMPDEST PUSH32 0x4E487B7100000000000000000000000000000000000000000000000000000000 PUSH1 0x0 MSTORE PUSH1 0x1 PUSH1 0x4 MSTORE PUSH1 0x24 PUSH1 0x0 REVERT JUMPDEST PUSH32 0x5769746864726177000000000000000000000000000000000000000000000000 PUSH1 0x0 DUP3 ADD MSTORE POP JUMP JUMPDEST PUSH1 0x0 PUSH2 0x1000 PUSH1 0x8 DUP4 PUSH2 0xC53 JUMP JUMPDEST SWAP2 POP PUSH2 0x100B DUP3 PUSH2 0xFCA JUMP JUMPDEST PUSH1 0x20 DUP3 ADD SWAP1 POP SWAP2 SWAP1 POP JUMP JUMPDEST PUSH1 0x0 PUSH1 0x40 DUP3 ADD SWAP1 POP DUP2 DUP2 SUB PUSH1 0x0 DUP4 ADD MSTORE PUSH2 0x102F DUP2 PUSH2 0xFF3 JUMP JUMPDEST SWAP1 POP PUSH2 0x103E PUSH1 0x20 DUP4 ADD DUP5 PUSH2 0xADA JUMP JUMPDEST SWAP3 SWAP2 POP POP JUMP JUMPDEST PUSH32 0x596F7520417265204E6F74204F776E6572000000000000000000000000000000 PUSH1 0x0 DUP3 ADD MSTORE POP JUMP JUMPDEST PUSH1 0x0 PUSH2 0x107A PUSH1 0x11 DUP4 PUSH2 0xC53 JUMP JUMPDEST SWAP2 POP PUSH2 0x1085 DUP3 PUSH2 0x1044 JUMP JUMPDEST PUSH1 0x20 DUP3 ADD SWAP1 POP SWAP2 SWAP1 POP JUMP JUMPDEST PUSH1 0x0 PUSH1 0x20 DUP3 ADD SWAP1 POP DUP2 DUP2 SUB PUSH1 0x0 DUP4 ADD MSTORE PUSH2 0x10A9 DUP2 PUSH2 0x106D JUMP JUMPDEST SWAP1 POP SWAP2 SWAP1 POP JUMP JUMPDEST PUSH32 0x496E73756666696369656E7420526563697069656E7400000000000000000000 PUSH1 0x0 DUP3 ADD MSTORE POP JUMP JUMPDEST PUSH1 0x0 PUSH2 0x10E6 PUSH1 0x16 DUP4 PUSH2 0xC53 JUMP JUMPDEST SWAP2 POP PUSH2 0x10F1 DUP3 PUSH2 0x10B0 JUMP JUMPDEST PUSH1 0x20 DUP3 ADD SWAP1 POP SWAP2 SWAP1 POP JUMP JUMPDEST PUSH1 0x0 PUSH1 0x20 DUP3 ADD SWAP1 POP DUP2 DUP2 SUB PUSH1 0x0 DUP4 ADD MSTORE PUSH2 0x1115 DUP2 PUSH2 0x10D9 JUMP JUMPDEST SWAP1 POP SWAP2 SWAP1 POP JUMP JUMPDEST PUSH32 0x4F7574476F696E67205472617366657200000000000000000000000000000000 PUSH1 0x0 DUP3 ADD MSTORE POP JUMP JUMPDEST PUSH1 0x0 PUSH2 0x1152 PUSH1 0x10 DUP4 PUSH2 0xC53 JUMP JUMPDEST SWAP2 POP PUSH2 0x115D DUP3 PUSH2 0x111C JUMP JUMPDEST PUSH1 0x20 DUP3 ADD SWAP1 POP SWAP2 SWAP1 POP JUMP JUMPDEST PUSH1 0x0 PUSH1 0x40 DUP3 ADD SWAP1 POP DUP2 DUP2 SUB PUSH1 0x0 DUP4 ADD MSTORE PUSH2 0x1181 DUP2 PUSH2 0x1145 JUMP JUMPDEST SWAP1 POP PUSH2 0x1190 PUSH1 0x20 DUP4 ADD DUP5 PUSH2 0xADA JUMP JUMPDEST SWAP3 SWAP2 POP POP JUMP JUMPDEST PUSH32 0x4465706F73697400000000000000000000000000000000000000000000000000 PUSH1 0x0 DUP3 ADD MSTORE POP JUMP JUMPDEST PUSH1 0x0 PUSH2 0x11CC PUSH1 0x7 DUP4 PUSH2 0xC53 JUMP JUMPDEST SWAP2 POP PUSH2 0x11D7 DUP3 PUSH2 0x1196 JUMP JUMPDEST PUSH1 0x20 DUP3 ADD SWAP1 POP SWAP2 SWAP1 POP JUMP JUMPDEST PUSH1 0x0 PUSH1 0x40 DUP3 ADD SWAP1 POP DUP2 DUP2 SUB PUSH1 0x0 DUP4 ADD MSTORE PUSH2 0x11FB DUP2 PUSH2 0x11BF JUMP JUMPDEST SWAP1 POP PUSH2 0x120A PUSH1 0x20 DUP4 ADD DUP5 PUSH2 0xADA JUMP JUMPDEST SWAP3 SWAP2 POP POP JUMP INVALID LOG2 PUSH5 0x6970667358 0x22 SLT KECCAK256 0xC3 0x4A PUSH19 0x7E5A6DEF90C96C5D89651A4727F5C61DE02A07 DUP6 PUSH8 0x89327E793093F6CB PUSH5 0x736F6C6343 STOP ADDMOD 0xF STOP CALLER "
				},
				"gasEstimates": {
					"creation": {
						"codeDepositCost": "935600",
						"executionCost": "25241",
						"totalCost": "960841"
					},
					"external": {
						"deposit()": "infinite",
						"getBalance()": "2504",
						"transfer(address,uint256)": "infinite",
						"transferFrom(address,address,uint256)": "infinite",
						"withdraw(uint256)": "infinite"
					},
					"internal": {
						"_transfer(address,address,uint256)": "infinite"
					}
				},
				"methodIdentifiers": {
					"deposit()": "d0e30db0",
					"getBalance()": "12065fe0",
					"transfer(address,uint256)": "a9059cbb",
					"transferFrom(address,address,uint256)": "23b872dd",
					"withdraw(uint256)": "2e1a7d4d"
				}
			},
			"storageLayout": {
				"storage": [
					{
						"astId": 278,
						"contract": "contracts/bank.sol:Bank",
						"label": "owner",
						"offset": 0,
						"slot": "0",
						"type": "t_address"
					},
					{
						"astId": 38,
						"contract": "contracts/bank.sol:Bank",
						"label": "balance",
						"offset": 0,
						"slot": "1",
						"type": "t_mapping(t_address,t_uint256)"
					}
				],
				"types": {
					"t_address": {
						"encoding": "inplace",
						"label": "address",
						"numberOfBytes": "20"
					},
					"t_mapping(t_address,t_uint256)": {
						"encoding": "mapping",
						"key": "t_address",
						"label": "mapping(address => uint256)",
						"numberOfBytes": "32",
						"value": "t_uint256"
					},
					"t_uint256": {
						"encoding": "inplace",
						"label": "uint256",
						"numberOfBytes": "32"
					}
				}
			},
			"userdoc": {
				"kind": "user",
				"methods": {},
				"version": 1
			}
		}
	}
}