{
	"contracts/bank.sol": {
		"Bank": {
			"abi": [
				{
					"anonymous": false,
					"inputs": [
						{
							"indexed": false,
							"internalType": "string",
							"name": "_txType",
							"type": "string"
						},
						{
							"indexed": true,
							"internalType": "address",
							"name": "_owner",
							"type": "address"
						},
						{
							"indexed": false,
							"internalType": "uint256",
							"name": "_amount",
							"type": "uint256"
						}
					],
					"name": "balanceUpdate",
					"type": "event"
				},
				{
					"inputs": [],
					"name": "deposit",
					"outputs": [],
					"stateMutability": "payable",
					"type": "function"
				},
				{
					"inputs": [],
					"name": "getBalance",
					"outputs": [
						{
							"internalType": "uint256",
							"name": "",
							"type": "uint256"
						}
					],
					"stateMutability": "view",
					"type": "function"
				},
				{
					"inputs": [
						{
							"internalType": "address",
							"name": "_to",
							"type": "address"
						},
						{
							"internalType": "uint256",
							"name": "_amount",
							"type": "uint256"
						}
					],
					"name": "transfer",
					"outputs": [],
					"stateMutability": "nonpayable",
					"type": "function"
				},
				{
					"inputs": [
						{
							"internalType": "address",
							"name": "_from",
							"type": "address"
						},
						{
							"internalType": "address",
							"name": "_to",
							"type": "address"
						},
						{
							"internalType": "uint256",
							"name": "_amount",
							"type": "uint256"
						}
					],
					"name": "transferFrom",
					"outputs": [],
					"stateMutability": "nonpayable",
					"type": "function"
				},
				{
					"inputs": [
						{
							"internalType": "uint256",
							"name": "_amount",
							"type": "uint256"
						}
					],
					"name": "withdraw",
					"outputs": [],
					"stateMutability": "nonpayable",
					"type": "function"
				}
			],
			"devdoc": {
				"kind": "dev",
				"methods": {},
				"version": 1
			},
			"evm": {
				"assembly": "    /* \"contracts/bank.sol\":754:2846  contract Bank is Ownable{... */\n  mstore(0x40, 0x80)\n  callvalue\n  dup1\n  iszero\n  tag_1\n  jumpi\n  0x00\n  dup1\n  revert\ntag_1:\n  pop\n    /* \"contracts/ownable.sol\":337:347  msg.sender */\n  caller\n    /* \"contracts/ownable.sol\":329:334  owner */\n  0x00\n  dup1\n    /* \"contracts/ownable.sol\":329:347  owner = msg.sender */\n  0x0100\n  exp\n  dup2\n  sload\n  dup2\n  0xffffffffffffffffffffffffffffffffffffffff\n  mul\n  not\n  and\n  swap1\n  dup4\n  0xffffffffffffffffffffffffffffffffffffffff\n  and\n  mul\n  or\n  swap1\n  sstore\n  pop\n    /* \"contracts/bank.sol\":754:2846  contract Bank is Ownable{... */\n  dataSize(sub_0)\n  dup1\n  dataOffset(sub_0)\n  0x00\n  codecopy\n  0x00\n  return\nstop\n\nsub_0: assembly {\n        /* \"contracts/bank.sol\":754:2846  contract Bank is Ownable{... */\n      mstore(0x40, 0x80)\n      jumpi(tag_1, lt(calldatasize, 0x04))\n      shr(0xe0, calldataload(0x00))\n      dup1\n      0x12065fe0\n      eq\n      tag_2\n      jumpi\n      dup1\n      0x23b872dd\n      eq\n      tag_3\n      jumpi\n      dup1\n      0x2e1a7d4d\n      eq\n      tag_4\n      jumpi\n      dup1\n      0xa9059cbb\n      eq\n      tag_5\n      jumpi\n      dup1\n      0xd0e30db0\n      eq\n      tag_6\n      jumpi\n    tag_1:\n      0x00\n      dup1\n      revert\n        /* \"contracts/bank.sol\":1078:1170  function getBalance() external view returns(uint){... */\n    tag_2:\n      callvalue\n      dup1\n      iszero\n      tag_7\n      jumpi\n      0x00\n      dup1\n      revert\n    tag_7:\n      pop\n      tag_8\n      tag_9\n      jump\t// in\n    tag_8:\n      mload(0x40)\n      tag_10\n      swap2\n      swap1\n      tag_11\n      jump\t// in\n    tag_10:\n      mload(0x40)\n      dup1\n      swap2\n      sub\n      swap1\n      return\n        /* \"contracts/bank.sol\":2436:2844  function transferFrom(address _from, address _to, uint _amount)external{... */\n    tag_3:\n      callvalue\n      dup1\n      iszero\n      tag_12\n      jumpi\n      0x00\n      dup1\n      revert\n    tag_12:\n      pop\n      tag_13\n      0x04\n      dup1\n      calldatasize\n      sub\n      dup2\n      add\n      swap1\n      tag_14\n      swap2\n      swap1\n      tag_15\n      jump\t// in\n    tag_14:\n      tag_16\n      jump\t// in\n    tag_13:\n      stop\n        /* \"contracts/bank.sol\":1398:1767  function withdraw(uint _amount) external {... */\n    tag_4:\n      callvalue\n      dup1\n      iszero\n      tag_17\n      jumpi\n      0x00\n      dup1\n      revert\n    tag_17:\n      pop\n      tag_18\n      0x04\n      dup1\n      calldatasize\n      sub\n      dup2\n      add\n      swap1\n      tag_19\n      swap2\n      swap1\n      tag_20\n      jump\t// in\n    tag_19:\n      tag_21\n      jump\t// in\n    tag_18:\n      stop\n        /* \"contracts/bank.sol\":1821:2168  function transfer(address _to, uint _amount) public onlyOwner balanceCheck(_amount){... */\n    tag_5:\n      callvalue\n      dup1\n      iszero\n      tag_22\n      jumpi\n      0x00\n      dup1\n      revert\n    tag_22:\n      pop\n      tag_23\n      0x04\n      dup1\n      calldatasize\n      sub\n      dup2\n      add\n      swap1\n      tag_24\n      swap2\n      swap1\n      tag_25\n      jump\t// in\n    tag_24:\n      tag_26\n      jump\t// in\n    tag_23:\n      stop\n        /* \"contracts/bank.sol\":1176:1392  function deposit() external payable onlyOwner{... */\n    tag_6:\n      tag_27\n      tag_28\n      jump\t// in\n    tag_27:\n      stop\n        /* \"contracts/bank.sol\":1078:1170  function getBalance() external view returns(uint){... */\n    tag_9:\n        /* \"contracts/bank.sol\":1122:1126  uint */\n      0x00\n        /* \"contracts/bank.sol\":1144:1151  balance */\n      0x01\n        /* \"contracts/bank.sol\":1144:1163  balance[msg.sender] */\n      0x00\n        /* \"contracts/bank.sol\":1152:1162  msg.sender */\n      caller\n        /* \"contracts/bank.sol\":1144:1163  balance[msg.sender] */\n      0xffffffffffffffffffffffffffffffffffffffff\n      and\n      0xffffffffffffffffffffffffffffffffffffffff\n      and\n      dup2\n      mstore\n      0x20\n      add\n      swap1\n      dup2\n      mstore\n      0x20\n      add\n      0x00\n      keccak256\n      sload\n        /* \"contracts/bank.sol\":1137:1163  return balance[msg.sender] */\n      swap1\n      pop\n        /* \"contracts/bank.sol\":1078:1170  function getBalance() external view returns(uint){... */\n      swap1\n      jump\t// out\n        /* \"contracts/bank.sol\":2436:2844  function transferFrom(address _from, address _to, uint _amount)external{... */\n    tag_16:\n        /* \"contracts/bank.sol\":2543:2550  _amount */\n      dup1\n        /* \"contracts/bank.sol\":2525:2532  balance */\n      0x01\n        /* \"contracts/bank.sol\":2525:2539  balance[_from] */\n      0x00\n        /* \"contracts/bank.sol\":2533:2538  _from */\n      dup6\n        /* \"contracts/bank.sol\":2525:2539  balance[_from] */\n      0xffffffffffffffffffffffffffffffffffffffff\n      and\n      0xffffffffffffffffffffffffffffffffffffffff\n      and\n      dup2\n      mstore\n      0x20\n      add\n      swap1\n      dup2\n      mstore\n      0x20\n      add\n      0x00\n      keccak256\n      sload\n        /* \"contracts/bank.sol\":2525:2550  balance[_from] >= _amount */\n      lt\n      iszero\n        /* \"contracts/bank.sol\":2517:2575  require(balance[_from] >= _amount, \"Insufficient balance\") */\n      tag_31\n      jumpi\n      mload(0x40)\n      0x08c379a000000000000000000000000000000000000000000000000000000000\n      dup2\n      mstore\n      0x04\n      add\n      tag_32\n      swap1\n      tag_33\n      jump\t// in\n    tag_32:\n      mload(0x40)\n      dup1\n      swap2\n      sub\n      swap1\n      revert\n    tag_31:\n        /* \"contracts/bank.sol\":2602:2605  _to */\n      dup2\n        /* \"contracts/bank.sol\":2593:2605  _from != _to */\n      0xffffffffffffffffffffffffffffffffffffffff\n      and\n        /* \"contracts/bank.sol\":2593:2598  _from */\n      dup4\n        /* \"contracts/bank.sol\":2593:2605  _from != _to */\n      0xffffffffffffffffffffffffffffffffffffffff\n      and\n      sub\n        /* \"contracts/bank.sol\":2585:2627  require(_from != _to, \"Invalid Recepient\") */\n      tag_34\n      jumpi\n      mload(0x40)\n      0x08c379a000000000000000000000000000000000000000000000000000000000\n      dup2\n      mstore\n      0x04\n      add\n      tag_35\n      swap1\n      tag_36\n      jump\t// in\n    tag_35:\n      mload(0x40)\n      dup1\n      swap2\n      sub\n      swap1\n      revert\n    tag_34:\n        /* \"contracts/bank.sol\":2655:2662  _amount */\n      dup1\n        /* \"contracts/bank.sol\":2637:2644  balance */\n      0x01\n        /* \"contracts/bank.sol\":2637:2651  balance[_from] */\n      0x00\n        /* \"contracts/bank.sol\":2645:2650  _from */\n      dup6\n        /* \"contracts/bank.sol\":2637:2651  balance[_from] */\n      0xffffffffffffffffffffffffffffffffffffffff\n      and\n      0xffffffffffffffffffffffffffffffffffffffff\n      and\n      dup2\n      mstore\n      0x20\n      add\n      swap1\n      dup2\n      mstore\n      0x20\n      add\n      0x00\n      keccak256\n      0x00\n        /* \"contracts/bank.sol\":2637:2662  balance[_from] -= _amount */\n      dup3\n      dup3\n      sload\n      tag_37\n      swap2\n      swap1\n      tag_38\n      jump\t// in\n    tag_37:\n      swap3\n      pop\n      pop\n      dup2\n      swap1\n      sstore\n      pop\n        /* \"contracts/bank.sol\":2688:2695  _amount */\n      dup1\n        /* \"contracts/bank.sol\":2672:2679  balance */\n      0x01\n        /* \"contracts/bank.sol\":2672:2684  balance[_to] */\n      0x00\n        /* \"contracts/bank.sol\":2680:2683  _to */\n      dup5\n        /* \"contracts/bank.sol\":2672:2684  balance[_to] */\n      0xffffffffffffffffffffffffffffffffffffffff\n      and\n      0xffffffffffffffffffffffffffffffffffffffff\n      and\n      dup2\n      mstore\n      0x20\n      add\n      swap1\n      dup2\n      mstore\n      0x20\n      add\n      0x00\n      keccak256\n      0x00\n        /* \"contracts/bank.sol\":2672:2695  balance[_to] += _amount */\n      dup3\n      dup3\n      sload\n      tag_39\n      swap2\n      swap1\n      tag_40\n      jump\t// in\n    tag_39:\n      swap3\n      pop\n      pop\n      dup2\n      swap1\n      sstore\n      pop\n        /* \"contracts/bank.sol\":2746:2751  _from */\n      dup3\n        /* \"contracts/bank.sol\":2711:2768  balanceUpdate(\"OutGoing Transfer\", _from, balance[_from]) */\n      0xffffffffffffffffffffffffffffffffffffffff\n      and\n      0x747fe8563263661fb53c6a99a1d6753bbcba100faa6979d07ead10fb9c84d050\n        /* \"contracts/bank.sol\":2753:2760  balance */\n      0x01\n        /* \"contracts/bank.sol\":2753:2767  balance[_from] */\n      0x00\n        /* \"contracts/bank.sol\":2761:2766  _from */\n      dup7\n        /* \"contracts/bank.sol\":2753:2767  balance[_from] */\n      0xffffffffffffffffffffffffffffffffffffffff\n      and\n      0xffffffffffffffffffffffffffffffffffffffff\n      and\n      dup2\n      mstore\n      0x20\n      add\n      swap1\n      dup2\n      mstore\n      0x20\n      add\n      0x00\n      keccak256\n      sload\n        /* \"contracts/bank.sol\":2711:2768  balanceUpdate(\"OutGoing Transfer\", _from, balance[_from]) */\n      mload(0x40)\n      tag_41\n      swap2\n      swap1\n      tag_42\n      jump\t// in\n    tag_41:\n      mload(0x40)\n      dup1\n      swap2\n      sub\n      swap1\n      log2\n        /* \"contracts/bank.sol\":2818:2821  _to */\n      dup2\n        /* \"contracts/bank.sol\":2783:2836  balanceUpdate(\"InComing Transfer\", _to, balance[_to]) */\n      0xffffffffffffffffffffffffffffffffffffffff\n      and\n      0x747fe8563263661fb53c6a99a1d6753bbcba100faa6979d07ead10fb9c84d050\n        /* \"contracts/bank.sol\":2823:2830  balance */\n      0x01\n        /* \"contracts/bank.sol\":2823:2835  balance[_to] */\n      0x00\n        /* \"contracts/bank.sol\":2831:2834  _to */\n      dup6\n        /* \"contracts/bank.sol\":2823:2835  balance[_to] */\n      0xffffffffffffffffffffffffffffffffffffffff\n      and\n      0xffffffffffffffffffffffffffffffffffffffff\n      and\n      dup2\n      mstore\n      0x20\n      add\n      swap1\n      dup2\n      mstore\n      0x20\n      add\n      0x00\n      keccak256\n      sload\n        /* \"contracts/bank.sol\":2783:2836  balanceUpdate(\"InComing Transfer\", _to, balance[_to]) */\n      mload(0x40)\n      tag_43\n      swap2\n      swap1\n      tag_44\n      jump\t// in\n    tag_43:\n      mload(0x40)\n      dup1\n      swap2\n      sub\n      swap1\n      log2\n        /* \"contracts/bank.sol\":2436:2844  function transferFrom(address _from, address _to, uint _amount)external{... */\n      pop\n      pop\n      pop\n      jump\t// out\n        /* \"contracts/bank.sol\":1398:1767  function withdraw(uint _amount) external {... */\n    tag_21:\n        /* \"contracts/bank.sol\":1449:1468  uint beforeWithdraw */\n      0x00\n        /* \"contracts/bank.sol\":1471:1478  balance */\n      0x01\n        /* \"contracts/bank.sol\":1471:1490  balance[msg.sender] */\n      0x00\n        /* \"contracts/bank.sol\":1479:1489  msg.sender */\n      caller\n        /* \"contracts/bank.sol\":1471:1490  balance[msg.sender] */\n      0xffffffffffffffffffffffffffffffffffffffff\n      and\n      0xffffffffffffffffffffffffffffffffffffffff\n      and\n      dup2\n      mstore\n      0x20\n      add\n      swap1\n      dup2\n      mstore\n      0x20\n      add\n      0x00\n      keccak256\n      sload\n        /* \"contracts/bank.sol\":1449:1490  uint beforeWithdraw = balance[msg.sender] */\n      swap1\n      pop\n        /* \"contracts/bank.sol\":1523:1530  _amount */\n      dup2\n        /* \"contracts/bank.sol\":1500:1507  balance */\n      0x01\n        /* \"contracts/bank.sol\":1500:1519  balance[msg.sender] */\n      0x00\n        /* \"contracts/bank.sol\":1508:1518  msg.sender */\n      caller\n        /* \"contracts/bank.sol\":1500:1519  balance[msg.sender] */\n      0xffffffffffffffffffffffffffffffffffffffff\n      and\n      0xffffffffffffffffffffffffffffffffffffffff\n      and\n      dup2\n      mstore\n      0x20\n      add\n      swap1\n      dup2\n      mstore\n      0x20\n      add\n      0x00\n      keccak256\n      0x00\n        /* \"contracts/bank.sol\":1500:1530  balance[msg.sender] -= _amount */\n      dup3\n      dup3\n      sload\n      tag_46\n      swap2\n      swap1\n      tag_38\n      jump\t// in\n    tag_46:\n      swap3\n      pop\n      pop\n      dup2\n      swap1\n      sstore\n      pop\n        /* \"contracts/bank.sol\":1548:1558  msg.sender */\n      caller\n        /* \"contracts/bank.sol\":1540:1568  payable(msg.sender).transfer */\n      0xffffffffffffffffffffffffffffffffffffffff\n      and\n        /* \"contracts/bank.sol\":1540:1577  payable(msg.sender).transfer(_amount) */\n      0x08fc\n        /* \"contracts/bank.sol\":1569:1576  _amount */\n      dup4\n        /* \"contracts/bank.sol\":1540:1577  payable(msg.sender).transfer(_amount) */\n      swap1\n      dup2\n      iszero\n      mul\n      swap1\n      mload(0x40)\n      0x00\n      mload(0x40)\n      dup1\n      dup4\n      sub\n      dup2\n      dup6\n      dup9\n      dup9\n      call\n      swap4\n      pop\n      pop\n      pop\n      pop\n      iszero\n      dup1\n      iszero\n      tag_48\n      jumpi\n      returndatasize\n      0x00\n      dup1\n      returndatacopy\n      revert(0x00, returndatasize)\n    tag_48:\n      pop\n        /* \"contracts/bank.sol\":1587:1605  uint afterWithdraw */\n      0x00\n        /* \"contracts/bank.sol\":1608:1615  balance */\n      0x01\n        /* \"contracts/bank.sol\":1608:1627  balance[msg.sender] */\n      0x00\n        /* \"contracts/bank.sol\":1616:1626  msg.sender */\n      caller\n        /* \"contracts/bank.sol\":1608:1627  balance[msg.sender] */\n      0xffffffffffffffffffffffffffffffffffffffff\n      and\n      0xffffffffffffffffffffffffffffffffffffffff\n      and\n      dup2\n      mstore\n      0x20\n      add\n      swap1\n      dup2\n      mstore\n      0x20\n      add\n      0x00\n      keccak256\n      sload\n        /* \"contracts/bank.sol\":1587:1627  uint afterWithdraw = balance[msg.sender] */\n      swap1\n      pop\n        /* \"contracts/bank.sol\":1678:1685  _amount */\n      dup3\n        /* \"contracts/bank.sol\":1661:1675  beforeWithdraw */\n      dup3\n        /* \"contracts/bank.sol\":1661:1685  beforeWithdraw - _amount */\n      tag_49\n      swap2\n      swap1\n      tag_38\n      jump\t// in\n    tag_49:\n        /* \"contracts/bank.sol\":1644:1657  afterWithdraw */\n      dup2\n        /* \"contracts/bank.sol\":1644:1685  afterWithdraw == beforeWithdraw - _amount */\n      eq\n        /* \"contracts/bank.sol\":1637:1686  assert(afterWithdraw == beforeWithdraw - _amount) */\n      tag_50\n      jumpi\n      tag_51\n      tag_52\n      jump\t// in\n    tag_51:\n    tag_50:\n        /* \"contracts/bank.sol\":1728:1738  msg.sender */\n      caller\n        /* \"contracts/bank.sol\":1702:1760  balanceUpdate(\"Withdraw\", msg.sender, balance[msg.sender]) */\n      0xffffffffffffffffffffffffffffffffffffffff\n      and\n      0x747fe8563263661fb53c6a99a1d6753bbcba100faa6979d07ead10fb9c84d050\n        /* \"contracts/bank.sol\":1740:1747  balance */\n      0x01\n        /* \"contracts/bank.sol\":1740:1759  balance[msg.sender] */\n      0x00\n        /* \"contracts/bank.sol\":1748:1758  msg.sender */\n      caller\n        /* \"contracts/bank.sol\":1740:1759  balance[msg.sender] */\n      0xffffffffffffffffffffffffffffffffffffffff\n      and\n      0xffffffffffffffffffffffffffffffffffffffff\n      and\n      dup2\n      mstore\n      0x20\n      add\n      swap1\n      dup2\n      mstore\n      0x20\n      add\n      0x00\n      keccak256\n      sload\n        /* \"contracts/bank.sol\":1702:1760  balanceUpdate(\"Withdraw\", msg.sender, balance[msg.sender]) */\n      mload(0x40)\n      tag_53\n      swap2\n      swap1\n      tag_54\n      jump\t// in\n    tag_53:\n      mload(0x40)\n      dup1\n      swap2\n      sub\n      swap1\n      log2\n        /* \"contracts/bank.sol\":1439:1767  {... */\n      pop\n      pop\n        /* \"contracts/bank.sol\":1398:1767  function withdraw(uint _amount) external {... */\n      pop\n      jump\t// out\n        /* \"contracts/bank.sol\":1821:2168  function transfer(address _to, uint _amount) public onlyOwner balanceCheck(_amount){... */\n    tag_26:\n        /* \"contracts/ownable.sol\":201:206  owner */\n      0x00\n      dup1\n      sload\n      swap1\n      0x0100\n      exp\n      swap1\n      div\n      0xffffffffffffffffffffffffffffffffffffffff\n      and\n        /* \"contracts/ownable.sol\":187:206  msg.sender == owner */\n      0xffffffffffffffffffffffffffffffffffffffff\n      and\n        /* \"contracts/ownable.sol\":187:197  msg.sender */\n      caller\n        /* \"contracts/ownable.sol\":187:206  msg.sender == owner */\n      0xffffffffffffffffffffffffffffffffffffffff\n      and\n      eq\n        /* \"contracts/ownable.sol\":179:228  require(msg.sender == owner, \"You Are Not Owner\") */\n      tag_56\n      jumpi\n      mload(0x40)\n      0x08c379a000000000000000000000000000000000000000000000000000000000\n      dup2\n      mstore\n      0x04\n      add\n      tag_57\n      swap1\n      tag_58\n      jump\t// in\n    tag_57:\n      mload(0x40)\n      dup1\n      swap2\n      sub\n      swap1\n      revert\n    tag_56:\n        /* \"contracts/bank.sol\":1896:1903  _amount */\n      dup1\n        /* \"contracts/bank.sol\":1038:1045  _amount */\n      dup1\n        /* \"contracts/bank.sol\":1015:1022  balance */\n      0x01\n        /* \"contracts/bank.sol\":1015:1034  balance[msg.sender] */\n      0x00\n        /* \"contracts/bank.sol\":1023:1033  msg.sender */\n      caller\n        /* \"contracts/bank.sol\":1015:1034  balance[msg.sender] */\n      0xffffffffffffffffffffffffffffffffffffffff\n      and\n      0xffffffffffffffffffffffffffffffffffffffff\n      and\n      dup2\n      mstore\n      0x20\n      add\n      swap1\n      dup2\n      mstore\n      0x20\n      add\n      0x00\n      keccak256\n      sload\n        /* \"contracts/bank.sol\":1015:1045  balance[msg.sender] >= _amount */\n      lt\n      iszero\n        /* \"contracts/bank.sol\":1007:1046  require(balance[msg.sender] >= _amount) */\n      tag_60\n      jumpi\n      0x00\n      dup1\n      revert\n    tag_60:\n        /* \"contracts/bank.sol\":1936:1939  _to */\n      dup3\n        /* \"contracts/bank.sol\":1922:1939  msg.sender != _to */\n      0xffffffffffffffffffffffffffffffffffffffff\n      and\n        /* \"contracts/bank.sol\":1922:1932  msg.sender */\n      caller\n        /* \"contracts/bank.sol\":1922:1939  msg.sender != _to */\n      0xffffffffffffffffffffffffffffffffffffffff\n      and\n      sub\n        /* \"contracts/bank.sol\":1914:1966  require(msg.sender != _to, \"Insufficient Recipient\") */\n      tag_62\n      jumpi\n      mload(0x40)\n      0x08c379a000000000000000000000000000000000000000000000000000000000\n      dup2\n      mstore\n      0x04\n      add\n      tag_63\n      swap1\n      tag_64\n      jump\t// in\n    tag_63:\n      mload(0x40)\n      dup1\n      swap2\n      sub\n      swap1\n      revert\n    tag_62:\n        /* \"contracts/bank.sol\":1976:2011  _transfer(msg.sender, _to, _amount) */\n      tag_65\n        /* \"contracts/bank.sol\":1986:1996  msg.sender */\n      caller\n        /* \"contracts/bank.sol\":1998:2001  _to */\n      dup5\n        /* \"contracts/bank.sol\":2003:2010  _amount */\n      dup5\n        /* \"contracts/bank.sol\":1976:1985  _transfer */\n      tag_66\n        /* \"contracts/bank.sol\":1976:2011  _transfer(msg.sender, _to, _amount) */\n      jump\t// in\n    tag_65:\n        /* \"contracts/bank.sol\":2061:2071  msg.sender */\n      caller\n        /* \"contracts/bank.sol\":2027:2093  balanceUpdate(\"OutGoing Trasfer\", msg.sender, balance[msg.sender]) */\n      0xffffffffffffffffffffffffffffffffffffffff\n      and\n      0x747fe8563263661fb53c6a99a1d6753bbcba100faa6979d07ead10fb9c84d050\n        /* \"contracts/bank.sol\":2073:2080  balance */\n      0x01\n        /* \"contracts/bank.sol\":2073:2092  balance[msg.sender] */\n      0x00\n        /* \"contracts/bank.sol\":2081:2091  msg.sender */\n      caller\n        /* \"contracts/bank.sol\":2073:2092  balance[msg.sender] */\n      0xffffffffffffffffffffffffffffffffffffffff\n      and\n      0xffffffffffffffffffffffffffffffffffffffff\n      and\n      dup2\n      mstore\n      0x20\n      add\n      swap1\n      dup2\n      mstore\n      0x20\n      add\n      0x00\n      keccak256\n      sload\n        /* \"contracts/bank.sol\":2027:2093  balanceUpdate(\"OutGoing Trasfer\", msg.sender, balance[msg.sender]) */\n      mload(0x40)\n      tag_67\n      swap2\n      swap1\n      tag_68\n      jump\t// in\n    tag_67:\n      mload(0x40)\n      dup1\n      swap2\n      sub\n      swap1\n      log2\n        /* \"contracts/bank.sol\":2143:2146  _to */\n      dup3\n        /* \"contracts/bank.sol\":2108:2161  balanceUpdate(\"InComing Transfer\", _to, balance[_to]) */\n      0xffffffffffffffffffffffffffffffffffffffff\n      and\n      0x747fe8563263661fb53c6a99a1d6753bbcba100faa6979d07ead10fb9c84d050\n        /* \"contracts/bank.sol\":2148:2155  balance */\n      0x01\n        /* \"contracts/bank.sol\":2148:2160  balance[_to] */\n      0x00\n        /* \"contracts/bank.sol\":2156:2159  _to */\n      dup7\n        /* \"contracts/bank.sol\":2148:2160  balance[_to] */\n      0xffffffffffffffffffffffffffffffffffffffff\n      and\n      0xffffffffffffffffffffffffffffffffffffffff\n      and\n      dup2\n      mstore\n      0x20\n      add\n      swap1\n      dup2\n      mstore\n      0x20\n      add\n      0x00\n      keccak256\n      sload\n        /* \"contracts/bank.sol\":2108:2161  balanceUpdate(\"InComing Transfer\", _to, balance[_to]) */\n      mload(0x40)\n      tag_69\n      swap2\n      swap1\n      tag_44\n      jump\t// in\n    tag_69:\n      mload(0x40)\n      dup1\n      swap2\n      sub\n      swap1\n      log2\n        /* \"contracts/ownable.sol\":238:239  _ */\n      pop\n        /* \"contracts/bank.sol\":1821:2168  function transfer(address _to, uint _amount) public onlyOwner balanceCheck(_amount){... */\n      pop\n      pop\n      jump\t// out\n        /* \"contracts/bank.sol\":1176:1392  function deposit() external payable onlyOwner{... */\n    tag_28:\n        /* \"contracts/ownable.sol\":201:206  owner */\n      0x00\n      dup1\n      sload\n      swap1\n      0x0100\n      exp\n      swap1\n      div\n      0xffffffffffffffffffffffffffffffffffffffff\n      and\n        /* \"contracts/ownable.sol\":187:206  msg.sender == owner */\n      0xffffffffffffffffffffffffffffffffffffffff\n      and\n        /* \"contracts/ownable.sol\":187:197  msg.sender */\n      caller\n        /* \"contracts/ownable.sol\":187:206  msg.sender == owner */\n      0xffffffffffffffffffffffffffffffffffffffff\n      and\n      eq\n        /* \"contracts/ownable.sol\":179:228  require(msg.sender == owner, \"You Are Not Owner\") */\n      tag_71\n      jumpi\n      mload(0x40)\n      0x08c379a000000000000000000000000000000000000000000000000000000000\n      dup2\n      mstore\n      0x04\n      add\n      tag_72\n      swap1\n      tag_58\n      jump\t// in\n    tag_72:\n      mload(0x40)\n      dup1\n      swap2\n      sub\n      swap1\n      revert\n    tag_71:\n        /* \"contracts/bank.sol\":1303:1312  msg.value */\n      callvalue\n        /* \"contracts/bank.sol\":1280:1287  balance */\n      0x01\n        /* \"contracts/bank.sol\":1280:1299  balance[msg.sender] */\n      0x00\n        /* \"contracts/bank.sol\":1288:1298  msg.sender */\n      caller\n        /* \"contracts/bank.sol\":1280:1299  balance[msg.sender] */\n      0xffffffffffffffffffffffffffffffffffffffff\n      and\n      0xffffffffffffffffffffffffffffffffffffffff\n      and\n      dup2\n      mstore\n      0x20\n      add\n      swap1\n      dup2\n      mstore\n      0x20\n      add\n      0x00\n      keccak256\n      0x00\n        /* \"contracts/bank.sol\":1280:1312  balance[msg.sender] += msg.value */\n      dup3\n      dup3\n      sload\n      tag_74\n      swap2\n      swap1\n      tag_40\n      jump\t// in\n    tag_74:\n      swap3\n      pop\n      pop\n      dup2\n      swap1\n      sstore\n      pop\n        /* \"contracts/bank.sol\":1353:1363  msg.sender */\n      caller\n        /* \"contracts/bank.sol\":1328:1385  balanceUpdate(\"Deposit\", msg.sender, balance[msg.sender]) */\n      0xffffffffffffffffffffffffffffffffffffffff\n      and\n      0x747fe8563263661fb53c6a99a1d6753bbcba100faa6979d07ead10fb9c84d050\n        /* \"contracts/bank.sol\":1365:1372  balance */\n      0x01\n        /* \"contracts/bank.sol\":1365:1384  balance[msg.sender] */\n      0x00\n        /* \"contracts/bank.sol\":1373:1383  msg.sender */\n      caller\n        /* \"contracts/bank.sol\":1365:1384  balance[msg.sender] */\n      0xffffffffffffffffffffffffffffffffffffffff\n      and\n      0xffffffffffffffffffffffffffffffffffffffff\n      and\n      dup2\n      mstore\n      0x20\n      add\n      swap1\n      dup2\n      mstore\n      0x20\n      add\n      0x00\n      keccak256\n      sload\n        /* \"contracts/bank.sol\":1328:1385  balanceUpdate(\"Deposit\", msg.sender, balance[msg.sender]) */\n      mload(0x40)\n      tag_75\n      swap2\n      swap1\n      tag_76\n      jump\t// in\n    tag_75:\n      mload(0x40)\n      dup1\n      swap2\n      sub\n      swap1\n      log2\n        /* \"contracts/bank.sol\":1176:1392  function deposit() external payable onlyOwner{... */\n      jump\t// out\n        /* \"contracts/bank.sol\":2260:2404  function _transfer(address _from, address _to, uint _amount) private {... */\n    tag_66:\n        /* \"contracts/bank.sol\":2357:2364  _amount */\n      dup1\n        /* \"contracts/bank.sol\":2339:2346  balance */\n      0x01\n        /* \"contracts/bank.sol\":2339:2353  balance[_from] */\n      0x00\n        /* \"contracts/bank.sol\":2347:2352  _from */\n      dup6\n        /* \"contracts/bank.sol\":2339:2353  balance[_from] */\n      0xffffffffffffffffffffffffffffffffffffffff\n      and\n      0xffffffffffffffffffffffffffffffffffffffff\n      and\n      dup2\n      mstore\n      0x20\n      add\n      swap1\n      dup2\n      mstore\n      0x20\n      add\n      0x00\n      keccak256\n      0x00\n        /* \"contracts/bank.sol\":2339:2364  balance[_from] -= _amount */\n      dup3\n      dup3\n      sload\n      tag_78\n      swap2\n      swap1\n      tag_38\n      jump\t// in\n    tag_78:\n      swap3\n      pop\n      pop\n      dup2\n      swap1\n      sstore\n      pop\n        /* \"contracts/bank.sol\":2390:2397  _amount */\n      dup1\n        /* \"contracts/bank.sol\":2374:2381  balance */\n      0x01\n        /* \"contracts/bank.sol\":2374:2386  balance[_to] */\n      0x00\n        /* \"contracts/bank.sol\":2382:2385  _to */\n      dup5\n        /* \"contracts/bank.sol\":2374:2386  balance[_to] */\n      0xffffffffffffffffffffffffffffffffffffffff\n      and\n      0xffffffffffffffffffffffffffffffffffffffff\n      and\n      dup2\n      mstore\n      0x20\n      add\n      swap1\n      dup2\n      mstore\n      0x20\n      add\n      0x00\n      keccak256\n      0x00\n        /* \"contracts/bank.sol\":2374:2397  balance[_to] += _amount */\n      dup3\n      dup3\n      sload\n      tag_79\n      swap2\n      swap1\n      tag_40\n      jump\t// in\n    tag_79:\n      swap3\n      pop\n      pop\n      dup2\n      swap1\n      sstore\n      pop\n        /* \"contracts/bank.sol\":2260:2404  function _transfer(address _from, address _to, uint _amount) private {... */\n      pop\n      pop\n      pop\n      jump\t// out\n        /* \"#utility.yul\":7:84   */\n    tag_80:\n        /* \"#utility.yul\":44:51   */\n      0x00\n        /* \"#utility.yul\":73:78   */\n      dup2\n        /* \"#utility.yul\":62:78   */\n      swap1\n      pop\n        /* \"#utility.yul\":7:84   */\n      swap2\n      swap1\n      pop\n      jump\t// out\n        /* \"#utility.yul\":90:208   */\n    tag_81:\n        /* \"#utility.yul\":177:201   */\n      tag_114\n        /* \"#utility.yul\":195:200   */\n      dup2\n        /* \"#utility.yul\":177:201   */\n      tag_80\n      jump\t// in\n    tag_114:\n        /* \"#utility.yul\":172:175   */\n      dup3\n        /* \"#utility.yul\":165:202   */\n      mstore\n        /* \"#utility.yul\":90:208   */\n      pop\n      pop\n      jump\t// out\n        /* \"#utility.yul\":214:436   */\n    tag_11:\n        /* \"#utility.yul\":307:311   */\n      0x00\n        /* \"#utility.yul\":345:347   */\n      0x20\n        /* \"#utility.yul\":334:343   */\n      dup3\n        /* \"#utility.yul\":330:348   */\n      add\n        /* \"#utility.yul\":322:348   */\n      swap1\n      pop\n        /* \"#utility.yul\":358:429   */\n      tag_116\n        /* \"#utility.yul\":426:427   */\n      0x00\n        /* \"#utility.yul\":415:424   */\n      dup4\n        /* \"#utility.yul\":411:428   */\n      add\n        /* \"#utility.yul\":402:408   */\n      dup5\n        /* \"#utility.yul\":358:429   */\n      tag_81\n      jump\t// in\n    tag_116:\n        /* \"#utility.yul\":214:436   */\n      swap3\n      swap2\n      pop\n      pop\n      jump\t// out\n        /* \"#utility.yul\":523:640   */\n    tag_83:\n        /* \"#utility.yul\":632:633   */\n      0x00\n        /* \"#utility.yul\":629:630   */\n      dup1\n        /* \"#utility.yul\":622:634   */\n      revert\n        /* \"#utility.yul\":769:895   */\n    tag_85:\n        /* \"#utility.yul\":806:813   */\n      0x00\n        /* \"#utility.yul\":846:888   */\n      0xffffffffffffffffffffffffffffffffffffffff\n        /* \"#utility.yul\":839:844   */\n      dup3\n        /* \"#utility.yul\":835:889   */\n      and\n        /* \"#utility.yul\":824:889   */\n      swap1\n      pop\n        /* \"#utility.yul\":769:895   */\n      swap2\n      swap1\n      pop\n      jump\t// out\n        /* \"#utility.yul\":901:997   */\n    tag_86:\n        /* \"#utility.yul\":938:945   */\n      0x00\n        /* \"#utility.yul\":967:991   */\n      tag_122\n        /* \"#utility.yul\":985:990   */\n      dup3\n        /* \"#utility.yul\":967:991   */\n      tag_85\n      jump\t// in\n    tag_122:\n        /* \"#utility.yul\":956:991   */\n      swap1\n      pop\n        /* \"#utility.yul\":901:997   */\n      swap2\n      swap1\n      pop\n      jump\t// out\n        /* \"#utility.yul\":1003:1125   */\n    tag_87:\n        /* \"#utility.yul\":1076:1100   */\n      tag_124\n        /* \"#utility.yul\":1094:1099   */\n      dup2\n        /* \"#utility.yul\":1076:1100   */\n      tag_86\n      jump\t// in\n    tag_124:\n        /* \"#utility.yul\":1069:1074   */\n      dup2\n        /* \"#utility.yul\":1066:1101   */\n      eq\n        /* \"#utility.yul\":1056:1119   */\n      tag_125\n      jumpi\n        /* \"#utility.yul\":1115:1116   */\n      0x00\n        /* \"#utility.yul\":1112:1113   */\n      dup1\n        /* \"#utility.yul\":1105:1117   */\n      revert\n        /* \"#utility.yul\":1056:1119   */\n    tag_125:\n        /* \"#utility.yul\":1003:1125   */\n      pop\n      jump\t// out\n        /* \"#utility.yul\":1131:1270   */\n    tag_88:\n        /* \"#utility.yul\":1177:1182   */\n      0x00\n        /* \"#utility.yul\":1215:1221   */\n      dup2\n        /* \"#utility.yul\":1202:1222   */\n      calldataload\n        /* \"#utility.yul\":1193:1222   */\n      swap1\n      pop\n        /* \"#utility.yul\":1231:1264   */\n      tag_127\n        /* \"#utility.yul\":1258:1263   */\n      dup2\n        /* \"#utility.yul\":1231:1264   */\n      tag_87\n      jump\t// in\n    tag_127:\n        /* \"#utility.yul\":1131:1270   */\n      swap3\n      swap2\n      pop\n      pop\n      jump\t// out\n        /* \"#utility.yul\":1276:1398   */\n    tag_89:\n        /* \"#utility.yul\":1349:1373   */\n      tag_129\n        /* \"#utility.yul\":1367:1372   */\n      dup2\n        /* \"#utility.yul\":1349:1373   */\n      tag_80\n      jump\t// in\n    tag_129:\n        /* \"#utility.yul\":1342:1347   */\n      dup2\n        /* \"#utility.yul\":1339:1374   */\n      eq\n        /* \"#utility.yul\":1329:1392   */\n      tag_130\n      jumpi\n        /* \"#utility.yul\":1388:1389   */\n      0x00\n        /* \"#utility.yul\":1385:1386   */\n      dup1\n        /* \"#utility.yul\":1378:1390   */\n      revert\n        /* \"#utility.yul\":1329:1392   */\n    tag_130:\n        /* \"#utility.yul\":1276:1398   */\n      pop\n      jump\t// out\n        /* \"#utility.yul\":1404:1543   */\n    tag_90:\n        /* \"#utility.yul\":1450:1455   */\n      0x00\n        /* \"#utility.yul\":1488:1494   */\n      dup2\n        /* \"#utility.yul\":1475:1495   */\n      calldataload\n        /* \"#utility.yul\":1466:1495   */\n      swap1\n      pop\n        /* \"#utility.yul\":1504:1537   */\n      tag_132\n        /* \"#utility.yul\":1531:1536   */\n      dup2\n        /* \"#utility.yul\":1504:1537   */\n      tag_89\n      jump\t// in\n    tag_132:\n        /* \"#utility.yul\":1404:1543   */\n      swap3\n      swap2\n      pop\n      pop\n      jump\t// out\n        /* \"#utility.yul\":1549:2168   */\n    tag_15:\n        /* \"#utility.yul\":1626:1632   */\n      0x00\n        /* \"#utility.yul\":1634:1640   */\n      dup1\n        /* \"#utility.yul\":1642:1648   */\n      0x00\n        /* \"#utility.yul\":1691:1693   */\n      0x60\n        /* \"#utility.yul\":1679:1688   */\n      dup5\n        /* \"#utility.yul\":1670:1677   */\n      dup7\n        /* \"#utility.yul\":1666:1689   */\n      sub\n        /* \"#utility.yul\":1662:1694   */\n      slt\n        /* \"#utility.yul\":1659:1778   */\n      iszero\n      tag_134\n      jumpi\n        /* \"#utility.yul\":1697:1776   */\n      tag_135\n      tag_83\n      jump\t// in\n    tag_135:\n        /* \"#utility.yul\":1659:1778   */\n    tag_134:\n        /* \"#utility.yul\":1817:1818   */\n      0x00\n        /* \"#utility.yul\":1842:1895   */\n      tag_136\n        /* \"#utility.yul\":1887:1894   */\n      dup7\n        /* \"#utility.yul\":1878:1884   */\n      dup3\n        /* \"#utility.yul\":1867:1876   */\n      dup8\n        /* \"#utility.yul\":1863:1885   */\n      add\n        /* \"#utility.yul\":1842:1895   */\n      tag_88\n      jump\t// in\n    tag_136:\n        /* \"#utility.yul\":1832:1895   */\n      swap4\n      pop\n        /* \"#utility.yul\":1788:1905   */\n      pop\n        /* \"#utility.yul\":1944:1946   */\n      0x20\n        /* \"#utility.yul\":1970:2023   */\n      tag_137\n        /* \"#utility.yul\":2015:2022   */\n      dup7\n        /* \"#utility.yul\":2006:2012   */\n      dup3\n        /* \"#utility.yul\":1995:2004   */\n      dup8\n        /* \"#utility.yul\":1991:2013   */\n      add\n        /* \"#utility.yul\":1970:2023   */\n      tag_88\n      jump\t// in\n    tag_137:\n        /* \"#utility.yul\":1960:2023   */\n      swap3\n      pop\n        /* \"#utility.yul\":1915:2033   */\n      pop\n        /* \"#utility.yul\":2072:2074   */\n      0x40\n        /* \"#utility.yul\":2098:2151   */\n      tag_138\n        /* \"#utility.yul\":2143:2150   */\n      dup7\n        /* \"#utility.yul\":2134:2140   */\n      dup3\n        /* \"#utility.yul\":2123:2132   */\n      dup8\n        /* \"#utility.yul\":2119:2141   */\n      add\n        /* \"#utility.yul\":2098:2151   */\n      tag_90\n      jump\t// in\n    tag_138:\n        /* \"#utility.yul\":2088:2151   */\n      swap2\n      pop\n        /* \"#utility.yul\":2043:2161   */\n      pop\n        /* \"#utility.yul\":1549:2168   */\n      swap3\n      pop\n      swap3\n      pop\n      swap3\n      jump\t// out\n        /* \"#utility.yul\":2174:2503   */\n    tag_20:\n        /* \"#utility.yul\":2233:2239   */\n      0x00\n        /* \"#utility.yul\":2282:2284   */\n      0x20\n        /* \"#utility.yul\":2270:2279   */\n      dup3\n        /* \"#utility.yul\":2261:2268   */\n      dup5\n        /* \"#utility.yul\":2257:2280   */\n      sub\n        /* \"#utility.yul\":2253:2285   */\n      slt\n        /* \"#utility.yul\":2250:2369   */\n      iszero\n      tag_140\n      jumpi\n        /* \"#utility.yul\":2288:2367   */\n      tag_141\n      tag_83\n      jump\t// in\n    tag_141:\n        /* \"#utility.yul\":2250:2369   */\n    tag_140:\n        /* \"#utility.yul\":2408:2409   */\n      0x00\n        /* \"#utility.yul\":2433:2486   */\n      tag_142\n        /* \"#utility.yul\":2478:2485   */\n      dup5\n        /* \"#utility.yul\":2469:2475   */\n      dup3\n        /* \"#utility.yul\":2458:2467   */\n      dup6\n        /* \"#utility.yul\":2454:2476   */\n      add\n        /* \"#utility.yul\":2433:2486   */\n      tag_90\n      jump\t// in\n    tag_142:\n        /* \"#utility.yul\":2423:2486   */\n      swap2\n      pop\n        /* \"#utility.yul\":2379:2496   */\n      pop\n        /* \"#utility.yul\":2174:2503   */\n      swap3\n      swap2\n      pop\n      pop\n      jump\t// out\n        /* \"#utility.yul\":2509:2983   */\n    tag_25:\n        /* \"#utility.yul\":2577:2583   */\n      0x00\n        /* \"#utility.yul\":2585:2591   */\n      dup1\n        /* \"#utility.yul\":2634:2636   */\n      0x40\n        /* \"#utility.yul\":2622:2631   */\n      dup4\n        /* \"#utility.yul\":2613:2620   */\n      dup6\n        /* \"#utility.yul\":2609:2632   */\n      sub\n        /* \"#utility.yul\":2605:2637   */\n      slt\n        /* \"#utility.yul\":2602:2721   */\n      iszero\n      tag_144\n      jumpi\n        /* \"#utility.yul\":2640:2719   */\n      tag_145\n      tag_83\n      jump\t// in\n    tag_145:\n        /* \"#utility.yul\":2602:2721   */\n    tag_144:\n        /* \"#utility.yul\":2760:2761   */\n      0x00\n        /* \"#utility.yul\":2785:2838   */\n      tag_146\n        /* \"#utility.yul\":2830:2837   */\n      dup6\n        /* \"#utility.yul\":2821:2827   */\n      dup3\n        /* \"#utility.yul\":2810:2819   */\n      dup7\n        /* \"#utility.yul\":2806:2828   */\n      add\n        /* \"#utility.yul\":2785:2838   */\n      tag_88\n      jump\t// in\n    tag_146:\n        /* \"#utility.yul\":2775:2838   */\n      swap3\n      pop\n        /* \"#utility.yul\":2731:2848   */\n      pop\n        /* \"#utility.yul\":2887:2889   */\n      0x20\n        /* \"#utility.yul\":2913:2966   */\n      tag_147\n        /* \"#utility.yul\":2958:2965   */\n      dup6\n        /* \"#utility.yul\":2949:2955   */\n      dup3\n        /* \"#utility.yul\":2938:2947   */\n      dup7\n        /* \"#utility.yul\":2934:2956   */\n      add\n        /* \"#utility.yul\":2913:2966   */\n      tag_90\n      jump\t// in\n    tag_147:\n        /* \"#utility.yul\":2903:2966   */\n      swap2\n      pop\n        /* \"#utility.yul\":2858:2976   */\n      pop\n        /* \"#utility.yul\":2509:2983   */\n      swap3\n      pop\n      swap3\n      swap1\n      pop\n      jump\t// out\n        /* \"#utility.yul\":2989:3158   */\n    tag_91:\n        /* \"#utility.yul\":3073:3084   */\n      0x00\n        /* \"#utility.yul\":3107:3113   */\n      dup3\n        /* \"#utility.yul\":3102:3105   */\n      dup3\n        /* \"#utility.yul\":3095:3114   */\n      mstore\n        /* \"#utility.yul\":3147:3151   */\n      0x20\n        /* \"#utility.yul\":3142:3145   */\n      dup3\n        /* \"#utility.yul\":3138:3152   */\n      add\n        /* \"#utility.yul\":3123:3152   */\n      swap1\n      pop\n        /* \"#utility.yul\":2989:3158   */\n      swap3\n      swap2\n      pop\n      pop\n      jump\t// out\n        /* \"#utility.yul\":3164:3334   */\n    tag_92:\n        /* \"#utility.yul\":3304:3326   */\n      0x496e73756666696369656e742062616c616e6365000000000000000000000000\n        /* \"#utility.yul\":3300:3301   */\n      0x00\n        /* \"#utility.yul\":3292:3298   */\n      dup3\n        /* \"#utility.yul\":3288:3302   */\n      add\n        /* \"#utility.yul\":3281:3327   */\n      mstore\n        /* \"#utility.yul\":3164:3334   */\n      pop\n      jump\t// out\n        /* \"#utility.yul\":3340:3706   */\n    tag_93:\n        /* \"#utility.yul\":3482:3485   */\n      0x00\n        /* \"#utility.yul\":3503:3570   */\n      tag_151\n        /* \"#utility.yul\":3567:3569   */\n      0x14\n        /* \"#utility.yul\":3562:3565   */\n      dup4\n        /* \"#utility.yul\":3503:3570   */\n      tag_91\n      jump\t// in\n    tag_151:\n        /* \"#utility.yul\":3496:3570   */\n      swap2\n      pop\n        /* \"#utility.yul\":3579:3672   */\n      tag_152\n        /* \"#utility.yul\":3668:3671   */\n      dup3\n        /* \"#utility.yul\":3579:3672   */\n      tag_92\n      jump\t// in\n    tag_152:\n        /* \"#utility.yul\":3697:3699   */\n      0x20\n        /* \"#utility.yul\":3692:3695   */\n      dup3\n        /* \"#utility.yul\":3688:3700   */\n      add\n        /* \"#utility.yul\":3681:3700   */\n      swap1\n      pop\n        /* \"#utility.yul\":3340:3706   */\n      swap2\n      swap1\n      pop\n      jump\t// out\n        /* \"#utility.yul\":3712:4131   */\n    tag_33:\n        /* \"#utility.yul\":3878:3882   */\n      0x00\n        /* \"#utility.yul\":3916:3918   */\n      0x20\n        /* \"#utility.yul\":3905:3914   */\n      dup3\n        /* \"#utility.yul\":3901:3919   */\n      add\n        /* \"#utility.yul\":3893:3919   */\n      swap1\n      pop\n        /* \"#utility.yul\":3965:3974   */\n      dup2\n        /* \"#utility.yul\":3959:3963   */\n      dup2\n        /* \"#utility.yul\":3955:3975   */\n      sub\n        /* \"#utility.yul\":3951:3952   */\n      0x00\n        /* \"#utility.yul\":3940:3949   */\n      dup4\n        /* \"#utility.yul\":3936:3953   */\n      add\n        /* \"#utility.yul\":3929:3976   */\n      mstore\n        /* \"#utility.yul\":3993:4124   */\n      tag_154\n        /* \"#utility.yul\":4119:4123   */\n      dup2\n        /* \"#utility.yul\":3993:4124   */\n      tag_93\n      jump\t// in\n    tag_154:\n        /* \"#utility.yul\":3985:4124   */\n      swap1\n      pop\n        /* \"#utility.yul\":3712:4131   */\n      swap2\n      swap1\n      pop\n      jump\t// out\n        /* \"#utility.yul\":4137:4304   */\n    tag_94:\n        /* \"#utility.yul\":4277:4296   */\n      0x496e76616c696420526563657069656e74000000000000000000000000000000\n        /* \"#utility.yul\":4273:4274   */\n      0x00\n        /* \"#utility.yul\":4265:4271   */\n      dup3\n        /* \"#utility.yul\":4261:4275   */\n      add\n        /* \"#utility.yul\":4254:4297   */\n      mstore\n        /* \"#utility.yul\":4137:4304   */\n      pop\n      jump\t// out\n        /* \"#utility.yul\":4310:4676   */\n    tag_95:\n        /* \"#utility.yul\":4452:4455   */\n      0x00\n        /* \"#utility.yul\":4473:4540   */\n      tag_157\n        /* \"#utility.yul\":4537:4539   */\n      0x11\n        /* \"#utility.yul\":4532:4535   */\n      dup4\n        /* \"#utility.yul\":4473:4540   */\n      tag_91\n      jump\t// in\n    tag_157:\n        /* \"#utility.yul\":4466:4540   */\n      swap2\n      pop\n        /* \"#utility.yul\":4549:4642   */\n      tag_158\n        /* \"#utility.yul\":4638:4641   */\n      dup3\n        /* \"#utility.yul\":4549:4642   */\n      tag_94\n      jump\t// in\n    tag_158:\n        /* \"#utility.yul\":4667:4669   */\n      0x20\n        /* \"#utility.yul\":4662:4665   */\n      dup3\n        /* \"#utility.yul\":4658:4670   */\n      add\n        /* \"#utility.yul\":4651:4670   */\n      swap1\n      pop\n        /* \"#utility.yul\":4310:4676   */\n      swap2\n      swap1\n      pop\n      jump\t// out\n        /* \"#utility.yul\":4682:5101   */\n    tag_36:\n        /* \"#utility.yul\":4848:4852   */\n      0x00\n        /* \"#utility.yul\":4886:4888   */\n      0x20\n        /* \"#utility.yul\":4875:4884   */\n      dup3\n        /* \"#utility.yul\":4871:4889   */\n      add\n        /* \"#utility.yul\":4863:4889   */\n      swap1\n      pop\n        /* \"#utility.yul\":4935:4944   */\n      dup2\n        /* \"#utility.yul\":4929:4933   */\n      dup2\n        /* \"#utility.yul\":4925:4945   */\n      sub\n        /* \"#utility.yul\":4921:4922   */\n      0x00\n        /* \"#utility.yul\":4910:4919   */\n      dup4\n        /* \"#utility.yul\":4906:4923   */\n      add\n        /* \"#utility.yul\":4899:4946   */\n      mstore\n        /* \"#utility.yul\":4963:5094   */\n      tag_160\n        /* \"#utility.yul\":5089:5093   */\n      dup2\n        /* \"#utility.yul\":4963:5094   */\n      tag_95\n      jump\t// in\n    tag_160:\n        /* \"#utility.yul\":4955:5094   */\n      swap1\n      pop\n        /* \"#utility.yul\":4682:5101   */\n      swap2\n      swap1\n      pop\n      jump\t// out\n        /* \"#utility.yul\":5107:5287   */\n    tag_96:\n        /* \"#utility.yul\":5155:5232   */\n      0x4e487b7100000000000000000000000000000000000000000000000000000000\n        /* \"#utility.yul\":5152:5153   */\n      0x00\n        /* \"#utility.yul\":5145:5233   */\n      mstore\n        /* \"#utility.yul\":5252:5256   */\n      0x11\n        /* \"#utility.yul\":5249:5250   */\n      0x04\n        /* \"#utility.yul\":5242:5257   */\n      mstore\n        /* \"#utility.yul\":5276:5280   */\n      0x24\n        /* \"#utility.yul\":5273:5274   */\n      0x00\n        /* \"#utility.yul\":5266:5281   */\n      revert\n        /* \"#utility.yul\":5293:5484   */\n    tag_38:\n        /* \"#utility.yul\":5333:5337   */\n      0x00\n        /* \"#utility.yul\":5353:5373   */\n      tag_163\n        /* \"#utility.yul\":5371:5372   */\n      dup3\n        /* \"#utility.yul\":5353:5373   */\n      tag_80\n      jump\t// in\n    tag_163:\n        /* \"#utility.yul\":5348:5373   */\n      swap2\n      pop\n        /* \"#utility.yul\":5387:5407   */\n      tag_164\n        /* \"#utility.yul\":5405:5406   */\n      dup4\n        /* \"#utility.yul\":5387:5407   */\n      tag_80\n      jump\t// in\n    tag_164:\n        /* \"#utility.yul\":5382:5407   */\n      swap3\n      pop\n        /* \"#utility.yul\":5426:5427   */\n      dup3\n        /* \"#utility.yul\":5423:5424   */\n      dup3\n        /* \"#utility.yul\":5420:5428   */\n      lt\n        /* \"#utility.yul\":5417:5451   */\n      iszero\n      tag_165\n      jumpi\n        /* \"#utility.yul\":5431:5449   */\n      tag_166\n      tag_96\n      jump\t// in\n    tag_166:\n        /* \"#utility.yul\":5417:5451   */\n    tag_165:\n        /* \"#utility.yul\":5476:5477   */\n      dup3\n        /* \"#utility.yul\":5473:5474   */\n      dup3\n        /* \"#utility.yul\":5469:5478   */\n      sub\n        /* \"#utility.yul\":5461:5478   */\n      swap1\n      pop\n        /* \"#utility.yul\":5293:5484   */\n      swap3\n      swap2\n      pop\n      pop\n      jump\t// out\n        /* \"#utility.yul\":5490:5795   */\n    tag_40:\n        /* \"#utility.yul\":5530:5533   */\n      0x00\n        /* \"#utility.yul\":5549:5569   */\n      tag_168\n        /* \"#utility.yul\":5567:5568   */\n      dup3\n        /* \"#utility.yul\":5549:5569   */\n      tag_80\n      jump\t// in\n    tag_168:\n        /* \"#utility.yul\":5544:5569   */\n      swap2\n      pop\n        /* \"#utility.yul\":5583:5603   */\n      tag_169\n        /* \"#utility.yul\":5601:5602   */\n      dup4\n        /* \"#utility.yul\":5583:5603   */\n      tag_80\n      jump\t// in\n    tag_169:\n        /* \"#utility.yul\":5578:5603   */\n      swap3\n      pop\n        /* \"#utility.yul\":5737:5738   */\n      dup3\n        /* \"#utility.yul\":5669:5735   */\n      0xffffffffffffffffffffffffffffffffffffffffffffffffffffffffffffffff\n        /* \"#utility.yul\":5665:5739   */\n      sub\n        /* \"#utility.yul\":5662:5663   */\n      dup3\n        /* \"#utility.yul\":5659:5740   */\n      gt\n        /* \"#utility.yul\":5656:5763   */\n      iszero\n      tag_170\n      jumpi\n        /* \"#utility.yul\":5743:5761   */\n      tag_171\n      tag_96\n      jump\t// in\n    tag_171:\n        /* \"#utility.yul\":5656:5763   */\n    tag_170:\n        /* \"#utility.yul\":5787:5788   */\n      dup3\n        /* \"#utility.yul\":5784:5785   */\n      dup3\n        /* \"#utility.yul\":5780:5789   */\n      add\n        /* \"#utility.yul\":5773:5789   */\n      swap1\n      pop\n        /* \"#utility.yul\":5490:5795   */\n      swap3\n      swap2\n      pop\n      pop\n      jump\t// out\n        /* \"#utility.yul\":5801:5968   */\n    tag_97:\n        /* \"#utility.yul\":5941:5960   */\n      0x4f7574476f696e67205472616e73666572000000000000000000000000000000\n        /* \"#utility.yul\":5937:5938   */\n      0x00\n        /* \"#utility.yul\":5929:5935   */\n      dup3\n        /* \"#utility.yul\":5925:5939   */\n      add\n        /* \"#utility.yul\":5918:5961   */\n      mstore\n        /* \"#utility.yul\":5801:5968   */\n      pop\n      jump\t// out\n        /* \"#utility.yul\":5974:6340   */\n    tag_98:\n        /* \"#utility.yul\":6116:6119   */\n      0x00\n        /* \"#utility.yul\":6137:6204   */\n      tag_174\n        /* \"#utility.yul\":6201:6203   */\n      0x11\n        /* \"#utility.yul\":6196:6199   */\n      dup4\n        /* \"#utility.yul\":6137:6204   */\n      tag_91\n      jump\t// in\n    tag_174:\n        /* \"#utility.yul\":6130:6204   */\n      swap2\n      pop\n        /* \"#utility.yul\":6213:6306   */\n      tag_175\n        /* \"#utility.yul\":6302:6305   */\n      dup3\n        /* \"#utility.yul\":6213:6306   */\n      tag_97\n      jump\t// in\n    tag_175:\n        /* \"#utility.yul\":6331:6333   */\n      0x20\n        /* \"#utility.yul\":6326:6329   */\n      dup3\n        /* \"#utility.yul\":6322:6334   */\n      add\n        /* \"#utility.yul\":6315:6334   */\n      swap1\n      pop\n        /* \"#utility.yul\":5974:6340   */\n      swap2\n      swap1\n      pop\n      jump\t// out\n        /* \"#utility.yul\":6346:6875   */\n    tag_42:\n        /* \"#utility.yul\":6540:6544   */\n      0x00\n        /* \"#utility.yul\":6578:6580   */\n      0x40\n        /* \"#utility.yul\":6567:6576   */\n      dup3\n        /* \"#utility.yul\":6563:6581   */\n      add\n        /* \"#utility.yul\":6555:6581   */\n      swap1\n      pop\n        /* \"#utility.yul\":6627:6636   */\n      dup2\n        /* \"#utility.yul\":6621:6625   */\n      dup2\n        /* \"#utility.yul\":6617:6637   */\n      sub\n        /* \"#utility.yul\":6613:6614   */\n      0x00\n        /* \"#utility.yul\":6602:6611   */\n      dup4\n        /* \"#utility.yul\":6598:6615   */\n      add\n        /* \"#utility.yul\":6591:6638   */\n      mstore\n        /* \"#utility.yul\":6655:6786   */\n      tag_177\n        /* \"#utility.yul\":6781:6785   */\n      dup2\n        /* \"#utility.yul\":6655:6786   */\n      tag_98\n      jump\t// in\n    tag_177:\n        /* \"#utility.yul\":6647:6786   */\n      swap1\n      pop\n        /* \"#utility.yul\":6796:6868   */\n      tag_178\n        /* \"#utility.yul\":6864:6866   */\n      0x20\n        /* \"#utility.yul\":6853:6862   */\n      dup4\n        /* \"#utility.yul\":6849:6867   */\n      add\n        /* \"#utility.yul\":6840:6846   */\n      dup5\n        /* \"#utility.yul\":6796:6868   */\n      tag_81\n      jump\t// in\n    tag_178:\n        /* \"#utility.yul\":6346:6875   */\n      swap3\n      swap2\n      pop\n      pop\n      jump\t// out\n        /* \"#utility.yul\":6881:7048   */\n    tag_99:\n        /* \"#utility.yul\":7021:7040   */\n      0x496e436f6d696e67205472616e73666572000000000000000000000000000000\n        /* \"#utility.yul\":7017:7018   */\n      0x00\n        /* \"#utility.yul\":7009:7015   */\n      dup3\n        /* \"#utility.yul\":7005:7019   */\n      add\n        /* \"#utility.yul\":6998:7041   */\n      mstore\n        /* \"#utility.yul\":6881:7048   */\n      pop\n      jump\t// out\n        /* \"#utility.yul\":7054:7420   */\n    tag_100:\n        /* \"#utility.yul\":7196:7199   */\n      0x00\n        /* \"#utility.yul\":7217:7284   */\n      tag_181\n        /* \"#utility.yul\":7281:7283   */\n      0x11\n        /* \"#utility.yul\":7276:7279   */\n      dup4\n        /* \"#utility.yul\":7217:7284   */\n      tag_91\n      jump\t// in\n    tag_181:\n        /* \"#utility.yul\":7210:7284   */\n      swap2\n      pop\n        /* \"#utility.yul\":7293:7386   */\n      tag_182\n        /* \"#utility.yul\":7382:7385   */\n      dup3\n        /* \"#utility.yul\":7293:7386   */\n      tag_99\n      jump\t// in\n    tag_182:\n        /* \"#utility.yul\":7411:7413   */\n      0x20\n        /* \"#utility.yul\":7406:7409   */\n      dup3\n        /* \"#utility.yul\":7402:7414   */\n      add\n        /* \"#utility.yul\":7395:7414   */\n      swap1\n      pop\n        /* \"#utility.yul\":7054:7420   */\n      swap2\n      swap1\n      pop\n      jump\t// out\n        /* \"#utility.yul\":7426:7955   */\n    tag_44:\n        /* \"#utility.yul\":7620:7624   */\n      0x00\n        /* \"#utility.yul\":7658:7660   */\n      0x40\n        /* \"#utility.yul\":7647:7656   */\n      dup3\n        /* \"#utility.yul\":7643:7661   */\n      add\n        /* \"#utility.yul\":7635:7661   */\n      swap1\n      pop\n        /* \"#utility.yul\":7707:7716   */\n      dup2\n        /* \"#utility.yul\":7701:7705   */\n      dup2\n        /* \"#utility.yul\":7697:7717   */\n      sub\n        /* \"#utility.yul\":7693:7694   */\n      0x00\n        /* \"#utility.yul\":7682:7691   */\n      dup4\n        /* \"#utility.yul\":7678:7695   */\n      add\n        /* \"#utility.yul\":7671:7718   */\n      mstore\n        /* \"#utility.yul\":7735:7866   */\n      tag_184\n        /* \"#utility.yul\":7861:7865   */\n      dup2\n        /* \"#utility.yul\":7735:7866   */\n      tag_100\n      jump\t// in\n    tag_184:\n        /* \"#utility.yul\":7727:7866   */\n      swap1\n      pop\n        /* \"#utility.yul\":7876:7948   */\n      tag_185\n        /* \"#utility.yul\":7944:7946   */\n      0x20\n        /* \"#utility.yul\":7933:7942   */\n      dup4\n        /* \"#utility.yul\":7929:7947   */\n      add\n        /* \"#utility.yul\":7920:7926   */\n      dup5\n        /* \"#utility.yul\":7876:7948   */\n      tag_81\n      jump\t// in\n    tag_185:\n        /* \"#utility.yul\":7426:7955   */\n      swap3\n      swap2\n      pop\n      pop\n      jump\t// out\n        /* \"#utility.yul\":7961:8141   */\n    tag_52:\n        /* \"#utility.yul\":8009:8086   */\n      0x4e487b7100000000000000000000000000000000000000000000000000000000\n        /* \"#utility.yul\":8006:8007   */\n      0x00\n        /* \"#utility.yul\":7999:8087   */\n      mstore\n        /* \"#utility.yul\":8106:8110   */\n      0x01\n        /* \"#utility.yul\":8103:8104   */\n      0x04\n        /* \"#utility.yul\":8096:8111   */\n      mstore\n        /* \"#utility.yul\":8130:8134   */\n      0x24\n        /* \"#utility.yul\":8127:8128   */\n      0x00\n        /* \"#utility.yul\":8120:8135   */\n      revert\n        /* \"#utility.yul\":8147:8305   */\n    tag_101:\n        /* \"#utility.yul\":8287:8297   */\n      0x5769746864726177000000000000000000000000000000000000000000000000\n        /* \"#utility.yul\":8283:8284   */\n      0x00\n        /* \"#utility.yul\":8275:8281   */\n      dup3\n        /* \"#utility.yul\":8271:8285   */\n      add\n        /* \"#utility.yul\":8264:8298   */\n      mstore\n        /* \"#utility.yul\":8147:8305   */\n      pop\n      jump\t// out\n        /* \"#utility.yul\":8311:8676   */\n    tag_102:\n        /* \"#utility.yul\":8453:8456   */\n      0x00\n        /* \"#utility.yul\":8474:8540   */\n      tag_189\n        /* \"#utility.yul\":8538:8539   */\n      0x08\n        /* \"#utility.yul\":8533:8536   */\n      dup4\n        /* \"#utility.yul\":8474:8540   */\n      tag_91\n      jump\t// in\n    tag_189:\n        /* \"#utility.yul\":8467:8540   */\n      swap2\n      pop\n        /* \"#utility.yul\":8549:8642   */\n      tag_190\n        /* \"#utility.yul\":8638:8641   */\n      dup3\n        /* \"#utility.yul\":8549:8642   */\n      tag_101\n      jump\t// in\n    tag_190:\n        /* \"#utility.yul\":8667:8669   */\n      0x20\n        /* \"#utility.yul\":8662:8665   */\n      dup3\n        /* \"#utility.yul\":8658:8670   */\n      add\n        /* \"#utility.yul\":8651:8670   */\n      swap1\n      pop\n        /* \"#utility.yul\":8311:8676   */\n      swap2\n      swap1\n      pop\n      jump\t// out\n        /* \"#utility.yul\":8682:9211   */\n    tag_54:\n        /* \"#utility.yul\":8876:8880   */\n      0x00\n        /* \"#utility.yul\":8914:8916   */\n      0x40\n        /* \"#utility.yul\":8903:8912   */\n      dup3\n        /* \"#utility.yul\":8899:8917   */\n      add\n        /* \"#utility.yul\":8891:8917   */\n      swap1\n      pop\n        /* \"#utility.yul\":8963:8972   */\n      dup2\n        /* \"#utility.yul\":8957:8961   */\n      dup2\n        /* \"#utility.yul\":8953:8973   */\n      sub\n        /* \"#utility.yul\":8949:8950   */\n      0x00\n        /* \"#utility.yul\":8938:8947   */\n      dup4\n        /* \"#utility.yul\":8934:8951   */\n      add\n        /* \"#utility.yul\":8927:8974   */\n      mstore\n        /* \"#utility.yul\":8991:9122   */\n      tag_192\n        /* \"#utility.yul\":9117:9121   */\n      dup2\n        /* \"#utility.yul\":8991:9122   */\n      tag_102\n      jump\t// in\n    tag_192:\n        /* \"#utility.yul\":8983:9122   */\n      swap1\n      pop\n        /* \"#utility.yul\":9132:9204   */\n      tag_193\n        /* \"#utility.yul\":9200:9202   */\n      0x20\n        /* \"#utility.yul\":9189:9198   */\n      dup4\n        /* \"#utility.yul\":9185:9203   */\n      add\n        /* \"#utility.yul\":9176:9182   */\n      dup5\n        /* \"#utility.yul\":9132:9204   */\n      tag_81\n      jump\t// in\n    tag_193:\n        /* \"#utility.yul\":8682:9211   */\n      swap3\n      swap2\n      pop\n      pop\n      jump\t// out\n        /* \"#utility.yul\":9217:9384   */\n    tag_103:\n        /* \"#utility.yul\":9357:9376   */\n      0x596f7520417265204e6f74204f776e6572000000000000000000000000000000\n        /* \"#utility.yul\":9353:9354   */\n      0x00\n        /* \"#utility.yul\":9345:9351   */\n      dup3\n        /* \"#utility.yul\":9341:9355   */\n      add\n        /* \"#utility.yul\":9334:9377   */\n      mstore\n        /* \"#utility.yul\":9217:9384   */\n      pop\n      jump\t// out\n        /* \"#utility.yul\":9390:9756   */\n    tag_104:\n        /* \"#utility.yul\":9532:9535   */\n      0x00\n        /* \"#utility.yul\":9553:9620   */\n      tag_196\n        /* \"#utility.yul\":9617:9619   */\n      0x11\n        /* \"#utility.yul\":9612:9615   */\n      dup4\n        /* \"#utility.yul\":9553:9620   */\n      tag_91\n      jump\t// in\n    tag_196:\n        /* \"#utility.yul\":9546:9620   */\n      swap2\n      pop\n        /* \"#utility.yul\":9629:9722   */\n      tag_197\n        /* \"#utility.yul\":9718:9721   */\n      dup3\n        /* \"#utility.yul\":9629:9722   */\n      tag_103\n      jump\t// in\n    tag_197:\n        /* \"#utility.yul\":9747:9749   */\n      0x20\n        /* \"#utility.yul\":9742:9745   */\n      dup3\n        /* \"#utility.yul\":9738:9750   */\n      add\n        /* \"#utility.yul\":9731:9750   */\n      swap1\n      pop\n        /* \"#utility.yul\":9390:9756   */\n      swap2\n      swap1\n      pop\n      jump\t// out\n        /* \"#utility.yul\":9762:10181   */\n    tag_58:\n        /* \"#utility.yul\":9928:9932   */\n      0x00\n        /* \"#utility.yul\":9966:9968   */\n      0x20\n        /* \"#utility.yul\":9955:9964   */\n      dup3\n        /* \"#utility.yul\":9951:9969   */\n      add\n        /* \"#utility.yul\":9943:9969   */\n      swap1\n      pop\n        /* \"#utility.yul\":10015:10024   */\n      dup2\n        /* \"#utility.yul\":10009:10013   */\n      dup2\n        /* \"#utility.yul\":10005:10025   */\n      sub\n        /* \"#utility.yul\":10001:10002   */\n      0x00\n        /* \"#utility.yul\":9990:9999   */\n      dup4\n        /* \"#utility.yul\":9986:10003   */\n      add\n        /* \"#utility.yul\":9979:10026   */\n      mstore\n        /* \"#utility.yul\":10043:10174   */\n      tag_199\n        /* \"#utility.yul\":10169:10173   */\n      dup2\n        /* \"#utility.yul\":10043:10174   */\n      tag_104\n      jump\t// in\n    tag_199:\n        /* \"#utility.yul\":10035:10174   */\n      swap1\n      pop\n        /* \"#utility.yul\":9762:10181   */\n      swap2\n      swap1\n      pop\n      jump\t// out\n        /* \"#utility.yul\":10187:10359   */\n    tag_105:\n        /* \"#utility.yul\":10327:10351   */\n      0x496e73756666696369656e7420526563697069656e7400000000000000000000\n        /* \"#utility.yul\":10323:10324   */\n      0x00\n        /* \"#utility.yul\":10315:10321   */\n      dup3\n        /* \"#utility.yul\":10311:10325   */\n      add\n        /* \"#utility.yul\":10304:10352   */\n      mstore\n        /* \"#utility.yul\":10187:10359   */\n      pop\n      jump\t// out\n        /* \"#utility.yul\":10365:10731   */\n    tag_106:\n        /* \"#utility.yul\":10507:10510   */\n      0x00\n        /* \"#utility.yul\":10528:10595   */\n      tag_202\n        /* \"#utility.yul\":10592:10594   */\n      0x16\n        /* \"#utility.yul\":10587:10590   */\n      dup4\n        /* \"#utility.yul\":10528:10595   */\n      tag_91\n      jump\t// in\n    tag_202:\n        /* \"#utility.yul\":10521:10595   */\n      swap2\n      pop\n        /* \"#utility.yul\":10604:10697   */\n      tag_203\n        /* \"#utility.yul\":10693:10696   */\n      dup3\n        /* \"#utility.yul\":10604:10697   */\n      tag_105\n      jump\t// in\n    tag_203:\n        /* \"#utility.yul\":10722:10724   */\n      0x20\n        /* \"#utility.yul\":10717:10720   */\n      dup3\n        /* \"#utility.yul\":10713:10725   */\n      add\n        /* \"#utility.yul\":10706:10725   */\n      swap1\n      pop\n        /* \"#utility.yul\":10365:10731   */\n      swap2\n      swap1\n      pop\n      jump\t// out\n        /* \"#utility.yul\":10737:11156   */\n    tag_64:\n        /* \"#utility.yul\":10903:10907   */\n      0x00\n        /* \"#utility.yul\":10941:10943   */\n      0x20\n        /* \"#utility.yul\":10930:10939   */\n      dup3\n        /* \"#utility.yul\":10926:10944   */\n      add\n        /* \"#utility.yul\":10918:10944   */\n      swap1\n      pop\n        /* \"#utility.yul\":10990:10999   */\n      dup2\n        /* \"#utility.yul\":10984:10988   */\n      dup2\n        /* \"#utility.yul\":10980:11000   */\n      sub\n        /* \"#utility.yul\":10976:10977   */\n      0x00\n        /* \"#utility.yul\":10965:10974   */\n      dup4\n        /* \"#utility.yul\":10961:10978   */\n      add\n        /* \"#utility.yul\":10954:11001   */\n      mstore\n        /* \"#utility.yul\":11018:11149   */\n      tag_205\n        /* \"#utility.yul\":11144:11148   */\n      dup2\n        /* \"#utility.yul\":11018:11149   */\n      tag_106\n      jump\t// in\n    tag_205:\n        /* \"#utility.yul\":11010:11149   */\n      swap1\n      pop\n        /* \"#utility.yul\":10737:11156   */\n      swap2\n      swap1\n      pop\n      jump\t// out\n        /* \"#utility.yul\":11162:11328   */\n    tag_107:\n        /* \"#utility.yul\":11302:11320   */\n      0x4f7574476f696e67205472617366657200000000000000000000000000000000\n        /* \"#utility.yul\":11298:11299   */\n      0x00\n        /* \"#utility.yul\":11290:11296   */\n      dup3\n        /* \"#utility.yul\":11286:11300   */\n      add\n        /* \"#utility.yul\":11279:11321   */\n      mstore\n        /* \"#utility.yul\":11162:11328   */\n      pop\n      jump\t// out\n        /* \"#utility.yul\":11334:11700   */\n    tag_108:\n        /* \"#utility.yul\":11476:11479   */\n      0x00\n        /* \"#utility.yul\":11497:11564   */\n      tag_208\n        /* \"#utility.yul\":11561:11563   */\n      0x10\n        /* \"#utility.yul\":11556:11559   */\n      dup4\n        /* \"#utility.yul\":11497:11564   */\n      tag_91\n      jump\t// in\n    tag_208:\n        /* \"#utility.yul\":11490:11564   */\n      swap2\n      pop\n        /* \"#utility.yul\":11573:11666   */\n      tag_209\n        /* \"#utility.yul\":11662:11665   */\n      dup3\n        /* \"#utility.yul\":11573:11666   */\n      tag_107\n      jump\t// in\n    tag_209:\n        /* \"#utility.yul\":11691:11693   */\n      0x20\n        /* \"#utility.yul\":11686:11689   */\n      dup3\n        /* \"#utility.yul\":11682:11694   */\n      add\n        /* \"#utility.yul\":11675:11694   */\n      swap1\n      pop\n        /* \"#utility.yul\":11334:11700   */\n      swap2\n      swap1\n      pop\n      jump\t// out\n        /* \"#utility.yul\":11706:12235   */\n    tag_68:\n        /* \"#utility.yul\":11900:11904   */\n      0x00\n        /* \"#utility.yul\":11938:11940   */\n      0x40\n        /* \"#utility.yul\":11927:11936   */\n      dup3\n        /* \"#utility.yul\":11923:11941   */\n      add\n        /* \"#utility.yul\":11915:11941   */\n      swap1\n      pop\n        /* \"#utility.yul\":11987:11996   */\n      dup2\n        /* \"#utility.yul\":11981:11985   */\n      dup2\n        /* \"#utility.yul\":11977:11997   */\n      sub\n        /* \"#utility.yul\":11973:11974   */\n      0x00\n        /* \"#utility.yul\":11962:11971   */\n      dup4\n        /* \"#utility.yul\":11958:11975   */\n      add\n        /* \"#utility.yul\":11951:11998   */\n      mstore\n        /* \"#utility.yul\":12015:12146   */\n      tag_211\n        /* \"#utility.yul\":12141:12145   */\n      dup2\n        /* \"#utility.yul\":12015:12146   */\n      tag_108\n      jump\t// in\n    tag_211:\n        /* \"#utility.yul\":12007:12146   */\n      swap1\n      pop\n        /* \"#utility.yul\":12156:12228   */\n      tag_212\n        /* \"#utility.yul\":12224:12226   */\n      0x20\n        /* \"#utility.yul\":12213:12222   */\n      dup4\n        /* \"#utility.yul\":12209:12227   */\n      add\n        /* \"#utility.yul\":12200:12206   */\n      dup5\n        /* \"#utility.yul\":12156:12228   */\n      tag_81\n      jump\t// in\n    tag_212:\n        /* \"#utility.yul\":11706:12235   */\n      swap3\n      swap2\n      pop\n      pop\n      jump\t// out\n        /* \"#utility.yul\":12241:12398   */\n    tag_109:\n        /* \"#utility.yul\":12381:12390   */\n      0x4465706f73697400000000000000000000000000000000000000000000000000\n        /* \"#utility.yul\":12377:12378   */\n      0x00\n        /* \"#utility.yul\":12369:12375   */\n      dup3\n        /* \"#utility.yul\":12365:12379   */\n      add\n        /* \"#utility.yul\":12358:12391   */\n      mstore\n        /* \"#utility.yul\":12241:12398   */\n      pop\n      jump\t// out\n        /* \"#utility.yul\":12404:12769   */\n    tag_110:\n        /* \"#utility.yul\":12546:12549   */\n      0x00\n        /* \"#utility.yul\":12567:12633   */\n      tag_215\n        /* \"#utility.yul\":12631:12632   */\n      0x07\n        /* \"#utility.yul\":12626:12629   */\n      dup4\n        /* \"#utility.yul\":12567:12633   */\n      tag_91\n      jump\t// in\n    tag_215:\n        /* \"#utility.yul\":12560:12633   */\n      swap2\n      pop\n        /* \"#utility.yul\":12642:12735   */\n      tag_216\n        /* \"#utility.yul\":12731:12734   */\n      dup3\n        /* \"#utility.yul\":12642:12735   */\n      tag_109\n      jump\t// in\n    tag_216:\n        /* \"#utility.yul\":12760:12762   */\n      0x20\n        /* \"#utility.yul\":12755:12758   */\n      dup3\n        /* \"#utility.yul\":12751:12763   */\n      add\n        /* \"#utility.yul\":12744:12763   */\n      swap1\n      pop\n        /* \"#utility.yul\":12404:12769   */\n      swap2\n      swap1\n      pop\n      jump\t// out\n        /* \"#utility.yul\":12775:13304   */\n    tag_76:\n        /* \"#utility.yul\":12969:12973   */\n      0x00\n        /* \"#utility.yul\":13007:13009   */\n      0x40\n        /* \"#utility.yul\":12996:13005   */\n      dup3\n        /* \"#utility.yul\":12992:13010   */\n      add\n        /* \"#utility.yul\":12984:13010   */\n      swap1\n      pop\n        /* \"#utility.yul\":13056:13065   */\n      dup2\n        /* \"#utility.yul\":13050:13054   */\n      dup2\n        /* \"#utility.yul\":13046:13066   */\n      sub\n        /* \"#utility.yul\":13042:13043   */\n      0x00\n        /* \"#utility.yul\":13031:13040   */\n      dup4\n        /* \"#utility.yul\":13027:13044   */\n      add\n        /* \"#utility.yul\":13020:13067   */\n      mstore\n        /* \"#utility.yul\":13084:13215   */\n      tag_218\n        /* \"#utility.yul\":13210:13214   */\n      dup2\n        /* \"#utility.yul\":13084:13215   */\n      tag_110\n      jump\t// in\n    tag_218:\n        /* \"#utility.yul\":13076:13215   */\n      swap1\n      pop\n        /* \"#utility.yul\":13225:13297   */\n      tag_219\n        /* \"#utility.yul\":13293:13295   */\n      0x20\n        /* \"#utility.yul\":13282:13291   */\n      dup4\n        /* \"#utility.yul\":13278:13296   */\n      add\n        /* \"#utility.yul\":13269:13275   */\n      dup5\n        /* \"#utility.yul\":13225:13297   */\n      tag_81\n      jump\t// in\n    tag_219:\n        /* \"#utility.yul\":12775:13304   */\n      swap3\n      swap2\n      pop\n      pop\n      jump\t// out\n\n    auxdata: 0xa2646970667358221220f3710f27a2aff09a10a259f9b68acb38acee645b369d571fc1c380e5feab282064736f6c634300080f0033\n}\n",
				"bytecode": {
					"linkReferences": {},
					"object": "608060405234801561001057600080fd5b50336000806101000a81548173ffffffffffffffffffffffffffffffffffffffff021916908373ffffffffffffffffffffffffffffffffffffffff16021790555061112e806100606000396000f3fe60806040526004361061004a5760003560e01c806312065fe01461004f57806323b872dd1461007a5780632e1a7d4d146100a3578063a9059cbb146100cc578063d0e30db0146100f5575b600080fd5b34801561005b57600080fd5b506100646100ff565b6040516100719190610a83565b60405180910390f35b34801561008657600080fd5b506100a1600480360381019061009c9190610b2d565b610146565b005b3480156100af57600080fd5b506100ca60048036038101906100c59190610b80565b610401565b005b3480156100d857600080fd5b506100f360048036038101906100ee9190610bad565b6105d3565b005b6100fd610846565b005b6000600160003373ffffffffffffffffffffffffffffffffffffffff1673ffffffffffffffffffffffffffffffffffffffff16815260200190815260200160002054905090565b80600160008573ffffffffffffffffffffffffffffffffffffffff1673ffffffffffffffffffffffffffffffffffffffff1681526020019081526020016000205410156101c8576040517f08c379a00000000000000000000000000000000000000000000000000000000081526004016101bf90610c4a565b60405180910390fd5b8173ffffffffffffffffffffffffffffffffffffffff168373ffffffffffffffffffffffffffffffffffffffff1603610236576040517f08c379a000000000000000000000000000000000000000000000000000000000815260040161022d90610cb6565b60405180910390fd5b80600160008573ffffffffffffffffffffffffffffffffffffffff1673ffffffffffffffffffffffffffffffffffffffff16815260200190815260200160002060008282546102859190610d05565b9250508190555080600160008473ffffffffffffffffffffffffffffffffffffffff1673ffffffffffffffffffffffffffffffffffffffff16815260200190815260200160002060008282546102db9190610d39565b925050819055508273ffffffffffffffffffffffffffffffffffffffff167f747fe8563263661fb53c6a99a1d6753bbcba100faa6979d07ead10fb9c84d050600160008673ffffffffffffffffffffffffffffffffffffffff1673ffffffffffffffffffffffffffffffffffffffff168152602001908152602001600020546040516103679190610ddb565b60405180910390a28173ffffffffffffffffffffffffffffffffffffffff167f747fe8563263661fb53c6a99a1d6753bbcba100faa6979d07ead10fb9c84d050600160008573ffffffffffffffffffffffffffffffffffffffff1673ffffffffffffffffffffffffffffffffffffffff168152602001908152602001600020546040516103f49190610e55565b60405180910390a2505050565b6000600160003373ffffffffffffffffffffffffffffffffffffffff1673ffffffffffffffffffffffffffffffffffffffff16815260200190815260200160002054905081600160003373ffffffffffffffffffffffffffffffffffffffff1673ffffffffffffffffffffffffffffffffffffffff16815260200190815260200160002060008282546104949190610d05565b925050819055503373ffffffffffffffffffffffffffffffffffffffff166108fc839081150290604051600060405180830381858888f193505050501580156104e1573d6000803e3d6000fd5b506000600160003373ffffffffffffffffffffffffffffffffffffffff1673ffffffffffffffffffffffffffffffffffffffff16815260200190815260200160002054905082826105329190610d05565b811461054157610540610e83565b5b3373ffffffffffffffffffffffffffffffffffffffff167f747fe8563263661fb53c6a99a1d6753bbcba100faa6979d07ead10fb9c84d050600160003373ffffffffffffffffffffffffffffffffffffffff1673ffffffffffffffffffffffffffffffffffffffff168152602001908152602001600020546040516105c69190610efe565b60405180910390a2505050565b60008054906101000a900473ffffffffffffffffffffffffffffffffffffffff1673ffffffffffffffffffffffffffffffffffffffff163373ffffffffffffffffffffffffffffffffffffffff1614610661576040517f08c379a000000000000000000000000000000000000000000000000000000000815260040161065890610f78565b60405180910390fd5b8080600160003373ffffffffffffffffffffffffffffffffffffffff1673ffffffffffffffffffffffffffffffffffffffff1681526020019081526020016000205410156106ae57600080fd5b8273ffffffffffffffffffffffffffffffffffffffff163373ffffffffffffffffffffffffffffffffffffffff160361071c576040517f08c379a000000000000000000000000000000000000000000000000000000000815260040161071390610fe4565b60405180910390fd5b6107273384846109b9565b3373ffffffffffffffffffffffffffffffffffffffff167f747fe8563263661fb53c6a99a1d6753bbcba100faa6979d07ead10fb9c84d050600160003373ffffffffffffffffffffffffffffffffffffffff1673ffffffffffffffffffffffffffffffffffffffff168152602001908152602001600020546040516107ac9190611050565b60405180910390a28273ffffffffffffffffffffffffffffffffffffffff167f747fe8563263661fb53c6a99a1d6753bbcba100faa6979d07ead10fb9c84d050600160008673ffffffffffffffffffffffffffffffffffffffff1673ffffffffffffffffffffffffffffffffffffffff168152602001908152602001600020546040516108399190610e55565b60405180910390a2505050565b60008054906101000a900473ffffffffffffffffffffffffffffffffffffffff1673ffffffffffffffffffffffffffffffffffffffff163373ffffffffffffffffffffffffffffffffffffffff16146108d4576040517f08c379a00000000000000000000000000000000000000000000000000000000081526004016108cb90610f78565b60405180910390fd5b34600160003373ffffffffffffffffffffffffffffffffffffffff1673ffffffffffffffffffffffffffffffffffffffff16815260200190815260200160002060008282546109239190610d39565b925050819055503373ffffffffffffffffffffffffffffffffffffffff167f747fe8563263661fb53c6a99a1d6753bbcba100faa6979d07ead10fb9c84d050600160003373ffffffffffffffffffffffffffffffffffffffff1673ffffffffffffffffffffffffffffffffffffffff168152602001908152602001600020546040516109af91906110ca565b60405180910390a2565b80600160008573ffffffffffffffffffffffffffffffffffffffff1673ffffffffffffffffffffffffffffffffffffffff1681526020019081526020016000206000828254610a089190610d05565b9250508190555080600160008473ffffffffffffffffffffffffffffffffffffffff1673ffffffffffffffffffffffffffffffffffffffff1681526020019081526020016000206000828254610a5e9190610d39565b92505081905550505050565b6000819050919050565b610a7d81610a6a565b82525050565b6000602082019050610a986000830184610a74565b92915050565b600080fd5b600073ffffffffffffffffffffffffffffffffffffffff82169050919050565b6000610ace82610aa3565b9050919050565b610ade81610ac3565b8114610ae957600080fd5b50565b600081359050610afb81610ad5565b92915050565b610b0a81610a6a565b8114610b1557600080fd5b50565b600081359050610b2781610b01565b92915050565b600080600060608486031215610b4657610b45610a9e565b5b6000610b5486828701610aec565b9350506020610b6586828701610aec565b9250506040610b7686828701610b18565b9150509250925092565b600060208284031215610b9657610b95610a9e565b5b6000610ba484828501610b18565b91505092915050565b60008060408385031215610bc457610bc3610a9e565b5b6000610bd285828601610aec565b9250506020610be385828601610b18565b9150509250929050565b600082825260208201905092915050565b7f496e73756666696369656e742062616c616e6365000000000000000000000000600082015250565b6000610c34601483610bed565b9150610c3f82610bfe565b602082019050919050565b60006020820190508181036000830152610c6381610c27565b9050919050565b7f496e76616c696420526563657069656e74000000000000000000000000000000600082015250565b6000610ca0601183610bed565b9150610cab82610c6a565b602082019050919050565b60006020820190508181036000830152610ccf81610c93565b9050919050565b7f4e487b7100000000000000000000000000000000000000000000000000000000600052601160045260246000fd5b6000610d1082610a6a565b9150610d1b83610a6a565b925082821015610d2e57610d2d610cd6565b5b828203905092915050565b6000610d4482610a6a565b9150610d4f83610a6a565b9250827fffffffffffffffffffffffffffffffffffffffffffffffffffffffffffffffff03821115610d8457610d83610cd6565b5b828201905092915050565b7f4f7574476f696e67205472616e73666572000000000000000000000000000000600082015250565b6000610dc5601183610bed565b9150610dd082610d8f565b602082019050919050565b60006040820190508181036000830152610df481610db8565b9050610e036020830184610a74565b92915050565b7f496e436f6d696e67205472616e73666572000000000000000000000000000000600082015250565b6000610e3f601183610bed565b9150610e4a82610e09565b602082019050919050565b60006040820190508181036000830152610e6e81610e32565b9050610e7d6020830184610a74565b92915050565b7f4e487b7100000000000000000000000000000000000000000000000000000000600052600160045260246000fd5b7f5769746864726177000000000000000000000000000000000000000000000000600082015250565b6000610ee8600883610bed565b9150610ef382610eb2565b602082019050919050565b60006040820190508181036000830152610f1781610edb565b9050610f266020830184610a74565b92915050565b7f596f7520417265204e6f74204f776e6572000000000000000000000000000000600082015250565b6000610f62601183610bed565b9150610f6d82610f2c565b602082019050919050565b60006020820190508181036000830152610f9181610f55565b9050919050565b7f496e73756666696369656e7420526563697069656e7400000000000000000000600082015250565b6000610fce601683610bed565b9150610fd982610f98565b602082019050919050565b60006020820190508181036000830152610ffd81610fc1565b9050919050565b7f4f7574476f696e67205472617366657200000000000000000000000000000000600082015250565b600061103a601083610bed565b915061104582611004565b602082019050919050565b600060408201905081810360008301526110698161102d565b90506110786020830184610a74565b92915050565b7f4465706f73697400000000000000000000000000000000000000000000000000600082015250565b60006110b4600783610bed565b91506110bf8261107e565b602082019050919050565b600060408201905081810360008301526110e3816110a7565b90506110f26020830184610a74565b9291505056fea2646970667358221220f3710f27a2aff09a10a259f9b68acb38acee645b369d571fc1c380e5feab282064736f6c634300080f0033",
					"opcodes": "PUSH1 0x80 PUSH1 0x40 MSTORE CALLVALUE DUP1 ISZERO PUSH2 0x10 JUMPI PUSH1 0x0 DUP1 REVERT JUMPDEST POP CALLER PUSH1 0x0 DUP1 PUSH2 0x100 EXP DUP2 SLOAD DUP2 PUSH20 0xFFFFFFFFFFFFFFFFFFFFFFFFFFFFFFFFFFFFFFFF MUL NOT AND SWAP1 DUP4 PUSH20 0xFFFFFFFFFFFFFFFFFFFFFFFFFFFFFFFFFFFFFFFF AND MUL OR SWAP1 SSTORE POP PUSH2 0x112E DUP1 PUSH2 0x60 PUSH1 0x0 CODECOPY PUSH1 0x0 RETURN INVALID PUSH1 0x80 PUSH1 0x40 MSTORE PUSH1 0x4 CALLDATASIZE LT PUSH2 0x4A JUMPI PUSH1 0x0 CALLDATALOAD PUSH1 0xE0 SHR DUP1 PUSH4 0x12065FE0 EQ PUSH2 0x4F JUMPI DUP1 PUSH4 0x23B872DD EQ PUSH2 0x7A JUMPI DUP1 PUSH4 0x2E1A7D4D EQ PUSH2 0xA3 JUMPI DUP1 PUSH4 0xA9059CBB EQ PUSH2 0xCC JUMPI DUP1 PUSH4 0xD0E30DB0 EQ PUSH2 0xF5 JUMPI JUMPDEST PUSH1 0x0 DUP1 REVERT JUMPDEST CALLVALUE DUP1 ISZERO PUSH2 0x5B JUMPI PUSH1 0x0 DUP1 REVERT JUMPDEST POP PUSH2 0x64 PUSH2 0xFF JUMP JUMPDEST PUSH1 0x40 MLOAD PUSH2 0x71 SWAP2 SWAP1 PUSH2 0xA83 JUMP JUMPDEST PUSH1 0x40 MLOAD DUP1 SWAP2 SUB SWAP1 RETURN JUMPDEST CALLVALUE DUP1 ISZERO PUSH2 0x86 JUMPI PUSH1 0x0 DUP1 REVERT JUMPDEST POP PUSH2 0xA1 PUSH1 0x4 DUP1 CALLDATASIZE SUB DUP2 ADD SWAP1 PUSH2 0x9C SWAP2 SWAP1 PUSH2 0xB2D JUMP JUMPDEST PUSH2 0x146 JUMP JUMPDEST STOP JUMPDEST CALLVALUE DUP1 ISZERO PUSH2 0xAF JUMPI PUSH1 0x0 DUP1 REVERT JUMPDEST POP PUSH2 0xCA PUSH1 0x4 DUP1 CALLDATASIZE SUB DUP2 ADD SWAP1 PUSH2 0xC5 SWAP2 SWAP1 PUSH2 0xB80 JUMP JUMPDEST PUSH2 0x401 JUMP JUMPDEST STOP JUMPDEST CALLVALUE DUP1 ISZERO PUSH2 0xD8 JUMPI PUSH1 0x0 DUP1 REVERT JUMPDEST POP PUSH2 0xF3 PUSH1 0x4 DUP1 CALLDATASIZE SUB DUP2 ADD SWAP1 PUSH2 0xEE SWAP2 SWAP1 PUSH2 0xBAD JUMP JUMPDEST PUSH2 0x5D3 JUMP JUMPDEST STOP JUMPDEST PUSH2 0xFD PUSH2 0x846 JUMP JUMPDEST STOP JUMPDEST PUSH1 0x0 PUSH1 0x1 PUSH1 0x0 CALLER PUSH20 0xFFFFFFFFFFFFFFFFFFFFFFFFFFFFFFFFFFFFFFFF AND PUSH20 0xFFFFFFFFFFFFFFFFFFFFFFFFFFFFFFFFFFFFFFFF AND DUP2 MSTORE PUSH1 0x20 ADD SWAP1 DUP2 MSTORE PUSH1 0x20 ADD PUSH1 0x0 KECCAK256 SLOAD SWAP1 POP SWAP1 JUMP JUMPDEST DUP1 PUSH1 0x1 PUSH1 0x0 DUP6 PUSH20 0xFFFFFFFFFFFFFFFFFFFFFFFFFFFFFFFFFFFFFFFF AND PUSH20 0xFFFFFFFFFFFFFFFFFFFFFFFFFFFFFFFFFFFFFFFF AND DUP2 MSTORE PUSH1 0x20 ADD SWAP1 DUP2 MSTORE PUSH1 0x20 ADD PUSH1 0x0 KECCAK256 SLOAD LT ISZERO PUSH2 0x1C8 JUMPI PUSH1 0x40 MLOAD PUSH32 0x8C379A000000000000000000000000000000000000000000000000000000000 DUP2 MSTORE PUSH1 0x4 ADD PUSH2 0x1BF SWAP1 PUSH2 0xC4A JUMP JUMPDEST PUSH1 0x40 MLOAD DUP1 SWAP2 SUB SWAP1 REVERT JUMPDEST DUP2 PUSH20 0xFFFFFFFFFFFFFFFFFFFFFFFFFFFFFFFFFFFFFFFF AND DUP4 PUSH20 0xFFFFFFFFFFFFFFFFFFFFFFFFFFFFFFFFFFFFFFFF AND SUB PUSH2 0x236 JUMPI PUSH1 0x40 MLOAD PUSH32 0x8C379A000000000000000000000000000000000000000000000000000000000 DUP2 MSTORE PUSH1 0x4 ADD PUSH2 0x22D SWAP1 PUSH2 0xCB6 JUMP JUMPDEST PUSH1 0x40 MLOAD DUP1 SWAP2 SUB SWAP1 REVERT JUMPDEST DUP1 PUSH1 0x1 PUSH1 0x0 DUP6 PUSH20 0xFFFFFFFFFFFFFFFFFFFFFFFFFFFFFFFFFFFFFFFF AND PUSH20 0xFFFFFFFFFFFFFFFFFFFFFFFFFFFFFFFFFFFFFFFF AND DUP2 MSTORE PUSH1 0x20 ADD SWAP1 DUP2 MSTORE PUSH1 0x20 ADD PUSH1 0x0 KECCAK256 PUSH1 0x0 DUP3 DUP3 SLOAD PUSH2 0x285 SWAP2 SWAP1 PUSH2 0xD05 JUMP JUMPDEST SWAP3 POP POP DUP2 SWAP1 SSTORE POP DUP1 PUSH1 0x1 PUSH1 0x0 DUP5 PUSH20 0xFFFFFFFFFFFFFFFFFFFFFFFFFFFFFFFFFFFFFFFF AND PUSH20 0xFFFFFFFFFFFFFFFFFFFFFFFFFFFFFFFFFFFFFFFF AND DUP2 MSTORE PUSH1 0x20 ADD SWAP1 DUP2 MSTORE PUSH1 0x20 ADD PUSH1 0x0 KECCAK256 PUSH1 0x0 DUP3 DUP3 SLOAD PUSH2 0x2DB SWAP2 SWAP1 PUSH2 0xD39 JUMP JUMPDEST SWAP3 POP POP DUP2 SWAP1 SSTORE POP DUP3 PUSH20 0xFFFFFFFFFFFFFFFFFFFFFFFFFFFFFFFFFFFFFFFF AND PUSH32 0x747FE8563263661FB53C6A99A1D6753BBCBA100FAA6979D07EAD10FB9C84D050 PUSH1 0x1 PUSH1 0x0 DUP7 PUSH20 0xFFFFFFFFFFFFFFFFFFFFFFFFFFFFFFFFFFFFFFFF AND PUSH20 0xFFFFFFFFFFFFFFFFFFFFFFFFFFFFFFFFFFFFFFFF AND DUP2 MSTORE PUSH1 0x20 ADD SWAP1 DUP2 MSTORE PUSH1 0x20 ADD PUSH1 0x0 KECCAK256 SLOAD PUSH1 0x40 MLOAD PUSH2 0x367 SWAP2 SWAP1 PUSH2 0xDDB JUMP JUMPDEST PUSH1 0x40 MLOAD DUP1 SWAP2 SUB SWAP1 LOG2 DUP2 PUSH20 0xFFFFFFFFFFFFFFFFFFFFFFFFFFFFFFFFFFFFFFFF AND PUSH32 0x747FE8563263661FB53C6A99A1D6753BBCBA100FAA6979D07EAD10FB9C84D050 PUSH1 0x1 PUSH1 0x0 DUP6 PUSH20 0xFFFFFFFFFFFFFFFFFFFFFFFFFFFFFFFFFFFFFFFF AND PUSH20 0xFFFFFFFFFFFFFFFFFFFFFFFFFFFFFFFFFFFFFFFF AND DUP2 MSTORE PUSH1 0x20 ADD SWAP1 DUP2 MSTORE PUSH1 0x20 ADD PUSH1 0x0 KECCAK256 SLOAD PUSH1 0x40 MLOAD PUSH2 0x3F4 SWAP2 SWAP1 PUSH2 0xE55 JUMP JUMPDEST PUSH1 0x40 MLOAD DUP1 SWAP2 SUB SWAP1 LOG2 POP POP POP JUMP JUMPDEST PUSH1 0x0 PUSH1 0x1 PUSH1 0x0 CALLER PUSH20 0xFFFFFFFFFFFFFFFFFFFFFFFFFFFFFFFFFFFFFFFF AND PUSH20 0xFFFFFFFFFFFFFFFFFFFFFFFFFFFFFFFFFFFFFFFF AND DUP2 MSTORE PUSH1 0x20 ADD SWAP1 DUP2 MSTORE PUSH1 0x20 ADD PUSH1 0x0 KECCAK256 SLOAD SWAP1 POP DUP2 PUSH1 0x1 PUSH1 0x0 CALLER PUSH20 0xFFFFFFFFFFFFFFFFFFFFFFFFFFFFFFFFFFFFFFFF AND PUSH20 0xFFFFFFFFFFFFFFFFFFFFFFFFFFFFFFFFFFFFFFFF AND DUP2 MSTORE PUSH1 0x20 ADD SWAP1 DUP2 MSTORE PUSH1 0x20 ADD PUSH1 0x0 KECCAK256 PUSH1 0x0 DUP3 DUP3 SLOAD PUSH2 0x494 SWAP2 SWAP1 PUSH2 0xD05 JUMP JUMPDEST SWAP3 POP POP DUP2 SWAP1 SSTORE POP CALLER PUSH20 0xFFFFFFFFFFFFFFFFFFFFFFFFFFFFFFFFFFFFFFFF AND PUSH2 0x8FC DUP4 SWAP1 DUP2 ISZERO MUL SWAP1 PUSH1 0x40 MLOAD PUSH1 0x0 PUSH1 0x40 MLOAD DUP1 DUP4 SUB DUP2 DUP6 DUP9 DUP9 CALL SWAP4 POP POP POP POP ISZERO DUP1 ISZERO PUSH2 0x4E1 JUMPI RETURNDATASIZE PUSH1 0x0 DUP1 RETURNDATACOPY RETURNDATASIZE PUSH1 0x0 REVERT JUMPDEST POP PUSH1 0x0 PUSH1 0x1 PUSH1 0x0 CALLER PUSH20 0xFFFFFFFFFFFFFFFFFFFFFFFFFFFFFFFFFFFFFFFF AND PUSH20 0xFFFFFFFFFFFFFFFFFFFFFFFFFFFFFFFFFFFFFFFF AND DUP2 MSTORE PUSH1 0x20 ADD SWAP1 DUP2 MSTORE PUSH1 0x20 ADD PUSH1 0x0 KECCAK256 SLOAD SWAP1 POP DUP3 DUP3 PUSH2 0x532 SWAP2 SWAP1 PUSH2 0xD05 JUMP JUMPDEST DUP2 EQ PUSH2 0x541 JUMPI PUSH2 0x540 PUSH2 0xE83 JUMP JUMPDEST JUMPDEST CALLER PUSH20 0xFFFFFFFFFFFFFFFFFFFFFFFFFFFFFFFFFFFFFFFF AND PUSH32 0x747FE8563263661FB53C6A99A1D6753BBCBA100FAA6979D07EAD10FB9C84D050 PUSH1 0x1 PUSH1 0x0 CALLER PUSH20 0xFFFFFFFFFFFFFFFFFFFFFFFFFFFFFFFFFFFFFFFF AND PUSH20 0xFFFFFFFFFFFFFFFFFFFFFFFFFFFFFFFFFFFFFFFF AND DUP2 MSTORE PUSH1 0x20 ADD SWAP1 DUP2 MSTORE PUSH1 0x20 ADD PUSH1 0x0 KECCAK256 SLOAD PUSH1 0x40 MLOAD PUSH2 0x5C6 SWAP2 SWAP1 PUSH2 0xEFE JUMP JUMPDEST PUSH1 0x40 MLOAD DUP1 SWAP2 SUB SWAP1 LOG2 POP POP POP JUMP JUMPDEST PUSH1 0x0 DUP1 SLOAD SWAP1 PUSH2 0x100 EXP SWAP1 DIV PUSH20 0xFFFFFFFFFFFFFFFFFFFFFFFFFFFFFFFFFFFFFFFF AND PUSH20 0xFFFFFFFFFFFFFFFFFFFFFFFFFFFFFFFFFFFFFFFF AND CALLER PUSH20 0xFFFFFFFFFFFFFFFFFFFFFFFFFFFFFFFFFFFFFFFF AND EQ PUSH2 0x661 JUMPI PUSH1 0x40 MLOAD PUSH32 0x8C379A000000000000000000000000000000000000000000000000000000000 DUP2 MSTORE PUSH1 0x4 ADD PUSH2 0x658 SWAP1 PUSH2 0xF78 JUMP JUMPDEST PUSH1 0x40 MLOAD DUP1 SWAP2 SUB SWAP1 REVERT JUMPDEST DUP1 DUP1 PUSH1 0x1 PUSH1 0x0 CALLER PUSH20 0xFFFFFFFFFFFFFFFFFFFFFFFFFFFFFFFFFFFFFFFF AND PUSH20 0xFFFFFFFFFFFFFFFFFFFFFFFFFFFFFFFFFFFFFFFF AND DUP2 MSTORE PUSH1 0x20 ADD SWAP1 DUP2 MSTORE PUSH1 0x20 ADD PUSH1 0x0 KECCAK256 SLOAD LT ISZERO PUSH2 0x6AE JUMPI PUSH1 0x0 DUP1 REVERT JUMPDEST DUP3 PUSH20 0xFFFFFFFFFFFFFFFFFFFFFFFFFFFFFFFFFFFFFFFF AND CALLER PUSH20 0xFFFFFFFFFFFFFFFFFFFFFFFFFFFFFFFFFFFFFFFF AND SUB PUSH2 0x71C JUMPI PUSH1 0x40 MLOAD PUSH32 0x8C379A000000000000000000000000000000000000000000000000000000000 DUP2 MSTORE PUSH1 0x4 ADD PUSH2 0x713 SWAP1 PUSH2 0xFE4 JUMP JUMPDEST PUSH1 0x40 MLOAD DUP1 SWAP2 SUB SWAP1 REVERT JUMPDEST PUSH2 0x727 CALLER DUP5 DUP5 PUSH2 0x9B9 JUMP JUMPDEST CALLER PUSH20 0xFFFFFFFFFFFFFFFFFFFFFFFFFFFFFFFFFFFFFFFF AND PUSH32 0x747FE8563263661FB53C6A99A1D6753BBCBA100FAA6979D07EAD10FB9C84D050 PUSH1 0x1 PUSH1 0x0 CALLER PUSH20 0xFFFFFFFFFFFFFFFFFFFFFFFFFFFFFFFFFFFFFFFF AND PUSH20 0xFFFFFFFFFFFFFFFFFFFFFFFFFFFFFFFFFFFFFFFF AND DUP2 MSTORE PUSH1 0x20 ADD SWAP1 DUP2 MSTORE PUSH1 0x20 ADD PUSH1 0x0 KECCAK256 SLOAD PUSH1 0x40 MLOAD PUSH2 0x7AC SWAP2 SWAP1 PUSH2 0x1050 JUMP JUMPDEST PUSH1 0x40 MLOAD DUP1 SWAP2 SUB SWAP1 LOG2 DUP3 PUSH20 0xFFFFFFFFFFFFFFFFFFFFFFFFFFFFFFFFFFFFFFFF AND PUSH32 0x747FE8563263661FB53C6A99A1D6753BBCBA100FAA6979D07EAD10FB9C84D050 PUSH1 0x1 PUSH1 0x0 DUP7 PUSH20 0xFFFFFFFFFFFFFFFFFFFFFFFFFFFFFFFFFFFFFFFF AND PUSH20 0xFFFFFFFFFFFFFFFFFFFFFFFFFFFFFFFFFFFFFFFF AND DUP2 MSTORE PUSH1 0x20 ADD SWAP1 DUP2 MSTORE PUSH1 0x20 ADD PUSH1 0x0 KECCAK256 SLOAD PUSH1 0x40 MLOAD PUSH2 0x839 SWAP2 SWAP1 PUSH2 0xE55 JUMP JUMPDEST PUSH1 0x40 MLOAD DUP1 SWAP2 SUB SWAP1 LOG2 POP POP POP JUMP JUMPDEST PUSH1 0x0 DUP1 SLOAD SWAP1 PUSH2 0x100 EXP SWAP1 DIV PUSH20 0xFFFFFFFFFFFFFFFFFFFFFFFFFFFFFFFFFFFFFFFF AND PUSH20 0xFFFFFFFFFFFFFFFFFFFFFFFFFFFFFFFFFFFFFFFF AND CALLER PUSH20 0xFFFFFFFFFFFFFFFFFFFFFFFFFFFFFFFFFFFFFFFF AND EQ PUSH2 0x8D4 JUMPI PUSH1 0x40 MLOAD PUSH32 0x8C379A000000000000000000000000000000000000000000000000000000000 DUP2 MSTORE PUSH1 0x4 ADD PUSH2 0x8CB SWAP1 PUSH2 0xF78 JUMP JUMPDEST PUSH1 0x40 MLOAD DUP1 SWAP2 SUB SWAP1 REVERT JUMPDEST CALLVALUE PUSH1 0x1 PUSH1 0x0 CALLER PUSH20 0xFFFFFFFFFFFFFFFFFFFFFFFFFFFFFFFFFFFFFFFF AND PUSH20 0xFFFFFFFFFFFFFFFFFFFFFFFFFFFFFFFFFFFFFFFF AND DUP2 MSTORE PUSH1 0x20 ADD SWAP1 DUP2 MSTORE PUSH1 0x20 ADD PUSH1 0x0 KECCAK256 PUSH1 0x0 DUP3 DUP3 SLOAD PUSH2 0x923 SWAP2 SWAP1 PUSH2 0xD39 JUMP JUMPDEST SWAP3 POP POP DUP2 SWAP1 SSTORE POP CALLER PUSH20 0xFFFFFFFFFFFFFFFFFFFFFFFFFFFFFFFFFFFFFFFF AND PUSH32 0x747FE8563263661FB53C6A99A1D6753BBCBA100FAA6979D07EAD10FB9C84D050 PUSH1 0x1 PUSH1 0x0 CALLER PUSH20 0xFFFFFFFFFFFFFFFFFFFFFFFFFFFFFFFFFFFFFFFF AND PUSH20 0xFFFFFFFFFFFFFFFFFFFFFFFFFFFFFFFFFFFFFFFF AND DUP2 MSTORE PUSH1 0x20 ADD SWAP1 DUP2 MSTORE PUSH1 0x20 ADD PUSH1 0x0 KECCAK256 SLOAD PUSH1 0x40 MLOAD PUSH2 0x9AF SWAP2 SWAP1 PUSH2 0x10CA JUMP JUMPDEST PUSH1 0x40 MLOAD DUP1 SWAP2 SUB SWAP1 LOG2 JUMP JUMPDEST DUP1 PUSH1 0x1 PUSH1 0x0 DUP6 PUSH20 0xFFFFFFFFFFFFFFFFFFFFFFFFFFFFFFFFFFFFFFFF AND PUSH20 0xFFFFFFFFFFFFFFFFFFFFFFFFFFFFFFFFFFFFFFFF AND DUP2 MSTORE PUSH1 0x20 ADD SWAP1 DUP2 MSTORE PUSH1 0x20 ADD PUSH1 0x0 KECCAK256 PUSH1 0x0 DUP3 DUP3 SLOAD PUSH2 0xA08 SWAP2 SWAP1 PUSH2 0xD05 JUMP JUMPDEST SWAP3 POP POP DUP2 SWAP1 SSTORE POP DUP1 PUSH1 0x1 PUSH1 0x0 DUP5 PUSH20 0xFFFFFFFFFFFFFFFFFFFFFFFFFFFFFFFFFFFFFFFF AND PUSH20 0xFFFFFFFFFFFFFFFFFFFFFFFFFFFFFFFFFFFFFFFF AND DUP2 MSTORE PUSH1 0x20 ADD SWAP1 DUP2 MSTORE PUSH1 0x20 ADD PUSH1 0x0 KECCAK256 PUSH1 0x0 DUP3 DUP3 SLOAD PUSH2 0xA5E SWAP2 SWAP1 PUSH2 0xD39 JUMP JUMPDEST SWAP3 POP POP DUP2 SWAP1 SSTORE POP POP POP POP JUMP JUMPDEST PUSH1 0x0 DUP2 SWAP1 POP SWAP2 SWAP1 POP JUMP JUMPDEST PUSH2 0xA7D DUP2 PUSH2 0xA6A JUMP JUMPDEST DUP3 MSTORE POP POP JUMP JUMPDEST PUSH1 0x0 PUSH1 0x20 DUP3 ADD SWAP1 POP PUSH2 0xA98 PUSH1 0x0 DUP4 ADD DUP5 PUSH2 0xA74 JUMP JUMPDEST SWAP3 SWAP2 POP POP JUMP JUMPDEST PUSH1 0x0 DUP1 REVERT JUMPDEST PUSH1 0x0 PUSH20 0xFFFFFFFFFFFFFFFFFFFFFFFFFFFFFFFFFFFFFFFF DUP3 AND SWAP1 POP SWAP2 SWAP1 POP JUMP JUMPDEST PUSH1 0x0 PUSH2 0xACE DUP3 PUSH2 0xAA3 JUMP JUMPDEST SWAP1 POP SWAP2 SWAP1 POP JUMP JUMPDEST PUSH2 0xADE DUP2 PUSH2 0xAC3 JUMP JUMPDEST DUP2 EQ PUSH2 0xAE9 JUMPI PUSH1 0x0 DUP1 REVERT JUMPDEST POP JUMP JUMPDEST PUSH1 0x0 DUP2 CALLDATALOAD SWAP1 POP PUSH2 0xAFB DUP2 PUSH2 0xAD5 JUMP JUMPDEST SWAP3 SWAP2 POP POP JUMP JUMPDEST PUSH2 0xB0A DUP2 PUSH2 0xA6A JUMP JUMPDEST DUP2 EQ PUSH2 0xB15 JUMPI PUSH1 0x0 DUP1 REVERT JUMPDEST POP JUMP JUMPDEST PUSH1 0x0 DUP2 CALLDATALOAD SWAP1 POP PUSH2 0xB27 DUP2 PUSH2 0xB01 JUMP JUMPDEST SWAP3 SWAP2 POP POP JUMP JUMPDEST PUSH1 0x0 DUP1 PUSH1 0x0 PUSH1 0x60 DUP5 DUP7 SUB SLT ISZERO PUSH2 0xB46 JUMPI PUSH2 0xB45 PUSH2 0xA9E JUMP JUMPDEST JUMPDEST PUSH1 0x0 PUSH2 0xB54 DUP7 DUP3 DUP8 ADD PUSH2 0xAEC JUMP JUMPDEST SWAP4 POP POP PUSH1 0x20 PUSH2 0xB65 DUP7 DUP3 DUP8 ADD PUSH2 0xAEC JUMP JUMPDEST SWAP3 POP POP PUSH1 0x40 PUSH2 0xB76 DUP7 DUP3 DUP8 ADD PUSH2 0xB18 JUMP JUMPDEST SWAP2 POP POP SWAP3 POP SWAP3 POP SWAP3 JUMP JUMPDEST PUSH1 0x0 PUSH1 0x20 DUP3 DUP5 SUB SLT ISZERO PUSH2 0xB96 JUMPI PUSH2 0xB95 PUSH2 0xA9E JUMP JUMPDEST JUMPDEST PUSH1 0x0 PUSH2 0xBA4 DUP5 DUP3 DUP6 ADD PUSH2 0xB18 JUMP JUMPDEST SWAP2 POP POP SWAP3 SWAP2 POP POP JUMP JUMPDEST PUSH1 0x0 DUP1 PUSH1 0x40 DUP4 DUP6 SUB SLT ISZERO PUSH2 0xBC4 JUMPI PUSH2 0xBC3 PUSH2 0xA9E JUMP JUMPDEST JUMPDEST PUSH1 0x0 PUSH2 0xBD2 DUP6 DUP3 DUP7 ADD PUSH2 0xAEC JUMP JUMPDEST SWAP3 POP POP PUSH1 0x20 PUSH2 0xBE3 DUP6 DUP3 DUP7 ADD PUSH2 0xB18 JUMP JUMPDEST SWAP2 POP POP SWAP3 POP SWAP3 SWAP1 POP JUMP JUMPDEST PUSH1 0x0 DUP3 DUP3 MSTORE PUSH1 0x20 DUP3 ADD SWAP1 POP SWAP3 SWAP2 POP POP JUMP JUMPDEST PUSH32 0x496E73756666696369656E742062616C616E6365000000000000000000000000 PUSH1 0x0 DUP3 ADD MSTORE POP JUMP JUMPDEST PUSH1 0x0 PUSH2 0xC34 PUSH1 0x14 DUP4 PUSH2 0xBED JUMP JUMPDEST SWAP2 POP PUSH2 0xC3F DUP3 PUSH2 0xBFE JUMP JUMPDEST PUSH1 0x20 DUP3 ADD SWAP1 POP SWAP2 SWAP1 POP JUMP JUMPDEST PUSH1 0x0 PUSH1 0x20 DUP3 ADD SWAP1 POP DUP2 DUP2 SUB PUSH1 0x0 DUP4 ADD MSTORE PUSH2 0xC63 DUP2 PUSH2 0xC27 JUMP JUMPDEST SWAP1 POP SWAP2 SWAP1 POP JUMP JUMPDEST PUSH32 0x496E76616C696420526563657069656E74000000000000000000000000000000 PUSH1 0x0 DUP3 ADD MSTORE POP JUMP JUMPDEST PUSH1 0x0 PUSH2 0xCA0 PUSH1 0x11 DUP4 PUSH2 0xBED JUMP JUMPDEST SWAP2 POP PUSH2 0xCAB DUP3 PUSH2 0xC6A JUMP JUMPDEST PUSH1 0x20 DUP3 ADD SWAP1 POP SWAP2 SWAP1 POP JUMP JUMPDEST PUSH1 0x0 PUSH1 0x20 DUP3 ADD SWAP1 POP DUP2 DUP2 SUB PUSH1 0x0 DUP4 ADD MSTORE PUSH2 0xCCF DUP2 PUSH2 0xC93 JUMP JUMPDEST SWAP1 POP SWAP2 SWAP1 POP JUMP JUMPDEST PUSH32 0x4E487B7100000000000000000000000000000000000000000000000000000000 PUSH1 0x0 MSTORE PUSH1 0x11 PUSH1 0x4 MSTORE PUSH1 0x24 PUSH1 0x0 REVERT JUMPDEST PUSH1 0x0 PUSH2 0xD10 DUP3 PUSH2 0xA6A JUMP JUMPDEST SWAP2 POP PUSH2 0xD1B DUP4 PUSH2 0xA6A JUMP JUMPDEST SWAP3 POP DUP3 DUP3 LT ISZERO PUSH2 0xD2E JUMPI PUSH2 0xD2D PUSH2 0xCD6 JUMP JUMPDEST JUMPDEST DUP3 DUP3 SUB SWAP1 POP SWAP3 SWAP2 POP POP JUMP JUMPDEST PUSH1 0x0 PUSH2 0xD44 DUP3 PUSH2 0xA6A JUMP JUMPDEST SWAP2 POP PUSH2 0xD4F DUP4 PUSH2 0xA6A JUMP JUMPDEST SWAP3 POP DUP3 PUSH32 0xFFFFFFFFFFFFFFFFFFFFFFFFFFFFFFFFFFFFFFFFFFFFFFFFFFFFFFFFFFFFFFFF SUB DUP3 GT ISZERO PUSH2 0xD84 JUMPI PUSH2 0xD83 PUSH2 0xCD6 JUMP JUMPDEST JUMPDEST DUP3 DUP3 ADD SWAP1 POP SWAP3 SWAP2 POP POP JUMP JUMPDEST PUSH32 0x4F7574476F696E67205472616E73666572000000000000000000000000000000 PUSH1 0x0 DUP3 ADD MSTORE POP JUMP JUMPDEST PUSH1 0x0 PUSH2 0xDC5 PUSH1 0x11 DUP4 PUSH2 0xBED JUMP JUMPDEST SWAP2 POP PUSH2 0xDD0 DUP3 PUSH2 0xD8F JUMP JUMPDEST PUSH1 0x20 DUP3 ADD SWAP1 POP SWAP2 SWAP1 POP JUMP JUMPDEST PUSH1 0x0 PUSH1 0x40 DUP3 ADD SWAP1 POP DUP2 DUP2 SUB PUSH1 0x0 DUP4 ADD MSTORE PUSH2 0xDF4 DUP2 PUSH2 0xDB8 JUMP JUMPDEST SWAP1 POP PUSH2 0xE03 PUSH1 0x20 DUP4 ADD DUP5 PUSH2 0xA74 JUMP JUMPDEST SWAP3 SWAP2 POP POP JUMP JUMPDEST PUSH32 0x496E436F6D696E67205472616E73666572000000000000000000000000000000 PUSH1 0x0 DUP3 ADD MSTORE POP JUMP JUMPDEST PUSH1 0x0 PUSH2 0xE3F PUSH1 0x11 DUP4 PUSH2 0xBED JUMP JUMPDEST SWAP2 POP PUSH2 0xE4A DUP3 PUSH2 0xE09 JUMP JUMPDEST PUSH1 0x20 DUP3 ADD SWAP1 POP SWAP2 SWAP1 POP JUMP JUMPDEST PUSH1 0x0 PUSH1 0x40 DUP3 ADD SWAP1 POP DUP2 DUP2 SUB PUSH1 0x0 DUP4 ADD MSTORE PUSH2 0xE6E DUP2 PUSH2 0xE32 JUMP JUMPDEST SWAP1 POP PUSH2 0xE7D PUSH1 0x20 DUP4 ADD DUP5 PUSH2 0xA74 JUMP JUMPDEST SWAP3 SWAP2 POP POP JUMP JUMPDEST PUSH32 0x4E487B7100000000000000000000000000000000000000000000000000000000 PUSH1 0x0 MSTORE PUSH1 0x1 PUSH1 0x4 MSTORE PUSH1 0x24 PUSH1 0x0 REVERT JUMPDEST PUSH32 0x5769746864726177000000000000000000000000000000000000000000000000 PUSH1 0x0 DUP3 ADD MSTORE POP JUMP JUMPDEST PUSH1 0x0 PUSH2 0xEE8 PUSH1 0x8 DUP4 PUSH2 0xBED JUMP JUMPDEST SWAP2 POP PUSH2 0xEF3 DUP3 PUSH2 0xEB2 JUMP JUMPDEST PUSH1 0x20 DUP3 ADD SWAP1 POP SWAP2 SWAP1 POP JUMP JUMPDEST PUSH1 0x0 PUSH1 0x40 DUP3 ADD SWAP1 POP DUP2 DUP2 SUB PUSH1 0x0 DUP4 ADD MSTORE PUSH2 0xF17 DUP2 PUSH2 0xEDB JUMP JUMPDEST SWAP1 POP PUSH2 0xF26 PUSH1 0x20 DUP4 ADD DUP5 PUSH2 0xA74 JUMP JUMPDEST SWAP3 SWAP2 POP POP JUMP JUMPDEST PUSH32 0x596F7520417265204E6F74204F776E6572000000000000000000000000000000 PUSH1 0x0 DUP3 ADD MSTORE POP JUMP JUMPDEST PUSH1 0x0 PUSH2 0xF62 PUSH1 0x11 DUP4 PUSH2 0xBED JUMP JUMPDEST SWAP2 POP PUSH2 0xF6D DUP3 PUSH2 0xF2C JUMP JUMPDEST PUSH1 0x20 DUP3 ADD SWAP1 POP SWAP2 SWAP1 POP JUMP JUMPDEST PUSH1 0x0 PUSH1 0x20 DUP3 ADD SWAP1 POP DUP2 DUP2 SUB PUSH1 0x0 DUP4 ADD MSTORE PUSH2 0xF91 DUP2 PUSH2 0xF55 JUMP JUMPDEST SWAP1 POP SWAP2 SWAP1 POP JUMP JUMPDEST PUSH32 0x496E73756666696369656E7420526563697069656E7400000000000000000000 PUSH1 0x0 DUP3 ADD MSTORE POP JUMP JUMPDEST PUSH1 0x0 PUSH2 0xFCE PUSH1 0x16 DUP4 PUSH2 0xBED JUMP JUMPDEST SWAP2 POP PUSH2 0xFD9 DUP3 PUSH2 0xF98 JUMP JUMPDEST PUSH1 0x20 DUP3 ADD SWAP1 POP SWAP2 SWAP1 POP JUMP JUMPDEST PUSH1 0x0 PUSH1 0x20 DUP3 ADD SWAP1 POP DUP2 DUP2 SUB PUSH1 0x0 DUP4 ADD MSTORE PUSH2 0xFFD DUP2 PUSH2 0xFC1 JUMP JUMPDEST SWAP1 POP SWAP2 SWAP1 POP JUMP JUMPDEST PUSH32 0x4F7574476F696E67205472617366657200000000000000000000000000000000 PUSH1 0x0 DUP3 ADD MSTORE POP JUMP JUMPDEST PUSH1 0x0 PUSH2 0x103A PUSH1 0x10 DUP4 PUSH2 0xBED JUMP JUMPDEST SWAP2 POP PUSH2 0x1045 DUP3 PUSH2 0x1004 JUMP JUMPDEST PUSH1 0x20 DUP3 ADD SWAP1 POP SWAP2 SWAP1 POP JUMP JUMPDEST PUSH1 0x0 PUSH1 0x40 DUP3 ADD SWAP1 POP DUP2 DUP2 SUB PUSH1 0x0 DUP4 ADD MSTORE PUSH2 0x1069 DUP2 PUSH2 0x102D JUMP JUMPDEST SWAP1 POP PUSH2 0x1078 PUSH1 0x20 DUP4 ADD DUP5 PUSH2 0xA74 JUMP JUMPDEST SWAP3 SWAP2 POP POP JUMP JUMPDEST PUSH32 0x4465706F73697400000000000000000000000000000000000000000000000000 PUSH1 0x0 DUP3 ADD MSTORE POP JUMP JUMPDEST PUSH1 0x0 PUSH2 0x10B4 PUSH1 0x7 DUP4 PUSH2 0xBED JUMP JUMPDEST SWAP2 POP PUSH2 0x10BF DUP3 PUSH2 0x107E JUMP JUMPDEST PUSH1 0x20 DUP3 ADD SWAP1 POP SWAP2 SWAP1 POP JUMP JUMPDEST PUSH1 0x0 PUSH1 0x40 DUP3 ADD SWAP1 POP DUP2 DUP2 SUB PUSH1 0x0 DUP4 ADD MSTORE PUSH2 0x10E3 DUP2 PUSH2 0x10A7 JUMP JUMPDEST SWAP1 POP PUSH2 0x10F2 PUSH1 0x20 DUP4 ADD DUP5 PUSH2 0xA74 JUMP JUMPDEST SWAP3 SWAP2 POP POP JUMP INVALID LOG2 PUSH5 0x6970667358 0x22 SLT KECCAK256 RETURN PUSH18 0xF27A2AFF09A10A259F9B68ACB38ACEE645B CALLDATASIZE SWAP14 JUMPI 0x1F 0xC1 0xC3 DUP1 0xE5 INVALID 0xAB 0x28 KECCAK256 PUSH5 0x736F6C6343 STOP ADDMOD 0xF STOP CALLER "
				},
				"gasEstimates": {
					"creation": {
						"codeDepositCost": "879600",
						"executionCost": "25182",
						"totalCost": "904782"
					},
					"external": {
						"deposit()": "infinite",
						"getBalance()": "2504",
						"transfer(address,uint256)": "infinite",
						"transferFrom(address,address,uint256)": "infinite",
						"withdraw(uint256)": "infinite"
					},
					"internal": {
						"_transfer(address,address,uint256)": "infinite"
					}
				},
				"methodIdentifiers": {
					"deposit()": "d0e30db0",
					"getBalance()": "12065fe0",
					"transfer(address,uint256)": "a9059cbb",
					"transferFrom(address,address,uint256)": "23b872dd",
					"withdraw(uint256)": "2e1a7d4d"
				}
			},
			"storageLayout": {
				"storage": [
					{
						"astId": 269,
						"contract": "contracts/bank.sol:Bank",
						"label": "owner",
						"offset": 0,
						"slot": "0",
						"type": "t_address"
					},
					{
						"astId": 38,
						"contract": "contracts/bank.sol:Bank",
						"label": "balance",
						"offset": 0,
						"slot": "1",
						"type": "t_mapping(t_address,t_uint256)"
					}
				],
				"types": {
					"t_address": {
						"encoding": "inplace",
						"label": "address",
						"numberOfBytes": "20"
					},
					"t_mapping(t_address,t_uint256)": {
						"encoding": "mapping",
						"key": "t_address",
						"label": "mapping(address => uint256)",
						"numberOfBytes": "32",
						"value": "t_uint256"
					},
					"t_uint256": {
						"encoding": "inplace",
						"label": "uint256",
						"numberOfBytes": "32"
					}
				}
			},
			"userdoc": {
				"kind": "user",
				"methods": {},
				"version": 1
			}
		}
	}
}