{
	"contracts/nftMarket.sol": {
		"NFTMarket": {
			"abi": [
				{
					"inputs": [
						{
							"internalType": "uint256",
							"name": "_id",
							"type": "uint256"
						}
					],
					"name": "buyKitty",
					"outputs": [],
					"stateMutability": "nonpayable",
					"type": "function"
				},
				{
					"inputs": [
						{
							"internalType": "string",
							"name": "_name",
							"type": "string"
						}
					],
					"name": "createKitty",
					"outputs": [],
					"stateMutability": "nonpayable",
					"type": "function"
				},
				{
					"inputs": [],
					"name": "getOwner",
					"outputs": [
						{
							"internalType": "address",
							"name": "",
							"type": "address"
						}
					],
					"stateMutability": "view",
					"type": "function"
				},
				{
					"inputs": [
						{
							"internalType": "uint256",
							"name": "",
							"type": "uint256"
						}
					],
					"name": "kitties",
					"outputs": [
						{
							"internalType": "uint256",
							"name": "id",
							"type": "uint256"
						},
						{
							"internalType": "string",
							"name": "name",
							"type": "string"
						},
						{
							"internalType": "address",
							"name": "owner",
							"type": "address"
						}
					],
					"stateMutability": "view",
					"type": "function"
				},
				{
					"inputs": [],
					"name": "transferToOwner",
					"outputs": [],
					"stateMutability": "nonpayable",
					"type": "function"
				},
				{
					"inputs": [],
					"name": "viewKitty",
					"outputs": [
						{
							"components": [
								{
									"internalType": "uint256",
									"name": "id",
									"type": "uint256"
								},
								{
									"internalType": "string",
									"name": "name",
									"type": "string"
								},
								{
									"internalType": "address",
									"name": "owner",
									"type": "address"
								}
							],
							"internalType": "struct NFTMarket.Kitty[]",
							"name": "",
							"type": "tuple[]"
						}
					],
					"stateMutability": "view",
					"type": "function"
				},
				{
					"inputs": [],
					"name": "withdrawFromBank",
					"outputs": [],
					"stateMutability": "nonpayable",
					"type": "function"
				},
				{
					"stateMutability": "payable",
					"type": "receive"
				}
			],
			"devdoc": {
				"kind": "dev",
				"methods": {},
				"version": 1
			},
			"evm": {
				"assembly": "    /* \"contracts/nftMarket.sol\":281:2568  contract NFTMarket is Ownable {... */\n  mstore(0x40, 0x80)\n    /* \"contracts/nftMarket.sol\":502:522  10000000000000000000 */\n  0x8ac7230489e80000\n    /* \"contracts/nftMarket.sol\":481:522  uint private price = 10000000000000000000 */\n  0x03\n  sstore\n    /* \"contracts/nftMarket.sol\":566:608  0xd9145CCE52D386f254917e481eB44e9943F39138 */\n  0xd9145cce52d386f254917e481eb44e9943f39138\n    /* \"contracts/nftMarket.sol\":536:608  address private bankAddress = 0xd9145CCE52D386f254917e481eB44e9943F39138 */\n  0x04\n  exp(0x0100, 0x00)\n  dup2\n  sload\n  dup2\n  0xffffffffffffffffffffffffffffffffffffffff\n  mul\n  not\n  and\n  swap1\n  dup4\n  0xffffffffffffffffffffffffffffffffffffffff\n  and\n  mul\n  or\n  swap1\n  sstore\n  pop\n    /* \"contracts/nftMarket.sol\":832:843  bankAddress */\n  0x04\n  0x00\n  swap1\n  sload\n  swap1\n  0x0100\n  exp\n  swap1\n  div\n  0xffffffffffffffffffffffffffffffffffffffff\n  and\n    /* \"contracts/nftMarket.sol\":813:844  IBank bank = IBank(bankAddress) */\n  0x05\n  exp(0x0100, 0x00)\n  dup2\n  sload\n  dup2\n  0xffffffffffffffffffffffffffffffffffffffff\n  mul\n  not\n  and\n  swap1\n  dup4\n  0xffffffffffffffffffffffffffffffffffffffff\n  and\n  mul\n  or\n  swap1\n  sstore\n  pop\n    /* \"contracts/nftMarket.sol\":281:2568  contract NFTMarket is Ownable {... */\n  callvalue\n  dup1\n  iszero\n  tag_1\n  jumpi\n  0x00\n  dup1\n  revert\ntag_1:\n  pop\n    /* \"contracts/ownable.sol\":337:347  msg.sender */\n  caller\n    /* \"contracts/ownable.sol\":329:334  owner */\n  0x00\n  dup1\n    /* \"contracts/ownable.sol\":329:347  owner = msg.sender */\n  0x0100\n  exp\n  dup2\n  sload\n  dup2\n  0xffffffffffffffffffffffffffffffffffffffff\n  mul\n  not\n  and\n  swap1\n  dup4\n  0xffffffffffffffffffffffffffffffffffffffff\n  and\n  mul\n  or\n  swap1\n  sstore\n  pop\n    /* \"contracts/nftMarket.sol\":281:2568  contract NFTMarket is Ownable {... */\n  dataSize(sub_0)\n  dup1\n  dataOffset(sub_0)\n  0x00\n  codecopy\n  0x00\n  return\nstop\n\nsub_0: assembly {\n        /* \"contracts/nftMarket.sol\":281:2568  contract NFTMarket is Ownable {... */\n      mstore(0x40, 0x80)\n      jumpi(tag_1, lt(calldatasize, 0x04))\n      shr(0xe0, calldataload(0x00))\n      dup1\n      0x893d20e8\n      gt\n      tag_10\n      jumpi\n      dup1\n      0x893d20e8\n      eq\n      tag_6\n      jumpi\n      dup1\n      0x8cc51eda\n      eq\n      tag_7\n      jumpi\n      dup1\n      0xae5310f6\n      eq\n      tag_8\n      jumpi\n      dup1\n      0xbe80d447\n      eq\n      tag_9\n      jumpi\n      jump(tag_2)\n    tag_10:\n      dup1\n      0x0c3fddef\n      eq\n      tag_3\n      jumpi\n      dup1\n      0x2d90ae94\n      eq\n      tag_4\n      jumpi\n      dup1\n      0x35844dad\n      eq\n      tag_5\n      jumpi\n      jump(tag_2)\n    tag_1:\n      jumpi(tag_2, calldatasize)\n      stop\n    tag_2:\n      0x00\n      dup1\n      revert\n        /* \"contracts/nftMarket.sol\":1313:1402  function viewKitty() view external returns(Kitty[] memory){... */\n    tag_3:\n      callvalue\n      dup1\n      iszero\n      tag_13\n      jumpi\n      0x00\n      dup1\n      revert\n    tag_13:\n      pop\n      tag_14\n      tag_15\n      jump\t// in\n    tag_14:\n      mload(0x40)\n      tag_16\n      swap2\n      swap1\n      tag_17\n      jump\t// in\n    tag_16:\n      mload(0x40)\n      dup1\n      swap2\n      sub\n      swap1\n      return\n        /* \"contracts/nftMarket.sol\":2277:2390  function transferToOwner() external onlyOwner{... */\n    tag_4:\n      callvalue\n      dup1\n      iszero\n      tag_18\n      jumpi\n      0x00\n      dup1\n      revert\n    tag_18:\n      pop\n      tag_19\n      tag_20\n      jump\t// in\n    tag_19:\n      stop\n        /* \"contracts/nftMarket.sol\":855:1156  function createKitty(string memory _name) external onlyOwner {... */\n    tag_5:\n      callvalue\n      dup1\n      iszero\n      tag_21\n      jumpi\n      0x00\n      dup1\n      revert\n    tag_21:\n      pop\n      tag_22\n      0x04\n      dup1\n      calldatasize\n      sub\n      dup2\n      add\n      swap1\n      tag_23\n      swap2\n      swap1\n      tag_24\n      jump\t// in\n    tag_23:\n      tag_25\n      jump\t// in\n    tag_22:\n      stop\n        /* \"contracts/nftMarket.sol\":1162:1282  function getOwner() view external returns(address){... */\n    tag_6:\n      callvalue\n      dup1\n      iszero\n      tag_26\n      jumpi\n      0x00\n      dup1\n      revert\n    tag_26:\n      pop\n      tag_27\n      tag_28\n      jump\t// in\n    tag_27:\n      mload(0x40)\n      tag_29\n      swap2\n      swap1\n      tag_30\n      jump\t// in\n    tag_29:\n      mload(0x40)\n      dup1\n      swap2\n      sub\n      swap1\n      return\n        /* \"contracts/nftMarket.sol\":403:425  Kitty[] public kitties */\n    tag_7:\n      callvalue\n      dup1\n      iszero\n      tag_31\n      jumpi\n      0x00\n      dup1\n      revert\n    tag_31:\n      pop\n      tag_32\n      0x04\n      dup1\n      calldatasize\n      sub\n      dup2\n      add\n      swap1\n      tag_33\n      swap2\n      swap1\n      tag_34\n      jump\t// in\n    tag_33:\n      tag_35\n      jump\t// in\n    tag_32:\n      mload(0x40)\n      tag_36\n      swap4\n      swap3\n      swap2\n      swap1\n      tag_37\n      jump\t// in\n    tag_36:\n      mload(0x40)\n      dup1\n      swap2\n      sub\n      swap1\n      return\n        /* \"contracts/nftMarket.sol\":1666:2090  function buyKitty(uint256 _id) external{... */\n    tag_8:\n      callvalue\n      dup1\n      iszero\n      tag_38\n      jumpi\n      0x00\n      dup1\n      revert\n    tag_38:\n      pop\n      tag_39\n      0x04\n      dup1\n      calldatasize\n      sub\n      dup2\n      add\n      swap1\n      tag_40\n      swap2\n      swap1\n      tag_34\n      jump\t// in\n    tag_40:\n      tag_41\n      jump\t// in\n    tag_39:\n      stop\n        /* \"contracts/nftMarket.sol\":2096:2223  function withdrawFromBank() external onlyOwner{... */\n    tag_9:\n      callvalue\n      dup1\n      iszero\n      tag_42\n      jumpi\n      0x00\n      dup1\n      revert\n    tag_42:\n      pop\n      tag_43\n      tag_44\n      jump\t// in\n    tag_43:\n      stop\n        /* \"contracts/nftMarket.sol\":1313:1402  function viewKitty() view external returns(Kitty[] memory){... */\n    tag_15:\n        /* \"contracts/nftMarket.sol\":1356:1370  Kitty[] memory */\n      0x60\n        /* \"contracts/nftMarket.sol\":1388:1395  kitties */\n      0x01\n        /* \"contracts/nftMarket.sol\":1381:1395  return kitties */\n      dup1\n      sload\n      dup1\n      0x20\n      mul\n      0x20\n      add\n      mload(0x40)\n      swap1\n      dup2\n      add\n      0x40\n      mstore\n      dup1\n      swap3\n      swap2\n      swap1\n      dup2\n      dup2\n      mstore\n      0x20\n      add\n      0x00\n      swap1\n    tag_46:\n      dup3\n      dup3\n      lt\n      iszero\n      tag_47\n      jumpi\n      dup4\n      dup3\n      swap1\n      0x00\n      mstore\n      keccak256(0x00, 0x20)\n      swap1\n      0x03\n      mul\n      add\n      mload(0x40)\n      dup1\n      0x60\n      add\n      0x40\n      mstore\n      swap1\n      dup2\n      0x00\n      dup3\n      add\n      sload\n      dup2\n      mstore\n      0x20\n      add\n      0x01\n      dup3\n      add\n      dup1\n      sload\n      tag_49\n      swap1\n      tag_50\n      jump\t// in\n    tag_49:\n      dup1\n      0x1f\n      add\n      0x20\n      dup1\n      swap2\n      div\n      mul\n      0x20\n      add\n      mload(0x40)\n      swap1\n      dup2\n      add\n      0x40\n      mstore\n      dup1\n      swap3\n      swap2\n      swap1\n      dup2\n      dup2\n      mstore\n      0x20\n      add\n      dup3\n      dup1\n      sload\n      tag_51\n      swap1\n      tag_50\n      jump\t// in\n    tag_51:\n      dup1\n      iszero\n      tag_52\n      jumpi\n      dup1\n      0x1f\n      lt\n      tag_53\n      jumpi\n      0x0100\n      dup1\n      dup4\n      sload\n      div\n      mul\n      dup4\n      mstore\n      swap2\n      0x20\n      add\n      swap2\n      jump(tag_52)\n    tag_53:\n      dup3\n      add\n      swap2\n      swap1\n      0x00\n      mstore\n      keccak256(0x00, 0x20)\n      swap1\n    tag_54:\n      dup2\n      sload\n      dup2\n      mstore\n      swap1\n      0x01\n      add\n      swap1\n      0x20\n      add\n      dup1\n      dup4\n      gt\n      tag_54\n      jumpi\n      dup3\n      swap1\n      sub\n      0x1f\n      and\n      dup3\n      add\n      swap2\n    tag_52:\n      pop\n      pop\n      pop\n      pop\n      pop\n      dup2\n      mstore\n      0x20\n      add\n      0x02\n      dup3\n      add\n      0x00\n      swap1\n      sload\n      swap1\n      0x0100\n      exp\n      swap1\n      div\n      0xffffffffffffffffffffffffffffffffffffffff\n      and\n      0xffffffffffffffffffffffffffffffffffffffff\n      and\n      0xffffffffffffffffffffffffffffffffffffffff\n      and\n      dup2\n      mstore\n      pop\n      pop\n      dup2\n      mstore\n      0x20\n      add\n      swap1\n      0x01\n      add\n      swap1\n      jump(tag_46)\n    tag_47:\n      pop\n      pop\n      pop\n      pop\n      swap1\n      pop\n        /* \"contracts/nftMarket.sol\":1313:1402  function viewKitty() view external returns(Kitty[] memory){... */\n      swap1\n      jump\t// out\n        /* \"contracts/nftMarket.sol\":2277:2390  function transferToOwner() external onlyOwner{... */\n    tag_20:\n        /* \"contracts/ownable.sol\":201:206  owner */\n      0x00\n      dup1\n      sload\n      swap1\n      0x0100\n      exp\n      swap1\n      div\n      0xffffffffffffffffffffffffffffffffffffffff\n      and\n        /* \"contracts/ownable.sol\":187:206  msg.sender == owner */\n      0xffffffffffffffffffffffffffffffffffffffff\n      and\n        /* \"contracts/ownable.sol\":187:197  msg.sender */\n      caller\n        /* \"contracts/ownable.sol\":187:206  msg.sender == owner */\n      0xffffffffffffffffffffffffffffffffffffffff\n      and\n      eq\n        /* \"contracts/ownable.sol\":179:228  require(msg.sender == owner, \"You Are Not Owner\") */\n      tag_56\n      jumpi\n      mload(0x40)\n      0x08c379a000000000000000000000000000000000000000000000000000000000\n      dup2\n      mstore\n      0x04\n      add\n      tag_57\n      swap1\n      tag_58\n      jump\t// in\n    tag_57:\n      mload(0x40)\n      dup1\n      swap2\n      sub\n      swap1\n      revert\n    tag_56:\n        /* \"contracts/nftMarket.sol\":2340:2350  msg.sender */\n      caller\n        /* \"contracts/nftMarket.sol\":2332:2360  payable(msg.sender).transfer */\n      0xffffffffffffffffffffffffffffffffffffffff\n      and\n        /* \"contracts/nftMarket.sol\":2332:2383  payable(msg.sender).transfer(address(this).balance) */\n      0x08fc\n        /* \"contracts/nftMarket.sol\":2361:2382  address(this).balance */\n      selfbalance\n        /* \"contracts/nftMarket.sol\":2332:2383  payable(msg.sender).transfer(address(this).balance) */\n      swap1\n      dup2\n      iszero\n      mul\n      swap1\n      mload(0x40)\n      0x00\n      mload(0x40)\n      dup1\n      dup4\n      sub\n      dup2\n      dup6\n      dup9\n      dup9\n      call\n      swap4\n      pop\n      pop\n      pop\n      pop\n      iszero\n      dup1\n      iszero\n      tag_61\n      jumpi\n      returndatasize\n      0x00\n      dup1\n      returndatacopy\n      revert(0x00, returndatasize)\n    tag_61:\n      pop\n        /* \"contracts/nftMarket.sol\":2277:2390  function transferToOwner() external onlyOwner{... */\n      jump\t// out\n        /* \"contracts/nftMarket.sol\":855:1156  function createKitty(string memory _name) external onlyOwner {... */\n    tag_25:\n        /* \"contracts/ownable.sol\":201:206  owner */\n      0x00\n      dup1\n      sload\n      swap1\n      0x0100\n      exp\n      swap1\n      div\n      0xffffffffffffffffffffffffffffffffffffffff\n      and\n        /* \"contracts/ownable.sol\":187:206  msg.sender == owner */\n      0xffffffffffffffffffffffffffffffffffffffff\n      and\n        /* \"contracts/ownable.sol\":187:197  msg.sender */\n      caller\n        /* \"contracts/ownable.sol\":187:206  msg.sender == owner */\n      0xffffffffffffffffffffffffffffffffffffffff\n      and\n      eq\n        /* \"contracts/ownable.sol\":179:228  require(msg.sender == owner, \"You Are Not Owner\") */\n      tag_63\n      jumpi\n      mload(0x40)\n      0x08c379a000000000000000000000000000000000000000000000000000000000\n      dup2\n      mstore\n      0x04\n      add\n      tag_64\n      swap1\n      tag_58\n      jump\t// in\n    tag_64:\n      mload(0x40)\n      dup1\n      swap2\n      sub\n      swap1\n      revert\n    tag_63:\n        /* \"contracts/nftMarket.sol\":1052:1073  Kitty memory newKitty */\n      0x00\n        /* \"contracts/nftMarket.sol\":1076:1117  Kitty(kitties.length , _name, address(0)) */\n      mload(0x40)\n      dup1\n      0x60\n      add\n      0x40\n      mstore\n      dup1\n        /* \"contracts/nftMarket.sol\":1082:1089  kitties */\n      0x01\n        /* \"contracts/nftMarket.sol\":1082:1096  kitties.length */\n      dup1\n      sload\n      swap1\n      pop\n        /* \"contracts/nftMarket.sol\":1076:1117  Kitty(kitties.length , _name, address(0)) */\n      dup2\n      mstore\n      0x20\n      add\n        /* \"contracts/nftMarket.sol\":1099:1104  _name */\n      dup4\n        /* \"contracts/nftMarket.sol\":1076:1117  Kitty(kitties.length , _name, address(0)) */\n      dup2\n      mstore\n      0x20\n      add\n        /* \"contracts/nftMarket.sol\":1114:1115  0 */\n      0x00\n        /* \"contracts/nftMarket.sol\":1076:1117  Kitty(kitties.length , _name, address(0)) */\n      0xffffffffffffffffffffffffffffffffffffffff\n      and\n      dup2\n      mstore\n      pop\n        /* \"contracts/nftMarket.sol\":1052:1117  Kitty memory newKitty = Kitty(kitties.length , _name, address(0)) */\n      swap1\n      pop\n        /* \"contracts/nftMarket.sol\":1127:1134  kitties */\n      0x01\n        /* \"contracts/nftMarket.sol\":1140:1148  newKitty */\n      dup2\n        /* \"contracts/nftMarket.sol\":1127:1149  kitties.push(newKitty) */\n      swap1\n      dup1\n      0x01\n      dup2\n      sload\n      add\n      dup1\n      dup3\n      sstore\n      dup1\n      swap2\n      pop\n      pop\n      0x01\n      swap1\n      sub\n      swap1\n      0x00\n      mstore\n      keccak256(0x00, 0x20)\n      swap1\n      0x03\n      mul\n      add\n      0x00\n      swap1\n      swap2\n      swap1\n      swap2\n      swap1\n      swap2\n      pop\n      0x00\n      dup3\n      add\n      mload\n      dup2\n      0x00\n      add\n      sstore\n      0x20\n      dup3\n      add\n      mload\n      dup2\n      0x01\n      add\n      swap1\n      dup2\n      tag_67\n      swap2\n      swap1\n      tag_68\n      jump\t// in\n    tag_67:\n      pop\n      0x40\n      dup3\n      add\n      mload\n      dup2\n      0x02\n      add\n      exp(0x0100, 0x00)\n      dup2\n      sload\n      dup2\n      0xffffffffffffffffffffffffffffffffffffffff\n      mul\n      not\n      and\n      swap1\n      dup4\n      0xffffffffffffffffffffffffffffffffffffffff\n      and\n      mul\n      or\n      swap1\n      sstore\n      pop\n      pop\n      pop\n        /* \"contracts/nftMarket.sol\":916:1156  {... */\n      pop\n        /* \"contracts/nftMarket.sol\":855:1156  function createKitty(string memory _name) external onlyOwner {... */\n      pop\n      jump\t// out\n        /* \"contracts/nftMarket.sol\":1162:1282  function getOwner() view external returns(address){... */\n    tag_28:\n        /* \"contracts/nftMarket.sol\":1204:1211  address */\n      0x00\n        /* \"contracts/nftMarket.sol\":1270:1275  owner */\n      dup1\n      0x00\n      swap1\n      sload\n      swap1\n      0x0100\n      exp\n      swap1\n      div\n      0xffffffffffffffffffffffffffffffffffffffff\n      and\n        /* \"contracts/nftMarket.sol\":1263:1275  return owner */\n      swap1\n      pop\n        /* \"contracts/nftMarket.sol\":1162:1282  function getOwner() view external returns(address){... */\n      swap1\n      jump\t// out\n        /* \"contracts/nftMarket.sol\":403:425  Kitty[] public kitties */\n    tag_35:\n      0x01\n      dup2\n      dup2\n      sload\n      dup2\n      lt\n      tag_70\n      jumpi\n      0x00\n      dup1\n      revert\n    tag_70:\n      swap1\n      0x00\n      mstore\n      keccak256(0x00, 0x20)\n      swap1\n      0x03\n      mul\n      add\n      0x00\n      swap2\n      pop\n      swap1\n      pop\n      dup1\n      0x00\n      add\n      sload\n      swap1\n      dup1\n      0x01\n      add\n      dup1\n      sload\n      tag_72\n      swap1\n      tag_50\n      jump\t// in\n    tag_72:\n      dup1\n      0x1f\n      add\n      0x20\n      dup1\n      swap2\n      div\n      mul\n      0x20\n      add\n      mload(0x40)\n      swap1\n      dup2\n      add\n      0x40\n      mstore\n      dup1\n      swap3\n      swap2\n      swap1\n      dup2\n      dup2\n      mstore\n      0x20\n      add\n      dup3\n      dup1\n      sload\n      tag_73\n      swap1\n      tag_50\n      jump\t// in\n    tag_73:\n      dup1\n      iszero\n      tag_74\n      jumpi\n      dup1\n      0x1f\n      lt\n      tag_75\n      jumpi\n      0x0100\n      dup1\n      dup4\n      sload\n      div\n      mul\n      dup4\n      mstore\n      swap2\n      0x20\n      add\n      swap2\n      jump(tag_74)\n    tag_75:\n      dup3\n      add\n      swap2\n      swap1\n      0x00\n      mstore\n      keccak256(0x00, 0x20)\n      swap1\n    tag_76:\n      dup2\n      sload\n      dup2\n      mstore\n      swap1\n      0x01\n      add\n      swap1\n      0x20\n      add\n      dup1\n      dup4\n      gt\n      tag_76\n      jumpi\n      dup3\n      swap1\n      sub\n      0x1f\n      and\n      dup3\n      add\n      swap2\n    tag_74:\n      pop\n      pop\n      pop\n      pop\n      pop\n      swap1\n      dup1\n      0x02\n      add\n      0x00\n      swap1\n      sload\n      swap1\n      0x0100\n      exp\n      swap1\n      div\n      0xffffffffffffffffffffffffffffffffffffffff\n      and\n      swap1\n      pop\n      dup4\n      jump\t// out\n        /* \"contracts/nftMarket.sol\":1666:2090  function buyKitty(uint256 _id) external{... */\n    tag_41:\n        /* \"contracts/nftMarket.sol\":1813:1814  0 */\n      0x00\n        /* \"contracts/nftMarket.sol\":1783:1815  kitties[_id].owner == address(0) */\n      0xffffffffffffffffffffffffffffffffffffffff\n      and\n        /* \"contracts/nftMarket.sol\":1783:1790  kitties */\n      0x01\n        /* \"contracts/nftMarket.sol\":1791:1794  _id */\n      dup3\n        /* \"contracts/nftMarket.sol\":1783:1795  kitties[_id] */\n      dup2\n      sload\n      dup2\n      lt\n      tag_78\n      jumpi\n      tag_79\n      tag_80\n      jump\t// in\n    tag_79:\n    tag_78:\n      swap1\n      0x00\n      mstore\n      keccak256(0x00, 0x20)\n      swap1\n      0x03\n      mul\n      add\n        /* \"contracts/nftMarket.sol\":1783:1801  kitties[_id].owner */\n      0x02\n      add\n      0x00\n      swap1\n      sload\n      swap1\n      0x0100\n      exp\n      swap1\n      div\n      0xffffffffffffffffffffffffffffffffffffffff\n      and\n        /* \"contracts/nftMarket.sol\":1783:1815  kitties[_id].owner == address(0) */\n      0xffffffffffffffffffffffffffffffffffffffff\n      and\n      eq\n        /* \"contracts/nftMarket.sol\":1775:1838  require(kitties[_id].owner == address(0), \"Kitty not for sale\") */\n      tag_82\n      jumpi\n      mload(0x40)\n      0x08c379a000000000000000000000000000000000000000000000000000000000\n      dup2\n      mstore\n      0x04\n      add\n      tag_83\n      swap1\n      tag_84\n      jump\t// in\n    tag_83:\n      mload(0x40)\n      dup1\n      swap2\n      sub\n      swap1\n      revert\n    tag_82:\n        /* \"contracts/nftMarket.sol\":1848:1861  ownedKittyies */\n      0x02\n        /* \"contracts/nftMarket.sol\":1848:1873  ownedKittyies[msg.sender] */\n      0x00\n        /* \"contracts/nftMarket.sol\":1862:1872  msg.sender */\n      caller\n        /* \"contracts/nftMarket.sol\":1848:1873  ownedKittyies[msg.sender] */\n      0xffffffffffffffffffffffffffffffffffffffff\n      and\n      0xffffffffffffffffffffffffffffffffffffffff\n      and\n      dup2\n      mstore\n      0x20\n      add\n      swap1\n      dup2\n      mstore\n      0x20\n      add\n      0x00\n      keccak256\n        /* \"contracts/nftMarket.sol\":1879:1882  _id */\n      dup2\n        /* \"contracts/nftMarket.sol\":1848:1883  ownedKittyies[msg.sender].push(_id) */\n      swap1\n      dup1\n      0x01\n      dup2\n      sload\n      add\n      dup1\n      dup3\n      sstore\n      dup1\n      swap2\n      pop\n      pop\n      0x01\n      swap1\n      sub\n      swap1\n      0x00\n      mstore\n      keccak256(0x00, 0x20)\n      add\n      0x00\n      swap1\n      swap2\n      swap1\n      swap2\n      swap1\n      swap2\n      pop\n      sstore\n        /* \"contracts/nftMarket.sol\":1977:1987  msg.sender */\n      caller\n        /* \"contracts/nftMarket.sol\":1956:1963  kitties */\n      0x01\n        /* \"contracts/nftMarket.sol\":1964:1967  _id */\n      dup3\n        /* \"contracts/nftMarket.sol\":1956:1968  kitties[_id] */\n      dup2\n      sload\n      dup2\n      lt\n      tag_86\n      jumpi\n      tag_87\n      tag_80\n      jump\t// in\n    tag_87:\n    tag_86:\n      swap1\n      0x00\n      mstore\n      keccak256(0x00, 0x20)\n      swap1\n      0x03\n      mul\n      add\n        /* \"contracts/nftMarket.sol\":1956:1974  kitties[_id].owner */\n      0x02\n      add\n      0x00\n        /* \"contracts/nftMarket.sol\":1956:1987  kitties[_id].owner = msg.sender */\n      0x0100\n      exp\n      dup2\n      sload\n      dup2\n      0xffffffffffffffffffffffffffffffffffffffff\n      mul\n      not\n      and\n      swap1\n      dup4\n      0xffffffffffffffffffffffffffffffffffffffff\n      and\n      mul\n      or\n      swap1\n      sstore\n      pop\n        /* \"contracts/nftMarket.sol\":2031:2035  bank */\n      0x05\n      0x00\n      swap1\n      sload\n      swap1\n      0x0100\n      exp\n      swap1\n      div\n      0xffffffffffffffffffffffffffffffffffffffff\n      and\n        /* \"contracts/nftMarket.sol\":2031:2048  bank.transferFrom */\n      0xffffffffffffffffffffffffffffffffffffffff\n      and\n      0x23b872dd\n        /* \"contracts/nftMarket.sol\":2049:2059  msg.sender */\n      caller\n        /* \"contracts/nftMarket.sol\":2069:2073  this */\n      address\n        /* \"contracts/nftMarket.sol\":2075:2080  price */\n      sload(0x03)\n        /* \"contracts/nftMarket.sol\":2031:2081  bank.transferFrom(msg.sender, address(this),price) */\n      mload(0x40)\n      dup5\n      0xffffffff\n      and\n      0xe0\n      shl\n      dup2\n      mstore\n      0x04\n      add\n      tag_89\n      swap4\n      swap3\n      swap2\n      swap1\n      tag_90\n      jump\t// in\n    tag_89:\n      0x00\n      mload(0x40)\n      dup1\n      dup4\n      sub\n      dup2\n      0x00\n      dup8\n      dup1\n      extcodesize\n      iszero\n      dup1\n      iszero\n      tag_91\n      jumpi\n      0x00\n      dup1\n      revert\n    tag_91:\n      pop\n      gas\n      call\n      iszero\n      dup1\n      iszero\n      tag_93\n      jumpi\n      returndatasize\n      0x00\n      dup1\n      returndatacopy\n      revert(0x00, returndatasize)\n    tag_93:\n      pop\n      pop\n      pop\n      pop\n        /* \"contracts/nftMarket.sol\":1666:2090  function buyKitty(uint256 _id) external{... */\n      pop\n      jump\t// out\n        /* \"contracts/nftMarket.sol\":2096:2223  function withdrawFromBank() external onlyOwner{... */\n    tag_44:\n        /* \"contracts/ownable.sol\":201:206  owner */\n      0x00\n      dup1\n      sload\n      swap1\n      0x0100\n      exp\n      swap1\n      div\n      0xffffffffffffffffffffffffffffffffffffffff\n      and\n        /* \"contracts/ownable.sol\":187:206  msg.sender == owner */\n      0xffffffffffffffffffffffffffffffffffffffff\n      and\n        /* \"contracts/ownable.sol\":187:197  msg.sender */\n      caller\n        /* \"contracts/ownable.sol\":187:206  msg.sender == owner */\n      0xffffffffffffffffffffffffffffffffffffffff\n      and\n      eq\n        /* \"contracts/ownable.sol\":179:228  require(msg.sender == owner, \"You Are Not Owner\") */\n      tag_95\n      jumpi\n      mload(0x40)\n      0x08c379a000000000000000000000000000000000000000000000000000000000\n      dup2\n      mstore\n      0x04\n      add\n      tag_96\n      swap1\n      tag_58\n      jump\t// in\n    tag_96:\n      mload(0x40)\n      dup1\n      swap2\n      sub\n      swap1\n      revert\n    tag_95:\n        /* \"contracts/nftMarket.sol\":2152:2164  uint balance */\n      0x00\n        /* \"contracts/nftMarket.sol\":2167:2171  bank */\n      0x05\n      0x00\n      swap1\n      sload\n      swap1\n      0x0100\n      exp\n      swap1\n      div\n      0xffffffffffffffffffffffffffffffffffffffff\n      and\n        /* \"contracts/nftMarket.sol\":2167:2182  bank.getBalance */\n      0xffffffffffffffffffffffffffffffffffffffff\n      and\n      0x12065fe0\n        /* \"contracts/nftMarket.sol\":2167:2184  bank.getBalance() */\n      mload(0x40)\n      dup2\n      0xffffffff\n      and\n      0xe0\n      shl\n      dup2\n      mstore\n      0x04\n      add\n      0x20\n      mload(0x40)\n      dup1\n      dup4\n      sub\n      dup2\n      dup7\n      gas\n      staticcall\n      iszero\n      dup1\n      iszero\n      tag_99\n      jumpi\n      returndatasize\n      0x00\n      dup1\n      returndatacopy\n      revert(0x00, returndatasize)\n    tag_99:\n      pop\n      pop\n      pop\n      pop\n      mload(0x40)\n      returndatasize\n      not(0x1f)\n      0x1f\n      dup3\n      add\n      and\n      dup3\n      add\n      dup1\n      0x40\n      mstore\n      pop\n      dup2\n      add\n      swap1\n      tag_100\n      swap2\n      swap1\n      tag_101\n      jump\t// in\n    tag_100:\n        /* \"contracts/nftMarket.sol\":2152:2184  uint balance = bank.getBalance() */\n      swap1\n      pop\n        /* \"contracts/nftMarket.sol\":2194:2198  bank */\n      0x05\n      0x00\n      swap1\n      sload\n      swap1\n      0x0100\n      exp\n      swap1\n      div\n      0xffffffffffffffffffffffffffffffffffffffff\n      and\n        /* \"contracts/nftMarket.sol\":2194:2207  bank.withdraw */\n      0xffffffffffffffffffffffffffffffffffffffff\n      and\n      0x2e1a7d4d\n        /* \"contracts/nftMarket.sol\":2208:2215  balance */\n      dup3\n        /* \"contracts/nftMarket.sol\":2194:2216  bank.withdraw(balance) */\n      mload(0x40)\n      dup3\n      0xffffffff\n      and\n      0xe0\n      shl\n      dup2\n      mstore\n      0x04\n      add\n      tag_102\n      swap2\n      swap1\n      tag_103\n      jump\t// in\n    tag_102:\n      0x00\n      mload(0x40)\n      dup1\n      dup4\n      sub\n      dup2\n      0x00\n      dup8\n      dup1\n      extcodesize\n      iszero\n      dup1\n      iszero\n      tag_104\n      jumpi\n      0x00\n      dup1\n      revert\n    tag_104:\n      pop\n      gas\n      call\n      iszero\n      dup1\n      iszero\n      tag_106\n      jumpi\n      returndatasize\n      0x00\n      dup1\n      returndatacopy\n      revert(0x00, returndatasize)\n    tag_106:\n      pop\n      pop\n      pop\n      pop\n        /* \"contracts/nftMarket.sol\":2142:2223  {... */\n      pop\n        /* \"contracts/nftMarket.sol\":2096:2223  function withdrawFromBank() external onlyOwner{... */\n      jump\t// out\n        /* \"#utility.yul\":7:142   */\n    tag_107:\n        /* \"#utility.yul\":95:101   */\n      0x00\n        /* \"#utility.yul\":129:134   */\n      dup2\n        /* \"#utility.yul\":123:135   */\n      mload\n        /* \"#utility.yul\":113:135   */\n      swap1\n      pop\n        /* \"#utility.yul\":7:142   */\n      swap2\n      swap1\n      pop\n      jump\t// out\n        /* \"#utility.yul\":148:353   */\n    tag_108:\n        /* \"#utility.yul\":268:279   */\n      0x00\n        /* \"#utility.yul\":302:308   */\n      dup3\n        /* \"#utility.yul\":297:300   */\n      dup3\n        /* \"#utility.yul\":290:309   */\n      mstore\n        /* \"#utility.yul\":342:346   */\n      0x20\n        /* \"#utility.yul\":337:340   */\n      dup3\n        /* \"#utility.yul\":333:347   */\n      add\n        /* \"#utility.yul\":318:347   */\n      swap1\n      pop\n        /* \"#utility.yul\":148:353   */\n      swap3\n      swap2\n      pop\n      pop\n      jump\t// out\n        /* \"#utility.yul\":359:512   */\n    tag_109:\n        /* \"#utility.yul\":447:451   */\n      0x00\n        /* \"#utility.yul\":470:473   */\n      dup2\n        /* \"#utility.yul\":462:473   */\n      swap1\n      pop\n        /* \"#utility.yul\":500:504   */\n      0x20\n        /* \"#utility.yul\":495:498   */\n      dup3\n        /* \"#utility.yul\":491:505   */\n      add\n        /* \"#utility.yul\":483:505   */\n      swap1\n      pop\n        /* \"#utility.yul\":359:512   */\n      swap2\n      swap1\n      pop\n      jump\t// out\n        /* \"#utility.yul\":518:595   */\n    tag_110:\n        /* \"#utility.yul\":555:562   */\n      0x00\n        /* \"#utility.yul\":584:589   */\n      dup2\n        /* \"#utility.yul\":573:589   */\n      swap1\n      pop\n        /* \"#utility.yul\":518:595   */\n      swap2\n      swap1\n      pop\n      jump\t// out\n        /* \"#utility.yul\":601:709   */\n    tag_111:\n        /* \"#utility.yul\":678:702   */\n      tag_169\n        /* \"#utility.yul\":696:701   */\n      dup2\n        /* \"#utility.yul\":678:702   */\n      tag_110\n      jump\t// in\n    tag_169:\n        /* \"#utility.yul\":673:676   */\n      dup3\n        /* \"#utility.yul\":666:703   */\n      mstore\n        /* \"#utility.yul\":601:709   */\n      pop\n      pop\n      jump\t// out\n        /* \"#utility.yul\":715:814   */\n    tag_112:\n        /* \"#utility.yul\":767:773   */\n      0x00\n        /* \"#utility.yul\":801:806   */\n      dup2\n        /* \"#utility.yul\":795:807   */\n      mload\n        /* \"#utility.yul\":785:807   */\n      swap1\n      pop\n        /* \"#utility.yul\":715:814   */\n      swap2\n      swap1\n      pop\n      jump\t// out\n        /* \"#utility.yul\":820:979   */\n    tag_113:\n        /* \"#utility.yul\":894:905   */\n      0x00\n        /* \"#utility.yul\":928:934   */\n      dup3\n        /* \"#utility.yul\":923:926   */\n      dup3\n        /* \"#utility.yul\":916:935   */\n      mstore\n        /* \"#utility.yul\":968:972   */\n      0x20\n        /* \"#utility.yul\":963:966   */\n      dup3\n        /* \"#utility.yul\":959:973   */\n      add\n        /* \"#utility.yul\":944:973   */\n      swap1\n      pop\n        /* \"#utility.yul\":820:979   */\n      swap3\n      swap2\n      pop\n      pop\n      jump\t// out\n        /* \"#utility.yul\":985:1292   */\n    tag_114:\n        /* \"#utility.yul\":1053:1054   */\n      0x00\n        /* \"#utility.yul\":1063:1176   */\n    tag_173:\n        /* \"#utility.yul\":1077:1083   */\n      dup4\n        /* \"#utility.yul\":1074:1075   */\n      dup2\n        /* \"#utility.yul\":1071:1084   */\n      lt\n        /* \"#utility.yul\":1063:1176   */\n      iszero\n      tag_175\n      jumpi\n        /* \"#utility.yul\":1162:1163   */\n      dup1\n        /* \"#utility.yul\":1157:1160   */\n      dup3\n        /* \"#utility.yul\":1153:1164   */\n      add\n        /* \"#utility.yul\":1147:1165   */\n      mload\n        /* \"#utility.yul\":1143:1144   */\n      dup2\n        /* \"#utility.yul\":1138:1141   */\n      dup5\n        /* \"#utility.yul\":1134:1145   */\n      add\n        /* \"#utility.yul\":1127:1166   */\n      mstore\n        /* \"#utility.yul\":1099:1101   */\n      0x20\n        /* \"#utility.yul\":1096:1097   */\n      dup2\n        /* \"#utility.yul\":1092:1102   */\n      add\n        /* \"#utility.yul\":1087:1102   */\n      swap1\n      pop\n        /* \"#utility.yul\":1063:1176   */\n      jump(tag_173)\n    tag_175:\n        /* \"#utility.yul\":1194:1200   */\n      dup4\n        /* \"#utility.yul\":1191:1192   */\n      dup2\n        /* \"#utility.yul\":1188:1201   */\n      gt\n        /* \"#utility.yul\":1185:1286   */\n      iszero\n      tag_176\n      jumpi\n        /* \"#utility.yul\":1274:1275   */\n      0x00\n        /* \"#utility.yul\":1265:1271   */\n      dup5\n        /* \"#utility.yul\":1260:1263   */\n      dup5\n        /* \"#utility.yul\":1256:1272   */\n      add\n        /* \"#utility.yul\":1249:1276   */\n      mstore\n        /* \"#utility.yul\":1185:1286   */\n    tag_176:\n        /* \"#utility.yul\":1034:1292   */\n      pop\n        /* \"#utility.yul\":985:1292   */\n      pop\n      pop\n      pop\n      jump\t// out\n        /* \"#utility.yul\":1298:1400   */\n    tag_115:\n        /* \"#utility.yul\":1339:1345   */\n      0x00\n        /* \"#utility.yul\":1390:1392   */\n      0x1f\n        /* \"#utility.yul\":1386:1393   */\n      not\n        /* \"#utility.yul\":1381:1383   */\n      0x1f\n        /* \"#utility.yul\":1374:1379   */\n      dup4\n        /* \"#utility.yul\":1370:1384   */\n      add\n        /* \"#utility.yul\":1366:1394   */\n      and\n        /* \"#utility.yul\":1356:1394   */\n      swap1\n      pop\n        /* \"#utility.yul\":1298:1400   */\n      swap2\n      swap1\n      pop\n      jump\t// out\n        /* \"#utility.yul\":1406:1750   */\n    tag_116:\n        /* \"#utility.yul\":1484:1487   */\n      0x00\n        /* \"#utility.yul\":1512:1551   */\n      tag_179\n        /* \"#utility.yul\":1545:1550   */\n      dup3\n        /* \"#utility.yul\":1512:1551   */\n      tag_112\n      jump\t// in\n    tag_179:\n        /* \"#utility.yul\":1567:1628   */\n      tag_180\n        /* \"#utility.yul\":1621:1627   */\n      dup2\n        /* \"#utility.yul\":1616:1619   */\n      dup6\n        /* \"#utility.yul\":1567:1628   */\n      tag_113\n      jump\t// in\n    tag_180:\n        /* \"#utility.yul\":1560:1628   */\n      swap4\n      pop\n        /* \"#utility.yul\":1637:1689   */\n      tag_181\n        /* \"#utility.yul\":1682:1688   */\n      dup2\n        /* \"#utility.yul\":1677:1680   */\n      dup6\n        /* \"#utility.yul\":1670:1674   */\n      0x20\n        /* \"#utility.yul\":1663:1668   */\n      dup7\n        /* \"#utility.yul\":1659:1675   */\n      add\n        /* \"#utility.yul\":1637:1689   */\n      tag_114\n      jump\t// in\n    tag_181:\n        /* \"#utility.yul\":1714:1743   */\n      tag_182\n        /* \"#utility.yul\":1736:1742   */\n      dup2\n        /* \"#utility.yul\":1714:1743   */\n      tag_115\n      jump\t// in\n    tag_182:\n        /* \"#utility.yul\":1709:1712   */\n      dup5\n        /* \"#utility.yul\":1705:1744   */\n      add\n        /* \"#utility.yul\":1698:1744   */\n      swap2\n      pop\n        /* \"#utility.yul\":1488:1750   */\n      pop\n        /* \"#utility.yul\":1406:1750   */\n      swap3\n      swap2\n      pop\n      pop\n      jump\t// out\n        /* \"#utility.yul\":1756:1882   */\n    tag_117:\n        /* \"#utility.yul\":1793:1800   */\n      0x00\n        /* \"#utility.yul\":1833:1875   */\n      0xffffffffffffffffffffffffffffffffffffffff\n        /* \"#utility.yul\":1826:1831   */\n      dup3\n        /* \"#utility.yul\":1822:1876   */\n      and\n        /* \"#utility.yul\":1811:1876   */\n      swap1\n      pop\n        /* \"#utility.yul\":1756:1882   */\n      swap2\n      swap1\n      pop\n      jump\t// out\n        /* \"#utility.yul\":1888:1984   */\n    tag_118:\n        /* \"#utility.yul\":1925:1932   */\n      0x00\n        /* \"#utility.yul\":1954:1978   */\n      tag_185\n        /* \"#utility.yul\":1972:1977   */\n      dup3\n        /* \"#utility.yul\":1954:1978   */\n      tag_117\n      jump\t// in\n    tag_185:\n        /* \"#utility.yul\":1943:1978   */\n      swap1\n      pop\n        /* \"#utility.yul\":1888:1984   */\n      swap2\n      swap1\n      pop\n      jump\t// out\n        /* \"#utility.yul\":1990:2098   */\n    tag_119:\n        /* \"#utility.yul\":2067:2091   */\n      tag_187\n        /* \"#utility.yul\":2085:2090   */\n      dup2\n        /* \"#utility.yul\":2067:2091   */\n      tag_118\n      jump\t// in\n    tag_187:\n        /* \"#utility.yul\":2062:2065   */\n      dup3\n        /* \"#utility.yul\":2055:2092   */\n      mstore\n        /* \"#utility.yul\":1990:2098   */\n      pop\n      pop\n      jump\t// out\n        /* \"#utility.yul\":2160:2921   */\n    tag_120:\n        /* \"#utility.yul\":2261:2264   */\n      0x00\n        /* \"#utility.yul\":2297:2301   */\n      0x60\n        /* \"#utility.yul\":2292:2295   */\n      dup4\n        /* \"#utility.yul\":2288:2302   */\n      add\n        /* \"#utility.yul\":2382:2386   */\n      0x00\n        /* \"#utility.yul\":2375:2380   */\n      dup4\n        /* \"#utility.yul\":2371:2387   */\n      add\n        /* \"#utility.yul\":2365:2388   */\n      mload\n        /* \"#utility.yul\":2401:2464   */\n      tag_189\n        /* \"#utility.yul\":2458:2462   */\n      0x00\n        /* \"#utility.yul\":2453:2456   */\n      dup7\n        /* \"#utility.yul\":2449:2463   */\n      add\n        /* \"#utility.yul\":2435:2447   */\n      dup3\n        /* \"#utility.yul\":2401:2464   */\n      tag_111\n      jump\t// in\n    tag_189:\n        /* \"#utility.yul\":2312:2474   */\n      pop\n        /* \"#utility.yul\":2556:2560   */\n      0x20\n        /* \"#utility.yul\":2549:2554   */\n      dup4\n        /* \"#utility.yul\":2545:2561   */\n      add\n        /* \"#utility.yul\":2539:2562   */\n      mload\n        /* \"#utility.yul\":2609:2612   */\n      dup5\n        /* \"#utility.yul\":2603:2607   */\n      dup3\n        /* \"#utility.yul\":2599:2613   */\n      sub\n        /* \"#utility.yul\":2592:2596   */\n      0x20\n        /* \"#utility.yul\":2587:2590   */\n      dup7\n        /* \"#utility.yul\":2583:2597   */\n      add\n        /* \"#utility.yul\":2576:2614   */\n      mstore\n        /* \"#utility.yul\":2635:2708   */\n      tag_190\n        /* \"#utility.yul\":2703:2707   */\n      dup3\n        /* \"#utility.yul\":2689:2701   */\n      dup3\n        /* \"#utility.yul\":2635:2708   */\n      tag_116\n      jump\t// in\n    tag_190:\n        /* \"#utility.yul\":2627:2708   */\n      swap2\n      pop\n        /* \"#utility.yul\":2484:2719   */\n      pop\n        /* \"#utility.yul\":2802:2806   */\n      0x40\n        /* \"#utility.yul\":2795:2800   */\n      dup4\n        /* \"#utility.yul\":2791:2807   */\n      add\n        /* \"#utility.yul\":2785:2808   */\n      mload\n        /* \"#utility.yul\":2821:2884   */\n      tag_191\n        /* \"#utility.yul\":2878:2882   */\n      0x40\n        /* \"#utility.yul\":2873:2876   */\n      dup7\n        /* \"#utility.yul\":2869:2883   */\n      add\n        /* \"#utility.yul\":2855:2867   */\n      dup3\n        /* \"#utility.yul\":2821:2884   */\n      tag_119\n      jump\t// in\n    tag_191:\n        /* \"#utility.yul\":2729:2894   */\n      pop\n        /* \"#utility.yul\":2911:2915   */\n      dup1\n        /* \"#utility.yul\":2904:2915   */\n      swap2\n      pop\n        /* \"#utility.yul\":2266:2921   */\n      pop\n        /* \"#utility.yul\":2160:2921   */\n      swap3\n      swap2\n      pop\n      pop\n      jump\t// out\n        /* \"#utility.yul\":2927:3167   */\n    tag_121:\n        /* \"#utility.yul\":3038:3048   */\n      0x00\n        /* \"#utility.yul\":3073:3161   */\n      tag_193\n        /* \"#utility.yul\":3157:3160   */\n      dup4\n        /* \"#utility.yul\":3149:3155   */\n      dup4\n        /* \"#utility.yul\":3073:3161   */\n      tag_120\n      jump\t// in\n    tag_193:\n        /* \"#utility.yul\":3059:3161   */\n      swap1\n      pop\n        /* \"#utility.yul\":2927:3167   */\n      swap3\n      swap2\n      pop\n      pop\n      jump\t// out\n        /* \"#utility.yul\":3173:3307   */\n    tag_122:\n        /* \"#utility.yul\":3264:3268   */\n      0x00\n        /* \"#utility.yul\":3296:3300   */\n      0x20\n        /* \"#utility.yul\":3291:3294   */\n      dup3\n        /* \"#utility.yul\":3287:3301   */\n      add\n        /* \"#utility.yul\":3279:3301   */\n      swap1\n      pop\n        /* \"#utility.yul\":3173:3307   */\n      swap2\n      swap1\n      pop\n      jump\t// out\n        /* \"#utility.yul\":3373:4452   */\n    tag_123:\n        /* \"#utility.yul\":3534:3537   */\n      0x00\n        /* \"#utility.yul\":3563:3638   */\n      tag_196\n        /* \"#utility.yul\":3632:3637   */\n      dup3\n        /* \"#utility.yul\":3563:3638   */\n      tag_107\n      jump\t// in\n    tag_196:\n        /* \"#utility.yul\":3654:3761   */\n      tag_197\n        /* \"#utility.yul\":3754:3760   */\n      dup2\n        /* \"#utility.yul\":3749:3752   */\n      dup6\n        /* \"#utility.yul\":3654:3761   */\n      tag_108\n      jump\t// in\n    tag_197:\n        /* \"#utility.yul\":3647:3761   */\n      swap4\n      pop\n        /* \"#utility.yul\":3787:3790   */\n      dup4\n        /* \"#utility.yul\":3832:3836   */\n      0x20\n        /* \"#utility.yul\":3824:3830   */\n      dup3\n        /* \"#utility.yul\":3820:3837   */\n      mul\n        /* \"#utility.yul\":3815:3818   */\n      dup6\n        /* \"#utility.yul\":3811:3838   */\n      add\n        /* \"#utility.yul\":3862:3939   */\n      tag_198\n        /* \"#utility.yul\":3933:3938   */\n      dup6\n        /* \"#utility.yul\":3862:3939   */\n      tag_109\n      jump\t// in\n    tag_198:\n        /* \"#utility.yul\":3962:3969   */\n      dup1\n        /* \"#utility.yul\":3993:3994   */\n      0x00\n        /* \"#utility.yul\":3978:4407   */\n    tag_199:\n        /* \"#utility.yul\":4003:4009   */\n      dup6\n        /* \"#utility.yul\":4000:4001   */\n      dup2\n        /* \"#utility.yul\":3997:4010   */\n      lt\n        /* \"#utility.yul\":3978:4407   */\n      iszero\n      tag_201\n      jumpi\n        /* \"#utility.yul\":4074:4083   */\n      dup5\n        /* \"#utility.yul\":4068:4072   */\n      dup5\n        /* \"#utility.yul\":4064:4084   */\n      sub\n        /* \"#utility.yul\":4059:4062   */\n      dup10\n        /* \"#utility.yul\":4052:4085   */\n      mstore\n        /* \"#utility.yul\":4125:4131   */\n      dup2\n        /* \"#utility.yul\":4119:4132   */\n      mload\n        /* \"#utility.yul\":4153:4259   */\n      tag_202\n        /* \"#utility.yul\":4254:4258   */\n      dup6\n        /* \"#utility.yul\":4239:4252   */\n      dup3\n        /* \"#utility.yul\":4153:4259   */\n      tag_121\n      jump\t// in\n    tag_202:\n        /* \"#utility.yul\":4145:4259   */\n      swap5\n      pop\n        /* \"#utility.yul\":4282:4363   */\n      tag_203\n        /* \"#utility.yul\":4356:4362   */\n      dup4\n        /* \"#utility.yul\":4282:4363   */\n      tag_122\n      jump\t// in\n    tag_203:\n        /* \"#utility.yul\":4272:4363   */\n      swap3\n      pop\n        /* \"#utility.yul\":4392:4396   */\n      0x20\n        /* \"#utility.yul\":4387:4390   */\n      dup11\n        /* \"#utility.yul\":4383:4397   */\n      add\n        /* \"#utility.yul\":4376:4397   */\n      swap10\n      pop\n        /* \"#utility.yul\":4038:4407   */\n      pop\n        /* \"#utility.yul\":4025:4026   */\n      0x01\n        /* \"#utility.yul\":4022:4023   */\n      dup2\n        /* \"#utility.yul\":4018:4027   */\n      add\n        /* \"#utility.yul\":4013:4027   */\n      swap1\n      pop\n        /* \"#utility.yul\":3978:4407   */\n      jump(tag_199)\n    tag_201:\n        /* \"#utility.yul\":3982:3996   */\n      pop\n        /* \"#utility.yul\":4423:4427   */\n      dup3\n        /* \"#utility.yul\":4416:4427   */\n      swap8\n      pop\n        /* \"#utility.yul\":4443:4446   */\n      dup8\n        /* \"#utility.yul\":4436:4446   */\n      swap6\n      pop\n        /* \"#utility.yul\":3539:4452   */\n      pop\n      pop\n      pop\n      pop\n      pop\n        /* \"#utility.yul\":3373:4452   */\n      swap3\n      swap2\n      pop\n      pop\n      jump\t// out\n        /* \"#utility.yul\":4458:4915   */\n    tag_17:\n        /* \"#utility.yul\":4643:4647   */\n      0x00\n        /* \"#utility.yul\":4681:4683   */\n      0x20\n        /* \"#utility.yul\":4670:4679   */\n      dup3\n        /* \"#utility.yul\":4666:4684   */\n      add\n        /* \"#utility.yul\":4658:4684   */\n      swap1\n      pop\n        /* \"#utility.yul\":4730:4739   */\n      dup2\n        /* \"#utility.yul\":4724:4728   */\n      dup2\n        /* \"#utility.yul\":4720:4740   */\n      sub\n        /* \"#utility.yul\":4716:4717   */\n      0x00\n        /* \"#utility.yul\":4705:4714   */\n      dup4\n        /* \"#utility.yul\":4701:4718   */\n      add\n        /* \"#utility.yul\":4694:4741   */\n      mstore\n        /* \"#utility.yul\":4758:4908   */\n      tag_205\n        /* \"#utility.yul\":4903:4907   */\n      dup2\n        /* \"#utility.yul\":4894:4900   */\n      dup5\n        /* \"#utility.yul\":4758:4908   */\n      tag_123\n      jump\t// in\n    tag_205:\n        /* \"#utility.yul\":4750:4908   */\n      swap1\n      pop\n        /* \"#utility.yul\":4458:4915   */\n      swap3\n      swap2\n      pop\n      pop\n      jump\t// out\n        /* \"#utility.yul\":4921:4996   */\n    tag_124:\n        /* \"#utility.yul\":4954:4960   */\n      0x00\n        /* \"#utility.yul\":4987:4989   */\n      0x40\n        /* \"#utility.yul\":4981:4990   */\n      mload\n        /* \"#utility.yul\":4971:4990   */\n      swap1\n      pop\n        /* \"#utility.yul\":4921:4996   */\n      swap1\n      jump\t// out\n        /* \"#utility.yul\":5002:5119   */\n    tag_125:\n        /* \"#utility.yul\":5111:5112   */\n      0x00\n        /* \"#utility.yul\":5108:5109   */\n      dup1\n        /* \"#utility.yul\":5101:5113   */\n      revert\n        /* \"#utility.yul\":5125:5242   */\n    tag_126:\n        /* \"#utility.yul\":5234:5235   */\n      0x00\n        /* \"#utility.yul\":5231:5232   */\n      dup1\n        /* \"#utility.yul\":5224:5236   */\n      revert\n        /* \"#utility.yul\":5248:5365   */\n    tag_127:\n        /* \"#utility.yul\":5357:5358   */\n      0x00\n        /* \"#utility.yul\":5354:5355   */\n      dup1\n        /* \"#utility.yul\":5347:5359   */\n      revert\n        /* \"#utility.yul\":5371:5488   */\n    tag_128:\n        /* \"#utility.yul\":5480:5481   */\n      0x00\n        /* \"#utility.yul\":5477:5478   */\n      dup1\n        /* \"#utility.yul\":5470:5482   */\n      revert\n        /* \"#utility.yul\":5494:5674   */\n    tag_129:\n        /* \"#utility.yul\":5542:5619   */\n      0x4e487b7100000000000000000000000000000000000000000000000000000000\n        /* \"#utility.yul\":5539:5540   */\n      0x00\n        /* \"#utility.yul\":5532:5620   */\n      mstore\n        /* \"#utility.yul\":5639:5643   */\n      0x41\n        /* \"#utility.yul\":5636:5637   */\n      0x04\n        /* \"#utility.yul\":5629:5644   */\n      mstore\n        /* \"#utility.yul\":5663:5667   */\n      0x24\n        /* \"#utility.yul\":5660:5661   */\n      0x00\n        /* \"#utility.yul\":5653:5668   */\n      revert\n        /* \"#utility.yul\":5680:5961   */\n    tag_130:\n        /* \"#utility.yul\":5763:5790   */\n      tag_213\n        /* \"#utility.yul\":5785:5789   */\n      dup3\n        /* \"#utility.yul\":5763:5790   */\n      tag_115\n      jump\t// in\n    tag_213:\n        /* \"#utility.yul\":5755:5761   */\n      dup2\n        /* \"#utility.yul\":5751:5791   */\n      add\n        /* \"#utility.yul\":5893:5899   */\n      dup2\n        /* \"#utility.yul\":5881:5891   */\n      dup2\n        /* \"#utility.yul\":5878:5900   */\n      lt\n        /* \"#utility.yul\":5857:5875   */\n      0xffffffffffffffff\n        /* \"#utility.yul\":5845:5855   */\n      dup3\n        /* \"#utility.yul\":5842:5876   */\n      gt\n        /* \"#utility.yul\":5839:5901   */\n      or\n        /* \"#utility.yul\":5836:5924   */\n      iszero\n      tag_214\n      jumpi\n        /* \"#utility.yul\":5904:5922   */\n      tag_215\n      tag_129\n      jump\t// in\n    tag_215:\n        /* \"#utility.yul\":5836:5924   */\n    tag_214:\n        /* \"#utility.yul\":5944:5954   */\n      dup1\n        /* \"#utility.yul\":5940:5942   */\n      0x40\n        /* \"#utility.yul\":5933:5955   */\n      mstore\n        /* \"#utility.yul\":5723:5961   */\n      pop\n        /* \"#utility.yul\":5680:5961   */\n      pop\n      pop\n      jump\t// out\n        /* \"#utility.yul\":5967:6096   */\n    tag_131:\n        /* \"#utility.yul\":6001:6007   */\n      0x00\n        /* \"#utility.yul\":6028:6048   */\n      tag_217\n      tag_124\n      jump\t// in\n    tag_217:\n        /* \"#utility.yul\":6018:6048   */\n      swap1\n      pop\n        /* \"#utility.yul\":6057:6090   */\n      tag_218\n        /* \"#utility.yul\":6085:6089   */\n      dup3\n        /* \"#utility.yul\":6077:6083   */\n      dup3\n        /* \"#utility.yul\":6057:6090   */\n      tag_130\n      jump\t// in\n    tag_218:\n        /* \"#utility.yul\":5967:6096   */\n      swap2\n      swap1\n      pop\n      jump\t// out\n        /* \"#utility.yul\":6102:6410   */\n    tag_132:\n        /* \"#utility.yul\":6164:6168   */\n      0x00\n        /* \"#utility.yul\":6254:6272   */\n      0xffffffffffffffff\n        /* \"#utility.yul\":6246:6252   */\n      dup3\n        /* \"#utility.yul\":6243:6273   */\n      gt\n        /* \"#utility.yul\":6240:6296   */\n      iszero\n      tag_220\n      jumpi\n        /* \"#utility.yul\":6276:6294   */\n      tag_221\n      tag_129\n      jump\t// in\n    tag_221:\n        /* \"#utility.yul\":6240:6296   */\n    tag_220:\n        /* \"#utility.yul\":6314:6343   */\n      tag_222\n        /* \"#utility.yul\":6336:6342   */\n      dup3\n        /* \"#utility.yul\":6314:6343   */\n      tag_115\n      jump\t// in\n    tag_222:\n        /* \"#utility.yul\":6306:6343   */\n      swap1\n      pop\n        /* \"#utility.yul\":6398:6402   */\n      0x20\n        /* \"#utility.yul\":6392:6396   */\n      dup2\n        /* \"#utility.yul\":6388:6403   */\n      add\n        /* \"#utility.yul\":6380:6403   */\n      swap1\n      pop\n        /* \"#utility.yul\":6102:6410   */\n      swap2\n      swap1\n      pop\n      jump\t// out\n        /* \"#utility.yul\":6416:6570   */\n    tag_133:\n        /* \"#utility.yul\":6500:6506   */\n      dup3\n        /* \"#utility.yul\":6495:6498   */\n      dup2\n        /* \"#utility.yul\":6490:6493   */\n      dup4\n        /* \"#utility.yul\":6477:6507   */\n      calldatacopy\n        /* \"#utility.yul\":6562:6563   */\n      0x00\n        /* \"#utility.yul\":6553:6559   */\n      dup4\n        /* \"#utility.yul\":6548:6551   */\n      dup4\n        /* \"#utility.yul\":6544:6560   */\n      add\n        /* \"#utility.yul\":6537:6564   */\n      mstore\n        /* \"#utility.yul\":6416:6570   */\n      pop\n      pop\n      pop\n      jump\t// out\n        /* \"#utility.yul\":6576:6988   */\n    tag_134:\n        /* \"#utility.yul\":6654:6659   */\n      0x00\n        /* \"#utility.yul\":6679:6745   */\n      tag_225\n        /* \"#utility.yul\":6695:6744   */\n      tag_226\n        /* \"#utility.yul\":6737:6743   */\n      dup5\n        /* \"#utility.yul\":6695:6744   */\n      tag_132\n      jump\t// in\n    tag_226:\n        /* \"#utility.yul\":6679:6745   */\n      tag_131\n      jump\t// in\n    tag_225:\n        /* \"#utility.yul\":6670:6745   */\n      swap1\n      pop\n        /* \"#utility.yul\":6768:6774   */\n      dup3\n        /* \"#utility.yul\":6761:6766   */\n      dup2\n        /* \"#utility.yul\":6754:6775   */\n      mstore\n        /* \"#utility.yul\":6806:6810   */\n      0x20\n        /* \"#utility.yul\":6799:6804   */\n      dup2\n        /* \"#utility.yul\":6795:6811   */\n      add\n        /* \"#utility.yul\":6844:6847   */\n      dup5\n        /* \"#utility.yul\":6835:6841   */\n      dup5\n        /* \"#utility.yul\":6830:6833   */\n      dup5\n        /* \"#utility.yul\":6826:6842   */\n      add\n        /* \"#utility.yul\":6823:6848   */\n      gt\n        /* \"#utility.yul\":6820:6932   */\n      iszero\n      tag_227\n      jumpi\n        /* \"#utility.yul\":6851:6930   */\n      tag_228\n      tag_128\n      jump\t// in\n    tag_228:\n        /* \"#utility.yul\":6820:6932   */\n    tag_227:\n        /* \"#utility.yul\":6941:6982   */\n      tag_229\n        /* \"#utility.yul\":6975:6981   */\n      dup5\n        /* \"#utility.yul\":6970:6973   */\n      dup3\n        /* \"#utility.yul\":6965:6968   */\n      dup6\n        /* \"#utility.yul\":6941:6982   */\n      tag_133\n      jump\t// in\n    tag_229:\n        /* \"#utility.yul\":6660:6988   */\n      pop\n        /* \"#utility.yul\":6576:6988   */\n      swap4\n      swap3\n      pop\n      pop\n      pop\n      jump\t// out\n        /* \"#utility.yul\":7008:7348   */\n    tag_135:\n        /* \"#utility.yul\":7064:7069   */\n      0x00\n        /* \"#utility.yul\":7113:7116   */\n      dup3\n        /* \"#utility.yul\":7106:7110   */\n      0x1f\n        /* \"#utility.yul\":7098:7104   */\n      dup4\n        /* \"#utility.yul\":7094:7111   */\n      add\n        /* \"#utility.yul\":7090:7117   */\n      slt\n        /* \"#utility.yul\":7080:7202   */\n      tag_231\n      jumpi\n        /* \"#utility.yul\":7121:7200   */\n      tag_232\n      tag_127\n      jump\t// in\n    tag_232:\n        /* \"#utility.yul\":7080:7202   */\n    tag_231:\n        /* \"#utility.yul\":7238:7244   */\n      dup2\n        /* \"#utility.yul\":7225:7245   */\n      calldataload\n        /* \"#utility.yul\":7263:7342   */\n      tag_233\n        /* \"#utility.yul\":7338:7341   */\n      dup5\n        /* \"#utility.yul\":7330:7336   */\n      dup3\n        /* \"#utility.yul\":7323:7327   */\n      0x20\n        /* \"#utility.yul\":7315:7321   */\n      dup7\n        /* \"#utility.yul\":7311:7328   */\n      add\n        /* \"#utility.yul\":7263:7342   */\n      tag_134\n      jump\t// in\n    tag_233:\n        /* \"#utility.yul\":7254:7342   */\n      swap2\n      pop\n        /* \"#utility.yul\":7070:7348   */\n      pop\n        /* \"#utility.yul\":7008:7348   */\n      swap3\n      swap2\n      pop\n      pop\n      jump\t// out\n        /* \"#utility.yul\":7354:7863   */\n    tag_24:\n        /* \"#utility.yul\":7423:7429   */\n      0x00\n        /* \"#utility.yul\":7472:7474   */\n      0x20\n        /* \"#utility.yul\":7460:7469   */\n      dup3\n        /* \"#utility.yul\":7451:7458   */\n      dup5\n        /* \"#utility.yul\":7447:7470   */\n      sub\n        /* \"#utility.yul\":7443:7475   */\n      slt\n        /* \"#utility.yul\":7440:7559   */\n      iszero\n      tag_235\n      jumpi\n        /* \"#utility.yul\":7478:7557   */\n      tag_236\n      tag_125\n      jump\t// in\n    tag_236:\n        /* \"#utility.yul\":7440:7559   */\n    tag_235:\n        /* \"#utility.yul\":7626:7627   */\n      0x00\n        /* \"#utility.yul\":7615:7624   */\n      dup3\n        /* \"#utility.yul\":7611:7628   */\n      add\n        /* \"#utility.yul\":7598:7629   */\n      calldataload\n        /* \"#utility.yul\":7656:7674   */\n      0xffffffffffffffff\n        /* \"#utility.yul\":7648:7654   */\n      dup2\n        /* \"#utility.yul\":7645:7675   */\n      gt\n        /* \"#utility.yul\":7642:7759   */\n      iszero\n      tag_237\n      jumpi\n        /* \"#utility.yul\":7678:7757   */\n      tag_238\n      tag_126\n      jump\t// in\n    tag_238:\n        /* \"#utility.yul\":7642:7759   */\n    tag_237:\n        /* \"#utility.yul\":7783:7846   */\n      tag_239\n        /* \"#utility.yul\":7838:7845   */\n      dup5\n        /* \"#utility.yul\":7829:7835   */\n      dup3\n        /* \"#utility.yul\":7818:7827   */\n      dup6\n        /* \"#utility.yul\":7814:7836   */\n      add\n        /* \"#utility.yul\":7783:7846   */\n      tag_135\n      jump\t// in\n    tag_239:\n        /* \"#utility.yul\":7773:7846   */\n      swap2\n      pop\n        /* \"#utility.yul\":7569:7856   */\n      pop\n        /* \"#utility.yul\":7354:7863   */\n      swap3\n      swap2\n      pop\n      pop\n      jump\t// out\n        /* \"#utility.yul\":7869:7987   */\n    tag_136:\n        /* \"#utility.yul\":7956:7980   */\n      tag_241\n        /* \"#utility.yul\":7974:7979   */\n      dup2\n        /* \"#utility.yul\":7956:7980   */\n      tag_118\n      jump\t// in\n    tag_241:\n        /* \"#utility.yul\":7951:7954   */\n      dup3\n        /* \"#utility.yul\":7944:7981   */\n      mstore\n        /* \"#utility.yul\":7869:7987   */\n      pop\n      pop\n      jump\t// out\n        /* \"#utility.yul\":7993:8215   */\n    tag_30:\n        /* \"#utility.yul\":8086:8090   */\n      0x00\n        /* \"#utility.yul\":8124:8126   */\n      0x20\n        /* \"#utility.yul\":8113:8122   */\n      dup3\n        /* \"#utility.yul\":8109:8127   */\n      add\n        /* \"#utility.yul\":8101:8127   */\n      swap1\n      pop\n        /* \"#utility.yul\":8137:8208   */\n      tag_243\n        /* \"#utility.yul\":8205:8206   */\n      0x00\n        /* \"#utility.yul\":8194:8203   */\n      dup4\n        /* \"#utility.yul\":8190:8207   */\n      add\n        /* \"#utility.yul\":8181:8187   */\n      dup5\n        /* \"#utility.yul\":8137:8208   */\n      tag_136\n      jump\t// in\n    tag_243:\n        /* \"#utility.yul\":7993:8215   */\n      swap3\n      swap2\n      pop\n      pop\n      jump\t// out\n        /* \"#utility.yul\":8221:8343   */\n    tag_137:\n        /* \"#utility.yul\":8294:8318   */\n      tag_245\n        /* \"#utility.yul\":8312:8317   */\n      dup2\n        /* \"#utility.yul\":8294:8318   */\n      tag_110\n      jump\t// in\n    tag_245:\n        /* \"#utility.yul\":8287:8292   */\n      dup2\n        /* \"#utility.yul\":8284:8319   */\n      eq\n        /* \"#utility.yul\":8274:8337   */\n      tag_246\n      jumpi\n        /* \"#utility.yul\":8333:8334   */\n      0x00\n        /* \"#utility.yul\":8330:8331   */\n      dup1\n        /* \"#utility.yul\":8323:8335   */\n      revert\n        /* \"#utility.yul\":8274:8337   */\n    tag_246:\n        /* \"#utility.yul\":8221:8343   */\n      pop\n      jump\t// out\n        /* \"#utility.yul\":8349:8488   */\n    tag_138:\n        /* \"#utility.yul\":8395:8400   */\n      0x00\n        /* \"#utility.yul\":8433:8439   */\n      dup2\n        /* \"#utility.yul\":8420:8440   */\n      calldataload\n        /* \"#utility.yul\":8411:8440   */\n      swap1\n      pop\n        /* \"#utility.yul\":8449:8482   */\n      tag_248\n        /* \"#utility.yul\":8476:8481   */\n      dup2\n        /* \"#utility.yul\":8449:8482   */\n      tag_137\n      jump\t// in\n    tag_248:\n        /* \"#utility.yul\":8349:8488   */\n      swap3\n      swap2\n      pop\n      pop\n      jump\t// out\n        /* \"#utility.yul\":8494:8823   */\n    tag_34:\n        /* \"#utility.yul\":8553:8559   */\n      0x00\n        /* \"#utility.yul\":8602:8604   */\n      0x20\n        /* \"#utility.yul\":8590:8599   */\n      dup3\n        /* \"#utility.yul\":8581:8588   */\n      dup5\n        /* \"#utility.yul\":8577:8600   */\n      sub\n        /* \"#utility.yul\":8573:8605   */\n      slt\n        /* \"#utility.yul\":8570:8689   */\n      iszero\n      tag_250\n      jumpi\n        /* \"#utility.yul\":8608:8687   */\n      tag_251\n      tag_125\n      jump\t// in\n    tag_251:\n        /* \"#utility.yul\":8570:8689   */\n    tag_250:\n        /* \"#utility.yul\":8728:8729   */\n      0x00\n        /* \"#utility.yul\":8753:8806   */\n      tag_252\n        /* \"#utility.yul\":8798:8805   */\n      dup5\n        /* \"#utility.yul\":8789:8795   */\n      dup3\n        /* \"#utility.yul\":8778:8787   */\n      dup6\n        /* \"#utility.yul\":8774:8796   */\n      add\n        /* \"#utility.yul\":8753:8806   */\n      tag_138\n      jump\t// in\n    tag_252:\n        /* \"#utility.yul\":8743:8806   */\n      swap2\n      pop\n        /* \"#utility.yul\":8699:8816   */\n      pop\n        /* \"#utility.yul\":8494:8823   */\n      swap3\n      swap2\n      pop\n      pop\n      jump\t// out\n        /* \"#utility.yul\":8829:8947   */\n    tag_139:\n        /* \"#utility.yul\":8916:8940   */\n      tag_254\n        /* \"#utility.yul\":8934:8939   */\n      dup2\n        /* \"#utility.yul\":8916:8940   */\n      tag_110\n      jump\t// in\n    tag_254:\n        /* \"#utility.yul\":8911:8914   */\n      dup3\n        /* \"#utility.yul\":8904:8941   */\n      mstore\n        /* \"#utility.yul\":8829:8947   */\n      pop\n      pop\n      jump\t// out\n        /* \"#utility.yul\":8953:9122   */\n    tag_140:\n        /* \"#utility.yul\":9037:9048   */\n      0x00\n        /* \"#utility.yul\":9071:9077   */\n      dup3\n        /* \"#utility.yul\":9066:9069   */\n      dup3\n        /* \"#utility.yul\":9059:9078   */\n      mstore\n        /* \"#utility.yul\":9111:9115   */\n      0x20\n        /* \"#utility.yul\":9106:9109   */\n      dup3\n        /* \"#utility.yul\":9102:9116   */\n      add\n        /* \"#utility.yul\":9087:9116   */\n      swap1\n      pop\n        /* \"#utility.yul\":8953:9122   */\n      swap3\n      swap2\n      pop\n      pop\n      jump\t// out\n        /* \"#utility.yul\":9128:9492   */\n    tag_141:\n        /* \"#utility.yul\":9216:9219   */\n      0x00\n        /* \"#utility.yul\":9244:9283   */\n      tag_257\n        /* \"#utility.yul\":9277:9282   */\n      dup3\n        /* \"#utility.yul\":9244:9283   */\n      tag_112\n      jump\t// in\n    tag_257:\n        /* \"#utility.yul\":9299:9370   */\n      tag_258\n        /* \"#utility.yul\":9363:9369   */\n      dup2\n        /* \"#utility.yul\":9358:9361   */\n      dup6\n        /* \"#utility.yul\":9299:9370   */\n      tag_140\n      jump\t// in\n    tag_258:\n        /* \"#utility.yul\":9292:9370   */\n      swap4\n      pop\n        /* \"#utility.yul\":9379:9431   */\n      tag_259\n        /* \"#utility.yul\":9424:9430   */\n      dup2\n        /* \"#utility.yul\":9419:9422   */\n      dup6\n        /* \"#utility.yul\":9412:9416   */\n      0x20\n        /* \"#utility.yul\":9405:9410   */\n      dup7\n        /* \"#utility.yul\":9401:9417   */\n      add\n        /* \"#utility.yul\":9379:9431   */\n      tag_114\n      jump\t// in\n    tag_259:\n        /* \"#utility.yul\":9456:9485   */\n      tag_260\n        /* \"#utility.yul\":9478:9484   */\n      dup2\n        /* \"#utility.yul\":9456:9485   */\n      tag_115\n      jump\t// in\n    tag_260:\n        /* \"#utility.yul\":9451:9454   */\n      dup5\n        /* \"#utility.yul\":9447:9486   */\n      add\n        /* \"#utility.yul\":9440:9486   */\n      swap2\n      pop\n        /* \"#utility.yul\":9220:9492   */\n      pop\n        /* \"#utility.yul\":9128:9492   */\n      swap3\n      swap2\n      pop\n      pop\n      jump\t// out\n        /* \"#utility.yul\":9498:10031   */\n    tag_37:\n        /* \"#utility.yul\":9667:9671   */\n      0x00\n        /* \"#utility.yul\":9705:9707   */\n      0x60\n        /* \"#utility.yul\":9694:9703   */\n      dup3\n        /* \"#utility.yul\":9690:9708   */\n      add\n        /* \"#utility.yul\":9682:9708   */\n      swap1\n      pop\n        /* \"#utility.yul\":9718:9789   */\n      tag_262\n        /* \"#utility.yul\":9786:9787   */\n      0x00\n        /* \"#utility.yul\":9775:9784   */\n      dup4\n        /* \"#utility.yul\":9771:9788   */\n      add\n        /* \"#utility.yul\":9762:9768   */\n      dup7\n        /* \"#utility.yul\":9718:9789   */\n      tag_139\n      jump\t// in\n    tag_262:\n        /* \"#utility.yul\":9836:9845   */\n      dup2\n        /* \"#utility.yul\":9830:9834   */\n      dup2\n        /* \"#utility.yul\":9826:9846   */\n      sub\n        /* \"#utility.yul\":9821:9823   */\n      0x20\n        /* \"#utility.yul\":9810:9819   */\n      dup4\n        /* \"#utility.yul\":9806:9824   */\n      add\n        /* \"#utility.yul\":9799:9847   */\n      mstore\n        /* \"#utility.yul\":9864:9942   */\n      tag_263\n        /* \"#utility.yul\":9937:9941   */\n      dup2\n        /* \"#utility.yul\":9928:9934   */\n      dup6\n        /* \"#utility.yul\":9864:9942   */\n      tag_141\n      jump\t// in\n    tag_263:\n        /* \"#utility.yul\":9856:9942   */\n      swap1\n      pop\n        /* \"#utility.yul\":9952:10024   */\n      tag_264\n        /* \"#utility.yul\":10020:10022   */\n      0x40\n        /* \"#utility.yul\":10009:10018   */\n      dup4\n        /* \"#utility.yul\":10005:10023   */\n      add\n        /* \"#utility.yul\":9996:10002   */\n      dup5\n        /* \"#utility.yul\":9952:10024   */\n      tag_136\n      jump\t// in\n    tag_264:\n        /* \"#utility.yul\":9498:10031   */\n      swap5\n      swap4\n      pop\n      pop\n      pop\n      pop\n      jump\t// out\n        /* \"#utility.yul\":10037:10217   */\n    tag_142:\n        /* \"#utility.yul\":10085:10162   */\n      0x4e487b7100000000000000000000000000000000000000000000000000000000\n        /* \"#utility.yul\":10082:10083   */\n      0x00\n        /* \"#utility.yul\":10075:10163   */\n      mstore\n        /* \"#utility.yul\":10182:10186   */\n      0x22\n        /* \"#utility.yul\":10179:10180   */\n      0x04\n        /* \"#utility.yul\":10172:10187   */\n      mstore\n        /* \"#utility.yul\":10206:10210   */\n      0x24\n        /* \"#utility.yul\":10203:10204   */\n      0x00\n        /* \"#utility.yul\":10196:10211   */\n      revert\n        /* \"#utility.yul\":10223:10543   */\n    tag_50:\n        /* \"#utility.yul\":10267:10273   */\n      0x00\n        /* \"#utility.yul\":10304:10305   */\n      0x02\n        /* \"#utility.yul\":10298:10302   */\n      dup3\n        /* \"#utility.yul\":10294:10306   */\n      div\n        /* \"#utility.yul\":10284:10306   */\n      swap1\n      pop\n        /* \"#utility.yul\":10351:10352   */\n      0x01\n        /* \"#utility.yul\":10345:10349   */\n      dup3\n        /* \"#utility.yul\":10341:10353   */\n      and\n        /* \"#utility.yul\":10372:10390   */\n      dup1\n        /* \"#utility.yul\":10362:10443   */\n      tag_267\n      jumpi\n        /* \"#utility.yul\":10428:10432   */\n      0x7f\n        /* \"#utility.yul\":10420:10426   */\n      dup3\n        /* \"#utility.yul\":10416:10433   */\n      and\n        /* \"#utility.yul\":10406:10433   */\n      swap2\n      pop\n        /* \"#utility.yul\":10362:10443   */\n    tag_267:\n        /* \"#utility.yul\":10490:10492   */\n      0x20\n        /* \"#utility.yul\":10482:10488   */\n      dup3\n        /* \"#utility.yul\":10479:10493   */\n      lt\n        /* \"#utility.yul\":10459:10477   */\n      dup2\n        /* \"#utility.yul\":10456:10494   */\n      sub\n        /* \"#utility.yul\":10453:10537   */\n      tag_268\n      jumpi\n        /* \"#utility.yul\":10509:10527   */\n      tag_269\n      tag_142\n      jump\t// in\n    tag_269:\n        /* \"#utility.yul\":10453:10537   */\n    tag_268:\n        /* \"#utility.yul\":10274:10543   */\n      pop\n        /* \"#utility.yul\":10223:10543   */\n      swap2\n      swap1\n      pop\n      jump\t// out\n        /* \"#utility.yul\":10549:10716   */\n    tag_143:\n        /* \"#utility.yul\":10689:10708   */\n      0x596f7520417265204e6f74204f776e6572000000000000000000000000000000\n        /* \"#utility.yul\":10685:10686   */\n      0x00\n        /* \"#utility.yul\":10677:10683   */\n      dup3\n        /* \"#utility.yul\":10673:10687   */\n      add\n        /* \"#utility.yul\":10666:10709   */\n      mstore\n        /* \"#utility.yul\":10549:10716   */\n      pop\n      jump\t// out\n        /* \"#utility.yul\":10722:11088   */\n    tag_144:\n        /* \"#utility.yul\":10864:10867   */\n      0x00\n        /* \"#utility.yul\":10885:10952   */\n      tag_272\n        /* \"#utility.yul\":10949:10951   */\n      0x11\n        /* \"#utility.yul\":10944:10947   */\n      dup4\n        /* \"#utility.yul\":10885:10952   */\n      tag_140\n      jump\t// in\n    tag_272:\n        /* \"#utility.yul\":10878:10952   */\n      swap2\n      pop\n        /* \"#utility.yul\":10961:11054   */\n      tag_273\n        /* \"#utility.yul\":11050:11053   */\n      dup3\n        /* \"#utility.yul\":10961:11054   */\n      tag_143\n      jump\t// in\n    tag_273:\n        /* \"#utility.yul\":11079:11081   */\n      0x20\n        /* \"#utility.yul\":11074:11077   */\n      dup3\n        /* \"#utility.yul\":11070:11082   */\n      add\n        /* \"#utility.yul\":11063:11082   */\n      swap1\n      pop\n        /* \"#utility.yul\":10722:11088   */\n      swap2\n      swap1\n      pop\n      jump\t// out\n        /* \"#utility.yul\":11094:11513   */\n    tag_58:\n        /* \"#utility.yul\":11260:11264   */\n      0x00\n        /* \"#utility.yul\":11298:11300   */\n      0x20\n        /* \"#utility.yul\":11287:11296   */\n      dup3\n        /* \"#utility.yul\":11283:11301   */\n      add\n        /* \"#utility.yul\":11275:11301   */\n      swap1\n      pop\n        /* \"#utility.yul\":11347:11356   */\n      dup2\n        /* \"#utility.yul\":11341:11345   */\n      dup2\n        /* \"#utility.yul\":11337:11357   */\n      sub\n        /* \"#utility.yul\":11333:11334   */\n      0x00\n        /* \"#utility.yul\":11322:11331   */\n      dup4\n        /* \"#utility.yul\":11318:11335   */\n      add\n        /* \"#utility.yul\":11311:11358   */\n      mstore\n        /* \"#utility.yul\":11375:11506   */\n      tag_275\n        /* \"#utility.yul\":11501:11505   */\n      dup2\n        /* \"#utility.yul\":11375:11506   */\n      tag_144\n      jump\t// in\n    tag_275:\n        /* \"#utility.yul\":11367:11506   */\n      swap1\n      pop\n        /* \"#utility.yul\":11094:11513   */\n      swap2\n      swap1\n      pop\n      jump\t// out\n        /* \"#utility.yul\":11519:11660   */\n    tag_145:\n        /* \"#utility.yul\":11568:11572   */\n      0x00\n        /* \"#utility.yul\":11591:11594   */\n      dup2\n        /* \"#utility.yul\":11583:11594   */\n      swap1\n      pop\n        /* \"#utility.yul\":11614:11617   */\n      dup2\n        /* \"#utility.yul\":11611:11612   */\n      0x00\n        /* \"#utility.yul\":11604:11618   */\n      mstore\n        /* \"#utility.yul\":11648:11652   */\n      0x20\n        /* \"#utility.yul\":11645:11646   */\n      0x00\n        /* \"#utility.yul\":11635:11653   */\n      keccak256\n        /* \"#utility.yul\":11627:11653   */\n      swap1\n      pop\n        /* \"#utility.yul\":11519:11660   */\n      swap2\n      swap1\n      pop\n      jump\t// out\n        /* \"#utility.yul\":11666:11759   */\n    tag_146:\n        /* \"#utility.yul\":11703:11709   */\n      0x00\n        /* \"#utility.yul\":11750:11752   */\n      0x20\n        /* \"#utility.yul\":11745:11747   */\n      0x1f\n        /* \"#utility.yul\":11738:11743   */\n      dup4\n        /* \"#utility.yul\":11734:11748   */\n      add\n        /* \"#utility.yul\":11730:11753   */\n      div\n        /* \"#utility.yul\":11720:11753   */\n      swap1\n      pop\n        /* \"#utility.yul\":11666:11759   */\n      swap2\n      swap1\n      pop\n      jump\t// out\n        /* \"#utility.yul\":11765:11872   */\n    tag_147:\n        /* \"#utility.yul\":11809:11817   */\n      0x00\n        /* \"#utility.yul\":11859:11864   */\n      dup3\n        /* \"#utility.yul\":11853:11857   */\n      dup3\n        /* \"#utility.yul\":11849:11865   */\n      shl\n        /* \"#utility.yul\":11828:11865   */\n      swap1\n      pop\n        /* \"#utility.yul\":11765:11872   */\n      swap3\n      swap2\n      pop\n      pop\n      jump\t// out\n        /* \"#utility.yul\":11878:12271   */\n    tag_148:\n        /* \"#utility.yul\":11947:11953   */\n      0x00\n        /* \"#utility.yul\":11997:11998   */\n      0x08\n        /* \"#utility.yul\":11985:11995   */\n      dup4\n        /* \"#utility.yul\":11981:11999   */\n      mul\n        /* \"#utility.yul\":12020:12117   */\n      tag_280\n        /* \"#utility.yul\":12050:12116   */\n      0xffffffffffffffffffffffffffffffffffffffffffffffffffffffffffffffff\n        /* \"#utility.yul\":12039:12048   */\n      dup3\n        /* \"#utility.yul\":12020:12117   */\n      tag_147\n      jump\t// in\n    tag_280:\n        /* \"#utility.yul\":12138:12177   */\n      tag_281\n        /* \"#utility.yul\":12168:12176   */\n      dup7\n        /* \"#utility.yul\":12157:12166   */\n      dup4\n        /* \"#utility.yul\":12138:12177   */\n      tag_147\n      jump\t// in\n    tag_281:\n        /* \"#utility.yul\":12126:12177   */\n      swap6\n      pop\n        /* \"#utility.yul\":12210:12214   */\n      dup1\n        /* \"#utility.yul\":12206:12215   */\n      not\n        /* \"#utility.yul\":12199:12204   */\n      dup5\n        /* \"#utility.yul\":12195:12216   */\n      and\n        /* \"#utility.yul\":12186:12216   */\n      swap4\n      pop\n        /* \"#utility.yul\":12259:12263   */\n      dup1\n        /* \"#utility.yul\":12249:12257   */\n      dup7\n        /* \"#utility.yul\":12245:12264   */\n      and\n        /* \"#utility.yul\":12238:12243   */\n      dup5\n        /* \"#utility.yul\":12235:12265   */\n      or\n        /* \"#utility.yul\":12225:12265   */\n      swap3\n      pop\n        /* \"#utility.yul\":11954:12271   */\n      pop\n      pop\n        /* \"#utility.yul\":11878:12271   */\n      swap4\n      swap3\n      pop\n      pop\n      pop\n      jump\t// out\n        /* \"#utility.yul\":12277:12337   */\n    tag_149:\n        /* \"#utility.yul\":12305:12308   */\n      0x00\n        /* \"#utility.yul\":12326:12331   */\n      dup2\n        /* \"#utility.yul\":12319:12331   */\n      swap1\n      pop\n        /* \"#utility.yul\":12277:12337   */\n      swap2\n      swap1\n      pop\n      jump\t// out\n        /* \"#utility.yul\":12343:12485   */\n    tag_150:\n        /* \"#utility.yul\":12393:12402   */\n      0x00\n        /* \"#utility.yul\":12426:12479   */\n      tag_284\n        /* \"#utility.yul\":12444:12478   */\n      tag_285\n        /* \"#utility.yul\":12453:12477   */\n      tag_286\n        /* \"#utility.yul\":12471:12476   */\n      dup5\n        /* \"#utility.yul\":12453:12477   */\n      tag_110\n      jump\t// in\n    tag_286:\n        /* \"#utility.yul\":12444:12478   */\n      tag_149\n      jump\t// in\n    tag_285:\n        /* \"#utility.yul\":12426:12479   */\n      tag_110\n      jump\t// in\n    tag_284:\n        /* \"#utility.yul\":12413:12479   */\n      swap1\n      pop\n        /* \"#utility.yul\":12343:12485   */\n      swap2\n      swap1\n      pop\n      jump\t// out\n        /* \"#utility.yul\":12491:12566   */\n    tag_151:\n        /* \"#utility.yul\":12534:12537   */\n      0x00\n        /* \"#utility.yul\":12555:12560   */\n      dup2\n        /* \"#utility.yul\":12548:12560   */\n      swap1\n      pop\n        /* \"#utility.yul\":12491:12566   */\n      swap2\n      swap1\n      pop\n      jump\t// out\n        /* \"#utility.yul\":12572:12841   */\n    tag_152:\n        /* \"#utility.yul\":12682:12721   */\n      tag_289\n        /* \"#utility.yul\":12713:12720   */\n      dup4\n        /* \"#utility.yul\":12682:12721   */\n      tag_150\n      jump\t// in\n    tag_289:\n        /* \"#utility.yul\":12743:12834   */\n      tag_290\n        /* \"#utility.yul\":12792:12833   */\n      tag_291\n        /* \"#utility.yul\":12816:12832   */\n      dup3\n        /* \"#utility.yul\":12792:12833   */\n      tag_151\n      jump\t// in\n    tag_291:\n        /* \"#utility.yul\":12784:12790   */\n      dup5\n        /* \"#utility.yul\":12777:12781   */\n      dup5\n        /* \"#utility.yul\":12771:12782   */\n      sload\n        /* \"#utility.yul\":12743:12834   */\n      tag_148\n      jump\t// in\n    tag_290:\n        /* \"#utility.yul\":12737:12741   */\n      dup3\n        /* \"#utility.yul\":12730:12835   */\n      sstore\n        /* \"#utility.yul\":12648:12841   */\n      pop\n        /* \"#utility.yul\":12572:12841   */\n      pop\n      pop\n      pop\n      jump\t// out\n        /* \"#utility.yul\":12847:12920   */\n    tag_153:\n        /* \"#utility.yul\":12892:12895   */\n      0x00\n        /* \"#utility.yul\":12847:12920   */\n      swap1\n      jump\t// out\n        /* \"#utility.yul\":12926:13115   */\n    tag_154:\n        /* \"#utility.yul\":13003:13035   */\n      tag_294\n      tag_153\n      jump\t// in\n    tag_294:\n        /* \"#utility.yul\":13044:13109   */\n      tag_295\n        /* \"#utility.yul\":13102:13108   */\n      dup2\n        /* \"#utility.yul\":13094:13100   */\n      dup5\n        /* \"#utility.yul\":13088:13092   */\n      dup5\n        /* \"#utility.yul\":13044:13109   */\n      tag_152\n      jump\t// in\n    tag_295:\n        /* \"#utility.yul\":12979:13115   */\n      pop\n        /* \"#utility.yul\":12926:13115   */\n      pop\n      pop\n      jump\t// out\n        /* \"#utility.yul\":13121:13307   */\n    tag_155:\n        /* \"#utility.yul\":13181:13301   */\n    tag_297:\n        /* \"#utility.yul\":13198:13201   */\n      dup2\n        /* \"#utility.yul\":13191:13196   */\n      dup2\n        /* \"#utility.yul\":13188:13202   */\n      lt\n        /* \"#utility.yul\":13181:13301   */\n      iszero\n      tag_299\n      jumpi\n        /* \"#utility.yul\":13252:13291   */\n      tag_300\n        /* \"#utility.yul\":13289:13290   */\n      0x00\n        /* \"#utility.yul\":13282:13287   */\n      dup3\n        /* \"#utility.yul\":13252:13291   */\n      tag_154\n      jump\t// in\n    tag_300:\n        /* \"#utility.yul\":13225:13226   */\n      0x01\n        /* \"#utility.yul\":13218:13223   */\n      dup2\n        /* \"#utility.yul\":13214:13227   */\n      add\n        /* \"#utility.yul\":13205:13227   */\n      swap1\n      pop\n        /* \"#utility.yul\":13181:13301   */\n      jump(tag_297)\n    tag_299:\n        /* \"#utility.yul\":13121:13307   */\n      pop\n      pop\n      jump\t// out\n        /* \"#utility.yul\":13313:13856   */\n    tag_156:\n        /* \"#utility.yul\":13414:13416   */\n      0x1f\n        /* \"#utility.yul\":13409:13412   */\n      dup3\n        /* \"#utility.yul\":13406:13417   */\n      gt\n        /* \"#utility.yul\":13403:13849   */\n      iszero\n      tag_302\n      jumpi\n        /* \"#utility.yul\":13448:13486   */\n      tag_303\n        /* \"#utility.yul\":13480:13485   */\n      dup2\n        /* \"#utility.yul\":13448:13486   */\n      tag_145\n      jump\t// in\n    tag_303:\n        /* \"#utility.yul\":13532:13561   */\n      tag_304\n        /* \"#utility.yul\":13550:13560   */\n      dup5\n        /* \"#utility.yul\":13532:13561   */\n      tag_146\n      jump\t// in\n    tag_304:\n        /* \"#utility.yul\":13522:13530   */\n      dup2\n        /* \"#utility.yul\":13518:13562   */\n      add\n        /* \"#utility.yul\":13715:13717   */\n      0x20\n        /* \"#utility.yul\":13703:13713   */\n      dup6\n        /* \"#utility.yul\":13700:13718   */\n      lt\n        /* \"#utility.yul\":13697:13746   */\n      iszero\n      tag_305\n      jumpi\n        /* \"#utility.yul\":13736:13744   */\n      dup2\n        /* \"#utility.yul\":13721:13744   */\n      swap1\n      pop\n        /* \"#utility.yul\":13697:13746   */\n    tag_305:\n        /* \"#utility.yul\":13759:13839   */\n      tag_306\n        /* \"#utility.yul\":13815:13837   */\n      tag_307\n        /* \"#utility.yul\":13833:13836   */\n      dup6\n        /* \"#utility.yul\":13815:13837   */\n      tag_146\n      jump\t// in\n    tag_307:\n        /* \"#utility.yul\":13805:13813   */\n      dup4\n        /* \"#utility.yul\":13801:13838   */\n      add\n        /* \"#utility.yul\":13788:13799   */\n      dup3\n        /* \"#utility.yul\":13759:13839   */\n      tag_155\n      jump\t// in\n    tag_306:\n        /* \"#utility.yul\":13418:13849   */\n      pop\n      pop\n        /* \"#utility.yul\":13403:13849   */\n    tag_302:\n        /* \"#utility.yul\":13313:13856   */\n      pop\n      pop\n      pop\n      jump\t// out\n        /* \"#utility.yul\":13862:13979   */\n    tag_157:\n        /* \"#utility.yul\":13916:13924   */\n      0x00\n        /* \"#utility.yul\":13966:13971   */\n      dup3\n        /* \"#utility.yul\":13960:13964   */\n      dup3\n        /* \"#utility.yul\":13956:13972   */\n      shr\n        /* \"#utility.yul\":13935:13972   */\n      swap1\n      pop\n        /* \"#utility.yul\":13862:13979   */\n      swap3\n      swap2\n      pop\n      pop\n      jump\t// out\n        /* \"#utility.yul\":13985:14154   */\n    tag_158:\n        /* \"#utility.yul\":14029:14035   */\n      0x00\n        /* \"#utility.yul\":14062:14113   */\n      tag_310\n        /* \"#utility.yul\":14110:14111   */\n      0x00\n        /* \"#utility.yul\":14106:14112   */\n      not\n        /* \"#utility.yul\":14098:14103   */\n      dup5\n        /* \"#utility.yul\":14095:14096   */\n      0x08\n        /* \"#utility.yul\":14091:14104   */\n      mul\n        /* \"#utility.yul\":14062:14113   */\n      tag_157\n      jump\t// in\n    tag_310:\n        /* \"#utility.yul\":14058:14114   */\n      not\n        /* \"#utility.yul\":14143:14147   */\n      dup1\n        /* \"#utility.yul\":14137:14141   */\n      dup4\n        /* \"#utility.yul\":14133:14148   */\n      and\n        /* \"#utility.yul\":14123:14148   */\n      swap2\n      pop\n        /* \"#utility.yul\":14036:14154   */\n      pop\n        /* \"#utility.yul\":13985:14154   */\n      swap3\n      swap2\n      pop\n      pop\n      jump\t// out\n        /* \"#utility.yul\":14159:14454   */\n    tag_159:\n        /* \"#utility.yul\":14235:14239   */\n      0x00\n        /* \"#utility.yul\":14381:14410   */\n      tag_312\n        /* \"#utility.yul\":14406:14409   */\n      dup4\n        /* \"#utility.yul\":14400:14404   */\n      dup4\n        /* \"#utility.yul\":14381:14410   */\n      tag_158\n      jump\t// in\n    tag_312:\n        /* \"#utility.yul\":14373:14410   */\n      swap2\n      pop\n        /* \"#utility.yul\":14443:14446   */\n      dup3\n        /* \"#utility.yul\":14440:14441   */\n      0x02\n        /* \"#utility.yul\":14436:14447   */\n      mul\n        /* \"#utility.yul\":14430:14434   */\n      dup3\n        /* \"#utility.yul\":14427:14448   */\n      or\n        /* \"#utility.yul\":14419:14448   */\n      swap1\n      pop\n        /* \"#utility.yul\":14159:14454   */\n      swap3\n      swap2\n      pop\n      pop\n      jump\t// out\n        /* \"#utility.yul\":14459:15854   */\n    tag_68:\n        /* \"#utility.yul\":14576:14613   */\n      tag_314\n        /* \"#utility.yul\":14609:14612   */\n      dup3\n        /* \"#utility.yul\":14576:14613   */\n      tag_112\n      jump\t// in\n    tag_314:\n        /* \"#utility.yul\":14678:14696   */\n      0xffffffffffffffff\n        /* \"#utility.yul\":14670:14676   */\n      dup2\n        /* \"#utility.yul\":14667:14697   */\n      gt\n        /* \"#utility.yul\":14664:14720   */\n      iszero\n      tag_315\n      jumpi\n        /* \"#utility.yul\":14700:14718   */\n      tag_316\n      tag_129\n      jump\t// in\n    tag_316:\n        /* \"#utility.yul\":14664:14720   */\n    tag_315:\n        /* \"#utility.yul\":14744:14782   */\n      tag_317\n        /* \"#utility.yul\":14776:14780   */\n      dup3\n        /* \"#utility.yul\":14770:14781   */\n      sload\n        /* \"#utility.yul\":14744:14782   */\n      tag_50\n      jump\t// in\n    tag_317:\n        /* \"#utility.yul\":14829:14896   */\n      tag_318\n        /* \"#utility.yul\":14889:14895   */\n      dup3\n        /* \"#utility.yul\":14881:14887   */\n      dup3\n        /* \"#utility.yul\":14875:14879   */\n      dup6\n        /* \"#utility.yul\":14829:14896   */\n      tag_156\n      jump\t// in\n    tag_318:\n        /* \"#utility.yul\":14923:14924   */\n      0x00\n        /* \"#utility.yul\":14947:14951   */\n      0x20\n        /* \"#utility.yul\":14934:14951   */\n      swap1\n      pop\n        /* \"#utility.yul\":14979:14981   */\n      0x1f\n        /* \"#utility.yul\":14971:14977   */\n      dup4\n        /* \"#utility.yul\":14968:14982   */\n      gt\n        /* \"#utility.yul\":14996:14997   */\n      0x01\n        /* \"#utility.yul\":14991:15609   */\n      dup2\n      eq\n      tag_320\n      jumpi\n        /* \"#utility.yul\":15653:15654   */\n      0x00\n        /* \"#utility.yul\":15670:15676   */\n      dup5\n        /* \"#utility.yul\":15667:15744   */\n      iszero\n      tag_321\n      jumpi\n        /* \"#utility.yul\":15719:15728   */\n      dup3\n        /* \"#utility.yul\":15714:15717   */\n      dup8\n        /* \"#utility.yul\":15710:15729   */\n      add\n        /* \"#utility.yul\":15704:15730   */\n      mload\n        /* \"#utility.yul\":15695:15730   */\n      swap1\n      pop\n        /* \"#utility.yul\":15667:15744   */\n    tag_321:\n        /* \"#utility.yul\":15770:15837   */\n      tag_322\n        /* \"#utility.yul\":15830:15836   */\n      dup6\n        /* \"#utility.yul\":15823:15828   */\n      dup3\n        /* \"#utility.yul\":15770:15837   */\n      tag_159\n      jump\t// in\n    tag_322:\n        /* \"#utility.yul\":15764:15768   */\n      dup7\n        /* \"#utility.yul\":15757:15838   */\n      sstore\n        /* \"#utility.yul\":15626:15848   */\n      pop\n        /* \"#utility.yul\":14961:15848   */\n      jump(tag_319)\n        /* \"#utility.yul\":14991:15609   */\n    tag_320:\n        /* \"#utility.yul\":15043:15047   */\n      0x1f\n        /* \"#utility.yul\":15039:15048   */\n      not\n        /* \"#utility.yul\":15031:15037   */\n      dup5\n        /* \"#utility.yul\":15027:15049   */\n      and\n        /* \"#utility.yul\":15077:15114   */\n      tag_323\n        /* \"#utility.yul\":15109:15113   */\n      dup7\n        /* \"#utility.yul\":15077:15114   */\n      tag_145\n      jump\t// in\n    tag_323:\n        /* \"#utility.yul\":15136:15137   */\n      0x00\n        /* \"#utility.yul\":15150:15358   */\n    tag_324:\n        /* \"#utility.yul\":15164:15171   */\n      dup3\n        /* \"#utility.yul\":15161:15162   */\n      dup2\n        /* \"#utility.yul\":15158:15172   */\n      lt\n        /* \"#utility.yul\":15150:15358   */\n      iszero\n      tag_326\n      jumpi\n        /* \"#utility.yul\":15243:15252   */\n      dup5\n        /* \"#utility.yul\":15238:15241   */\n      dup10\n        /* \"#utility.yul\":15234:15253   */\n      add\n        /* \"#utility.yul\":15228:15254   */\n      mload\n        /* \"#utility.yul\":15220:15226   */\n      dup3\n        /* \"#utility.yul\":15213:15255   */\n      sstore\n        /* \"#utility.yul\":15294:15295   */\n      0x01\n        /* \"#utility.yul\":15286:15292   */\n      dup3\n        /* \"#utility.yul\":15282:15296   */\n      add\n        /* \"#utility.yul\":15272:15296   */\n      swap2\n      pop\n        /* \"#utility.yul\":15341:15343   */\n      0x20\n        /* \"#utility.yul\":15330:15339   */\n      dup6\n        /* \"#utility.yul\":15326:15344   */\n      add\n        /* \"#utility.yul\":15313:15344   */\n      swap5\n      pop\n        /* \"#utility.yul\":15187:15191   */\n      0x20\n        /* \"#utility.yul\":15184:15185   */\n      dup2\n        /* \"#utility.yul\":15180:15192   */\n      add\n        /* \"#utility.yul\":15175:15192   */\n      swap1\n      pop\n        /* \"#utility.yul\":15150:15358   */\n      jump(tag_324)\n    tag_326:\n        /* \"#utility.yul\":15386:15392   */\n      dup7\n        /* \"#utility.yul\":15377:15384   */\n      dup4\n        /* \"#utility.yul\":15374:15393   */\n      lt\n        /* \"#utility.yul\":15371:15550   */\n      iszero\n      tag_327\n      jumpi\n        /* \"#utility.yul\":15444:15453   */\n      dup5\n        /* \"#utility.yul\":15439:15442   */\n      dup10\n        /* \"#utility.yul\":15435:15454   */\n      add\n        /* \"#utility.yul\":15429:15455   */\n      mload\n        /* \"#utility.yul\":15487:15535   */\n      tag_328\n        /* \"#utility.yul\":15529:15533   */\n      0x1f\n        /* \"#utility.yul\":15521:15527   */\n      dup10\n        /* \"#utility.yul\":15517:15534   */\n      and\n        /* \"#utility.yul\":15506:15515   */\n      dup3\n        /* \"#utility.yul\":15487:15535   */\n      tag_158\n      jump\t// in\n    tag_328:\n        /* \"#utility.yul\":15479:15485   */\n      dup4\n        /* \"#utility.yul\":15472:15536   */\n      sstore\n        /* \"#utility.yul\":15394:15550   */\n      pop\n        /* \"#utility.yul\":15371:15550   */\n    tag_327:\n        /* \"#utility.yul\":15596:15597   */\n      0x01\n        /* \"#utility.yul\":15592:15593   */\n      0x02\n        /* \"#utility.yul\":15584:15590   */\n      dup9\n        /* \"#utility.yul\":15580:15594   */\n      mul\n        /* \"#utility.yul\":15576:15598   */\n      add\n        /* \"#utility.yul\":15570:15574   */\n      dup9\n        /* \"#utility.yul\":15563:15599   */\n      sstore\n        /* \"#utility.yul\":14998:15609   */\n      pop\n      pop\n      pop\n        /* \"#utility.yul\":14961:15848   */\n    tag_319:\n      pop\n        /* \"#utility.yul\":14551:15854   */\n      pop\n      pop\n      pop\n        /* \"#utility.yul\":14459:15854   */\n      pop\n      pop\n      jump\t// out\n        /* \"#utility.yul\":15860:16040   */\n    tag_80:\n        /* \"#utility.yul\":15908:15985   */\n      0x4e487b7100000000000000000000000000000000000000000000000000000000\n        /* \"#utility.yul\":15905:15906   */\n      0x00\n        /* \"#utility.yul\":15898:15986   */\n      mstore\n        /* \"#utility.yul\":16005:16009   */\n      0x32\n        /* \"#utility.yul\":16002:16003   */\n      0x04\n        /* \"#utility.yul\":15995:16010   */\n      mstore\n        /* \"#utility.yul\":16029:16033   */\n      0x24\n        /* \"#utility.yul\":16026:16027   */\n      0x00\n        /* \"#utility.yul\":16019:16034   */\n      revert\n        /* \"#utility.yul\":16046:16214   */\n    tag_160:\n        /* \"#utility.yul\":16186:16206   */\n      0x4b69747479206e6f7420666f722073616c650000000000000000000000000000\n        /* \"#utility.yul\":16182:16183   */\n      0x00\n        /* \"#utility.yul\":16174:16180   */\n      dup3\n        /* \"#utility.yul\":16170:16184   */\n      add\n        /* \"#utility.yul\":16163:16207   */\n      mstore\n        /* \"#utility.yul\":16046:16214   */\n      pop\n      jump\t// out\n        /* \"#utility.yul\":16220:16586   */\n    tag_161:\n        /* \"#utility.yul\":16362:16365   */\n      0x00\n        /* \"#utility.yul\":16383:16450   */\n      tag_332\n        /* \"#utility.yul\":16447:16449   */\n      0x12\n        /* \"#utility.yul\":16442:16445   */\n      dup4\n        /* \"#utility.yul\":16383:16450   */\n      tag_140\n      jump\t// in\n    tag_332:\n        /* \"#utility.yul\":16376:16450   */\n      swap2\n      pop\n        /* \"#utility.yul\":16459:16552   */\n      tag_333\n        /* \"#utility.yul\":16548:16551   */\n      dup3\n        /* \"#utility.yul\":16459:16552   */\n      tag_160\n      jump\t// in\n    tag_333:\n        /* \"#utility.yul\":16577:16579   */\n      0x20\n        /* \"#utility.yul\":16572:16575   */\n      dup3\n        /* \"#utility.yul\":16568:16580   */\n      add\n        /* \"#utility.yul\":16561:16580   */\n      swap1\n      pop\n        /* \"#utility.yul\":16220:16586   */\n      swap2\n      swap1\n      pop\n      jump\t// out\n        /* \"#utility.yul\":16592:17011   */\n    tag_84:\n        /* \"#utility.yul\":16758:16762   */\n      0x00\n        /* \"#utility.yul\":16796:16798   */\n      0x20\n        /* \"#utility.yul\":16785:16794   */\n      dup3\n        /* \"#utility.yul\":16781:16799   */\n      add\n        /* \"#utility.yul\":16773:16799   */\n      swap1\n      pop\n        /* \"#utility.yul\":16845:16854   */\n      dup2\n        /* \"#utility.yul\":16839:16843   */\n      dup2\n        /* \"#utility.yul\":16835:16855   */\n      sub\n        /* \"#utility.yul\":16831:16832   */\n      0x00\n        /* \"#utility.yul\":16820:16829   */\n      dup4\n        /* \"#utility.yul\":16816:16833   */\n      add\n        /* \"#utility.yul\":16809:16856   */\n      mstore\n        /* \"#utility.yul\":16873:17004   */\n      tag_335\n        /* \"#utility.yul\":16999:17003   */\n      dup2\n        /* \"#utility.yul\":16873:17004   */\n      tag_161\n      jump\t// in\n    tag_335:\n        /* \"#utility.yul\":16865:17004   */\n      swap1\n      pop\n        /* \"#utility.yul\":16592:17011   */\n      swap2\n      swap1\n      pop\n      jump\t// out\n        /* \"#utility.yul\":17017:17459   */\n    tag_90:\n        /* \"#utility.yul\":17166:17170   */\n      0x00\n        /* \"#utility.yul\":17204:17206   */\n      0x60\n        /* \"#utility.yul\":17193:17202   */\n      dup3\n        /* \"#utility.yul\":17189:17207   */\n      add\n        /* \"#utility.yul\":17181:17207   */\n      swap1\n      pop\n        /* \"#utility.yul\":17217:17288   */\n      tag_337\n        /* \"#utility.yul\":17285:17286   */\n      0x00\n        /* \"#utility.yul\":17274:17283   */\n      dup4\n        /* \"#utility.yul\":17270:17287   */\n      add\n        /* \"#utility.yul\":17261:17267   */\n      dup7\n        /* \"#utility.yul\":17217:17288   */\n      tag_136\n      jump\t// in\n    tag_337:\n        /* \"#utility.yul\":17298:17370   */\n      tag_338\n        /* \"#utility.yul\":17366:17368   */\n      0x20\n        /* \"#utility.yul\":17355:17364   */\n      dup4\n        /* \"#utility.yul\":17351:17369   */\n      add\n        /* \"#utility.yul\":17342:17348   */\n      dup6\n        /* \"#utility.yul\":17298:17370   */\n      tag_136\n      jump\t// in\n    tag_338:\n        /* \"#utility.yul\":17380:17452   */\n      tag_339\n        /* \"#utility.yul\":17448:17450   */\n      0x40\n        /* \"#utility.yul\":17437:17446   */\n      dup4\n        /* \"#utility.yul\":17433:17451   */\n      add\n        /* \"#utility.yul\":17424:17430   */\n      dup5\n        /* \"#utility.yul\":17380:17452   */\n      tag_139\n      jump\t// in\n    tag_339:\n        /* \"#utility.yul\":17017:17459   */\n      swap5\n      swap4\n      pop\n      pop\n      pop\n      pop\n      jump\t// out\n        /* \"#utility.yul\":17465:17608   */\n    tag_162:\n        /* \"#utility.yul\":17522:17527   */\n      0x00\n        /* \"#utility.yul\":17553:17559   */\n      dup2\n        /* \"#utility.yul\":17547:17560   */\n      mload\n        /* \"#utility.yul\":17538:17560   */\n      swap1\n      pop\n        /* \"#utility.yul\":17569:17602   */\n      tag_341\n        /* \"#utility.yul\":17596:17601   */\n      dup2\n        /* \"#utility.yul\":17569:17602   */\n      tag_137\n      jump\t// in\n    tag_341:\n        /* \"#utility.yul\":17465:17608   */\n      swap3\n      swap2\n      pop\n      pop\n      jump\t// out\n        /* \"#utility.yul\":17614:17965   */\n    tag_101:\n        /* \"#utility.yul\":17684:17690   */\n      0x00\n        /* \"#utility.yul\":17733:17735   */\n      0x20\n        /* \"#utility.yul\":17721:17730   */\n      dup3\n        /* \"#utility.yul\":17712:17719   */\n      dup5\n        /* \"#utility.yul\":17708:17731   */\n      sub\n        /* \"#utility.yul\":17704:17736   */\n      slt\n        /* \"#utility.yul\":17701:17820   */\n      iszero\n      tag_343\n      jumpi\n        /* \"#utility.yul\":17739:17818   */\n      tag_344\n      tag_125\n      jump\t// in\n    tag_344:\n        /* \"#utility.yul\":17701:17820   */\n    tag_343:\n        /* \"#utility.yul\":17859:17860   */\n      0x00\n        /* \"#utility.yul\":17884:17948   */\n      tag_345\n        /* \"#utility.yul\":17940:17947   */\n      dup5\n        /* \"#utility.yul\":17931:17937   */\n      dup3\n        /* \"#utility.yul\":17920:17929   */\n      dup6\n        /* \"#utility.yul\":17916:17938   */\n      add\n        /* \"#utility.yul\":17884:17948   */\n      tag_162\n      jump\t// in\n    tag_345:\n        /* \"#utility.yul\":17874:17948   */\n      swap2\n      pop\n        /* \"#utility.yul\":17830:17958   */\n      pop\n        /* \"#utility.yul\":17614:17965   */\n      swap3\n      swap2\n      pop\n      pop\n      jump\t// out\n        /* \"#utility.yul\":17971:18193   */\n    tag_103:\n        /* \"#utility.yul\":18064:18068   */\n      0x00\n        /* \"#utility.yul\":18102:18104   */\n      0x20\n        /* \"#utility.yul\":18091:18100   */\n      dup3\n        /* \"#utility.yul\":18087:18105   */\n      add\n        /* \"#utility.yul\":18079:18105   */\n      swap1\n      pop\n        /* \"#utility.yul\":18115:18186   */\n      tag_347\n        /* \"#utility.yul\":18183:18184   */\n      0x00\n        /* \"#utility.yul\":18172:18181   */\n      dup4\n        /* \"#utility.yul\":18168:18185   */\n      add\n        /* \"#utility.yul\":18159:18165   */\n      dup5\n        /* \"#utility.yul\":18115:18186   */\n      tag_139\n      jump\t// in\n    tag_347:\n        /* \"#utility.yul\":17971:18193   */\n      swap3\n      swap2\n      pop\n      pop\n      jump\t// out\n\n    auxdata: 0xa26469706673582212202d7f7081170d8d6055b1ad4a3d92b81ad8e20587de9c2dba6207ecf10cb6f88664736f6c634300080f0033\n}\n",
				"bytecode": {
					"linkReferences": {},
					"object": "6080604052678ac7230489e8000060035573d9145cce52d386f254917e481eb44e9943f39138600460006101000a81548173ffffffffffffffffffffffffffffffffffffffff021916908373ffffffffffffffffffffffffffffffffffffffff160217905550600460009054906101000a900473ffffffffffffffffffffffffffffffffffffffff16600560006101000a81548173ffffffffffffffffffffffffffffffffffffffff021916908373ffffffffffffffffffffffffffffffffffffffff1602179055503480156100d457600080fd5b50336000806101000a81548173ffffffffffffffffffffffffffffffffffffffff021916908373ffffffffffffffffffffffffffffffffffffffff160217905550611373806101246000396000f3fe6080604052600436106100745760003560e01c8063893d20e81161004e578063893d20e8146100eb5780638cc51eda14610116578063ae5310f614610155578063be80d4471461017e5761007b565b80630c3fddef146100805780632d90ae94146100ab57806335844dad146100c25761007b565b3661007b57005b600080fd5b34801561008c57600080fd5b50610095610195565b6040516100a29190610bf6565b60405180910390f35b3480156100b757600080fd5b506100c06102e6565b005b3480156100ce57600080fd5b506100e960048036038101906100e49190610d61565b6103bd565b005b3480156100f757600080fd5b5061010061051f565b60405161010d9190610db9565b60405180910390f35b34801561012257600080fd5b5061013d60048036038101906101389190610e00565b610548565b60405161014c93929190610e86565b60405180910390f35b34801561016157600080fd5b5061017c60048036038101906101779190610e00565b61062a565b005b34801561018a57600080fd5b5061019361083e565b005b60606001805480602002602001604051908101604052809291908181526020016000905b828210156102dd5783829060005260206000209060030201604051806060016040529081600082015481526020016001820180546101f690610ef3565b80601f016020809104026020016040519081016040528092919081815260200182805461022290610ef3565b801561026f5780601f106102445761010080835404028352916020019161026f565b820191906000526020600020905b81548152906001019060200180831161025257829003601f168201915b505050505081526020016002820160009054906101000a900473ffffffffffffffffffffffffffffffffffffffff1673ffffffffffffffffffffffffffffffffffffffff1673ffffffffffffffffffffffffffffffffffffffff1681525050815260200190600101906101b9565b50505050905090565b60008054906101000a900473ffffffffffffffffffffffffffffffffffffffff1673ffffffffffffffffffffffffffffffffffffffff163373ffffffffffffffffffffffffffffffffffffffff1614610374576040517f08c379a000000000000000000000000000000000000000000000000000000000815260040161036b90610f70565b60405180910390fd5b3373ffffffffffffffffffffffffffffffffffffffff166108fc479081150290604051600060405180830381858888f193505050501580156103ba573d6000803e3d6000fd5b50565b60008054906101000a900473ffffffffffffffffffffffffffffffffffffffff1673ffffffffffffffffffffffffffffffffffffffff163373ffffffffffffffffffffffffffffffffffffffff161461044b576040517f08c379a000000000000000000000000000000000000000000000000000000000815260040161044290610f70565b60405180910390fd5b600060405180606001604052806001805490508152602001838152602001600073ffffffffffffffffffffffffffffffffffffffff16815250905060018190806001815401808255809150506001900390600052602060002090600302016000909190919091506000820151816000015560208201518160010190816104d1919061113c565b5060408201518160020160006101000a81548173ffffffffffffffffffffffffffffffffffffffff021916908373ffffffffffffffffffffffffffffffffffffffff16021790555050505050565b60008060009054906101000a900473ffffffffffffffffffffffffffffffffffffffff16905090565b6001818154811061055857600080fd5b906000526020600020906003020160009150905080600001549080600101805461058190610ef3565b80601f01602080910402602001604051908101604052809291908181526020018280546105ad90610ef3565b80156105fa5780601f106105cf576101008083540402835291602001916105fa565b820191906000526020600020905b8154815290600101906020018083116105dd57829003601f168201915b5050505050908060020160009054906101000a900473ffffffffffffffffffffffffffffffffffffffff16905083565b600073ffffffffffffffffffffffffffffffffffffffff16600182815481106106565761065561120e565b5b906000526020600020906003020160020160009054906101000a900473ffffffffffffffffffffffffffffffffffffffff1673ffffffffffffffffffffffffffffffffffffffff16146106de576040517f08c379a00000000000000000000000000000000000000000000000000000000081526004016106d590611289565b60405180910390fd5b600260003373ffffffffffffffffffffffffffffffffffffffff1673ffffffffffffffffffffffffffffffffffffffff16815260200190815260200160002081908060018154018082558091505060019003906000526020600020016000909190919091505533600182815481106107595761075861120e565b5b906000526020600020906003020160020160006101000a81548173ffffffffffffffffffffffffffffffffffffffff021916908373ffffffffffffffffffffffffffffffffffffffff160217905550600560009054906101000a900473ffffffffffffffffffffffffffffffffffffffff1673ffffffffffffffffffffffffffffffffffffffff166323b872dd33306003546040518463ffffffff1660e01b8152600401610809939291906112a9565b600060405180830381600087803b15801561082357600080fd5b505af1158015610837573d6000803e3d6000fd5b5050505050565b60008054906101000a900473ffffffffffffffffffffffffffffffffffffffff1673ffffffffffffffffffffffffffffffffffffffff163373ffffffffffffffffffffffffffffffffffffffff16146108cc576040517f08c379a00000000000000000000000000000000000000000000000000000000081526004016108c390610f70565b60405180910390fd5b6000600560009054906101000a900473ffffffffffffffffffffffffffffffffffffffff1673ffffffffffffffffffffffffffffffffffffffff166312065fe06040518163ffffffff1660e01b8152600401602060405180830381865afa15801561093b573d6000803e3d6000fd5b505050506040513d601f19601f8201168201806040525081019061095f91906112f5565b9050600560009054906101000a900473ffffffffffffffffffffffffffffffffffffffff1673ffffffffffffffffffffffffffffffffffffffff16632e1a7d4d826040518263ffffffff1660e01b81526004016109bc9190611322565b600060405180830381600087803b1580156109d657600080fd5b505af11580156109ea573d6000803e3d6000fd5b5050505050565b600081519050919050565b600082825260208201905092915050565b6000819050602082019050919050565b6000819050919050565b610a3081610a1d565b82525050565b600081519050919050565b600082825260208201905092915050565b60005b83811015610a70578082015181840152602081019050610a55565b83811115610a7f576000848401525b50505050565b6000601f19601f8301169050919050565b6000610aa182610a36565b610aab8185610a41565b9350610abb818560208601610a52565b610ac481610a85565b840191505092915050565b600073ffffffffffffffffffffffffffffffffffffffff82169050919050565b6000610afa82610acf565b9050919050565b610b0a81610aef565b82525050565b6000606083016000830151610b286000860182610a27565b5060208301518482036020860152610b408282610a96565b9150506040830151610b556040860182610b01565b508091505092915050565b6000610b6c8383610b10565b905092915050565b6000602082019050919050565b6000610b8c826109f1565b610b9681856109fc565b935083602082028501610ba885610a0d565b8060005b85811015610be45784840389528151610bc58582610b60565b9450610bd083610b74565b925060208a01995050600181019050610bac565b50829750879550505050505092915050565b60006020820190508181036000830152610c108184610b81565b905092915050565b6000604051905090565b600080fd5b600080fd5b600080fd5b600080fd5b7f4e487b7100000000000000000000000000000000000000000000000000000000600052604160045260246000fd5b610c6e82610a85565b810181811067ffffffffffffffff82111715610c8d57610c8c610c36565b5b80604052505050565b6000610ca0610c18565b9050610cac8282610c65565b919050565b600067ffffffffffffffff821115610ccc57610ccb610c36565b5b610cd582610a85565b9050602081019050919050565b82818337600083830152505050565b6000610d04610cff84610cb1565b610c96565b905082815260208101848484011115610d2057610d1f610c31565b5b610d2b848285610ce2565b509392505050565b600082601f830112610d4857610d47610c2c565b5b8135610d58848260208601610cf1565b91505092915050565b600060208284031215610d7757610d76610c22565b5b600082013567ffffffffffffffff811115610d9557610d94610c27565b5b610da184828501610d33565b91505092915050565b610db381610aef565b82525050565b6000602082019050610dce6000830184610daa565b92915050565b610ddd81610a1d565b8114610de857600080fd5b50565b600081359050610dfa81610dd4565b92915050565b600060208284031215610e1657610e15610c22565b5b6000610e2484828501610deb565b91505092915050565b610e3681610a1d565b82525050565b600082825260208201905092915050565b6000610e5882610a36565b610e628185610e3c565b9350610e72818560208601610a52565b610e7b81610a85565b840191505092915050565b6000606082019050610e9b6000830186610e2d565b8181036020830152610ead8185610e4d565b9050610ebc6040830184610daa565b949350505050565b7f4e487b7100000000000000000000000000000000000000000000000000000000600052602260045260246000fd5b60006002820490506001821680610f0b57607f821691505b602082108103610f1e57610f1d610ec4565b5b50919050565b7f596f7520417265204e6f74204f776e6572000000000000000000000000000000600082015250565b6000610f5a601183610e3c565b9150610f6582610f24565b602082019050919050565b60006020820190508181036000830152610f8981610f4d565b9050919050565b60008190508160005260206000209050919050565b60006020601f8301049050919050565b600082821b905092915050565b600060088302610ff27fffffffffffffffffffffffffffffffffffffffffffffffffffffffffffffffff82610fb5565b610ffc8683610fb5565b95508019841693508086168417925050509392505050565b6000819050919050565b600061103961103461102f84610a1d565b611014565b610a1d565b9050919050565b6000819050919050565b6110538361101e565b61106761105f82611040565b848454610fc2565b825550505050565b600090565b61107c61106f565b61108781848461104a565b505050565b5b818110156110ab576110a0600082611074565b60018101905061108d565b5050565b601f8211156110f0576110c181610f90565b6110ca84610fa5565b810160208510156110d9578190505b6110ed6110e585610fa5565b83018261108c565b50505b505050565b600082821c905092915050565b6000611113600019846008026110f5565b1980831691505092915050565b600061112c8383611102565b9150826002028217905092915050565b61114582610a36565b67ffffffffffffffff81111561115e5761115d610c36565b5b6111688254610ef3565b6111738282856110af565b600060209050601f8311600181146111a65760008415611194578287015190505b61119e8582611120565b865550611206565b601f1984166111b486610f90565b60005b828110156111dc578489015182556001820191506020850194506020810190506111b7565b868310156111f957848901516111f5601f891682611102565b8355505b6001600288020188555050505b505050505050565b7f4e487b7100000000000000000000000000000000000000000000000000000000600052603260045260246000fd5b7f4b69747479206e6f7420666f722073616c650000000000000000000000000000600082015250565b6000611273601283610e3c565b915061127e8261123d565b602082019050919050565b600060208201905081810360008301526112a281611266565b9050919050565b60006060820190506112be6000830186610daa565b6112cb6020830185610daa565b6112d86040830184610e2d565b949350505050565b6000815190506112ef81610dd4565b92915050565b60006020828403121561130b5761130a610c22565b5b6000611319848285016112e0565b91505092915050565b60006020820190506113376000830184610e2d565b9291505056fea26469706673582212202d7f7081170d8d6055b1ad4a3d92b81ad8e20587de9c2dba6207ecf10cb6f88664736f6c634300080f0033",
					"opcodes": "PUSH1 0x80 PUSH1 0x40 MSTORE PUSH8 0x8AC7230489E80000 PUSH1 0x3 SSTORE PUSH20 0xD9145CCE52D386F254917E481EB44E9943F39138 PUSH1 0x4 PUSH1 0x0 PUSH2 0x100 EXP DUP2 SLOAD DUP2 PUSH20 0xFFFFFFFFFFFFFFFFFFFFFFFFFFFFFFFFFFFFFFFF MUL NOT AND SWAP1 DUP4 PUSH20 0xFFFFFFFFFFFFFFFFFFFFFFFFFFFFFFFFFFFFFFFF AND MUL OR SWAP1 SSTORE POP PUSH1 0x4 PUSH1 0x0 SWAP1 SLOAD SWAP1 PUSH2 0x100 EXP SWAP1 DIV PUSH20 0xFFFFFFFFFFFFFFFFFFFFFFFFFFFFFFFFFFFFFFFF AND PUSH1 0x5 PUSH1 0x0 PUSH2 0x100 EXP DUP2 SLOAD DUP2 PUSH20 0xFFFFFFFFFFFFFFFFFFFFFFFFFFFFFFFFFFFFFFFF MUL NOT AND SWAP1 DUP4 PUSH20 0xFFFFFFFFFFFFFFFFFFFFFFFFFFFFFFFFFFFFFFFF AND MUL OR SWAP1 SSTORE POP CALLVALUE DUP1 ISZERO PUSH2 0xD4 JUMPI PUSH1 0x0 DUP1 REVERT JUMPDEST POP CALLER PUSH1 0x0 DUP1 PUSH2 0x100 EXP DUP2 SLOAD DUP2 PUSH20 0xFFFFFFFFFFFFFFFFFFFFFFFFFFFFFFFFFFFFFFFF MUL NOT AND SWAP1 DUP4 PUSH20 0xFFFFFFFFFFFFFFFFFFFFFFFFFFFFFFFFFFFFFFFF AND MUL OR SWAP1 SSTORE POP PUSH2 0x1373 DUP1 PUSH2 0x124 PUSH1 0x0 CODECOPY PUSH1 0x0 RETURN INVALID PUSH1 0x80 PUSH1 0x40 MSTORE PUSH1 0x4 CALLDATASIZE LT PUSH2 0x74 JUMPI PUSH1 0x0 CALLDATALOAD PUSH1 0xE0 SHR DUP1 PUSH4 0x893D20E8 GT PUSH2 0x4E JUMPI DUP1 PUSH4 0x893D20E8 EQ PUSH2 0xEB JUMPI DUP1 PUSH4 0x8CC51EDA EQ PUSH2 0x116 JUMPI DUP1 PUSH4 0xAE5310F6 EQ PUSH2 0x155 JUMPI DUP1 PUSH4 0xBE80D447 EQ PUSH2 0x17E JUMPI PUSH2 0x7B JUMP JUMPDEST DUP1 PUSH4 0xC3FDDEF EQ PUSH2 0x80 JUMPI DUP1 PUSH4 0x2D90AE94 EQ PUSH2 0xAB JUMPI DUP1 PUSH4 0x35844DAD EQ PUSH2 0xC2 JUMPI PUSH2 0x7B JUMP JUMPDEST CALLDATASIZE PUSH2 0x7B JUMPI STOP JUMPDEST PUSH1 0x0 DUP1 REVERT JUMPDEST CALLVALUE DUP1 ISZERO PUSH2 0x8C JUMPI PUSH1 0x0 DUP1 REVERT JUMPDEST POP PUSH2 0x95 PUSH2 0x195 JUMP JUMPDEST PUSH1 0x40 MLOAD PUSH2 0xA2 SWAP2 SWAP1 PUSH2 0xBF6 JUMP JUMPDEST PUSH1 0x40 MLOAD DUP1 SWAP2 SUB SWAP1 RETURN JUMPDEST CALLVALUE DUP1 ISZERO PUSH2 0xB7 JUMPI PUSH1 0x0 DUP1 REVERT JUMPDEST POP PUSH2 0xC0 PUSH2 0x2E6 JUMP JUMPDEST STOP JUMPDEST CALLVALUE DUP1 ISZERO PUSH2 0xCE JUMPI PUSH1 0x0 DUP1 REVERT JUMPDEST POP PUSH2 0xE9 PUSH1 0x4 DUP1 CALLDATASIZE SUB DUP2 ADD SWAP1 PUSH2 0xE4 SWAP2 SWAP1 PUSH2 0xD61 JUMP JUMPDEST PUSH2 0x3BD JUMP JUMPDEST STOP JUMPDEST CALLVALUE DUP1 ISZERO PUSH2 0xF7 JUMPI PUSH1 0x0 DUP1 REVERT JUMPDEST POP PUSH2 0x100 PUSH2 0x51F JUMP JUMPDEST PUSH1 0x40 MLOAD PUSH2 0x10D SWAP2 SWAP1 PUSH2 0xDB9 JUMP JUMPDEST PUSH1 0x40 MLOAD DUP1 SWAP2 SUB SWAP1 RETURN JUMPDEST CALLVALUE DUP1 ISZERO PUSH2 0x122 JUMPI PUSH1 0x0 DUP1 REVERT JUMPDEST POP PUSH2 0x13D PUSH1 0x4 DUP1 CALLDATASIZE SUB DUP2 ADD SWAP1 PUSH2 0x138 SWAP2 SWAP1 PUSH2 0xE00 JUMP JUMPDEST PUSH2 0x548 JUMP JUMPDEST PUSH1 0x40 MLOAD PUSH2 0x14C SWAP4 SWAP3 SWAP2 SWAP1 PUSH2 0xE86 JUMP JUMPDEST PUSH1 0x40 MLOAD DUP1 SWAP2 SUB SWAP1 RETURN JUMPDEST CALLVALUE DUP1 ISZERO PUSH2 0x161 JUMPI PUSH1 0x0 DUP1 REVERT JUMPDEST POP PUSH2 0x17C PUSH1 0x4 DUP1 CALLDATASIZE SUB DUP2 ADD SWAP1 PUSH2 0x177 SWAP2 SWAP1 PUSH2 0xE00 JUMP JUMPDEST PUSH2 0x62A JUMP JUMPDEST STOP JUMPDEST CALLVALUE DUP1 ISZERO PUSH2 0x18A JUMPI PUSH1 0x0 DUP1 REVERT JUMPDEST POP PUSH2 0x193 PUSH2 0x83E JUMP JUMPDEST STOP JUMPDEST PUSH1 0x60 PUSH1 0x1 DUP1 SLOAD DUP1 PUSH1 0x20 MUL PUSH1 0x20 ADD PUSH1 0x40 MLOAD SWAP1 DUP2 ADD PUSH1 0x40 MSTORE DUP1 SWAP3 SWAP2 SWAP1 DUP2 DUP2 MSTORE PUSH1 0x20 ADD PUSH1 0x0 SWAP1 JUMPDEST DUP3 DUP3 LT ISZERO PUSH2 0x2DD JUMPI DUP4 DUP3 SWAP1 PUSH1 0x0 MSTORE PUSH1 0x20 PUSH1 0x0 KECCAK256 SWAP1 PUSH1 0x3 MUL ADD PUSH1 0x40 MLOAD DUP1 PUSH1 0x60 ADD PUSH1 0x40 MSTORE SWAP1 DUP2 PUSH1 0x0 DUP3 ADD SLOAD DUP2 MSTORE PUSH1 0x20 ADD PUSH1 0x1 DUP3 ADD DUP1 SLOAD PUSH2 0x1F6 SWAP1 PUSH2 0xEF3 JUMP JUMPDEST DUP1 PUSH1 0x1F ADD PUSH1 0x20 DUP1 SWAP2 DIV MUL PUSH1 0x20 ADD PUSH1 0x40 MLOAD SWAP1 DUP2 ADD PUSH1 0x40 MSTORE DUP1 SWAP3 SWAP2 SWAP1 DUP2 DUP2 MSTORE PUSH1 0x20 ADD DUP3 DUP1 SLOAD PUSH2 0x222 SWAP1 PUSH2 0xEF3 JUMP JUMPDEST DUP1 ISZERO PUSH2 0x26F JUMPI DUP1 PUSH1 0x1F LT PUSH2 0x244 JUMPI PUSH2 0x100 DUP1 DUP4 SLOAD DIV MUL DUP4 MSTORE SWAP2 PUSH1 0x20 ADD SWAP2 PUSH2 0x26F JUMP JUMPDEST DUP3 ADD SWAP2 SWAP1 PUSH1 0x0 MSTORE PUSH1 0x20 PUSH1 0x0 KECCAK256 SWAP1 JUMPDEST DUP2 SLOAD DUP2 MSTORE SWAP1 PUSH1 0x1 ADD SWAP1 PUSH1 0x20 ADD DUP1 DUP4 GT PUSH2 0x252 JUMPI DUP3 SWAP1 SUB PUSH1 0x1F AND DUP3 ADD SWAP2 JUMPDEST POP POP POP POP POP DUP2 MSTORE PUSH1 0x20 ADD PUSH1 0x2 DUP3 ADD PUSH1 0x0 SWAP1 SLOAD SWAP1 PUSH2 0x100 EXP SWAP1 DIV PUSH20 0xFFFFFFFFFFFFFFFFFFFFFFFFFFFFFFFFFFFFFFFF AND PUSH20 0xFFFFFFFFFFFFFFFFFFFFFFFFFFFFFFFFFFFFFFFF AND PUSH20 0xFFFFFFFFFFFFFFFFFFFFFFFFFFFFFFFFFFFFFFFF AND DUP2 MSTORE POP POP DUP2 MSTORE PUSH1 0x20 ADD SWAP1 PUSH1 0x1 ADD SWAP1 PUSH2 0x1B9 JUMP JUMPDEST POP POP POP POP SWAP1 POP SWAP1 JUMP JUMPDEST PUSH1 0x0 DUP1 SLOAD SWAP1 PUSH2 0x100 EXP SWAP1 DIV PUSH20 0xFFFFFFFFFFFFFFFFFFFFFFFFFFFFFFFFFFFFFFFF AND PUSH20 0xFFFFFFFFFFFFFFFFFFFFFFFFFFFFFFFFFFFFFFFF AND CALLER PUSH20 0xFFFFFFFFFFFFFFFFFFFFFFFFFFFFFFFFFFFFFFFF AND EQ PUSH2 0x374 JUMPI PUSH1 0x40 MLOAD PUSH32 0x8C379A000000000000000000000000000000000000000000000000000000000 DUP2 MSTORE PUSH1 0x4 ADD PUSH2 0x36B SWAP1 PUSH2 0xF70 JUMP JUMPDEST PUSH1 0x40 MLOAD DUP1 SWAP2 SUB SWAP1 REVERT JUMPDEST CALLER PUSH20 0xFFFFFFFFFFFFFFFFFFFFFFFFFFFFFFFFFFFFFFFF AND PUSH2 0x8FC SELFBALANCE SWAP1 DUP2 ISZERO MUL SWAP1 PUSH1 0x40 MLOAD PUSH1 0x0 PUSH1 0x40 MLOAD DUP1 DUP4 SUB DUP2 DUP6 DUP9 DUP9 CALL SWAP4 POP POP POP POP ISZERO DUP1 ISZERO PUSH2 0x3BA JUMPI RETURNDATASIZE PUSH1 0x0 DUP1 RETURNDATACOPY RETURNDATASIZE PUSH1 0x0 REVERT JUMPDEST POP JUMP JUMPDEST PUSH1 0x0 DUP1 SLOAD SWAP1 PUSH2 0x100 EXP SWAP1 DIV PUSH20 0xFFFFFFFFFFFFFFFFFFFFFFFFFFFFFFFFFFFFFFFF AND PUSH20 0xFFFFFFFFFFFFFFFFFFFFFFFFFFFFFFFFFFFFFFFF AND CALLER PUSH20 0xFFFFFFFFFFFFFFFFFFFFFFFFFFFFFFFFFFFFFFFF AND EQ PUSH2 0x44B JUMPI PUSH1 0x40 MLOAD PUSH32 0x8C379A000000000000000000000000000000000000000000000000000000000 DUP2 MSTORE PUSH1 0x4 ADD PUSH2 0x442 SWAP1 PUSH2 0xF70 JUMP JUMPDEST PUSH1 0x40 MLOAD DUP1 SWAP2 SUB SWAP1 REVERT JUMPDEST PUSH1 0x0 PUSH1 0x40 MLOAD DUP1 PUSH1 0x60 ADD PUSH1 0x40 MSTORE DUP1 PUSH1 0x1 DUP1 SLOAD SWAP1 POP DUP2 MSTORE PUSH1 0x20 ADD DUP4 DUP2 MSTORE PUSH1 0x20 ADD PUSH1 0x0 PUSH20 0xFFFFFFFFFFFFFFFFFFFFFFFFFFFFFFFFFFFFFFFF AND DUP2 MSTORE POP SWAP1 POP PUSH1 0x1 DUP2 SWAP1 DUP1 PUSH1 0x1 DUP2 SLOAD ADD DUP1 DUP3 SSTORE DUP1 SWAP2 POP POP PUSH1 0x1 SWAP1 SUB SWAP1 PUSH1 0x0 MSTORE PUSH1 0x20 PUSH1 0x0 KECCAK256 SWAP1 PUSH1 0x3 MUL ADD PUSH1 0x0 SWAP1 SWAP2 SWAP1 SWAP2 SWAP1 SWAP2 POP PUSH1 0x0 DUP3 ADD MLOAD DUP2 PUSH1 0x0 ADD SSTORE PUSH1 0x20 DUP3 ADD MLOAD DUP2 PUSH1 0x1 ADD SWAP1 DUP2 PUSH2 0x4D1 SWAP2 SWAP1 PUSH2 0x113C JUMP JUMPDEST POP PUSH1 0x40 DUP3 ADD MLOAD DUP2 PUSH1 0x2 ADD PUSH1 0x0 PUSH2 0x100 EXP DUP2 SLOAD DUP2 PUSH20 0xFFFFFFFFFFFFFFFFFFFFFFFFFFFFFFFFFFFFFFFF MUL NOT AND SWAP1 DUP4 PUSH20 0xFFFFFFFFFFFFFFFFFFFFFFFFFFFFFFFFFFFFFFFF AND MUL OR SWAP1 SSTORE POP POP POP POP POP JUMP JUMPDEST PUSH1 0x0 DUP1 PUSH1 0x0 SWAP1 SLOAD SWAP1 PUSH2 0x100 EXP SWAP1 DIV PUSH20 0xFFFFFFFFFFFFFFFFFFFFFFFFFFFFFFFFFFFFFFFF AND SWAP1 POP SWAP1 JUMP JUMPDEST PUSH1 0x1 DUP2 DUP2 SLOAD DUP2 LT PUSH2 0x558 JUMPI PUSH1 0x0 DUP1 REVERT JUMPDEST SWAP1 PUSH1 0x0 MSTORE PUSH1 0x20 PUSH1 0x0 KECCAK256 SWAP1 PUSH1 0x3 MUL ADD PUSH1 0x0 SWAP2 POP SWAP1 POP DUP1 PUSH1 0x0 ADD SLOAD SWAP1 DUP1 PUSH1 0x1 ADD DUP1 SLOAD PUSH2 0x581 SWAP1 PUSH2 0xEF3 JUMP JUMPDEST DUP1 PUSH1 0x1F ADD PUSH1 0x20 DUP1 SWAP2 DIV MUL PUSH1 0x20 ADD PUSH1 0x40 MLOAD SWAP1 DUP2 ADD PUSH1 0x40 MSTORE DUP1 SWAP3 SWAP2 SWAP1 DUP2 DUP2 MSTORE PUSH1 0x20 ADD DUP3 DUP1 SLOAD PUSH2 0x5AD SWAP1 PUSH2 0xEF3 JUMP JUMPDEST DUP1 ISZERO PUSH2 0x5FA JUMPI DUP1 PUSH1 0x1F LT PUSH2 0x5CF JUMPI PUSH2 0x100 DUP1 DUP4 SLOAD DIV MUL DUP4 MSTORE SWAP2 PUSH1 0x20 ADD SWAP2 PUSH2 0x5FA JUMP JUMPDEST DUP3 ADD SWAP2 SWAP1 PUSH1 0x0 MSTORE PUSH1 0x20 PUSH1 0x0 KECCAK256 SWAP1 JUMPDEST DUP2 SLOAD DUP2 MSTORE SWAP1 PUSH1 0x1 ADD SWAP1 PUSH1 0x20 ADD DUP1 DUP4 GT PUSH2 0x5DD JUMPI DUP3 SWAP1 SUB PUSH1 0x1F AND DUP3 ADD SWAP2 JUMPDEST POP POP POP POP POP SWAP1 DUP1 PUSH1 0x2 ADD PUSH1 0x0 SWAP1 SLOAD SWAP1 PUSH2 0x100 EXP SWAP1 DIV PUSH20 0xFFFFFFFFFFFFFFFFFFFFFFFFFFFFFFFFFFFFFFFF AND SWAP1 POP DUP4 JUMP JUMPDEST PUSH1 0x0 PUSH20 0xFFFFFFFFFFFFFFFFFFFFFFFFFFFFFFFFFFFFFFFF AND PUSH1 0x1 DUP3 DUP2 SLOAD DUP2 LT PUSH2 0x656 JUMPI PUSH2 0x655 PUSH2 0x120E JUMP JUMPDEST JUMPDEST SWAP1 PUSH1 0x0 MSTORE PUSH1 0x20 PUSH1 0x0 KECCAK256 SWAP1 PUSH1 0x3 MUL ADD PUSH1 0x2 ADD PUSH1 0x0 SWAP1 SLOAD SWAP1 PUSH2 0x100 EXP SWAP1 DIV PUSH20 0xFFFFFFFFFFFFFFFFFFFFFFFFFFFFFFFFFFFFFFFF AND PUSH20 0xFFFFFFFFFFFFFFFFFFFFFFFFFFFFFFFFFFFFFFFF AND EQ PUSH2 0x6DE JUMPI PUSH1 0x40 MLOAD PUSH32 0x8C379A000000000000000000000000000000000000000000000000000000000 DUP2 MSTORE PUSH1 0x4 ADD PUSH2 0x6D5 SWAP1 PUSH2 0x1289 JUMP JUMPDEST PUSH1 0x40 MLOAD DUP1 SWAP2 SUB SWAP1 REVERT JUMPDEST PUSH1 0x2 PUSH1 0x0 CALLER PUSH20 0xFFFFFFFFFFFFFFFFFFFFFFFFFFFFFFFFFFFFFFFF AND PUSH20 0xFFFFFFFFFFFFFFFFFFFFFFFFFFFFFFFFFFFFFFFF AND DUP2 MSTORE PUSH1 0x20 ADD SWAP1 DUP2 MSTORE PUSH1 0x20 ADD PUSH1 0x0 KECCAK256 DUP2 SWAP1 DUP1 PUSH1 0x1 DUP2 SLOAD ADD DUP1 DUP3 SSTORE DUP1 SWAP2 POP POP PUSH1 0x1 SWAP1 SUB SWAP1 PUSH1 0x0 MSTORE PUSH1 0x20 PUSH1 0x0 KECCAK256 ADD PUSH1 0x0 SWAP1 SWAP2 SWAP1 SWAP2 SWAP1 SWAP2 POP SSTORE CALLER PUSH1 0x1 DUP3 DUP2 SLOAD DUP2 LT PUSH2 0x759 JUMPI PUSH2 0x758 PUSH2 0x120E JUMP JUMPDEST JUMPDEST SWAP1 PUSH1 0x0 MSTORE PUSH1 0x20 PUSH1 0x0 KECCAK256 SWAP1 PUSH1 0x3 MUL ADD PUSH1 0x2 ADD PUSH1 0x0 PUSH2 0x100 EXP DUP2 SLOAD DUP2 PUSH20 0xFFFFFFFFFFFFFFFFFFFFFFFFFFFFFFFFFFFFFFFF MUL NOT AND SWAP1 DUP4 PUSH20 0xFFFFFFFFFFFFFFFFFFFFFFFFFFFFFFFFFFFFFFFF AND MUL OR SWAP1 SSTORE POP PUSH1 0x5 PUSH1 0x0 SWAP1 SLOAD SWAP1 PUSH2 0x100 EXP SWAP1 DIV PUSH20 0xFFFFFFFFFFFFFFFFFFFFFFFFFFFFFFFFFFFFFFFF AND PUSH20 0xFFFFFFFFFFFFFFFFFFFFFFFFFFFFFFFFFFFFFFFF AND PUSH4 0x23B872DD CALLER ADDRESS PUSH1 0x3 SLOAD PUSH1 0x40 MLOAD DUP5 PUSH4 0xFFFFFFFF AND PUSH1 0xE0 SHL DUP2 MSTORE PUSH1 0x4 ADD PUSH2 0x809 SWAP4 SWAP3 SWAP2 SWAP1 PUSH2 0x12A9 JUMP JUMPDEST PUSH1 0x0 PUSH1 0x40 MLOAD DUP1 DUP4 SUB DUP2 PUSH1 0x0 DUP8 DUP1 EXTCODESIZE ISZERO DUP1 ISZERO PUSH2 0x823 JUMPI PUSH1 0x0 DUP1 REVERT JUMPDEST POP GAS CALL ISZERO DUP1 ISZERO PUSH2 0x837 JUMPI RETURNDATASIZE PUSH1 0x0 DUP1 RETURNDATACOPY RETURNDATASIZE PUSH1 0x0 REVERT JUMPDEST POP POP POP POP POP JUMP JUMPDEST PUSH1 0x0 DUP1 SLOAD SWAP1 PUSH2 0x100 EXP SWAP1 DIV PUSH20 0xFFFFFFFFFFFFFFFFFFFFFFFFFFFFFFFFFFFFFFFF AND PUSH20 0xFFFFFFFFFFFFFFFFFFFFFFFFFFFFFFFFFFFFFFFF AND CALLER PUSH20 0xFFFFFFFFFFFFFFFFFFFFFFFFFFFFFFFFFFFFFFFF AND EQ PUSH2 0x8CC JUMPI PUSH1 0x40 MLOAD PUSH32 0x8C379A000000000000000000000000000000000000000000000000000000000 DUP2 MSTORE PUSH1 0x4 ADD PUSH2 0x8C3 SWAP1 PUSH2 0xF70 JUMP JUMPDEST PUSH1 0x40 MLOAD DUP1 SWAP2 SUB SWAP1 REVERT JUMPDEST PUSH1 0x0 PUSH1 0x5 PUSH1 0x0 SWAP1 SLOAD SWAP1 PUSH2 0x100 EXP SWAP1 DIV PUSH20 0xFFFFFFFFFFFFFFFFFFFFFFFFFFFFFFFFFFFFFFFF AND PUSH20 0xFFFFFFFFFFFFFFFFFFFFFFFFFFFFFFFFFFFFFFFF AND PUSH4 0x12065FE0 PUSH1 0x40 MLOAD DUP2 PUSH4 0xFFFFFFFF AND PUSH1 0xE0 SHL DUP2 MSTORE PUSH1 0x4 ADD PUSH1 0x20 PUSH1 0x40 MLOAD DUP1 DUP4 SUB DUP2 DUP7 GAS STATICCALL ISZERO DUP1 ISZERO PUSH2 0x93B JUMPI RETURNDATASIZE PUSH1 0x0 DUP1 RETURNDATACOPY RETURNDATASIZE PUSH1 0x0 REVERT JUMPDEST POP POP POP POP PUSH1 0x40 MLOAD RETURNDATASIZE PUSH1 0x1F NOT PUSH1 0x1F DUP3 ADD AND DUP3 ADD DUP1 PUSH1 0x40 MSTORE POP DUP2 ADD SWAP1 PUSH2 0x95F SWAP2 SWAP1 PUSH2 0x12F5 JUMP JUMPDEST SWAP1 POP PUSH1 0x5 PUSH1 0x0 SWAP1 SLOAD SWAP1 PUSH2 0x100 EXP SWAP1 DIV PUSH20 0xFFFFFFFFFFFFFFFFFFFFFFFFFFFFFFFFFFFFFFFF AND PUSH20 0xFFFFFFFFFFFFFFFFFFFFFFFFFFFFFFFFFFFFFFFF AND PUSH4 0x2E1A7D4D DUP3 PUSH1 0x40 MLOAD DUP3 PUSH4 0xFFFFFFFF AND PUSH1 0xE0 SHL DUP2 MSTORE PUSH1 0x4 ADD PUSH2 0x9BC SWAP2 SWAP1 PUSH2 0x1322 JUMP JUMPDEST PUSH1 0x0 PUSH1 0x40 MLOAD DUP1 DUP4 SUB DUP2 PUSH1 0x0 DUP8 DUP1 EXTCODESIZE ISZERO DUP1 ISZERO PUSH2 0x9D6 JUMPI PUSH1 0x0 DUP1 REVERT JUMPDEST POP GAS CALL ISZERO DUP1 ISZERO PUSH2 0x9EA JUMPI RETURNDATASIZE PUSH1 0x0 DUP1 RETURNDATACOPY RETURNDATASIZE PUSH1 0x0 REVERT JUMPDEST POP POP POP POP POP JUMP JUMPDEST PUSH1 0x0 DUP2 MLOAD SWAP1 POP SWAP2 SWAP1 POP JUMP JUMPDEST PUSH1 0x0 DUP3 DUP3 MSTORE PUSH1 0x20 DUP3 ADD SWAP1 POP SWAP3 SWAP2 POP POP JUMP JUMPDEST PUSH1 0x0 DUP2 SWAP1 POP PUSH1 0x20 DUP3 ADD SWAP1 POP SWAP2 SWAP1 POP JUMP JUMPDEST PUSH1 0x0 DUP2 SWAP1 POP SWAP2 SWAP1 POP JUMP JUMPDEST PUSH2 0xA30 DUP2 PUSH2 0xA1D JUMP JUMPDEST DUP3 MSTORE POP POP JUMP JUMPDEST PUSH1 0x0 DUP2 MLOAD SWAP1 POP SWAP2 SWAP1 POP JUMP JUMPDEST PUSH1 0x0 DUP3 DUP3 MSTORE PUSH1 0x20 DUP3 ADD SWAP1 POP SWAP3 SWAP2 POP POP JUMP JUMPDEST PUSH1 0x0 JUMPDEST DUP4 DUP2 LT ISZERO PUSH2 0xA70 JUMPI DUP1 DUP3 ADD MLOAD DUP2 DUP5 ADD MSTORE PUSH1 0x20 DUP2 ADD SWAP1 POP PUSH2 0xA55 JUMP JUMPDEST DUP4 DUP2 GT ISZERO PUSH2 0xA7F JUMPI PUSH1 0x0 DUP5 DUP5 ADD MSTORE JUMPDEST POP POP POP POP JUMP JUMPDEST PUSH1 0x0 PUSH1 0x1F NOT PUSH1 0x1F DUP4 ADD AND SWAP1 POP SWAP2 SWAP1 POP JUMP JUMPDEST PUSH1 0x0 PUSH2 0xAA1 DUP3 PUSH2 0xA36 JUMP JUMPDEST PUSH2 0xAAB DUP2 DUP6 PUSH2 0xA41 JUMP JUMPDEST SWAP4 POP PUSH2 0xABB DUP2 DUP6 PUSH1 0x20 DUP7 ADD PUSH2 0xA52 JUMP JUMPDEST PUSH2 0xAC4 DUP2 PUSH2 0xA85 JUMP JUMPDEST DUP5 ADD SWAP2 POP POP SWAP3 SWAP2 POP POP JUMP JUMPDEST PUSH1 0x0 PUSH20 0xFFFFFFFFFFFFFFFFFFFFFFFFFFFFFFFFFFFFFFFF DUP3 AND SWAP1 POP SWAP2 SWAP1 POP JUMP JUMPDEST PUSH1 0x0 PUSH2 0xAFA DUP3 PUSH2 0xACF JUMP JUMPDEST SWAP1 POP SWAP2 SWAP1 POP JUMP JUMPDEST PUSH2 0xB0A DUP2 PUSH2 0xAEF JUMP JUMPDEST DUP3 MSTORE POP POP JUMP JUMPDEST PUSH1 0x0 PUSH1 0x60 DUP4 ADD PUSH1 0x0 DUP4 ADD MLOAD PUSH2 0xB28 PUSH1 0x0 DUP7 ADD DUP3 PUSH2 0xA27 JUMP JUMPDEST POP PUSH1 0x20 DUP4 ADD MLOAD DUP5 DUP3 SUB PUSH1 0x20 DUP7 ADD MSTORE PUSH2 0xB40 DUP3 DUP3 PUSH2 0xA96 JUMP JUMPDEST SWAP2 POP POP PUSH1 0x40 DUP4 ADD MLOAD PUSH2 0xB55 PUSH1 0x40 DUP7 ADD DUP3 PUSH2 0xB01 JUMP JUMPDEST POP DUP1 SWAP2 POP POP SWAP3 SWAP2 POP POP JUMP JUMPDEST PUSH1 0x0 PUSH2 0xB6C DUP4 DUP4 PUSH2 0xB10 JUMP JUMPDEST SWAP1 POP SWAP3 SWAP2 POP POP JUMP JUMPDEST PUSH1 0x0 PUSH1 0x20 DUP3 ADD SWAP1 POP SWAP2 SWAP1 POP JUMP JUMPDEST PUSH1 0x0 PUSH2 0xB8C DUP3 PUSH2 0x9F1 JUMP JUMPDEST PUSH2 0xB96 DUP2 DUP6 PUSH2 0x9FC JUMP JUMPDEST SWAP4 POP DUP4 PUSH1 0x20 DUP3 MUL DUP6 ADD PUSH2 0xBA8 DUP6 PUSH2 0xA0D JUMP JUMPDEST DUP1 PUSH1 0x0 JUMPDEST DUP6 DUP2 LT ISZERO PUSH2 0xBE4 JUMPI DUP5 DUP5 SUB DUP10 MSTORE DUP2 MLOAD PUSH2 0xBC5 DUP6 DUP3 PUSH2 0xB60 JUMP JUMPDEST SWAP5 POP PUSH2 0xBD0 DUP4 PUSH2 0xB74 JUMP JUMPDEST SWAP3 POP PUSH1 0x20 DUP11 ADD SWAP10 POP POP PUSH1 0x1 DUP2 ADD SWAP1 POP PUSH2 0xBAC JUMP JUMPDEST POP DUP3 SWAP8 POP DUP8 SWAP6 POP POP POP POP POP POP SWAP3 SWAP2 POP POP JUMP JUMPDEST PUSH1 0x0 PUSH1 0x20 DUP3 ADD SWAP1 POP DUP2 DUP2 SUB PUSH1 0x0 DUP4 ADD MSTORE PUSH2 0xC10 DUP2 DUP5 PUSH2 0xB81 JUMP JUMPDEST SWAP1 POP SWAP3 SWAP2 POP POP JUMP JUMPDEST PUSH1 0x0 PUSH1 0x40 MLOAD SWAP1 POP SWAP1 JUMP JUMPDEST PUSH1 0x0 DUP1 REVERT JUMPDEST PUSH1 0x0 DUP1 REVERT JUMPDEST PUSH1 0x0 DUP1 REVERT JUMPDEST PUSH1 0x0 DUP1 REVERT JUMPDEST PUSH32 0x4E487B7100000000000000000000000000000000000000000000000000000000 PUSH1 0x0 MSTORE PUSH1 0x41 PUSH1 0x4 MSTORE PUSH1 0x24 PUSH1 0x0 REVERT JUMPDEST PUSH2 0xC6E DUP3 PUSH2 0xA85 JUMP JUMPDEST DUP2 ADD DUP2 DUP2 LT PUSH8 0xFFFFFFFFFFFFFFFF DUP3 GT OR ISZERO PUSH2 0xC8D JUMPI PUSH2 0xC8C PUSH2 0xC36 JUMP JUMPDEST JUMPDEST DUP1 PUSH1 0x40 MSTORE POP POP POP JUMP JUMPDEST PUSH1 0x0 PUSH2 0xCA0 PUSH2 0xC18 JUMP JUMPDEST SWAP1 POP PUSH2 0xCAC DUP3 DUP3 PUSH2 0xC65 JUMP JUMPDEST SWAP2 SWAP1 POP JUMP JUMPDEST PUSH1 0x0 PUSH8 0xFFFFFFFFFFFFFFFF DUP3 GT ISZERO PUSH2 0xCCC JUMPI PUSH2 0xCCB PUSH2 0xC36 JUMP JUMPDEST JUMPDEST PUSH2 0xCD5 DUP3 PUSH2 0xA85 JUMP JUMPDEST SWAP1 POP PUSH1 0x20 DUP2 ADD SWAP1 POP SWAP2 SWAP1 POP JUMP JUMPDEST DUP3 DUP2 DUP4 CALLDATACOPY PUSH1 0x0 DUP4 DUP4 ADD MSTORE POP POP POP JUMP JUMPDEST PUSH1 0x0 PUSH2 0xD04 PUSH2 0xCFF DUP5 PUSH2 0xCB1 JUMP JUMPDEST PUSH2 0xC96 JUMP JUMPDEST SWAP1 POP DUP3 DUP2 MSTORE PUSH1 0x20 DUP2 ADD DUP5 DUP5 DUP5 ADD GT ISZERO PUSH2 0xD20 JUMPI PUSH2 0xD1F PUSH2 0xC31 JUMP JUMPDEST JUMPDEST PUSH2 0xD2B DUP5 DUP3 DUP6 PUSH2 0xCE2 JUMP JUMPDEST POP SWAP4 SWAP3 POP POP POP JUMP JUMPDEST PUSH1 0x0 DUP3 PUSH1 0x1F DUP4 ADD SLT PUSH2 0xD48 JUMPI PUSH2 0xD47 PUSH2 0xC2C JUMP JUMPDEST JUMPDEST DUP2 CALLDATALOAD PUSH2 0xD58 DUP5 DUP3 PUSH1 0x20 DUP7 ADD PUSH2 0xCF1 JUMP JUMPDEST SWAP2 POP POP SWAP3 SWAP2 POP POP JUMP JUMPDEST PUSH1 0x0 PUSH1 0x20 DUP3 DUP5 SUB SLT ISZERO PUSH2 0xD77 JUMPI PUSH2 0xD76 PUSH2 0xC22 JUMP JUMPDEST JUMPDEST PUSH1 0x0 DUP3 ADD CALLDATALOAD PUSH8 0xFFFFFFFFFFFFFFFF DUP2 GT ISZERO PUSH2 0xD95 JUMPI PUSH2 0xD94 PUSH2 0xC27 JUMP JUMPDEST JUMPDEST PUSH2 0xDA1 DUP5 DUP3 DUP6 ADD PUSH2 0xD33 JUMP JUMPDEST SWAP2 POP POP SWAP3 SWAP2 POP POP JUMP JUMPDEST PUSH2 0xDB3 DUP2 PUSH2 0xAEF JUMP JUMPDEST DUP3 MSTORE POP POP JUMP JUMPDEST PUSH1 0x0 PUSH1 0x20 DUP3 ADD SWAP1 POP PUSH2 0xDCE PUSH1 0x0 DUP4 ADD DUP5 PUSH2 0xDAA JUMP JUMPDEST SWAP3 SWAP2 POP POP JUMP JUMPDEST PUSH2 0xDDD DUP2 PUSH2 0xA1D JUMP JUMPDEST DUP2 EQ PUSH2 0xDE8 JUMPI PUSH1 0x0 DUP1 REVERT JUMPDEST POP JUMP JUMPDEST PUSH1 0x0 DUP2 CALLDATALOAD SWAP1 POP PUSH2 0xDFA DUP2 PUSH2 0xDD4 JUMP JUMPDEST SWAP3 SWAP2 POP POP JUMP JUMPDEST PUSH1 0x0 PUSH1 0x20 DUP3 DUP5 SUB SLT ISZERO PUSH2 0xE16 JUMPI PUSH2 0xE15 PUSH2 0xC22 JUMP JUMPDEST JUMPDEST PUSH1 0x0 PUSH2 0xE24 DUP5 DUP3 DUP6 ADD PUSH2 0xDEB JUMP JUMPDEST SWAP2 POP POP SWAP3 SWAP2 POP POP JUMP JUMPDEST PUSH2 0xE36 DUP2 PUSH2 0xA1D JUMP JUMPDEST DUP3 MSTORE POP POP JUMP JUMPDEST PUSH1 0x0 DUP3 DUP3 MSTORE PUSH1 0x20 DUP3 ADD SWAP1 POP SWAP3 SWAP2 POP POP JUMP JUMPDEST PUSH1 0x0 PUSH2 0xE58 DUP3 PUSH2 0xA36 JUMP JUMPDEST PUSH2 0xE62 DUP2 DUP6 PUSH2 0xE3C JUMP JUMPDEST SWAP4 POP PUSH2 0xE72 DUP2 DUP6 PUSH1 0x20 DUP7 ADD PUSH2 0xA52 JUMP JUMPDEST PUSH2 0xE7B DUP2 PUSH2 0xA85 JUMP JUMPDEST DUP5 ADD SWAP2 POP POP SWAP3 SWAP2 POP POP JUMP JUMPDEST PUSH1 0x0 PUSH1 0x60 DUP3 ADD SWAP1 POP PUSH2 0xE9B PUSH1 0x0 DUP4 ADD DUP7 PUSH2 0xE2D JUMP JUMPDEST DUP2 DUP2 SUB PUSH1 0x20 DUP4 ADD MSTORE PUSH2 0xEAD DUP2 DUP6 PUSH2 0xE4D JUMP JUMPDEST SWAP1 POP PUSH2 0xEBC PUSH1 0x40 DUP4 ADD DUP5 PUSH2 0xDAA JUMP JUMPDEST SWAP5 SWAP4 POP POP POP POP JUMP JUMPDEST PUSH32 0x4E487B7100000000000000000000000000000000000000000000000000000000 PUSH1 0x0 MSTORE PUSH1 0x22 PUSH1 0x4 MSTORE PUSH1 0x24 PUSH1 0x0 REVERT JUMPDEST PUSH1 0x0 PUSH1 0x2 DUP3 DIV SWAP1 POP PUSH1 0x1 DUP3 AND DUP1 PUSH2 0xF0B JUMPI PUSH1 0x7F DUP3 AND SWAP2 POP JUMPDEST PUSH1 0x20 DUP3 LT DUP2 SUB PUSH2 0xF1E JUMPI PUSH2 0xF1D PUSH2 0xEC4 JUMP JUMPDEST JUMPDEST POP SWAP2 SWAP1 POP JUMP JUMPDEST PUSH32 0x596F7520417265204E6F74204F776E6572000000000000000000000000000000 PUSH1 0x0 DUP3 ADD MSTORE POP JUMP JUMPDEST PUSH1 0x0 PUSH2 0xF5A PUSH1 0x11 DUP4 PUSH2 0xE3C JUMP JUMPDEST SWAP2 POP PUSH2 0xF65 DUP3 PUSH2 0xF24 JUMP JUMPDEST PUSH1 0x20 DUP3 ADD SWAP1 POP SWAP2 SWAP1 POP JUMP JUMPDEST PUSH1 0x0 PUSH1 0x20 DUP3 ADD SWAP1 POP DUP2 DUP2 SUB PUSH1 0x0 DUP4 ADD MSTORE PUSH2 0xF89 DUP2 PUSH2 0xF4D JUMP JUMPDEST SWAP1 POP SWAP2 SWAP1 POP JUMP JUMPDEST PUSH1 0x0 DUP2 SWAP1 POP DUP2 PUSH1 0x0 MSTORE PUSH1 0x20 PUSH1 0x0 KECCAK256 SWAP1 POP SWAP2 SWAP1 POP JUMP JUMPDEST PUSH1 0x0 PUSH1 0x20 PUSH1 0x1F DUP4 ADD DIV SWAP1 POP SWAP2 SWAP1 POP JUMP JUMPDEST PUSH1 0x0 DUP3 DUP3 SHL SWAP1 POP SWAP3 SWAP2 POP POP JUMP JUMPDEST PUSH1 0x0 PUSH1 0x8 DUP4 MUL PUSH2 0xFF2 PUSH32 0xFFFFFFFFFFFFFFFFFFFFFFFFFFFFFFFFFFFFFFFFFFFFFFFFFFFFFFFFFFFFFFFF DUP3 PUSH2 0xFB5 JUMP JUMPDEST PUSH2 0xFFC DUP7 DUP4 PUSH2 0xFB5 JUMP JUMPDEST SWAP6 POP DUP1 NOT DUP5 AND SWAP4 POP DUP1 DUP7 AND DUP5 OR SWAP3 POP POP POP SWAP4 SWAP3 POP POP POP JUMP JUMPDEST PUSH1 0x0 DUP2 SWAP1 POP SWAP2 SWAP1 POP JUMP JUMPDEST PUSH1 0x0 PUSH2 0x1039 PUSH2 0x1034 PUSH2 0x102F DUP5 PUSH2 0xA1D JUMP JUMPDEST PUSH2 0x1014 JUMP JUMPDEST PUSH2 0xA1D JUMP JUMPDEST SWAP1 POP SWAP2 SWAP1 POP JUMP JUMPDEST PUSH1 0x0 DUP2 SWAP1 POP SWAP2 SWAP1 POP JUMP JUMPDEST PUSH2 0x1053 DUP4 PUSH2 0x101E JUMP JUMPDEST PUSH2 0x1067 PUSH2 0x105F DUP3 PUSH2 0x1040 JUMP JUMPDEST DUP5 DUP5 SLOAD PUSH2 0xFC2 JUMP JUMPDEST DUP3 SSTORE POP POP POP POP JUMP JUMPDEST PUSH1 0x0 SWAP1 JUMP JUMPDEST PUSH2 0x107C PUSH2 0x106F JUMP JUMPDEST PUSH2 0x1087 DUP2 DUP5 DUP5 PUSH2 0x104A JUMP JUMPDEST POP POP POP JUMP JUMPDEST JUMPDEST DUP2 DUP2 LT ISZERO PUSH2 0x10AB JUMPI PUSH2 0x10A0 PUSH1 0x0 DUP3 PUSH2 0x1074 JUMP JUMPDEST PUSH1 0x1 DUP2 ADD SWAP1 POP PUSH2 0x108D JUMP JUMPDEST POP POP JUMP JUMPDEST PUSH1 0x1F DUP3 GT ISZERO PUSH2 0x10F0 JUMPI PUSH2 0x10C1 DUP2 PUSH2 0xF90 JUMP JUMPDEST PUSH2 0x10CA DUP5 PUSH2 0xFA5 JUMP JUMPDEST DUP2 ADD PUSH1 0x20 DUP6 LT ISZERO PUSH2 0x10D9 JUMPI DUP2 SWAP1 POP JUMPDEST PUSH2 0x10ED PUSH2 0x10E5 DUP6 PUSH2 0xFA5 JUMP JUMPDEST DUP4 ADD DUP3 PUSH2 0x108C JUMP JUMPDEST POP POP JUMPDEST POP POP POP JUMP JUMPDEST PUSH1 0x0 DUP3 DUP3 SHR SWAP1 POP SWAP3 SWAP2 POP POP JUMP JUMPDEST PUSH1 0x0 PUSH2 0x1113 PUSH1 0x0 NOT DUP5 PUSH1 0x8 MUL PUSH2 0x10F5 JUMP JUMPDEST NOT DUP1 DUP4 AND SWAP2 POP POP SWAP3 SWAP2 POP POP JUMP JUMPDEST PUSH1 0x0 PUSH2 0x112C DUP4 DUP4 PUSH2 0x1102 JUMP JUMPDEST SWAP2 POP DUP3 PUSH1 0x2 MUL DUP3 OR SWAP1 POP SWAP3 SWAP2 POP POP JUMP JUMPDEST PUSH2 0x1145 DUP3 PUSH2 0xA36 JUMP JUMPDEST PUSH8 0xFFFFFFFFFFFFFFFF DUP2 GT ISZERO PUSH2 0x115E JUMPI PUSH2 0x115D PUSH2 0xC36 JUMP JUMPDEST JUMPDEST PUSH2 0x1168 DUP3 SLOAD PUSH2 0xEF3 JUMP JUMPDEST PUSH2 0x1173 DUP3 DUP3 DUP6 PUSH2 0x10AF JUMP JUMPDEST PUSH1 0x0 PUSH1 0x20 SWAP1 POP PUSH1 0x1F DUP4 GT PUSH1 0x1 DUP2 EQ PUSH2 0x11A6 JUMPI PUSH1 0x0 DUP5 ISZERO PUSH2 0x1194 JUMPI DUP3 DUP8 ADD MLOAD SWAP1 POP JUMPDEST PUSH2 0x119E DUP6 DUP3 PUSH2 0x1120 JUMP JUMPDEST DUP7 SSTORE POP PUSH2 0x1206 JUMP JUMPDEST PUSH1 0x1F NOT DUP5 AND PUSH2 0x11B4 DUP7 PUSH2 0xF90 JUMP JUMPDEST PUSH1 0x0 JUMPDEST DUP3 DUP2 LT ISZERO PUSH2 0x11DC JUMPI DUP5 DUP10 ADD MLOAD DUP3 SSTORE PUSH1 0x1 DUP3 ADD SWAP2 POP PUSH1 0x20 DUP6 ADD SWAP5 POP PUSH1 0x20 DUP2 ADD SWAP1 POP PUSH2 0x11B7 JUMP JUMPDEST DUP7 DUP4 LT ISZERO PUSH2 0x11F9 JUMPI DUP5 DUP10 ADD MLOAD PUSH2 0x11F5 PUSH1 0x1F DUP10 AND DUP3 PUSH2 0x1102 JUMP JUMPDEST DUP4 SSTORE POP JUMPDEST PUSH1 0x1 PUSH1 0x2 DUP9 MUL ADD DUP9 SSTORE POP POP POP JUMPDEST POP POP POP POP POP POP JUMP JUMPDEST PUSH32 0x4E487B7100000000000000000000000000000000000000000000000000000000 PUSH1 0x0 MSTORE PUSH1 0x32 PUSH1 0x4 MSTORE PUSH1 0x24 PUSH1 0x0 REVERT JUMPDEST PUSH32 0x4B69747479206E6F7420666F722073616C650000000000000000000000000000 PUSH1 0x0 DUP3 ADD MSTORE POP JUMP JUMPDEST PUSH1 0x0 PUSH2 0x1273 PUSH1 0x12 DUP4 PUSH2 0xE3C JUMP JUMPDEST SWAP2 POP PUSH2 0x127E DUP3 PUSH2 0x123D JUMP JUMPDEST PUSH1 0x20 DUP3 ADD SWAP1 POP SWAP2 SWAP1 POP JUMP JUMPDEST PUSH1 0x0 PUSH1 0x20 DUP3 ADD SWAP1 POP DUP2 DUP2 SUB PUSH1 0x0 DUP4 ADD MSTORE PUSH2 0x12A2 DUP2 PUSH2 0x1266 JUMP JUMPDEST SWAP1 POP SWAP2 SWAP1 POP JUMP JUMPDEST PUSH1 0x0 PUSH1 0x60 DUP3 ADD SWAP1 POP PUSH2 0x12BE PUSH1 0x0 DUP4 ADD DUP7 PUSH2 0xDAA JUMP JUMPDEST PUSH2 0x12CB PUSH1 0x20 DUP4 ADD DUP6 PUSH2 0xDAA JUMP JUMPDEST PUSH2 0x12D8 PUSH1 0x40 DUP4 ADD DUP5 PUSH2 0xE2D JUMP JUMPDEST SWAP5 SWAP4 POP POP POP POP JUMP JUMPDEST PUSH1 0x0 DUP2 MLOAD SWAP1 POP PUSH2 0x12EF DUP2 PUSH2 0xDD4 JUMP JUMPDEST SWAP3 SWAP2 POP POP JUMP JUMPDEST PUSH1 0x0 PUSH1 0x20 DUP3 DUP5 SUB SLT ISZERO PUSH2 0x130B JUMPI PUSH2 0x130A PUSH2 0xC22 JUMP JUMPDEST JUMPDEST PUSH1 0x0 PUSH2 0x1319 DUP5 DUP3 DUP6 ADD PUSH2 0x12E0 JUMP JUMPDEST SWAP2 POP POP SWAP3 SWAP2 POP POP JUMP JUMPDEST PUSH1 0x0 PUSH1 0x20 DUP3 ADD SWAP1 POP PUSH2 0x1337 PUSH1 0x0 DUP4 ADD DUP5 PUSH2 0xE2D JUMP JUMPDEST SWAP3 SWAP2 POP POP JUMP INVALID LOG2 PUSH5 0x6970667358 0x22 SLT KECCAK256 0x2D PUSH32 0x7081170D8D6055B1AD4A3D92B81AD8E20587DE9C2DBA6207ECF10CB6F8866473 PUSH16 0x6C634300080F00330000000000000000 "
				},
				"gasEstimates": {
					"creation": {
						"codeDepositCost": "995800",
						"executionCost": "98076",
						"totalCost": "1093876"
					},
					"external": {
						"buyKitty(uint256)": "infinite",
						"createKitty(string)": "infinite",
						"getOwner()": "2522",
						"kitties(uint256)": "infinite",
						"transferToOwner()": "infinite",
						"viewKitty()": "infinite",
						"withdrawFromBank()": "infinite"
					}
				},
				"methodIdentifiers": {
					"buyKitty(uint256)": "ae5310f6",
					"createKitty(string)": "35844dad",
					"getOwner()": "893d20e8",
					"kitties(uint256)": "8cc51eda",
					"transferToOwner()": "2d90ae94",
					"viewKitty()": "0c3fddef",
					"withdrawFromBank()": "be80d447"
				}
			},
			"storageLayout": {
				"storage": [
					{
						"astId": 190,
						"contract": "contracts/nftMarket.sol:NFTMarket",
						"label": "owner",
						"offset": 0,
						"slot": "0",
						"type": "t_address"
					},
					{
						"astId": 35,
						"contract": "contracts/nftMarket.sol:NFTMarket",
						"label": "kitties",
						"offset": 0,
						"slot": "1",
						"type": "t_array(t_struct(Kitty)31_storage)dyn_storage"
					},
					{
						"astId": 40,
						"contract": "contracts/nftMarket.sol:NFTMarket",
						"label": "ownedKittyies",
						"offset": 0,
						"slot": "2",
						"type": "t_mapping(t_address,t_array(t_uint256)dyn_storage)"
					},
					{
						"astId": 43,
						"contract": "contracts/nftMarket.sol:NFTMarket",
						"label": "price",
						"offset": 0,
						"slot": "3",
						"type": "t_uint256"
					},
					{
						"astId": 46,
						"contract": "contracts/nftMarket.sol:NFTMarket",
						"label": "bankAddress",
						"offset": 0,
						"slot": "4",
						"type": "t_address"
					},
					{
						"astId": 52,
						"contract": "contracts/nftMarket.sol:NFTMarket",
						"label": "bank",
						"offset": 0,
						"slot": "5",
						"type": "t_contract(IBank)22"
					}
				],
				"types": {
					"t_address": {
						"encoding": "inplace",
						"label": "address",
						"numberOfBytes": "20"
					},
					"t_array(t_struct(Kitty)31_storage)dyn_storage": {
						"base": "t_struct(Kitty)31_storage",
						"encoding": "dynamic_array",
						"label": "struct NFTMarket.Kitty[]",
						"numberOfBytes": "32"
					},
					"t_array(t_uint256)dyn_storage": {
						"base": "t_uint256",
						"encoding": "dynamic_array",
						"label": "uint256[]",
						"numberOfBytes": "32"
					},
					"t_contract(IBank)22": {
						"encoding": "inplace",
						"label": "contract IBank",
						"numberOfBytes": "20"
					},
					"t_mapping(t_address,t_array(t_uint256)dyn_storage)": {
						"encoding": "mapping",
						"key": "t_address",
						"label": "mapping(address => uint256[])",
						"numberOfBytes": "32",
						"value": "t_array(t_uint256)dyn_storage"
					},
					"t_string_storage": {
						"encoding": "bytes",
						"label": "string",
						"numberOfBytes": "32"
					},
					"t_struct(Kitty)31_storage": {
						"encoding": "inplace",
						"label": "struct NFTMarket.Kitty",
						"members": [
							{
								"astId": 26,
								"contract": "contracts/nftMarket.sol:NFTMarket",
								"label": "id",
								"offset": 0,
								"slot": "0",
								"type": "t_uint256"
							},
							{
								"astId": 28,
								"contract": "contracts/nftMarket.sol:NFTMarket",
								"label": "name",
								"offset": 0,
								"slot": "1",
								"type": "t_string_storage"
							},
							{
								"astId": 30,
								"contract": "contracts/nftMarket.sol:NFTMarket",
								"label": "owner",
								"offset": 0,
								"slot": "2",
								"type": "t_address"
							}
						],
						"numberOfBytes": "96"
					},
					"t_uint256": {
						"encoding": "inplace",
						"label": "uint256",
						"numberOfBytes": "32"
					}
				}
			},
			"userdoc": {
				"kind": "user",
				"methods": {},
				"version": 1
			}
		}
	}
}