{
	"contracts/nftMarket.sol": {
		"NFTMarket": {
			"abi": [
				{
					"inputs": [
						{
							"internalType": "uint256",
							"name": "_id",
							"type": "uint256"
						}
					],
					"name": "buyKitty",
					"outputs": [],
					"stateMutability": "nonpayable",
					"type": "function"
				},
				{
					"inputs": [
						{
							"internalType": "string",
							"name": "_name",
							"type": "string"
						}
					],
					"name": "createKitty",
					"outputs": [],
					"stateMutability": "nonpayable",
					"type": "function"
				},
				{
					"inputs": [],
					"name": "getBalance",
					"outputs": [
						{
							"internalType": "uint256",
							"name": "",
							"type": "uint256"
						}
					],
					"stateMutability": "view",
					"type": "function"
				},
				{
					"inputs": [],
					"name": "getOwner",
					"outputs": [
						{
							"internalType": "address",
							"name": "",
							"type": "address"
						}
					],
					"stateMutability": "view",
					"type": "function"
				},
				{
					"inputs": [
						{
							"internalType": "uint256",
							"name": "",
							"type": "uint256"
						}
					],
					"name": "kitties",
					"outputs": [
						{
							"internalType": "uint256",
							"name": "id",
							"type": "uint256"
						},
						{
							"internalType": "string",
							"name": "name",
							"type": "string"
						},
						{
							"internalType": "address",
							"name": "owner",
							"type": "address"
						}
					],
					"stateMutability": "view",
					"type": "function"
				},
				{
					"inputs": [],
					"name": "transferToOwner",
					"outputs": [],
					"stateMutability": "nonpayable",
					"type": "function"
				},
				{
					"inputs": [],
					"name": "viewKitty",
					"outputs": [
						{
							"components": [
								{
									"internalType": "uint256",
									"name": "id",
									"type": "uint256"
								},
								{
									"internalType": "string",
									"name": "name",
									"type": "string"
								},
								{
									"internalType": "address",
									"name": "owner",
									"type": "address"
								}
							],
							"internalType": "struct NFTMarket.Kitty[]",
							"name": "",
							"type": "tuple[]"
						}
					],
					"stateMutability": "view",
					"type": "function"
				},
				{
					"inputs": [],
					"name": "withdrawFromBank",
					"outputs": [],
					"stateMutability": "nonpayable",
					"type": "function"
				},
				{
					"stateMutability": "payable",
					"type": "receive"
				}
			],
			"devdoc": {
				"kind": "dev",
				"methods": {},
				"version": 1
			},
			"evm": {
				"assembly": "    /* \"contracts/nftMarket.sol\":281:2737  contract NFTMarket is Ownable {... */\n  mstore(0x40, 0x80)\n    /* \"contracts/nftMarket.sol\":502:522  10000000000000000000 */\n  0x8ac7230489e80000\n    /* \"contracts/nftMarket.sol\":481:522  uint private price = 10000000000000000000 */\n  0x03\n  sstore\n    /* \"contracts/nftMarket.sol\":566:608  0xd9145CCE52D386f254917e481eB44e9943F39138 */\n  0xd9145cce52d386f254917e481eb44e9943f39138\n    /* \"contracts/nftMarket.sol\":536:608  address private bankAddress = 0xd9145CCE52D386f254917e481eB44e9943F39138 */\n  0x04\n  exp(0x0100, 0x00)\n  dup2\n  sload\n  dup2\n  0xffffffffffffffffffffffffffffffffffffffff\n  mul\n  not\n  and\n  swap1\n  dup4\n  0xffffffffffffffffffffffffffffffffffffffff\n  and\n  mul\n  or\n  swap1\n  sstore\n  pop\n    /* \"contracts/nftMarket.sol\":832:843  bankAddress */\n  0x04\n  0x00\n  swap1\n  sload\n  swap1\n  0x0100\n  exp\n  swap1\n  div\n  0xffffffffffffffffffffffffffffffffffffffff\n  and\n    /* \"contracts/nftMarket.sol\":813:844  IBank bank = IBank(bankAddress) */\n  0x05\n  exp(0x0100, 0x00)\n  dup2\n  sload\n  dup2\n  0xffffffffffffffffffffffffffffffffffffffff\n  mul\n  not\n  and\n  swap1\n  dup4\n  0xffffffffffffffffffffffffffffffffffffffff\n  and\n  mul\n  or\n  swap1\n  sstore\n  pop\n    /* \"contracts/nftMarket.sol\":281:2737  contract NFTMarket is Ownable {... */\n  callvalue\n  dup1\n  iszero\n  tag_1\n  jumpi\n  0x00\n  dup1\n  revert\ntag_1:\n  pop\n    /* \"contracts/ownable.sol\":337:347  msg.sender */\n  caller\n    /* \"contracts/ownable.sol\":329:334  owner */\n  0x00\n  dup1\n    /* \"contracts/ownable.sol\":329:347  owner = msg.sender */\n  0x0100\n  exp\n  dup2\n  sload\n  dup2\n  0xffffffffffffffffffffffffffffffffffffffff\n  mul\n  not\n  and\n  swap1\n  dup4\n  0xffffffffffffffffffffffffffffffffffffffff\n  and\n  mul\n  or\n  swap1\n  sstore\n  pop\n    /* \"contracts/nftMarket.sol\":281:2737  contract NFTMarket is Ownable {... */\n  dataSize(sub_0)\n  dup1\n  dataOffset(sub_0)\n  0x00\n  codecopy\n  0x00\n  return\nstop\n\nsub_0: assembly {\n        /* \"contracts/nftMarket.sol\":281:2737  contract NFTMarket is Ownable {... */\n      mstore(0x40, 0x80)\n      jumpi(tag_1, lt(calldatasize, 0x04))\n      shr(0xe0, calldataload(0x00))\n      dup1\n      0x893d20e8\n      gt\n      tag_11\n      jumpi\n      dup1\n      0x893d20e8\n      eq\n      tag_7\n      jumpi\n      dup1\n      0x8cc51eda\n      eq\n      tag_8\n      jumpi\n      dup1\n      0xae5310f6\n      eq\n      tag_9\n      jumpi\n      dup1\n      0xbe80d447\n      eq\n      tag_10\n      jumpi\n      jump(tag_2)\n    tag_11:\n      dup1\n      0x0c3fddef\n      eq\n      tag_3\n      jumpi\n      dup1\n      0x12065fe0\n      eq\n      tag_4\n      jumpi\n      dup1\n      0x2d90ae94\n      eq\n      tag_5\n      jumpi\n      dup1\n      0x35844dad\n      eq\n      tag_6\n      jumpi\n      jump(tag_2)\n    tag_1:\n      jumpi(tag_2, calldatasize)\n      stop\n    tag_2:\n      0x00\n      dup1\n      revert\n        /* \"contracts/nftMarket.sol\":1313:1402  function viewKitty() view external returns(Kitty[] memory){... */\n    tag_3:\n      callvalue\n      dup1\n      iszero\n      tag_14\n      jumpi\n      0x00\n      dup1\n      revert\n    tag_14:\n      pop\n      tag_15\n      tag_16\n      jump\t// in\n    tag_15:\n      mload(0x40)\n      tag_17\n      swap2\n      swap1\n      tag_18\n      jump\t// in\n    tag_17:\n      mload(0x40)\n      dup1\n      swap2\n      sub\n      swap1\n      return\n        /* \"contracts/nftMarket.sol\":2446:2550  function getBalance() view external onlyOwner returns(uint){... */\n    tag_4:\n      callvalue\n      dup1\n      iszero\n      tag_19\n      jumpi\n      0x00\n      dup1\n      revert\n    tag_19:\n      pop\n      tag_20\n      tag_21\n      jump\t// in\n    tag_20:\n      mload(0x40)\n      tag_22\n      swap2\n      swap1\n      tag_23\n      jump\t// in\n    tag_22:\n      mload(0x40)\n      dup1\n      swap2\n      sub\n      swap1\n      return\n        /* \"contracts/nftMarket.sol\":2277:2390  function transferToOwner() external onlyOwner{... */\n    tag_5:\n      callvalue\n      dup1\n      iszero\n      tag_24\n      jumpi\n      0x00\n      dup1\n      revert\n    tag_24:\n      pop\n      tag_25\n      tag_26\n      jump\t// in\n    tag_25:\n      stop\n        /* \"contracts/nftMarket.sol\":855:1156  function createKitty(string memory _name) external onlyOwner {... */\n    tag_6:\n      callvalue\n      dup1\n      iszero\n      tag_27\n      jumpi\n      0x00\n      dup1\n      revert\n    tag_27:\n      pop\n      tag_28\n      0x04\n      dup1\n      calldatasize\n      sub\n      dup2\n      add\n      swap1\n      tag_29\n      swap2\n      swap1\n      tag_30\n      jump\t// in\n    tag_29:\n      tag_31\n      jump\t// in\n    tag_28:\n      stop\n        /* \"contracts/nftMarket.sol\":1162:1282  function getOwner() view external returns(address){... */\n    tag_7:\n      callvalue\n      dup1\n      iszero\n      tag_32\n      jumpi\n      0x00\n      dup1\n      revert\n    tag_32:\n      pop\n      tag_33\n      tag_34\n      jump\t// in\n    tag_33:\n      mload(0x40)\n      tag_35\n      swap2\n      swap1\n      tag_36\n      jump\t// in\n    tag_35:\n      mload(0x40)\n      dup1\n      swap2\n      sub\n      swap1\n      return\n        /* \"contracts/nftMarket.sol\":403:425  Kitty[] public kitties */\n    tag_8:\n      callvalue\n      dup1\n      iszero\n      tag_37\n      jumpi\n      0x00\n      dup1\n      revert\n    tag_37:\n      pop\n      tag_38\n      0x04\n      dup1\n      calldatasize\n      sub\n      dup2\n      add\n      swap1\n      tag_39\n      swap2\n      swap1\n      tag_40\n      jump\t// in\n    tag_39:\n      tag_41\n      jump\t// in\n    tag_38:\n      mload(0x40)\n      tag_42\n      swap4\n      swap3\n      swap2\n      swap1\n      tag_43\n      jump\t// in\n    tag_42:\n      mload(0x40)\n      dup1\n      swap2\n      sub\n      swap1\n      return\n        /* \"contracts/nftMarket.sol\":1666:2090  function buyKitty(uint256 _id) external{... */\n    tag_9:\n      callvalue\n      dup1\n      iszero\n      tag_44\n      jumpi\n      0x00\n      dup1\n      revert\n    tag_44:\n      pop\n      tag_45\n      0x04\n      dup1\n      calldatasize\n      sub\n      dup2\n      add\n      swap1\n      tag_46\n      swap2\n      swap1\n      tag_40\n      jump\t// in\n    tag_46:\n      tag_47\n      jump\t// in\n    tag_45:\n      stop\n        /* \"contracts/nftMarket.sol\":2096:2223  function withdrawFromBank() external onlyOwner{... */\n    tag_10:\n      callvalue\n      dup1\n      iszero\n      tag_48\n      jumpi\n      0x00\n      dup1\n      revert\n    tag_48:\n      pop\n      tag_49\n      tag_50\n      jump\t// in\n    tag_49:\n      stop\n        /* \"contracts/nftMarket.sol\":1313:1402  function viewKitty() view external returns(Kitty[] memory){... */\n    tag_16:\n        /* \"contracts/nftMarket.sol\":1356:1370  Kitty[] memory */\n      0x60\n        /* \"contracts/nftMarket.sol\":1388:1395  kitties */\n      0x01\n        /* \"contracts/nftMarket.sol\":1381:1395  return kitties */\n      dup1\n      sload\n      dup1\n      0x20\n      mul\n      0x20\n      add\n      mload(0x40)\n      swap1\n      dup2\n      add\n      0x40\n      mstore\n      dup1\n      swap3\n      swap2\n      swap1\n      dup2\n      dup2\n      mstore\n      0x20\n      add\n      0x00\n      swap1\n    tag_52:\n      dup3\n      dup3\n      lt\n      iszero\n      tag_53\n      jumpi\n      dup4\n      dup3\n      swap1\n      0x00\n      mstore\n      keccak256(0x00, 0x20)\n      swap1\n      0x03\n      mul\n      add\n      mload(0x40)\n      dup1\n      0x60\n      add\n      0x40\n      mstore\n      swap1\n      dup2\n      0x00\n      dup3\n      add\n      sload\n      dup2\n      mstore\n      0x20\n      add\n      0x01\n      dup3\n      add\n      dup1\n      sload\n      tag_55\n      swap1\n      tag_56\n      jump\t// in\n    tag_55:\n      dup1\n      0x1f\n      add\n      0x20\n      dup1\n      swap2\n      div\n      mul\n      0x20\n      add\n      mload(0x40)\n      swap1\n      dup2\n      add\n      0x40\n      mstore\n      dup1\n      swap3\n      swap2\n      swap1\n      dup2\n      dup2\n      mstore\n      0x20\n      add\n      dup3\n      dup1\n      sload\n      tag_57\n      swap1\n      tag_56\n      jump\t// in\n    tag_57:\n      dup1\n      iszero\n      tag_58\n      jumpi\n      dup1\n      0x1f\n      lt\n      tag_59\n      jumpi\n      0x0100\n      dup1\n      dup4\n      sload\n      div\n      mul\n      dup4\n      mstore\n      swap2\n      0x20\n      add\n      swap2\n      jump(tag_58)\n    tag_59:\n      dup3\n      add\n      swap2\n      swap1\n      0x00\n      mstore\n      keccak256(0x00, 0x20)\n      swap1\n    tag_60:\n      dup2\n      sload\n      dup2\n      mstore\n      swap1\n      0x01\n      add\n      swap1\n      0x20\n      add\n      dup1\n      dup4\n      gt\n      tag_60\n      jumpi\n      dup3\n      swap1\n      sub\n      0x1f\n      and\n      dup3\n      add\n      swap2\n    tag_58:\n      pop\n      pop\n      pop\n      pop\n      pop\n      dup2\n      mstore\n      0x20\n      add\n      0x02\n      dup3\n      add\n      0x00\n      swap1\n      sload\n      swap1\n      0x0100\n      exp\n      swap1\n      div\n      0xffffffffffffffffffffffffffffffffffffffff\n      and\n      0xffffffffffffffffffffffffffffffffffffffff\n      and\n      0xffffffffffffffffffffffffffffffffffffffff\n      and\n      dup2\n      mstore\n      pop\n      pop\n      dup2\n      mstore\n      0x20\n      add\n      swap1\n      0x01\n      add\n      swap1\n      jump(tag_52)\n    tag_53:\n      pop\n      pop\n      pop\n      pop\n      swap1\n      pop\n        /* \"contracts/nftMarket.sol\":1313:1402  function viewKitty() view external returns(Kitty[] memory){... */\n      swap1\n      jump\t// out\n        /* \"contracts/nftMarket.sol\":2446:2550  function getBalance() view external onlyOwner returns(uint){... */\n    tag_21:\n        /* \"contracts/nftMarket.sol\":2500:2504  uint */\n      0x00\n        /* \"contracts/ownable.sol\":201:206  owner */\n      dup1\n      0x00\n      swap1\n      sload\n      swap1\n      0x0100\n      exp\n      swap1\n      div\n      0xffffffffffffffffffffffffffffffffffffffff\n      and\n        /* \"contracts/ownable.sol\":187:206  msg.sender == owner */\n      0xffffffffffffffffffffffffffffffffffffffff\n      and\n        /* \"contracts/ownable.sol\":187:197  msg.sender */\n      caller\n        /* \"contracts/ownable.sol\":187:206  msg.sender == owner */\n      0xffffffffffffffffffffffffffffffffffffffff\n      and\n      eq\n        /* \"contracts/ownable.sol\":179:228  require(msg.sender == owner, \"You Are Not Owner\") */\n      tag_62\n      jumpi\n      mload(0x40)\n      0x08c379a000000000000000000000000000000000000000000000000000000000\n      dup2\n      mstore\n      0x04\n      add\n      tag_63\n      swap1\n      tag_64\n      jump\t// in\n    tag_63:\n      mload(0x40)\n      dup1\n      swap2\n      sub\n      swap1\n      revert\n    tag_62:\n        /* \"contracts/nftMarket.sol\":2522:2543  address(this).balance */\n      selfbalance\n        /* \"contracts/nftMarket.sol\":2515:2543  return address(this).balance */\n      swap1\n      pop\n        /* \"contracts/nftMarket.sol\":2446:2550  function getBalance() view external onlyOwner returns(uint){... */\n      swap1\n      jump\t// out\n        /* \"contracts/nftMarket.sol\":2277:2390  function transferToOwner() external onlyOwner{... */\n    tag_26:\n        /* \"contracts/ownable.sol\":201:206  owner */\n      0x00\n      dup1\n      sload\n      swap1\n      0x0100\n      exp\n      swap1\n      div\n      0xffffffffffffffffffffffffffffffffffffffff\n      and\n        /* \"contracts/ownable.sol\":187:206  msg.sender == owner */\n      0xffffffffffffffffffffffffffffffffffffffff\n      and\n        /* \"contracts/ownable.sol\":187:197  msg.sender */\n      caller\n        /* \"contracts/ownable.sol\":187:206  msg.sender == owner */\n      0xffffffffffffffffffffffffffffffffffffffff\n      and\n      eq\n        /* \"contracts/ownable.sol\":179:228  require(msg.sender == owner, \"You Are Not Owner\") */\n      tag_67\n      jumpi\n      mload(0x40)\n      0x08c379a000000000000000000000000000000000000000000000000000000000\n      dup2\n      mstore\n      0x04\n      add\n      tag_68\n      swap1\n      tag_64\n      jump\t// in\n    tag_68:\n      mload(0x40)\n      dup1\n      swap2\n      sub\n      swap1\n      revert\n    tag_67:\n        /* \"contracts/nftMarket.sol\":2340:2350  msg.sender */\n      caller\n        /* \"contracts/nftMarket.sol\":2332:2360  payable(msg.sender).transfer */\n      0xffffffffffffffffffffffffffffffffffffffff\n      and\n        /* \"contracts/nftMarket.sol\":2332:2383  payable(msg.sender).transfer(address(this).balance) */\n      0x08fc\n        /* \"contracts/nftMarket.sol\":2361:2382  address(this).balance */\n      selfbalance\n        /* \"contracts/nftMarket.sol\":2332:2383  payable(msg.sender).transfer(address(this).balance) */\n      swap1\n      dup2\n      iszero\n      mul\n      swap1\n      mload(0x40)\n      0x00\n      mload(0x40)\n      dup1\n      dup4\n      sub\n      dup2\n      dup6\n      dup9\n      dup9\n      call\n      swap4\n      pop\n      pop\n      pop\n      pop\n      iszero\n      dup1\n      iszero\n      tag_71\n      jumpi\n      returndatasize\n      0x00\n      dup1\n      returndatacopy\n      revert(0x00, returndatasize)\n    tag_71:\n      pop\n        /* \"contracts/nftMarket.sol\":2277:2390  function transferToOwner() external onlyOwner{... */\n      jump\t// out\n        /* \"contracts/nftMarket.sol\":855:1156  function createKitty(string memory _name) external onlyOwner {... */\n    tag_31:\n        /* \"contracts/ownable.sol\":201:206  owner */\n      0x00\n      dup1\n      sload\n      swap1\n      0x0100\n      exp\n      swap1\n      div\n      0xffffffffffffffffffffffffffffffffffffffff\n      and\n        /* \"contracts/ownable.sol\":187:206  msg.sender == owner */\n      0xffffffffffffffffffffffffffffffffffffffff\n      and\n        /* \"contracts/ownable.sol\":187:197  msg.sender */\n      caller\n        /* \"contracts/ownable.sol\":187:206  msg.sender == owner */\n      0xffffffffffffffffffffffffffffffffffffffff\n      and\n      eq\n        /* \"contracts/ownable.sol\":179:228  require(msg.sender == owner, \"You Are Not Owner\") */\n      tag_73\n      jumpi\n      mload(0x40)\n      0x08c379a000000000000000000000000000000000000000000000000000000000\n      dup2\n      mstore\n      0x04\n      add\n      tag_74\n      swap1\n      tag_64\n      jump\t// in\n    tag_74:\n      mload(0x40)\n      dup1\n      swap2\n      sub\n      swap1\n      revert\n    tag_73:\n        /* \"contracts/nftMarket.sol\":1052:1073  Kitty memory newKitty */\n      0x00\n        /* \"contracts/nftMarket.sol\":1076:1117  Kitty(kitties.length , _name, address(0)) */\n      mload(0x40)\n      dup1\n      0x60\n      add\n      0x40\n      mstore\n      dup1\n        /* \"contracts/nftMarket.sol\":1082:1089  kitties */\n      0x01\n        /* \"contracts/nftMarket.sol\":1082:1096  kitties.length */\n      dup1\n      sload\n      swap1\n      pop\n        /* \"contracts/nftMarket.sol\":1076:1117  Kitty(kitties.length , _name, address(0)) */\n      dup2\n      mstore\n      0x20\n      add\n        /* \"contracts/nftMarket.sol\":1099:1104  _name */\n      dup4\n        /* \"contracts/nftMarket.sol\":1076:1117  Kitty(kitties.length , _name, address(0)) */\n      dup2\n      mstore\n      0x20\n      add\n        /* \"contracts/nftMarket.sol\":1114:1115  0 */\n      0x00\n        /* \"contracts/nftMarket.sol\":1076:1117  Kitty(kitties.length , _name, address(0)) */\n      0xffffffffffffffffffffffffffffffffffffffff\n      and\n      dup2\n      mstore\n      pop\n        /* \"contracts/nftMarket.sol\":1052:1117  Kitty memory newKitty = Kitty(kitties.length , _name, address(0)) */\n      swap1\n      pop\n        /* \"contracts/nftMarket.sol\":1127:1134  kitties */\n      0x01\n        /* \"contracts/nftMarket.sol\":1140:1148  newKitty */\n      dup2\n        /* \"contracts/nftMarket.sol\":1127:1149  kitties.push(newKitty) */\n      swap1\n      dup1\n      0x01\n      dup2\n      sload\n      add\n      dup1\n      dup3\n      sstore\n      dup1\n      swap2\n      pop\n      pop\n      0x01\n      swap1\n      sub\n      swap1\n      0x00\n      mstore\n      keccak256(0x00, 0x20)\n      swap1\n      0x03\n      mul\n      add\n      0x00\n      swap1\n      swap2\n      swap1\n      swap2\n      swap1\n      swap2\n      pop\n      0x00\n      dup3\n      add\n      mload\n      dup2\n      0x00\n      add\n      sstore\n      0x20\n      dup3\n      add\n      mload\n      dup2\n      0x01\n      add\n      swap1\n      dup2\n      tag_77\n      swap2\n      swap1\n      tag_78\n      jump\t// in\n    tag_77:\n      pop\n      0x40\n      dup3\n      add\n      mload\n      dup2\n      0x02\n      add\n      exp(0x0100, 0x00)\n      dup2\n      sload\n      dup2\n      0xffffffffffffffffffffffffffffffffffffffff\n      mul\n      not\n      and\n      swap1\n      dup4\n      0xffffffffffffffffffffffffffffffffffffffff\n      and\n      mul\n      or\n      swap1\n      sstore\n      pop\n      pop\n      pop\n        /* \"contracts/nftMarket.sol\":916:1156  {... */\n      pop\n        /* \"contracts/nftMarket.sol\":855:1156  function createKitty(string memory _name) external onlyOwner {... */\n      pop\n      jump\t// out\n        /* \"contracts/nftMarket.sol\":1162:1282  function getOwner() view external returns(address){... */\n    tag_34:\n        /* \"contracts/nftMarket.sol\":1204:1211  address */\n      0x00\n        /* \"contracts/nftMarket.sol\":1270:1275  owner */\n      dup1\n      0x00\n      swap1\n      sload\n      swap1\n      0x0100\n      exp\n      swap1\n      div\n      0xffffffffffffffffffffffffffffffffffffffff\n      and\n        /* \"contracts/nftMarket.sol\":1263:1275  return owner */\n      swap1\n      pop\n        /* \"contracts/nftMarket.sol\":1162:1282  function getOwner() view external returns(address){... */\n      swap1\n      jump\t// out\n        /* \"contracts/nftMarket.sol\":403:425  Kitty[] public kitties */\n    tag_41:\n      0x01\n      dup2\n      dup2\n      sload\n      dup2\n      lt\n      tag_80\n      jumpi\n      0x00\n      dup1\n      revert\n    tag_80:\n      swap1\n      0x00\n      mstore\n      keccak256(0x00, 0x20)\n      swap1\n      0x03\n      mul\n      add\n      0x00\n      swap2\n      pop\n      swap1\n      pop\n      dup1\n      0x00\n      add\n      sload\n      swap1\n      dup1\n      0x01\n      add\n      dup1\n      sload\n      tag_82\n      swap1\n      tag_56\n      jump\t// in\n    tag_82:\n      dup1\n      0x1f\n      add\n      0x20\n      dup1\n      swap2\n      div\n      mul\n      0x20\n      add\n      mload(0x40)\n      swap1\n      dup2\n      add\n      0x40\n      mstore\n      dup1\n      swap3\n      swap2\n      swap1\n      dup2\n      dup2\n      mstore\n      0x20\n      add\n      dup3\n      dup1\n      sload\n      tag_83\n      swap1\n      tag_56\n      jump\t// in\n    tag_83:\n      dup1\n      iszero\n      tag_84\n      jumpi\n      dup1\n      0x1f\n      lt\n      tag_85\n      jumpi\n      0x0100\n      dup1\n      dup4\n      sload\n      div\n      mul\n      dup4\n      mstore\n      swap2\n      0x20\n      add\n      swap2\n      jump(tag_84)\n    tag_85:\n      dup3\n      add\n      swap2\n      swap1\n      0x00\n      mstore\n      keccak256(0x00, 0x20)\n      swap1\n    tag_86:\n      dup2\n      sload\n      dup2\n      mstore\n      swap1\n      0x01\n      add\n      swap1\n      0x20\n      add\n      dup1\n      dup4\n      gt\n      tag_86\n      jumpi\n      dup3\n      swap1\n      sub\n      0x1f\n      and\n      dup3\n      add\n      swap2\n    tag_84:\n      pop\n      pop\n      pop\n      pop\n      pop\n      swap1\n      dup1\n      0x02\n      add\n      0x00\n      swap1\n      sload\n      swap1\n      0x0100\n      exp\n      swap1\n      div\n      0xffffffffffffffffffffffffffffffffffffffff\n      and\n      swap1\n      pop\n      dup4\n      jump\t// out\n        /* \"contracts/nftMarket.sol\":1666:2090  function buyKitty(uint256 _id) external{... */\n    tag_47:\n        /* \"contracts/nftMarket.sol\":1813:1814  0 */\n      0x00\n        /* \"contracts/nftMarket.sol\":1783:1815  kitties[_id].owner == address(0) */\n      0xffffffffffffffffffffffffffffffffffffffff\n      and\n        /* \"contracts/nftMarket.sol\":1783:1790  kitties */\n      0x01\n        /* \"contracts/nftMarket.sol\":1791:1794  _id */\n      dup3\n        /* \"contracts/nftMarket.sol\":1783:1795  kitties[_id] */\n      dup2\n      sload\n      dup2\n      lt\n      tag_88\n      jumpi\n      tag_89\n      tag_90\n      jump\t// in\n    tag_89:\n    tag_88:\n      swap1\n      0x00\n      mstore\n      keccak256(0x00, 0x20)\n      swap1\n      0x03\n      mul\n      add\n        /* \"contracts/nftMarket.sol\":1783:1801  kitties[_id].owner */\n      0x02\n      add\n      0x00\n      swap1\n      sload\n      swap1\n      0x0100\n      exp\n      swap1\n      div\n      0xffffffffffffffffffffffffffffffffffffffff\n      and\n        /* \"contracts/nftMarket.sol\":1783:1815  kitties[_id].owner == address(0) */\n      0xffffffffffffffffffffffffffffffffffffffff\n      and\n      eq\n        /* \"contracts/nftMarket.sol\":1775:1838  require(kitties[_id].owner == address(0), \"Kitty not for sale\") */\n      tag_92\n      jumpi\n      mload(0x40)\n      0x08c379a000000000000000000000000000000000000000000000000000000000\n      dup2\n      mstore\n      0x04\n      add\n      tag_93\n      swap1\n      tag_94\n      jump\t// in\n    tag_93:\n      mload(0x40)\n      dup1\n      swap2\n      sub\n      swap1\n      revert\n    tag_92:\n        /* \"contracts/nftMarket.sol\":1848:1861  ownedKittyies */\n      0x02\n        /* \"contracts/nftMarket.sol\":1848:1873  ownedKittyies[msg.sender] */\n      0x00\n        /* \"contracts/nftMarket.sol\":1862:1872  msg.sender */\n      caller\n        /* \"contracts/nftMarket.sol\":1848:1873  ownedKittyies[msg.sender] */\n      0xffffffffffffffffffffffffffffffffffffffff\n      and\n      0xffffffffffffffffffffffffffffffffffffffff\n      and\n      dup2\n      mstore\n      0x20\n      add\n      swap1\n      dup2\n      mstore\n      0x20\n      add\n      0x00\n      keccak256\n        /* \"contracts/nftMarket.sol\":1879:1882  _id */\n      dup2\n        /* \"contracts/nftMarket.sol\":1848:1883  ownedKittyies[msg.sender].push(_id) */\n      swap1\n      dup1\n      0x01\n      dup2\n      sload\n      add\n      dup1\n      dup3\n      sstore\n      dup1\n      swap2\n      pop\n      pop\n      0x01\n      swap1\n      sub\n      swap1\n      0x00\n      mstore\n      keccak256(0x00, 0x20)\n      add\n      0x00\n      swap1\n      swap2\n      swap1\n      swap2\n      swap1\n      swap2\n      pop\n      sstore\n        /* \"contracts/nftMarket.sol\":1977:1987  msg.sender */\n      caller\n        /* \"contracts/nftMarket.sol\":1956:1963  kitties */\n      0x01\n        /* \"contracts/nftMarket.sol\":1964:1967  _id */\n      dup3\n        /* \"contracts/nftMarket.sol\":1956:1968  kitties[_id] */\n      dup2\n      sload\n      dup2\n      lt\n      tag_96\n      jumpi\n      tag_97\n      tag_90\n      jump\t// in\n    tag_97:\n    tag_96:\n      swap1\n      0x00\n      mstore\n      keccak256(0x00, 0x20)\n      swap1\n      0x03\n      mul\n      add\n        /* \"contracts/nftMarket.sol\":1956:1974  kitties[_id].owner */\n      0x02\n      add\n      0x00\n        /* \"contracts/nftMarket.sol\":1956:1987  kitties[_id].owner = msg.sender */\n      0x0100\n      exp\n      dup2\n      sload\n      dup2\n      0xffffffffffffffffffffffffffffffffffffffff\n      mul\n      not\n      and\n      swap1\n      dup4\n      0xffffffffffffffffffffffffffffffffffffffff\n      and\n      mul\n      or\n      swap1\n      sstore\n      pop\n        /* \"contracts/nftMarket.sol\":2031:2035  bank */\n      0x05\n      0x00\n      swap1\n      sload\n      swap1\n      0x0100\n      exp\n      swap1\n      div\n      0xffffffffffffffffffffffffffffffffffffffff\n      and\n        /* \"contracts/nftMarket.sol\":2031:2048  bank.transferFrom */\n      0xffffffffffffffffffffffffffffffffffffffff\n      and\n      0x23b872dd\n        /* \"contracts/nftMarket.sol\":2049:2059  msg.sender */\n      caller\n        /* \"contracts/nftMarket.sol\":2069:2073  this */\n      address\n        /* \"contracts/nftMarket.sol\":2075:2080  price */\n      sload(0x03)\n        /* \"contracts/nftMarket.sol\":2031:2081  bank.transferFrom(msg.sender, address(this),price) */\n      mload(0x40)\n      dup5\n      0xffffffff\n      and\n      0xe0\n      shl\n      dup2\n      mstore\n      0x04\n      add\n      tag_99\n      swap4\n      swap3\n      swap2\n      swap1\n      tag_100\n      jump\t// in\n    tag_99:\n      0x00\n      mload(0x40)\n      dup1\n      dup4\n      sub\n      dup2\n      0x00\n      dup8\n      dup1\n      extcodesize\n      iszero\n      dup1\n      iszero\n      tag_101\n      jumpi\n      0x00\n      dup1\n      revert\n    tag_101:\n      pop\n      gas\n      call\n      iszero\n      dup1\n      iszero\n      tag_103\n      jumpi\n      returndatasize\n      0x00\n      dup1\n      returndatacopy\n      revert(0x00, returndatasize)\n    tag_103:\n      pop\n      pop\n      pop\n      pop\n        /* \"contracts/nftMarket.sol\":1666:2090  function buyKitty(uint256 _id) external{... */\n      pop\n      jump\t// out\n        /* \"contracts/nftMarket.sol\":2096:2223  function withdrawFromBank() external onlyOwner{... */\n    tag_50:\n        /* \"contracts/ownable.sol\":201:206  owner */\n      0x00\n      dup1\n      sload\n      swap1\n      0x0100\n      exp\n      swap1\n      div\n      0xffffffffffffffffffffffffffffffffffffffff\n      and\n        /* \"contracts/ownable.sol\":187:206  msg.sender == owner */\n      0xffffffffffffffffffffffffffffffffffffffff\n      and\n        /* \"contracts/ownable.sol\":187:197  msg.sender */\n      caller\n        /* \"contracts/ownable.sol\":187:206  msg.sender == owner */\n      0xffffffffffffffffffffffffffffffffffffffff\n      and\n      eq\n        /* \"contracts/ownable.sol\":179:228  require(msg.sender == owner, \"You Are Not Owner\") */\n      tag_105\n      jumpi\n      mload(0x40)\n      0x08c379a000000000000000000000000000000000000000000000000000000000\n      dup2\n      mstore\n      0x04\n      add\n      tag_106\n      swap1\n      tag_64\n      jump\t// in\n    tag_106:\n      mload(0x40)\n      dup1\n      swap2\n      sub\n      swap1\n      revert\n    tag_105:\n        /* \"contracts/nftMarket.sol\":2152:2164  uint balance */\n      0x00\n        /* \"contracts/nftMarket.sol\":2167:2171  bank */\n      0x05\n      0x00\n      swap1\n      sload\n      swap1\n      0x0100\n      exp\n      swap1\n      div\n      0xffffffffffffffffffffffffffffffffffffffff\n      and\n        /* \"contracts/nftMarket.sol\":2167:2182  bank.getBalance */\n      0xffffffffffffffffffffffffffffffffffffffff\n      and\n      0x12065fe0\n        /* \"contracts/nftMarket.sol\":2167:2184  bank.getBalance() */\n      mload(0x40)\n      dup2\n      0xffffffff\n      and\n      0xe0\n      shl\n      dup2\n      mstore\n      0x04\n      add\n      0x20\n      mload(0x40)\n      dup1\n      dup4\n      sub\n      dup2\n      dup7\n      gas\n      staticcall\n      iszero\n      dup1\n      iszero\n      tag_109\n      jumpi\n      returndatasize\n      0x00\n      dup1\n      returndatacopy\n      revert(0x00, returndatasize)\n    tag_109:\n      pop\n      pop\n      pop\n      pop\n      mload(0x40)\n      returndatasize\n      not(0x1f)\n      0x1f\n      dup3\n      add\n      and\n      dup3\n      add\n      dup1\n      0x40\n      mstore\n      pop\n      dup2\n      add\n      swap1\n      tag_110\n      swap2\n      swap1\n      tag_111\n      jump\t// in\n    tag_110:\n        /* \"contracts/nftMarket.sol\":2152:2184  uint balance = bank.getBalance() */\n      swap1\n      pop\n        /* \"contracts/nftMarket.sol\":2194:2198  bank */\n      0x05\n      0x00\n      swap1\n      sload\n      swap1\n      0x0100\n      exp\n      swap1\n      div\n      0xffffffffffffffffffffffffffffffffffffffff\n      and\n        /* \"contracts/nftMarket.sol\":2194:2207  bank.withdraw */\n      0xffffffffffffffffffffffffffffffffffffffff\n      and\n      0x2e1a7d4d\n        /* \"contracts/nftMarket.sol\":2208:2215  balance */\n      dup3\n        /* \"contracts/nftMarket.sol\":2194:2216  bank.withdraw(balance) */\n      mload(0x40)\n      dup3\n      0xffffffff\n      and\n      0xe0\n      shl\n      dup2\n      mstore\n      0x04\n      add\n      tag_112\n      swap2\n      swap1\n      tag_23\n      jump\t// in\n    tag_112:\n      0x00\n      mload(0x40)\n      dup1\n      dup4\n      sub\n      dup2\n      0x00\n      dup8\n      dup1\n      extcodesize\n      iszero\n      dup1\n      iszero\n      tag_113\n      jumpi\n      0x00\n      dup1\n      revert\n    tag_113:\n      pop\n      gas\n      call\n      iszero\n      dup1\n      iszero\n      tag_115\n      jumpi\n      returndatasize\n      0x00\n      dup1\n      returndatacopy\n      revert(0x00, returndatasize)\n    tag_115:\n      pop\n      pop\n      pop\n      pop\n        /* \"contracts/nftMarket.sol\":2142:2223  {... */\n      pop\n        /* \"contracts/nftMarket.sol\":2096:2223  function withdrawFromBank() external onlyOwner{... */\n      jump\t// out\n        /* \"#utility.yul\":7:142   */\n    tag_116:\n        /* \"#utility.yul\":95:101   */\n      0x00\n        /* \"#utility.yul\":129:134   */\n      dup2\n        /* \"#utility.yul\":123:135   */\n      mload\n        /* \"#utility.yul\":113:135   */\n      swap1\n      pop\n        /* \"#utility.yul\":7:142   */\n      swap2\n      swap1\n      pop\n      jump\t// out\n        /* \"#utility.yul\":148:353   */\n    tag_117:\n        /* \"#utility.yul\":268:279   */\n      0x00\n        /* \"#utility.yul\":302:308   */\n      dup3\n        /* \"#utility.yul\":297:300   */\n      dup3\n        /* \"#utility.yul\":290:309   */\n      mstore\n        /* \"#utility.yul\":342:346   */\n      0x20\n        /* \"#utility.yul\":337:340   */\n      dup3\n        /* \"#utility.yul\":333:347   */\n      add\n        /* \"#utility.yul\":318:347   */\n      swap1\n      pop\n        /* \"#utility.yul\":148:353   */\n      swap3\n      swap2\n      pop\n      pop\n      jump\t// out\n        /* \"#utility.yul\":359:512   */\n    tag_118:\n        /* \"#utility.yul\":447:451   */\n      0x00\n        /* \"#utility.yul\":470:473   */\n      dup2\n        /* \"#utility.yul\":462:473   */\n      swap1\n      pop\n        /* \"#utility.yul\":500:504   */\n      0x20\n        /* \"#utility.yul\":495:498   */\n      dup3\n        /* \"#utility.yul\":491:505   */\n      add\n        /* \"#utility.yul\":483:505   */\n      swap1\n      pop\n        /* \"#utility.yul\":359:512   */\n      swap2\n      swap1\n      pop\n      jump\t// out\n        /* \"#utility.yul\":518:595   */\n    tag_119:\n        /* \"#utility.yul\":555:562   */\n      0x00\n        /* \"#utility.yul\":584:589   */\n      dup2\n        /* \"#utility.yul\":573:589   */\n      swap1\n      pop\n        /* \"#utility.yul\":518:595   */\n      swap2\n      swap1\n      pop\n      jump\t// out\n        /* \"#utility.yul\":601:709   */\n    tag_120:\n        /* \"#utility.yul\":678:702   */\n      tag_178\n        /* \"#utility.yul\":696:701   */\n      dup2\n        /* \"#utility.yul\":678:702   */\n      tag_119\n      jump\t// in\n    tag_178:\n        /* \"#utility.yul\":673:676   */\n      dup3\n        /* \"#utility.yul\":666:703   */\n      mstore\n        /* \"#utility.yul\":601:709   */\n      pop\n      pop\n      jump\t// out\n        /* \"#utility.yul\":715:814   */\n    tag_121:\n        /* \"#utility.yul\":767:773   */\n      0x00\n        /* \"#utility.yul\":801:806   */\n      dup2\n        /* \"#utility.yul\":795:807   */\n      mload\n        /* \"#utility.yul\":785:807   */\n      swap1\n      pop\n        /* \"#utility.yul\":715:814   */\n      swap2\n      swap1\n      pop\n      jump\t// out\n        /* \"#utility.yul\":820:979   */\n    tag_122:\n        /* \"#utility.yul\":894:905   */\n      0x00\n        /* \"#utility.yul\":928:934   */\n      dup3\n        /* \"#utility.yul\":923:926   */\n      dup3\n        /* \"#utility.yul\":916:935   */\n      mstore\n        /* \"#utility.yul\":968:972   */\n      0x20\n        /* \"#utility.yul\":963:966   */\n      dup3\n        /* \"#utility.yul\":959:973   */\n      add\n        /* \"#utility.yul\":944:973   */\n      swap1\n      pop\n        /* \"#utility.yul\":820:979   */\n      swap3\n      swap2\n      pop\n      pop\n      jump\t// out\n        /* \"#utility.yul\":985:1292   */\n    tag_123:\n        /* \"#utility.yul\":1053:1054   */\n      0x00\n        /* \"#utility.yul\":1063:1176   */\n    tag_182:\n        /* \"#utility.yul\":1077:1083   */\n      dup4\n        /* \"#utility.yul\":1074:1075   */\n      dup2\n        /* \"#utility.yul\":1071:1084   */\n      lt\n        /* \"#utility.yul\":1063:1176   */\n      iszero\n      tag_184\n      jumpi\n        /* \"#utility.yul\":1162:1163   */\n      dup1\n        /* \"#utility.yul\":1157:1160   */\n      dup3\n        /* \"#utility.yul\":1153:1164   */\n      add\n        /* \"#utility.yul\":1147:1165   */\n      mload\n        /* \"#utility.yul\":1143:1144   */\n      dup2\n        /* \"#utility.yul\":1138:1141   */\n      dup5\n        /* \"#utility.yul\":1134:1145   */\n      add\n        /* \"#utility.yul\":1127:1166   */\n      mstore\n        /* \"#utility.yul\":1099:1101   */\n      0x20\n        /* \"#utility.yul\":1096:1097   */\n      dup2\n        /* \"#utility.yul\":1092:1102   */\n      add\n        /* \"#utility.yul\":1087:1102   */\n      swap1\n      pop\n        /* \"#utility.yul\":1063:1176   */\n      jump(tag_182)\n    tag_184:\n        /* \"#utility.yul\":1194:1200   */\n      dup4\n        /* \"#utility.yul\":1191:1192   */\n      dup2\n        /* \"#utility.yul\":1188:1201   */\n      gt\n        /* \"#utility.yul\":1185:1286   */\n      iszero\n      tag_185\n      jumpi\n        /* \"#utility.yul\":1274:1275   */\n      0x00\n        /* \"#utility.yul\":1265:1271   */\n      dup5\n        /* \"#utility.yul\":1260:1263   */\n      dup5\n        /* \"#utility.yul\":1256:1272   */\n      add\n        /* \"#utility.yul\":1249:1276   */\n      mstore\n        /* \"#utility.yul\":1185:1286   */\n    tag_185:\n        /* \"#utility.yul\":1034:1292   */\n      pop\n        /* \"#utility.yul\":985:1292   */\n      pop\n      pop\n      pop\n      jump\t// out\n        /* \"#utility.yul\":1298:1400   */\n    tag_124:\n        /* \"#utility.yul\":1339:1345   */\n      0x00\n        /* \"#utility.yul\":1390:1392   */\n      0x1f\n        /* \"#utility.yul\":1386:1393   */\n      not\n        /* \"#utility.yul\":1381:1383   */\n      0x1f\n        /* \"#utility.yul\":1374:1379   */\n      dup4\n        /* \"#utility.yul\":1370:1384   */\n      add\n        /* \"#utility.yul\":1366:1394   */\n      and\n        /* \"#utility.yul\":1356:1394   */\n      swap1\n      pop\n        /* \"#utility.yul\":1298:1400   */\n      swap2\n      swap1\n      pop\n      jump\t// out\n        /* \"#utility.yul\":1406:1750   */\n    tag_125:\n        /* \"#utility.yul\":1484:1487   */\n      0x00\n        /* \"#utility.yul\":1512:1551   */\n      tag_188\n        /* \"#utility.yul\":1545:1550   */\n      dup3\n        /* \"#utility.yul\":1512:1551   */\n      tag_121\n      jump\t// in\n    tag_188:\n        /* \"#utility.yul\":1567:1628   */\n      tag_189\n        /* \"#utility.yul\":1621:1627   */\n      dup2\n        /* \"#utility.yul\":1616:1619   */\n      dup6\n        /* \"#utility.yul\":1567:1628   */\n      tag_122\n      jump\t// in\n    tag_189:\n        /* \"#utility.yul\":1560:1628   */\n      swap4\n      pop\n        /* \"#utility.yul\":1637:1689   */\n      tag_190\n        /* \"#utility.yul\":1682:1688   */\n      dup2\n        /* \"#utility.yul\":1677:1680   */\n      dup6\n        /* \"#utility.yul\":1670:1674   */\n      0x20\n        /* \"#utility.yul\":1663:1668   */\n      dup7\n        /* \"#utility.yul\":1659:1675   */\n      add\n        /* \"#utility.yul\":1637:1689   */\n      tag_123\n      jump\t// in\n    tag_190:\n        /* \"#utility.yul\":1714:1743   */\n      tag_191\n        /* \"#utility.yul\":1736:1742   */\n      dup2\n        /* \"#utility.yul\":1714:1743   */\n      tag_124\n      jump\t// in\n    tag_191:\n        /* \"#utility.yul\":1709:1712   */\n      dup5\n        /* \"#utility.yul\":1705:1744   */\n      add\n        /* \"#utility.yul\":1698:1744   */\n      swap2\n      pop\n        /* \"#utility.yul\":1488:1750   */\n      pop\n        /* \"#utility.yul\":1406:1750   */\n      swap3\n      swap2\n      pop\n      pop\n      jump\t// out\n        /* \"#utility.yul\":1756:1882   */\n    tag_126:\n        /* \"#utility.yul\":1793:1800   */\n      0x00\n        /* \"#utility.yul\":1833:1875   */\n      0xffffffffffffffffffffffffffffffffffffffff\n        /* \"#utility.yul\":1826:1831   */\n      dup3\n        /* \"#utility.yul\":1822:1876   */\n      and\n        /* \"#utility.yul\":1811:1876   */\n      swap1\n      pop\n        /* \"#utility.yul\":1756:1882   */\n      swap2\n      swap1\n      pop\n      jump\t// out\n        /* \"#utility.yul\":1888:1984   */\n    tag_127:\n        /* \"#utility.yul\":1925:1932   */\n      0x00\n        /* \"#utility.yul\":1954:1978   */\n      tag_194\n        /* \"#utility.yul\":1972:1977   */\n      dup3\n        /* \"#utility.yul\":1954:1978   */\n      tag_126\n      jump\t// in\n    tag_194:\n        /* \"#utility.yul\":1943:1978   */\n      swap1\n      pop\n        /* \"#utility.yul\":1888:1984   */\n      swap2\n      swap1\n      pop\n      jump\t// out\n        /* \"#utility.yul\":1990:2098   */\n    tag_128:\n        /* \"#utility.yul\":2067:2091   */\n      tag_196\n        /* \"#utility.yul\":2085:2090   */\n      dup2\n        /* \"#utility.yul\":2067:2091   */\n      tag_127\n      jump\t// in\n    tag_196:\n        /* \"#utility.yul\":2062:2065   */\n      dup3\n        /* \"#utility.yul\":2055:2092   */\n      mstore\n        /* \"#utility.yul\":1990:2098   */\n      pop\n      pop\n      jump\t// out\n        /* \"#utility.yul\":2160:2921   */\n    tag_129:\n        /* \"#utility.yul\":2261:2264   */\n      0x00\n        /* \"#utility.yul\":2297:2301   */\n      0x60\n        /* \"#utility.yul\":2292:2295   */\n      dup4\n        /* \"#utility.yul\":2288:2302   */\n      add\n        /* \"#utility.yul\":2382:2386   */\n      0x00\n        /* \"#utility.yul\":2375:2380   */\n      dup4\n        /* \"#utility.yul\":2371:2387   */\n      add\n        /* \"#utility.yul\":2365:2388   */\n      mload\n        /* \"#utility.yul\":2401:2464   */\n      tag_198\n        /* \"#utility.yul\":2458:2462   */\n      0x00\n        /* \"#utility.yul\":2453:2456   */\n      dup7\n        /* \"#utility.yul\":2449:2463   */\n      add\n        /* \"#utility.yul\":2435:2447   */\n      dup3\n        /* \"#utility.yul\":2401:2464   */\n      tag_120\n      jump\t// in\n    tag_198:\n        /* \"#utility.yul\":2312:2474   */\n      pop\n        /* \"#utility.yul\":2556:2560   */\n      0x20\n        /* \"#utility.yul\":2549:2554   */\n      dup4\n        /* \"#utility.yul\":2545:2561   */\n      add\n        /* \"#utility.yul\":2539:2562   */\n      mload\n        /* \"#utility.yul\":2609:2612   */\n      dup5\n        /* \"#utility.yul\":2603:2607   */\n      dup3\n        /* \"#utility.yul\":2599:2613   */\n      sub\n        /* \"#utility.yul\":2592:2596   */\n      0x20\n        /* \"#utility.yul\":2587:2590   */\n      dup7\n        /* \"#utility.yul\":2583:2597   */\n      add\n        /* \"#utility.yul\":2576:2614   */\n      mstore\n        /* \"#utility.yul\":2635:2708   */\n      tag_199\n        /* \"#utility.yul\":2703:2707   */\n      dup3\n        /* \"#utility.yul\":2689:2701   */\n      dup3\n        /* \"#utility.yul\":2635:2708   */\n      tag_125\n      jump\t// in\n    tag_199:\n        /* \"#utility.yul\":2627:2708   */\n      swap2\n      pop\n        /* \"#utility.yul\":2484:2719   */\n      pop\n        /* \"#utility.yul\":2802:2806   */\n      0x40\n        /* \"#utility.yul\":2795:2800   */\n      dup4\n        /* \"#utility.yul\":2791:2807   */\n      add\n        /* \"#utility.yul\":2785:2808   */\n      mload\n        /* \"#utility.yul\":2821:2884   */\n      tag_200\n        /* \"#utility.yul\":2878:2882   */\n      0x40\n        /* \"#utility.yul\":2873:2876   */\n      dup7\n        /* \"#utility.yul\":2869:2883   */\n      add\n        /* \"#utility.yul\":2855:2867   */\n      dup3\n        /* \"#utility.yul\":2821:2884   */\n      tag_128\n      jump\t// in\n    tag_200:\n        /* \"#utility.yul\":2729:2894   */\n      pop\n        /* \"#utility.yul\":2911:2915   */\n      dup1\n        /* \"#utility.yul\":2904:2915   */\n      swap2\n      pop\n        /* \"#utility.yul\":2266:2921   */\n      pop\n        /* \"#utility.yul\":2160:2921   */\n      swap3\n      swap2\n      pop\n      pop\n      jump\t// out\n        /* \"#utility.yul\":2927:3167   */\n    tag_130:\n        /* \"#utility.yul\":3038:3048   */\n      0x00\n        /* \"#utility.yul\":3073:3161   */\n      tag_202\n        /* \"#utility.yul\":3157:3160   */\n      dup4\n        /* \"#utility.yul\":3149:3155   */\n      dup4\n        /* \"#utility.yul\":3073:3161   */\n      tag_129\n      jump\t// in\n    tag_202:\n        /* \"#utility.yul\":3059:3161   */\n      swap1\n      pop\n        /* \"#utility.yul\":2927:3167   */\n      swap3\n      swap2\n      pop\n      pop\n      jump\t// out\n        /* \"#utility.yul\":3173:3307   */\n    tag_131:\n        /* \"#utility.yul\":3264:3268   */\n      0x00\n        /* \"#utility.yul\":3296:3300   */\n      0x20\n        /* \"#utility.yul\":3291:3294   */\n      dup3\n        /* \"#utility.yul\":3287:3301   */\n      add\n        /* \"#utility.yul\":3279:3301   */\n      swap1\n      pop\n        /* \"#utility.yul\":3173:3307   */\n      swap2\n      swap1\n      pop\n      jump\t// out\n        /* \"#utility.yul\":3373:4452   */\n    tag_132:\n        /* \"#utility.yul\":3534:3537   */\n      0x00\n        /* \"#utility.yul\":3563:3638   */\n      tag_205\n        /* \"#utility.yul\":3632:3637   */\n      dup3\n        /* \"#utility.yul\":3563:3638   */\n      tag_116\n      jump\t// in\n    tag_205:\n        /* \"#utility.yul\":3654:3761   */\n      tag_206\n        /* \"#utility.yul\":3754:3760   */\n      dup2\n        /* \"#utility.yul\":3749:3752   */\n      dup6\n        /* \"#utility.yul\":3654:3761   */\n      tag_117\n      jump\t// in\n    tag_206:\n        /* \"#utility.yul\":3647:3761   */\n      swap4\n      pop\n        /* \"#utility.yul\":3787:3790   */\n      dup4\n        /* \"#utility.yul\":3832:3836   */\n      0x20\n        /* \"#utility.yul\":3824:3830   */\n      dup3\n        /* \"#utility.yul\":3820:3837   */\n      mul\n        /* \"#utility.yul\":3815:3818   */\n      dup6\n        /* \"#utility.yul\":3811:3838   */\n      add\n        /* \"#utility.yul\":3862:3939   */\n      tag_207\n        /* \"#utility.yul\":3933:3938   */\n      dup6\n        /* \"#utility.yul\":3862:3939   */\n      tag_118\n      jump\t// in\n    tag_207:\n        /* \"#utility.yul\":3962:3969   */\n      dup1\n        /* \"#utility.yul\":3993:3994   */\n      0x00\n        /* \"#utility.yul\":3978:4407   */\n    tag_208:\n        /* \"#utility.yul\":4003:4009   */\n      dup6\n        /* \"#utility.yul\":4000:4001   */\n      dup2\n        /* \"#utility.yul\":3997:4010   */\n      lt\n        /* \"#utility.yul\":3978:4407   */\n      iszero\n      tag_210\n      jumpi\n        /* \"#utility.yul\":4074:4083   */\n      dup5\n        /* \"#utility.yul\":4068:4072   */\n      dup5\n        /* \"#utility.yul\":4064:4084   */\n      sub\n        /* \"#utility.yul\":4059:4062   */\n      dup10\n        /* \"#utility.yul\":4052:4085   */\n      mstore\n        /* \"#utility.yul\":4125:4131   */\n      dup2\n        /* \"#utility.yul\":4119:4132   */\n      mload\n        /* \"#utility.yul\":4153:4259   */\n      tag_211\n        /* \"#utility.yul\":4254:4258   */\n      dup6\n        /* \"#utility.yul\":4239:4252   */\n      dup3\n        /* \"#utility.yul\":4153:4259   */\n      tag_130\n      jump\t// in\n    tag_211:\n        /* \"#utility.yul\":4145:4259   */\n      swap5\n      pop\n        /* \"#utility.yul\":4282:4363   */\n      tag_212\n        /* \"#utility.yul\":4356:4362   */\n      dup4\n        /* \"#utility.yul\":4282:4363   */\n      tag_131\n      jump\t// in\n    tag_212:\n        /* \"#utility.yul\":4272:4363   */\n      swap3\n      pop\n        /* \"#utility.yul\":4392:4396   */\n      0x20\n        /* \"#utility.yul\":4387:4390   */\n      dup11\n        /* \"#utility.yul\":4383:4397   */\n      add\n        /* \"#utility.yul\":4376:4397   */\n      swap10\n      pop\n        /* \"#utility.yul\":4038:4407   */\n      pop\n        /* \"#utility.yul\":4025:4026   */\n      0x01\n        /* \"#utility.yul\":4022:4023   */\n      dup2\n        /* \"#utility.yul\":4018:4027   */\n      add\n        /* \"#utility.yul\":4013:4027   */\n      swap1\n      pop\n        /* \"#utility.yul\":3978:4407   */\n      jump(tag_208)\n    tag_210:\n        /* \"#utility.yul\":3982:3996   */\n      pop\n        /* \"#utility.yul\":4423:4427   */\n      dup3\n        /* \"#utility.yul\":4416:4427   */\n      swap8\n      pop\n        /* \"#utility.yul\":4443:4446   */\n      dup8\n        /* \"#utility.yul\":4436:4446   */\n      swap6\n      pop\n        /* \"#utility.yul\":3539:4452   */\n      pop\n      pop\n      pop\n      pop\n      pop\n        /* \"#utility.yul\":3373:4452   */\n      swap3\n      swap2\n      pop\n      pop\n      jump\t// out\n        /* \"#utility.yul\":4458:4915   */\n    tag_18:\n        /* \"#utility.yul\":4643:4647   */\n      0x00\n        /* \"#utility.yul\":4681:4683   */\n      0x20\n        /* \"#utility.yul\":4670:4679   */\n      dup3\n        /* \"#utility.yul\":4666:4684   */\n      add\n        /* \"#utility.yul\":4658:4684   */\n      swap1\n      pop\n        /* \"#utility.yul\":4730:4739   */\n      dup2\n        /* \"#utility.yul\":4724:4728   */\n      dup2\n        /* \"#utility.yul\":4720:4740   */\n      sub\n        /* \"#utility.yul\":4716:4717   */\n      0x00\n        /* \"#utility.yul\":4705:4714   */\n      dup4\n        /* \"#utility.yul\":4701:4718   */\n      add\n        /* \"#utility.yul\":4694:4741   */\n      mstore\n        /* \"#utility.yul\":4758:4908   */\n      tag_214\n        /* \"#utility.yul\":4903:4907   */\n      dup2\n        /* \"#utility.yul\":4894:4900   */\n      dup5\n        /* \"#utility.yul\":4758:4908   */\n      tag_132\n      jump\t// in\n    tag_214:\n        /* \"#utility.yul\":4750:4908   */\n      swap1\n      pop\n        /* \"#utility.yul\":4458:4915   */\n      swap3\n      swap2\n      pop\n      pop\n      jump\t// out\n        /* \"#utility.yul\":4921:5039   */\n    tag_133:\n        /* \"#utility.yul\":5008:5032   */\n      tag_216\n        /* \"#utility.yul\":5026:5031   */\n      dup2\n        /* \"#utility.yul\":5008:5032   */\n      tag_119\n      jump\t// in\n    tag_216:\n        /* \"#utility.yul\":5003:5006   */\n      dup3\n        /* \"#utility.yul\":4996:5033   */\n      mstore\n        /* \"#utility.yul\":4921:5039   */\n      pop\n      pop\n      jump\t// out\n        /* \"#utility.yul\":5045:5267   */\n    tag_23:\n        /* \"#utility.yul\":5138:5142   */\n      0x00\n        /* \"#utility.yul\":5176:5178   */\n      0x20\n        /* \"#utility.yul\":5165:5174   */\n      dup3\n        /* \"#utility.yul\":5161:5179   */\n      add\n        /* \"#utility.yul\":5153:5179   */\n      swap1\n      pop\n        /* \"#utility.yul\":5189:5260   */\n      tag_218\n        /* \"#utility.yul\":5257:5258   */\n      0x00\n        /* \"#utility.yul\":5246:5255   */\n      dup4\n        /* \"#utility.yul\":5242:5259   */\n      add\n        /* \"#utility.yul\":5233:5239   */\n      dup5\n        /* \"#utility.yul\":5189:5260   */\n      tag_133\n      jump\t// in\n    tag_218:\n        /* \"#utility.yul\":5045:5267   */\n      swap3\n      swap2\n      pop\n      pop\n      jump\t// out\n        /* \"#utility.yul\":5273:5348   */\n    tag_134:\n        /* \"#utility.yul\":5306:5312   */\n      0x00\n        /* \"#utility.yul\":5339:5341   */\n      0x40\n        /* \"#utility.yul\":5333:5342   */\n      mload\n        /* \"#utility.yul\":5323:5342   */\n      swap1\n      pop\n        /* \"#utility.yul\":5273:5348   */\n      swap1\n      jump\t// out\n        /* \"#utility.yul\":5354:5471   */\n    tag_135:\n        /* \"#utility.yul\":5463:5464   */\n      0x00\n        /* \"#utility.yul\":5460:5461   */\n      dup1\n        /* \"#utility.yul\":5453:5465   */\n      revert\n        /* \"#utility.yul\":5477:5594   */\n    tag_136:\n        /* \"#utility.yul\":5586:5587   */\n      0x00\n        /* \"#utility.yul\":5583:5584   */\n      dup1\n        /* \"#utility.yul\":5576:5588   */\n      revert\n        /* \"#utility.yul\":5600:5717   */\n    tag_137:\n        /* \"#utility.yul\":5709:5710   */\n      0x00\n        /* \"#utility.yul\":5706:5707   */\n      dup1\n        /* \"#utility.yul\":5699:5711   */\n      revert\n        /* \"#utility.yul\":5723:5840   */\n    tag_138:\n        /* \"#utility.yul\":5832:5833   */\n      0x00\n        /* \"#utility.yul\":5829:5830   */\n      dup1\n        /* \"#utility.yul\":5822:5834   */\n      revert\n        /* \"#utility.yul\":5846:6026   */\n    tag_139:\n        /* \"#utility.yul\":5894:5971   */\n      0x4e487b7100000000000000000000000000000000000000000000000000000000\n        /* \"#utility.yul\":5891:5892   */\n      0x00\n        /* \"#utility.yul\":5884:5972   */\n      mstore\n        /* \"#utility.yul\":5991:5995   */\n      0x41\n        /* \"#utility.yul\":5988:5989   */\n      0x04\n        /* \"#utility.yul\":5981:5996   */\n      mstore\n        /* \"#utility.yul\":6015:6019   */\n      0x24\n        /* \"#utility.yul\":6012:6013   */\n      0x00\n        /* \"#utility.yul\":6005:6020   */\n      revert\n        /* \"#utility.yul\":6032:6313   */\n    tag_140:\n        /* \"#utility.yul\":6115:6142   */\n      tag_226\n        /* \"#utility.yul\":6137:6141   */\n      dup3\n        /* \"#utility.yul\":6115:6142   */\n      tag_124\n      jump\t// in\n    tag_226:\n        /* \"#utility.yul\":6107:6113   */\n      dup2\n        /* \"#utility.yul\":6103:6143   */\n      add\n        /* \"#utility.yul\":6245:6251   */\n      dup2\n        /* \"#utility.yul\":6233:6243   */\n      dup2\n        /* \"#utility.yul\":6230:6252   */\n      lt\n        /* \"#utility.yul\":6209:6227   */\n      0xffffffffffffffff\n        /* \"#utility.yul\":6197:6207   */\n      dup3\n        /* \"#utility.yul\":6194:6228   */\n      gt\n        /* \"#utility.yul\":6191:6253   */\n      or\n        /* \"#utility.yul\":6188:6276   */\n      iszero\n      tag_227\n      jumpi\n        /* \"#utility.yul\":6256:6274   */\n      tag_228\n      tag_139\n      jump\t// in\n    tag_228:\n        /* \"#utility.yul\":6188:6276   */\n    tag_227:\n        /* \"#utility.yul\":6296:6306   */\n      dup1\n        /* \"#utility.yul\":6292:6294   */\n      0x40\n        /* \"#utility.yul\":6285:6307   */\n      mstore\n        /* \"#utility.yul\":6075:6313   */\n      pop\n        /* \"#utility.yul\":6032:6313   */\n      pop\n      pop\n      jump\t// out\n        /* \"#utility.yul\":6319:6448   */\n    tag_141:\n        /* \"#utility.yul\":6353:6359   */\n      0x00\n        /* \"#utility.yul\":6380:6400   */\n      tag_230\n      tag_134\n      jump\t// in\n    tag_230:\n        /* \"#utility.yul\":6370:6400   */\n      swap1\n      pop\n        /* \"#utility.yul\":6409:6442   */\n      tag_231\n        /* \"#utility.yul\":6437:6441   */\n      dup3\n        /* \"#utility.yul\":6429:6435   */\n      dup3\n        /* \"#utility.yul\":6409:6442   */\n      tag_140\n      jump\t// in\n    tag_231:\n        /* \"#utility.yul\":6319:6448   */\n      swap2\n      swap1\n      pop\n      jump\t// out\n        /* \"#utility.yul\":6454:6762   */\n    tag_142:\n        /* \"#utility.yul\":6516:6520   */\n      0x00\n        /* \"#utility.yul\":6606:6624   */\n      0xffffffffffffffff\n        /* \"#utility.yul\":6598:6604   */\n      dup3\n        /* \"#utility.yul\":6595:6625   */\n      gt\n        /* \"#utility.yul\":6592:6648   */\n      iszero\n      tag_233\n      jumpi\n        /* \"#utility.yul\":6628:6646   */\n      tag_234\n      tag_139\n      jump\t// in\n    tag_234:\n        /* \"#utility.yul\":6592:6648   */\n    tag_233:\n        /* \"#utility.yul\":6666:6695   */\n      tag_235\n        /* \"#utility.yul\":6688:6694   */\n      dup3\n        /* \"#utility.yul\":6666:6695   */\n      tag_124\n      jump\t// in\n    tag_235:\n        /* \"#utility.yul\":6658:6695   */\n      swap1\n      pop\n        /* \"#utility.yul\":6750:6754   */\n      0x20\n        /* \"#utility.yul\":6744:6748   */\n      dup2\n        /* \"#utility.yul\":6740:6755   */\n      add\n        /* \"#utility.yul\":6732:6755   */\n      swap1\n      pop\n        /* \"#utility.yul\":6454:6762   */\n      swap2\n      swap1\n      pop\n      jump\t// out\n        /* \"#utility.yul\":6768:6922   */\n    tag_143:\n        /* \"#utility.yul\":6852:6858   */\n      dup3\n        /* \"#utility.yul\":6847:6850   */\n      dup2\n        /* \"#utility.yul\":6842:6845   */\n      dup4\n        /* \"#utility.yul\":6829:6859   */\n      calldatacopy\n        /* \"#utility.yul\":6914:6915   */\n      0x00\n        /* \"#utility.yul\":6905:6911   */\n      dup4\n        /* \"#utility.yul\":6900:6903   */\n      dup4\n        /* \"#utility.yul\":6896:6912   */\n      add\n        /* \"#utility.yul\":6889:6916   */\n      mstore\n        /* \"#utility.yul\":6768:6922   */\n      pop\n      pop\n      pop\n      jump\t// out\n        /* \"#utility.yul\":6928:7340   */\n    tag_144:\n        /* \"#utility.yul\":7006:7011   */\n      0x00\n        /* \"#utility.yul\":7031:7097   */\n      tag_238\n        /* \"#utility.yul\":7047:7096   */\n      tag_239\n        /* \"#utility.yul\":7089:7095   */\n      dup5\n        /* \"#utility.yul\":7047:7096   */\n      tag_142\n      jump\t// in\n    tag_239:\n        /* \"#utility.yul\":7031:7097   */\n      tag_141\n      jump\t// in\n    tag_238:\n        /* \"#utility.yul\":7022:7097   */\n      swap1\n      pop\n        /* \"#utility.yul\":7120:7126   */\n      dup3\n        /* \"#utility.yul\":7113:7118   */\n      dup2\n        /* \"#utility.yul\":7106:7127   */\n      mstore\n        /* \"#utility.yul\":7158:7162   */\n      0x20\n        /* \"#utility.yul\":7151:7156   */\n      dup2\n        /* \"#utility.yul\":7147:7163   */\n      add\n        /* \"#utility.yul\":7196:7199   */\n      dup5\n        /* \"#utility.yul\":7187:7193   */\n      dup5\n        /* \"#utility.yul\":7182:7185   */\n      dup5\n        /* \"#utility.yul\":7178:7194   */\n      add\n        /* \"#utility.yul\":7175:7200   */\n      gt\n        /* \"#utility.yul\":7172:7284   */\n      iszero\n      tag_240\n      jumpi\n        /* \"#utility.yul\":7203:7282   */\n      tag_241\n      tag_138\n      jump\t// in\n    tag_241:\n        /* \"#utility.yul\":7172:7284   */\n    tag_240:\n        /* \"#utility.yul\":7293:7334   */\n      tag_242\n        /* \"#utility.yul\":7327:7333   */\n      dup5\n        /* \"#utility.yul\":7322:7325   */\n      dup3\n        /* \"#utility.yul\":7317:7320   */\n      dup6\n        /* \"#utility.yul\":7293:7334   */\n      tag_143\n      jump\t// in\n    tag_242:\n        /* \"#utility.yul\":7012:7340   */\n      pop\n        /* \"#utility.yul\":6928:7340   */\n      swap4\n      swap3\n      pop\n      pop\n      pop\n      jump\t// out\n        /* \"#utility.yul\":7360:7700   */\n    tag_145:\n        /* \"#utility.yul\":7416:7421   */\n      0x00\n        /* \"#utility.yul\":7465:7468   */\n      dup3\n        /* \"#utility.yul\":7458:7462   */\n      0x1f\n        /* \"#utility.yul\":7450:7456   */\n      dup4\n        /* \"#utility.yul\":7446:7463   */\n      add\n        /* \"#utility.yul\":7442:7469   */\n      slt\n        /* \"#utility.yul\":7432:7554   */\n      tag_244\n      jumpi\n        /* \"#utility.yul\":7473:7552   */\n      tag_245\n      tag_137\n      jump\t// in\n    tag_245:\n        /* \"#utility.yul\":7432:7554   */\n    tag_244:\n        /* \"#utility.yul\":7590:7596   */\n      dup2\n        /* \"#utility.yul\":7577:7597   */\n      calldataload\n        /* \"#utility.yul\":7615:7694   */\n      tag_246\n        /* \"#utility.yul\":7690:7693   */\n      dup5\n        /* \"#utility.yul\":7682:7688   */\n      dup3\n        /* \"#utility.yul\":7675:7679   */\n      0x20\n        /* \"#utility.yul\":7667:7673   */\n      dup7\n        /* \"#utility.yul\":7663:7680   */\n      add\n        /* \"#utility.yul\":7615:7694   */\n      tag_144\n      jump\t// in\n    tag_246:\n        /* \"#utility.yul\":7606:7694   */\n      swap2\n      pop\n        /* \"#utility.yul\":7422:7700   */\n      pop\n        /* \"#utility.yul\":7360:7700   */\n      swap3\n      swap2\n      pop\n      pop\n      jump\t// out\n        /* \"#utility.yul\":7706:8215   */\n    tag_30:\n        /* \"#utility.yul\":7775:7781   */\n      0x00\n        /* \"#utility.yul\":7824:7826   */\n      0x20\n        /* \"#utility.yul\":7812:7821   */\n      dup3\n        /* \"#utility.yul\":7803:7810   */\n      dup5\n        /* \"#utility.yul\":7799:7822   */\n      sub\n        /* \"#utility.yul\":7795:7827   */\n      slt\n        /* \"#utility.yul\":7792:7911   */\n      iszero\n      tag_248\n      jumpi\n        /* \"#utility.yul\":7830:7909   */\n      tag_249\n      tag_135\n      jump\t// in\n    tag_249:\n        /* \"#utility.yul\":7792:7911   */\n    tag_248:\n        /* \"#utility.yul\":7978:7979   */\n      0x00\n        /* \"#utility.yul\":7967:7976   */\n      dup3\n        /* \"#utility.yul\":7963:7980   */\n      add\n        /* \"#utility.yul\":7950:7981   */\n      calldataload\n        /* \"#utility.yul\":8008:8026   */\n      0xffffffffffffffff\n        /* \"#utility.yul\":8000:8006   */\n      dup2\n        /* \"#utility.yul\":7997:8027   */\n      gt\n        /* \"#utility.yul\":7994:8111   */\n      iszero\n      tag_250\n      jumpi\n        /* \"#utility.yul\":8030:8109   */\n      tag_251\n      tag_136\n      jump\t// in\n    tag_251:\n        /* \"#utility.yul\":7994:8111   */\n    tag_250:\n        /* \"#utility.yul\":8135:8198   */\n      tag_252\n        /* \"#utility.yul\":8190:8197   */\n      dup5\n        /* \"#utility.yul\":8181:8187   */\n      dup3\n        /* \"#utility.yul\":8170:8179   */\n      dup6\n        /* \"#utility.yul\":8166:8188   */\n      add\n        /* \"#utility.yul\":8135:8198   */\n      tag_145\n      jump\t// in\n    tag_252:\n        /* \"#utility.yul\":8125:8198   */\n      swap2\n      pop\n        /* \"#utility.yul\":7921:8208   */\n      pop\n        /* \"#utility.yul\":7706:8215   */\n      swap3\n      swap2\n      pop\n      pop\n      jump\t// out\n        /* \"#utility.yul\":8221:8339   */\n    tag_146:\n        /* \"#utility.yul\":8308:8332   */\n      tag_254\n        /* \"#utility.yul\":8326:8331   */\n      dup2\n        /* \"#utility.yul\":8308:8332   */\n      tag_127\n      jump\t// in\n    tag_254:\n        /* \"#utility.yul\":8303:8306   */\n      dup3\n        /* \"#utility.yul\":8296:8333   */\n      mstore\n        /* \"#utility.yul\":8221:8339   */\n      pop\n      pop\n      jump\t// out\n        /* \"#utility.yul\":8345:8567   */\n    tag_36:\n        /* \"#utility.yul\":8438:8442   */\n      0x00\n        /* \"#utility.yul\":8476:8478   */\n      0x20\n        /* \"#utility.yul\":8465:8474   */\n      dup3\n        /* \"#utility.yul\":8461:8479   */\n      add\n        /* \"#utility.yul\":8453:8479   */\n      swap1\n      pop\n        /* \"#utility.yul\":8489:8560   */\n      tag_256\n        /* \"#utility.yul\":8557:8558   */\n      0x00\n        /* \"#utility.yul\":8546:8555   */\n      dup4\n        /* \"#utility.yul\":8542:8559   */\n      add\n        /* \"#utility.yul\":8533:8539   */\n      dup5\n        /* \"#utility.yul\":8489:8560   */\n      tag_146\n      jump\t// in\n    tag_256:\n        /* \"#utility.yul\":8345:8567   */\n      swap3\n      swap2\n      pop\n      pop\n      jump\t// out\n        /* \"#utility.yul\":8573:8695   */\n    tag_147:\n        /* \"#utility.yul\":8646:8670   */\n      tag_258\n        /* \"#utility.yul\":8664:8669   */\n      dup2\n        /* \"#utility.yul\":8646:8670   */\n      tag_119\n      jump\t// in\n    tag_258:\n        /* \"#utility.yul\":8639:8644   */\n      dup2\n        /* \"#utility.yul\":8636:8671   */\n      eq\n        /* \"#utility.yul\":8626:8689   */\n      tag_259\n      jumpi\n        /* \"#utility.yul\":8685:8686   */\n      0x00\n        /* \"#utility.yul\":8682:8683   */\n      dup1\n        /* \"#utility.yul\":8675:8687   */\n      revert\n        /* \"#utility.yul\":8626:8689   */\n    tag_259:\n        /* \"#utility.yul\":8573:8695   */\n      pop\n      jump\t// out\n        /* \"#utility.yul\":8701:8840   */\n    tag_148:\n        /* \"#utility.yul\":8747:8752   */\n      0x00\n        /* \"#utility.yul\":8785:8791   */\n      dup2\n        /* \"#utility.yul\":8772:8792   */\n      calldataload\n        /* \"#utility.yul\":8763:8792   */\n      swap1\n      pop\n        /* \"#utility.yul\":8801:8834   */\n      tag_261\n        /* \"#utility.yul\":8828:8833   */\n      dup2\n        /* \"#utility.yul\":8801:8834   */\n      tag_147\n      jump\t// in\n    tag_261:\n        /* \"#utility.yul\":8701:8840   */\n      swap3\n      swap2\n      pop\n      pop\n      jump\t// out\n        /* \"#utility.yul\":8846:9175   */\n    tag_40:\n        /* \"#utility.yul\":8905:8911   */\n      0x00\n        /* \"#utility.yul\":8954:8956   */\n      0x20\n        /* \"#utility.yul\":8942:8951   */\n      dup3\n        /* \"#utility.yul\":8933:8940   */\n      dup5\n        /* \"#utility.yul\":8929:8952   */\n      sub\n        /* \"#utility.yul\":8925:8957   */\n      slt\n        /* \"#utility.yul\":8922:9041   */\n      iszero\n      tag_263\n      jumpi\n        /* \"#utility.yul\":8960:9039   */\n      tag_264\n      tag_135\n      jump\t// in\n    tag_264:\n        /* \"#utility.yul\":8922:9041   */\n    tag_263:\n        /* \"#utility.yul\":9080:9081   */\n      0x00\n        /* \"#utility.yul\":9105:9158   */\n      tag_265\n        /* \"#utility.yul\":9150:9157   */\n      dup5\n        /* \"#utility.yul\":9141:9147   */\n      dup3\n        /* \"#utility.yul\":9130:9139   */\n      dup6\n        /* \"#utility.yul\":9126:9148   */\n      add\n        /* \"#utility.yul\":9105:9158   */\n      tag_148\n      jump\t// in\n    tag_265:\n        /* \"#utility.yul\":9095:9158   */\n      swap2\n      pop\n        /* \"#utility.yul\":9051:9168   */\n      pop\n        /* \"#utility.yul\":8846:9175   */\n      swap3\n      swap2\n      pop\n      pop\n      jump\t// out\n        /* \"#utility.yul\":9181:9350   */\n    tag_149:\n        /* \"#utility.yul\":9265:9276   */\n      0x00\n        /* \"#utility.yul\":9299:9305   */\n      dup3\n        /* \"#utility.yul\":9294:9297   */\n      dup3\n        /* \"#utility.yul\":9287:9306   */\n      mstore\n        /* \"#utility.yul\":9339:9343   */\n      0x20\n        /* \"#utility.yul\":9334:9337   */\n      dup3\n        /* \"#utility.yul\":9330:9344   */\n      add\n        /* \"#utility.yul\":9315:9344   */\n      swap1\n      pop\n        /* \"#utility.yul\":9181:9350   */\n      swap3\n      swap2\n      pop\n      pop\n      jump\t// out\n        /* \"#utility.yul\":9356:9720   */\n    tag_150:\n        /* \"#utility.yul\":9444:9447   */\n      0x00\n        /* \"#utility.yul\":9472:9511   */\n      tag_268\n        /* \"#utility.yul\":9505:9510   */\n      dup3\n        /* \"#utility.yul\":9472:9511   */\n      tag_121\n      jump\t// in\n    tag_268:\n        /* \"#utility.yul\":9527:9598   */\n      tag_269\n        /* \"#utility.yul\":9591:9597   */\n      dup2\n        /* \"#utility.yul\":9586:9589   */\n      dup6\n        /* \"#utility.yul\":9527:9598   */\n      tag_149\n      jump\t// in\n    tag_269:\n        /* \"#utility.yul\":9520:9598   */\n      swap4\n      pop\n        /* \"#utility.yul\":9607:9659   */\n      tag_270\n        /* \"#utility.yul\":9652:9658   */\n      dup2\n        /* \"#utility.yul\":9647:9650   */\n      dup6\n        /* \"#utility.yul\":9640:9644   */\n      0x20\n        /* \"#utility.yul\":9633:9638   */\n      dup7\n        /* \"#utility.yul\":9629:9645   */\n      add\n        /* \"#utility.yul\":9607:9659   */\n      tag_123\n      jump\t// in\n    tag_270:\n        /* \"#utility.yul\":9684:9713   */\n      tag_271\n        /* \"#utility.yul\":9706:9712   */\n      dup2\n        /* \"#utility.yul\":9684:9713   */\n      tag_124\n      jump\t// in\n    tag_271:\n        /* \"#utility.yul\":9679:9682   */\n      dup5\n        /* \"#utility.yul\":9675:9714   */\n      add\n        /* \"#utility.yul\":9668:9714   */\n      swap2\n      pop\n        /* \"#utility.yul\":9448:9720   */\n      pop\n        /* \"#utility.yul\":9356:9720   */\n      swap3\n      swap2\n      pop\n      pop\n      jump\t// out\n        /* \"#utility.yul\":9726:10259   */\n    tag_43:\n        /* \"#utility.yul\":9895:9899   */\n      0x00\n        /* \"#utility.yul\":9933:9935   */\n      0x60\n        /* \"#utility.yul\":9922:9931   */\n      dup3\n        /* \"#utility.yul\":9918:9936   */\n      add\n        /* \"#utility.yul\":9910:9936   */\n      swap1\n      pop\n        /* \"#utility.yul\":9946:10017   */\n      tag_273\n        /* \"#utility.yul\":10014:10015   */\n      0x00\n        /* \"#utility.yul\":10003:10012   */\n      dup4\n        /* \"#utility.yul\":9999:10016   */\n      add\n        /* \"#utility.yul\":9990:9996   */\n      dup7\n        /* \"#utility.yul\":9946:10017   */\n      tag_133\n      jump\t// in\n    tag_273:\n        /* \"#utility.yul\":10064:10073   */\n      dup2\n        /* \"#utility.yul\":10058:10062   */\n      dup2\n        /* \"#utility.yul\":10054:10074   */\n      sub\n        /* \"#utility.yul\":10049:10051   */\n      0x20\n        /* \"#utility.yul\":10038:10047   */\n      dup4\n        /* \"#utility.yul\":10034:10052   */\n      add\n        /* \"#utility.yul\":10027:10075   */\n      mstore\n        /* \"#utility.yul\":10092:10170   */\n      tag_274\n        /* \"#utility.yul\":10165:10169   */\n      dup2\n        /* \"#utility.yul\":10156:10162   */\n      dup6\n        /* \"#utility.yul\":10092:10170   */\n      tag_150\n      jump\t// in\n    tag_274:\n        /* \"#utility.yul\":10084:10170   */\n      swap1\n      pop\n        /* \"#utility.yul\":10180:10252   */\n      tag_275\n        /* \"#utility.yul\":10248:10250   */\n      0x40\n        /* \"#utility.yul\":10237:10246   */\n      dup4\n        /* \"#utility.yul\":10233:10251   */\n      add\n        /* \"#utility.yul\":10224:10230   */\n      dup5\n        /* \"#utility.yul\":10180:10252   */\n      tag_146\n      jump\t// in\n    tag_275:\n        /* \"#utility.yul\":9726:10259   */\n      swap5\n      swap4\n      pop\n      pop\n      pop\n      pop\n      jump\t// out\n        /* \"#utility.yul\":10265:10445   */\n    tag_151:\n        /* \"#utility.yul\":10313:10390   */\n      0x4e487b7100000000000000000000000000000000000000000000000000000000\n        /* \"#utility.yul\":10310:10311   */\n      0x00\n        /* \"#utility.yul\":10303:10391   */\n      mstore\n        /* \"#utility.yul\":10410:10414   */\n      0x22\n        /* \"#utility.yul\":10407:10408   */\n      0x04\n        /* \"#utility.yul\":10400:10415   */\n      mstore\n        /* \"#utility.yul\":10434:10438   */\n      0x24\n        /* \"#utility.yul\":10431:10432   */\n      0x00\n        /* \"#utility.yul\":10424:10439   */\n      revert\n        /* \"#utility.yul\":10451:10771   */\n    tag_56:\n        /* \"#utility.yul\":10495:10501   */\n      0x00\n        /* \"#utility.yul\":10532:10533   */\n      0x02\n        /* \"#utility.yul\":10526:10530   */\n      dup3\n        /* \"#utility.yul\":10522:10534   */\n      div\n        /* \"#utility.yul\":10512:10534   */\n      swap1\n      pop\n        /* \"#utility.yul\":10579:10580   */\n      0x01\n        /* \"#utility.yul\":10573:10577   */\n      dup3\n        /* \"#utility.yul\":10569:10581   */\n      and\n        /* \"#utility.yul\":10600:10618   */\n      dup1\n        /* \"#utility.yul\":10590:10671   */\n      tag_278\n      jumpi\n        /* \"#utility.yul\":10656:10660   */\n      0x7f\n        /* \"#utility.yul\":10648:10654   */\n      dup3\n        /* \"#utility.yul\":10644:10661   */\n      and\n        /* \"#utility.yul\":10634:10661   */\n      swap2\n      pop\n        /* \"#utility.yul\":10590:10671   */\n    tag_278:\n        /* \"#utility.yul\":10718:10720   */\n      0x20\n        /* \"#utility.yul\":10710:10716   */\n      dup3\n        /* \"#utility.yul\":10707:10721   */\n      lt\n        /* \"#utility.yul\":10687:10705   */\n      dup2\n        /* \"#utility.yul\":10684:10722   */\n      sub\n        /* \"#utility.yul\":10681:10765   */\n      tag_279\n      jumpi\n        /* \"#utility.yul\":10737:10755   */\n      tag_280\n      tag_151\n      jump\t// in\n    tag_280:\n        /* \"#utility.yul\":10681:10765   */\n    tag_279:\n        /* \"#utility.yul\":10502:10771   */\n      pop\n        /* \"#utility.yul\":10451:10771   */\n      swap2\n      swap1\n      pop\n      jump\t// out\n        /* \"#utility.yul\":10777:10944   */\n    tag_152:\n        /* \"#utility.yul\":10917:10936   */\n      0x596f7520417265204e6f74204f776e6572000000000000000000000000000000\n        /* \"#utility.yul\":10913:10914   */\n      0x00\n        /* \"#utility.yul\":10905:10911   */\n      dup3\n        /* \"#utility.yul\":10901:10915   */\n      add\n        /* \"#utility.yul\":10894:10937   */\n      mstore\n        /* \"#utility.yul\":10777:10944   */\n      pop\n      jump\t// out\n        /* \"#utility.yul\":10950:11316   */\n    tag_153:\n        /* \"#utility.yul\":11092:11095   */\n      0x00\n        /* \"#utility.yul\":11113:11180   */\n      tag_283\n        /* \"#utility.yul\":11177:11179   */\n      0x11\n        /* \"#utility.yul\":11172:11175   */\n      dup4\n        /* \"#utility.yul\":11113:11180   */\n      tag_149\n      jump\t// in\n    tag_283:\n        /* \"#utility.yul\":11106:11180   */\n      swap2\n      pop\n        /* \"#utility.yul\":11189:11282   */\n      tag_284\n        /* \"#utility.yul\":11278:11281   */\n      dup3\n        /* \"#utility.yul\":11189:11282   */\n      tag_152\n      jump\t// in\n    tag_284:\n        /* \"#utility.yul\":11307:11309   */\n      0x20\n        /* \"#utility.yul\":11302:11305   */\n      dup3\n        /* \"#utility.yul\":11298:11310   */\n      add\n        /* \"#utility.yul\":11291:11310   */\n      swap1\n      pop\n        /* \"#utility.yul\":10950:11316   */\n      swap2\n      swap1\n      pop\n      jump\t// out\n        /* \"#utility.yul\":11322:11741   */\n    tag_64:\n        /* \"#utility.yul\":11488:11492   */\n      0x00\n        /* \"#utility.yul\":11526:11528   */\n      0x20\n        /* \"#utility.yul\":11515:11524   */\n      dup3\n        /* \"#utility.yul\":11511:11529   */\n      add\n        /* \"#utility.yul\":11503:11529   */\n      swap1\n      pop\n        /* \"#utility.yul\":11575:11584   */\n      dup2\n        /* \"#utility.yul\":11569:11573   */\n      dup2\n        /* \"#utility.yul\":11565:11585   */\n      sub\n        /* \"#utility.yul\":11561:11562   */\n      0x00\n        /* \"#utility.yul\":11550:11559   */\n      dup4\n        /* \"#utility.yul\":11546:11563   */\n      add\n        /* \"#utility.yul\":11539:11586   */\n      mstore\n        /* \"#utility.yul\":11603:11734   */\n      tag_286\n        /* \"#utility.yul\":11729:11733   */\n      dup2\n        /* \"#utility.yul\":11603:11734   */\n      tag_153\n      jump\t// in\n    tag_286:\n        /* \"#utility.yul\":11595:11734   */\n      swap1\n      pop\n        /* \"#utility.yul\":11322:11741   */\n      swap2\n      swap1\n      pop\n      jump\t// out\n        /* \"#utility.yul\":11747:11888   */\n    tag_154:\n        /* \"#utility.yul\":11796:11800   */\n      0x00\n        /* \"#utility.yul\":11819:11822   */\n      dup2\n        /* \"#utility.yul\":11811:11822   */\n      swap1\n      pop\n        /* \"#utility.yul\":11842:11845   */\n      dup2\n        /* \"#utility.yul\":11839:11840   */\n      0x00\n        /* \"#utility.yul\":11832:11846   */\n      mstore\n        /* \"#utility.yul\":11876:11880   */\n      0x20\n        /* \"#utility.yul\":11873:11874   */\n      0x00\n        /* \"#utility.yul\":11863:11881   */\n      keccak256\n        /* \"#utility.yul\":11855:11881   */\n      swap1\n      pop\n        /* \"#utility.yul\":11747:11888   */\n      swap2\n      swap1\n      pop\n      jump\t// out\n        /* \"#utility.yul\":11894:11987   */\n    tag_155:\n        /* \"#utility.yul\":11931:11937   */\n      0x00\n        /* \"#utility.yul\":11978:11980   */\n      0x20\n        /* \"#utility.yul\":11973:11975   */\n      0x1f\n        /* \"#utility.yul\":11966:11971   */\n      dup4\n        /* \"#utility.yul\":11962:11976   */\n      add\n        /* \"#utility.yul\":11958:11981   */\n      div\n        /* \"#utility.yul\":11948:11981   */\n      swap1\n      pop\n        /* \"#utility.yul\":11894:11987   */\n      swap2\n      swap1\n      pop\n      jump\t// out\n        /* \"#utility.yul\":11993:12100   */\n    tag_156:\n        /* \"#utility.yul\":12037:12045   */\n      0x00\n        /* \"#utility.yul\":12087:12092   */\n      dup3\n        /* \"#utility.yul\":12081:12085   */\n      dup3\n        /* \"#utility.yul\":12077:12093   */\n      shl\n        /* \"#utility.yul\":12056:12093   */\n      swap1\n      pop\n        /* \"#utility.yul\":11993:12100   */\n      swap3\n      swap2\n      pop\n      pop\n      jump\t// out\n        /* \"#utility.yul\":12106:12499   */\n    tag_157:\n        /* \"#utility.yul\":12175:12181   */\n      0x00\n        /* \"#utility.yul\":12225:12226   */\n      0x08\n        /* \"#utility.yul\":12213:12223   */\n      dup4\n        /* \"#utility.yul\":12209:12227   */\n      mul\n        /* \"#utility.yul\":12248:12345   */\n      tag_291\n        /* \"#utility.yul\":12278:12344   */\n      0xffffffffffffffffffffffffffffffffffffffffffffffffffffffffffffffff\n        /* \"#utility.yul\":12267:12276   */\n      dup3\n        /* \"#utility.yul\":12248:12345   */\n      tag_156\n      jump\t// in\n    tag_291:\n        /* \"#utility.yul\":12366:12405   */\n      tag_292\n        /* \"#utility.yul\":12396:12404   */\n      dup7\n        /* \"#utility.yul\":12385:12394   */\n      dup4\n        /* \"#utility.yul\":12366:12405   */\n      tag_156\n      jump\t// in\n    tag_292:\n        /* \"#utility.yul\":12354:12405   */\n      swap6\n      pop\n        /* \"#utility.yul\":12438:12442   */\n      dup1\n        /* \"#utility.yul\":12434:12443   */\n      not\n        /* \"#utility.yul\":12427:12432   */\n      dup5\n        /* \"#utility.yul\":12423:12444   */\n      and\n        /* \"#utility.yul\":12414:12444   */\n      swap4\n      pop\n        /* \"#utility.yul\":12487:12491   */\n      dup1\n        /* \"#utility.yul\":12477:12485   */\n      dup7\n        /* \"#utility.yul\":12473:12492   */\n      and\n        /* \"#utility.yul\":12466:12471   */\n      dup5\n        /* \"#utility.yul\":12463:12493   */\n      or\n        /* \"#utility.yul\":12453:12493   */\n      swap3\n      pop\n        /* \"#utility.yul\":12182:12499   */\n      pop\n      pop\n        /* \"#utility.yul\":12106:12499   */\n      swap4\n      swap3\n      pop\n      pop\n      pop\n      jump\t// out\n        /* \"#utility.yul\":12505:12565   */\n    tag_158:\n        /* \"#utility.yul\":12533:12536   */\n      0x00\n        /* \"#utility.yul\":12554:12559   */\n      dup2\n        /* \"#utility.yul\":12547:12559   */\n      swap1\n      pop\n        /* \"#utility.yul\":12505:12565   */\n      swap2\n      swap1\n      pop\n      jump\t// out\n        /* \"#utility.yul\":12571:12713   */\n    tag_159:\n        /* \"#utility.yul\":12621:12630   */\n      0x00\n        /* \"#utility.yul\":12654:12707   */\n      tag_295\n        /* \"#utility.yul\":12672:12706   */\n      tag_296\n        /* \"#utility.yul\":12681:12705   */\n      tag_297\n        /* \"#utility.yul\":12699:12704   */\n      dup5\n        /* \"#utility.yul\":12681:12705   */\n      tag_119\n      jump\t// in\n    tag_297:\n        /* \"#utility.yul\":12672:12706   */\n      tag_158\n      jump\t// in\n    tag_296:\n        /* \"#utility.yul\":12654:12707   */\n      tag_119\n      jump\t// in\n    tag_295:\n        /* \"#utility.yul\":12641:12707   */\n      swap1\n      pop\n        /* \"#utility.yul\":12571:12713   */\n      swap2\n      swap1\n      pop\n      jump\t// out\n        /* \"#utility.yul\":12719:12794   */\n    tag_160:\n        /* \"#utility.yul\":12762:12765   */\n      0x00\n        /* \"#utility.yul\":12783:12788   */\n      dup2\n        /* \"#utility.yul\":12776:12788   */\n      swap1\n      pop\n        /* \"#utility.yul\":12719:12794   */\n      swap2\n      swap1\n      pop\n      jump\t// out\n        /* \"#utility.yul\":12800:13069   */\n    tag_161:\n        /* \"#utility.yul\":12910:12949   */\n      tag_300\n        /* \"#utility.yul\":12941:12948   */\n      dup4\n        /* \"#utility.yul\":12910:12949   */\n      tag_159\n      jump\t// in\n    tag_300:\n        /* \"#utility.yul\":12971:13062   */\n      tag_301\n        /* \"#utility.yul\":13020:13061   */\n      tag_302\n        /* \"#utility.yul\":13044:13060   */\n      dup3\n        /* \"#utility.yul\":13020:13061   */\n      tag_160\n      jump\t// in\n    tag_302:\n        /* \"#utility.yul\":13012:13018   */\n      dup5\n        /* \"#utility.yul\":13005:13009   */\n      dup5\n        /* \"#utility.yul\":12999:13010   */\n      sload\n        /* \"#utility.yul\":12971:13062   */\n      tag_157\n      jump\t// in\n    tag_301:\n        /* \"#utility.yul\":12965:12969   */\n      dup3\n        /* \"#utility.yul\":12958:13063   */\n      sstore\n        /* \"#utility.yul\":12876:13069   */\n      pop\n        /* \"#utility.yul\":12800:13069   */\n      pop\n      pop\n      pop\n      jump\t// out\n        /* \"#utility.yul\":13075:13148   */\n    tag_162:\n        /* \"#utility.yul\":13120:13123   */\n      0x00\n        /* \"#utility.yul\":13075:13148   */\n      swap1\n      jump\t// out\n        /* \"#utility.yul\":13154:13343   */\n    tag_163:\n        /* \"#utility.yul\":13231:13263   */\n      tag_305\n      tag_162\n      jump\t// in\n    tag_305:\n        /* \"#utility.yul\":13272:13337   */\n      tag_306\n        /* \"#utility.yul\":13330:13336   */\n      dup2\n        /* \"#utility.yul\":13322:13328   */\n      dup5\n        /* \"#utility.yul\":13316:13320   */\n      dup5\n        /* \"#utility.yul\":13272:13337   */\n      tag_161\n      jump\t// in\n    tag_306:\n        /* \"#utility.yul\":13207:13343   */\n      pop\n        /* \"#utility.yul\":13154:13343   */\n      pop\n      pop\n      jump\t// out\n        /* \"#utility.yul\":13349:13535   */\n    tag_164:\n        /* \"#utility.yul\":13409:13529   */\n    tag_308:\n        /* \"#utility.yul\":13426:13429   */\n      dup2\n        /* \"#utility.yul\":13419:13424   */\n      dup2\n        /* \"#utility.yul\":13416:13430   */\n      lt\n        /* \"#utility.yul\":13409:13529   */\n      iszero\n      tag_310\n      jumpi\n        /* \"#utility.yul\":13480:13519   */\n      tag_311\n        /* \"#utility.yul\":13517:13518   */\n      0x00\n        /* \"#utility.yul\":13510:13515   */\n      dup3\n        /* \"#utility.yul\":13480:13519   */\n      tag_163\n      jump\t// in\n    tag_311:\n        /* \"#utility.yul\":13453:13454   */\n      0x01\n        /* \"#utility.yul\":13446:13451   */\n      dup2\n        /* \"#utility.yul\":13442:13455   */\n      add\n        /* \"#utility.yul\":13433:13455   */\n      swap1\n      pop\n        /* \"#utility.yul\":13409:13529   */\n      jump(tag_308)\n    tag_310:\n        /* \"#utility.yul\":13349:13535   */\n      pop\n      pop\n      jump\t// out\n        /* \"#utility.yul\":13541:14084   */\n    tag_165:\n        /* \"#utility.yul\":13642:13644   */\n      0x1f\n        /* \"#utility.yul\":13637:13640   */\n      dup3\n        /* \"#utility.yul\":13634:13645   */\n      gt\n        /* \"#utility.yul\":13631:14077   */\n      iszero\n      tag_313\n      jumpi\n        /* \"#utility.yul\":13676:13714   */\n      tag_314\n        /* \"#utility.yul\":13708:13713   */\n      dup2\n        /* \"#utility.yul\":13676:13714   */\n      tag_154\n      jump\t// in\n    tag_314:\n        /* \"#utility.yul\":13760:13789   */\n      tag_315\n        /* \"#utility.yul\":13778:13788   */\n      dup5\n        /* \"#utility.yul\":13760:13789   */\n      tag_155\n      jump\t// in\n    tag_315:\n        /* \"#utility.yul\":13750:13758   */\n      dup2\n        /* \"#utility.yul\":13746:13790   */\n      add\n        /* \"#utility.yul\":13943:13945   */\n      0x20\n        /* \"#utility.yul\":13931:13941   */\n      dup6\n        /* \"#utility.yul\":13928:13946   */\n      lt\n        /* \"#utility.yul\":13925:13974   */\n      iszero\n      tag_316\n      jumpi\n        /* \"#utility.yul\":13964:13972   */\n      dup2\n        /* \"#utility.yul\":13949:13972   */\n      swap1\n      pop\n        /* \"#utility.yul\":13925:13974   */\n    tag_316:\n        /* \"#utility.yul\":13987:14067   */\n      tag_317\n        /* \"#utility.yul\":14043:14065   */\n      tag_318\n        /* \"#utility.yul\":14061:14064   */\n      dup6\n        /* \"#utility.yul\":14043:14065   */\n      tag_155\n      jump\t// in\n    tag_318:\n        /* \"#utility.yul\":14033:14041   */\n      dup4\n        /* \"#utility.yul\":14029:14066   */\n      add\n        /* \"#utility.yul\":14016:14027   */\n      dup3\n        /* \"#utility.yul\":13987:14067   */\n      tag_164\n      jump\t// in\n    tag_317:\n        /* \"#utility.yul\":13646:14077   */\n      pop\n      pop\n        /* \"#utility.yul\":13631:14077   */\n    tag_313:\n        /* \"#utility.yul\":13541:14084   */\n      pop\n      pop\n      pop\n      jump\t// out\n        /* \"#utility.yul\":14090:14207   */\n    tag_166:\n        /* \"#utility.yul\":14144:14152   */\n      0x00\n        /* \"#utility.yul\":14194:14199   */\n      dup3\n        /* \"#utility.yul\":14188:14192   */\n      dup3\n        /* \"#utility.yul\":14184:14200   */\n      shr\n        /* \"#utility.yul\":14163:14200   */\n      swap1\n      pop\n        /* \"#utility.yul\":14090:14207   */\n      swap3\n      swap2\n      pop\n      pop\n      jump\t// out\n        /* \"#utility.yul\":14213:14382   */\n    tag_167:\n        /* \"#utility.yul\":14257:14263   */\n      0x00\n        /* \"#utility.yul\":14290:14341   */\n      tag_321\n        /* \"#utility.yul\":14338:14339   */\n      0x00\n        /* \"#utility.yul\":14334:14340   */\n      not\n        /* \"#utility.yul\":14326:14331   */\n      dup5\n        /* \"#utility.yul\":14323:14324   */\n      0x08\n        /* \"#utility.yul\":14319:14332   */\n      mul\n        /* \"#utility.yul\":14290:14341   */\n      tag_166\n      jump\t// in\n    tag_321:\n        /* \"#utility.yul\":14286:14342   */\n      not\n        /* \"#utility.yul\":14371:14375   */\n      dup1\n        /* \"#utility.yul\":14365:14369   */\n      dup4\n        /* \"#utility.yul\":14361:14376   */\n      and\n        /* \"#utility.yul\":14351:14376   */\n      swap2\n      pop\n        /* \"#utility.yul\":14264:14382   */\n      pop\n        /* \"#utility.yul\":14213:14382   */\n      swap3\n      swap2\n      pop\n      pop\n      jump\t// out\n        /* \"#utility.yul\":14387:14682   */\n    tag_168:\n        /* \"#utility.yul\":14463:14467   */\n      0x00\n        /* \"#utility.yul\":14609:14638   */\n      tag_323\n        /* \"#utility.yul\":14634:14637   */\n      dup4\n        /* \"#utility.yul\":14628:14632   */\n      dup4\n        /* \"#utility.yul\":14609:14638   */\n      tag_167\n      jump\t// in\n    tag_323:\n        /* \"#utility.yul\":14601:14638   */\n      swap2\n      pop\n        /* \"#utility.yul\":14671:14674   */\n      dup3\n        /* \"#utility.yul\":14668:14669   */\n      0x02\n        /* \"#utility.yul\":14664:14675   */\n      mul\n        /* \"#utility.yul\":14658:14662   */\n      dup3\n        /* \"#utility.yul\":14655:14676   */\n      or\n        /* \"#utility.yul\":14647:14676   */\n      swap1\n      pop\n        /* \"#utility.yul\":14387:14682   */\n      swap3\n      swap2\n      pop\n      pop\n      jump\t// out\n        /* \"#utility.yul\":14687:16082   */\n    tag_78:\n        /* \"#utility.yul\":14804:14841   */\n      tag_325\n        /* \"#utility.yul\":14837:14840   */\n      dup3\n        /* \"#utility.yul\":14804:14841   */\n      tag_121\n      jump\t// in\n    tag_325:\n        /* \"#utility.yul\":14906:14924   */\n      0xffffffffffffffff\n        /* \"#utility.yul\":14898:14904   */\n      dup2\n        /* \"#utility.yul\":14895:14925   */\n      gt\n        /* \"#utility.yul\":14892:14948   */\n      iszero\n      tag_326\n      jumpi\n        /* \"#utility.yul\":14928:14946   */\n      tag_327\n      tag_139\n      jump\t// in\n    tag_327:\n        /* \"#utility.yul\":14892:14948   */\n    tag_326:\n        /* \"#utility.yul\":14972:15010   */\n      tag_328\n        /* \"#utility.yul\":15004:15008   */\n      dup3\n        /* \"#utility.yul\":14998:15009   */\n      sload\n        /* \"#utility.yul\":14972:15010   */\n      tag_56\n      jump\t// in\n    tag_328:\n        /* \"#utility.yul\":15057:15124   */\n      tag_329\n        /* \"#utility.yul\":15117:15123   */\n      dup3\n        /* \"#utility.yul\":15109:15115   */\n      dup3\n        /* \"#utility.yul\":15103:15107   */\n      dup6\n        /* \"#utility.yul\":15057:15124   */\n      tag_165\n      jump\t// in\n    tag_329:\n        /* \"#utility.yul\":15151:15152   */\n      0x00\n        /* \"#utility.yul\":15175:15179   */\n      0x20\n        /* \"#utility.yul\":15162:15179   */\n      swap1\n      pop\n        /* \"#utility.yul\":15207:15209   */\n      0x1f\n        /* \"#utility.yul\":15199:15205   */\n      dup4\n        /* \"#utility.yul\":15196:15210   */\n      gt\n        /* \"#utility.yul\":15224:15225   */\n      0x01\n        /* \"#utility.yul\":15219:15837   */\n      dup2\n      eq\n      tag_331\n      jumpi\n        /* \"#utility.yul\":15881:15882   */\n      0x00\n        /* \"#utility.yul\":15898:15904   */\n      dup5\n        /* \"#utility.yul\":15895:15972   */\n      iszero\n      tag_332\n      jumpi\n        /* \"#utility.yul\":15947:15956   */\n      dup3\n        /* \"#utility.yul\":15942:15945   */\n      dup8\n        /* \"#utility.yul\":15938:15957   */\n      add\n        /* \"#utility.yul\":15932:15958   */\n      mload\n        /* \"#utility.yul\":15923:15958   */\n      swap1\n      pop\n        /* \"#utility.yul\":15895:15972   */\n    tag_332:\n        /* \"#utility.yul\":15998:16065   */\n      tag_333\n        /* \"#utility.yul\":16058:16064   */\n      dup6\n        /* \"#utility.yul\":16051:16056   */\n      dup3\n        /* \"#utility.yul\":15998:16065   */\n      tag_168\n      jump\t// in\n    tag_333:\n        /* \"#utility.yul\":15992:15996   */\n      dup7\n        /* \"#utility.yul\":15985:16066   */\n      sstore\n        /* \"#utility.yul\":15854:16076   */\n      pop\n        /* \"#utility.yul\":15189:16076   */\n      jump(tag_330)\n        /* \"#utility.yul\":15219:15837   */\n    tag_331:\n        /* \"#utility.yul\":15271:15275   */\n      0x1f\n        /* \"#utility.yul\":15267:15276   */\n      not\n        /* \"#utility.yul\":15259:15265   */\n      dup5\n        /* \"#utility.yul\":15255:15277   */\n      and\n        /* \"#utility.yul\":15305:15342   */\n      tag_334\n        /* \"#utility.yul\":15337:15341   */\n      dup7\n        /* \"#utility.yul\":15305:15342   */\n      tag_154\n      jump\t// in\n    tag_334:\n        /* \"#utility.yul\":15364:15365   */\n      0x00\n        /* \"#utility.yul\":15378:15586   */\n    tag_335:\n        /* \"#utility.yul\":15392:15399   */\n      dup3\n        /* \"#utility.yul\":15389:15390   */\n      dup2\n        /* \"#utility.yul\":15386:15400   */\n      lt\n        /* \"#utility.yul\":15378:15586   */\n      iszero\n      tag_337\n      jumpi\n        /* \"#utility.yul\":15471:15480   */\n      dup5\n        /* \"#utility.yul\":15466:15469   */\n      dup10\n        /* \"#utility.yul\":15462:15481   */\n      add\n        /* \"#utility.yul\":15456:15482   */\n      mload\n        /* \"#utility.yul\":15448:15454   */\n      dup3\n        /* \"#utility.yul\":15441:15483   */\n      sstore\n        /* \"#utility.yul\":15522:15523   */\n      0x01\n        /* \"#utility.yul\":15514:15520   */\n      dup3\n        /* \"#utility.yul\":15510:15524   */\n      add\n        /* \"#utility.yul\":15500:15524   */\n      swap2\n      pop\n        /* \"#utility.yul\":15569:15571   */\n      0x20\n        /* \"#utility.yul\":15558:15567   */\n      dup6\n        /* \"#utility.yul\":15554:15572   */\n      add\n        /* \"#utility.yul\":15541:15572   */\n      swap5\n      pop\n        /* \"#utility.yul\":15415:15419   */\n      0x20\n        /* \"#utility.yul\":15412:15413   */\n      dup2\n        /* \"#utility.yul\":15408:15420   */\n      add\n        /* \"#utility.yul\":15403:15420   */\n      swap1\n      pop\n        /* \"#utility.yul\":15378:15586   */\n      jump(tag_335)\n    tag_337:\n        /* \"#utility.yul\":15614:15620   */\n      dup7\n        /* \"#utility.yul\":15605:15612   */\n      dup4\n        /* \"#utility.yul\":15602:15621   */\n      lt\n        /* \"#utility.yul\":15599:15778   */\n      iszero\n      tag_338\n      jumpi\n        /* \"#utility.yul\":15672:15681   */\n      dup5\n        /* \"#utility.yul\":15667:15670   */\n      dup10\n        /* \"#utility.yul\":15663:15682   */\n      add\n        /* \"#utility.yul\":15657:15683   */\n      mload\n        /* \"#utility.yul\":15715:15763   */\n      tag_339\n        /* \"#utility.yul\":15757:15761   */\n      0x1f\n        /* \"#utility.yul\":15749:15755   */\n      dup10\n        /* \"#utility.yul\":15745:15762   */\n      and\n        /* \"#utility.yul\":15734:15743   */\n      dup3\n        /* \"#utility.yul\":15715:15763   */\n      tag_167\n      jump\t// in\n    tag_339:\n        /* \"#utility.yul\":15707:15713   */\n      dup4\n        /* \"#utility.yul\":15700:15764   */\n      sstore\n        /* \"#utility.yul\":15622:15778   */\n      pop\n        /* \"#utility.yul\":15599:15778   */\n    tag_338:\n        /* \"#utility.yul\":15824:15825   */\n      0x01\n        /* \"#utility.yul\":15820:15821   */\n      0x02\n        /* \"#utility.yul\":15812:15818   */\n      dup9\n        /* \"#utility.yul\":15808:15822   */\n      mul\n        /* \"#utility.yul\":15804:15826   */\n      add\n        /* \"#utility.yul\":15798:15802   */\n      dup9\n        /* \"#utility.yul\":15791:15827   */\n      sstore\n        /* \"#utility.yul\":15226:15837   */\n      pop\n      pop\n      pop\n        /* \"#utility.yul\":15189:16076   */\n    tag_330:\n      pop\n        /* \"#utility.yul\":14779:16082   */\n      pop\n      pop\n      pop\n        /* \"#utility.yul\":14687:16082   */\n      pop\n      pop\n      jump\t// out\n        /* \"#utility.yul\":16088:16268   */\n    tag_90:\n        /* \"#utility.yul\":16136:16213   */\n      0x4e487b7100000000000000000000000000000000000000000000000000000000\n        /* \"#utility.yul\":16133:16134   */\n      0x00\n        /* \"#utility.yul\":16126:16214   */\n      mstore\n        /* \"#utility.yul\":16233:16237   */\n      0x32\n        /* \"#utility.yul\":16230:16231   */\n      0x04\n        /* \"#utility.yul\":16223:16238   */\n      mstore\n        /* \"#utility.yul\":16257:16261   */\n      0x24\n        /* \"#utility.yul\":16254:16255   */\n      0x00\n        /* \"#utility.yul\":16247:16262   */\n      revert\n        /* \"#utility.yul\":16274:16442   */\n    tag_169:\n        /* \"#utility.yul\":16414:16434   */\n      0x4b69747479206e6f7420666f722073616c650000000000000000000000000000\n        /* \"#utility.yul\":16410:16411   */\n      0x00\n        /* \"#utility.yul\":16402:16408   */\n      dup3\n        /* \"#utility.yul\":16398:16412   */\n      add\n        /* \"#utility.yul\":16391:16435   */\n      mstore\n        /* \"#utility.yul\":16274:16442   */\n      pop\n      jump\t// out\n        /* \"#utility.yul\":16448:16814   */\n    tag_170:\n        /* \"#utility.yul\":16590:16593   */\n      0x00\n        /* \"#utility.yul\":16611:16678   */\n      tag_343\n        /* \"#utility.yul\":16675:16677   */\n      0x12\n        /* \"#utility.yul\":16670:16673   */\n      dup4\n        /* \"#utility.yul\":16611:16678   */\n      tag_149\n      jump\t// in\n    tag_343:\n        /* \"#utility.yul\":16604:16678   */\n      swap2\n      pop\n        /* \"#utility.yul\":16687:16780   */\n      tag_344\n        /* \"#utility.yul\":16776:16779   */\n      dup3\n        /* \"#utility.yul\":16687:16780   */\n      tag_169\n      jump\t// in\n    tag_344:\n        /* \"#utility.yul\":16805:16807   */\n      0x20\n        /* \"#utility.yul\":16800:16803   */\n      dup3\n        /* \"#utility.yul\":16796:16808   */\n      add\n        /* \"#utility.yul\":16789:16808   */\n      swap1\n      pop\n        /* \"#utility.yul\":16448:16814   */\n      swap2\n      swap1\n      pop\n      jump\t// out\n        /* \"#utility.yul\":16820:17239   */\n    tag_94:\n        /* \"#utility.yul\":16986:16990   */\n      0x00\n        /* \"#utility.yul\":17024:17026   */\n      0x20\n        /* \"#utility.yul\":17013:17022   */\n      dup3\n        /* \"#utility.yul\":17009:17027   */\n      add\n        /* \"#utility.yul\":17001:17027   */\n      swap1\n      pop\n        /* \"#utility.yul\":17073:17082   */\n      dup2\n        /* \"#utility.yul\":17067:17071   */\n      dup2\n        /* \"#utility.yul\":17063:17083   */\n      sub\n        /* \"#utility.yul\":17059:17060   */\n      0x00\n        /* \"#utility.yul\":17048:17057   */\n      dup4\n        /* \"#utility.yul\":17044:17061   */\n      add\n        /* \"#utility.yul\":17037:17084   */\n      mstore\n        /* \"#utility.yul\":17101:17232   */\n      tag_346\n        /* \"#utility.yul\":17227:17231   */\n      dup2\n        /* \"#utility.yul\":17101:17232   */\n      tag_170\n      jump\t// in\n    tag_346:\n        /* \"#utility.yul\":17093:17232   */\n      swap1\n      pop\n        /* \"#utility.yul\":16820:17239   */\n      swap2\n      swap1\n      pop\n      jump\t// out\n        /* \"#utility.yul\":17245:17687   */\n    tag_100:\n        /* \"#utility.yul\":17394:17398   */\n      0x00\n        /* \"#utility.yul\":17432:17434   */\n      0x60\n        /* \"#utility.yul\":17421:17430   */\n      dup3\n        /* \"#utility.yul\":17417:17435   */\n      add\n        /* \"#utility.yul\":17409:17435   */\n      swap1\n      pop\n        /* \"#utility.yul\":17445:17516   */\n      tag_348\n        /* \"#utility.yul\":17513:17514   */\n      0x00\n        /* \"#utility.yul\":17502:17511   */\n      dup4\n        /* \"#utility.yul\":17498:17515   */\n      add\n        /* \"#utility.yul\":17489:17495   */\n      dup7\n        /* \"#utility.yul\":17445:17516   */\n      tag_146\n      jump\t// in\n    tag_348:\n        /* \"#utility.yul\":17526:17598   */\n      tag_349\n        /* \"#utility.yul\":17594:17596   */\n      0x20\n        /* \"#utility.yul\":17583:17592   */\n      dup4\n        /* \"#utility.yul\":17579:17597   */\n      add\n        /* \"#utility.yul\":17570:17576   */\n      dup6\n        /* \"#utility.yul\":17526:17598   */\n      tag_146\n      jump\t// in\n    tag_349:\n        /* \"#utility.yul\":17608:17680   */\n      tag_350\n        /* \"#utility.yul\":17676:17678   */\n      0x40\n        /* \"#utility.yul\":17665:17674   */\n      dup4\n        /* \"#utility.yul\":17661:17679   */\n      add\n        /* \"#utility.yul\":17652:17658   */\n      dup5\n        /* \"#utility.yul\":17608:17680   */\n      tag_133\n      jump\t// in\n    tag_350:\n        /* \"#utility.yul\":17245:17687   */\n      swap5\n      swap4\n      pop\n      pop\n      pop\n      pop\n      jump\t// out\n        /* \"#utility.yul\":17693:17836   */\n    tag_171:\n        /* \"#utility.yul\":17750:17755   */\n      0x00\n        /* \"#utility.yul\":17781:17787   */\n      dup2\n        /* \"#utility.yul\":17775:17788   */\n      mload\n        /* \"#utility.yul\":17766:17788   */\n      swap1\n      pop\n        /* \"#utility.yul\":17797:17830   */\n      tag_352\n        /* \"#utility.yul\":17824:17829   */\n      dup2\n        /* \"#utility.yul\":17797:17830   */\n      tag_147\n      jump\t// in\n    tag_352:\n        /* \"#utility.yul\":17693:17836   */\n      swap3\n      swap2\n      pop\n      pop\n      jump\t// out\n        /* \"#utility.yul\":17842:18193   */\n    tag_111:\n        /* \"#utility.yul\":17912:17918   */\n      0x00\n        /* \"#utility.yul\":17961:17963   */\n      0x20\n        /* \"#utility.yul\":17949:17958   */\n      dup3\n        /* \"#utility.yul\":17940:17947   */\n      dup5\n        /* \"#utility.yul\":17936:17959   */\n      sub\n        /* \"#utility.yul\":17932:17964   */\n      slt\n        /* \"#utility.yul\":17929:18048   */\n      iszero\n      tag_354\n      jumpi\n        /* \"#utility.yul\":17967:18046   */\n      tag_355\n      tag_135\n      jump\t// in\n    tag_355:\n        /* \"#utility.yul\":17929:18048   */\n    tag_354:\n        /* \"#utility.yul\":18087:18088   */\n      0x00\n        /* \"#utility.yul\":18112:18176   */\n      tag_356\n        /* \"#utility.yul\":18168:18175   */\n      dup5\n        /* \"#utility.yul\":18159:18165   */\n      dup3\n        /* \"#utility.yul\":18148:18157   */\n      dup6\n        /* \"#utility.yul\":18144:18166   */\n      add\n        /* \"#utility.yul\":18112:18176   */\n      tag_171\n      jump\t// in\n    tag_356:\n        /* \"#utility.yul\":18102:18176   */\n      swap2\n      pop\n        /* \"#utility.yul\":18058:18186   */\n      pop\n        /* \"#utility.yul\":17842:18193   */\n      swap3\n      swap2\n      pop\n      pop\n      jump\t// out\n\n    auxdata: 0xa26469706673582212208303edc2b0f29b80ca3c6806a9a6f07478f265126b150c5a331407d711ca108964736f6c634300080f0033\n}\n",
				"bytecode": {
					"linkReferences": {},
					"object": "6080604052678ac7230489e8000060035573d9145cce52d386f254917e481eb44e9943f39138600460006101000a81548173ffffffffffffffffffffffffffffffffffffffff021916908373ffffffffffffffffffffffffffffffffffffffff160217905550600460009054906101000a900473ffffffffffffffffffffffffffffffffffffffff16600560006101000a81548173ffffffffffffffffffffffffffffffffffffffff021916908373ffffffffffffffffffffffffffffffffffffffff1602179055503480156100d457600080fd5b50336000806101000a81548173ffffffffffffffffffffffffffffffffffffffff021916908373ffffffffffffffffffffffffffffffffffffffff160217905550611440806101246000396000f3fe60806040526004361061007f5760003560e01c8063893d20e81161004e578063893d20e8146101215780638cc51eda1461014c578063ae5310f61461018b578063be80d447146101b457610086565b80630c3fddef1461008b57806312065fe0146100b65780632d90ae94146100e157806335844dad146100f857610086565b3661008657005b600080fd5b34801561009757600080fd5b506100a06101cb565b6040516100ad9190610cc3565b60405180910390f35b3480156100c257600080fd5b506100cb61031c565b6040516100d89190610cf4565b60405180910390f35b3480156100ed57600080fd5b506100f66103b3565b005b34801561010457600080fd5b5061011f600480360381019061011a9190610e58565b61048a565b005b34801561012d57600080fd5b506101366105ec565b6040516101439190610eb0565b60405180910390f35b34801561015857600080fd5b50610173600480360381019061016e9190610ef7565b610615565b60405161018293929190610f6e565b60405180910390f35b34801561019757600080fd5b506101b260048036038101906101ad9190610ef7565b6106f7565b005b3480156101c057600080fd5b506101c961090b565b005b60606001805480602002602001604051908101604052809291908181526020016000905b8282101561031357838290600052602060002090600302016040518060600160405290816000820154815260200160018201805461022c90610fdb565b80601f016020809104026020016040519081016040528092919081815260200182805461025890610fdb565b80156102a55780601f1061027a576101008083540402835291602001916102a5565b820191906000526020600020905b81548152906001019060200180831161028857829003601f168201915b505050505081526020016002820160009054906101000a900473ffffffffffffffffffffffffffffffffffffffff1673ffffffffffffffffffffffffffffffffffffffff1673ffffffffffffffffffffffffffffffffffffffff1681525050815260200190600101906101ef565b50505050905090565b60008060009054906101000a900473ffffffffffffffffffffffffffffffffffffffff1673ffffffffffffffffffffffffffffffffffffffff163373ffffffffffffffffffffffffffffffffffffffff16146103ad576040517f08c379a00000000000000000000000000000000000000000000000000000000081526004016103a490611058565b60405180910390fd5b47905090565b60008054906101000a900473ffffffffffffffffffffffffffffffffffffffff1673ffffffffffffffffffffffffffffffffffffffff163373ffffffffffffffffffffffffffffffffffffffff1614610441576040517f08c379a000000000000000000000000000000000000000000000000000000000815260040161043890611058565b60405180910390fd5b3373ffffffffffffffffffffffffffffffffffffffff166108fc479081150290604051600060405180830381858888f19350505050158015610487573d6000803e3d6000fd5b50565b60008054906101000a900473ffffffffffffffffffffffffffffffffffffffff1673ffffffffffffffffffffffffffffffffffffffff163373ffffffffffffffffffffffffffffffffffffffff1614610518576040517f08c379a000000000000000000000000000000000000000000000000000000000815260040161050f90611058565b60405180910390fd5b600060405180606001604052806001805490508152602001838152602001600073ffffffffffffffffffffffffffffffffffffffff168152509050600181908060018154018082558091505060019003906000526020600020906003020160009091909190915060008201518160000155602082015181600101908161059e9190611224565b5060408201518160020160006101000a81548173ffffffffffffffffffffffffffffffffffffffff021916908373ffffffffffffffffffffffffffffffffffffffff16021790555050505050565b60008060009054906101000a900473ffffffffffffffffffffffffffffffffffffffff16905090565b6001818154811061062557600080fd5b906000526020600020906003020160009150905080600001549080600101805461064e90610fdb565b80601f016020809104026020016040519081016040528092919081815260200182805461067a90610fdb565b80156106c75780601f1061069c576101008083540402835291602001916106c7565b820191906000526020600020905b8154815290600101906020018083116106aa57829003601f168201915b5050505050908060020160009054906101000a900473ffffffffffffffffffffffffffffffffffffffff16905083565b600073ffffffffffffffffffffffffffffffffffffffff1660018281548110610723576107226112f6565b5b906000526020600020906003020160020160009054906101000a900473ffffffffffffffffffffffffffffffffffffffff1673ffffffffffffffffffffffffffffffffffffffff16146107ab576040517f08c379a00000000000000000000000000000000000000000000000000000000081526004016107a290611371565b60405180910390fd5b600260003373ffffffffffffffffffffffffffffffffffffffff1673ffffffffffffffffffffffffffffffffffffffff1681526020019081526020016000208190806001815401808255809150506001900390600052602060002001600090919091909150553360018281548110610826576108256112f6565b5b906000526020600020906003020160020160006101000a81548173ffffffffffffffffffffffffffffffffffffffff021916908373ffffffffffffffffffffffffffffffffffffffff160217905550600560009054906101000a900473ffffffffffffffffffffffffffffffffffffffff1673ffffffffffffffffffffffffffffffffffffffff166323b872dd33306003546040518463ffffffff1660e01b81526004016108d693929190611391565b600060405180830381600087803b1580156108f057600080fd5b505af1158015610904573d6000803e3d6000fd5b5050505050565b60008054906101000a900473ffffffffffffffffffffffffffffffffffffffff1673ffffffffffffffffffffffffffffffffffffffff163373ffffffffffffffffffffffffffffffffffffffff1614610999576040517f08c379a000000000000000000000000000000000000000000000000000000000815260040161099090611058565b60405180910390fd5b6000600560009054906101000a900473ffffffffffffffffffffffffffffffffffffffff1673ffffffffffffffffffffffffffffffffffffffff166312065fe06040518163ffffffff1660e01b8152600401602060405180830381865afa158015610a08573d6000803e3d6000fd5b505050506040513d601f19601f82011682018060405250810190610a2c91906113dd565b9050600560009054906101000a900473ffffffffffffffffffffffffffffffffffffffff1673ffffffffffffffffffffffffffffffffffffffff16632e1a7d4d826040518263ffffffff1660e01b8152600401610a899190610cf4565b600060405180830381600087803b158015610aa357600080fd5b505af1158015610ab7573d6000803e3d6000fd5b5050505050565b600081519050919050565b600082825260208201905092915050565b6000819050602082019050919050565b6000819050919050565b610afd81610aea565b82525050565b600081519050919050565b600082825260208201905092915050565b60005b83811015610b3d578082015181840152602081019050610b22565b83811115610b4c576000848401525b50505050565b6000601f19601f8301169050919050565b6000610b6e82610b03565b610b788185610b0e565b9350610b88818560208601610b1f565b610b9181610b52565b840191505092915050565b600073ffffffffffffffffffffffffffffffffffffffff82169050919050565b6000610bc782610b9c565b9050919050565b610bd781610bbc565b82525050565b6000606083016000830151610bf56000860182610af4565b5060208301518482036020860152610c0d8282610b63565b9150506040830151610c226040860182610bce565b508091505092915050565b6000610c398383610bdd565b905092915050565b6000602082019050919050565b6000610c5982610abe565b610c638185610ac9565b935083602082028501610c7585610ada565b8060005b85811015610cb15784840389528151610c928582610c2d565b9450610c9d83610c41565b925060208a01995050600181019050610c79565b50829750879550505050505092915050565b60006020820190508181036000830152610cdd8184610c4e565b905092915050565b610cee81610aea565b82525050565b6000602082019050610d096000830184610ce5565b92915050565b6000604051905090565b600080fd5b600080fd5b600080fd5b600080fd5b7f4e487b7100000000000000000000000000000000000000000000000000000000600052604160045260246000fd5b610d6582610b52565b810181811067ffffffffffffffff82111715610d8457610d83610d2d565b5b80604052505050565b6000610d97610d0f565b9050610da38282610d5c565b919050565b600067ffffffffffffffff821115610dc357610dc2610d2d565b5b610dcc82610b52565b9050602081019050919050565b82818337600083830152505050565b6000610dfb610df684610da8565b610d8d565b905082815260208101848484011115610e1757610e16610d28565b5b610e22848285610dd9565b509392505050565b600082601f830112610e3f57610e3e610d23565b5b8135610e4f848260208601610de8565b91505092915050565b600060208284031215610e6e57610e6d610d19565b5b600082013567ffffffffffffffff811115610e8c57610e8b610d1e565b5b610e9884828501610e2a565b91505092915050565b610eaa81610bbc565b82525050565b6000602082019050610ec56000830184610ea1565b92915050565b610ed481610aea565b8114610edf57600080fd5b50565b600081359050610ef181610ecb565b92915050565b600060208284031215610f0d57610f0c610d19565b5b6000610f1b84828501610ee2565b91505092915050565b600082825260208201905092915050565b6000610f4082610b03565b610f4a8185610f24565b9350610f5a818560208601610b1f565b610f6381610b52565b840191505092915050565b6000606082019050610f836000830186610ce5565b8181036020830152610f958185610f35565b9050610fa46040830184610ea1565b949350505050565b7f4e487b7100000000000000000000000000000000000000000000000000000000600052602260045260246000fd5b60006002820490506001821680610ff357607f821691505b60208210810361100657611005610fac565b5b50919050565b7f596f7520417265204e6f74204f776e6572000000000000000000000000000000600082015250565b6000611042601183610f24565b915061104d8261100c565b602082019050919050565b6000602082019050818103600083015261107181611035565b9050919050565b60008190508160005260206000209050919050565b60006020601f8301049050919050565b600082821b905092915050565b6000600883026110da7fffffffffffffffffffffffffffffffffffffffffffffffffffffffffffffffff8261109d565b6110e4868361109d565b95508019841693508086168417925050509392505050565b6000819050919050565b600061112161111c61111784610aea565b6110fc565b610aea565b9050919050565b6000819050919050565b61113b83611106565b61114f61114782611128565b8484546110aa565b825550505050565b600090565b611164611157565b61116f818484611132565b505050565b5b818110156111935761118860008261115c565b600181019050611175565b5050565b601f8211156111d8576111a981611078565b6111b28461108d565b810160208510156111c1578190505b6111d56111cd8561108d565b830182611174565b50505b505050565b600082821c905092915050565b60006111fb600019846008026111dd565b1980831691505092915050565b600061121483836111ea565b9150826002028217905092915050565b61122d82610b03565b67ffffffffffffffff81111561124657611245610d2d565b5b6112508254610fdb565b61125b828285611197565b600060209050601f83116001811461128e576000841561127c578287015190505b6112868582611208565b8655506112ee565b601f19841661129c86611078565b60005b828110156112c45784890151825560018201915060208501945060208101905061129f565b868310156112e157848901516112dd601f8916826111ea565b8355505b6001600288020188555050505b505050505050565b7f4e487b7100000000000000000000000000000000000000000000000000000000600052603260045260246000fd5b7f4b69747479206e6f7420666f722073616c650000000000000000000000000000600082015250565b600061135b601283610f24565b915061136682611325565b602082019050919050565b6000602082019050818103600083015261138a8161134e565b9050919050565b60006060820190506113a66000830186610ea1565b6113b36020830185610ea1565b6113c06040830184610ce5565b949350505050565b6000815190506113d781610ecb565b92915050565b6000602082840312156113f3576113f2610d19565b5b6000611401848285016113c8565b9150509291505056fea26469706673582212208303edc2b0f29b80ca3c6806a9a6f07478f265126b150c5a331407d711ca108964736f6c634300080f0033",
					"opcodes": "PUSH1 0x80 PUSH1 0x40 MSTORE PUSH8 0x8AC7230489E80000 PUSH1 0x3 SSTORE PUSH20 0xD9145CCE52D386F254917E481EB44E9943F39138 PUSH1 0x4 PUSH1 0x0 PUSH2 0x100 EXP DUP2 SLOAD DUP2 PUSH20 0xFFFFFFFFFFFFFFFFFFFFFFFFFFFFFFFFFFFFFFFF MUL NOT AND SWAP1 DUP4 PUSH20 0xFFFFFFFFFFFFFFFFFFFFFFFFFFFFFFFFFFFFFFFF AND MUL OR SWAP1 SSTORE POP PUSH1 0x4 PUSH1 0x0 SWAP1 SLOAD SWAP1 PUSH2 0x100 EXP SWAP1 DIV PUSH20 0xFFFFFFFFFFFFFFFFFFFFFFFFFFFFFFFFFFFFFFFF AND PUSH1 0x5 PUSH1 0x0 PUSH2 0x100 EXP DUP2 SLOAD DUP2 PUSH20 0xFFFFFFFFFFFFFFFFFFFFFFFFFFFFFFFFFFFFFFFF MUL NOT AND SWAP1 DUP4 PUSH20 0xFFFFFFFFFFFFFFFFFFFFFFFFFFFFFFFFFFFFFFFF AND MUL OR SWAP1 SSTORE POP CALLVALUE DUP1 ISZERO PUSH2 0xD4 JUMPI PUSH1 0x0 DUP1 REVERT JUMPDEST POP CALLER PUSH1 0x0 DUP1 PUSH2 0x100 EXP DUP2 SLOAD DUP2 PUSH20 0xFFFFFFFFFFFFFFFFFFFFFFFFFFFFFFFFFFFFFFFF MUL NOT AND SWAP1 DUP4 PUSH20 0xFFFFFFFFFFFFFFFFFFFFFFFFFFFFFFFFFFFFFFFF AND MUL OR SWAP1 SSTORE POP PUSH2 0x1440 DUP1 PUSH2 0x124 PUSH1 0x0 CODECOPY PUSH1 0x0 RETURN INVALID PUSH1 0x80 PUSH1 0x40 MSTORE PUSH1 0x4 CALLDATASIZE LT PUSH2 0x7F JUMPI PUSH1 0x0 CALLDATALOAD PUSH1 0xE0 SHR DUP1 PUSH4 0x893D20E8 GT PUSH2 0x4E JUMPI DUP1 PUSH4 0x893D20E8 EQ PUSH2 0x121 JUMPI DUP1 PUSH4 0x8CC51EDA EQ PUSH2 0x14C JUMPI DUP1 PUSH4 0xAE5310F6 EQ PUSH2 0x18B JUMPI DUP1 PUSH4 0xBE80D447 EQ PUSH2 0x1B4 JUMPI PUSH2 0x86 JUMP JUMPDEST DUP1 PUSH4 0xC3FDDEF EQ PUSH2 0x8B JUMPI DUP1 PUSH4 0x12065FE0 EQ PUSH2 0xB6 JUMPI DUP1 PUSH4 0x2D90AE94 EQ PUSH2 0xE1 JUMPI DUP1 PUSH4 0x35844DAD EQ PUSH2 0xF8 JUMPI PUSH2 0x86 JUMP JUMPDEST CALLDATASIZE PUSH2 0x86 JUMPI STOP JUMPDEST PUSH1 0x0 DUP1 REVERT JUMPDEST CALLVALUE DUP1 ISZERO PUSH2 0x97 JUMPI PUSH1 0x0 DUP1 REVERT JUMPDEST POP PUSH2 0xA0 PUSH2 0x1CB JUMP JUMPDEST PUSH1 0x40 MLOAD PUSH2 0xAD SWAP2 SWAP1 PUSH2 0xCC3 JUMP JUMPDEST PUSH1 0x40 MLOAD DUP1 SWAP2 SUB SWAP1 RETURN JUMPDEST CALLVALUE DUP1 ISZERO PUSH2 0xC2 JUMPI PUSH1 0x0 DUP1 REVERT JUMPDEST POP PUSH2 0xCB PUSH2 0x31C JUMP JUMPDEST PUSH1 0x40 MLOAD PUSH2 0xD8 SWAP2 SWAP1 PUSH2 0xCF4 JUMP JUMPDEST PUSH1 0x40 MLOAD DUP1 SWAP2 SUB SWAP1 RETURN JUMPDEST CALLVALUE DUP1 ISZERO PUSH2 0xED JUMPI PUSH1 0x0 DUP1 REVERT JUMPDEST POP PUSH2 0xF6 PUSH2 0x3B3 JUMP JUMPDEST STOP JUMPDEST CALLVALUE DUP1 ISZERO PUSH2 0x104 JUMPI PUSH1 0x0 DUP1 REVERT JUMPDEST POP PUSH2 0x11F PUSH1 0x4 DUP1 CALLDATASIZE SUB DUP2 ADD SWAP1 PUSH2 0x11A SWAP2 SWAP1 PUSH2 0xE58 JUMP JUMPDEST PUSH2 0x48A JUMP JUMPDEST STOP JUMPDEST CALLVALUE DUP1 ISZERO PUSH2 0x12D JUMPI PUSH1 0x0 DUP1 REVERT JUMPDEST POP PUSH2 0x136 PUSH2 0x5EC JUMP JUMPDEST PUSH1 0x40 MLOAD PUSH2 0x143 SWAP2 SWAP1 PUSH2 0xEB0 JUMP JUMPDEST PUSH1 0x40 MLOAD DUP1 SWAP2 SUB SWAP1 RETURN JUMPDEST CALLVALUE DUP1 ISZERO PUSH2 0x158 JUMPI PUSH1 0x0 DUP1 REVERT JUMPDEST POP PUSH2 0x173 PUSH1 0x4 DUP1 CALLDATASIZE SUB DUP2 ADD SWAP1 PUSH2 0x16E SWAP2 SWAP1 PUSH2 0xEF7 JUMP JUMPDEST PUSH2 0x615 JUMP JUMPDEST PUSH1 0x40 MLOAD PUSH2 0x182 SWAP4 SWAP3 SWAP2 SWAP1 PUSH2 0xF6E JUMP JUMPDEST PUSH1 0x40 MLOAD DUP1 SWAP2 SUB SWAP1 RETURN JUMPDEST CALLVALUE DUP1 ISZERO PUSH2 0x197 JUMPI PUSH1 0x0 DUP1 REVERT JUMPDEST POP PUSH2 0x1B2 PUSH1 0x4 DUP1 CALLDATASIZE SUB DUP2 ADD SWAP1 PUSH2 0x1AD SWAP2 SWAP1 PUSH2 0xEF7 JUMP JUMPDEST PUSH2 0x6F7 JUMP JUMPDEST STOP JUMPDEST CALLVALUE DUP1 ISZERO PUSH2 0x1C0 JUMPI PUSH1 0x0 DUP1 REVERT JUMPDEST POP PUSH2 0x1C9 PUSH2 0x90B JUMP JUMPDEST STOP JUMPDEST PUSH1 0x60 PUSH1 0x1 DUP1 SLOAD DUP1 PUSH1 0x20 MUL PUSH1 0x20 ADD PUSH1 0x40 MLOAD SWAP1 DUP2 ADD PUSH1 0x40 MSTORE DUP1 SWAP3 SWAP2 SWAP1 DUP2 DUP2 MSTORE PUSH1 0x20 ADD PUSH1 0x0 SWAP1 JUMPDEST DUP3 DUP3 LT ISZERO PUSH2 0x313 JUMPI DUP4 DUP3 SWAP1 PUSH1 0x0 MSTORE PUSH1 0x20 PUSH1 0x0 KECCAK256 SWAP1 PUSH1 0x3 MUL ADD PUSH1 0x40 MLOAD DUP1 PUSH1 0x60 ADD PUSH1 0x40 MSTORE SWAP1 DUP2 PUSH1 0x0 DUP3 ADD SLOAD DUP2 MSTORE PUSH1 0x20 ADD PUSH1 0x1 DUP3 ADD DUP1 SLOAD PUSH2 0x22C SWAP1 PUSH2 0xFDB JUMP JUMPDEST DUP1 PUSH1 0x1F ADD PUSH1 0x20 DUP1 SWAP2 DIV MUL PUSH1 0x20 ADD PUSH1 0x40 MLOAD SWAP1 DUP2 ADD PUSH1 0x40 MSTORE DUP1 SWAP3 SWAP2 SWAP1 DUP2 DUP2 MSTORE PUSH1 0x20 ADD DUP3 DUP1 SLOAD PUSH2 0x258 SWAP1 PUSH2 0xFDB JUMP JUMPDEST DUP1 ISZERO PUSH2 0x2A5 JUMPI DUP1 PUSH1 0x1F LT PUSH2 0x27A JUMPI PUSH2 0x100 DUP1 DUP4 SLOAD DIV MUL DUP4 MSTORE SWAP2 PUSH1 0x20 ADD SWAP2 PUSH2 0x2A5 JUMP JUMPDEST DUP3 ADD SWAP2 SWAP1 PUSH1 0x0 MSTORE PUSH1 0x20 PUSH1 0x0 KECCAK256 SWAP1 JUMPDEST DUP2 SLOAD DUP2 MSTORE SWAP1 PUSH1 0x1 ADD SWAP1 PUSH1 0x20 ADD DUP1 DUP4 GT PUSH2 0x288 JUMPI DUP3 SWAP1 SUB PUSH1 0x1F AND DUP3 ADD SWAP2 JUMPDEST POP POP POP POP POP DUP2 MSTORE PUSH1 0x20 ADD PUSH1 0x2 DUP3 ADD PUSH1 0x0 SWAP1 SLOAD SWAP1 PUSH2 0x100 EXP SWAP1 DIV PUSH20 0xFFFFFFFFFFFFFFFFFFFFFFFFFFFFFFFFFFFFFFFF AND PUSH20 0xFFFFFFFFFFFFFFFFFFFFFFFFFFFFFFFFFFFFFFFF AND PUSH20 0xFFFFFFFFFFFFFFFFFFFFFFFFFFFFFFFFFFFFFFFF AND DUP2 MSTORE POP POP DUP2 MSTORE PUSH1 0x20 ADD SWAP1 PUSH1 0x1 ADD SWAP1 PUSH2 0x1EF JUMP JUMPDEST POP POP POP POP SWAP1 POP SWAP1 JUMP JUMPDEST PUSH1 0x0 DUP1 PUSH1 0x0 SWAP1 SLOAD SWAP1 PUSH2 0x100 EXP SWAP1 DIV PUSH20 0xFFFFFFFFFFFFFFFFFFFFFFFFFFFFFFFFFFFFFFFF AND PUSH20 0xFFFFFFFFFFFFFFFFFFFFFFFFFFFFFFFFFFFFFFFF AND CALLER PUSH20 0xFFFFFFFFFFFFFFFFFFFFFFFFFFFFFFFFFFFFFFFF AND EQ PUSH2 0x3AD JUMPI PUSH1 0x40 MLOAD PUSH32 0x8C379A000000000000000000000000000000000000000000000000000000000 DUP2 MSTORE PUSH1 0x4 ADD PUSH2 0x3A4 SWAP1 PUSH2 0x1058 JUMP JUMPDEST PUSH1 0x40 MLOAD DUP1 SWAP2 SUB SWAP1 REVERT JUMPDEST SELFBALANCE SWAP1 POP SWAP1 JUMP JUMPDEST PUSH1 0x0 DUP1 SLOAD SWAP1 PUSH2 0x100 EXP SWAP1 DIV PUSH20 0xFFFFFFFFFFFFFFFFFFFFFFFFFFFFFFFFFFFFFFFF AND PUSH20 0xFFFFFFFFFFFFFFFFFFFFFFFFFFFFFFFFFFFFFFFF AND CALLER PUSH20 0xFFFFFFFFFFFFFFFFFFFFFFFFFFFFFFFFFFFFFFFF AND EQ PUSH2 0x441 JUMPI PUSH1 0x40 MLOAD PUSH32 0x8C379A000000000000000000000000000000000000000000000000000000000 DUP2 MSTORE PUSH1 0x4 ADD PUSH2 0x438 SWAP1 PUSH2 0x1058 JUMP JUMPDEST PUSH1 0x40 MLOAD DUP1 SWAP2 SUB SWAP1 REVERT JUMPDEST CALLER PUSH20 0xFFFFFFFFFFFFFFFFFFFFFFFFFFFFFFFFFFFFFFFF AND PUSH2 0x8FC SELFBALANCE SWAP1 DUP2 ISZERO MUL SWAP1 PUSH1 0x40 MLOAD PUSH1 0x0 PUSH1 0x40 MLOAD DUP1 DUP4 SUB DUP2 DUP6 DUP9 DUP9 CALL SWAP4 POP POP POP POP ISZERO DUP1 ISZERO PUSH2 0x487 JUMPI RETURNDATASIZE PUSH1 0x0 DUP1 RETURNDATACOPY RETURNDATASIZE PUSH1 0x0 REVERT JUMPDEST POP JUMP JUMPDEST PUSH1 0x0 DUP1 SLOAD SWAP1 PUSH2 0x100 EXP SWAP1 DIV PUSH20 0xFFFFFFFFFFFFFFFFFFFFFFFFFFFFFFFFFFFFFFFF AND PUSH20 0xFFFFFFFFFFFFFFFFFFFFFFFFFFFFFFFFFFFFFFFF AND CALLER PUSH20 0xFFFFFFFFFFFFFFFFFFFFFFFFFFFFFFFFFFFFFFFF AND EQ PUSH2 0x518 JUMPI PUSH1 0x40 MLOAD PUSH32 0x8C379A000000000000000000000000000000000000000000000000000000000 DUP2 MSTORE PUSH1 0x4 ADD PUSH2 0x50F SWAP1 PUSH2 0x1058 JUMP JUMPDEST PUSH1 0x40 MLOAD DUP1 SWAP2 SUB SWAP1 REVERT JUMPDEST PUSH1 0x0 PUSH1 0x40 MLOAD DUP1 PUSH1 0x60 ADD PUSH1 0x40 MSTORE DUP1 PUSH1 0x1 DUP1 SLOAD SWAP1 POP DUP2 MSTORE PUSH1 0x20 ADD DUP4 DUP2 MSTORE PUSH1 0x20 ADD PUSH1 0x0 PUSH20 0xFFFFFFFFFFFFFFFFFFFFFFFFFFFFFFFFFFFFFFFF AND DUP2 MSTORE POP SWAP1 POP PUSH1 0x1 DUP2 SWAP1 DUP1 PUSH1 0x1 DUP2 SLOAD ADD DUP1 DUP3 SSTORE DUP1 SWAP2 POP POP PUSH1 0x1 SWAP1 SUB SWAP1 PUSH1 0x0 MSTORE PUSH1 0x20 PUSH1 0x0 KECCAK256 SWAP1 PUSH1 0x3 MUL ADD PUSH1 0x0 SWAP1 SWAP2 SWAP1 SWAP2 SWAP1 SWAP2 POP PUSH1 0x0 DUP3 ADD MLOAD DUP2 PUSH1 0x0 ADD SSTORE PUSH1 0x20 DUP3 ADD MLOAD DUP2 PUSH1 0x1 ADD SWAP1 DUP2 PUSH2 0x59E SWAP2 SWAP1 PUSH2 0x1224 JUMP JUMPDEST POP PUSH1 0x40 DUP3 ADD MLOAD DUP2 PUSH1 0x2 ADD PUSH1 0x0 PUSH2 0x100 EXP DUP2 SLOAD DUP2 PUSH20 0xFFFFFFFFFFFFFFFFFFFFFFFFFFFFFFFFFFFFFFFF MUL NOT AND SWAP1 DUP4 PUSH20 0xFFFFFFFFFFFFFFFFFFFFFFFFFFFFFFFFFFFFFFFF AND MUL OR SWAP1 SSTORE POP POP POP POP POP JUMP JUMPDEST PUSH1 0x0 DUP1 PUSH1 0x0 SWAP1 SLOAD SWAP1 PUSH2 0x100 EXP SWAP1 DIV PUSH20 0xFFFFFFFFFFFFFFFFFFFFFFFFFFFFFFFFFFFFFFFF AND SWAP1 POP SWAP1 JUMP JUMPDEST PUSH1 0x1 DUP2 DUP2 SLOAD DUP2 LT PUSH2 0x625 JUMPI PUSH1 0x0 DUP1 REVERT JUMPDEST SWAP1 PUSH1 0x0 MSTORE PUSH1 0x20 PUSH1 0x0 KECCAK256 SWAP1 PUSH1 0x3 MUL ADD PUSH1 0x0 SWAP2 POP SWAP1 POP DUP1 PUSH1 0x0 ADD SLOAD SWAP1 DUP1 PUSH1 0x1 ADD DUP1 SLOAD PUSH2 0x64E SWAP1 PUSH2 0xFDB JUMP JUMPDEST DUP1 PUSH1 0x1F ADD PUSH1 0x20 DUP1 SWAP2 DIV MUL PUSH1 0x20 ADD PUSH1 0x40 MLOAD SWAP1 DUP2 ADD PUSH1 0x40 MSTORE DUP1 SWAP3 SWAP2 SWAP1 DUP2 DUP2 MSTORE PUSH1 0x20 ADD DUP3 DUP1 SLOAD PUSH2 0x67A SWAP1 PUSH2 0xFDB JUMP JUMPDEST DUP1 ISZERO PUSH2 0x6C7 JUMPI DUP1 PUSH1 0x1F LT PUSH2 0x69C JUMPI PUSH2 0x100 DUP1 DUP4 SLOAD DIV MUL DUP4 MSTORE SWAP2 PUSH1 0x20 ADD SWAP2 PUSH2 0x6C7 JUMP JUMPDEST DUP3 ADD SWAP2 SWAP1 PUSH1 0x0 MSTORE PUSH1 0x20 PUSH1 0x0 KECCAK256 SWAP1 JUMPDEST DUP2 SLOAD DUP2 MSTORE SWAP1 PUSH1 0x1 ADD SWAP1 PUSH1 0x20 ADD DUP1 DUP4 GT PUSH2 0x6AA JUMPI DUP3 SWAP1 SUB PUSH1 0x1F AND DUP3 ADD SWAP2 JUMPDEST POP POP POP POP POP SWAP1 DUP1 PUSH1 0x2 ADD PUSH1 0x0 SWAP1 SLOAD SWAP1 PUSH2 0x100 EXP SWAP1 DIV PUSH20 0xFFFFFFFFFFFFFFFFFFFFFFFFFFFFFFFFFFFFFFFF AND SWAP1 POP DUP4 JUMP JUMPDEST PUSH1 0x0 PUSH20 0xFFFFFFFFFFFFFFFFFFFFFFFFFFFFFFFFFFFFFFFF AND PUSH1 0x1 DUP3 DUP2 SLOAD DUP2 LT PUSH2 0x723 JUMPI PUSH2 0x722 PUSH2 0x12F6 JUMP JUMPDEST JUMPDEST SWAP1 PUSH1 0x0 MSTORE PUSH1 0x20 PUSH1 0x0 KECCAK256 SWAP1 PUSH1 0x3 MUL ADD PUSH1 0x2 ADD PUSH1 0x0 SWAP1 SLOAD SWAP1 PUSH2 0x100 EXP SWAP1 DIV PUSH20 0xFFFFFFFFFFFFFFFFFFFFFFFFFFFFFFFFFFFFFFFF AND PUSH20 0xFFFFFFFFFFFFFFFFFFFFFFFFFFFFFFFFFFFFFFFF AND EQ PUSH2 0x7AB JUMPI PUSH1 0x40 MLOAD PUSH32 0x8C379A000000000000000000000000000000000000000000000000000000000 DUP2 MSTORE PUSH1 0x4 ADD PUSH2 0x7A2 SWAP1 PUSH2 0x1371 JUMP JUMPDEST PUSH1 0x40 MLOAD DUP1 SWAP2 SUB SWAP1 REVERT JUMPDEST PUSH1 0x2 PUSH1 0x0 CALLER PUSH20 0xFFFFFFFFFFFFFFFFFFFFFFFFFFFFFFFFFFFFFFFF AND PUSH20 0xFFFFFFFFFFFFFFFFFFFFFFFFFFFFFFFFFFFFFFFF AND DUP2 MSTORE PUSH1 0x20 ADD SWAP1 DUP2 MSTORE PUSH1 0x20 ADD PUSH1 0x0 KECCAK256 DUP2 SWAP1 DUP1 PUSH1 0x1 DUP2 SLOAD ADD DUP1 DUP3 SSTORE DUP1 SWAP2 POP POP PUSH1 0x1 SWAP1 SUB SWAP1 PUSH1 0x0 MSTORE PUSH1 0x20 PUSH1 0x0 KECCAK256 ADD PUSH1 0x0 SWAP1 SWAP2 SWAP1 SWAP2 SWAP1 SWAP2 POP SSTORE CALLER PUSH1 0x1 DUP3 DUP2 SLOAD DUP2 LT PUSH2 0x826 JUMPI PUSH2 0x825 PUSH2 0x12F6 JUMP JUMPDEST JUMPDEST SWAP1 PUSH1 0x0 MSTORE PUSH1 0x20 PUSH1 0x0 KECCAK256 SWAP1 PUSH1 0x3 MUL ADD PUSH1 0x2 ADD PUSH1 0x0 PUSH2 0x100 EXP DUP2 SLOAD DUP2 PUSH20 0xFFFFFFFFFFFFFFFFFFFFFFFFFFFFFFFFFFFFFFFF MUL NOT AND SWAP1 DUP4 PUSH20 0xFFFFFFFFFFFFFFFFFFFFFFFFFFFFFFFFFFFFFFFF AND MUL OR SWAP1 SSTORE POP PUSH1 0x5 PUSH1 0x0 SWAP1 SLOAD SWAP1 PUSH2 0x100 EXP SWAP1 DIV PUSH20 0xFFFFFFFFFFFFFFFFFFFFFFFFFFFFFFFFFFFFFFFF AND PUSH20 0xFFFFFFFFFFFFFFFFFFFFFFFFFFFFFFFFFFFFFFFF AND PUSH4 0x23B872DD CALLER ADDRESS PUSH1 0x3 SLOAD PUSH1 0x40 MLOAD DUP5 PUSH4 0xFFFFFFFF AND PUSH1 0xE0 SHL DUP2 MSTORE PUSH1 0x4 ADD PUSH2 0x8D6 SWAP4 SWAP3 SWAP2 SWAP1 PUSH2 0x1391 JUMP JUMPDEST PUSH1 0x0 PUSH1 0x40 MLOAD DUP1 DUP4 SUB DUP2 PUSH1 0x0 DUP8 DUP1 EXTCODESIZE ISZERO DUP1 ISZERO PUSH2 0x8F0 JUMPI PUSH1 0x0 DUP1 REVERT JUMPDEST POP GAS CALL ISZERO DUP1 ISZERO PUSH2 0x904 JUMPI RETURNDATASIZE PUSH1 0x0 DUP1 RETURNDATACOPY RETURNDATASIZE PUSH1 0x0 REVERT JUMPDEST POP POP POP POP POP JUMP JUMPDEST PUSH1 0x0 DUP1 SLOAD SWAP1 PUSH2 0x100 EXP SWAP1 DIV PUSH20 0xFFFFFFFFFFFFFFFFFFFFFFFFFFFFFFFFFFFFFFFF AND PUSH20 0xFFFFFFFFFFFFFFFFFFFFFFFFFFFFFFFFFFFFFFFF AND CALLER PUSH20 0xFFFFFFFFFFFFFFFFFFFFFFFFFFFFFFFFFFFFFFFF AND EQ PUSH2 0x999 JUMPI PUSH1 0x40 MLOAD PUSH32 0x8C379A000000000000000000000000000000000000000000000000000000000 DUP2 MSTORE PUSH1 0x4 ADD PUSH2 0x990 SWAP1 PUSH2 0x1058 JUMP JUMPDEST PUSH1 0x40 MLOAD DUP1 SWAP2 SUB SWAP1 REVERT JUMPDEST PUSH1 0x0 PUSH1 0x5 PUSH1 0x0 SWAP1 SLOAD SWAP1 PUSH2 0x100 EXP SWAP1 DIV PUSH20 0xFFFFFFFFFFFFFFFFFFFFFFFFFFFFFFFFFFFFFFFF AND PUSH20 0xFFFFFFFFFFFFFFFFFFFFFFFFFFFFFFFFFFFFFFFF AND PUSH4 0x12065FE0 PUSH1 0x40 MLOAD DUP2 PUSH4 0xFFFFFFFF AND PUSH1 0xE0 SHL DUP2 MSTORE PUSH1 0x4 ADD PUSH1 0x20 PUSH1 0x40 MLOAD DUP1 DUP4 SUB DUP2 DUP7 GAS STATICCALL ISZERO DUP1 ISZERO PUSH2 0xA08 JUMPI RETURNDATASIZE PUSH1 0x0 DUP1 RETURNDATACOPY RETURNDATASIZE PUSH1 0x0 REVERT JUMPDEST POP POP POP POP PUSH1 0x40 MLOAD RETURNDATASIZE PUSH1 0x1F NOT PUSH1 0x1F DUP3 ADD AND DUP3 ADD DUP1 PUSH1 0x40 MSTORE POP DUP2 ADD SWAP1 PUSH2 0xA2C SWAP2 SWAP1 PUSH2 0x13DD JUMP JUMPDEST SWAP1 POP PUSH1 0x5 PUSH1 0x0 SWAP1 SLOAD SWAP1 PUSH2 0x100 EXP SWAP1 DIV PUSH20 0xFFFFFFFFFFFFFFFFFFFFFFFFFFFFFFFFFFFFFFFF AND PUSH20 0xFFFFFFFFFFFFFFFFFFFFFFFFFFFFFFFFFFFFFFFF AND PUSH4 0x2E1A7D4D DUP3 PUSH1 0x40 MLOAD DUP3 PUSH4 0xFFFFFFFF AND PUSH1 0xE0 SHL DUP2 MSTORE PUSH1 0x4 ADD PUSH2 0xA89 SWAP2 SWAP1 PUSH2 0xCF4 JUMP JUMPDEST PUSH1 0x0 PUSH1 0x40 MLOAD DUP1 DUP4 SUB DUP2 PUSH1 0x0 DUP8 DUP1 EXTCODESIZE ISZERO DUP1 ISZERO PUSH2 0xAA3 JUMPI PUSH1 0x0 DUP1 REVERT JUMPDEST POP GAS CALL ISZERO DUP1 ISZERO PUSH2 0xAB7 JUMPI RETURNDATASIZE PUSH1 0x0 DUP1 RETURNDATACOPY RETURNDATASIZE PUSH1 0x0 REVERT JUMPDEST POP POP POP POP POP JUMP JUMPDEST PUSH1 0x0 DUP2 MLOAD SWAP1 POP SWAP2 SWAP1 POP JUMP JUMPDEST PUSH1 0x0 DUP3 DUP3 MSTORE PUSH1 0x20 DUP3 ADD SWAP1 POP SWAP3 SWAP2 POP POP JUMP JUMPDEST PUSH1 0x0 DUP2 SWAP1 POP PUSH1 0x20 DUP3 ADD SWAP1 POP SWAP2 SWAP1 POP JUMP JUMPDEST PUSH1 0x0 DUP2 SWAP1 POP SWAP2 SWAP1 POP JUMP JUMPDEST PUSH2 0xAFD DUP2 PUSH2 0xAEA JUMP JUMPDEST DUP3 MSTORE POP POP JUMP JUMPDEST PUSH1 0x0 DUP2 MLOAD SWAP1 POP SWAP2 SWAP1 POP JUMP JUMPDEST PUSH1 0x0 DUP3 DUP3 MSTORE PUSH1 0x20 DUP3 ADD SWAP1 POP SWAP3 SWAP2 POP POP JUMP JUMPDEST PUSH1 0x0 JUMPDEST DUP4 DUP2 LT ISZERO PUSH2 0xB3D JUMPI DUP1 DUP3 ADD MLOAD DUP2 DUP5 ADD MSTORE PUSH1 0x20 DUP2 ADD SWAP1 POP PUSH2 0xB22 JUMP JUMPDEST DUP4 DUP2 GT ISZERO PUSH2 0xB4C JUMPI PUSH1 0x0 DUP5 DUP5 ADD MSTORE JUMPDEST POP POP POP POP JUMP JUMPDEST PUSH1 0x0 PUSH1 0x1F NOT PUSH1 0x1F DUP4 ADD AND SWAP1 POP SWAP2 SWAP1 POP JUMP JUMPDEST PUSH1 0x0 PUSH2 0xB6E DUP3 PUSH2 0xB03 JUMP JUMPDEST PUSH2 0xB78 DUP2 DUP6 PUSH2 0xB0E JUMP JUMPDEST SWAP4 POP PUSH2 0xB88 DUP2 DUP6 PUSH1 0x20 DUP7 ADD PUSH2 0xB1F JUMP JUMPDEST PUSH2 0xB91 DUP2 PUSH2 0xB52 JUMP JUMPDEST DUP5 ADD SWAP2 POP POP SWAP3 SWAP2 POP POP JUMP JUMPDEST PUSH1 0x0 PUSH20 0xFFFFFFFFFFFFFFFFFFFFFFFFFFFFFFFFFFFFFFFF DUP3 AND SWAP1 POP SWAP2 SWAP1 POP JUMP JUMPDEST PUSH1 0x0 PUSH2 0xBC7 DUP3 PUSH2 0xB9C JUMP JUMPDEST SWAP1 POP SWAP2 SWAP1 POP JUMP JUMPDEST PUSH2 0xBD7 DUP2 PUSH2 0xBBC JUMP JUMPDEST DUP3 MSTORE POP POP JUMP JUMPDEST PUSH1 0x0 PUSH1 0x60 DUP4 ADD PUSH1 0x0 DUP4 ADD MLOAD PUSH2 0xBF5 PUSH1 0x0 DUP7 ADD DUP3 PUSH2 0xAF4 JUMP JUMPDEST POP PUSH1 0x20 DUP4 ADD MLOAD DUP5 DUP3 SUB PUSH1 0x20 DUP7 ADD MSTORE PUSH2 0xC0D DUP3 DUP3 PUSH2 0xB63 JUMP JUMPDEST SWAP2 POP POP PUSH1 0x40 DUP4 ADD MLOAD PUSH2 0xC22 PUSH1 0x40 DUP7 ADD DUP3 PUSH2 0xBCE JUMP JUMPDEST POP DUP1 SWAP2 POP POP SWAP3 SWAP2 POP POP JUMP JUMPDEST PUSH1 0x0 PUSH2 0xC39 DUP4 DUP4 PUSH2 0xBDD JUMP JUMPDEST SWAP1 POP SWAP3 SWAP2 POP POP JUMP JUMPDEST PUSH1 0x0 PUSH1 0x20 DUP3 ADD SWAP1 POP SWAP2 SWAP1 POP JUMP JUMPDEST PUSH1 0x0 PUSH2 0xC59 DUP3 PUSH2 0xABE JUMP JUMPDEST PUSH2 0xC63 DUP2 DUP6 PUSH2 0xAC9 JUMP JUMPDEST SWAP4 POP DUP4 PUSH1 0x20 DUP3 MUL DUP6 ADD PUSH2 0xC75 DUP6 PUSH2 0xADA JUMP JUMPDEST DUP1 PUSH1 0x0 JUMPDEST DUP6 DUP2 LT ISZERO PUSH2 0xCB1 JUMPI DUP5 DUP5 SUB DUP10 MSTORE DUP2 MLOAD PUSH2 0xC92 DUP6 DUP3 PUSH2 0xC2D JUMP JUMPDEST SWAP5 POP PUSH2 0xC9D DUP4 PUSH2 0xC41 JUMP JUMPDEST SWAP3 POP PUSH1 0x20 DUP11 ADD SWAP10 POP POP PUSH1 0x1 DUP2 ADD SWAP1 POP PUSH2 0xC79 JUMP JUMPDEST POP DUP3 SWAP8 POP DUP8 SWAP6 POP POP POP POP POP POP SWAP3 SWAP2 POP POP JUMP JUMPDEST PUSH1 0x0 PUSH1 0x20 DUP3 ADD SWAP1 POP DUP2 DUP2 SUB PUSH1 0x0 DUP4 ADD MSTORE PUSH2 0xCDD DUP2 DUP5 PUSH2 0xC4E JUMP JUMPDEST SWAP1 POP SWAP3 SWAP2 POP POP JUMP JUMPDEST PUSH2 0xCEE DUP2 PUSH2 0xAEA JUMP JUMPDEST DUP3 MSTORE POP POP JUMP JUMPDEST PUSH1 0x0 PUSH1 0x20 DUP3 ADD SWAP1 POP PUSH2 0xD09 PUSH1 0x0 DUP4 ADD DUP5 PUSH2 0xCE5 JUMP JUMPDEST SWAP3 SWAP2 POP POP JUMP JUMPDEST PUSH1 0x0 PUSH1 0x40 MLOAD SWAP1 POP SWAP1 JUMP JUMPDEST PUSH1 0x0 DUP1 REVERT JUMPDEST PUSH1 0x0 DUP1 REVERT JUMPDEST PUSH1 0x0 DUP1 REVERT JUMPDEST PUSH1 0x0 DUP1 REVERT JUMPDEST PUSH32 0x4E487B7100000000000000000000000000000000000000000000000000000000 PUSH1 0x0 MSTORE PUSH1 0x41 PUSH1 0x4 MSTORE PUSH1 0x24 PUSH1 0x0 REVERT JUMPDEST PUSH2 0xD65 DUP3 PUSH2 0xB52 JUMP JUMPDEST DUP2 ADD DUP2 DUP2 LT PUSH8 0xFFFFFFFFFFFFFFFF DUP3 GT OR ISZERO PUSH2 0xD84 JUMPI PUSH2 0xD83 PUSH2 0xD2D JUMP JUMPDEST JUMPDEST DUP1 PUSH1 0x40 MSTORE POP POP POP JUMP JUMPDEST PUSH1 0x0 PUSH2 0xD97 PUSH2 0xD0F JUMP JUMPDEST SWAP1 POP PUSH2 0xDA3 DUP3 DUP3 PUSH2 0xD5C JUMP JUMPDEST SWAP2 SWAP1 POP JUMP JUMPDEST PUSH1 0x0 PUSH8 0xFFFFFFFFFFFFFFFF DUP3 GT ISZERO PUSH2 0xDC3 JUMPI PUSH2 0xDC2 PUSH2 0xD2D JUMP JUMPDEST JUMPDEST PUSH2 0xDCC DUP3 PUSH2 0xB52 JUMP JUMPDEST SWAP1 POP PUSH1 0x20 DUP2 ADD SWAP1 POP SWAP2 SWAP1 POP JUMP JUMPDEST DUP3 DUP2 DUP4 CALLDATACOPY PUSH1 0x0 DUP4 DUP4 ADD MSTORE POP POP POP JUMP JUMPDEST PUSH1 0x0 PUSH2 0xDFB PUSH2 0xDF6 DUP5 PUSH2 0xDA8 JUMP JUMPDEST PUSH2 0xD8D JUMP JUMPDEST SWAP1 POP DUP3 DUP2 MSTORE PUSH1 0x20 DUP2 ADD DUP5 DUP5 DUP5 ADD GT ISZERO PUSH2 0xE17 JUMPI PUSH2 0xE16 PUSH2 0xD28 JUMP JUMPDEST JUMPDEST PUSH2 0xE22 DUP5 DUP3 DUP6 PUSH2 0xDD9 JUMP JUMPDEST POP SWAP4 SWAP3 POP POP POP JUMP JUMPDEST PUSH1 0x0 DUP3 PUSH1 0x1F DUP4 ADD SLT PUSH2 0xE3F JUMPI PUSH2 0xE3E PUSH2 0xD23 JUMP JUMPDEST JUMPDEST DUP2 CALLDATALOAD PUSH2 0xE4F DUP5 DUP3 PUSH1 0x20 DUP7 ADD PUSH2 0xDE8 JUMP JUMPDEST SWAP2 POP POP SWAP3 SWAP2 POP POP JUMP JUMPDEST PUSH1 0x0 PUSH1 0x20 DUP3 DUP5 SUB SLT ISZERO PUSH2 0xE6E JUMPI PUSH2 0xE6D PUSH2 0xD19 JUMP JUMPDEST JUMPDEST PUSH1 0x0 DUP3 ADD CALLDATALOAD PUSH8 0xFFFFFFFFFFFFFFFF DUP2 GT ISZERO PUSH2 0xE8C JUMPI PUSH2 0xE8B PUSH2 0xD1E JUMP JUMPDEST JUMPDEST PUSH2 0xE98 DUP5 DUP3 DUP6 ADD PUSH2 0xE2A JUMP JUMPDEST SWAP2 POP POP SWAP3 SWAP2 POP POP JUMP JUMPDEST PUSH2 0xEAA DUP2 PUSH2 0xBBC JUMP JUMPDEST DUP3 MSTORE POP POP JUMP JUMPDEST PUSH1 0x0 PUSH1 0x20 DUP3 ADD SWAP1 POP PUSH2 0xEC5 PUSH1 0x0 DUP4 ADD DUP5 PUSH2 0xEA1 JUMP JUMPDEST SWAP3 SWAP2 POP POP JUMP JUMPDEST PUSH2 0xED4 DUP2 PUSH2 0xAEA JUMP JUMPDEST DUP2 EQ PUSH2 0xEDF JUMPI PUSH1 0x0 DUP1 REVERT JUMPDEST POP JUMP JUMPDEST PUSH1 0x0 DUP2 CALLDATALOAD SWAP1 POP PUSH2 0xEF1 DUP2 PUSH2 0xECB JUMP JUMPDEST SWAP3 SWAP2 POP POP JUMP JUMPDEST PUSH1 0x0 PUSH1 0x20 DUP3 DUP5 SUB SLT ISZERO PUSH2 0xF0D JUMPI PUSH2 0xF0C PUSH2 0xD19 JUMP JUMPDEST JUMPDEST PUSH1 0x0 PUSH2 0xF1B DUP5 DUP3 DUP6 ADD PUSH2 0xEE2 JUMP JUMPDEST SWAP2 POP POP SWAP3 SWAP2 POP POP JUMP JUMPDEST PUSH1 0x0 DUP3 DUP3 MSTORE PUSH1 0x20 DUP3 ADD SWAP1 POP SWAP3 SWAP2 POP POP JUMP JUMPDEST PUSH1 0x0 PUSH2 0xF40 DUP3 PUSH2 0xB03 JUMP JUMPDEST PUSH2 0xF4A DUP2 DUP6 PUSH2 0xF24 JUMP JUMPDEST SWAP4 POP PUSH2 0xF5A DUP2 DUP6 PUSH1 0x20 DUP7 ADD PUSH2 0xB1F JUMP JUMPDEST PUSH2 0xF63 DUP2 PUSH2 0xB52 JUMP JUMPDEST DUP5 ADD SWAP2 POP POP SWAP3 SWAP2 POP POP JUMP JUMPDEST PUSH1 0x0 PUSH1 0x60 DUP3 ADD SWAP1 POP PUSH2 0xF83 PUSH1 0x0 DUP4 ADD DUP7 PUSH2 0xCE5 JUMP JUMPDEST DUP2 DUP2 SUB PUSH1 0x20 DUP4 ADD MSTORE PUSH2 0xF95 DUP2 DUP6 PUSH2 0xF35 JUMP JUMPDEST SWAP1 POP PUSH2 0xFA4 PUSH1 0x40 DUP4 ADD DUP5 PUSH2 0xEA1 JUMP JUMPDEST SWAP5 SWAP4 POP POP POP POP JUMP JUMPDEST PUSH32 0x4E487B7100000000000000000000000000000000000000000000000000000000 PUSH1 0x0 MSTORE PUSH1 0x22 PUSH1 0x4 MSTORE PUSH1 0x24 PUSH1 0x0 REVERT JUMPDEST PUSH1 0x0 PUSH1 0x2 DUP3 DIV SWAP1 POP PUSH1 0x1 DUP3 AND DUP1 PUSH2 0xFF3 JUMPI PUSH1 0x7F DUP3 AND SWAP2 POP JUMPDEST PUSH1 0x20 DUP3 LT DUP2 SUB PUSH2 0x1006 JUMPI PUSH2 0x1005 PUSH2 0xFAC JUMP JUMPDEST JUMPDEST POP SWAP2 SWAP1 POP JUMP JUMPDEST PUSH32 0x596F7520417265204E6F74204F776E6572000000000000000000000000000000 PUSH1 0x0 DUP3 ADD MSTORE POP JUMP JUMPDEST PUSH1 0x0 PUSH2 0x1042 PUSH1 0x11 DUP4 PUSH2 0xF24 JUMP JUMPDEST SWAP2 POP PUSH2 0x104D DUP3 PUSH2 0x100C JUMP JUMPDEST PUSH1 0x20 DUP3 ADD SWAP1 POP SWAP2 SWAP1 POP JUMP JUMPDEST PUSH1 0x0 PUSH1 0x20 DUP3 ADD SWAP1 POP DUP2 DUP2 SUB PUSH1 0x0 DUP4 ADD MSTORE PUSH2 0x1071 DUP2 PUSH2 0x1035 JUMP JUMPDEST SWAP1 POP SWAP2 SWAP1 POP JUMP JUMPDEST PUSH1 0x0 DUP2 SWAP1 POP DUP2 PUSH1 0x0 MSTORE PUSH1 0x20 PUSH1 0x0 KECCAK256 SWAP1 POP SWAP2 SWAP1 POP JUMP JUMPDEST PUSH1 0x0 PUSH1 0x20 PUSH1 0x1F DUP4 ADD DIV SWAP1 POP SWAP2 SWAP1 POP JUMP JUMPDEST PUSH1 0x0 DUP3 DUP3 SHL SWAP1 POP SWAP3 SWAP2 POP POP JUMP JUMPDEST PUSH1 0x0 PUSH1 0x8 DUP4 MUL PUSH2 0x10DA PUSH32 0xFFFFFFFFFFFFFFFFFFFFFFFFFFFFFFFFFFFFFFFFFFFFFFFFFFFFFFFFFFFFFFFF DUP3 PUSH2 0x109D JUMP JUMPDEST PUSH2 0x10E4 DUP7 DUP4 PUSH2 0x109D JUMP JUMPDEST SWAP6 POP DUP1 NOT DUP5 AND SWAP4 POP DUP1 DUP7 AND DUP5 OR SWAP3 POP POP POP SWAP4 SWAP3 POP POP POP JUMP JUMPDEST PUSH1 0x0 DUP2 SWAP1 POP SWAP2 SWAP1 POP JUMP JUMPDEST PUSH1 0x0 PUSH2 0x1121 PUSH2 0x111C PUSH2 0x1117 DUP5 PUSH2 0xAEA JUMP JUMPDEST PUSH2 0x10FC JUMP JUMPDEST PUSH2 0xAEA JUMP JUMPDEST SWAP1 POP SWAP2 SWAP1 POP JUMP JUMPDEST PUSH1 0x0 DUP2 SWAP1 POP SWAP2 SWAP1 POP JUMP JUMPDEST PUSH2 0x113B DUP4 PUSH2 0x1106 JUMP JUMPDEST PUSH2 0x114F PUSH2 0x1147 DUP3 PUSH2 0x1128 JUMP JUMPDEST DUP5 DUP5 SLOAD PUSH2 0x10AA JUMP JUMPDEST DUP3 SSTORE POP POP POP POP JUMP JUMPDEST PUSH1 0x0 SWAP1 JUMP JUMPDEST PUSH2 0x1164 PUSH2 0x1157 JUMP JUMPDEST PUSH2 0x116F DUP2 DUP5 DUP5 PUSH2 0x1132 JUMP JUMPDEST POP POP POP JUMP JUMPDEST JUMPDEST DUP2 DUP2 LT ISZERO PUSH2 0x1193 JUMPI PUSH2 0x1188 PUSH1 0x0 DUP3 PUSH2 0x115C JUMP JUMPDEST PUSH1 0x1 DUP2 ADD SWAP1 POP PUSH2 0x1175 JUMP JUMPDEST POP POP JUMP JUMPDEST PUSH1 0x1F DUP3 GT ISZERO PUSH2 0x11D8 JUMPI PUSH2 0x11A9 DUP2 PUSH2 0x1078 JUMP JUMPDEST PUSH2 0x11B2 DUP5 PUSH2 0x108D JUMP JUMPDEST DUP2 ADD PUSH1 0x20 DUP6 LT ISZERO PUSH2 0x11C1 JUMPI DUP2 SWAP1 POP JUMPDEST PUSH2 0x11D5 PUSH2 0x11CD DUP6 PUSH2 0x108D JUMP JUMPDEST DUP4 ADD DUP3 PUSH2 0x1174 JUMP JUMPDEST POP POP JUMPDEST POP POP POP JUMP JUMPDEST PUSH1 0x0 DUP3 DUP3 SHR SWAP1 POP SWAP3 SWAP2 POP POP JUMP JUMPDEST PUSH1 0x0 PUSH2 0x11FB PUSH1 0x0 NOT DUP5 PUSH1 0x8 MUL PUSH2 0x11DD JUMP JUMPDEST NOT DUP1 DUP4 AND SWAP2 POP POP SWAP3 SWAP2 POP POP JUMP JUMPDEST PUSH1 0x0 PUSH2 0x1214 DUP4 DUP4 PUSH2 0x11EA JUMP JUMPDEST SWAP2 POP DUP3 PUSH1 0x2 MUL DUP3 OR SWAP1 POP SWAP3 SWAP2 POP POP JUMP JUMPDEST PUSH2 0x122D DUP3 PUSH2 0xB03 JUMP JUMPDEST PUSH8 0xFFFFFFFFFFFFFFFF DUP2 GT ISZERO PUSH2 0x1246 JUMPI PUSH2 0x1245 PUSH2 0xD2D JUMP JUMPDEST JUMPDEST PUSH2 0x1250 DUP3 SLOAD PUSH2 0xFDB JUMP JUMPDEST PUSH2 0x125B DUP3 DUP3 DUP6 PUSH2 0x1197 JUMP JUMPDEST PUSH1 0x0 PUSH1 0x20 SWAP1 POP PUSH1 0x1F DUP4 GT PUSH1 0x1 DUP2 EQ PUSH2 0x128E JUMPI PUSH1 0x0 DUP5 ISZERO PUSH2 0x127C JUMPI DUP3 DUP8 ADD MLOAD SWAP1 POP JUMPDEST PUSH2 0x1286 DUP6 DUP3 PUSH2 0x1208 JUMP JUMPDEST DUP7 SSTORE POP PUSH2 0x12EE JUMP JUMPDEST PUSH1 0x1F NOT DUP5 AND PUSH2 0x129C DUP7 PUSH2 0x1078 JUMP JUMPDEST PUSH1 0x0 JUMPDEST DUP3 DUP2 LT ISZERO PUSH2 0x12C4 JUMPI DUP5 DUP10 ADD MLOAD DUP3 SSTORE PUSH1 0x1 DUP3 ADD SWAP2 POP PUSH1 0x20 DUP6 ADD SWAP5 POP PUSH1 0x20 DUP2 ADD SWAP1 POP PUSH2 0x129F JUMP JUMPDEST DUP7 DUP4 LT ISZERO PUSH2 0x12E1 JUMPI DUP5 DUP10 ADD MLOAD PUSH2 0x12DD PUSH1 0x1F DUP10 AND DUP3 PUSH2 0x11EA JUMP JUMPDEST DUP4 SSTORE POP JUMPDEST PUSH1 0x1 PUSH1 0x2 DUP9 MUL ADD DUP9 SSTORE POP POP POP JUMPDEST POP POP POP POP POP POP JUMP JUMPDEST PUSH32 0x4E487B7100000000000000000000000000000000000000000000000000000000 PUSH1 0x0 MSTORE PUSH1 0x32 PUSH1 0x4 MSTORE PUSH1 0x24 PUSH1 0x0 REVERT JUMPDEST PUSH32 0x4B69747479206E6F7420666F722073616C650000000000000000000000000000 PUSH1 0x0 DUP3 ADD MSTORE POP JUMP JUMPDEST PUSH1 0x0 PUSH2 0x135B PUSH1 0x12 DUP4 PUSH2 0xF24 JUMP JUMPDEST SWAP2 POP PUSH2 0x1366 DUP3 PUSH2 0x1325 JUMP JUMPDEST PUSH1 0x20 DUP3 ADD SWAP1 POP SWAP2 SWAP1 POP JUMP JUMPDEST PUSH1 0x0 PUSH1 0x20 DUP3 ADD SWAP1 POP DUP2 DUP2 SUB PUSH1 0x0 DUP4 ADD MSTORE PUSH2 0x138A DUP2 PUSH2 0x134E JUMP JUMPDEST SWAP1 POP SWAP2 SWAP1 POP JUMP JUMPDEST PUSH1 0x0 PUSH1 0x60 DUP3 ADD SWAP1 POP PUSH2 0x13A6 PUSH1 0x0 DUP4 ADD DUP7 PUSH2 0xEA1 JUMP JUMPDEST PUSH2 0x13B3 PUSH1 0x20 DUP4 ADD DUP6 PUSH2 0xEA1 JUMP JUMPDEST PUSH2 0x13C0 PUSH1 0x40 DUP4 ADD DUP5 PUSH2 0xCE5 JUMP JUMPDEST SWAP5 SWAP4 POP POP POP POP JUMP JUMPDEST PUSH1 0x0 DUP2 MLOAD SWAP1 POP PUSH2 0x13D7 DUP2 PUSH2 0xECB JUMP JUMPDEST SWAP3 SWAP2 POP POP JUMP JUMPDEST PUSH1 0x0 PUSH1 0x20 DUP3 DUP5 SUB SLT ISZERO PUSH2 0x13F3 JUMPI PUSH2 0x13F2 PUSH2 0xD19 JUMP JUMPDEST JUMPDEST PUSH1 0x0 PUSH2 0x1401 DUP5 DUP3 DUP6 ADD PUSH2 0x13C8 JUMP JUMPDEST SWAP2 POP POP SWAP3 SWAP2 POP POP JUMP INVALID LOG2 PUSH5 0x6970667358 0x22 SLT KECCAK256 DUP4 SUB 0xED 0xC2 0xB0 CALLCODE SWAP12 DUP1 0xCA EXTCODECOPY PUSH9 0x6A9A6F07478F26512 PUSH12 0x150C5A331407D711CA108964 PUSH20 0x6F6C634300080F00330000000000000000000000 "
				},
				"gasEstimates": {
					"creation": {
						"codeDepositCost": "1036800",
						"executionCost": "98116",
						"totalCost": "1134916"
					},
					"external": {
						"buyKitty(uint256)": "infinite",
						"createKitty(string)": "infinite",
						"getBalance()": "2629",
						"getOwner()": "2522",
						"kitties(uint256)": "infinite",
						"transferToOwner()": "infinite",
						"viewKitty()": "infinite",
						"withdrawFromBank()": "infinite"
					}
				},
				"methodIdentifiers": {
					"buyKitty(uint256)": "ae5310f6",
					"createKitty(string)": "35844dad",
					"getBalance()": "12065fe0",
					"getOwner()": "893d20e8",
					"kitties(uint256)": "8cc51eda",
					"transferToOwner()": "2d90ae94",
					"viewKitty()": "0c3fddef",
					"withdrawFromBank()": "be80d447"
				}
			},
			"storageLayout": {
				"storage": [
					{
						"astId": 204,
						"contract": "contracts/nftMarket.sol:NFTMarket",
						"label": "owner",
						"offset": 0,
						"slot": "0",
						"type": "t_address"
					},
					{
						"astId": 35,
						"contract": "contracts/nftMarket.sol:NFTMarket",
						"label": "kitties",
						"offset": 0,
						"slot": "1",
						"type": "t_array(t_struct(Kitty)31_storage)dyn_storage"
					},
					{
						"astId": 40,
						"contract": "contracts/nftMarket.sol:NFTMarket",
						"label": "ownedKittyies",
						"offset": 0,
						"slot": "2",
						"type": "t_mapping(t_address,t_array(t_uint256)dyn_storage)"
					},
					{
						"astId": 43,
						"contract": "contracts/nftMarket.sol:NFTMarket",
						"label": "price",
						"offset": 0,
						"slot": "3",
						"type": "t_uint256"
					},
					{
						"astId": 46,
						"contract": "contracts/nftMarket.sol:NFTMarket",
						"label": "bankAddress",
						"offset": 0,
						"slot": "4",
						"type": "t_address"
					},
					{
						"astId": 52,
						"contract": "contracts/nftMarket.sol:NFTMarket",
						"label": "bank",
						"offset": 0,
						"slot": "5",
						"type": "t_contract(IBank)22"
					}
				],
				"types": {
					"t_address": {
						"encoding": "inplace",
						"label": "address",
						"numberOfBytes": "20"
					},
					"t_array(t_struct(Kitty)31_storage)dyn_storage": {
						"base": "t_struct(Kitty)31_storage",
						"encoding": "dynamic_array",
						"label": "struct NFTMarket.Kitty[]",
						"numberOfBytes": "32"
					},
					"t_array(t_uint256)dyn_storage": {
						"base": "t_uint256",
						"encoding": "dynamic_array",
						"label": "uint256[]",
						"numberOfBytes": "32"
					},
					"t_contract(IBank)22": {
						"encoding": "inplace",
						"label": "contract IBank",
						"numberOfBytes": "20"
					},
					"t_mapping(t_address,t_array(t_uint256)dyn_storage)": {
						"encoding": "mapping",
						"key": "t_address",
						"label": "mapping(address => uint256[])",
						"numberOfBytes": "32",
						"value": "t_array(t_uint256)dyn_storage"
					},
					"t_string_storage": {
						"encoding": "bytes",
						"label": "string",
						"numberOfBytes": "32"
					},
					"t_struct(Kitty)31_storage": {
						"encoding": "inplace",
						"label": "struct NFTMarket.Kitty",
						"members": [
							{
								"astId": 26,
								"contract": "contracts/nftMarket.sol:NFTMarket",
								"label": "id",
								"offset": 0,
								"slot": "0",
								"type": "t_uint256"
							},
							{
								"astId": 28,
								"contract": "contracts/nftMarket.sol:NFTMarket",
								"label": "name",
								"offset": 0,
								"slot": "1",
								"type": "t_string_storage"
							},
							{
								"astId": 30,
								"contract": "contracts/nftMarket.sol:NFTMarket",
								"label": "owner",
								"offset": 0,
								"slot": "2",
								"type": "t_address"
							}
						],
						"numberOfBytes": "96"
					},
					"t_uint256": {
						"encoding": "inplace",
						"label": "uint256",
						"numberOfBytes": "32"
					}
				}
			},
			"userdoc": {
				"kind": "user",
				"methods": {},
				"version": 1
			}
		}
	}
}